
STM32H757_Template_CM4.elf:     file format elf32-littlearm

Sections:
Idx Name          Size      VMA       LMA       File off  Algn
  0 .isr_vector   00000298  08100000  08100000  00010000  2**0
                  CONTENTS, ALLOC, LOAD, READONLY, DATA
  1 .text         00002a2c  081002a0  081002a0  000102a0  2**4
                  CONTENTS, ALLOC, LOAD, READONLY, CODE
  2 .rodata       00000068  08102ccc  08102ccc  00012ccc  2**2
                  CONTENTS, ALLOC, LOAD, READONLY, DATA
  3 .init_array   00000004  08102d34  08102d34  00012d34  2**2
                  CONTENTS, ALLOC, LOAD, DATA
  4 .fini_array   00000004  08102d38  08102d38  00012d38  2**2
                  CONTENTS, ALLOC, LOAD, DATA
  5 .data         00000014  10000000  08102d3c  00020000  2**2
                  CONTENTS, ALLOC, LOAD, DATA
  6 .bss          00005c24  10000014  08102d50  00020014  2**2
                  ALLOC
  7 ._user_heap_stack 00000600  10005c38  08102d50  00025c38  2**0
                  ALLOC
  8 .ARM.attributes 00000030  00000000  00000000  00020014  2**0
                  CONTENTS, READONLY
  9 .debug_info   00011c68  00000000  00000000  00020044  2**0
                  CONTENTS, READONLY, DEBUGGING, OCTETS
 10 .debug_abbrev 00003a6f  00000000  00000000  00031cac  2**0
                  CONTENTS, READONLY, DEBUGGING, OCTETS
 11 .debug_aranges 00000ac0  00000000  00000000  00035720  2**3
                  CONTENTS, READONLY, DEBUGGING, OCTETS
 12 .debug_ranges 00000800  00000000  00000000  000361e0  2**3
                  CONTENTS, READONLY, DEBUGGING, OCTETS
 13 .debug_macro  0004146e  00000000  00000000  000369e0  2**0
                  CONTENTS, READONLY, DEBUGGING, OCTETS
 14 .debug_line   000131c9  00000000  00000000  00077e4e  2**0
                  CONTENTS, READONLY, DEBUGGING, OCTETS
 15 .debug_str    00197104  00000000  00000000  0008b017  2**0
                  CONTENTS, READONLY, DEBUGGING, OCTETS
 16 .comment      00000050  00000000  00000000  0022211b  2**0
                  CONTENTS, READONLY
 17 .debug_frame  00001fb8  00000000  00000000  0022216c  2**2
                  CONTENTS, READONLY, DEBUGGING, OCTETS

Disassembly of section .text:

081002a0 <__do_global_dtors_aux>:
 81002a0:	b510      	push	{r4, lr}
 81002a2:	4c05      	ldr	r4, [pc, #20]	; (81002b8 <__do_global_dtors_aux+0x18>)
 81002a4:	7823      	ldrb	r3, [r4, #0]
 81002a6:	b933      	cbnz	r3, 81002b6 <__do_global_dtors_aux+0x16>
 81002a8:	4b04      	ldr	r3, [pc, #16]	; (81002bc <__do_global_dtors_aux+0x1c>)
 81002aa:	b113      	cbz	r3, 81002b2 <__do_global_dtors_aux+0x12>
 81002ac:	4804      	ldr	r0, [pc, #16]	; (81002c0 <__do_global_dtors_aux+0x20>)
 81002ae:	f3af 8000 	nop.w
 81002b2:	2301      	movs	r3, #1
 81002b4:	7023      	strb	r3, [r4, #0]
 81002b6:	bd10      	pop	{r4, pc}
 81002b8:	10000014 	.word	0x10000014
 81002bc:	00000000 	.word	0x00000000
 81002c0:	08102cb4 	.word	0x08102cb4

081002c4 <frame_dummy>:
 81002c4:	b508      	push	{r3, lr}
 81002c6:	4b03      	ldr	r3, [pc, #12]	; (81002d4 <frame_dummy+0x10>)
 81002c8:	b11b      	cbz	r3, 81002d2 <frame_dummy+0xe>
 81002ca:	4903      	ldr	r1, [pc, #12]	; (81002d8 <frame_dummy+0x14>)
 81002cc:	4803      	ldr	r0, [pc, #12]	; (81002dc <frame_dummy+0x18>)
 81002ce:	f3af 8000 	nop.w
 81002d2:	bd08      	pop	{r3, pc}
 81002d4:	00000000 	.word	0x00000000
 81002d8:	10000018 	.word	0x10000018
 81002dc:	08102cb4 	.word	0x08102cb4

081002e0 <_tx_initialize_low_level>:
    .thumb_func
_tx_initialize_low_level:
@
@    /* Disable interrupts during ThreadX initialization.  */
@
    CPSID   i
 81002e0:	b672      	cpsid	i
    STR     r1, [r0]                                @ Setup first unused memory pointer
#endif
@
@    /* Setup Vector Table Offset Register.  */
@
    MOV     r0, #0xE000E000                         @ Build address of NVIC registers
 81002e2:	f04f 20e0 	mov.w	r0, #3758153728	; 0xe000e000
    LDR     r1, =g_pfnVectors                           @ Pickup address of vector table
 81002e6:	4919      	ldr	r1, [pc, #100]	; (810034c <__tx_DBGHandler+0x4>)
    STR     r1, [r0, #0xD08]                        @ Set vector table address
 81002e8:	f8c0 1d08 	str.w	r1, [r0, #3336]	; 0xd08
@
@    /* Set system stack pointer from vector value.  */
@
    LDR     r0, =_tx_thread_system_stack_ptr        @ Build address of system stack pointer
 81002ec:	4818      	ldr	r0, [pc, #96]	; (8100350 <__tx_DBGHandler+0x8>)
    LDR     r1, =g_pfnVectors                           @ Pickup address of vector table
 81002ee:	4917      	ldr	r1, [pc, #92]	; (810034c <__tx_DBGHandler+0x4>)
    LDR     r1, [r1]                                @ Pickup reset stack pointer
 81002f0:	6809      	ldr	r1, [r1, #0]
    STR     r1, [r0]                                @ Save system stack pointer
 81002f2:	6001      	str	r1, [r0, #0]
@
@    /* Enable the cycle count register.  */
@
    LDR     r0, =0xE0001000                         @ Build address of DWT register
 81002f4:	4817      	ldr	r0, [pc, #92]	; (8100354 <__tx_DBGHandler+0xc>)
    LDR     r1, [r0]                                @ Pickup the current value
 81002f6:	6801      	ldr	r1, [r0, #0]
    ORR     r1, r1, #1                              @ Set the CYCCNTENA bit
 81002f8:	f041 0101 	orr.w	r1, r1, #1
    STR     r1, [r0]                                @ Enable the cycle count register
 81002fc:	6001      	str	r1, [r0, #0]
@
@    /* Configure SysTick for 100Hz clock, or 16384 cycles if no reference.  */
@
    MOV     r0, #0xE000E000                         @ Build address of NVIC registers
 81002fe:	f04f 20e0 	mov.w	r0, #3758153728	; 0xe000e000
    LDR     r1, =SYSTICK_CYCLES
 8100302:	4915      	ldr	r1, [pc, #84]	; (8100358 <__tx_DBGHandler+0x10>)
    STR     r1, [r0, #0x14]                         @ Setup SysTick Reload Value
 8100304:	6141      	str	r1, [r0, #20]
    MOV     r1, #0x7                                @ Build SysTick Control Enable Value
 8100306:	f04f 0107 	mov.w	r1, #7
    STR     r1, [r0, #0x10]                         @ Setup SysTick Control
 810030a:	6101      	str	r1, [r0, #16]
@
@    /* Configure handler priorities.  */
@
    LDR     r1, =0x00000000                         @ Rsrv, UsgF, BusF, MemM
 810030c:	f04f 0100 	mov.w	r1, #0
    STR     r1, [r0, #0xD18]                        @ Setup System Handlers 4-7 Priority Registers
 8100310:	f8c0 1d18 	str.w	r1, [r0, #3352]	; 0xd18

    LDR     r1, =0xFF000000                         @ SVCl, Rsrv, Rsrv, Rsrv
 8100314:	f04f 417f 	mov.w	r1, #4278190080	; 0xff000000
    STR     r1, [r0, #0xD1C]                        @ Setup System Handlers 8-11 Priority Registers
 8100318:	f8c0 1d1c 	str.w	r1, [r0, #3356]	; 0xd1c
                                                    @ Note: SVC must be lowest priority, which is 0xFF

    LDR     r1, =0x40FF0000                         @ SysT, PnSV, Rsrv, DbgM
 810031c:	490f      	ldr	r1, [pc, #60]	; (810035c <__tx_DBGHandler+0x14>)
    STR     r1, [r0, #0xD20]                        @ Setup System Handlers 12-15 Priority Registers
 810031e:	f8c0 1d20 	str.w	r1, [r0, #3360]	; 0xd20
                                                    @ Note: PnSV must be lowest priority, which is 0xFF
@
@    /* Return to caller.  */
@
    BX      lr
 8100322:	4770      	bx	lr

08100324 <__tx_BadHandler>:
@/* Define shells for each of the unused vectors.  */
@
    .global  __tx_BadHandler
    .thumb_func
__tx_BadHandler:
    B       __tx_BadHandler
 8100324:	f7ff bffe 	b.w	8100324 <__tx_BadHandler>

08100328 <__tx_HardfaultHandler>:
@ /* added to catch the hardfault */

    .global  __tx_HardfaultHandler
    .thumb_func
__tx_HardfaultHandler:
    B       __tx_HardfaultHandler
 8100328:	f7ff bffe 	b.w	8100328 <__tx_HardfaultHandler>

0810032c <__tx_SVCallHandler>:
@ /* added to catch the SVC */

    .global  __tx_SVCallHandler
    .thumb_func
__tx_SVCallHandler:
    B       __tx_SVCallHandler
 810032c:	f7ff bffe 	b.w	810032c <__tx_SVCallHandler>

08100330 <__tx_IntHandler>:
    .global  __tx_IntHandler
    .thumb_func
__tx_IntHandler:
@ VOID InterruptHandler (VOID)
@ {
    PUSH    {r0, lr}
 8100330:	b501      	push	{r0, lr}
@    /* BL <your C Function>.... */

#ifdef TX_ENABLE_EXECUTION_CHANGE_NOTIFY
    BL      _tx_execution_isr_exit              @ Call the ISR exit function
#endif
    POP     {r0, lr}
 8100332:	e8bd 4001 	ldmia.w	sp!, {r0, lr}
    BX      LR
 8100336:	4770      	bx	lr

08100338 <SysTick_Handler>:
    .thumb_func
SysTick_Handler:
@ VOID TimerInterruptHandler (VOID)
@ {
@
    PUSH    {r0, lr}
 8100338:	b501      	push	{r0, lr}
#ifdef TX_ENABLE_EXECUTION_CHANGE_NOTIFY
    BL      _tx_execution_isr_enter             @ Call the ISR enter function
#endif
    BL      _tx_timer_interrupt
 810033a:	f000 f891 	bl	8100460 <_tx_timer_interrupt>
#ifdef TX_ENABLE_EXECUTION_CHANGE_NOTIFY
    BL      _tx_execution_isr_exit              @ Call the ISR exit function
#endif
    POP     {r0, lr}
 810033e:	e8bd 4001 	ldmia.w	sp!, {r0, lr}
    BX      LR
 8100342:	4770      	bx	lr

08100344 <__tx_NMIHandler>:

@ /* NMI, DBG handlers */
    .global  __tx_NMIHandler
    .thumb_func
__tx_NMIHandler:
    B       __tx_NMIHandler
 8100344:	f7ff bffe 	b.w	8100344 <__tx_NMIHandler>

08100348 <__tx_DBGHandler>:

    .global  __tx_DBGHandler
    .thumb_func
__tx_DBGHandler:
    B       __tx_DBGHandler
 8100348:	f7ff bffe 	b.w	8100348 <__tx_DBGHandler>
    LDR     r1, =g_pfnVectors                           @ Pickup address of vector table
 810034c:	08100000 	.word	0x08100000
    LDR     r0, =_tx_thread_system_stack_ptr        @ Build address of system stack pointer
 8100350:	1000562c 	.word	0x1000562c
    LDR     r0, =0xE0001000                         @ Build address of DWT register
 8100354:	e0001000 	.word	0xe0001000
    LDR     r1, =SYSTICK_CYCLES
 8100358:	001e847f 	.word	0x001e847f
    LDR     r1, =0x40FF0000                         @ SysT, PnSV, Rsrv, DbgM
 810035c:	40ff0000 	.word	0x40ff0000

08100360 <_tx_thread_schedule>:
       from the first schedule request. Subsequent scheduling occurs
       from the PendSV handling routine below. */

    /* Clear the preempt-disable flag to enable rescheduling after initialization on Cortex-M targets.  */

    MOV     r0, #0                                  // Build value for TX_FALSE
 8100360:	f04f 0000 	mov.w	r0, #0
    LDR     r2, =_tx_thread_preempt_disable         // Build address of preempt disable flag
 8100364:	4a2a      	ldr	r2, [pc, #168]	; (8100410 <tx_thread_fpu_disable+0x2>)
    STR     r0, [r2, #0]                            // Clear preempt disable flag
 8100366:	6010      	str	r0, [r2, #0]

    /* Clear CONTROL.FPCA bit so VFP registers aren't unnecessarily stacked.  */

#ifdef __ARM_PCS_VFP
    MRS     r0, CONTROL                             // Pickup current CONTROL register
 8100368:	f3ef 8014 	mrs	r0, CONTROL
    BIC     r0, r0, #4                              // Clear the FPCA bit
 810036c:	f020 0004 	bic.w	r0, r0, #4
    MSR     CONTROL, r0                             // Setup new CONTROL register
 8100370:	f380 8814 	msr	CONTROL, r0
#endif

    /* Enable interrupts */
    CPSIE   i
 8100374:	b662      	cpsie	i

    /* Enter the scheduler for the first time.  */

    MOV     r0, #0x10000000                         // Load PENDSVSET bit
 8100376:	f04f 5080 	mov.w	r0, #268435456	; 0x10000000
    MOV     r1, #0xE000E000                         // Load NVIC base
 810037a:	f04f 21e0 	mov.w	r1, #3758153728	; 0xe000e000
    STR     r0, [r1, #0xD04]                        // Set PENDSVBIT in ICSR
 810037e:	f8c1 0d04 	str.w	r0, [r1, #3332]	; 0xd04
    DSB                                             // Complete all memory accesses
 8100382:	f3bf 8f4f 	dsb	sy
    ISB                                             // Flush pipeline
 8100386:	f3bf 8f6f 	isb	sy

0810038a <__tx_wait_here>:

    /* Wait here for the PendSV to take place.  */

__tx_wait_here:
    B       __tx_wait_here                          // Wait for the PendSV to happen
 810038a:	e7fe      	b.n	810038a <__tx_wait_here>

0810038c <PendSV_Handler>:
    BL      _tx_execution_thread_exit               // Call the thread exit function
    POP     {r0, lr}                                // Recover LR
    CPSIE   i                                       // Enable interrupts
#endif

    LDR     r0, =_tx_thread_current_ptr             // Build current thread pointer address
 810038c:	4821      	ldr	r0, [pc, #132]	; (8100414 <tx_thread_fpu_disable+0x6>)
    LDR     r2, =_tx_thread_execute_ptr             // Build execute thread pointer address
 810038e:	4a22      	ldr	r2, [pc, #136]	; (8100418 <tx_thread_fpu_disable+0xa>)
    MOV     r3, #0                                  // Build NULL value
 8100390:	f04f 0300 	mov.w	r3, #0
    LDR     r1, [r0]                                // Pickup current thread pointer
 8100394:	6801      	ldr	r1, [r0, #0]

    /* Determine if there is a current thread to finish preserving.  */

    CBZ     r1, __tx_ts_new                         // If NULL, skip preservation
 8100396:	b191      	cbz	r1, 81003be <__tx_ts_new>

    /* Recover PSP and preserve current thread context.  */

    STR     r3, [r0]                                // Set _tx_thread_current_ptr to NULL
 8100398:	6003      	str	r3, [r0, #0]
    MRS     r12, PSP                                // Pickup PSP pointer (thread's stack pointer)
 810039a:	f3ef 8c09 	mrs	ip, PSP
    STMDB   r12!, {r4-r11}                          // Save its remaining registers
 810039e:	e92c 0ff0 	stmdb	ip!, {r4, r5, r6, r7, r8, r9, sl, fp}
#ifdef __ARM_PCS_VFP
    TST     LR, #0x10                               // Determine if the VFP extended frame is present
 81003a2:	f01e 0f10 	tst.w	lr, #16
    BNE     _skip_vfp_save
 81003a6:	d101      	bne.n	81003ac <_skip_vfp_save>
    VSTMDB  r12!,{s16-s31}                          // Yes, save additional VFP registers
 81003a8:	ed2c 8a10 	vstmdb	ip!, {s16-s31}

081003ac <_skip_vfp_save>:
_skip_vfp_save:
#endif
    LDR     r4, =_tx_timer_time_slice               // Build address of time-slice variable
 81003ac:	4c1b      	ldr	r4, [pc, #108]	; (810041c <tx_thread_fpu_disable+0xe>)
    STMDB   r12!, {LR}                              // Save LR on the stack
 81003ae:	f84c ed04 	str.w	lr, [ip, #-4]!

    /* Determine if time-slice is active. If it isn't, skip time handling processing.  */

    LDR     r5, [r4]                                // Pickup current time-slice
 81003b2:	6825      	ldr	r5, [r4, #0]
    STR     r12, [r1, #8]                           // Save the thread stack pointer
 81003b4:	f8c1 c008 	str.w	ip, [r1, #8]
    CBZ     r5, __tx_ts_new                         // If not active, skip processing
 81003b8:	b10d      	cbz	r5, 81003be <__tx_ts_new>

    /* Time-slice is active, save the current thread's time-slice and clear the global time-slice variable.  */

    STR     r5, [r1, #24]                           // Save current time-slice
 81003ba:	618d      	str	r5, [r1, #24]

    /* Clear the global time-slice.  */

    STR     r3, [r4]                                // Clear time-slice
 81003bc:	6023      	str	r3, [r4, #0]

081003be <__tx_ts_new>:

__tx_ts_new:

    /* Now we are looking for a new thread to execute!  */

    CPSID   i                                       // Disable interrupts
 81003be:	b672      	cpsid	i
    LDR     r1, [r2]                                // Is there another thread ready to execute?
 81003c0:	6811      	ldr	r1, [r2, #0]
    CBZ     r1, __tx_ts_wait                        // No, skip to the wait processing
 81003c2:	b1b1      	cbz	r1, 81003f2 <__tx_ts_wait>

    /* Yes, another thread is ready for else, make the current thread the new thread.  */

    STR     r1, [r0]                                // Setup the current thread pointer to the new thread
 81003c4:	6001      	str	r1, [r0, #0]
    CPSIE   i                                       // Enable interrupts
 81003c6:	b662      	cpsie	i

081003c8 <__tx_ts_restore>:

    /* Increment the thread run count.  */

__tx_ts_restore:
    LDR     r7, [r1, #4]                            // Pickup the current thread run count
 81003c8:	684f      	ldr	r7, [r1, #4]
    LDR     r4, =_tx_timer_time_slice               // Build address of time-slice variable
 81003ca:	4c14      	ldr	r4, [pc, #80]	; (810041c <tx_thread_fpu_disable+0xe>)
    LDR     r5, [r1, #24]                           // Pickup thread's current time-slice
 81003cc:	698d      	ldr	r5, [r1, #24]
    ADD     r7, r7, #1                              // Increment the thread run count
 81003ce:	f107 0701 	add.w	r7, r7, #1
    STR     r7, [r1, #4]                            // Store the new run count
 81003d2:	604f      	str	r7, [r1, #4]

    /* Setup global time-slice with thread's current time-slice.  */

    STR     r5, [r4]                                // Setup global time-slice
 81003d4:	6025      	str	r5, [r4, #0]
    POP     {r0, r1}                                // Recover r0 and r1
#endif

    /* Restore the thread context and PSP.  */

    LDR     r12, [r1, #8]                           // Pickup thread's stack pointer
 81003d6:	f8d1 c008 	ldr.w	ip, [r1, #8]
    LDMIA   r12!, {LR}                              // Pickup LR
 81003da:	f85c eb04 	ldr.w	lr, [ip], #4
#ifdef __ARM_PCS_VFP
    TST     LR, #0x10                               // Determine if the VFP extended frame is present
 81003de:	f01e 0f10 	tst.w	lr, #16
    BNE     _skip_vfp_restore                       // If not, skip VFP restore
 81003e2:	d101      	bne.n	81003e8 <_skip_vfp_restore>
    VLDMIA  r12!, {s16-s31}                         // Yes, restore additional VFP registers
 81003e4:	ecbc 8a10 	vldmia	ip!, {s16-s31}

081003e8 <_skip_vfp_restore>:
_skip_vfp_restore:
#endif
    LDMIA   r12!, {r4-r11}                          // Recover thread's registers
 81003e8:	e8bc 0ff0 	ldmia.w	ip!, {r4, r5, r6, r7, r8, r9, sl, fp}
    MSR     PSP, r12                                // Setup the thread's stack pointer
 81003ec:	f38c 8809 	msr	PSP, ip

    /* Return to thread.  */

    BX      lr                                      // Return to thread!
 81003f0:	4770      	bx	lr

081003f2 <__tx_ts_wait>:
    /* The following is the idle wait processing... in this case, no threads are ready for execution and the
       system will simply be idle until an interrupt occurs that makes a thread ready. Note that interrupts
       are disabled to allow use of WFI for waiting for a thread to arrive.  */

__tx_ts_wait:
    CPSID   i                                       // Disable interrupts
 81003f2:	b672      	cpsid	i
    LDR     r1, [r2]                                // Pickup the next thread to execute pointer
 81003f4:	6811      	ldr	r1, [r2, #0]
    STR     r1, [r0]                                // Store it in the current pointer
 81003f6:	6001      	str	r1, [r0, #0]
    CBNZ    r1, __tx_ts_ready                       // If non-NULL, a new thread is ready!
 81003f8:	b909      	cbnz	r1, 81003fe <__tx_ts_ready>
    PUSH    {r0-r3}
    BL      tx_low_power_exit                       // Exit low power mode
    POP     {r0-r3}
#endif

    CPSIE   i                                       // Enable interrupts
 81003fa:	b662      	cpsie	i
    B       __tx_ts_wait                            // Loop to continue waiting
 81003fc:	e7f9      	b.n	81003f2 <__tx_ts_wait>

081003fe <__tx_ts_ready>:

    /* At this point, we have a new thread ready to go. Clear any newly pended PendSV - since we are
       already in the handler!  */

__tx_ts_ready:
    MOV     r7, #0x08000000                         // Build clear PendSV value
 81003fe:	f04f 6700 	mov.w	r7, #134217728	; 0x8000000
    MOV     r8, #0xE000E000                         // Build base NVIC address
 8100402:	f04f 28e0 	mov.w	r8, #3758153728	; 0xe000e000
    STR     r7, [r8, #0xD04]                        // Clear any PendSV
 8100406:	f8c8 7d04 	str.w	r7, [r8, #3332]	; 0xd04

    /* Re-enable interrupts and restore new thread.  */

    CPSIE   i                                       // Enable interrupts
 810040a:	b662      	cpsie	i
    B       __tx_ts_restore                         // Restore the thread
 810040c:	e7dc      	b.n	81003c8 <__tx_ts_restore>

0810040e <tx_thread_fpu_disable>:
tx_thread_fpu_disable:

    /* Automatic VPF logic is supported, this function is present only for
       backward compatibility purposes and therefore simply returns.  */

    BX      LR                                      // Return to caller
 810040e:	4770      	bx	lr
    LDR     r2, =_tx_thread_preempt_disable         // Build address of preempt disable flag
 8100410:	100056c8 	.word	0x100056c8
    LDR     r0, =_tx_thread_current_ptr             // Build current thread pointer address
 8100414:	10005630 	.word	0x10005630
    LDR     r2, =_tx_thread_execute_ptr             // Build execute thread pointer address
 8100418:	10005634 	.word	0x10005634
    LDR     r4, =_tx_timer_time_slice               // Build address of time-slice variable
 810041c:	10005c34 	.word	0x10005c34

08100420 <_tx_thread_stack_build>:
                       pc          Initial value for pc
                       xPSR        Initial value for xPSR

    Stack Bottom: (higher memory address)  */

    LDR     r2, [r0, #16]                           // Pickup end of stack area
 8100420:	6902      	ldr	r2, [r0, #16]
    BIC     r2, r2, #0x7                            // Align frame for 8-byte alignment
 8100422:	f022 0207 	bic.w	r2, r2, #7
    SUB     r2, r2, #68                             // Subtract frame size
 8100426:	f1a2 0244 	sub.w	r2, r2, #68	; 0x44
    LDR     r3, =0xFFFFFFFD                         // Build initial LR value
 810042a:	f06f 0302 	mvn.w	r3, #2
    STR     r3, [r2, #0]                            // Save on the stack
 810042e:	6013      	str	r3, [r2, #0]

    /* Actually build the stack frame.  */

    MOV     r3, #0                                  // Build initial register value
 8100430:	f04f 0300 	mov.w	r3, #0
    STR     r3, [r2, #4]                            // Store initial r4
 8100434:	6053      	str	r3, [r2, #4]
    STR     r3, [r2, #8]                            // Store initial r5
 8100436:	6093      	str	r3, [r2, #8]
    STR     r3, [r2, #12]                           // Store initial r6
 8100438:	60d3      	str	r3, [r2, #12]
    STR     r3, [r2, #16]                           // Store initial r7
 810043a:	6113      	str	r3, [r2, #16]
    STR     r3, [r2, #20]                           // Store initial r8
 810043c:	6153      	str	r3, [r2, #20]
    STR     r3, [r2, #24]                           // Store initial r9
 810043e:	6193      	str	r3, [r2, #24]
    STR     r3, [r2, #28]                           // Store initial r10
 8100440:	61d3      	str	r3, [r2, #28]
    STR     r3, [r2, #32]                           // Store initial r11
 8100442:	6213      	str	r3, [r2, #32]

    /* Hardware stack follows.  */

    STR     r3, [r2, #36]                           // Store initial r0
 8100444:	6253      	str	r3, [r2, #36]	; 0x24
    STR     r3, [r2, #40]                           // Store initial r1
 8100446:	6293      	str	r3, [r2, #40]	; 0x28
    STR     r3, [r2, #44]                           // Store initial r2
 8100448:	62d3      	str	r3, [r2, #44]	; 0x2c
    STR     r3, [r2, #48]                           // Store initial r3
 810044a:	6313      	str	r3, [r2, #48]	; 0x30
    STR     r3, [r2, #52]                           // Store initial r12
 810044c:	6353      	str	r3, [r2, #52]	; 0x34
    MOV     r3, #0xFFFFFFFF                         // Poison EXC_RETURN value
 810044e:	f04f 33ff 	mov.w	r3, #4294967295
    STR     r3, [r2, #56]                           // Store initial lr
 8100452:	6393      	str	r3, [r2, #56]	; 0x38
    STR     r1, [r2, #60]                           // Store initial pc
 8100454:	63d1      	str	r1, [r2, #60]	; 0x3c
    MOV     r3, #0x01000000                         // Only T-bit need be set
 8100456:	f04f 7380 	mov.w	r3, #16777216	; 0x1000000
    STR     r3, [r2, #64]                           // Store initial xPSR
 810045a:	6413      	str	r3, [r2, #64]	; 0x40

    /* Setup stack pointer.  */
    // thread_ptr -> tx_thread_stack_ptr =  r2;

    STR     r2, [r0, #8]                            // Save stack pointer in thread's
 810045c:	6082      	str	r2, [r0, #8]
                                                    //   control block
    BX      lr                                      // Return to caller
 810045e:	4770      	bx	lr

08100460 <_tx_timer_interrupt>:
       for use.  */

    /* Increment the system clock.  */
    // _tx_timer_system_clock++;

    LDR     r1, =_tx_timer_system_clock             // Pickup address of system clock
 8100460:	4922      	ldr	r1, [pc, #136]	; (81004ec <__tx_timer_nothing_expired+0x6>)
    LDR     r0, [r1, #0]                            // Pickup system clock
 8100462:	6808      	ldr	r0, [r1, #0]
    ADD     r0, r0, #1                              // Increment system clock
 8100464:	f100 0001 	add.w	r0, r0, #1
    STR     r0, [r1, #0]                            // Store new system clock
 8100468:	6008      	str	r0, [r1, #0]

    /* Test for time-slice expiration.  */
    // if (_tx_timer_time_slice)
    // {

    LDR     r3, =_tx_timer_time_slice               // Pickup address of time-slice
 810046a:	4b21      	ldr	r3, [pc, #132]	; (81004f0 <__tx_timer_nothing_expired+0xa>)
    LDR     r2, [r3, #0]                            // Pickup time-slice
 810046c:	681a      	ldr	r2, [r3, #0]
    CBZ     r2, __tx_timer_no_time_slice            // Is it non-active?
 810046e:	b13a      	cbz	r2, 8100480 <__tx_timer_no_time_slice>
                                                    // Yes, skip time-slice processing

       /* Decrement the time_slice.  */
       // _tx_timer_time_slice--;

    SUB     r2, r2, #1                              // Decrement the time-slice
 8100470:	f1a2 0201 	sub.w	r2, r2, #1
    STR     r2, [r3, #0]                            // Store new time-slice value
 8100474:	601a      	str	r2, [r3, #0]

       /* Check for expiration.  */
       // if (__tx_timer_time_slice == 0)

    CBNZ    r2, __tx_timer_no_time_slice            // Has it expired?
 8100476:	b91a      	cbnz	r2, 8100480 <__tx_timer_no_time_slice>
                                                    // No, skip expiration processing

       /* Set the time-slice expired flag.  */
       // _tx_timer_expired_time_slice =  TX_TRUE;

    LDR     r3, =_tx_timer_expired_time_slice       // Pickup address of expired flag
 8100478:	4b1e      	ldr	r3, [pc, #120]	; (81004f4 <__tx_timer_nothing_expired+0xe>)
    MOV     r0, #1                                  // Build expired value
 810047a:	f04f 0001 	mov.w	r0, #1
    STR     r0, [r3, #0]                            // Set time-slice expiration flag
 810047e:	6018      	str	r0, [r3, #0]

08100480 <__tx_timer_no_time_slice>:

    /* Test for timer expiration.  */
    // if (*_tx_timer_current_ptr)
    // {

    LDR     r1, =_tx_timer_current_ptr              // Pickup current timer pointer address
 8100480:	491d      	ldr	r1, [pc, #116]	; (81004f8 <__tx_timer_nothing_expired+0x12>)
    LDR     r0, [r1, #0]                            // Pickup current timer
 8100482:	6808      	ldr	r0, [r1, #0]
    LDR     r2, [r0, #0]                            // Pickup timer list entry
 8100484:	6802      	ldr	r2, [r0, #0]
    CBZ     r2, __tx_timer_no_timer                 // Is there anything in the list?
 8100486:	b122      	cbz	r2, 8100492 <__tx_timer_no_timer>
                                                    // No, just increment the timer

        /* Set expiration flag.  */
        // _tx_timer_expired =  TX_TRUE;

    LDR     r3, =_tx_timer_expired                  // Pickup expiration flag address
 8100488:	4b1c      	ldr	r3, [pc, #112]	; (81004fc <__tx_timer_nothing_expired+0x16>)
    MOV     r2, #1                                  // Build expired value
 810048a:	f04f 0201 	mov.w	r2, #1
    STR     r2, [r3, #0]                            // Set expired flag
 810048e:	601a      	str	r2, [r3, #0]
    B       __tx_timer_done                         // Finished timer processing
 8100490:	e008      	b.n	81004a4 <__tx_timer_done>

08100492 <__tx_timer_no_timer>:
__tx_timer_no_timer:

        /* No timer expired, increment the timer pointer.  */
        // _tx_timer_current_ptr++;

    ADD     r0, r0, #4                              // Move to next timer
 8100492:	f100 0004 	add.w	r0, r0, #4

        /* Check for wrap-around.  */
        // if (_tx_timer_current_ptr == _tx_timer_list_end)

    LDR     r3, =_tx_timer_list_end                 // Pickup addr of timer list end
 8100496:	4b1a      	ldr	r3, [pc, #104]	; (8100500 <__tx_timer_nothing_expired+0x1a>)
    LDR     r2, [r3, #0]                            // Pickup list end
 8100498:	681a      	ldr	r2, [r3, #0]
    CMP     r0, r2                                  // Are we at list end?
 810049a:	4290      	cmp	r0, r2
    BNE     __tx_timer_skip_wrap                    // No, skip wrap-around logic
 810049c:	d101      	bne.n	81004a2 <__tx_timer_skip_wrap>

            /* Wrap to beginning of list.  */
            // _tx_timer_current_ptr =  _tx_timer_list_start;

    LDR     r3, =_tx_timer_list_start               // Pickup addr of timer list start
 810049e:	4b19      	ldr	r3, [pc, #100]	; (8100504 <__tx_timer_nothing_expired+0x1e>)
    LDR     r0, [r3, #0]                            // Set current pointer to list start
 81004a0:	6818      	ldr	r0, [r3, #0]

081004a2 <__tx_timer_skip_wrap>:

__tx_timer_skip_wrap:

    STR     r0, [r1, #0]                            // Store new current timer pointer
 81004a2:	6008      	str	r0, [r1, #0]

081004a4 <__tx_timer_done>:

    /* See if anything has expired.  */
    // if ((_tx_timer_expired_time_slice) || (_tx_timer_expired))
    // {

    LDR     r3, =_tx_timer_expired_time_slice       // Pickup addr of expired flag
 81004a4:	4b13      	ldr	r3, [pc, #76]	; (81004f4 <__tx_timer_nothing_expired+0xe>)
    LDR     r2, [r3, #0]                            // Pickup time-slice expired flag
 81004a6:	681a      	ldr	r2, [r3, #0]
    CBNZ    r2, __tx_something_expired              // Did a time-slice expire?
 81004a8:	b912      	cbnz	r2, 81004b0 <__tx_something_expired>
                                                    // If non-zero, time-slice expired
    LDR     r1, =_tx_timer_expired                  // Pickup addr of other expired flag
 81004aa:	4914      	ldr	r1, [pc, #80]	; (81004fc <__tx_timer_nothing_expired+0x16>)
    LDR     r0, [r1, #0]                            // Pickup timer expired flag
 81004ac:	6808      	ldr	r0, [r1, #0]
    CBZ     r0, __tx_timer_nothing_expired          // Did a timer expire?
 81004ae:	b1d0      	cbz	r0, 81004e6 <__tx_timer_nothing_expired>

081004b0 <__tx_something_expired>:
                                                    // No, nothing expired

__tx_something_expired:

    STMDB   sp!, {r0, lr}                           // Save the lr register on the stack
 81004b0:	e92d 4001 	stmdb	sp!, {r0, lr}

    /* Did a timer expire?  */
    // if (_tx_timer_expired)
    // {

    LDR     r1, =_tx_timer_expired                  // Pickup addr of expired flag
 81004b4:	4911      	ldr	r1, [pc, #68]	; (81004fc <__tx_timer_nothing_expired+0x16>)
    LDR     r0, [r1, #0]                            // Pickup timer expired flag
 81004b6:	6808      	ldr	r0, [r1, #0]
    CBZ     r0, __tx_timer_dont_activate            // Check for timer expiration
 81004b8:	b108      	cbz	r0, 81004be <__tx_timer_dont_activate>
                                                    // If not set, skip timer activation

        /* Process timer expiration.  */
        // _tx_timer_expiration_process();

    BL      _tx_timer_expiration_process            // Call the timer expiration handling routine
 81004ba:	f001 ff93 	bl	81023e4 <_tx_timer_expiration_process>

081004be <__tx_timer_dont_activate>:

    /* Did time slice expire?  */
    // if (_tx_timer_expired_time_slice)
    // {

    LDR     r3, =_tx_timer_expired_time_slice       // Pickup addr of time-slice expired
 81004be:	4b0d      	ldr	r3, [pc, #52]	; (81004f4 <__tx_timer_nothing_expired+0xe>)
    LDR     r2, [r3, #0]                            // Pickup the actual flag
 81004c0:	681a      	ldr	r2, [r3, #0]
    CBZ     r2, __tx_timer_not_ts_expiration        // See if the flag is set
 81004c2:	b172      	cbz	r2, 81004e2 <__tx_timer_not_ts_expiration>
                                                    // No, skip time-slice processing

        /* Time slice interrupted thread.  */
        // _tx_thread_time_slice();

    BL      _tx_thread_time_slice                   // Call time-slice processing
 81004c4:	f001 ff00 	bl	81022c8 <_tx_thread_time_slice>
    LDR     r0, =_tx_thread_preempt_disable         // Build address of preempt disable flag
 81004c8:	480f      	ldr	r0, [pc, #60]	; (8100508 <__tx_timer_nothing_expired+0x22>)
    LDR     r1, [r0]                                // Is the preempt disable flag set?
 81004ca:	6801      	ldr	r1, [r0, #0]
    CBNZ    r1, __tx_timer_skip_time_slice          // Yes, skip the PendSV logic
 81004cc:	b949      	cbnz	r1, 81004e2 <__tx_timer_not_ts_expiration>
    LDR     r0, =_tx_thread_current_ptr             // Build current thread pointer address
 81004ce:	480f      	ldr	r0, [pc, #60]	; (810050c <__tx_timer_nothing_expired+0x26>)
    LDR     r1, [r0]                                // Pickup the current thread pointer
 81004d0:	6801      	ldr	r1, [r0, #0]
    LDR     r2, =_tx_thread_execute_ptr             // Build execute thread pointer address
 81004d2:	4a0f      	ldr	r2, [pc, #60]	; (8100510 <__tx_timer_nothing_expired+0x2a>)
    LDR     r3, [r2]                                // Pickup the execute thread pointer
 81004d4:	6813      	ldr	r3, [r2, #0]
    LDR     r0, =0xE000ED04                         // Build address of control register
 81004d6:	480f      	ldr	r0, [pc, #60]	; (8100514 <__tx_timer_nothing_expired+0x2e>)
    LDR     r2, =0x10000000                         // Build value for PendSV bit
 81004d8:	f04f 5280 	mov.w	r2, #268435456	; 0x10000000
    CMP     r1, r3                                  // Are they the same?
 81004dc:	4299      	cmp	r1, r3
    BEQ     __tx_timer_skip_time_slice              // If the same, there was no time-slice performed
 81004de:	d000      	beq.n	81004e2 <__tx_timer_not_ts_expiration>
    STR     r2, [r0]                                // Not the same, issue the PendSV for preemption
 81004e0:	6002      	str	r2, [r0, #0]

081004e2 <__tx_timer_not_ts_expiration>:

    // }

__tx_timer_not_ts_expiration:

    LDMIA   sp!, {r0, lr}                           // Recover lr register (r0 is just there for
 81004e2:	e8bd 4001 	ldmia.w	sp!, {r0, lr}

081004e6 <__tx_timer_nothing_expired>:

    // }

__tx_timer_nothing_expired:

    DSB                                             // Complete all memory access
 81004e6:	f3bf 8f4f 	dsb	sy
    BX      lr                                      // Return to caller
 81004ea:	4770      	bx	lr
    LDR     r1, =_tx_timer_system_clock             // Pickup address of system clock
 81004ec:	100056d4 	.word	0x100056d4
    LDR     r3, =_tx_timer_time_slice               // Pickup address of time-slice
 81004f0:	10005c34 	.word	0x10005c34
    LDR     r3, =_tx_timer_expired_time_slice       // Pickup address of expired flag
 81004f4:	100056d8 	.word	0x100056d8
    LDR     r1, =_tx_timer_current_ptr              // Pickup current timer pointer address
 81004f8:	10005764 	.word	0x10005764
    LDR     r3, =_tx_timer_expired                  // Pickup expiration flag address
 81004fc:	10005768 	.word	0x10005768
    LDR     r3, =_tx_timer_list_end                 // Pickup addr of timer list end
 8100500:	10005760 	.word	0x10005760
    LDR     r3, =_tx_timer_list_start               // Pickup addr of timer list start
 8100504:	1000575c 	.word	0x1000575c
    LDR     r0, =_tx_thread_preempt_disable         // Build address of preempt disable flag
 8100508:	100056c8 	.word	0x100056c8
    LDR     r0, =_tx_thread_current_ptr             // Build current thread pointer address
 810050c:	10005630 	.word	0x10005630
    LDR     r2, =_tx_thread_execute_ptr             // Build execute thread pointer address
 8100510:	10005634 	.word	0x10005634
    LDR     r0, =0xE000ED04                         // Build address of control register
 8100514:	e000ed04 	.word	0xe000ed04

08100518 <tx_application_define>:
  * @brief  Define the initial system.
  * @param  first_unused_memory : Pointer to the first unused memory
  * @retval None
  */
VOID tx_application_define(VOID *first_unused_memory)
{
 8100518:	b580      	push	{r7, lr}
 810051a:	b086      	sub	sp, #24
 810051c:	af02      	add	r7, sp, #8
 810051e:	6078      	str	r0, [r7, #4]

  /* USER CODE END  tx_application_define */

  VOID *memory_ptr;

  if (tx_byte_pool_create(&tx_app_byte_pool, "Tx App memory pool", tx_byte_pool_buffer, TX_APP_MEM_POOL_SIZE) != TX_SUCCESS)
 8100520:	2334      	movs	r3, #52	; 0x34
 8100522:	9300      	str	r3, [sp, #0]
 8100524:	f44f 43a0 	mov.w	r3, #20480	; 0x5000
 8100528:	4a10      	ldr	r2, [pc, #64]	; (810056c <tx_application_define+0x54>)
 810052a:	4911      	ldr	r1, [pc, #68]	; (8100570 <tx_application_define+0x58>)
 810052c:	4811      	ldr	r0, [pc, #68]	; (8100574 <tx_application_define+0x5c>)
 810052e:	f002 fa03 	bl	8102938 <_txe_byte_pool_create>
 8100532:	4603      	mov	r3, r0
 8100534:	2b00      	cmp	r3, #0
 8100536:	d104      	bne.n	8100542 <tx_application_define+0x2a>
  {
    /* USER CODE BEGIN TX_Byte_Pool_Success */

    /* USER CODE END TX_Byte_Pool_Success */

    memory_ptr = (VOID *)&tx_app_byte_pool;
 8100538:	4b0e      	ldr	r3, [pc, #56]	; (8100574 <tx_application_define+0x5c>)
 810053a:	60fb      	str	r3, [r7, #12]

    if (App_ThreadX_Init(memory_ptr) != TX_SUCCESS)
 810053c:	68f8      	ldr	r0, [r7, #12]
 810053e:	f000 f8a5 	bl	810068c <App_ThreadX_Init>

    /* USER CODE END  App_ThreadX_Init_Success */

  }

  if (tx_byte_pool_create(&fx_app_byte_pool, "Fx App memory pool", fx_byte_pool_buffer, FX_APP_MEM_POOL_SIZE) != TX_SUCCESS)
 8100542:	2334      	movs	r3, #52	; 0x34
 8100544:	9300      	str	r3, [sp, #0]
 8100546:	f44f 6380 	mov.w	r3, #1024	; 0x400
 810054a:	4a0b      	ldr	r2, [pc, #44]	; (8100578 <tx_application_define+0x60>)
 810054c:	490b      	ldr	r1, [pc, #44]	; (810057c <tx_application_define+0x64>)
 810054e:	480c      	ldr	r0, [pc, #48]	; (8100580 <tx_application_define+0x68>)
 8100550:	f002 f9f2 	bl	8102938 <_txe_byte_pool_create>
 8100554:	4603      	mov	r3, r0
 8100556:	2b00      	cmp	r3, #0
 8100558:	d104      	bne.n	8100564 <tx_application_define+0x4c>
  {
    /* USER CODE BEGIN FX_Byte_Pool_Success */

    /* USER CODE END FX_Byte_Pool_Success */

    memory_ptr = (VOID *)&fx_app_byte_pool;
 810055a:	4b09      	ldr	r3, [pc, #36]	; (8100580 <tx_application_define+0x68>)
 810055c:	60fb      	str	r3, [r7, #12]

    if (MX_FileX_Init(memory_ptr) != FX_SUCCESS)
 810055e:	68f8      	ldr	r0, [r7, #12]
 8100560:	f000 fefe 	bl	8101360 <MX_FileX_Init>
    /* USER CODE BEGIN MX_FileX_Init_Success */

    /* USER CODE END MX_FileX_Init_Success */
  }

}
 8100564:	bf00      	nop
 8100566:	3710      	adds	r7, #16
 8100568:	46bd      	mov	sp, r7
 810056a:	bd80      	pop	{r7, pc}
 810056c:	10000030 	.word	0x10000030
 8100570:	08102ccc 	.word	0x08102ccc
 8100574:	10005030 	.word	0x10005030
 8100578:	10005064 	.word	0x10005064
 810057c:	08102ce0 	.word	0x08102ce0
 8100580:	10005464 	.word	0x10005464

08100584 <SystemInit>:
  *         configuration.
  * @param  None
  * @retval None
  */
void SystemInit (void)
{
 8100584:	b480      	push	{r7}
 8100586:	af00      	add	r7, sp, #0
  /* FPU settings ------------------------------------------------------------*/
  #if (__FPU_PRESENT == 1) && (__FPU_USED == 1)
    SCB->CPACR |= ((3UL << (10*2))|(3UL << (11*2)));  /* set CP10 and CP11 Full Access */
 8100588:	4b0b      	ldr	r3, [pc, #44]	; (81005b8 <SystemInit+0x34>)
 810058a:	f8d3 3088 	ldr.w	r3, [r3, #136]	; 0x88
 810058e:	4a0a      	ldr	r2, [pc, #40]	; (81005b8 <SystemInit+0x34>)
 8100590:	f443 0370 	orr.w	r3, r3, #15728640	; 0xf00000
 8100594:	f8c2 3088 	str.w	r3, [r2, #136]	; 0x88
  #endif

    /*SEVONPEND enabled so that an interrupt coming from the CPU(n) interrupt signal is
     detectable by the CPU after a WFI/WFE instruction.*/
 SCB->SCR |= SCB_SCR_SEVONPEND_Msk;
 8100598:	4b07      	ldr	r3, [pc, #28]	; (81005b8 <SystemInit+0x34>)
 810059a:	691b      	ldr	r3, [r3, #16]
 810059c:	4a06      	ldr	r2, [pc, #24]	; (81005b8 <SystemInit+0x34>)
 810059e:	f043 0310 	orr.w	r3, r3, #16
 81005a2:	6113      	str	r3, [r2, #16]

  /* Configure the Vector Table location add offset address ------------------*/
#ifdef VECT_TAB_SRAM
  SCB->VTOR = D2_AXISRAM_BASE | VECT_TAB_OFFSET; /* Vector Table Relocation in Internal SRAM */
#else
  SCB->VTOR = FLASH_BANK2_BASE | VECT_TAB_OFFSET; /* Vector Table Relocation in Internal FLASH */
 81005a4:	4b04      	ldr	r3, [pc, #16]	; (81005b8 <SystemInit+0x34>)
 81005a6:	f04f 6201 	mov.w	r2, #135266304	; 0x8100000
 81005aa:	609a      	str	r2, [r3, #8]
#else
#error Please #define CORE_CM4 or CORE_CM7
#endif
#endif

}
 81005ac:	bf00      	nop
 81005ae:	46bd      	mov	sp, r7
 81005b0:	f85d 7b04 	ldr.w	r7, [sp], #4
 81005b4:	4770      	bx	lr
 81005b6:	bf00      	nop
 81005b8:	e000ed00 	.word	0xe000ed00

081005bc <Create_App_Threads>:
TX_THREAD Ideal_thread;

static VOID LED_thred_entry();
static VOID Ideal_thred_entry();

void Create_App_Threads(VOID *memory_ptr){
 81005bc:	b580      	push	{r7, lr}
 81005be:	b08c      	sub	sp, #48	; 0x30
 81005c0:	af08      	add	r7, sp, #32
 81005c2:	6078      	str	r0, [r7, #4]


	TX_BYTE_POOL *byte_pool = (TX_BYTE_POOL*)memory_ptr;
 81005c4:	687b      	ldr	r3, [r7, #4]
 81005c6:	60fb      	str	r3, [r7, #12]
	CHAR *pointer;

	(void)byte_pool;

	//allocate the stack for thread
	tx_byte_allocate(byte_pool, (VOID **) &pointer, 1024, TX_NO_WAIT);
 81005c8:	f107 0108 	add.w	r1, r7, #8
 81005cc:	2300      	movs	r3, #0
 81005ce:	f44f 6280 	mov.w	r2, #1024	; 0x400
 81005d2:	68f8      	ldr	r0, [r7, #12]
 81005d4:	f002 f93c 	bl	8102850 <_txe_byte_allocate>

	//create thread
    /* Create the main thread. */
    tx_thread_create(&LED_thread,
 81005d8:	68bb      	ldr	r3, [r7, #8]
 81005da:	22b0      	movs	r2, #176	; 0xb0
 81005dc:	9206      	str	r2, [sp, #24]
 81005de:	2201      	movs	r2, #1
 81005e0:	9205      	str	r2, [sp, #20]
 81005e2:	2200      	movs	r2, #0
 81005e4:	9204      	str	r2, [sp, #16]
 81005e6:	2201      	movs	r2, #1
 81005e8:	9203      	str	r2, [sp, #12]
 81005ea:	2201      	movs	r2, #1
 81005ec:	9202      	str	r2, [sp, #8]
 81005ee:	f44f 6280 	mov.w	r2, #1024	; 0x400
 81005f2:	9201      	str	r2, [sp, #4]
 81005f4:	9300      	str	r3, [sp, #0]
 81005f6:	2300      	movs	r3, #0
 81005f8:	4a12      	ldr	r2, [pc, #72]	; (8100644 <Create_App_Threads+0x88>)
 81005fa:	4913      	ldr	r1, [pc, #76]	; (8100648 <Create_App_Threads+0x8c>)
 81005fc:	4813      	ldr	r0, [pc, #76]	; (810064c <Create_App_Threads+0x90>)
 81005fe:	f002 fa3b 	bl	8102a78 <_txe_thread_create>
			1,
			1,
			TX_NO_TIME_SLICE,
			TX_AUTO_START);

    tx_byte_allocate(byte_pool, (VOID **) &pointer, 1024, TX_NO_WAIT);
 8100602:	f107 0108 	add.w	r1, r7, #8
 8100606:	2300      	movs	r3, #0
 8100608:	f44f 6280 	mov.w	r2, #1024	; 0x400
 810060c:	68f8      	ldr	r0, [r7, #12]
 810060e:	f002 f91f 	bl	8102850 <_txe_byte_allocate>

    tx_thread_create(&Ideal_thread,
 8100612:	68bb      	ldr	r3, [r7, #8]
 8100614:	22b0      	movs	r2, #176	; 0xb0
 8100616:	9206      	str	r2, [sp, #24]
 8100618:	2201      	movs	r2, #1
 810061a:	9205      	str	r2, [sp, #20]
 810061c:	2200      	movs	r2, #0
 810061e:	9204      	str	r2, [sp, #16]
 8100620:	2202      	movs	r2, #2
 8100622:	9203      	str	r2, [sp, #12]
 8100624:	2202      	movs	r2, #2
 8100626:	9202      	str	r2, [sp, #8]
 8100628:	f44f 6280 	mov.w	r2, #1024	; 0x400
 810062c:	9201      	str	r2, [sp, #4]
 810062e:	9300      	str	r3, [sp, #0]
 8100630:	2300      	movs	r3, #0
 8100632:	4a07      	ldr	r2, [pc, #28]	; (8100650 <Create_App_Threads+0x94>)
 8100634:	4907      	ldr	r1, [pc, #28]	; (8100654 <Create_App_Threads+0x98>)
 8100636:	4808      	ldr	r0, [pc, #32]	; (8100658 <Create_App_Threads+0x9c>)
 8100638:	f002 fa1e 	bl	8102a78 <_txe_thread_create>
			2,
			2,
			TX_NO_TIME_SLICE,
			TX_AUTO_START);

}
 810063c:	bf00      	nop
 810063e:	3710      	adds	r7, #16
 8100640:	46bd      	mov	sp, r7
 8100642:	bd80      	pop	{r7, pc}
 8100644:	0810065d 	.word	0x0810065d
 8100648:	08102cf4 	.word	0x08102cf4
 810064c:	10005498 	.word	0x10005498
 8100650:	08100675 	.word	0x08100675
 8100654:	08102d00 	.word	0x08102d00
 8100658:	10005548 	.word	0x10005548

0810065c <LED_thred_entry>:

VOID LED_thred_entry(){
 810065c:	b580      	push	{r7, lr}
 810065e:	af00      	add	r7, sp, #0
	while(1){
		HAL_GPIO_TogglePin(GPIOK,GPIO_PIN_5);
 8100660:	2120      	movs	r1, #32
 8100662:	4803      	ldr	r0, [pc, #12]	; (8100670 <LED_thred_entry+0x14>)
 8100664:	f000 fc4d 	bl	8100f02 <HAL_GPIO_TogglePin>

		//HAL_Delay(1000);//for 1000 ticks
		tx_thread_sleep(100);
 8100668:	2064      	movs	r0, #100	; 0x64
 810066a:	f001 fb5b 	bl	8101d24 <_tx_thread_sleep>
		HAL_GPIO_TogglePin(GPIOK,GPIO_PIN_5);
 810066e:	e7f7      	b.n	8100660 <LED_thred_entry+0x4>
 8100670:	58022800 	.word	0x58022800

08100674 <Ideal_thred_entry>:
	}
}

VOID Ideal_thred_entry(){
 8100674:	b580      	push	{r7, lr}
 8100676:	af00      	add	r7, sp, #0
	while(1){
		HAL_GPIO_TogglePin(GPIOK,GPIO_PIN_6);
 8100678:	2140      	movs	r1, #64	; 0x40
 810067a:	4803      	ldr	r0, [pc, #12]	; (8100688 <Ideal_thred_entry+0x14>)
 810067c:	f000 fc41 	bl	8100f02 <HAL_GPIO_TogglePin>
		tx_thread_sleep(50);
 8100680:	2032      	movs	r0, #50	; 0x32
 8100682:	f001 fb4f 	bl	8101d24 <_tx_thread_sleep>
		HAL_GPIO_TogglePin(GPIOK,GPIO_PIN_6);
 8100686:	e7f7      	b.n	8100678 <Ideal_thred_entry+0x4>
 8100688:	58022800 	.word	0x58022800

0810068c <App_ThreadX_Init>:
  * @brief  Application ThreadX Initialization.
  * @param memory_ptr: memory pointer
  * @retval int
  */
UINT App_ThreadX_Init(VOID *memory_ptr)
{
 810068c:	b580      	push	{r7, lr}
 810068e:	b084      	sub	sp, #16
 8100690:	af00      	add	r7, sp, #0
 8100692:	6078      	str	r0, [r7, #4]
  UINT ret = TX_SUCCESS;
 8100694:	2300      	movs	r3, #0
 8100696:	60fb      	str	r3, [r7, #12]
  TX_BYTE_POOL *byte_pool = (TX_BYTE_POOL*)memory_ptr;
 8100698:	687b      	ldr	r3, [r7, #4]
 810069a:	60bb      	str	r3, [r7, #8]
  /* USER CODE BEGIN App_ThreadX_MEM_POOL */
  (void)byte_pool;
  /* USER CODE END App_ThreadX_MEM_POOL */

  /* USER CODE BEGIN App_ThreadX_Init */
  Create_App_Threads(memory_ptr);
 810069c:	6878      	ldr	r0, [r7, #4]
 810069e:	f7ff ff8d 	bl	81005bc <Create_App_Threads>
  /* USER CODE END App_ThreadX_Init */

  return ret;
 81006a2:	68fb      	ldr	r3, [r7, #12]
}
 81006a4:	4618      	mov	r0, r3
 81006a6:	3710      	adds	r7, #16
 81006a8:	46bd      	mov	sp, r7
 81006aa:	bd80      	pop	{r7, pc}

081006ac <MX_ThreadX_Init>:
  * @brief  MX_ThreadX_Init
  * @param  None
  * @retval None
  */
void MX_ThreadX_Init(void)
{
 81006ac:	b580      	push	{r7, lr}
 81006ae:	af00      	add	r7, sp, #0
  /* USER CODE BEGIN  Before_Kernel_Start */

  /* USER CODE END  Before_Kernel_Start */

  tx_kernel_enter();
 81006b0:	f001 f990 	bl	81019d4 <_tx_initialize_kernel_enter>

  /* USER CODE BEGIN  Kernel_Start_Error */

  /* USER CODE END  Kernel_Start_Error */
}
 81006b4:	bf00      	nop
 81006b6:	bd80      	pop	{r7, pc}

081006b8 <main>:
/**
  * @brief  The application entry point.
  * @retval int
  */
int main(void)
{
 81006b8:	b580      	push	{r7, lr}
 81006ba:	b082      	sub	sp, #8
 81006bc:	af00      	add	r7, sp, #0

  /* USER CODE END 1 */

/* USER CODE BEGIN Boot_Mode_Sequence_1 */
  /*HW semaphore Clock enable*/
  __HAL_RCC_HSEM_CLK_ENABLE();
 81006be:	4b1c      	ldr	r3, [pc, #112]	; (8100730 <main+0x78>)
 81006c0:	f8d3 30e0 	ldr.w	r3, [r3, #224]	; 0xe0
 81006c4:	4a1a      	ldr	r2, [pc, #104]	; (8100730 <main+0x78>)
 81006c6:	f043 7300 	orr.w	r3, r3, #33554432	; 0x2000000
 81006ca:	f8c2 30e0 	str.w	r3, [r2, #224]	; 0xe0
 81006ce:	4b18      	ldr	r3, [pc, #96]	; (8100730 <main+0x78>)
 81006d0:	f8d3 30e0 	ldr.w	r3, [r3, #224]	; 0xe0
 81006d4:	f003 7300 	and.w	r3, r3, #33554432	; 0x2000000
 81006d8:	607b      	str	r3, [r7, #4]
 81006da:	687b      	ldr	r3, [r7, #4]
  /* Activate HSEM notification for Cortex-M4*/
  HAL_HSEM_ActivateNotification(__HAL_HSEM_SEMID_TO_MASK(HSEM_ID_0));
 81006dc:	2001      	movs	r0, #1
 81006de:	f000 fc2b 	bl	8100f38 <HAL_HSEM_ActivateNotification>
  /*
  Domain D2 goes to STOP mode (Cortex-M4 in deep-sleep) waiting for Cortex-M7 to
  perform system initialization (system clock config, external memory configuration.. )
  */
  HAL_PWREx_ClearPendingEvent();
 81006e2:	f000 fcb5 	bl	8101050 <HAL_PWREx_ClearPendingEvent>
  HAL_PWREx_EnterSTOPMode(PWR_MAINREGULATOR_ON, PWR_STOPENTRY_WFE, PWR_D2_DOMAIN);
 81006e6:	2201      	movs	r2, #1
 81006e8:	2102      	movs	r1, #2
 81006ea:	2000      	movs	r0, #0
 81006ec:	f000 fc36 	bl	8100f5c <HAL_PWREx_EnterSTOPMode>
  /* Clear HSEM flag */
  __HAL_HSEM_CLEAR_FLAG(__HAL_HSEM_SEMID_TO_MASK(HSEM_ID_0));
 81006f0:	4b10      	ldr	r3, [pc, #64]	; (8100734 <main+0x7c>)
 81006f2:	681b      	ldr	r3, [r3, #0]
 81006f4:	091b      	lsrs	r3, r3, #4
 81006f6:	f003 030f 	and.w	r3, r3, #15
 81006fa:	2b07      	cmp	r3, #7
 81006fc:	d108      	bne.n	8100710 <main+0x58>
 81006fe:	4b0e      	ldr	r3, [pc, #56]	; (8100738 <main+0x80>)
 8100700:	f8d3 3104 	ldr.w	r3, [r3, #260]	; 0x104
 8100704:	4a0c      	ldr	r2, [pc, #48]	; (8100738 <main+0x80>)
 8100706:	f043 0301 	orr.w	r3, r3, #1
 810070a:	f8c2 3104 	str.w	r3, [r2, #260]	; 0x104
 810070e:	e007      	b.n	8100720 <main+0x68>
 8100710:	4b09      	ldr	r3, [pc, #36]	; (8100738 <main+0x80>)
 8100712:	f8d3 3114 	ldr.w	r3, [r3, #276]	; 0x114
 8100716:	4a08      	ldr	r2, [pc, #32]	; (8100738 <main+0x80>)
 8100718:	f043 0301 	orr.w	r3, r3, #1
 810071c:	f8c2 3114 	str.w	r3, [r2, #276]	; 0x114

/* USER CODE END Boot_Mode_Sequence_1 */
  /* MCU Configuration--------------------------------------------------------*/

  /* Reset of all peripherals, Initializes the Flash interface and the Systick. */
  HAL_Init();
 8100720:	f000 f89a 	bl	8100858 <HAL_Init>
  /* USER CODE BEGIN SysInit */

  /* USER CODE END SysInit */

  /* Initialize all configured peripherals */
  MX_GPIO_Init();
 8100724:	f000 f80a 	bl	810073c <MX_GPIO_Init>
  /* USER CODE BEGIN 2 */

  /* USER CODE END 2 */

  MX_ThreadX_Init();
 8100728:	f7ff ffc0 	bl	81006ac <MX_ThreadX_Init>
  /* Infinite loop */
  /* USER CODE BEGIN WHILE */
  while (1)
 810072c:	e7fe      	b.n	810072c <main+0x74>
 810072e:	bf00      	nop
 8100730:	58024400 	.word	0x58024400
 8100734:	e000ed00 	.word	0xe000ed00
 8100738:	58026400 	.word	0x58026400

0810073c <MX_GPIO_Init>:
  * @brief GPIO Initialization Function
  * @param None
  * @retval None
  */
static void MX_GPIO_Init(void)
{
 810073c:	b580      	push	{r7, lr}
 810073e:	b086      	sub	sp, #24
 8100740:	af00      	add	r7, sp, #0
  GPIO_InitTypeDef GPIO_InitStruct = {0};
 8100742:	1d3b      	adds	r3, r7, #4
 8100744:	2200      	movs	r2, #0
 8100746:	601a      	str	r2, [r3, #0]
 8100748:	605a      	str	r2, [r3, #4]
 810074a:	609a      	str	r2, [r3, #8]
 810074c:	60da      	str	r2, [r3, #12]
 810074e:	611a      	str	r2, [r3, #16]

  /* GPIO Ports Clock Enable */
  __HAL_RCC_GPIOK_CLK_ENABLE();
 8100750:	4b12      	ldr	r3, [pc, #72]	; (810079c <MX_GPIO_Init+0x60>)
 8100752:	f8d3 30e0 	ldr.w	r3, [r3, #224]	; 0xe0
 8100756:	4a11      	ldr	r2, [pc, #68]	; (810079c <MX_GPIO_Init+0x60>)
 8100758:	f443 6380 	orr.w	r3, r3, #1024	; 0x400
 810075c:	f8c2 30e0 	str.w	r3, [r2, #224]	; 0xe0
 8100760:	4b0e      	ldr	r3, [pc, #56]	; (810079c <MX_GPIO_Init+0x60>)
 8100762:	f8d3 30e0 	ldr.w	r3, [r3, #224]	; 0xe0
 8100766:	f403 6380 	and.w	r3, r3, #1024	; 0x400
 810076a:	603b      	str	r3, [r7, #0]
 810076c:	683b      	ldr	r3, [r7, #0]

  /*Configure GPIO pin Output Level */
  HAL_GPIO_WritePin(GPIOK, GPIO_PIN_5|GPIO_PIN_6, GPIO_PIN_RESET);
 810076e:	2200      	movs	r2, #0
 8100770:	2160      	movs	r1, #96	; 0x60
 8100772:	480b      	ldr	r0, [pc, #44]	; (81007a0 <MX_GPIO_Init+0x64>)
 8100774:	f000 fbac 	bl	8100ed0 <HAL_GPIO_WritePin>

  /*Configure GPIO pins : PK5 PK6 */
  GPIO_InitStruct.Pin = GPIO_PIN_5|GPIO_PIN_6;
 8100778:	2360      	movs	r3, #96	; 0x60
 810077a:	607b      	str	r3, [r7, #4]
  GPIO_InitStruct.Mode = GPIO_MODE_OUTPUT_PP;
 810077c:	2301      	movs	r3, #1
 810077e:	60bb      	str	r3, [r7, #8]
  GPIO_InitStruct.Pull = GPIO_NOPULL;
 8100780:	2300      	movs	r3, #0
 8100782:	60fb      	str	r3, [r7, #12]
  GPIO_InitStruct.Speed = GPIO_SPEED_FREQ_LOW;
 8100784:	2300      	movs	r3, #0
 8100786:	613b      	str	r3, [r7, #16]
  HAL_GPIO_Init(GPIOK, &GPIO_InitStruct);
 8100788:	1d3b      	adds	r3, r7, #4
 810078a:	4619      	mov	r1, r3
 810078c:	4804      	ldr	r0, [pc, #16]	; (81007a0 <MX_GPIO_Init+0x64>)
 810078e:	f000 f9ef 	bl	8100b70 <HAL_GPIO_Init>

}
 8100792:	bf00      	nop
 8100794:	3718      	adds	r7, #24
 8100796:	46bd      	mov	sp, r7
 8100798:	bd80      	pop	{r7, pc}
 810079a:	bf00      	nop
 810079c:	58024400 	.word	0x58024400
 81007a0:	58022800 	.word	0x58022800

081007a4 <HAL_MspInit>:
/* USER CODE END 0 */
/**
  * Initializes the Global MSP.
  */
void HAL_MspInit(void)
{
 81007a4:	b480      	push	{r7}
 81007a6:	b083      	sub	sp, #12
 81007a8:	af00      	add	r7, sp, #0
  /* USER CODE BEGIN MspInit 0 */

  /* USER CODE END MspInit 0 */

  __HAL_RCC_SYSCFG_CLK_ENABLE();
 81007aa:	4b0a      	ldr	r3, [pc, #40]	; (81007d4 <HAL_MspInit+0x30>)
 81007ac:	f8d3 30f4 	ldr.w	r3, [r3, #244]	; 0xf4
 81007b0:	4a08      	ldr	r2, [pc, #32]	; (81007d4 <HAL_MspInit+0x30>)
 81007b2:	f043 0302 	orr.w	r3, r3, #2
 81007b6:	f8c2 30f4 	str.w	r3, [r2, #244]	; 0xf4
 81007ba:	4b06      	ldr	r3, [pc, #24]	; (81007d4 <HAL_MspInit+0x30>)
 81007bc:	f8d3 30f4 	ldr.w	r3, [r3, #244]	; 0xf4
 81007c0:	f003 0302 	and.w	r3, r3, #2
 81007c4:	607b      	str	r3, [r7, #4]
 81007c6:	687b      	ldr	r3, [r7, #4]
  /* System interrupt init*/

  /* USER CODE BEGIN MspInit 1 */

  /* USER CODE END MspInit 1 */
}
 81007c8:	bf00      	nop
 81007ca:	370c      	adds	r7, #12
 81007cc:	46bd      	mov	sp, r7
 81007ce:	f85d 7b04 	ldr.w	r7, [sp], #4
 81007d2:	4770      	bx	lr
 81007d4:	58024400 	.word	0x58024400

081007d8 <NMI_Handler>:
/******************************************************************************/
/**
  * @brief This function handles Non maskable interrupt.
  */
void NMI_Handler(void)
{
 81007d8:	b480      	push	{r7}
 81007da:	af00      	add	r7, sp, #0
  /* USER CODE BEGIN NonMaskableInt_IRQn 0 */

  /* USER CODE END NonMaskableInt_IRQn 0 */
  /* USER CODE BEGIN NonMaskableInt_IRQn 1 */
  while (1)
 81007dc:	e7fe      	b.n	81007dc <NMI_Handler+0x4>

081007de <HardFault_Handler>:

/**
  * @brief This function handles Hard fault interrupt.
  */
void HardFault_Handler(void)
{
 81007de:	b480      	push	{r7}
 81007e0:	af00      	add	r7, sp, #0
  /* USER CODE BEGIN HardFault_IRQn 0 */

  /* USER CODE END HardFault_IRQn 0 */
  while (1)
 81007e2:	e7fe      	b.n	81007e2 <HardFault_Handler+0x4>

081007e4 <MemManage_Handler>:

/**
  * @brief This function handles Memory management fault.
  */
void MemManage_Handler(void)
{
 81007e4:	b480      	push	{r7}
 81007e6:	af00      	add	r7, sp, #0
  /* USER CODE BEGIN MemoryManagement_IRQn 0 */

  /* USER CODE END MemoryManagement_IRQn 0 */
  while (1)
 81007e8:	e7fe      	b.n	81007e8 <MemManage_Handler+0x4>

081007ea <BusFault_Handler>:

/**
  * @brief This function handles Pre-fetch fault, memory access fault.
  */
void BusFault_Handler(void)
{
 81007ea:	b480      	push	{r7}
 81007ec:	af00      	add	r7, sp, #0
  /* USER CODE BEGIN BusFault_IRQn 0 */

  /* USER CODE END BusFault_IRQn 0 */
  while (1)
 81007ee:	e7fe      	b.n	81007ee <BusFault_Handler+0x4>

081007f0 <UsageFault_Handler>:

/**
  * @brief This function handles Undefined instruction or illegal state.
  */
void UsageFault_Handler(void)
{
 81007f0:	b480      	push	{r7}
 81007f2:	af00      	add	r7, sp, #0
  /* USER CODE BEGIN UsageFault_IRQn 0 */

  /* USER CODE END UsageFault_IRQn 0 */
  while (1)
 81007f4:	e7fe      	b.n	81007f4 <UsageFault_Handler+0x4>

081007f6 <DebugMon_Handler>:

/**
  * @brief This function handles Debug monitor.
  */
void DebugMon_Handler(void)
{
 81007f6:	b480      	push	{r7}
 81007f8:	af00      	add	r7, sp, #0

  /* USER CODE END DebugMonitor_IRQn 0 */
  /* USER CODE BEGIN DebugMonitor_IRQn 1 */

  /* USER CODE END DebugMonitor_IRQn 1 */
}
 81007fa:	bf00      	nop
 81007fc:	46bd      	mov	sp, r7
 81007fe:	f85d 7b04 	ldr.w	r7, [sp], #4
 8100802:	4770      	bx	lr

08100804 <Reset_Handler>:

    .section  .text.Reset_Handler
  .weak  Reset_Handler
  .type  Reset_Handler, %function
Reset_Handler:
  ldr   sp, =_estack      /* set stack pointer */
 8100804:	f8df d034 	ldr.w	sp, [pc, #52]	; 810083c <LoopFillZerobss+0xe>

/* Call the clock system initialization function.*/
  bl  SystemInit
 8100808:	f7ff febc 	bl	8100584 <SystemInit>

/* Copy the data segment initializers from flash to SRAM */
  ldr r0, =_sdata
 810080c:	480c      	ldr	r0, [pc, #48]	; (8100840 <LoopFillZerobss+0x12>)
  ldr r1, =_edata
 810080e:	490d      	ldr	r1, [pc, #52]	; (8100844 <LoopFillZerobss+0x16>)
  ldr r2, =_sidata
 8100810:	4a0d      	ldr	r2, [pc, #52]	; (8100848 <LoopFillZerobss+0x1a>)
  movs r3, #0
 8100812:	2300      	movs	r3, #0
  b LoopCopyDataInit
 8100814:	e002      	b.n	810081c <LoopCopyDataInit>

08100816 <CopyDataInit>:

CopyDataInit:
  ldr r4, [r2, r3]
 8100816:	58d4      	ldr	r4, [r2, r3]
  str r4, [r0, r3]
 8100818:	50c4      	str	r4, [r0, r3]
  adds r3, r3, #4
 810081a:	3304      	adds	r3, #4

0810081c <LoopCopyDataInit>:

LoopCopyDataInit:
  adds r4, r0, r3
 810081c:	18c4      	adds	r4, r0, r3
  cmp r4, r1
 810081e:	428c      	cmp	r4, r1
  bcc CopyDataInit
 8100820:	d3f9      	bcc.n	8100816 <CopyDataInit>
/* Zero fill the bss segment. */
  ldr r2, =_sbss
 8100822:	4a0a      	ldr	r2, [pc, #40]	; (810084c <LoopFillZerobss+0x1e>)
  ldr r4, =_ebss
 8100824:	4c0a      	ldr	r4, [pc, #40]	; (8100850 <LoopFillZerobss+0x22>)
  movs r3, #0
 8100826:	2300      	movs	r3, #0
  b LoopFillZerobss
 8100828:	e001      	b.n	810082e <LoopFillZerobss>

0810082a <FillZerobss>:

FillZerobss:
  str  r3, [r2]
 810082a:	6013      	str	r3, [r2, #0]
  adds r2, r2, #4
 810082c:	3204      	adds	r2, #4

0810082e <LoopFillZerobss>:

LoopFillZerobss:
  cmp r2, r4
 810082e:	42a2      	cmp	r2, r4
  bcc FillZerobss
 8100830:	d3fb      	bcc.n	810082a <FillZerobss>

/* Call static constructors */
    bl __libc_init_array
 8100832:	f002 fa13 	bl	8102c5c <__libc_init_array>
/* Call the application's entry point.*/
  bl  main
 8100836:	f7ff ff3f 	bl	81006b8 <main>
  bx  lr
 810083a:	4770      	bx	lr
  ldr   sp, =_estack      /* set stack pointer */
 810083c:	10048000 	.word	0x10048000
  ldr r0, =_sdata
 8100840:	10000000 	.word	0x10000000
  ldr r1, =_edata
 8100844:	10000014 	.word	0x10000014
  ldr r2, =_sidata
 8100848:	08102d3c 	.word	0x08102d3c
  ldr r2, =_sbss
 810084c:	10000014 	.word	0x10000014
  ldr r4, =_ebss
 8100850:	10005c38 	.word	0x10005c38

08100854 <ADC3_IRQHandler>:
 * @retval None
*/
    .section  .text.Default_Handler,"ax",%progbits
Default_Handler:
Infinite_Loop:
  b  Infinite_Loop
 8100854:	e7fe      	b.n	8100854 <ADC3_IRQHandler>
	...

08100858 <HAL_Init>:
  *         need to ensure that the SysTick time base is always set to 1 millisecond
  *         to have correct HAL operation.
  * @retval HAL status
  */
HAL_StatusTypeDef HAL_Init(void)
{
 8100858:	b580      	push	{r7, lr}
 810085a:	b082      	sub	sp, #8
 810085c:	af00      	add	r7, sp, #0

uint32_t common_system_clock;

#if defined(DUAL_CORE) && defined(CORE_CM4)
   /* Configure Cortex-M4 Instruction cache through ART accelerator */
   __HAL_RCC_ART_CLK_ENABLE();                   /* Enable the Cortex-M4 ART Clock */
 810085e:	4b28      	ldr	r3, [pc, #160]	; (8100900 <HAL_Init+0xa8>)
 8100860:	f8d3 30d8 	ldr.w	r3, [r3, #216]	; 0xd8
 8100864:	4a26      	ldr	r2, [pc, #152]	; (8100900 <HAL_Init+0xa8>)
 8100866:	f443 4380 	orr.w	r3, r3, #16384	; 0x4000
 810086a:	f8c2 30d8 	str.w	r3, [r2, #216]	; 0xd8
 810086e:	4b24      	ldr	r3, [pc, #144]	; (8100900 <HAL_Init+0xa8>)
 8100870:	f8d3 30d8 	ldr.w	r3, [r3, #216]	; 0xd8
 8100874:	f403 4380 	and.w	r3, r3, #16384	; 0x4000
 8100878:	603b      	str	r3, [r7, #0]
 810087a:	683b      	ldr	r3, [r7, #0]
   __HAL_ART_CONFIG_BASE_ADDRESS(0x08100000UL);  /* Configure the Cortex-M4 ART Base address to the Flash Bank 2 : */
 810087c:	4b21      	ldr	r3, [pc, #132]	; (8100904 <HAL_Init+0xac>)
 810087e:	681b      	ldr	r3, [r3, #0]
 8100880:	f423 237f 	bic.w	r3, r3, #1044480	; 0xff000
 8100884:	f423 6370 	bic.w	r3, r3, #3840	; 0xf00
 8100888:	4a1e      	ldr	r2, [pc, #120]	; (8100904 <HAL_Init+0xac>)
 810088a:	f443 4301 	orr.w	r3, r3, #33024	; 0x8100
 810088e:	6013      	str	r3, [r2, #0]
   __HAL_ART_ENABLE();                           /* Enable the Cortex-M4 ART */
 8100890:	4b1c      	ldr	r3, [pc, #112]	; (8100904 <HAL_Init+0xac>)
 8100892:	681b      	ldr	r3, [r3, #0]
 8100894:	4a1b      	ldr	r2, [pc, #108]	; (8100904 <HAL_Init+0xac>)
 8100896:	f043 0301 	orr.w	r3, r3, #1
 810089a:	6013      	str	r3, [r2, #0]
#endif /* DUAL_CORE &&  CORE_CM4 */

  /* Set Interrupt Group Priority */
  HAL_NVIC_SetPriorityGrouping(NVIC_PRIORITYGROUP_4);
 810089c:	2003      	movs	r0, #3
 810089e:	f000 f921 	bl	8100ae4 <HAL_NVIC_SetPriorityGrouping>

  /* Update the SystemCoreClock global variable */
#if defined(RCC_D1CFGR_D1CPRE)
  common_system_clock = HAL_RCC_GetSysClockFreq() >> ((D1CorePrescTable[(RCC->D1CFGR & RCC_D1CFGR_D1CPRE)>> RCC_D1CFGR_D1CPRE_Pos]) & 0x1FU);
 81008a2:	f000 fbe3 	bl	810106c <HAL_RCC_GetSysClockFreq>
 81008a6:	4602      	mov	r2, r0
 81008a8:	4b15      	ldr	r3, [pc, #84]	; (8100900 <HAL_Init+0xa8>)
 81008aa:	699b      	ldr	r3, [r3, #24]
 81008ac:	0a1b      	lsrs	r3, r3, #8
 81008ae:	f003 030f 	and.w	r3, r3, #15
 81008b2:	4915      	ldr	r1, [pc, #84]	; (8100908 <HAL_Init+0xb0>)
 81008b4:	5ccb      	ldrb	r3, [r1, r3]
 81008b6:	f003 031f 	and.w	r3, r3, #31
 81008ba:	fa22 f303 	lsr.w	r3, r2, r3
 81008be:	607b      	str	r3, [r7, #4]
  common_system_clock = HAL_RCC_GetSysClockFreq() >> ((D1CorePrescTable[(RCC->CDCFGR1 & RCC_CDCFGR1_CDCPRE)>> RCC_CDCFGR1_CDCPRE_Pos]) & 0x1FU);
#endif

  /* Update the SystemD2Clock global variable */
#if defined(RCC_D1CFGR_HPRE)
  SystemD2Clock = (common_system_clock >> ((D1CorePrescTable[(RCC->D1CFGR & RCC_D1CFGR_HPRE)>> RCC_D1CFGR_HPRE_Pos]) & 0x1FU));
 81008c0:	4b0f      	ldr	r3, [pc, #60]	; (8100900 <HAL_Init+0xa8>)
 81008c2:	699b      	ldr	r3, [r3, #24]
 81008c4:	f003 030f 	and.w	r3, r3, #15
 81008c8:	4a0f      	ldr	r2, [pc, #60]	; (8100908 <HAL_Init+0xb0>)
 81008ca:	5cd3      	ldrb	r3, [r2, r3]
 81008cc:	f003 031f 	and.w	r3, r3, #31
 81008d0:	687a      	ldr	r2, [r7, #4]
 81008d2:	fa22 f303 	lsr.w	r3, r2, r3
 81008d6:	4a0d      	ldr	r2, [pc, #52]	; (810090c <HAL_Init+0xb4>)
 81008d8:	6013      	str	r3, [r2, #0]
#else
  SystemD2Clock = (common_system_clock >> ((D1CorePrescTable[(RCC->CDCFGR1 & RCC_CDCFGR1_HPRE)>> RCC_CDCFGR1_HPRE_Pos]) & 0x1FU));
#endif

#if defined(DUAL_CORE) && defined(CORE_CM4)
  SystemCoreClock = SystemD2Clock;
 81008da:	4b0c      	ldr	r3, [pc, #48]	; (810090c <HAL_Init+0xb4>)
 81008dc:	681b      	ldr	r3, [r3, #0]
 81008de:	4a0c      	ldr	r2, [pc, #48]	; (8100910 <HAL_Init+0xb8>)
 81008e0:	6013      	str	r3, [r2, #0]
#else
  SystemCoreClock = common_system_clock;
#endif /* DUAL_CORE && CORE_CM4 */

  /* Use systick as time base source and configure 1ms tick (default clock after Reset is HSI) */
  if(HAL_InitTick(TICK_INT_PRIORITY) != HAL_OK)
 81008e2:	2000      	movs	r0, #0
 81008e4:	f000 f816 	bl	8100914 <HAL_InitTick>
 81008e8:	4603      	mov	r3, r0
 81008ea:	2b00      	cmp	r3, #0
 81008ec:	d001      	beq.n	81008f2 <HAL_Init+0x9a>
  {
    return HAL_ERROR;
 81008ee:	2301      	movs	r3, #1
 81008f0:	e002      	b.n	81008f8 <HAL_Init+0xa0>
  }

  /* Init the low level hardware */
  HAL_MspInit();
 81008f2:	f7ff ff57 	bl	81007a4 <HAL_MspInit>

  /* Return function status */
  return HAL_OK;
 81008f6:	2300      	movs	r3, #0
}
 81008f8:	4618      	mov	r0, r3
 81008fa:	3708      	adds	r7, #8
 81008fc:	46bd      	mov	sp, r7
 81008fe:	bd80      	pop	{r7, pc}
 8100900:	58024400 	.word	0x58024400
 8100904:	40024400 	.word	0x40024400
 8100908:	08102d24 	.word	0x08102d24
 810090c:	10000004 	.word	0x10000004
 8100910:	10000000 	.word	0x10000000

08100914 <HAL_InitTick>:
  *       implementation  in user file.
  * @param TickPriority: Tick interrupt priority.
  * @retval HAL status
  */
__weak HAL_StatusTypeDef HAL_InitTick(uint32_t TickPriority)
{
 8100914:	b580      	push	{r7, lr}
 8100916:	b082      	sub	sp, #8
 8100918:	af00      	add	r7, sp, #0
 810091a:	6078      	str	r0, [r7, #4]
  /* Check uwTickFreq for MisraC 2012 (even if uwTickFreq is a enum type that don't take the value zero)*/
  if((uint32_t)uwTickFreq == 0UL)
 810091c:	4b15      	ldr	r3, [pc, #84]	; (8100974 <HAL_InitTick+0x60>)
 810091e:	781b      	ldrb	r3, [r3, #0]
 8100920:	2b00      	cmp	r3, #0
 8100922:	d101      	bne.n	8100928 <HAL_InitTick+0x14>
  {
    return HAL_ERROR;
 8100924:	2301      	movs	r3, #1
 8100926:	e021      	b.n	810096c <HAL_InitTick+0x58>
  }

    /* Configure the SysTick to have interrupt in 1ms time basis*/
    if (HAL_SYSTICK_Config(SystemCoreClock / (1000UL / (uint32_t)uwTickFreq)) > 0U)
 8100928:	4b13      	ldr	r3, [pc, #76]	; (8100978 <HAL_InitTick+0x64>)
 810092a:	681a      	ldr	r2, [r3, #0]
 810092c:	4b11      	ldr	r3, [pc, #68]	; (8100974 <HAL_InitTick+0x60>)
 810092e:	781b      	ldrb	r3, [r3, #0]
 8100930:	4619      	mov	r1, r3
 8100932:	f44f 737a 	mov.w	r3, #1000	; 0x3e8
 8100936:	fbb3 f3f1 	udiv	r3, r3, r1
 810093a:	fbb2 f3f3 	udiv	r3, r2, r3
 810093e:	4618      	mov	r0, r3
 8100940:	f000 f8f5 	bl	8100b2e <HAL_SYSTICK_Config>
 8100944:	4603      	mov	r3, r0
 8100946:	2b00      	cmp	r3, #0
 8100948:	d001      	beq.n	810094e <HAL_InitTick+0x3a>
    {
      return HAL_ERROR;
 810094a:	2301      	movs	r3, #1
 810094c:	e00e      	b.n	810096c <HAL_InitTick+0x58>
    }

  /* Configure the SysTick IRQ priority */
  if (TickPriority < (1UL << __NVIC_PRIO_BITS))
 810094e:	687b      	ldr	r3, [r7, #4]
 8100950:	2b0f      	cmp	r3, #15
 8100952:	d80a      	bhi.n	810096a <HAL_InitTick+0x56>
  {
    HAL_NVIC_SetPriority(SysTick_IRQn, TickPriority, 0U);
 8100954:	2200      	movs	r2, #0
 8100956:	6879      	ldr	r1, [r7, #4]
 8100958:	f04f 30ff 	mov.w	r0, #4294967295
 810095c:	f000 f8cd 	bl	8100afa <HAL_NVIC_SetPriority>
    uwTickPrio = TickPriority;
 8100960:	4a06      	ldr	r2, [pc, #24]	; (810097c <HAL_InitTick+0x68>)
 8100962:	687b      	ldr	r3, [r7, #4]
 8100964:	6013      	str	r3, [r2, #0]
  {
    return HAL_ERROR;
  }

  /* Return function status */
  return HAL_OK;
 8100966:	2300      	movs	r3, #0
 8100968:	e000      	b.n	810096c <HAL_InitTick+0x58>
    return HAL_ERROR;
 810096a:	2301      	movs	r3, #1
}
 810096c:	4618      	mov	r0, r3
 810096e:	3708      	adds	r7, #8
 8100970:	46bd      	mov	sp, r7
 8100972:	bd80      	pop	{r7, pc}
 8100974:	1000000c 	.word	0x1000000c
 8100978:	10000000 	.word	0x10000000
 810097c:	10000008 	.word	0x10000008

08100980 <__NVIC_SetPriorityGrouping>:
           In case of a conflict between priority grouping and available
           priority bits (__NVIC_PRIO_BITS), the smallest possible priority group is set.
  \param [in]      PriorityGroup  Priority grouping field.
 */
__STATIC_INLINE void __NVIC_SetPriorityGrouping(uint32_t PriorityGroup)
{
 8100980:	b480      	push	{r7}
 8100982:	b085      	sub	sp, #20
 8100984:	af00      	add	r7, sp, #0
 8100986:	6078      	str	r0, [r7, #4]
  uint32_t reg_value;
  uint32_t PriorityGroupTmp = (PriorityGroup & (uint32_t)0x07UL);             /* only values 0..7 are used          */
 8100988:	687b      	ldr	r3, [r7, #4]
 810098a:	f003 0307 	and.w	r3, r3, #7
 810098e:	60fb      	str	r3, [r7, #12]

  reg_value  =  SCB->AIRCR;                                                   /* read old register configuration    */
 8100990:	4b0c      	ldr	r3, [pc, #48]	; (81009c4 <__NVIC_SetPriorityGrouping+0x44>)
 8100992:	68db      	ldr	r3, [r3, #12]
 8100994:	60bb      	str	r3, [r7, #8]
  reg_value &= ~((uint32_t)(SCB_AIRCR_VECTKEY_Msk | SCB_AIRCR_PRIGROUP_Msk)); /* clear bits to change               */
 8100996:	68ba      	ldr	r2, [r7, #8]
 8100998:	f64f 03ff 	movw	r3, #63743	; 0xf8ff
 810099c:	4013      	ands	r3, r2
 810099e:	60bb      	str	r3, [r7, #8]
  reg_value  =  (reg_value                                   |
                ((uint32_t)0x5FAUL << SCB_AIRCR_VECTKEY_Pos) |
                (PriorityGroupTmp << SCB_AIRCR_PRIGROUP_Pos)  );              /* Insert write key and priority group */
 81009a0:	68fb      	ldr	r3, [r7, #12]
 81009a2:	021a      	lsls	r2, r3, #8
                ((uint32_t)0x5FAUL << SCB_AIRCR_VECTKEY_Pos) |
 81009a4:	68bb      	ldr	r3, [r7, #8]
 81009a6:	4313      	orrs	r3, r2
  reg_value  =  (reg_value                                   |
 81009a8:	f043 63bf 	orr.w	r3, r3, #100139008	; 0x5f80000
 81009ac:	f443 3300 	orr.w	r3, r3, #131072	; 0x20000
 81009b0:	60bb      	str	r3, [r7, #8]
  SCB->AIRCR =  reg_value;
 81009b2:	4a04      	ldr	r2, [pc, #16]	; (81009c4 <__NVIC_SetPriorityGrouping+0x44>)
 81009b4:	68bb      	ldr	r3, [r7, #8]
 81009b6:	60d3      	str	r3, [r2, #12]
}
 81009b8:	bf00      	nop
 81009ba:	3714      	adds	r7, #20
 81009bc:	46bd      	mov	sp, r7
 81009be:	f85d 7b04 	ldr.w	r7, [sp], #4
 81009c2:	4770      	bx	lr
 81009c4:	e000ed00 	.word	0xe000ed00

081009c8 <__NVIC_GetPriorityGrouping>:
  \brief   Get Priority Grouping
  \details Reads the priority grouping field from the NVIC Interrupt Controller.
  \return                Priority grouping field (SCB->AIRCR [10:8] PRIGROUP field).
 */
__STATIC_INLINE uint32_t __NVIC_GetPriorityGrouping(void)
{
 81009c8:	b480      	push	{r7}
 81009ca:	af00      	add	r7, sp, #0
  return ((uint32_t)((SCB->AIRCR & SCB_AIRCR_PRIGROUP_Msk) >> SCB_AIRCR_PRIGROUP_Pos));
 81009cc:	4b04      	ldr	r3, [pc, #16]	; (81009e0 <__NVIC_GetPriorityGrouping+0x18>)
 81009ce:	68db      	ldr	r3, [r3, #12]
 81009d0:	0a1b      	lsrs	r3, r3, #8
 81009d2:	f003 0307 	and.w	r3, r3, #7
}
 81009d6:	4618      	mov	r0, r3
 81009d8:	46bd      	mov	sp, r7
 81009da:	f85d 7b04 	ldr.w	r7, [sp], #4
 81009de:	4770      	bx	lr
 81009e0:	e000ed00 	.word	0xe000ed00

081009e4 <__NVIC_SetPriority>:
  \param [in]      IRQn  Interrupt number.
  \param [in]  priority  Priority to set.
  \note    The priority cannot be set for every processor exception.
 */
__STATIC_INLINE void __NVIC_SetPriority(IRQn_Type IRQn, uint32_t priority)
{
 81009e4:	b480      	push	{r7}
 81009e6:	b083      	sub	sp, #12
 81009e8:	af00      	add	r7, sp, #0
 81009ea:	4603      	mov	r3, r0
 81009ec:	6039      	str	r1, [r7, #0]
 81009ee:	80fb      	strh	r3, [r7, #6]
  if ((int32_t)(IRQn) >= 0)
 81009f0:	f9b7 3006 	ldrsh.w	r3, [r7, #6]
 81009f4:	2b00      	cmp	r3, #0
 81009f6:	db0a      	blt.n	8100a0e <__NVIC_SetPriority+0x2a>
  {
    NVIC->IP[((uint32_t)IRQn)]               = (uint8_t)((priority << (8U - __NVIC_PRIO_BITS)) & (uint32_t)0xFFUL);
 81009f8:	683b      	ldr	r3, [r7, #0]
 81009fa:	b2da      	uxtb	r2, r3
 81009fc:	490c      	ldr	r1, [pc, #48]	; (8100a30 <__NVIC_SetPriority+0x4c>)
 81009fe:	f9b7 3006 	ldrsh.w	r3, [r7, #6]
 8100a02:	0112      	lsls	r2, r2, #4
 8100a04:	b2d2      	uxtb	r2, r2
 8100a06:	440b      	add	r3, r1
 8100a08:	f883 2300 	strb.w	r2, [r3, #768]	; 0x300
  }
  else
  {
    SCB->SHP[(((uint32_t)IRQn) & 0xFUL)-4UL] = (uint8_t)((priority << (8U - __NVIC_PRIO_BITS)) & (uint32_t)0xFFUL);
  }
}
 8100a0c:	e00a      	b.n	8100a24 <__NVIC_SetPriority+0x40>
    SCB->SHP[(((uint32_t)IRQn) & 0xFUL)-4UL] = (uint8_t)((priority << (8U - __NVIC_PRIO_BITS)) & (uint32_t)0xFFUL);
 8100a0e:	683b      	ldr	r3, [r7, #0]
 8100a10:	b2da      	uxtb	r2, r3
 8100a12:	4908      	ldr	r1, [pc, #32]	; (8100a34 <__NVIC_SetPriority+0x50>)
 8100a14:	88fb      	ldrh	r3, [r7, #6]
 8100a16:	f003 030f 	and.w	r3, r3, #15
 8100a1a:	3b04      	subs	r3, #4
 8100a1c:	0112      	lsls	r2, r2, #4
 8100a1e:	b2d2      	uxtb	r2, r2
 8100a20:	440b      	add	r3, r1
 8100a22:	761a      	strb	r2, [r3, #24]
}
 8100a24:	bf00      	nop
 8100a26:	370c      	adds	r7, #12
 8100a28:	46bd      	mov	sp, r7
 8100a2a:	f85d 7b04 	ldr.w	r7, [sp], #4
 8100a2e:	4770      	bx	lr
 8100a30:	e000e100 	.word	0xe000e100
 8100a34:	e000ed00 	.word	0xe000ed00

08100a38 <NVIC_EncodePriority>:
  \param [in]   PreemptPriority  Preemptive priority value (starting from 0).
  \param [in]       SubPriority  Subpriority value (starting from 0).
  \return                        Encoded priority. Value can be used in the function \ref NVIC_SetPriority().
 */
__STATIC_INLINE uint32_t NVIC_EncodePriority (uint32_t PriorityGroup, uint32_t PreemptPriority, uint32_t SubPriority)
{
 8100a38:	b480      	push	{r7}
 8100a3a:	b089      	sub	sp, #36	; 0x24
 8100a3c:	af00      	add	r7, sp, #0
 8100a3e:	60f8      	str	r0, [r7, #12]
 8100a40:	60b9      	str	r1, [r7, #8]
 8100a42:	607a      	str	r2, [r7, #4]
  uint32_t PriorityGroupTmp = (PriorityGroup & (uint32_t)0x07UL);   /* only values 0..7 are used          */
 8100a44:	68fb      	ldr	r3, [r7, #12]
 8100a46:	f003 0307 	and.w	r3, r3, #7
 8100a4a:	61fb      	str	r3, [r7, #28]
  uint32_t PreemptPriorityBits;
  uint32_t SubPriorityBits;

  PreemptPriorityBits = ((7UL - PriorityGroupTmp) > (uint32_t)(__NVIC_PRIO_BITS)) ? (uint32_t)(__NVIC_PRIO_BITS) : (uint32_t)(7UL - PriorityGroupTmp);
 8100a4c:	69fb      	ldr	r3, [r7, #28]
 8100a4e:	f1c3 0307 	rsb	r3, r3, #7
 8100a52:	2b04      	cmp	r3, #4
 8100a54:	bf28      	it	cs
 8100a56:	2304      	movcs	r3, #4
 8100a58:	61bb      	str	r3, [r7, #24]
  SubPriorityBits     = ((PriorityGroupTmp + (uint32_t)(__NVIC_PRIO_BITS)) < (uint32_t)7UL) ? (uint32_t)0UL : (uint32_t)((PriorityGroupTmp - 7UL) + (uint32_t)(__NVIC_PRIO_BITS));
 8100a5a:	69fb      	ldr	r3, [r7, #28]
 8100a5c:	3304      	adds	r3, #4
 8100a5e:	2b06      	cmp	r3, #6
 8100a60:	d902      	bls.n	8100a68 <NVIC_EncodePriority+0x30>
 8100a62:	69fb      	ldr	r3, [r7, #28]
 8100a64:	3b03      	subs	r3, #3
 8100a66:	e000      	b.n	8100a6a <NVIC_EncodePriority+0x32>
 8100a68:	2300      	movs	r3, #0
 8100a6a:	617b      	str	r3, [r7, #20]

  return (
           ((PreemptPriority & (uint32_t)((1UL << (PreemptPriorityBits)) - 1UL)) << SubPriorityBits) |
 8100a6c:	f04f 32ff 	mov.w	r2, #4294967295
 8100a70:	69bb      	ldr	r3, [r7, #24]
 8100a72:	fa02 f303 	lsl.w	r3, r2, r3
 8100a76:	43da      	mvns	r2, r3
 8100a78:	68bb      	ldr	r3, [r7, #8]
 8100a7a:	401a      	ands	r2, r3
 8100a7c:	697b      	ldr	r3, [r7, #20]
 8100a7e:	409a      	lsls	r2, r3
           ((SubPriority     & (uint32_t)((1UL << (SubPriorityBits    )) - 1UL)))
 8100a80:	f04f 31ff 	mov.w	r1, #4294967295
 8100a84:	697b      	ldr	r3, [r7, #20]
 8100a86:	fa01 f303 	lsl.w	r3, r1, r3
 8100a8a:	43d9      	mvns	r1, r3
 8100a8c:	687b      	ldr	r3, [r7, #4]
 8100a8e:	400b      	ands	r3, r1
           ((PreemptPriority & (uint32_t)((1UL << (PreemptPriorityBits)) - 1UL)) << SubPriorityBits) |
 8100a90:	4313      	orrs	r3, r2
         );
}
 8100a92:	4618      	mov	r0, r3
 8100a94:	3724      	adds	r7, #36	; 0x24
 8100a96:	46bd      	mov	sp, r7
 8100a98:	f85d 7b04 	ldr.w	r7, [sp], #4
 8100a9c:	4770      	bx	lr
	...

08100aa0 <SysTick_Config>:
  \note    When the variable <b>__Vendor_SysTickConfig</b> is set to 1, then the
           function <b>SysTick_Config</b> is not included. In this case, the file <b><i>device</i>.h</b>
           must contain a vendor-specific implementation of this function.
 */
__STATIC_INLINE uint32_t SysTick_Config(uint32_t ticks)
{
 8100aa0:	b580      	push	{r7, lr}
 8100aa2:	b082      	sub	sp, #8
 8100aa4:	af00      	add	r7, sp, #0
 8100aa6:	6078      	str	r0, [r7, #4]
  if ((ticks - 1UL) > SysTick_LOAD_RELOAD_Msk)
 8100aa8:	687b      	ldr	r3, [r7, #4]
 8100aaa:	3b01      	subs	r3, #1
 8100aac:	f1b3 7f80 	cmp.w	r3, #16777216	; 0x1000000
 8100ab0:	d301      	bcc.n	8100ab6 <SysTick_Config+0x16>
  {
    return (1UL);                                                   /* Reload value impossible */
 8100ab2:	2301      	movs	r3, #1
 8100ab4:	e00f      	b.n	8100ad6 <SysTick_Config+0x36>
  }

  SysTick->LOAD  = (uint32_t)(ticks - 1UL);                         /* set reload register */
 8100ab6:	4a0a      	ldr	r2, [pc, #40]	; (8100ae0 <SysTick_Config+0x40>)
 8100ab8:	687b      	ldr	r3, [r7, #4]
 8100aba:	3b01      	subs	r3, #1
 8100abc:	6053      	str	r3, [r2, #4]
  NVIC_SetPriority (SysTick_IRQn, (1UL << __NVIC_PRIO_BITS) - 1UL); /* set Priority for Systick Interrupt */
 8100abe:	210f      	movs	r1, #15
 8100ac0:	f04f 30ff 	mov.w	r0, #4294967295
 8100ac4:	f7ff ff8e 	bl	81009e4 <__NVIC_SetPriority>
  SysTick->VAL   = 0UL;                                             /* Load the SysTick Counter Value */
 8100ac8:	4b05      	ldr	r3, [pc, #20]	; (8100ae0 <SysTick_Config+0x40>)
 8100aca:	2200      	movs	r2, #0
 8100acc:	609a      	str	r2, [r3, #8]
  SysTick->CTRL  = SysTick_CTRL_CLKSOURCE_Msk |
 8100ace:	4b04      	ldr	r3, [pc, #16]	; (8100ae0 <SysTick_Config+0x40>)
 8100ad0:	2207      	movs	r2, #7
 8100ad2:	601a      	str	r2, [r3, #0]
                   SysTick_CTRL_TICKINT_Msk   |
                   SysTick_CTRL_ENABLE_Msk;                         /* Enable SysTick IRQ and SysTick Timer */
  return (0UL);                                                     /* Function successful */
 8100ad4:	2300      	movs	r3, #0
}
 8100ad6:	4618      	mov	r0, r3
 8100ad8:	3708      	adds	r7, #8
 8100ada:	46bd      	mov	sp, r7
 8100adc:	bd80      	pop	{r7, pc}
 8100ade:	bf00      	nop
 8100ae0:	e000e010 	.word	0xe000e010

08100ae4 <HAL_NVIC_SetPriorityGrouping>:
  * @note   When the NVIC_PriorityGroup_0 is selected, IRQ preemption is no more possible.
  *         The pending IRQ priority will be managed only by the subpriority.
  * @retval None
  */
void HAL_NVIC_SetPriorityGrouping(uint32_t PriorityGroup)
{
 8100ae4:	b580      	push	{r7, lr}
 8100ae6:	b082      	sub	sp, #8
 8100ae8:	af00      	add	r7, sp, #0
 8100aea:	6078      	str	r0, [r7, #4]
  /* Check the parameters */
  assert_param(IS_NVIC_PRIORITY_GROUP(PriorityGroup));

  /* Set the PRIGROUP[10:8] bits according to the PriorityGroup parameter value */
  NVIC_SetPriorityGrouping(PriorityGroup);
 8100aec:	6878      	ldr	r0, [r7, #4]
 8100aee:	f7ff ff47 	bl	8100980 <__NVIC_SetPriorityGrouping>
}
 8100af2:	bf00      	nop
 8100af4:	3708      	adds	r7, #8
 8100af6:	46bd      	mov	sp, r7
 8100af8:	bd80      	pop	{r7, pc}

08100afa <HAL_NVIC_SetPriority>:
  *         This parameter can be a value between 0 and 15
  *         A lower priority value indicates a higher priority.
  * @retval None
  */
void HAL_NVIC_SetPriority(IRQn_Type IRQn, uint32_t PreemptPriority, uint32_t SubPriority)
{
 8100afa:	b580      	push	{r7, lr}
 8100afc:	b086      	sub	sp, #24
 8100afe:	af00      	add	r7, sp, #0
 8100b00:	4603      	mov	r3, r0
 8100b02:	60b9      	str	r1, [r7, #8]
 8100b04:	607a      	str	r2, [r7, #4]
 8100b06:	81fb      	strh	r3, [r7, #14]

  /* Check the parameters */
  assert_param(IS_NVIC_SUB_PRIORITY(SubPriority));
  assert_param(IS_NVIC_PREEMPTION_PRIORITY(PreemptPriority));

  prioritygroup = NVIC_GetPriorityGrouping();
 8100b08:	f7ff ff5e 	bl	81009c8 <__NVIC_GetPriorityGrouping>
 8100b0c:	6178      	str	r0, [r7, #20]

  NVIC_SetPriority(IRQn, NVIC_EncodePriority(prioritygroup, PreemptPriority, SubPriority));
 8100b0e:	687a      	ldr	r2, [r7, #4]
 8100b10:	68b9      	ldr	r1, [r7, #8]
 8100b12:	6978      	ldr	r0, [r7, #20]
 8100b14:	f7ff ff90 	bl	8100a38 <NVIC_EncodePriority>
 8100b18:	4602      	mov	r2, r0
 8100b1a:	f9b7 300e 	ldrsh.w	r3, [r7, #14]
 8100b1e:	4611      	mov	r1, r2
 8100b20:	4618      	mov	r0, r3
 8100b22:	f7ff ff5f 	bl	81009e4 <__NVIC_SetPriority>
}
 8100b26:	bf00      	nop
 8100b28:	3718      	adds	r7, #24
 8100b2a:	46bd      	mov	sp, r7
 8100b2c:	bd80      	pop	{r7, pc}

08100b2e <HAL_SYSTICK_Config>:
  * @param  TicksNumb Specifies the ticks Number of ticks between two interrupts.
  * @retval status   - 0  Function succeeded.
  *                  - 1  Function failed.
  */
uint32_t HAL_SYSTICK_Config(uint32_t TicksNumb)
{
 8100b2e:	b580      	push	{r7, lr}
 8100b30:	b082      	sub	sp, #8
 8100b32:	af00      	add	r7, sp, #0
 8100b34:	6078      	str	r0, [r7, #4]
   return SysTick_Config(TicksNumb);
 8100b36:	6878      	ldr	r0, [r7, #4]
 8100b38:	f7ff ffb2 	bl	8100aa0 <SysTick_Config>
 8100b3c:	4603      	mov	r3, r0
}
 8100b3e:	4618      	mov	r0, r3
 8100b40:	3708      	adds	r7, #8
 8100b42:	46bd      	mov	sp, r7
 8100b44:	bd80      	pop	{r7, pc}
	...

08100b48 <HAL_GetCurrentCPUID>:
/**
  * @brief  Returns the current CPU ID.
  * @retval CPU identifier
  */
uint32_t HAL_GetCurrentCPUID(void)
{
 8100b48:	b480      	push	{r7}
 8100b4a:	af00      	add	r7, sp, #0
  if (((SCB->CPUID & 0x000000F0U) >> 4 )== 0x7U)
 8100b4c:	4b07      	ldr	r3, [pc, #28]	; (8100b6c <HAL_GetCurrentCPUID+0x24>)
 8100b4e:	681b      	ldr	r3, [r3, #0]
 8100b50:	091b      	lsrs	r3, r3, #4
 8100b52:	f003 030f 	and.w	r3, r3, #15
 8100b56:	2b07      	cmp	r3, #7
 8100b58:	d101      	bne.n	8100b5e <HAL_GetCurrentCPUID+0x16>
  {
    return  CM7_CPUID;
 8100b5a:	2303      	movs	r3, #3
 8100b5c:	e000      	b.n	8100b60 <HAL_GetCurrentCPUID+0x18>
  }
  else
  {
    return CM4_CPUID;
 8100b5e:	2301      	movs	r3, #1
  }
}
 8100b60:	4618      	mov	r0, r3
 8100b62:	46bd      	mov	sp, r7
 8100b64:	f85d 7b04 	ldr.w	r7, [sp], #4
 8100b68:	4770      	bx	lr
 8100b6a:	bf00      	nop
 8100b6c:	e000ed00 	.word	0xe000ed00

08100b70 <HAL_GPIO_Init>:
  * @param  GPIO_Init: pointer to a GPIO_InitTypeDef structure that contains
  *         the configuration information for the specified GPIO peripheral.
  * @retval None
  */
void HAL_GPIO_Init(GPIO_TypeDef  *GPIOx, GPIO_InitTypeDef *GPIO_Init)
{
 8100b70:	b480      	push	{r7}
 8100b72:	b089      	sub	sp, #36	; 0x24
 8100b74:	af00      	add	r7, sp, #0
 8100b76:	6078      	str	r0, [r7, #4]
 8100b78:	6039      	str	r1, [r7, #0]
  uint32_t position = 0x00U;
 8100b7a:	2300      	movs	r3, #0
 8100b7c:	61fb      	str	r3, [r7, #28]
  uint32_t iocurrent;
  uint32_t temp;
  EXTI_Core_TypeDef *EXTI_CurrentCPU;

#if defined(DUAL_CORE) && defined(CORE_CM4)
  EXTI_CurrentCPU = EXTI_D2; /* EXTI for CM4 CPU */
 8100b7e:	4b89      	ldr	r3, [pc, #548]	; (8100da4 <HAL_GPIO_Init+0x234>)
 8100b80:	617b      	str	r3, [r7, #20]
  assert_param(IS_GPIO_ALL_INSTANCE(GPIOx));
  assert_param(IS_GPIO_PIN(GPIO_Init->Pin));
  assert_param(IS_GPIO_MODE(GPIO_Init->Mode));

  /* Configure the port pins */
  while (((GPIO_Init->Pin) >> position) != 0x00U)
 8100b82:	e194      	b.n	8100eae <HAL_GPIO_Init+0x33e>
  {
    /* Get current io position */
    iocurrent = (GPIO_Init->Pin) & (1UL << position);
 8100b84:	683b      	ldr	r3, [r7, #0]
 8100b86:	681a      	ldr	r2, [r3, #0]
 8100b88:	2101      	movs	r1, #1
 8100b8a:	69fb      	ldr	r3, [r7, #28]
 8100b8c:	fa01 f303 	lsl.w	r3, r1, r3
 8100b90:	4013      	ands	r3, r2
 8100b92:	613b      	str	r3, [r7, #16]

    if (iocurrent != 0x00U)
 8100b94:	693b      	ldr	r3, [r7, #16]
 8100b96:	2b00      	cmp	r3, #0
 8100b98:	f000 8186 	beq.w	8100ea8 <HAL_GPIO_Init+0x338>
    {
      /*--------------------- GPIO Mode Configuration ------------------------*/
      /* In case of Output or Alternate function mode selection */
      if (((GPIO_Init->Mode & GPIO_MODE) == MODE_OUTPUT) || ((GPIO_Init->Mode & GPIO_MODE) == MODE_AF))
 8100b9c:	683b      	ldr	r3, [r7, #0]
 8100b9e:	685b      	ldr	r3, [r3, #4]
 8100ba0:	f003 0303 	and.w	r3, r3, #3
 8100ba4:	2b01      	cmp	r3, #1
 8100ba6:	d005      	beq.n	8100bb4 <HAL_GPIO_Init+0x44>
 8100ba8:	683b      	ldr	r3, [r7, #0]
 8100baa:	685b      	ldr	r3, [r3, #4]
 8100bac:	f003 0303 	and.w	r3, r3, #3
 8100bb0:	2b02      	cmp	r3, #2
 8100bb2:	d130      	bne.n	8100c16 <HAL_GPIO_Init+0xa6>
      {
        /* Check the Speed parameter */
        assert_param(IS_GPIO_SPEED(GPIO_Init->Speed));

        /* Configure the IO Speed */
        temp = GPIOx->OSPEEDR;
 8100bb4:	687b      	ldr	r3, [r7, #4]
 8100bb6:	689b      	ldr	r3, [r3, #8]
 8100bb8:	61bb      	str	r3, [r7, #24]
        temp &= ~(GPIO_OSPEEDR_OSPEED0 << (position * 2U));
 8100bba:	69fb      	ldr	r3, [r7, #28]
 8100bbc:	005b      	lsls	r3, r3, #1
 8100bbe:	2203      	movs	r2, #3
 8100bc0:	fa02 f303 	lsl.w	r3, r2, r3
 8100bc4:	43db      	mvns	r3, r3
 8100bc6:	69ba      	ldr	r2, [r7, #24]
 8100bc8:	4013      	ands	r3, r2
 8100bca:	61bb      	str	r3, [r7, #24]
        temp |= (GPIO_Init->Speed << (position * 2U));
 8100bcc:	683b      	ldr	r3, [r7, #0]
 8100bce:	68da      	ldr	r2, [r3, #12]
 8100bd0:	69fb      	ldr	r3, [r7, #28]
 8100bd2:	005b      	lsls	r3, r3, #1
 8100bd4:	fa02 f303 	lsl.w	r3, r2, r3
 8100bd8:	69ba      	ldr	r2, [r7, #24]
 8100bda:	4313      	orrs	r3, r2
 8100bdc:	61bb      	str	r3, [r7, #24]
        GPIOx->OSPEEDR = temp;
 8100bde:	687b      	ldr	r3, [r7, #4]
 8100be0:	69ba      	ldr	r2, [r7, #24]
 8100be2:	609a      	str	r2, [r3, #8]

        /* Configure the IO Output Type */
        temp = GPIOx->OTYPER;
 8100be4:	687b      	ldr	r3, [r7, #4]
 8100be6:	685b      	ldr	r3, [r3, #4]
 8100be8:	61bb      	str	r3, [r7, #24]
        temp &= ~(GPIO_OTYPER_OT0 << position) ;
 8100bea:	2201      	movs	r2, #1
 8100bec:	69fb      	ldr	r3, [r7, #28]
 8100bee:	fa02 f303 	lsl.w	r3, r2, r3
 8100bf2:	43db      	mvns	r3, r3
 8100bf4:	69ba      	ldr	r2, [r7, #24]
 8100bf6:	4013      	ands	r3, r2
 8100bf8:	61bb      	str	r3, [r7, #24]
        temp |= (((GPIO_Init->Mode & OUTPUT_TYPE) >> OUTPUT_TYPE_Pos) << position);
 8100bfa:	683b      	ldr	r3, [r7, #0]
 8100bfc:	685b      	ldr	r3, [r3, #4]
 8100bfe:	091b      	lsrs	r3, r3, #4
 8100c00:	f003 0201 	and.w	r2, r3, #1
 8100c04:	69fb      	ldr	r3, [r7, #28]
 8100c06:	fa02 f303 	lsl.w	r3, r2, r3
 8100c0a:	69ba      	ldr	r2, [r7, #24]
 8100c0c:	4313      	orrs	r3, r2
 8100c0e:	61bb      	str	r3, [r7, #24]
        GPIOx->OTYPER = temp;
 8100c10:	687b      	ldr	r3, [r7, #4]
 8100c12:	69ba      	ldr	r2, [r7, #24]
 8100c14:	605a      	str	r2, [r3, #4]
      }

      if ((GPIO_Init->Mode & GPIO_MODE) != MODE_ANALOG)
 8100c16:	683b      	ldr	r3, [r7, #0]
 8100c18:	685b      	ldr	r3, [r3, #4]
 8100c1a:	f003 0303 	and.w	r3, r3, #3
 8100c1e:	2b03      	cmp	r3, #3
 8100c20:	d017      	beq.n	8100c52 <HAL_GPIO_Init+0xe2>
      {
       /* Check the Pull parameter */
       assert_param(IS_GPIO_PULL(GPIO_Init->Pull));

      /* Activate the Pull-up or Pull down resistor for the current IO */
      temp = GPIOx->PUPDR;
 8100c22:	687b      	ldr	r3, [r7, #4]
 8100c24:	68db      	ldr	r3, [r3, #12]
 8100c26:	61bb      	str	r3, [r7, #24]
      temp &= ~(GPIO_PUPDR_PUPD0 << (position * 2U));
 8100c28:	69fb      	ldr	r3, [r7, #28]
 8100c2a:	005b      	lsls	r3, r3, #1
 8100c2c:	2203      	movs	r2, #3
 8100c2e:	fa02 f303 	lsl.w	r3, r2, r3
 8100c32:	43db      	mvns	r3, r3
 8100c34:	69ba      	ldr	r2, [r7, #24]
 8100c36:	4013      	ands	r3, r2
 8100c38:	61bb      	str	r3, [r7, #24]
      temp |= ((GPIO_Init->Pull) << (position * 2U));
 8100c3a:	683b      	ldr	r3, [r7, #0]
 8100c3c:	689a      	ldr	r2, [r3, #8]
 8100c3e:	69fb      	ldr	r3, [r7, #28]
 8100c40:	005b      	lsls	r3, r3, #1
 8100c42:	fa02 f303 	lsl.w	r3, r2, r3
 8100c46:	69ba      	ldr	r2, [r7, #24]
 8100c48:	4313      	orrs	r3, r2
 8100c4a:	61bb      	str	r3, [r7, #24]
      GPIOx->PUPDR = temp;
 8100c4c:	687b      	ldr	r3, [r7, #4]
 8100c4e:	69ba      	ldr	r2, [r7, #24]
 8100c50:	60da      	str	r2, [r3, #12]
      }

      /* In case of Alternate function mode selection */
      if ((GPIO_Init->Mode & GPIO_MODE) == MODE_AF)
 8100c52:	683b      	ldr	r3, [r7, #0]
 8100c54:	685b      	ldr	r3, [r3, #4]
 8100c56:	f003 0303 	and.w	r3, r3, #3
 8100c5a:	2b02      	cmp	r3, #2
 8100c5c:	d123      	bne.n	8100ca6 <HAL_GPIO_Init+0x136>
        /* Check the Alternate function parameters */
        assert_param(IS_GPIO_AF_INSTANCE(GPIOx));
        assert_param(IS_GPIO_AF(GPIO_Init->Alternate));

        /* Configure Alternate function mapped with the current IO */
        temp = GPIOx->AFR[position >> 3U];
 8100c5e:	69fb      	ldr	r3, [r7, #28]
 8100c60:	08da      	lsrs	r2, r3, #3
 8100c62:	687b      	ldr	r3, [r7, #4]
 8100c64:	3208      	adds	r2, #8
 8100c66:	f853 3022 	ldr.w	r3, [r3, r2, lsl #2]
 8100c6a:	61bb      	str	r3, [r7, #24]
        temp &= ~(0xFU << ((position & 0x07U) * 4U));
 8100c6c:	69fb      	ldr	r3, [r7, #28]
 8100c6e:	f003 0307 	and.w	r3, r3, #7
 8100c72:	009b      	lsls	r3, r3, #2
 8100c74:	220f      	movs	r2, #15
 8100c76:	fa02 f303 	lsl.w	r3, r2, r3
 8100c7a:	43db      	mvns	r3, r3
 8100c7c:	69ba      	ldr	r2, [r7, #24]
 8100c7e:	4013      	ands	r3, r2
 8100c80:	61bb      	str	r3, [r7, #24]
        temp |= ((GPIO_Init->Alternate) << ((position & 0x07U) * 4U));
 8100c82:	683b      	ldr	r3, [r7, #0]
 8100c84:	691a      	ldr	r2, [r3, #16]
 8100c86:	69fb      	ldr	r3, [r7, #28]
 8100c88:	f003 0307 	and.w	r3, r3, #7
 8100c8c:	009b      	lsls	r3, r3, #2
 8100c8e:	fa02 f303 	lsl.w	r3, r2, r3
 8100c92:	69ba      	ldr	r2, [r7, #24]
 8100c94:	4313      	orrs	r3, r2
 8100c96:	61bb      	str	r3, [r7, #24]
        GPIOx->AFR[position >> 3U] = temp;
 8100c98:	69fb      	ldr	r3, [r7, #28]
 8100c9a:	08da      	lsrs	r2, r3, #3
 8100c9c:	687b      	ldr	r3, [r7, #4]
 8100c9e:	3208      	adds	r2, #8
 8100ca0:	69b9      	ldr	r1, [r7, #24]
 8100ca2:	f843 1022 	str.w	r1, [r3, r2, lsl #2]
      }

      /* Configure IO Direction mode (Input, Output, Alternate or Analog) */
      temp = GPIOx->MODER;
 8100ca6:	687b      	ldr	r3, [r7, #4]
 8100ca8:	681b      	ldr	r3, [r3, #0]
 8100caa:	61bb      	str	r3, [r7, #24]
      temp &= ~(GPIO_MODER_MODE0 << (position * 2U));
 8100cac:	69fb      	ldr	r3, [r7, #28]
 8100cae:	005b      	lsls	r3, r3, #1
 8100cb0:	2203      	movs	r2, #3
 8100cb2:	fa02 f303 	lsl.w	r3, r2, r3
 8100cb6:	43db      	mvns	r3, r3
 8100cb8:	69ba      	ldr	r2, [r7, #24]
 8100cba:	4013      	ands	r3, r2
 8100cbc:	61bb      	str	r3, [r7, #24]
      temp |= ((GPIO_Init->Mode & GPIO_MODE) << (position * 2U));
 8100cbe:	683b      	ldr	r3, [r7, #0]
 8100cc0:	685b      	ldr	r3, [r3, #4]
 8100cc2:	f003 0203 	and.w	r2, r3, #3
 8100cc6:	69fb      	ldr	r3, [r7, #28]
 8100cc8:	005b      	lsls	r3, r3, #1
 8100cca:	fa02 f303 	lsl.w	r3, r2, r3
 8100cce:	69ba      	ldr	r2, [r7, #24]
 8100cd0:	4313      	orrs	r3, r2
 8100cd2:	61bb      	str	r3, [r7, #24]
      GPIOx->MODER = temp;
 8100cd4:	687b      	ldr	r3, [r7, #4]
 8100cd6:	69ba      	ldr	r2, [r7, #24]
 8100cd8:	601a      	str	r2, [r3, #0]

      /*--------------------- EXTI Mode Configuration ------------------------*/
      /* Configure the External Interrupt or event for the current IO */
      if ((GPIO_Init->Mode & EXTI_MODE) != 0x00U)
 8100cda:	683b      	ldr	r3, [r7, #0]
 8100cdc:	685b      	ldr	r3, [r3, #4]
 8100cde:	f403 3340 	and.w	r3, r3, #196608	; 0x30000
 8100ce2:	2b00      	cmp	r3, #0
 8100ce4:	f000 80e0 	beq.w	8100ea8 <HAL_GPIO_Init+0x338>
      {
        /* Enable SYSCFG Clock */
        __HAL_RCC_SYSCFG_CLK_ENABLE();
 8100ce8:	4b2f      	ldr	r3, [pc, #188]	; (8100da8 <HAL_GPIO_Init+0x238>)
 8100cea:	f8d3 30f4 	ldr.w	r3, [r3, #244]	; 0xf4
 8100cee:	4a2e      	ldr	r2, [pc, #184]	; (8100da8 <HAL_GPIO_Init+0x238>)
 8100cf0:	f043 0302 	orr.w	r3, r3, #2
 8100cf4:	f8c2 30f4 	str.w	r3, [r2, #244]	; 0xf4
 8100cf8:	4b2b      	ldr	r3, [pc, #172]	; (8100da8 <HAL_GPIO_Init+0x238>)
 8100cfa:	f8d3 30f4 	ldr.w	r3, [r3, #244]	; 0xf4
 8100cfe:	f003 0302 	and.w	r3, r3, #2
 8100d02:	60fb      	str	r3, [r7, #12]
 8100d04:	68fb      	ldr	r3, [r7, #12]

        temp = SYSCFG->EXTICR[position >> 2U];
 8100d06:	4a29      	ldr	r2, [pc, #164]	; (8100dac <HAL_GPIO_Init+0x23c>)
 8100d08:	69fb      	ldr	r3, [r7, #28]
 8100d0a:	089b      	lsrs	r3, r3, #2
 8100d0c:	3302      	adds	r3, #2
 8100d0e:	f852 3023 	ldr.w	r3, [r2, r3, lsl #2]
 8100d12:	61bb      	str	r3, [r7, #24]
        temp &= ~(0x0FUL << (4U * (position & 0x03U)));
 8100d14:	69fb      	ldr	r3, [r7, #28]
 8100d16:	f003 0303 	and.w	r3, r3, #3
 8100d1a:	009b      	lsls	r3, r3, #2
 8100d1c:	220f      	movs	r2, #15
 8100d1e:	fa02 f303 	lsl.w	r3, r2, r3
 8100d22:	43db      	mvns	r3, r3
 8100d24:	69ba      	ldr	r2, [r7, #24]
 8100d26:	4013      	ands	r3, r2
 8100d28:	61bb      	str	r3, [r7, #24]
        temp |= (GPIO_GET_INDEX(GPIOx) << (4U * (position & 0x03U)));
 8100d2a:	687b      	ldr	r3, [r7, #4]
 8100d2c:	4a20      	ldr	r2, [pc, #128]	; (8100db0 <HAL_GPIO_Init+0x240>)
 8100d2e:	4293      	cmp	r3, r2
 8100d30:	d052      	beq.n	8100dd8 <HAL_GPIO_Init+0x268>
 8100d32:	687b      	ldr	r3, [r7, #4]
 8100d34:	4a1f      	ldr	r2, [pc, #124]	; (8100db4 <HAL_GPIO_Init+0x244>)
 8100d36:	4293      	cmp	r3, r2
 8100d38:	d031      	beq.n	8100d9e <HAL_GPIO_Init+0x22e>
 8100d3a:	687b      	ldr	r3, [r7, #4]
 8100d3c:	4a1e      	ldr	r2, [pc, #120]	; (8100db8 <HAL_GPIO_Init+0x248>)
 8100d3e:	4293      	cmp	r3, r2
 8100d40:	d02b      	beq.n	8100d9a <HAL_GPIO_Init+0x22a>
 8100d42:	687b      	ldr	r3, [r7, #4]
 8100d44:	4a1d      	ldr	r2, [pc, #116]	; (8100dbc <HAL_GPIO_Init+0x24c>)
 8100d46:	4293      	cmp	r3, r2
 8100d48:	d025      	beq.n	8100d96 <HAL_GPIO_Init+0x226>
 8100d4a:	687b      	ldr	r3, [r7, #4]
 8100d4c:	4a1c      	ldr	r2, [pc, #112]	; (8100dc0 <HAL_GPIO_Init+0x250>)
 8100d4e:	4293      	cmp	r3, r2
 8100d50:	d01f      	beq.n	8100d92 <HAL_GPIO_Init+0x222>
 8100d52:	687b      	ldr	r3, [r7, #4]
 8100d54:	4a1b      	ldr	r2, [pc, #108]	; (8100dc4 <HAL_GPIO_Init+0x254>)
 8100d56:	4293      	cmp	r3, r2
 8100d58:	d019      	beq.n	8100d8e <HAL_GPIO_Init+0x21e>
 8100d5a:	687b      	ldr	r3, [r7, #4]
 8100d5c:	4a1a      	ldr	r2, [pc, #104]	; (8100dc8 <HAL_GPIO_Init+0x258>)
 8100d5e:	4293      	cmp	r3, r2
 8100d60:	d013      	beq.n	8100d8a <HAL_GPIO_Init+0x21a>
 8100d62:	687b      	ldr	r3, [r7, #4]
 8100d64:	4a19      	ldr	r2, [pc, #100]	; (8100dcc <HAL_GPIO_Init+0x25c>)
 8100d66:	4293      	cmp	r3, r2
 8100d68:	d00d      	beq.n	8100d86 <HAL_GPIO_Init+0x216>
 8100d6a:	687b      	ldr	r3, [r7, #4]
 8100d6c:	4a18      	ldr	r2, [pc, #96]	; (8100dd0 <HAL_GPIO_Init+0x260>)
 8100d6e:	4293      	cmp	r3, r2
 8100d70:	d007      	beq.n	8100d82 <HAL_GPIO_Init+0x212>
 8100d72:	687b      	ldr	r3, [r7, #4]
 8100d74:	4a17      	ldr	r2, [pc, #92]	; (8100dd4 <HAL_GPIO_Init+0x264>)
 8100d76:	4293      	cmp	r3, r2
 8100d78:	d101      	bne.n	8100d7e <HAL_GPIO_Init+0x20e>
 8100d7a:	2309      	movs	r3, #9
 8100d7c:	e02d      	b.n	8100dda <HAL_GPIO_Init+0x26a>
 8100d7e:	230a      	movs	r3, #10
 8100d80:	e02b      	b.n	8100dda <HAL_GPIO_Init+0x26a>
 8100d82:	2308      	movs	r3, #8
 8100d84:	e029      	b.n	8100dda <HAL_GPIO_Init+0x26a>
 8100d86:	2307      	movs	r3, #7
 8100d88:	e027      	b.n	8100dda <HAL_GPIO_Init+0x26a>
 8100d8a:	2306      	movs	r3, #6
 8100d8c:	e025      	b.n	8100dda <HAL_GPIO_Init+0x26a>
 8100d8e:	2305      	movs	r3, #5
 8100d90:	e023      	b.n	8100dda <HAL_GPIO_Init+0x26a>
 8100d92:	2304      	movs	r3, #4
 8100d94:	e021      	b.n	8100dda <HAL_GPIO_Init+0x26a>
 8100d96:	2303      	movs	r3, #3
 8100d98:	e01f      	b.n	8100dda <HAL_GPIO_Init+0x26a>
 8100d9a:	2302      	movs	r3, #2
 8100d9c:	e01d      	b.n	8100dda <HAL_GPIO_Init+0x26a>
 8100d9e:	2301      	movs	r3, #1
 8100da0:	e01b      	b.n	8100dda <HAL_GPIO_Init+0x26a>
 8100da2:	bf00      	nop
 8100da4:	580000c0 	.word	0x580000c0
 8100da8:	58024400 	.word	0x58024400
 8100dac:	58000400 	.word	0x58000400
 8100db0:	58020000 	.word	0x58020000
 8100db4:	58020400 	.word	0x58020400
 8100db8:	58020800 	.word	0x58020800
 8100dbc:	58020c00 	.word	0x58020c00
 8100dc0:	58021000 	.word	0x58021000
 8100dc4:	58021400 	.word	0x58021400
 8100dc8:	58021800 	.word	0x58021800
 8100dcc:	58021c00 	.word	0x58021c00
 8100dd0:	58022000 	.word	0x58022000
 8100dd4:	58022400 	.word	0x58022400
 8100dd8:	2300      	movs	r3, #0
 8100dda:	69fa      	ldr	r2, [r7, #28]
 8100ddc:	f002 0203 	and.w	r2, r2, #3
 8100de0:	0092      	lsls	r2, r2, #2
 8100de2:	4093      	lsls	r3, r2
 8100de4:	69ba      	ldr	r2, [r7, #24]
 8100de6:	4313      	orrs	r3, r2
 8100de8:	61bb      	str	r3, [r7, #24]
        SYSCFG->EXTICR[position >> 2U] = temp;
 8100dea:	4938      	ldr	r1, [pc, #224]	; (8100ecc <HAL_GPIO_Init+0x35c>)
 8100dec:	69fb      	ldr	r3, [r7, #28]
 8100dee:	089b      	lsrs	r3, r3, #2
 8100df0:	3302      	adds	r3, #2
 8100df2:	69ba      	ldr	r2, [r7, #24]
 8100df4:	f841 2023 	str.w	r2, [r1, r3, lsl #2]

        /* Clear Rising Falling edge configuration */
        temp = EXTI->RTSR1;
 8100df8:	f04f 43b0 	mov.w	r3, #1476395008	; 0x58000000
 8100dfc:	681b      	ldr	r3, [r3, #0]
 8100dfe:	61bb      	str	r3, [r7, #24]
        temp &= ~(iocurrent);
 8100e00:	693b      	ldr	r3, [r7, #16]
 8100e02:	43db      	mvns	r3, r3
 8100e04:	69ba      	ldr	r2, [r7, #24]
 8100e06:	4013      	ands	r3, r2
 8100e08:	61bb      	str	r3, [r7, #24]
        if ((GPIO_Init->Mode & TRIGGER_RISING) != 0x00U)
 8100e0a:	683b      	ldr	r3, [r7, #0]
 8100e0c:	685b      	ldr	r3, [r3, #4]
 8100e0e:	f403 1380 	and.w	r3, r3, #1048576	; 0x100000
 8100e12:	2b00      	cmp	r3, #0
 8100e14:	d003      	beq.n	8100e1e <HAL_GPIO_Init+0x2ae>
        {
          temp |= iocurrent;
 8100e16:	69ba      	ldr	r2, [r7, #24]
 8100e18:	693b      	ldr	r3, [r7, #16]
 8100e1a:	4313      	orrs	r3, r2
 8100e1c:	61bb      	str	r3, [r7, #24]
        }
        EXTI->RTSR1 = temp;
 8100e1e:	f04f 42b0 	mov.w	r2, #1476395008	; 0x58000000
 8100e22:	69bb      	ldr	r3, [r7, #24]
 8100e24:	6013      	str	r3, [r2, #0]

        temp = EXTI->FTSR1;
 8100e26:	f04f 43b0 	mov.w	r3, #1476395008	; 0x58000000
 8100e2a:	685b      	ldr	r3, [r3, #4]
 8100e2c:	61bb      	str	r3, [r7, #24]
        temp &= ~(iocurrent);
 8100e2e:	693b      	ldr	r3, [r7, #16]
 8100e30:	43db      	mvns	r3, r3
 8100e32:	69ba      	ldr	r2, [r7, #24]
 8100e34:	4013      	ands	r3, r2
 8100e36:	61bb      	str	r3, [r7, #24]
        if ((GPIO_Init->Mode & TRIGGER_FALLING) != 0x00U)
 8100e38:	683b      	ldr	r3, [r7, #0]
 8100e3a:	685b      	ldr	r3, [r3, #4]
 8100e3c:	f403 1300 	and.w	r3, r3, #2097152	; 0x200000
 8100e40:	2b00      	cmp	r3, #0
 8100e42:	d003      	beq.n	8100e4c <HAL_GPIO_Init+0x2dc>
        {
          temp |= iocurrent;
 8100e44:	69ba      	ldr	r2, [r7, #24]
 8100e46:	693b      	ldr	r3, [r7, #16]
 8100e48:	4313      	orrs	r3, r2
 8100e4a:	61bb      	str	r3, [r7, #24]
        }
        EXTI->FTSR1 = temp;
 8100e4c:	f04f 42b0 	mov.w	r2, #1476395008	; 0x58000000
 8100e50:	69bb      	ldr	r3, [r7, #24]
 8100e52:	6053      	str	r3, [r2, #4]

        temp = EXTI_CurrentCPU->EMR1;
 8100e54:	697b      	ldr	r3, [r7, #20]
 8100e56:	685b      	ldr	r3, [r3, #4]
 8100e58:	61bb      	str	r3, [r7, #24]
        temp &= ~(iocurrent);
 8100e5a:	693b      	ldr	r3, [r7, #16]
 8100e5c:	43db      	mvns	r3, r3
 8100e5e:	69ba      	ldr	r2, [r7, #24]
 8100e60:	4013      	ands	r3, r2
 8100e62:	61bb      	str	r3, [r7, #24]
        if ((GPIO_Init->Mode & EXTI_EVT) != 0x00U)
 8100e64:	683b      	ldr	r3, [r7, #0]
 8100e66:	685b      	ldr	r3, [r3, #4]
 8100e68:	f403 3300 	and.w	r3, r3, #131072	; 0x20000
 8100e6c:	2b00      	cmp	r3, #0
 8100e6e:	d003      	beq.n	8100e78 <HAL_GPIO_Init+0x308>
        {
          temp |= iocurrent;
 8100e70:	69ba      	ldr	r2, [r7, #24]
 8100e72:	693b      	ldr	r3, [r7, #16]
 8100e74:	4313      	orrs	r3, r2
 8100e76:	61bb      	str	r3, [r7, #24]
        }
        EXTI_CurrentCPU->EMR1 = temp;
 8100e78:	697b      	ldr	r3, [r7, #20]
 8100e7a:	69ba      	ldr	r2, [r7, #24]
 8100e7c:	605a      	str	r2, [r3, #4]

        /* Clear EXTI line configuration */
        temp = EXTI_CurrentCPU->IMR1;
 8100e7e:	697b      	ldr	r3, [r7, #20]
 8100e80:	681b      	ldr	r3, [r3, #0]
 8100e82:	61bb      	str	r3, [r7, #24]
        temp &= ~(iocurrent);
 8100e84:	693b      	ldr	r3, [r7, #16]
 8100e86:	43db      	mvns	r3, r3
 8100e88:	69ba      	ldr	r2, [r7, #24]
 8100e8a:	4013      	ands	r3, r2
 8100e8c:	61bb      	str	r3, [r7, #24]
        if ((GPIO_Init->Mode & EXTI_IT) != 0x00U)
 8100e8e:	683b      	ldr	r3, [r7, #0]
 8100e90:	685b      	ldr	r3, [r3, #4]
 8100e92:	f403 3380 	and.w	r3, r3, #65536	; 0x10000
 8100e96:	2b00      	cmp	r3, #0
 8100e98:	d003      	beq.n	8100ea2 <HAL_GPIO_Init+0x332>
        {
          temp |= iocurrent;
 8100e9a:	69ba      	ldr	r2, [r7, #24]
 8100e9c:	693b      	ldr	r3, [r7, #16]
 8100e9e:	4313      	orrs	r3, r2
 8100ea0:	61bb      	str	r3, [r7, #24]
        }
        EXTI_CurrentCPU->IMR1 = temp;
 8100ea2:	697b      	ldr	r3, [r7, #20]
 8100ea4:	69ba      	ldr	r2, [r7, #24]
 8100ea6:	601a      	str	r2, [r3, #0]
      }
    }

    position++;
 8100ea8:	69fb      	ldr	r3, [r7, #28]
 8100eaa:	3301      	adds	r3, #1
 8100eac:	61fb      	str	r3, [r7, #28]
  while (((GPIO_Init->Pin) >> position) != 0x00U)
 8100eae:	683b      	ldr	r3, [r7, #0]
 8100eb0:	681a      	ldr	r2, [r3, #0]
 8100eb2:	69fb      	ldr	r3, [r7, #28]
 8100eb4:	fa22 f303 	lsr.w	r3, r2, r3
 8100eb8:	2b00      	cmp	r3, #0
 8100eba:	f47f ae63 	bne.w	8100b84 <HAL_GPIO_Init+0x14>
  }
}
 8100ebe:	bf00      	nop
 8100ec0:	bf00      	nop
 8100ec2:	3724      	adds	r7, #36	; 0x24
 8100ec4:	46bd      	mov	sp, r7
 8100ec6:	f85d 7b04 	ldr.w	r7, [sp], #4
 8100eca:	4770      	bx	lr
 8100ecc:	58000400 	.word	0x58000400

08100ed0 <HAL_GPIO_WritePin>:
  *            @arg GPIO_PIN_RESET: to clear the port pin
  *            @arg GPIO_PIN_SET: to set the port pin
  * @retval None
  */
void HAL_GPIO_WritePin(GPIO_TypeDef *GPIOx, uint16_t GPIO_Pin, GPIO_PinState PinState)
{
 8100ed0:	b480      	push	{r7}
 8100ed2:	b083      	sub	sp, #12
 8100ed4:	af00      	add	r7, sp, #0
 8100ed6:	6078      	str	r0, [r7, #4]
 8100ed8:	460b      	mov	r3, r1
 8100eda:	807b      	strh	r3, [r7, #2]
 8100edc:	4613      	mov	r3, r2
 8100ede:	707b      	strb	r3, [r7, #1]
  /* Check the parameters */
  assert_param(IS_GPIO_PIN(GPIO_Pin));
  assert_param(IS_GPIO_PIN_ACTION(PinState));

  if (PinState != GPIO_PIN_RESET)
 8100ee0:	787b      	ldrb	r3, [r7, #1]
 8100ee2:	2b00      	cmp	r3, #0
 8100ee4:	d003      	beq.n	8100eee <HAL_GPIO_WritePin+0x1e>
  {
    GPIOx->BSRR = GPIO_Pin;
 8100ee6:	887a      	ldrh	r2, [r7, #2]
 8100ee8:	687b      	ldr	r3, [r7, #4]
 8100eea:	619a      	str	r2, [r3, #24]
  }
  else
  {
    GPIOx->BSRR = (uint32_t)GPIO_Pin << GPIO_NUMBER;
  }
}
 8100eec:	e003      	b.n	8100ef6 <HAL_GPIO_WritePin+0x26>
    GPIOx->BSRR = (uint32_t)GPIO_Pin << GPIO_NUMBER;
 8100eee:	887b      	ldrh	r3, [r7, #2]
 8100ef0:	041a      	lsls	r2, r3, #16
 8100ef2:	687b      	ldr	r3, [r7, #4]
 8100ef4:	619a      	str	r2, [r3, #24]
}
 8100ef6:	bf00      	nop
 8100ef8:	370c      	adds	r7, #12
 8100efa:	46bd      	mov	sp, r7
 8100efc:	f85d 7b04 	ldr.w	r7, [sp], #4
 8100f00:	4770      	bx	lr

08100f02 <HAL_GPIO_TogglePin>:
  * @param  GPIOx: Where x can be (A..K) to select the GPIO peripheral.
  * @param  GPIO_Pin: Specifies the pins to be toggled.
  * @retval None
  */
void HAL_GPIO_TogglePin(GPIO_TypeDef *GPIOx, uint16_t GPIO_Pin)
{
 8100f02:	b480      	push	{r7}
 8100f04:	b085      	sub	sp, #20
 8100f06:	af00      	add	r7, sp, #0
 8100f08:	6078      	str	r0, [r7, #4]
 8100f0a:	460b      	mov	r3, r1
 8100f0c:	807b      	strh	r3, [r7, #2]

  /* Check the parameters */
  assert_param(IS_GPIO_PIN(GPIO_Pin));

  /* get current Output Data Register value */
  odr = GPIOx->ODR;
 8100f0e:	687b      	ldr	r3, [r7, #4]
 8100f10:	695b      	ldr	r3, [r3, #20]
 8100f12:	60fb      	str	r3, [r7, #12]

  /* Set selected pins that were at low level, and reset ones that were high */
  GPIOx->BSRR = ((odr & GPIO_Pin) << GPIO_NUMBER) | (~odr & GPIO_Pin);
 8100f14:	887a      	ldrh	r2, [r7, #2]
 8100f16:	68fb      	ldr	r3, [r7, #12]
 8100f18:	4013      	ands	r3, r2
 8100f1a:	041a      	lsls	r2, r3, #16
 8100f1c:	68fb      	ldr	r3, [r7, #12]
 8100f1e:	43d9      	mvns	r1, r3
 8100f20:	887b      	ldrh	r3, [r7, #2]
 8100f22:	400b      	ands	r3, r1
 8100f24:	431a      	orrs	r2, r3
 8100f26:	687b      	ldr	r3, [r7, #4]
 8100f28:	619a      	str	r2, [r3, #24]
}
 8100f2a:	bf00      	nop
 8100f2c:	3714      	adds	r7, #20
 8100f2e:	46bd      	mov	sp, r7
 8100f30:	f85d 7b04 	ldr.w	r7, [sp], #4
 8100f34:	4770      	bx	lr
	...

08100f38 <HAL_HSEM_ActivateNotification>:
  * @brief  Activate Semaphore release Notification for a given Semaphores Mask .
  * @param  SemMask: Mask of Released semaphores
  * @retval Semaphore Key
  */
void HAL_HSEM_ActivateNotification(uint32_t SemMask)
{
 8100f38:	b480      	push	{r7}
 8100f3a:	b083      	sub	sp, #12
 8100f3c:	af00      	add	r7, sp, #0
 8100f3e:	6078      	str	r0, [r7, #4]
  {
    /*Use interrupt line 1 for CPU2 Master*/
    HSEM->C2IER |= SemMask;
  }
#else
  HSEM_COMMON->IER |= SemMask;
 8100f40:	4b05      	ldr	r3, [pc, #20]	; (8100f58 <HAL_HSEM_ActivateNotification+0x20>)
 8100f42:	681a      	ldr	r2, [r3, #0]
 8100f44:	4904      	ldr	r1, [pc, #16]	; (8100f58 <HAL_HSEM_ActivateNotification+0x20>)
 8100f46:	687b      	ldr	r3, [r7, #4]
 8100f48:	4313      	orrs	r3, r2
 8100f4a:	600b      	str	r3, [r1, #0]
#endif
}
 8100f4c:	bf00      	nop
 8100f4e:	370c      	adds	r7, #12
 8100f50:	46bd      	mov	sp, r7
 8100f52:	f85d 7b04 	ldr.w	r7, [sp], #4
 8100f56:	4770      	bx	lr
 8100f58:	58026510 	.word	0x58026510

08100f5c <HAL_PWREx_EnterSTOPMode>:
  *            @arg PWR_D2_DOMAIN : Enter D2 Domain to DSTOP mode.
  *            @arg PWR_D3_DOMAIN : Enter D3/SRD Domain to DSTOP mode.
  * @retval None.
  */
void HAL_PWREx_EnterSTOPMode (uint32_t Regulator, uint8_t STOPEntry, uint32_t Domain)
{
 8100f5c:	b580      	push	{r7, lr}
 8100f5e:	b084      	sub	sp, #16
 8100f60:	af00      	add	r7, sp, #0
 8100f62:	60f8      	str	r0, [r7, #12]
 8100f64:	460b      	mov	r3, r1
 8100f66:	607a      	str	r2, [r7, #4]
 8100f68:	72fb      	strb	r3, [r7, #11]
  assert_param (IS_PWR_REGULATOR (Regulator));
  assert_param (IS_PWR_STOP_ENTRY (STOPEntry));
  assert_param (IS_PWR_DOMAIN (Domain));

  /* Select the regulator state in Stop mode */
  MODIFY_REG (PWR->CR1, PWR_CR1_LPDS, Regulator);
 8100f6a:	4b37      	ldr	r3, [pc, #220]	; (8101048 <HAL_PWREx_EnterSTOPMode+0xec>)
 8100f6c:	681b      	ldr	r3, [r3, #0]
 8100f6e:	f023 0201 	bic.w	r2, r3, #1
 8100f72:	4935      	ldr	r1, [pc, #212]	; (8101048 <HAL_PWREx_EnterSTOPMode+0xec>)
 8100f74:	68fb      	ldr	r3, [r7, #12]
 8100f76:	4313      	orrs	r3, r2
 8100f78:	600b      	str	r3, [r1, #0]

  /* Select the domain Power Down DeepSleep */
  if (Domain == PWR_D1_DOMAIN)
 8100f7a:	687b      	ldr	r3, [r7, #4]
 8100f7c:	2b00      	cmp	r3, #0
 8100f7e:	d123      	bne.n	8100fc8 <HAL_PWREx_EnterSTOPMode+0x6c>
  {
#if defined (DUAL_CORE)
    /* Check current core */
    if (HAL_GetCurrentCPUID () != CM7_CPUID)
 8100f80:	f7ff fde2 	bl	8100b48 <HAL_GetCurrentCPUID>
 8100f84:	4603      	mov	r3, r0
 8100f86:	2b03      	cmp	r3, #3
 8100f88:	d158      	bne.n	810103c <HAL_PWREx_EnterSTOPMode+0xe0>
      return;
    }
#endif /* defined (DUAL_CORE) */

    /* Keep DSTOP mode when D1/CD domain enters Deepsleep */
    CLEAR_BIT (PWR->CPUCR, PWR_CPUCR_PDDS_D1);
 8100f8a:	4b2f      	ldr	r3, [pc, #188]	; (8101048 <HAL_PWREx_EnterSTOPMode+0xec>)
 8100f8c:	691b      	ldr	r3, [r3, #16]
 8100f8e:	4a2e      	ldr	r2, [pc, #184]	; (8101048 <HAL_PWREx_EnterSTOPMode+0xec>)
 8100f90:	f023 0301 	bic.w	r3, r3, #1
 8100f94:	6113      	str	r3, [r2, #16]

    /* Set SLEEPDEEP bit of Cortex System Control Register */
    SET_BIT (SCB->SCR, SCB_SCR_SLEEPDEEP_Msk);
 8100f96:	4b2d      	ldr	r3, [pc, #180]	; (810104c <HAL_PWREx_EnterSTOPMode+0xf0>)
 8100f98:	691b      	ldr	r3, [r3, #16]
 8100f9a:	4a2c      	ldr	r2, [pc, #176]	; (810104c <HAL_PWREx_EnterSTOPMode+0xf0>)
 8100f9c:	f043 0304 	orr.w	r3, r3, #4
 8100fa0:	6113      	str	r3, [r2, #16]
  \details Acts as a special kind of Data Memory Barrier.
           It completes when all explicit memory accesses before this instruction complete.
 */
__STATIC_FORCEINLINE void __DSB(void)
{
  __ASM volatile ("dsb 0xF":::"memory");
 8100fa2:	f3bf 8f4f 	dsb	sy
}
 8100fa6:	bf00      	nop
  __ASM volatile ("isb 0xF":::"memory");
 8100fa8:	f3bf 8f6f 	isb	sy
}
 8100fac:	bf00      	nop
    /* Ensure that all instructions are done before entering STOP mode */
    __DSB ();
    __ISB ();

    /* Select Stop mode entry */
    if (STOPEntry == PWR_STOPENTRY_WFI)
 8100fae:	7afb      	ldrb	r3, [r7, #11]
 8100fb0:	2b01      	cmp	r3, #1
 8100fb2:	d101      	bne.n	8100fb8 <HAL_PWREx_EnterSTOPMode+0x5c>
    {
      /* Request Wait For Interrupt */
      __WFI ();
 8100fb4:	bf30      	wfi
 8100fb6:	e000      	b.n	8100fba <HAL_PWREx_EnterSTOPMode+0x5e>
    }
    else
    {
      /* Request Wait For Event */
      __WFE ();
 8100fb8:	bf20      	wfe
    }

    /* Clear SLEEPDEEP bit of Cortex-Mx in the System Control Register */
    CLEAR_BIT (SCB->SCR, SCB_SCR_SLEEPDEEP_Msk);
 8100fba:	4b24      	ldr	r3, [pc, #144]	; (810104c <HAL_PWREx_EnterSTOPMode+0xf0>)
 8100fbc:	691b      	ldr	r3, [r3, #16]
 8100fbe:	4a23      	ldr	r2, [pc, #140]	; (810104c <HAL_PWREx_EnterSTOPMode+0xf0>)
 8100fc0:	f023 0304 	bic.w	r3, r3, #4
 8100fc4:	6113      	str	r3, [r2, #16]
 8100fc6:	e03c      	b.n	8101042 <HAL_PWREx_EnterSTOPMode+0xe6>
  }
#if defined (PWR_CPUCR_PDDS_D2)
  else if (Domain == PWR_D2_DOMAIN)
 8100fc8:	687b      	ldr	r3, [r7, #4]
 8100fca:	2b01      	cmp	r3, #1
 8100fcc:	d123      	bne.n	8101016 <HAL_PWREx_EnterSTOPMode+0xba>
  {
#if defined (DUAL_CORE)
    /* Check current core */
    if (HAL_GetCurrentCPUID () != CM4_CPUID)
 8100fce:	f7ff fdbb 	bl	8100b48 <HAL_GetCurrentCPUID>
 8100fd2:	4603      	mov	r3, r0
 8100fd4:	2b01      	cmp	r3, #1
 8100fd6:	d133      	bne.n	8101040 <HAL_PWREx_EnterSTOPMode+0xe4>
      */
      return;
    }

    /* Keep DSTOP mode when D2 domain enters Deepsleep */
    CLEAR_BIT (PWR->CPU2CR, PWR_CPU2CR_PDDS_D2);
 8100fd8:	4b1b      	ldr	r3, [pc, #108]	; (8101048 <HAL_PWREx_EnterSTOPMode+0xec>)
 8100fda:	695b      	ldr	r3, [r3, #20]
 8100fdc:	4a1a      	ldr	r2, [pc, #104]	; (8101048 <HAL_PWREx_EnterSTOPMode+0xec>)
 8100fde:	f023 0302 	bic.w	r3, r3, #2
 8100fe2:	6153      	str	r3, [r2, #20]

    /* Set SLEEPDEEP bit of Cortex System Control Register */
    SET_BIT (SCB->SCR, SCB_SCR_SLEEPDEEP_Msk);
 8100fe4:	4b19      	ldr	r3, [pc, #100]	; (810104c <HAL_PWREx_EnterSTOPMode+0xf0>)
 8100fe6:	691b      	ldr	r3, [r3, #16]
 8100fe8:	4a18      	ldr	r2, [pc, #96]	; (810104c <HAL_PWREx_EnterSTOPMode+0xf0>)
 8100fea:	f043 0304 	orr.w	r3, r3, #4
 8100fee:	6113      	str	r3, [r2, #16]
  __ASM volatile ("dsb 0xF":::"memory");
 8100ff0:	f3bf 8f4f 	dsb	sy
}
 8100ff4:	bf00      	nop
  __ASM volatile ("isb 0xF":::"memory");
 8100ff6:	f3bf 8f6f 	isb	sy
}
 8100ffa:	bf00      	nop
    /* Ensure that all instructions are done before entering STOP mode */
    __DSB ();
    __ISB ();

    /* Select Stop mode entry */
    if (STOPEntry == PWR_STOPENTRY_WFI)
 8100ffc:	7afb      	ldrb	r3, [r7, #11]
 8100ffe:	2b01      	cmp	r3, #1
 8101000:	d101      	bne.n	8101006 <HAL_PWREx_EnterSTOPMode+0xaa>
    {
      /* Request Wait For Interrupt */
      __WFI ();
 8101002:	bf30      	wfi
 8101004:	e000      	b.n	8101008 <HAL_PWREx_EnterSTOPMode+0xac>
    }
    else
    {
      /* Request Wait For Event */
      __WFE ();
 8101006:	bf20      	wfe
    }

    /* Clear SLEEPDEEP bit of Cortex-Mx in the System Control Register */
    CLEAR_BIT (SCB->SCR, SCB_SCR_SLEEPDEEP_Msk);
 8101008:	4b10      	ldr	r3, [pc, #64]	; (810104c <HAL_PWREx_EnterSTOPMode+0xf0>)
 810100a:	691b      	ldr	r3, [r3, #16]
 810100c:	4a0f      	ldr	r2, [pc, #60]	; (810104c <HAL_PWREx_EnterSTOPMode+0xf0>)
 810100e:	f023 0304 	bic.w	r3, r3, #4
 8101012:	6113      	str	r3, [r2, #16]
 8101014:	e015      	b.n	8101042 <HAL_PWREx_EnterSTOPMode+0xe6>
#endif /* defined (PWR_CPUCR_PDDS_D2) */
  else
  {
#if defined (DUAL_CORE)
    /* Check current core */
    if (HAL_GetCurrentCPUID () == CM7_CPUID)
 8101016:	f7ff fd97 	bl	8100b48 <HAL_GetCurrentCPUID>
 810101a:	4603      	mov	r3, r0
 810101c:	2b03      	cmp	r3, #3
 810101e:	d106      	bne.n	810102e <HAL_PWREx_EnterSTOPMode+0xd2>
    {
      /* Keep DSTOP mode when D3 domain enters Deepsleep */
      CLEAR_BIT (PWR->CPUCR, PWR_CPUCR_PDDS_D3);
 8101020:	4b09      	ldr	r3, [pc, #36]	; (8101048 <HAL_PWREx_EnterSTOPMode+0xec>)
 8101022:	691b      	ldr	r3, [r3, #16]
 8101024:	4a08      	ldr	r2, [pc, #32]	; (8101048 <HAL_PWREx_EnterSTOPMode+0xec>)
 8101026:	f023 0304 	bic.w	r3, r3, #4
 810102a:	6113      	str	r3, [r2, #16]
 810102c:	e009      	b.n	8101042 <HAL_PWREx_EnterSTOPMode+0xe6>
    }
    else
    {
      /* Keep DSTOP mode when D3 domain enters Deepsleep */
      CLEAR_BIT (PWR->CPU2CR, PWR_CPU2CR_PDDS_D3);
 810102e:	4b06      	ldr	r3, [pc, #24]	; (8101048 <HAL_PWREx_EnterSTOPMode+0xec>)
 8101030:	695b      	ldr	r3, [r3, #20]
 8101032:	4a05      	ldr	r2, [pc, #20]	; (8101048 <HAL_PWREx_EnterSTOPMode+0xec>)
 8101034:	f023 0304 	bic.w	r3, r3, #4
 8101038:	6153      	str	r3, [r2, #20]
 810103a:	e002      	b.n	8101042 <HAL_PWREx_EnterSTOPMode+0xe6>
      return;
 810103c:	bf00      	nop
 810103e:	e000      	b.n	8101042 <HAL_PWREx_EnterSTOPMode+0xe6>
      return;
 8101040:	bf00      	nop
#else
    /* Keep DSTOP mode when D3/SRD domain enters Deepsleep */
    CLEAR_BIT (PWR->CPUCR, PWR_CPUCR_PDDS_D3);
#endif  /* defined (DUAL_CORE) */
  }
}
 8101042:	3710      	adds	r7, #16
 8101044:	46bd      	mov	sp, r7
 8101046:	bd80      	pop	{r7, pc}
 8101048:	58024800 	.word	0x58024800
 810104c:	e000ed00 	.word	0xe000ed00

08101050 <HAL_PWREx_ClearPendingEvent>:
  *         enter low power mode using Wait For Event request.
  * @note   Cortex-M7 must be in CRUN mode when calling this API by Cortex-M4.
  * @retval None.
  */
void HAL_PWREx_ClearPendingEvent (void)
{
 8101050:	b580      	push	{r7, lr}
 8101052:	af00      	add	r7, sp, #0
#if defined (DUAL_CORE)
  /* Check the current Core */
  if (HAL_GetCurrentCPUID () == CM7_CPUID)
 8101054:	f7ff fd78 	bl	8100b48 <HAL_GetCurrentCPUID>
 8101058:	4603      	mov	r3, r0
 810105a:	2b03      	cmp	r3, #3
 810105c:	d101      	bne.n	8101062 <HAL_PWREx_ClearPendingEvent+0x12>
  {
    __WFE ();
 810105e:	bf20      	wfe
    __WFE ();
  }
#else
  __WFE ();
#endif /* defined (DUAL_CORE) */
}
 8101060:	e001      	b.n	8101066 <HAL_PWREx_ClearPendingEvent+0x16>
    __SEV ();
 8101062:	bf40      	sev
    __WFE ();
 8101064:	bf20      	wfe
}
 8101066:	bf00      	nop
 8101068:	bd80      	pop	{r7, pc}
	...

0810106c <HAL_RCC_GetSysClockFreq>:
  *
  *
  * @retval SYSCLK frequency
  */
uint32_t HAL_RCC_GetSysClockFreq(void)
{
 810106c:	b480      	push	{r7}
 810106e:	b089      	sub	sp, #36	; 0x24
 8101070:	af00      	add	r7, sp, #0
  float_t fracn1, pllvco;
  uint32_t sysclockfreq;

  /* Get SYSCLK source -------------------------------------------------------*/

  switch (RCC->CFGR & RCC_CFGR_SWS)
 8101072:	4bb3      	ldr	r3, [pc, #716]	; (8101340 <HAL_RCC_GetSysClockFreq+0x2d4>)
 8101074:	691b      	ldr	r3, [r3, #16]
 8101076:	f003 0338 	and.w	r3, r3, #56	; 0x38
 810107a:	2b18      	cmp	r3, #24
 810107c:	f200 8155 	bhi.w	810132a <HAL_RCC_GetSysClockFreq+0x2be>
 8101080:	a201      	add	r2, pc, #4	; (adr r2, 8101088 <HAL_RCC_GetSysClockFreq+0x1c>)
 8101082:	f852 f023 	ldr.w	pc, [r2, r3, lsl #2]
 8101086:	bf00      	nop
 8101088:	081010ed 	.word	0x081010ed
 810108c:	0810132b 	.word	0x0810132b
 8101090:	0810132b 	.word	0x0810132b
 8101094:	0810132b 	.word	0x0810132b
 8101098:	0810132b 	.word	0x0810132b
 810109c:	0810132b 	.word	0x0810132b
 81010a0:	0810132b 	.word	0x0810132b
 81010a4:	0810132b 	.word	0x0810132b
 81010a8:	08101113 	.word	0x08101113
 81010ac:	0810132b 	.word	0x0810132b
 81010b0:	0810132b 	.word	0x0810132b
 81010b4:	0810132b 	.word	0x0810132b
 81010b8:	0810132b 	.word	0x0810132b
 81010bc:	0810132b 	.word	0x0810132b
 81010c0:	0810132b 	.word	0x0810132b
 81010c4:	0810132b 	.word	0x0810132b
 81010c8:	08101119 	.word	0x08101119
 81010cc:	0810132b 	.word	0x0810132b
 81010d0:	0810132b 	.word	0x0810132b
 81010d4:	0810132b 	.word	0x0810132b
 81010d8:	0810132b 	.word	0x0810132b
 81010dc:	0810132b 	.word	0x0810132b
 81010e0:	0810132b 	.word	0x0810132b
 81010e4:	0810132b 	.word	0x0810132b
 81010e8:	0810111f 	.word	0x0810111f
  {
  case RCC_CFGR_SWS_HSI:  /* HSI used as system clock source */

   if (__HAL_RCC_GET_FLAG(RCC_FLAG_HSIDIV) != 0U)
 81010ec:	4b94      	ldr	r3, [pc, #592]	; (8101340 <HAL_RCC_GetSysClockFreq+0x2d4>)
 81010ee:	681b      	ldr	r3, [r3, #0]
 81010f0:	f003 0320 	and.w	r3, r3, #32
 81010f4:	2b00      	cmp	r3, #0
 81010f6:	d009      	beq.n	810110c <HAL_RCC_GetSysClockFreq+0xa0>
      {
        sysclockfreq = (uint32_t) (HSI_VALUE >> (__HAL_RCC_GET_HSI_DIVIDER()>> 3));
 81010f8:	4b91      	ldr	r3, [pc, #580]	; (8101340 <HAL_RCC_GetSysClockFreq+0x2d4>)
 81010fa:	681b      	ldr	r3, [r3, #0]
 81010fc:	08db      	lsrs	r3, r3, #3
 81010fe:	f003 0303 	and.w	r3, r3, #3
 8101102:	4a90      	ldr	r2, [pc, #576]	; (8101344 <HAL_RCC_GetSysClockFreq+0x2d8>)
 8101104:	fa22 f303 	lsr.w	r3, r2, r3
 8101108:	61bb      	str	r3, [r7, #24]
      else
      {
        sysclockfreq = (uint32_t) HSI_VALUE;
      }

    break;
 810110a:	e111      	b.n	8101330 <HAL_RCC_GetSysClockFreq+0x2c4>
        sysclockfreq = (uint32_t) HSI_VALUE;
 810110c:	4b8d      	ldr	r3, [pc, #564]	; (8101344 <HAL_RCC_GetSysClockFreq+0x2d8>)
 810110e:	61bb      	str	r3, [r7, #24]
    break;
 8101110:	e10e      	b.n	8101330 <HAL_RCC_GetSysClockFreq+0x2c4>

  case RCC_CFGR_SWS_CSI:  /* CSI used as system clock  source */
    sysclockfreq = CSI_VALUE;
 8101112:	4b8d      	ldr	r3, [pc, #564]	; (8101348 <HAL_RCC_GetSysClockFreq+0x2dc>)
 8101114:	61bb      	str	r3, [r7, #24]
    break;
 8101116:	e10b      	b.n	8101330 <HAL_RCC_GetSysClockFreq+0x2c4>

  case RCC_CFGR_SWS_HSE:  /* HSE used as system clock  source */
    sysclockfreq = HSE_VALUE;
 8101118:	4b8c      	ldr	r3, [pc, #560]	; (810134c <HAL_RCC_GetSysClockFreq+0x2e0>)
 810111a:	61bb      	str	r3, [r7, #24]
    break;
 810111c:	e108      	b.n	8101330 <HAL_RCC_GetSysClockFreq+0x2c4>
  case RCC_CFGR_SWS_PLL1:  /* PLL1 used as system clock  source */

    /* PLL_VCO = (HSE_VALUE or HSI_VALUE or CSI_VALUE/ PLLM) * PLLN
    SYSCLK = PLL_VCO / PLLR
    */
    pllsource = (RCC->PLLCKSELR & RCC_PLLCKSELR_PLLSRC);
 810111e:	4b88      	ldr	r3, [pc, #544]	; (8101340 <HAL_RCC_GetSysClockFreq+0x2d4>)
 8101120:	6a9b      	ldr	r3, [r3, #40]	; 0x28
 8101122:	f003 0303 	and.w	r3, r3, #3
 8101126:	617b      	str	r3, [r7, #20]
    pllm = ((RCC->PLLCKSELR & RCC_PLLCKSELR_DIVM1)>> 4)  ;
 8101128:	4b85      	ldr	r3, [pc, #532]	; (8101340 <HAL_RCC_GetSysClockFreq+0x2d4>)
 810112a:	6a9b      	ldr	r3, [r3, #40]	; 0x28
 810112c:	091b      	lsrs	r3, r3, #4
 810112e:	f003 033f 	and.w	r3, r3, #63	; 0x3f
 8101132:	613b      	str	r3, [r7, #16]
    pllfracen = ((RCC-> PLLCFGR & RCC_PLLCFGR_PLL1FRACEN)>>RCC_PLLCFGR_PLL1FRACEN_Pos);
 8101134:	4b82      	ldr	r3, [pc, #520]	; (8101340 <HAL_RCC_GetSysClockFreq+0x2d4>)
 8101136:	6adb      	ldr	r3, [r3, #44]	; 0x2c
 8101138:	f003 0301 	and.w	r3, r3, #1
 810113c:	60fb      	str	r3, [r7, #12]
    fracn1 = (float_t)(uint32_t)(pllfracen* ((RCC->PLL1FRACR & RCC_PLL1FRACR_FRACN1)>> 3));
 810113e:	4b80      	ldr	r3, [pc, #512]	; (8101340 <HAL_RCC_GetSysClockFreq+0x2d4>)
 8101140:	6b5b      	ldr	r3, [r3, #52]	; 0x34
 8101142:	08db      	lsrs	r3, r3, #3
 8101144:	f3c3 030c 	ubfx	r3, r3, #0, #13
 8101148:	68fa      	ldr	r2, [r7, #12]
 810114a:	fb02 f303 	mul.w	r3, r2, r3
 810114e:	ee07 3a90 	vmov	s15, r3
 8101152:	eef8 7a67 	vcvt.f32.u32	s15, s15
 8101156:	edc7 7a02 	vstr	s15, [r7, #8]

    if (pllm != 0U)
 810115a:	693b      	ldr	r3, [r7, #16]
 810115c:	2b00      	cmp	r3, #0
 810115e:	f000 80e1 	beq.w	8101324 <HAL_RCC_GetSysClockFreq+0x2b8>
 8101162:	697b      	ldr	r3, [r7, #20]
 8101164:	2b02      	cmp	r3, #2
 8101166:	f000 8083 	beq.w	8101270 <HAL_RCC_GetSysClockFreq+0x204>
 810116a:	697b      	ldr	r3, [r7, #20]
 810116c:	2b02      	cmp	r3, #2
 810116e:	f200 80a1 	bhi.w	81012b4 <HAL_RCC_GetSysClockFreq+0x248>
 8101172:	697b      	ldr	r3, [r7, #20]
 8101174:	2b00      	cmp	r3, #0
 8101176:	d003      	beq.n	8101180 <HAL_RCC_GetSysClockFreq+0x114>
 8101178:	697b      	ldr	r3, [r7, #20]
 810117a:	2b01      	cmp	r3, #1
 810117c:	d056      	beq.n	810122c <HAL_RCC_GetSysClockFreq+0x1c0>
 810117e:	e099      	b.n	81012b4 <HAL_RCC_GetSysClockFreq+0x248>
    {
      switch (pllsource)
      {
      case RCC_PLLSOURCE_HSI:  /* HSI used as PLL clock source */

       if (__HAL_RCC_GET_FLAG(RCC_FLAG_HSIDIV) != 0U)
 8101180:	4b6f      	ldr	r3, [pc, #444]	; (8101340 <HAL_RCC_GetSysClockFreq+0x2d4>)
 8101182:	681b      	ldr	r3, [r3, #0]
 8101184:	f003 0320 	and.w	r3, r3, #32
 8101188:	2b00      	cmp	r3, #0
 810118a:	d02d      	beq.n	81011e8 <HAL_RCC_GetSysClockFreq+0x17c>
        {
          hsivalue= (HSI_VALUE >> (__HAL_RCC_GET_HSI_DIVIDER()>> 3));
 810118c:	4b6c      	ldr	r3, [pc, #432]	; (8101340 <HAL_RCC_GetSysClockFreq+0x2d4>)
 810118e:	681b      	ldr	r3, [r3, #0]
 8101190:	08db      	lsrs	r3, r3, #3
 8101192:	f003 0303 	and.w	r3, r3, #3
 8101196:	4a6b      	ldr	r2, [pc, #428]	; (8101344 <HAL_RCC_GetSysClockFreq+0x2d8>)
 8101198:	fa22 f303 	lsr.w	r3, r2, r3
 810119c:	607b      	str	r3, [r7, #4]
          pllvco = ( (float_t)hsivalue / (float_t)pllm) * ((float_t)(uint32_t)(RCC->PLL1DIVR & RCC_PLL1DIVR_N1) + (fracn1/(float_t)0x2000) +(float_t)1 );
 810119e:	687b      	ldr	r3, [r7, #4]
 81011a0:	ee07 3a90 	vmov	s15, r3
 81011a4:	eef8 6a67 	vcvt.f32.u32	s13, s15
 81011a8:	693b      	ldr	r3, [r7, #16]
 81011aa:	ee07 3a90 	vmov	s15, r3
 81011ae:	eef8 7a67 	vcvt.f32.u32	s15, s15
 81011b2:	ee86 7aa7 	vdiv.f32	s14, s13, s15
 81011b6:	4b62      	ldr	r3, [pc, #392]	; (8101340 <HAL_RCC_GetSysClockFreq+0x2d4>)
 81011b8:	6b1b      	ldr	r3, [r3, #48]	; 0x30
 81011ba:	f3c3 0308 	ubfx	r3, r3, #0, #9
 81011be:	ee07 3a90 	vmov	s15, r3
 81011c2:	eef8 6a67 	vcvt.f32.u32	s13, s15
 81011c6:	ed97 6a02 	vldr	s12, [r7, #8]
 81011ca:	eddf 5a61 	vldr	s11, [pc, #388]	; 8101350 <HAL_RCC_GetSysClockFreq+0x2e4>
 81011ce:	eec6 7a25 	vdiv.f32	s15, s12, s11
 81011d2:	ee76 7aa7 	vadd.f32	s15, s13, s15
 81011d6:	eef7 6a00 	vmov.f32	s13, #112	; 0x3f800000  1.0
 81011da:	ee77 7aa6 	vadd.f32	s15, s15, s13
 81011de:	ee67 7a27 	vmul.f32	s15, s14, s15
 81011e2:	edc7 7a07 	vstr	s15, [r7, #28]
        }
        else
        {
          pllvco = ((float_t)HSI_VALUE / (float_t)pllm) * ((float_t)(uint32_t)(RCC->PLL1DIVR & RCC_PLL1DIVR_N1) + (fracn1/(float_t)0x2000) +(float_t)1 );
        }
        break;
 81011e6:	e087      	b.n	81012f8 <HAL_RCC_GetSysClockFreq+0x28c>
          pllvco = ((float_t)HSI_VALUE / (float_t)pllm) * ((float_t)(uint32_t)(RCC->PLL1DIVR & RCC_PLL1DIVR_N1) + (fracn1/(float_t)0x2000) +(float_t)1 );
 81011e8:	693b      	ldr	r3, [r7, #16]
 81011ea:	ee07 3a90 	vmov	s15, r3
 81011ee:	eef8 7a67 	vcvt.f32.u32	s15, s15
 81011f2:	eddf 6a58 	vldr	s13, [pc, #352]	; 8101354 <HAL_RCC_GetSysClockFreq+0x2e8>
 81011f6:	ee86 7aa7 	vdiv.f32	s14, s13, s15
 81011fa:	4b51      	ldr	r3, [pc, #324]	; (8101340 <HAL_RCC_GetSysClockFreq+0x2d4>)
 81011fc:	6b1b      	ldr	r3, [r3, #48]	; 0x30
 81011fe:	f3c3 0308 	ubfx	r3, r3, #0, #9
 8101202:	ee07 3a90 	vmov	s15, r3
 8101206:	eef8 6a67 	vcvt.f32.u32	s13, s15
 810120a:	ed97 6a02 	vldr	s12, [r7, #8]
 810120e:	eddf 5a50 	vldr	s11, [pc, #320]	; 8101350 <HAL_RCC_GetSysClockFreq+0x2e4>
 8101212:	eec6 7a25 	vdiv.f32	s15, s12, s11
 8101216:	ee76 7aa7 	vadd.f32	s15, s13, s15
 810121a:	eef7 6a00 	vmov.f32	s13, #112	; 0x3f800000  1.0
 810121e:	ee77 7aa6 	vadd.f32	s15, s15, s13
 8101222:	ee67 7a27 	vmul.f32	s15, s14, s15
 8101226:	edc7 7a07 	vstr	s15, [r7, #28]
        break;
 810122a:	e065      	b.n	81012f8 <HAL_RCC_GetSysClockFreq+0x28c>

      case RCC_PLLSOURCE_CSI:  /* CSI used as PLL clock source */
        pllvco = ((float_t)CSI_VALUE / (float_t)pllm) * ((float_t)(uint32_t)(RCC->PLL1DIVR & RCC_PLL1DIVR_N1) + (fracn1/(float_t)0x2000) +(float_t)1 );
 810122c:	693b      	ldr	r3, [r7, #16]
 810122e:	ee07 3a90 	vmov	s15, r3
 8101232:	eef8 7a67 	vcvt.f32.u32	s15, s15
 8101236:	eddf 6a48 	vldr	s13, [pc, #288]	; 8101358 <HAL_RCC_GetSysClockFreq+0x2ec>
 810123a:	ee86 7aa7 	vdiv.f32	s14, s13, s15
 810123e:	4b40      	ldr	r3, [pc, #256]	; (8101340 <HAL_RCC_GetSysClockFreq+0x2d4>)
 8101240:	6b1b      	ldr	r3, [r3, #48]	; 0x30
 8101242:	f3c3 0308 	ubfx	r3, r3, #0, #9
 8101246:	ee07 3a90 	vmov	s15, r3
 810124a:	eef8 6a67 	vcvt.f32.u32	s13, s15
 810124e:	ed97 6a02 	vldr	s12, [r7, #8]
 8101252:	eddf 5a3f 	vldr	s11, [pc, #252]	; 8101350 <HAL_RCC_GetSysClockFreq+0x2e4>
 8101256:	eec6 7a25 	vdiv.f32	s15, s12, s11
 810125a:	ee76 7aa7 	vadd.f32	s15, s13, s15
 810125e:	eef7 6a00 	vmov.f32	s13, #112	; 0x3f800000  1.0
 8101262:	ee77 7aa6 	vadd.f32	s15, s15, s13
 8101266:	ee67 7a27 	vmul.f32	s15, s14, s15
 810126a:	edc7 7a07 	vstr	s15, [r7, #28]
        break;
 810126e:	e043      	b.n	81012f8 <HAL_RCC_GetSysClockFreq+0x28c>

      case RCC_PLLSOURCE_HSE:  /* HSE used as PLL clock source */
        pllvco = ((float_t)HSE_VALUE / (float_t)pllm) * ((float_t)(uint32_t)(RCC->PLL1DIVR & RCC_PLL1DIVR_N1) + (fracn1/(float_t)0x2000) +(float_t)1 );
 8101270:	693b      	ldr	r3, [r7, #16]
 8101272:	ee07 3a90 	vmov	s15, r3
 8101276:	eef8 7a67 	vcvt.f32.u32	s15, s15
 810127a:	eddf 6a38 	vldr	s13, [pc, #224]	; 810135c <HAL_RCC_GetSysClockFreq+0x2f0>
 810127e:	ee86 7aa7 	vdiv.f32	s14, s13, s15
 8101282:	4b2f      	ldr	r3, [pc, #188]	; (8101340 <HAL_RCC_GetSysClockFreq+0x2d4>)
 8101284:	6b1b      	ldr	r3, [r3, #48]	; 0x30
 8101286:	f3c3 0308 	ubfx	r3, r3, #0, #9
 810128a:	ee07 3a90 	vmov	s15, r3
 810128e:	eef8 6a67 	vcvt.f32.u32	s13, s15
 8101292:	ed97 6a02 	vldr	s12, [r7, #8]
 8101296:	eddf 5a2e 	vldr	s11, [pc, #184]	; 8101350 <HAL_RCC_GetSysClockFreq+0x2e4>
 810129a:	eec6 7a25 	vdiv.f32	s15, s12, s11
 810129e:	ee76 7aa7 	vadd.f32	s15, s13, s15
 81012a2:	eef7 6a00 	vmov.f32	s13, #112	; 0x3f800000  1.0
 81012a6:	ee77 7aa6 	vadd.f32	s15, s15, s13
 81012aa:	ee67 7a27 	vmul.f32	s15, s14, s15
 81012ae:	edc7 7a07 	vstr	s15, [r7, #28]
        break;
 81012b2:	e021      	b.n	81012f8 <HAL_RCC_GetSysClockFreq+0x28c>

      default:
        pllvco = ((float_t)CSI_VALUE / (float_t)pllm) * ((float_t)(uint32_t)(RCC->PLL1DIVR & RCC_PLL1DIVR_N1) + (fracn1/(float_t)0x2000) +(float_t)1 );
 81012b4:	693b      	ldr	r3, [r7, #16]
 81012b6:	ee07 3a90 	vmov	s15, r3
 81012ba:	eef8 7a67 	vcvt.f32.u32	s15, s15
 81012be:	eddf 6a26 	vldr	s13, [pc, #152]	; 8101358 <HAL_RCC_GetSysClockFreq+0x2ec>
 81012c2:	ee86 7aa7 	vdiv.f32	s14, s13, s15
 81012c6:	4b1e      	ldr	r3, [pc, #120]	; (8101340 <HAL_RCC_GetSysClockFreq+0x2d4>)
 81012c8:	6b1b      	ldr	r3, [r3, #48]	; 0x30
 81012ca:	f3c3 0308 	ubfx	r3, r3, #0, #9
 81012ce:	ee07 3a90 	vmov	s15, r3
 81012d2:	eef8 6a67 	vcvt.f32.u32	s13, s15
 81012d6:	ed97 6a02 	vldr	s12, [r7, #8]
 81012da:	eddf 5a1d 	vldr	s11, [pc, #116]	; 8101350 <HAL_RCC_GetSysClockFreq+0x2e4>
 81012de:	eec6 7a25 	vdiv.f32	s15, s12, s11
 81012e2:	ee76 7aa7 	vadd.f32	s15, s13, s15
 81012e6:	eef7 6a00 	vmov.f32	s13, #112	; 0x3f800000  1.0
 81012ea:	ee77 7aa6 	vadd.f32	s15, s15, s13
 81012ee:	ee67 7a27 	vmul.f32	s15, s14, s15
 81012f2:	edc7 7a07 	vstr	s15, [r7, #28]
        break;
 81012f6:	bf00      	nop
      }
      pllp = (((RCC->PLL1DIVR & RCC_PLL1DIVR_P1) >>9) + 1U ) ;
 81012f8:	4b11      	ldr	r3, [pc, #68]	; (8101340 <HAL_RCC_GetSysClockFreq+0x2d4>)
 81012fa:	6b1b      	ldr	r3, [r3, #48]	; 0x30
 81012fc:	0a5b      	lsrs	r3, r3, #9
 81012fe:	f003 037f 	and.w	r3, r3, #127	; 0x7f
 8101302:	3301      	adds	r3, #1
 8101304:	603b      	str	r3, [r7, #0]
      sysclockfreq =  (uint32_t)(float_t)(pllvco/(float_t)pllp);
 8101306:	683b      	ldr	r3, [r7, #0]
 8101308:	ee07 3a90 	vmov	s15, r3
 810130c:	eeb8 7a67 	vcvt.f32.u32	s14, s15
 8101310:	edd7 6a07 	vldr	s13, [r7, #28]
 8101314:	eec6 7a87 	vdiv.f32	s15, s13, s14
 8101318:	eefc 7ae7 	vcvt.u32.f32	s15, s15
 810131c:	ee17 3a90 	vmov	r3, s15
 8101320:	61bb      	str	r3, [r7, #24]
    }
    else
    {
      sysclockfreq = 0U;
    }
    break;
 8101322:	e005      	b.n	8101330 <HAL_RCC_GetSysClockFreq+0x2c4>
      sysclockfreq = 0U;
 8101324:	2300      	movs	r3, #0
 8101326:	61bb      	str	r3, [r7, #24]
    break;
 8101328:	e002      	b.n	8101330 <HAL_RCC_GetSysClockFreq+0x2c4>

  default:
    sysclockfreq = CSI_VALUE;
 810132a:	4b07      	ldr	r3, [pc, #28]	; (8101348 <HAL_RCC_GetSysClockFreq+0x2dc>)
 810132c:	61bb      	str	r3, [r7, #24]
    break;
 810132e:	bf00      	nop
  }

  return sysclockfreq;
 8101330:	69bb      	ldr	r3, [r7, #24]
}
 8101332:	4618      	mov	r0, r3
 8101334:	3724      	adds	r7, #36	; 0x24
 8101336:	46bd      	mov	sp, r7
 8101338:	f85d 7b04 	ldr.w	r7, [sp], #4
 810133c:	4770      	bx	lr
 810133e:	bf00      	nop
 8101340:	58024400 	.word	0x58024400
 8101344:	03d09000 	.word	0x03d09000
 8101348:	003d0900 	.word	0x003d0900
 810134c:	017d7840 	.word	0x017d7840
 8101350:	46000000 	.word	0x46000000
 8101354:	4c742400 	.word	0x4c742400
 8101358:	4a742400 	.word	0x4a742400
 810135c:	4bbebc20 	.word	0x4bbebc20

08101360 <MX_FileX_Init>:
  * @brief  Application FileX Initialization.
  * @param memory_ptr: memory pointer
  * @retval int
  */
UINT MX_FileX_Init(VOID *memory_ptr)
{
 8101360:	b480      	push	{r7}
 8101362:	b085      	sub	sp, #20
 8101364:	af00      	add	r7, sp, #0
 8101366:	6078      	str	r0, [r7, #4]
  UINT ret = FX_SUCCESS;
 8101368:	2300      	movs	r3, #0
 810136a:	60fb      	str	r3, [r7, #12]
  TX_BYTE_POOL *byte_pool = (TX_BYTE_POOL*)memory_ptr;
 810136c:	687b      	ldr	r3, [r7, #4]
 810136e:	60bb      	str	r3, [r7, #8]
  /* USER CODE END MX_FileX_MEM_POOL */

  /* USER CODE BEGIN MX_FileX_Init */

  /* USER CODE END MX_FileX_Init */
  return ret;
 8101370:	68fb      	ldr	r3, [r7, #12]
}
 8101372:	4618      	mov	r0, r3
 8101374:	3714      	adds	r7, #20
 8101376:	46bd      	mov	sp, r7
 8101378:	f85d 7b04 	ldr.w	r7, [sp], #4
 810137c:	4770      	bx	lr
	...

08101380 <_tx_byte_allocate>:
/*  09-30-2020     Yuxin Zhou               Modified comment(s),          */
/*                                            resulting in version 6.1    */
/*                                                                        */
/**************************************************************************/
UINT  _tx_byte_allocate(TX_BYTE_POOL *pool_ptr, VOID **memory_ptr, ULONG memory_size,  ULONG wait_option)
{
 8101380:	b580      	push	{r7, lr}
 8101382:	b096      	sub	sp, #88	; 0x58
 8101384:	af00      	add	r7, sp, #0
 8101386:	60f8      	str	r0, [r7, #12]
 8101388:	60b9      	str	r1, [r7, #8]
 810138a:	607a      	str	r2, [r7, #4]
 810138c:	603b      	str	r3, [r7, #0]
#endif


    /* Round the memory size up to the next size that is evenly divisible by
       an ALIGN_TYPE (this is typically a 32-bit ULONG).  This guarantees proper alignment.  */
    memory_size = (((memory_size + (sizeof(ALIGN_TYPE)))-((ALIGN_TYPE) 1))/(sizeof(ALIGN_TYPE))) * (sizeof(ALIGN_TYPE));
 810138e:	687b      	ldr	r3, [r7, #4]
 8101390:	3303      	adds	r3, #3
 8101392:	f023 0303 	bic.w	r3, r3, #3
 8101396:	607b      	str	r3, [r7, #4]
{
unsigned int posture;
#ifdef TX_PORT_USE_BASEPRI
    __asm__ volatile ("MRS  %0, BASEPRI ": "=r" (posture));
#else
    __asm__ volatile ("MRS  %0, PRIMASK ": "=r" (posture));
 8101398:	f3ef 8310 	mrs	r3, PRIMASK
 810139c:	637b      	str	r3, [r7, #52]	; 0x34
#endif
    return(posture);
 810139e:	6b7b      	ldr	r3, [r7, #52]	; 0x34

__attribute__( ( always_inline ) ) static inline unsigned int __disable_interrupts(void)
{
unsigned int int_posture;

    int_posture = __get_interrupt_posture();
 81013a0:	633b      	str	r3, [r7, #48]	; 0x30

#ifdef TX_PORT_USE_BASEPRI
    __set_basepri_value(TX_PORT_BASEPRI);
#else
    __asm__ volatile ("CPSID i" : : : "memory");
 81013a2:	b672      	cpsid	i
#endif
    return(int_posture);
 81013a4:	6b3b      	ldr	r3, [r7, #48]	; 0x30

    /* Disable interrupts.  */
    TX_DISABLE
 81013a6:	657b      	str	r3, [r7, #84]	; 0x54

    /* Pickup thread pointer.  */
    TX_THREAD_GET_CURRENT(thread_ptr)
 81013a8:	4b55      	ldr	r3, [pc, #340]	; (8101500 <_tx_byte_allocate+0x180>)
 81013aa:	681b      	ldr	r3, [r3, #0]
 81013ac:	64bb      	str	r3, [r7, #72]	; 0x48
    lower_tbu =  *((ULONG *) (log_entry_ptr + TX_EL_EVENT_TIME_LOWER_OFFSET));
    upper_tbu =  *((ULONG *) (log_entry_ptr + TX_EL_EVENT_TIME_UPPER_OFFSET));
#endif

    /* Set the search finished flag to false.  */
    finished =  TX_FALSE;
 81013ae:	2300      	movs	r3, #0
 81013b0:	64fb      	str	r3, [r7, #76]	; 0x4c
    /* Loop to handle cases where the owner of the pool changed.  */
    do
    {

        /* Indicate that this thread is the current owner.  */
        pool_ptr -> tx_byte_pool_owner =  thread_ptr;
 81013b2:	68fb      	ldr	r3, [r7, #12]
 81013b4:	6cba      	ldr	r2, [r7, #72]	; 0x48
 81013b6:	621a      	str	r2, [r3, #32]
 81013b8:	6d7b      	ldr	r3, [r7, #84]	; 0x54
 81013ba:	627b      	str	r3, [r7, #36]	; 0x24
    __asm__ volatile ("MSR  PRIMASK,%0": : "r" (int_posture): "memory");
 81013bc:	6a7b      	ldr	r3, [r7, #36]	; 0x24
 81013be:	f383 8810 	msr	PRIMASK, r3
}
 81013c2:	bf00      	nop
        /* Restore interrupts.  */
        TX_RESTORE

        /* At this point, the executing thread owns the pool and can perform a search
           for free memory.  */
        work_ptr =  _tx_byte_pool_search(pool_ptr, memory_size);
 81013c4:	6879      	ldr	r1, [r7, #4]
 81013c6:	68f8      	ldr	r0, [r7, #12]
 81013c8:	f000 f9b2 	bl	8101730 <_tx_byte_pool_search>
 81013cc:	6478      	str	r0, [r7, #68]	; 0x44
    __asm__ volatile ("MRS  %0, PRIMASK ": "=r" (posture));
 81013ce:	f3ef 8310 	mrs	r3, PRIMASK
 81013d2:	62fb      	str	r3, [r7, #44]	; 0x2c
    return(posture);
 81013d4:	6afb      	ldr	r3, [r7, #44]	; 0x2c
    int_posture = __get_interrupt_posture();
 81013d6:	62bb      	str	r3, [r7, #40]	; 0x28
    __asm__ volatile ("CPSID i" : : : "memory");
 81013d8:	b672      	cpsid	i
    return(int_posture);
 81013da:	6abb      	ldr	r3, [r7, #40]	; 0x28

        /* Optional processing extension.  */
        TX_BYTE_ALLOCATE_EXTENSION

        /* Lockout interrupts.  */
        TX_DISABLE
 81013dc:	657b      	str	r3, [r7, #84]	; 0x54

        /* Determine if we are finished.  */
        if (work_ptr != TX_NULL)
 81013de:	6c7b      	ldr	r3, [r7, #68]	; 0x44
 81013e0:	2b00      	cmp	r3, #0
 81013e2:	d002      	beq.n	81013ea <_tx_byte_allocate+0x6a>
        {
        
            /* Yes, we have found a block the search is finished.  */
            finished =  TX_TRUE;
 81013e4:	2301      	movs	r3, #1
 81013e6:	64fb      	str	r3, [r7, #76]	; 0x4c
 81013e8:	e006      	b.n	81013f8 <_tx_byte_allocate+0x78>
        }
        else
        {
        
            /* No block was found, does this thread still own the pool?  */
            if (pool_ptr -> tx_byte_pool_owner == thread_ptr)
 81013ea:	68fb      	ldr	r3, [r7, #12]
 81013ec:	6a1b      	ldr	r3, [r3, #32]
 81013ee:	6cba      	ldr	r2, [r7, #72]	; 0x48
 81013f0:	429a      	cmp	r2, r3
 81013f2:	d101      	bne.n	81013f8 <_tx_byte_allocate+0x78>
            {
            
                /* Yes, then we have looked through the entire pool and haven't found the memory.  */
                finished =  TX_TRUE;
 81013f4:	2301      	movs	r3, #1
 81013f6:	64fb      	str	r3, [r7, #76]	; 0x4c
            }
        }

    } while (finished == TX_FALSE);
 81013f8:	6cfb      	ldr	r3, [r7, #76]	; 0x4c
 81013fa:	2b00      	cmp	r3, #0
 81013fc:	d0d9      	beq.n	81013b2 <_tx_byte_allocate+0x32>

    /* Copy the pointer into the return destination.  */
    *memory_ptr =  (VOID *) work_ptr;
 81013fe:	68bb      	ldr	r3, [r7, #8]
 8101400:	6c7a      	ldr	r2, [r7, #68]	; 0x44
 8101402:	601a      	str	r2, [r3, #0]

    /* Determine if memory was found.  */
    if (work_ptr != TX_NULL)
 8101404:	6c7b      	ldr	r3, [r7, #68]	; 0x44
 8101406:	2b00      	cmp	r3, #0
 8101408:	d008      	beq.n	810141c <_tx_byte_allocate+0x9c>
 810140a:	6d7b      	ldr	r3, [r7, #84]	; 0x54
 810140c:	623b      	str	r3, [r7, #32]
    __asm__ volatile ("MSR  PRIMASK,%0": : "r" (int_posture): "memory");
 810140e:	6a3b      	ldr	r3, [r7, #32]
 8101410:	f383 8810 	msr	PRIMASK, r3
}
 8101414:	bf00      	nop

        /* Restore interrupts.  */
        TX_RESTORE
        
        /* Set the status to success.  */
        status =  TX_SUCCESS;
 8101416:	2300      	movs	r3, #0
 8101418:	653b      	str	r3, [r7, #80]	; 0x50
 810141a:	e06c      	b.n	81014f6 <_tx_byte_allocate+0x176>
    {

        /* No memory of sufficient size was found...  */

        /* Determine if the request specifies suspension.  */
        if (wait_option != TX_NO_WAIT)
 810141c:	683b      	ldr	r3, [r7, #0]
 810141e:	2b00      	cmp	r3, #0
 8101420:	d061      	beq.n	81014e6 <_tx_byte_allocate+0x166>
        {

            /* Determine if the preempt disable flag is non-zero.  */
            if (_tx_thread_preempt_disable != ((UINT) 0))
 8101422:	4b38      	ldr	r3, [pc, #224]	; (8101504 <_tx_byte_allocate+0x184>)
 8101424:	681b      	ldr	r3, [r3, #0]
 8101426:	2b00      	cmp	r3, #0
 8101428:	d007      	beq.n	810143a <_tx_byte_allocate+0xba>
            {

                /* Suspension is not allowed if the preempt disable flag is non-zero at this point - return error completion.  */
                status =  TX_NO_MEMORY;
 810142a:	2310      	movs	r3, #16
 810142c:	653b      	str	r3, [r7, #80]	; 0x50
 810142e:	6d7b      	ldr	r3, [r7, #84]	; 0x54
 8101430:	61fb      	str	r3, [r7, #28]
    __asm__ volatile ("MSR  PRIMASK,%0": : "r" (int_posture): "memory");
 8101432:	69fb      	ldr	r3, [r7, #28]
 8101434:	f383 8810 	msr	PRIMASK, r3
}
 8101438:	e05d      	b.n	81014f6 <_tx_byte_allocate+0x176>
                /* Increment the number of suspensions on this pool.  */
                pool_ptr -> tx_byte_pool_performance_suspension_count++;
#endif

                /* Setup cleanup routine pointer.  */
                thread_ptr -> tx_thread_suspend_cleanup =  &(_tx_byte_pool_cleanup);
 810143a:	6cbb      	ldr	r3, [r7, #72]	; 0x48
 810143c:	4a32      	ldr	r2, [pc, #200]	; (8101508 <_tx_byte_allocate+0x188>)
 810143e:	669a      	str	r2, [r3, #104]	; 0x68

                /* Setup cleanup information, i.e. this pool control
                   block.  */
                thread_ptr -> tx_thread_suspend_control_block =  (VOID *) pool_ptr;
 8101440:	6cbb      	ldr	r3, [r7, #72]	; 0x48
 8101442:	68fa      	ldr	r2, [r7, #12]
 8101444:	66da      	str	r2, [r3, #108]	; 0x6c

                /* Save the return memory pointer address as well.  */
                thread_ptr -> tx_thread_additional_suspend_info =  (VOID *) memory_ptr;
 8101446:	6cbb      	ldr	r3, [r7, #72]	; 0x48
 8101448:	68ba      	ldr	r2, [r7, #8]
 810144a:	67da      	str	r2, [r3, #124]	; 0x7c

                /* Save the byte size requested.  */
                thread_ptr -> tx_thread_suspend_info =  memory_size;
 810144c:	6cbb      	ldr	r3, [r7, #72]	; 0x48
 810144e:	687a      	ldr	r2, [r7, #4]
 8101450:	679a      	str	r2, [r3, #120]	; 0x78

#ifndef TX_NOT_INTERRUPTABLE

                /* Increment the suspension sequence number, which is used to identify
                   this suspension event.  */
                thread_ptr -> tx_thread_suspension_sequence++;
 8101452:	6cbb      	ldr	r3, [r7, #72]	; 0x48
 8101454:	f8d3 30ac 	ldr.w	r3, [r3, #172]	; 0xac
 8101458:	1c5a      	adds	r2, r3, #1
 810145a:	6cbb      	ldr	r3, [r7, #72]	; 0x48
 810145c:	f8c3 20ac 	str.w	r2, [r3, #172]	; 0xac
#endif

                /* Pickup the number of suspended threads.  */
                suspended_count =  pool_ptr -> tx_byte_pool_suspended_count;
 8101460:	68fb      	ldr	r3, [r7, #12]
 8101462:	6a9b      	ldr	r3, [r3, #40]	; 0x28
 8101464:	643b      	str	r3, [r7, #64]	; 0x40

                /* Increment the suspension count.  */
                (pool_ptr -> tx_byte_pool_suspended_count)++;
 8101466:	68fb      	ldr	r3, [r7, #12]
 8101468:	6a9b      	ldr	r3, [r3, #40]	; 0x28
 810146a:	1c5a      	adds	r2, r3, #1
 810146c:	68fb      	ldr	r3, [r7, #12]
 810146e:	629a      	str	r2, [r3, #40]	; 0x28
            
                /* Setup suspension list.  */
                if (suspended_count == TX_NO_SUSPENSIONS)
 8101470:	6c3b      	ldr	r3, [r7, #64]	; 0x40
 8101472:	2b00      	cmp	r3, #0
 8101474:	d109      	bne.n	810148a <_tx_byte_allocate+0x10a>
                {

                    /* No other threads are suspended.  Setup the head pointer and
                       just setup this threads pointers to itself.  */
                    pool_ptr -> tx_byte_pool_suspension_list =      thread_ptr;
 8101476:	68fb      	ldr	r3, [r7, #12]
 8101478:	6cba      	ldr	r2, [r7, #72]	; 0x48
 810147a:	625a      	str	r2, [r3, #36]	; 0x24
                    thread_ptr -> tx_thread_suspended_next =        thread_ptr;
 810147c:	6cbb      	ldr	r3, [r7, #72]	; 0x48
 810147e:	6cba      	ldr	r2, [r7, #72]	; 0x48
 8101480:	671a      	str	r2, [r3, #112]	; 0x70
                    thread_ptr -> tx_thread_suspended_previous =    thread_ptr;
 8101482:	6cbb      	ldr	r3, [r7, #72]	; 0x48
 8101484:	6cba      	ldr	r2, [r7, #72]	; 0x48
 8101486:	675a      	str	r2, [r3, #116]	; 0x74
 8101488:	e011      	b.n	81014ae <_tx_byte_allocate+0x12e>
                }
                else
                {

                    /* This list is not NULL, add current thread to the end. */
                    next_thread =                                   pool_ptr -> tx_byte_pool_suspension_list;
 810148a:	68fb      	ldr	r3, [r7, #12]
 810148c:	6a5b      	ldr	r3, [r3, #36]	; 0x24
 810148e:	63fb      	str	r3, [r7, #60]	; 0x3c
                    thread_ptr -> tx_thread_suspended_next =        next_thread;
 8101490:	6cbb      	ldr	r3, [r7, #72]	; 0x48
 8101492:	6bfa      	ldr	r2, [r7, #60]	; 0x3c
 8101494:	671a      	str	r2, [r3, #112]	; 0x70
                    previous_thread =                               next_thread -> tx_thread_suspended_previous;
 8101496:	6bfb      	ldr	r3, [r7, #60]	; 0x3c
 8101498:	6f5b      	ldr	r3, [r3, #116]	; 0x74
 810149a:	63bb      	str	r3, [r7, #56]	; 0x38
                    thread_ptr -> tx_thread_suspended_previous =    previous_thread;
 810149c:	6cbb      	ldr	r3, [r7, #72]	; 0x48
 810149e:	6bba      	ldr	r2, [r7, #56]	; 0x38
 81014a0:	675a      	str	r2, [r3, #116]	; 0x74
                    previous_thread -> tx_thread_suspended_next =   thread_ptr;
 81014a2:	6bbb      	ldr	r3, [r7, #56]	; 0x38
 81014a4:	6cba      	ldr	r2, [r7, #72]	; 0x48
 81014a6:	671a      	str	r2, [r3, #112]	; 0x70
                    next_thread -> tx_thread_suspended_previous =   thread_ptr;
 81014a8:	6bfb      	ldr	r3, [r7, #60]	; 0x3c
 81014aa:	6cba      	ldr	r2, [r7, #72]	; 0x48
 81014ac:	675a      	str	r2, [r3, #116]	; 0x74
                }

                /* Set the state to suspended.  */
                thread_ptr -> tx_thread_state =       TX_BYTE_MEMORY;
 81014ae:	6cbb      	ldr	r3, [r7, #72]	; 0x48
 81014b0:	2209      	movs	r2, #9
 81014b2:	631a      	str	r2, [r3, #48]	; 0x30
                /* Restore interrupts.  */
                TX_RESTORE
#else

                /* Set the suspending flag.  */
                thread_ptr -> tx_thread_suspending =  TX_TRUE;
 81014b4:	6cbb      	ldr	r3, [r7, #72]	; 0x48
 81014b6:	2201      	movs	r2, #1
 81014b8:	639a      	str	r2, [r3, #56]	; 0x38

                /* Setup the timeout period.  */
                thread_ptr -> tx_thread_timer.tx_timer_internal_remaining_ticks =  wait_option;
 81014ba:	6cbb      	ldr	r3, [r7, #72]	; 0x48
 81014bc:	683a      	ldr	r2, [r7, #0]
 81014be:	64da      	str	r2, [r3, #76]	; 0x4c

                /* Temporarily disable preemption.  */
                _tx_thread_preempt_disable++;
 81014c0:	4b10      	ldr	r3, [pc, #64]	; (8101504 <_tx_byte_allocate+0x184>)
 81014c2:	681b      	ldr	r3, [r3, #0]
 81014c4:	3301      	adds	r3, #1
 81014c6:	4a0f      	ldr	r2, [pc, #60]	; (8101504 <_tx_byte_allocate+0x184>)
 81014c8:	6013      	str	r3, [r2, #0]
 81014ca:	6d7b      	ldr	r3, [r7, #84]	; 0x54
 81014cc:	61bb      	str	r3, [r7, #24]
    __asm__ volatile ("MSR  PRIMASK,%0": : "r" (int_posture): "memory");
 81014ce:	69bb      	ldr	r3, [r7, #24]
 81014d0:	f383 8810 	msr	PRIMASK, r3
}
 81014d4:	bf00      	nop

                /* Restore interrupts.  */
                TX_RESTORE

                /* Call actual thread suspension routine.  */
                _tx_thread_system_suspend(thread_ptr);
 81014d6:	6cb8      	ldr	r0, [r7, #72]	; 0x48
 81014d8:	f000 fdde 	bl	8102098 <_tx_thread_system_suspend>
                    *((ULONG *) (log_entry_ptr + TX_EL_EVENT_INFO_4_OFFSET)) =  (ULONG) *memory_ptr;
                }
#endif

                /* Return the completion status.  */
                status =  thread_ptr -> tx_thread_suspend_status;
 81014dc:	6cbb      	ldr	r3, [r7, #72]	; 0x48
 81014de:	f8d3 3084 	ldr.w	r3, [r3, #132]	; 0x84
 81014e2:	653b      	str	r3, [r7, #80]	; 0x50
 81014e4:	e007      	b.n	81014f6 <_tx_byte_allocate+0x176>
 81014e6:	6d7b      	ldr	r3, [r7, #84]	; 0x54
 81014e8:	617b      	str	r3, [r7, #20]
    __asm__ volatile ("MSR  PRIMASK,%0": : "r" (int_posture): "memory");
 81014ea:	697b      	ldr	r3, [r7, #20]
 81014ec:	f383 8810 	msr	PRIMASK, r3
}
 81014f0:	bf00      	nop
    
            /* Restore interrupts.  */
            TX_RESTORE

            /* Immediate return, return error completion.  */
            status =  TX_NO_MEMORY;
 81014f2:	2310      	movs	r3, #16
 81014f4:	653b      	str	r3, [r7, #80]	; 0x50
        }
    }

    /* Return completion status.  */
    return(status);
 81014f6:	6d3b      	ldr	r3, [r7, #80]	; 0x50
}
 81014f8:	4618      	mov	r0, r3
 81014fa:	3758      	adds	r7, #88	; 0x58
 81014fc:	46bd      	mov	sp, r7
 81014fe:	bd80      	pop	{r7, pc}
 8101500:	10005630 	.word	0x10005630
 8101504:	100056c8 	.word	0x100056c8
 8101508:	0810150d 	.word	0x0810150d

0810150c <_tx_byte_pool_cleanup>:
/*  09-30-2020     Yuxin Zhou               Modified comment(s),          */
/*                                            resulting in version 6.1    */
/*                                                                        */
/**************************************************************************/
VOID  _tx_byte_pool_cleanup(TX_THREAD *thread_ptr, ULONG suspension_sequence)
{
 810150c:	b580      	push	{r7, lr}
 810150e:	b08e      	sub	sp, #56	; 0x38
 8101510:	af00      	add	r7, sp, #0
 8101512:	6078      	str	r0, [r7, #4]
 8101514:	6039      	str	r1, [r7, #0]
    __asm__ volatile ("MRS  %0, PRIMASK ": "=r" (posture));
 8101516:	f3ef 8310 	mrs	r3, PRIMASK
 810151a:	623b      	str	r3, [r7, #32]
    return(posture);
 810151c:	6a3b      	ldr	r3, [r7, #32]
    int_posture = __get_interrupt_posture();
 810151e:	61fb      	str	r3, [r7, #28]
    __asm__ volatile ("CPSID i" : : : "memory");
 8101520:	b672      	cpsid	i
    return(int_posture);
 8101522:	69fb      	ldr	r3, [r7, #28]

    
#ifndef TX_NOT_INTERRUPTABLE

    /* Disable interrupts to remove the suspended thread from the byte pool.  */
    TX_DISABLE
 8101524:	637b      	str	r3, [r7, #52]	; 0x34

    /* Determine if the cleanup is still required.  */
    if (thread_ptr -> tx_thread_suspend_cleanup == &(_tx_byte_pool_cleanup))
 8101526:	687b      	ldr	r3, [r7, #4]
 8101528:	6e9b      	ldr	r3, [r3, #104]	; 0x68
 810152a:	4a33      	ldr	r2, [pc, #204]	; (81015f8 <_tx_byte_pool_cleanup+0xec>)
 810152c:	4293      	cmp	r3, r2
 810152e:	d158      	bne.n	81015e2 <_tx_byte_pool_cleanup+0xd6>
    {
    
        /* Check for valid suspension sequence.  */
        if (suspension_sequence == thread_ptr -> tx_thread_suspension_sequence)
 8101530:	687b      	ldr	r3, [r7, #4]
 8101532:	f8d3 30ac 	ldr.w	r3, [r3, #172]	; 0xac
 8101536:	683a      	ldr	r2, [r7, #0]
 8101538:	429a      	cmp	r2, r3
 810153a:	d152      	bne.n	81015e2 <_tx_byte_pool_cleanup+0xd6>
        {

            /* Setup pointer to byte pool control block.  */
            pool_ptr =  TX_VOID_TO_BYTE_POOL_POINTER_CONVERT(thread_ptr -> tx_thread_suspend_control_block);
 810153c:	687b      	ldr	r3, [r7, #4]
 810153e:	6edb      	ldr	r3, [r3, #108]	; 0x6c
 8101540:	633b      	str	r3, [r7, #48]	; 0x30

            /* Check for a NULL byte pool pointer.  */
            if (pool_ptr != TX_NULL)
 8101542:	6b3b      	ldr	r3, [r7, #48]	; 0x30
 8101544:	2b00      	cmp	r3, #0
 8101546:	d04c      	beq.n	81015e2 <_tx_byte_pool_cleanup+0xd6>
            {
            
                /* Check for valid pool ID.  */
                if (pool_ptr -> tx_byte_pool_id == TX_BYTE_POOL_ID)
 8101548:	6b3b      	ldr	r3, [r7, #48]	; 0x30
 810154a:	681b      	ldr	r3, [r3, #0]
 810154c:	4a2b      	ldr	r2, [pc, #172]	; (81015fc <_tx_byte_pool_cleanup+0xf0>)
 810154e:	4293      	cmp	r3, r2
 8101550:	d147      	bne.n	81015e2 <_tx_byte_pool_cleanup+0xd6>
                {

                    /* Determine if there are any thread suspensions.  */
                    if (pool_ptr -> tx_byte_pool_suspended_count != TX_NO_SUSPENSIONS)
 8101552:	6b3b      	ldr	r3, [r7, #48]	; 0x30
 8101554:	6a9b      	ldr	r3, [r3, #40]	; 0x28
 8101556:	2b00      	cmp	r3, #0
 8101558:	d043      	beq.n	81015e2 <_tx_byte_pool_cleanup+0xd6>
                        /* Setup pointer to byte pool control block.  */
                        pool_ptr =  TX_VOID_TO_BYTE_POOL_POINTER_CONVERT(thread_ptr -> tx_thread_suspend_control_block);
#endif

                        /* Thread suspended for memory... Clear the suspension cleanup flag.  */
                        thread_ptr -> tx_thread_suspend_cleanup =  TX_NULL;
 810155a:	687b      	ldr	r3, [r7, #4]
 810155c:	2200      	movs	r2, #0
 810155e:	669a      	str	r2, [r3, #104]	; 0x68

                        /* Decrement the suspension count.  */
                        pool_ptr -> tx_byte_pool_suspended_count--;
 8101560:	6b3b      	ldr	r3, [r7, #48]	; 0x30
 8101562:	6a9b      	ldr	r3, [r3, #40]	; 0x28
 8101564:	1e5a      	subs	r2, r3, #1
 8101566:	6b3b      	ldr	r3, [r7, #48]	; 0x30
 8101568:	629a      	str	r2, [r3, #40]	; 0x28
            
                        /* Pickup the suspended count.  */
                        suspended_count =  pool_ptr -> tx_byte_pool_suspended_count;
 810156a:	6b3b      	ldr	r3, [r7, #48]	; 0x30
 810156c:	6a9b      	ldr	r3, [r3, #40]	; 0x28
 810156e:	62fb      	str	r3, [r7, #44]	; 0x2c

                        /* Remove the suspended thread from the list.  */
    
                        /* See if this is the only suspended thread on the list.  */
                        if (suspended_count == TX_NO_SUSPENSIONS)
 8101570:	6afb      	ldr	r3, [r7, #44]	; 0x2c
 8101572:	2b00      	cmp	r3, #0
 8101574:	d103      	bne.n	810157e <_tx_byte_pool_cleanup+0x72>
                        {

                            /* Yes, the only suspended thread.  */
    
                            /* Update the head pointer.  */
                            pool_ptr -> tx_byte_pool_suspension_list =  TX_NULL;
 8101576:	6b3b      	ldr	r3, [r7, #48]	; 0x30
 8101578:	2200      	movs	r2, #0
 810157a:	625a      	str	r2, [r3, #36]	; 0x24
 810157c:	e013      	b.n	81015a6 <_tx_byte_pool_cleanup+0x9a>
                        {

                            /* At least one more thread is on the same suspension list.  */

                            /* Update the links of the adjacent threads.  */
                            next_thread =                                   thread_ptr -> tx_thread_suspended_next;
 810157e:	687b      	ldr	r3, [r7, #4]
 8101580:	6f1b      	ldr	r3, [r3, #112]	; 0x70
 8101582:	62bb      	str	r3, [r7, #40]	; 0x28
                            previous_thread =                               thread_ptr -> tx_thread_suspended_previous;
 8101584:	687b      	ldr	r3, [r7, #4]
 8101586:	6f5b      	ldr	r3, [r3, #116]	; 0x74
 8101588:	627b      	str	r3, [r7, #36]	; 0x24
                            next_thread -> tx_thread_suspended_previous =   previous_thread;
 810158a:	6abb      	ldr	r3, [r7, #40]	; 0x28
 810158c:	6a7a      	ldr	r2, [r7, #36]	; 0x24
 810158e:	675a      	str	r2, [r3, #116]	; 0x74
                            previous_thread -> tx_thread_suspended_next =   next_thread;
 8101590:	6a7b      	ldr	r3, [r7, #36]	; 0x24
 8101592:	6aba      	ldr	r2, [r7, #40]	; 0x28
 8101594:	671a      	str	r2, [r3, #112]	; 0x70

                            /* Determine if we need to update the head pointer.  */
                            if (pool_ptr -> tx_byte_pool_suspension_list == thread_ptr)
 8101596:	6b3b      	ldr	r3, [r7, #48]	; 0x30
 8101598:	6a5b      	ldr	r3, [r3, #36]	; 0x24
 810159a:	687a      	ldr	r2, [r7, #4]
 810159c:	429a      	cmp	r2, r3
 810159e:	d102      	bne.n	81015a6 <_tx_byte_pool_cleanup+0x9a>
                            {
            
                                /* Update the list head pointer.  */
                                pool_ptr -> tx_byte_pool_suspension_list =      next_thread;
 81015a0:	6b3b      	ldr	r3, [r7, #48]	; 0x30
 81015a2:	6aba      	ldr	r2, [r7, #40]	; 0x28
 81015a4:	625a      	str	r2, [r3, #36]	; 0x24
                            }
                        }

                        /* Now we need to determine if this cleanup is from a terminate, timeout,
                           or from a wait abort.  */
                        if (thread_ptr -> tx_thread_state == TX_BYTE_MEMORY)
 81015a6:	687b      	ldr	r3, [r7, #4]
 81015a8:	6b1b      	ldr	r3, [r3, #48]	; 0x30
 81015aa:	2b09      	cmp	r3, #9
 81015ac:	d119      	bne.n	81015e2 <_tx_byte_pool_cleanup+0xd6>
                            /* Increment the number of timeouts on this byte pool.  */
                            pool_ptr -> tx_byte_pool_performance_timeout_count++;
#endif

                            /* Setup return status.  */
                            thread_ptr -> tx_thread_suspend_status =  TX_NO_MEMORY;
 81015ae:	687b      	ldr	r3, [r7, #4]
 81015b0:	2210      	movs	r2, #16
 81015b2:	f8c3 2084 	str.w	r2, [r3, #132]	; 0x84
                            /* Resume the thread!  */
                            _tx_thread_system_ni_resume(thread_ptr);
#else

                            /* Temporarily disable preemption.  */
                            _tx_thread_preempt_disable++;
 81015b6:	4b12      	ldr	r3, [pc, #72]	; (8101600 <_tx_byte_pool_cleanup+0xf4>)
 81015b8:	681b      	ldr	r3, [r3, #0]
 81015ba:	3301      	adds	r3, #1
 81015bc:	4a10      	ldr	r2, [pc, #64]	; (8101600 <_tx_byte_pool_cleanup+0xf4>)
 81015be:	6013      	str	r3, [r2, #0]
 81015c0:	6b7b      	ldr	r3, [r7, #52]	; 0x34
 81015c2:	613b      	str	r3, [r7, #16]
    __asm__ volatile ("MSR  PRIMASK,%0": : "r" (int_posture): "memory");
 81015c4:	693b      	ldr	r3, [r7, #16]
 81015c6:	f383 8810 	msr	PRIMASK, r3
}
 81015ca:	bf00      	nop

                            /* Restore interrupts.  */
                            TX_RESTORE

                            /* Resume the thread!  */
                            _tx_thread_system_resume(thread_ptr);
 81015cc:	6878      	ldr	r0, [r7, #4]
 81015ce:	f000 fc63 	bl	8101e98 <_tx_thread_system_resume>
    __asm__ volatile ("MRS  %0, PRIMASK ": "=r" (posture));
 81015d2:	f3ef 8310 	mrs	r3, PRIMASK
 81015d6:	61bb      	str	r3, [r7, #24]
    return(posture);
 81015d8:	69bb      	ldr	r3, [r7, #24]
    int_posture = __get_interrupt_posture();
 81015da:	617b      	str	r3, [r7, #20]
    __asm__ volatile ("CPSID i" : : : "memory");
 81015dc:	b672      	cpsid	i
    return(int_posture);
 81015de:	697b      	ldr	r3, [r7, #20]

                            /* Disable interrupts.  */
                            TX_DISABLE
 81015e0:	637b      	str	r3, [r7, #52]	; 0x34
 81015e2:	6b7b      	ldr	r3, [r7, #52]	; 0x34
 81015e4:	60fb      	str	r3, [r7, #12]
    __asm__ volatile ("MSR  PRIMASK,%0": : "r" (int_posture): "memory");
 81015e6:	68fb      	ldr	r3, [r7, #12]
 81015e8:	f383 8810 	msr	PRIMASK, r3
}
 81015ec:	bf00      	nop
    }

    /* Restore interrupts.  */
    TX_RESTORE
#endif
}
 81015ee:	bf00      	nop
 81015f0:	3738      	adds	r7, #56	; 0x38
 81015f2:	46bd      	mov	sp, r7
 81015f4:	bd80      	pop	{r7, pc}
 81015f6:	bf00      	nop
 81015f8:	0810150d 	.word	0x0810150d
 81015fc:	42595445 	.word	0x42595445
 8101600:	100056c8 	.word	0x100056c8

08101604 <_tx_byte_pool_create>:
/*  09-30-2020     Yuxin Zhou               Modified comment(s),          */
/*                                            resulting in version 6.1    */
/*                                                                        */
/**************************************************************************/
UINT  _tx_byte_pool_create(TX_BYTE_POOL *pool_ptr, CHAR *name_ptr, VOID *pool_start, ULONG pool_size)
{
 8101604:	b580      	push	{r7, lr}
 8101606:	b08e      	sub	sp, #56	; 0x38
 8101608:	af00      	add	r7, sp, #0
 810160a:	60f8      	str	r0, [r7, #12]
 810160c:	60b9      	str	r1, [r7, #8]
 810160e:	607a      	str	r2, [r7, #4]
 8101610:	603b      	str	r3, [r7, #0]
TX_BYTE_POOL        *previous_pool;
ALIGN_TYPE          *free_ptr;


    /* Initialize the byte pool control block to all zeros.  */
    TX_MEMSET(pool_ptr, 0, (sizeof(TX_BYTE_POOL)));
 8101612:	2234      	movs	r2, #52	; 0x34
 8101614:	2100      	movs	r1, #0
 8101616:	68f8      	ldr	r0, [r7, #12]
 8101618:	f001 fb44 	bl	8102ca4 <memset>

    /* Round the pool size down to something that is evenly divisible by 
       an ULONG.  */
    pool_size =   (pool_size/(sizeof(ALIGN_TYPE))) * (sizeof(ALIGN_TYPE));
 810161c:	683b      	ldr	r3, [r7, #0]
 810161e:	f023 0303 	bic.w	r3, r3, #3
 8101622:	603b      	str	r3, [r7, #0]

    /* Setup the basic byte pool fields.  */
    pool_ptr -> tx_byte_pool_name =              name_ptr;
 8101624:	68fb      	ldr	r3, [r7, #12]
 8101626:	68ba      	ldr	r2, [r7, #8]
 8101628:	605a      	str	r2, [r3, #4]

    /* Save the start and size of the pool.  */
    pool_ptr -> tx_byte_pool_start =   TX_VOID_TO_UCHAR_POINTER_CONVERT(pool_start);
 810162a:	68fb      	ldr	r3, [r7, #12]
 810162c:	687a      	ldr	r2, [r7, #4]
 810162e:	619a      	str	r2, [r3, #24]
    pool_ptr -> tx_byte_pool_size =    pool_size;
 8101630:	68fb      	ldr	r3, [r7, #12]
 8101632:	683a      	ldr	r2, [r7, #0]
 8101634:	61da      	str	r2, [r3, #28]

    /* Setup memory list to the beginning as well as the search pointer.  */
    pool_ptr -> tx_byte_pool_list =    TX_VOID_TO_UCHAR_POINTER_CONVERT(pool_start);
 8101636:	68fb      	ldr	r3, [r7, #12]
 8101638:	687a      	ldr	r2, [r7, #4]
 810163a:	611a      	str	r2, [r3, #16]
    pool_ptr -> tx_byte_pool_search =  TX_VOID_TO_UCHAR_POINTER_CONVERT(pool_start);
 810163c:	68fb      	ldr	r3, [r7, #12]
 810163e:	687a      	ldr	r2, [r7, #4]
 8101640:	615a      	str	r2, [r3, #20]

    /* Initially, the pool will have two blocks.  One large block at the 
       beginning that is available and a small allocated block at the end
       of the pool that is there just for the algorithm.  Be sure to count
       the available block's header in the available bytes count.  */
    pool_ptr -> tx_byte_pool_available =   pool_size - ((sizeof(VOID *)) + (sizeof(ALIGN_TYPE)));
 8101642:	683b      	ldr	r3, [r7, #0]
 8101644:	f1a3 0208 	sub.w	r2, r3, #8
 8101648:	68fb      	ldr	r3, [r7, #12]
 810164a:	609a      	str	r2, [r3, #8]
    pool_ptr -> tx_byte_pool_fragments =   ((UINT) 2);
 810164c:	68fb      	ldr	r3, [r7, #12]
 810164e:	2202      	movs	r2, #2
 8101650:	60da      	str	r2, [r3, #12]
    /* Each block contains a "next" pointer that points to the next block in the pool followed by a ALIGN_TYPE
       field that contains either the constant TX_BYTE_BLOCK_FREE (if the block is free) or a pointer to the
       owning pool (if the block is allocated).  */
    
    /* Calculate the end of the pool's memory area.  */
    block_ptr =  TX_VOID_TO_UCHAR_POINTER_CONVERT(pool_start);
 8101652:	687b      	ldr	r3, [r7, #4]
 8101654:	637b      	str	r3, [r7, #52]	; 0x34
    block_ptr =  TX_UCHAR_POINTER_ADD(block_ptr, pool_size);
 8101656:	6b7a      	ldr	r2, [r7, #52]	; 0x34
 8101658:	683b      	ldr	r3, [r7, #0]
 810165a:	4413      	add	r3, r2
 810165c:	637b      	str	r3, [r7, #52]	; 0x34

    /* Backup the end of the pool pointer and build the pre-allocated block.  */
    block_ptr =  TX_UCHAR_POINTER_SUB(block_ptr, (sizeof(ALIGN_TYPE)));
 810165e:	6b7b      	ldr	r3, [r7, #52]	; 0x34
 8101660:	3b04      	subs	r3, #4
 8101662:	637b      	str	r3, [r7, #52]	; 0x34

    /* Cast the pool pointer into a ULONG.  */
    temp_ptr =             TX_BYTE_POOL_TO_UCHAR_POINTER_CONVERT(pool_ptr);
 8101664:	68fb      	ldr	r3, [r7, #12]
 8101666:	633b      	str	r3, [r7, #48]	; 0x30
    block_indirect_ptr =   TX_UCHAR_TO_INDIRECT_UCHAR_POINTER_CONVERT(block_ptr);
 8101668:	6b7b      	ldr	r3, [r7, #52]	; 0x34
 810166a:	62fb      	str	r3, [r7, #44]	; 0x2c
    *block_indirect_ptr =  temp_ptr;
 810166c:	6afb      	ldr	r3, [r7, #44]	; 0x2c
 810166e:	6b3a      	ldr	r2, [r7, #48]	; 0x30
 8101670:	601a      	str	r2, [r3, #0]

    block_ptr =            TX_UCHAR_POINTER_SUB(block_ptr, (sizeof(UCHAR *)));
 8101672:	6b7b      	ldr	r3, [r7, #52]	; 0x34
 8101674:	3b04      	subs	r3, #4
 8101676:	637b      	str	r3, [r7, #52]	; 0x34
    block_indirect_ptr =   TX_UCHAR_TO_INDIRECT_UCHAR_POINTER_CONVERT(block_ptr);
 8101678:	6b7b      	ldr	r3, [r7, #52]	; 0x34
 810167a:	62fb      	str	r3, [r7, #44]	; 0x2c
    *block_indirect_ptr =  TX_VOID_TO_UCHAR_POINTER_CONVERT(pool_start);
 810167c:	6afb      	ldr	r3, [r7, #44]	; 0x2c
 810167e:	687a      	ldr	r2, [r7, #4]
 8101680:	601a      	str	r2, [r3, #0]

    /* Now setup the large available block in the pool.  */
    temp_ptr =             TX_VOID_TO_UCHAR_POINTER_CONVERT(pool_start);
 8101682:	687b      	ldr	r3, [r7, #4]
 8101684:	633b      	str	r3, [r7, #48]	; 0x30
    block_indirect_ptr =   TX_UCHAR_TO_INDIRECT_UCHAR_POINTER_CONVERT(temp_ptr);
 8101686:	6b3b      	ldr	r3, [r7, #48]	; 0x30
 8101688:	62fb      	str	r3, [r7, #44]	; 0x2c
    *block_indirect_ptr =  block_ptr;
 810168a:	6afb      	ldr	r3, [r7, #44]	; 0x2c
 810168c:	6b7a      	ldr	r2, [r7, #52]	; 0x34
 810168e:	601a      	str	r2, [r3, #0]
    block_ptr =            TX_VOID_TO_UCHAR_POINTER_CONVERT(pool_start);
 8101690:	687b      	ldr	r3, [r7, #4]
 8101692:	637b      	str	r3, [r7, #52]	; 0x34
    block_ptr =            TX_UCHAR_POINTER_ADD(block_ptr, (sizeof(UCHAR *)));
 8101694:	6b7b      	ldr	r3, [r7, #52]	; 0x34
 8101696:	3304      	adds	r3, #4
 8101698:	637b      	str	r3, [r7, #52]	; 0x34
    free_ptr =             TX_UCHAR_TO_ALIGN_TYPE_POINTER_CONVERT(block_ptr);
 810169a:	6b7b      	ldr	r3, [r7, #52]	; 0x34
 810169c:	62bb      	str	r3, [r7, #40]	; 0x28
    *free_ptr =            TX_BYTE_BLOCK_FREE;
 810169e:	6abb      	ldr	r3, [r7, #40]	; 0x28
 81016a0:	4a1f      	ldr	r2, [pc, #124]	; (8101720 <_tx_byte_pool_create+0x11c>)
 81016a2:	601a      	str	r2, [r3, #0]

    /* Clear the owner id.  */
    pool_ptr -> tx_byte_pool_owner =  TX_NULL;
 81016a4:	68fb      	ldr	r3, [r7, #12]
 81016a6:	2200      	movs	r2, #0
 81016a8:	621a      	str	r2, [r3, #32]
    __asm__ volatile ("MRS  %0, PRIMASK ": "=r" (posture));
 81016aa:	f3ef 8310 	mrs	r3, PRIMASK
 81016ae:	61bb      	str	r3, [r7, #24]
    return(posture);
 81016b0:	69bb      	ldr	r3, [r7, #24]
    int_posture = __get_interrupt_posture();
 81016b2:	617b      	str	r3, [r7, #20]
    __asm__ volatile ("CPSID i" : : : "memory");
 81016b4:	b672      	cpsid	i
    return(int_posture);
 81016b6:	697b      	ldr	r3, [r7, #20]

    /* Disable interrupts to place the byte pool on the created list.  */
    TX_DISABLE
 81016b8:	627b      	str	r3, [r7, #36]	; 0x24

    /* Setup the byte pool ID to make it valid.  */
    pool_ptr -> tx_byte_pool_id =  TX_BYTE_POOL_ID;
 81016ba:	68fb      	ldr	r3, [r7, #12]
 81016bc:	4a19      	ldr	r2, [pc, #100]	; (8101724 <_tx_byte_pool_create+0x120>)
 81016be:	601a      	str	r2, [r3, #0]

    /* Place the byte pool on the list of created byte pools.  First,
       check for an empty list.  */
    if (_tx_byte_pool_created_count == TX_EMPTY)
 81016c0:	4b19      	ldr	r3, [pc, #100]	; (8101728 <_tx_byte_pool_create+0x124>)
 81016c2:	681b      	ldr	r3, [r3, #0]
 81016c4:	2b00      	cmp	r3, #0
 81016c6:	d109      	bne.n	81016dc <_tx_byte_pool_create+0xd8>
    {

        /* The created byte pool list is empty.  Add byte pool to empty list.  */
        _tx_byte_pool_created_ptr =                  pool_ptr;
 81016c8:	4a18      	ldr	r2, [pc, #96]	; (810172c <_tx_byte_pool_create+0x128>)
 81016ca:	68fb      	ldr	r3, [r7, #12]
 81016cc:	6013      	str	r3, [r2, #0]
        pool_ptr -> tx_byte_pool_created_next =      pool_ptr;
 81016ce:	68fb      	ldr	r3, [r7, #12]
 81016d0:	68fa      	ldr	r2, [r7, #12]
 81016d2:	62da      	str	r2, [r3, #44]	; 0x2c
        pool_ptr -> tx_byte_pool_created_previous =  pool_ptr;
 81016d4:	68fb      	ldr	r3, [r7, #12]
 81016d6:	68fa      	ldr	r2, [r7, #12]
 81016d8:	631a      	str	r2, [r3, #48]	; 0x30
 81016da:	e011      	b.n	8101700 <_tx_byte_pool_create+0xfc>
    }
    else
    {

        /* This list is not NULL, add to the end of the list.  */
        next_pool =      _tx_byte_pool_created_ptr;
 81016dc:	4b13      	ldr	r3, [pc, #76]	; (810172c <_tx_byte_pool_create+0x128>)
 81016de:	681b      	ldr	r3, [r3, #0]
 81016e0:	623b      	str	r3, [r7, #32]
        previous_pool =  next_pool -> tx_byte_pool_created_previous;
 81016e2:	6a3b      	ldr	r3, [r7, #32]
 81016e4:	6b1b      	ldr	r3, [r3, #48]	; 0x30
 81016e6:	61fb      	str	r3, [r7, #28]

        /* Place the new byte pool in the list.  */
        next_pool -> tx_byte_pool_created_previous =  pool_ptr;
 81016e8:	6a3b      	ldr	r3, [r7, #32]
 81016ea:	68fa      	ldr	r2, [r7, #12]
 81016ec:	631a      	str	r2, [r3, #48]	; 0x30
        previous_pool -> tx_byte_pool_created_next =  pool_ptr;
 81016ee:	69fb      	ldr	r3, [r7, #28]
 81016f0:	68fa      	ldr	r2, [r7, #12]
 81016f2:	62da      	str	r2, [r3, #44]	; 0x2c

        /* Setup this byte pool's created links.  */
        pool_ptr -> tx_byte_pool_created_previous =  previous_pool;
 81016f4:	68fb      	ldr	r3, [r7, #12]
 81016f6:	69fa      	ldr	r2, [r7, #28]
 81016f8:	631a      	str	r2, [r3, #48]	; 0x30
        pool_ptr -> tx_byte_pool_created_next =      next_pool;
 81016fa:	68fb      	ldr	r3, [r7, #12]
 81016fc:	6a3a      	ldr	r2, [r7, #32]
 81016fe:	62da      	str	r2, [r3, #44]	; 0x2c
    }

    /* Increment the number of created byte pools.  */
    _tx_byte_pool_created_count++;
 8101700:	4b09      	ldr	r3, [pc, #36]	; (8101728 <_tx_byte_pool_create+0x124>)
 8101702:	681b      	ldr	r3, [r3, #0]
 8101704:	3301      	adds	r3, #1
 8101706:	4a08      	ldr	r2, [pc, #32]	; (8101728 <_tx_byte_pool_create+0x124>)
 8101708:	6013      	str	r3, [r2, #0]
 810170a:	6a7b      	ldr	r3, [r7, #36]	; 0x24
 810170c:	613b      	str	r3, [r7, #16]
    __asm__ volatile ("MSR  PRIMASK,%0": : "r" (int_posture): "memory");
 810170e:	693b      	ldr	r3, [r7, #16]
 8101710:	f383 8810 	msr	PRIMASK, r3
}
 8101714:	bf00      	nop

    /* Restore interrupts.  */
    TX_RESTORE

    /* Return TX_SUCCESS.  */
    return(TX_SUCCESS);
 8101716:	2300      	movs	r3, #0
}
 8101718:	4618      	mov	r0, r3
 810171a:	3738      	adds	r7, #56	; 0x38
 810171c:	46bd      	mov	sp, r7
 810171e:	bd80      	pop	{r7, pc}
 8101720:	ffffeeee 	.word	0xffffeeee
 8101724:	42595445 	.word	0x42595445
 8101728:	10005624 	.word	0x10005624
 810172c:	10005620 	.word	0x10005620

08101730 <_tx_byte_pool_search>:
/*                                            calculation,                */
/*                                            resulting in version 6.1.7  */
/*                                                                        */
/**************************************************************************/
UCHAR  *_tx_byte_pool_search(TX_BYTE_POOL *pool_ptr, ULONG memory_size)
{
 8101730:	b480      	push	{r7}
 8101732:	b097      	sub	sp, #92	; 0x5c
 8101734:	af00      	add	r7, sp, #0
 8101736:	6078      	str	r0, [r7, #4]
 8101738:	6039      	str	r1, [r7, #0]
UCHAR           *next_ptr;
UCHAR           **this_block_link_ptr;
UCHAR           **next_block_link_ptr;
ULONG           available_bytes;
UINT            examine_blocks;
UINT            first_free_block_found =  TX_FALSE;
 810173a:	2300      	movs	r3, #0
 810173c:	647b      	str	r3, [r7, #68]	; 0x44
    __asm__ volatile ("MRS  %0, PRIMASK ": "=r" (posture));
 810173e:	f3ef 8310 	mrs	r3, PRIMASK
 8101742:	627b      	str	r3, [r7, #36]	; 0x24
    return(posture);
 8101744:	6a7b      	ldr	r3, [r7, #36]	; 0x24
    int_posture = __get_interrupt_posture();
 8101746:	623b      	str	r3, [r7, #32]
    __asm__ volatile ("CPSID i" : : : "memory");
 8101748:	b672      	cpsid	i
    return(int_posture);
 810174a:	6a3b      	ldr	r3, [r7, #32]
UCHAR           *work_ptr;
ULONG           total_theoretical_available;


    /* Disable interrupts.  */
    TX_DISABLE
 810174c:	657b      	str	r3, [r7, #84]	; 0x54

    /* First, determine if there are enough bytes in the pool.  */
    /* Theoretical bytes available = free bytes + ((fragments-2) * overhead of each block) */
    total_theoretical_available = pool_ptr -> tx_byte_pool_available + ((pool_ptr -> tx_byte_pool_fragments - 2) * ((sizeof(UCHAR *)) + (sizeof(ALIGN_TYPE))));
 810174e:	687b      	ldr	r3, [r7, #4]
 8101750:	689a      	ldr	r2, [r3, #8]
 8101752:	687b      	ldr	r3, [r7, #4]
 8101754:	68db      	ldr	r3, [r3, #12]
 8101756:	3b02      	subs	r3, #2
 8101758:	00db      	lsls	r3, r3, #3
 810175a:	4413      	add	r3, r2
 810175c:	643b      	str	r3, [r7, #64]	; 0x40
    if (memory_size >= total_theoretical_available)
 810175e:	683a      	ldr	r2, [r7, #0]
 8101760:	6c3b      	ldr	r3, [r7, #64]	; 0x40
 8101762:	429a      	cmp	r2, r3
 8101764:	d308      	bcc.n	8101778 <_tx_byte_pool_search+0x48>
 8101766:	6d7b      	ldr	r3, [r7, #84]	; 0x54
 8101768:	61fb      	str	r3, [r7, #28]
    __asm__ volatile ("MSR  PRIMASK,%0": : "r" (int_posture): "memory");
 810176a:	69fb      	ldr	r3, [r7, #28]
 810176c:	f383 8810 	msr	PRIMASK, r3
}
 8101770:	bf00      	nop

        /* Restore interrupts.  */
        TX_RESTORE

        /* Not enough memory, return a NULL pointer.  */
        current_ptr =  TX_NULL;
 8101772:	2300      	movs	r3, #0
 8101774:	653b      	str	r3, [r7, #80]	; 0x50
 8101776:	e0dd      	b.n	8101934 <_tx_byte_pool_search+0x204>
    }
    else
    {

        /* Pickup thread pointer.  */
        TX_THREAD_GET_CURRENT(thread_ptr)
 8101778:	4b72      	ldr	r3, [pc, #456]	; (8101944 <_tx_byte_pool_search+0x214>)
 810177a:	681b      	ldr	r3, [r3, #0]
 810177c:	63fb      	str	r3, [r7, #60]	; 0x3c

        /* Setup ownership of the byte pool.  */
        pool_ptr -> tx_byte_pool_owner =  thread_ptr;
 810177e:	687b      	ldr	r3, [r7, #4]
 8101780:	6bfa      	ldr	r2, [r7, #60]	; 0x3c
 8101782:	621a      	str	r2, [r3, #32]

        /* Walk through the memory pool in search for a large enough block.  */
        current_ptr =      pool_ptr -> tx_byte_pool_search;
 8101784:	687b      	ldr	r3, [r7, #4]
 8101786:	695b      	ldr	r3, [r3, #20]
 8101788:	653b      	str	r3, [r7, #80]	; 0x50
        examine_blocks =   pool_ptr -> tx_byte_pool_fragments + ((UINT) 1);
 810178a:	687b      	ldr	r3, [r7, #4]
 810178c:	68db      	ldr	r3, [r3, #12]
 810178e:	3301      	adds	r3, #1
 8101790:	64bb      	str	r3, [r7, #72]	; 0x48
        available_bytes =  ((ULONG) 0);
 8101792:	2300      	movs	r3, #0
 8101794:	64fb      	str	r3, [r7, #76]	; 0x4c
            /* Increment the number of fragments searched on this pool.  */
            pool_ptr -> tx_byte_pool_performance_search_count++;
#endif

            /* Check to see if this block is free.  */
            work_ptr =  TX_UCHAR_POINTER_ADD(current_ptr, (sizeof(UCHAR *)));
 8101796:	6d3b      	ldr	r3, [r7, #80]	; 0x50
 8101798:	3304      	adds	r3, #4
 810179a:	63bb      	str	r3, [r7, #56]	; 0x38
            free_ptr =  TX_UCHAR_TO_ALIGN_TYPE_POINTER_CONVERT(work_ptr);
 810179c:	6bbb      	ldr	r3, [r7, #56]	; 0x38
 810179e:	637b      	str	r3, [r7, #52]	; 0x34
            if ((*free_ptr) == TX_BYTE_BLOCK_FREE)
 81017a0:	6b7b      	ldr	r3, [r7, #52]	; 0x34
 81017a2:	681b      	ldr	r3, [r3, #0]
 81017a4:	4a68      	ldr	r2, [pc, #416]	; (8101948 <_tx_byte_pool_search+0x218>)
 81017a6:	4293      	cmp	r3, r2
 81017a8:	d143      	bne.n	8101832 <_tx_byte_pool_search+0x102>
            {

                /* Determine if this is the first free block.  */
                if (first_free_block_found == TX_FALSE)
 81017aa:	6c7b      	ldr	r3, [r7, #68]	; 0x44
 81017ac:	2b00      	cmp	r3, #0
 81017ae:	d104      	bne.n	81017ba <_tx_byte_pool_search+0x8a>
                {
                    /* This is the first free block.  */
                    pool_ptr->tx_byte_pool_search =  current_ptr;
 81017b0:	687b      	ldr	r3, [r7, #4]
 81017b2:	6d3a      	ldr	r2, [r7, #80]	; 0x50
 81017b4:	615a      	str	r2, [r3, #20]

                    /* Set the flag to indicate we have found the first free
                       block.  */
                    first_free_block_found =  TX_TRUE;
 81017b6:	2301      	movs	r3, #1
 81017b8:	647b      	str	r3, [r7, #68]	; 0x44
                }

                /* Block is free, see if it is large enough.  */

                /* Pickup the next block's pointer.  */
                this_block_link_ptr =  TX_UCHAR_TO_INDIRECT_UCHAR_POINTER_CONVERT(current_ptr);
 81017ba:	6d3b      	ldr	r3, [r7, #80]	; 0x50
 81017bc:	633b      	str	r3, [r7, #48]	; 0x30
                next_ptr =             *this_block_link_ptr;
 81017be:	6b3b      	ldr	r3, [r7, #48]	; 0x30
 81017c0:	681b      	ldr	r3, [r3, #0]
 81017c2:	62fb      	str	r3, [r7, #44]	; 0x2c

                /* Calculate the number of bytes available in this block.  */
                available_bytes =   TX_UCHAR_POINTER_DIF(next_ptr, current_ptr);
 81017c4:	6afa      	ldr	r2, [r7, #44]	; 0x2c
 81017c6:	6d3b      	ldr	r3, [r7, #80]	; 0x50
 81017c8:	1ad3      	subs	r3, r2, r3
 81017ca:	64fb      	str	r3, [r7, #76]	; 0x4c
                available_bytes =   available_bytes - ((sizeof(UCHAR *)) + (sizeof(ALIGN_TYPE)));
 81017cc:	6cfb      	ldr	r3, [r7, #76]	; 0x4c
 81017ce:	3b08      	subs	r3, #8
 81017d0:	64fb      	str	r3, [r7, #76]	; 0x4c

                /* If this is large enough, we are done because our first-fit algorithm
                   has been satisfied!  */
                if (available_bytes >= memory_size)
 81017d2:	6cfa      	ldr	r2, [r7, #76]	; 0x4c
 81017d4:	683b      	ldr	r3, [r7, #0]
 81017d6:	429a      	cmp	r2, r3
 81017d8:	d257      	bcs.n	810188a <_tx_byte_pool_search+0x15a>
                }
                else
                {

                    /* Clear the available bytes variable.  */
                    available_bytes =  ((ULONG) 0);
 81017da:	2300      	movs	r3, #0
 81017dc:	64fb      	str	r3, [r7, #76]	; 0x4c

                    /* Not enough memory, check to see if the neighbor is
                       free and can be merged.  */
                    work_ptr =  TX_UCHAR_POINTER_ADD(next_ptr, (sizeof(UCHAR *)));
 81017de:	6afb      	ldr	r3, [r7, #44]	; 0x2c
 81017e0:	3304      	adds	r3, #4
 81017e2:	63bb      	str	r3, [r7, #56]	; 0x38
                    free_ptr =  TX_UCHAR_TO_ALIGN_TYPE_POINTER_CONVERT(work_ptr);
 81017e4:	6bbb      	ldr	r3, [r7, #56]	; 0x38
 81017e6:	637b      	str	r3, [r7, #52]	; 0x34
                    if ((*free_ptr) == TX_BYTE_BLOCK_FREE)
 81017e8:	6b7b      	ldr	r3, [r7, #52]	; 0x34
 81017ea:	681b      	ldr	r3, [r3, #0]
 81017ec:	4a56      	ldr	r2, [pc, #344]	; (8101948 <_tx_byte_pool_search+0x218>)
 81017ee:	4293      	cmp	r3, r2
 81017f0:	d113      	bne.n	810181a <_tx_byte_pool_search+0xea>
                    {

                        /* Yes, neighbor block can be merged!  This is quickly accomplished
                           by updating the current block with the next blocks pointer.  */
                        next_block_link_ptr =  TX_UCHAR_TO_INDIRECT_UCHAR_POINTER_CONVERT(next_ptr);
 81017f2:	6afb      	ldr	r3, [r7, #44]	; 0x2c
 81017f4:	62bb      	str	r3, [r7, #40]	; 0x28
                        *this_block_link_ptr =  *next_block_link_ptr;
 81017f6:	6abb      	ldr	r3, [r7, #40]	; 0x28
 81017f8:	681a      	ldr	r2, [r3, #0]
 81017fa:	6b3b      	ldr	r3, [r7, #48]	; 0x30
 81017fc:	601a      	str	r2, [r3, #0]

                        /* Reduce the fragment total.  We don't need to increase the bytes
                           available because all free headers are also included in the available
                           count.  */
                        pool_ptr -> tx_byte_pool_fragments--;
 81017fe:	687b      	ldr	r3, [r7, #4]
 8101800:	68db      	ldr	r3, [r3, #12]
 8101802:	1e5a      	subs	r2, r3, #1
 8101804:	687b      	ldr	r3, [r7, #4]
 8101806:	60da      	str	r2, [r3, #12]
                        /* Increment the number of blocks merged on this pool.  */
                        pool_ptr -> tx_byte_pool_performance_merge_count++;
#endif

                        /* See if the search pointer is affected.  */
                        if (pool_ptr -> tx_byte_pool_search ==  next_ptr)
 8101808:	687b      	ldr	r3, [r7, #4]
 810180a:	695b      	ldr	r3, [r3, #20]
 810180c:	6afa      	ldr	r2, [r7, #44]	; 0x2c
 810180e:	429a      	cmp	r2, r3
 8101810:	d114      	bne.n	810183c <_tx_byte_pool_search+0x10c>
                        {
                            /* Yes, update the search pointer.   */
                            pool_ptr -> tx_byte_pool_search =  current_ptr;
 8101812:	687b      	ldr	r3, [r7, #4]
 8101814:	6d3a      	ldr	r2, [r7, #80]	; 0x50
 8101816:	615a      	str	r2, [r3, #20]
 8101818:	e010      	b.n	810183c <_tx_byte_pool_search+0x10c>
                        }
                    }
                    else
                    {
                        /* Neighbor is not free so we can skip over it!  */
                        next_block_link_ptr =  TX_UCHAR_TO_INDIRECT_UCHAR_POINTER_CONVERT(next_ptr);
 810181a:	6afb      	ldr	r3, [r7, #44]	; 0x2c
 810181c:	62bb      	str	r3, [r7, #40]	; 0x28
                        current_ptr =  *next_block_link_ptr;
 810181e:	6abb      	ldr	r3, [r7, #40]	; 0x28
 8101820:	681b      	ldr	r3, [r3, #0]
 8101822:	653b      	str	r3, [r7, #80]	; 0x50

                        /* Decrement the examined block count to account for this one.  */
                        if (examine_blocks != ((UINT) 0))
 8101824:	6cbb      	ldr	r3, [r7, #72]	; 0x48
 8101826:	2b00      	cmp	r3, #0
 8101828:	d008      	beq.n	810183c <_tx_byte_pool_search+0x10c>
                        {
                            examine_blocks--;
 810182a:	6cbb      	ldr	r3, [r7, #72]	; 0x48
 810182c:	3b01      	subs	r3, #1
 810182e:	64bb      	str	r3, [r7, #72]	; 0x48
 8101830:	e004      	b.n	810183c <_tx_byte_pool_search+0x10c>
            }
            else
            {

                /* Block is not free, move to next block.  */
                this_block_link_ptr =  TX_UCHAR_TO_INDIRECT_UCHAR_POINTER_CONVERT(current_ptr);
 8101832:	6d3b      	ldr	r3, [r7, #80]	; 0x50
 8101834:	633b      	str	r3, [r7, #48]	; 0x30
                current_ptr =  *this_block_link_ptr;
 8101836:	6b3b      	ldr	r3, [r7, #48]	; 0x30
 8101838:	681b      	ldr	r3, [r3, #0]
 810183a:	653b      	str	r3, [r7, #80]	; 0x50
            }

            /* Another block has been searched... decrement counter.  */
            if (examine_blocks != ((UINT) 0))
 810183c:	6cbb      	ldr	r3, [r7, #72]	; 0x48
 810183e:	2b00      	cmp	r3, #0
 8101840:	d002      	beq.n	8101848 <_tx_byte_pool_search+0x118>
            {

                examine_blocks--;
 8101842:	6cbb      	ldr	r3, [r7, #72]	; 0x48
 8101844:	3b01      	subs	r3, #1
 8101846:	64bb      	str	r3, [r7, #72]	; 0x48
 8101848:	6d7b      	ldr	r3, [r7, #84]	; 0x54
 810184a:	613b      	str	r3, [r7, #16]
    __asm__ volatile ("MSR  PRIMASK,%0": : "r" (int_posture): "memory");
 810184c:	693b      	ldr	r3, [r7, #16]
 810184e:	f383 8810 	msr	PRIMASK, r3
}
 8101852:	bf00      	nop
    __asm__ volatile ("MRS  %0, PRIMASK ": "=r" (posture));
 8101854:	f3ef 8310 	mrs	r3, PRIMASK
 8101858:	61bb      	str	r3, [r7, #24]
    return(posture);
 810185a:	69bb      	ldr	r3, [r7, #24]
    int_posture = __get_interrupt_posture();
 810185c:	617b      	str	r3, [r7, #20]
    __asm__ volatile ("CPSID i" : : : "memory");
 810185e:	b672      	cpsid	i
    return(int_posture);
 8101860:	697b      	ldr	r3, [r7, #20]

            /* Restore interrupts temporarily.  */
            TX_RESTORE

            /* Disable interrupts.  */
            TX_DISABLE
 8101862:	657b      	str	r3, [r7, #84]	; 0x54

            /* Determine if anything has changed in terms of pool ownership.  */
            if (pool_ptr -> tx_byte_pool_owner != thread_ptr)
 8101864:	687b      	ldr	r3, [r7, #4]
 8101866:	6a1b      	ldr	r3, [r3, #32]
 8101868:	6bfa      	ldr	r2, [r7, #60]	; 0x3c
 810186a:	429a      	cmp	r2, r3
 810186c:	d009      	beq.n	8101882 <_tx_byte_pool_search+0x152>
            {

                /* Pool changed ownership in the brief period interrupts were
                   enabled.  Reset the search.  */
                current_ptr =      pool_ptr -> tx_byte_pool_search;
 810186e:	687b      	ldr	r3, [r7, #4]
 8101870:	695b      	ldr	r3, [r3, #20]
 8101872:	653b      	str	r3, [r7, #80]	; 0x50
                examine_blocks =   pool_ptr -> tx_byte_pool_fragments + ((UINT) 1);
 8101874:	687b      	ldr	r3, [r7, #4]
 8101876:	68db      	ldr	r3, [r3, #12]
 8101878:	3301      	adds	r3, #1
 810187a:	64bb      	str	r3, [r7, #72]	; 0x48

                /* Setup our ownership again.  */
                pool_ptr -> tx_byte_pool_owner =  thread_ptr;
 810187c:	687b      	ldr	r3, [r7, #4]
 810187e:	6bfa      	ldr	r2, [r7, #60]	; 0x3c
 8101880:	621a      	str	r2, [r3, #32]
            }
        } while(examine_blocks != ((UINT) 0));
 8101882:	6cbb      	ldr	r3, [r7, #72]	; 0x48
 8101884:	2b00      	cmp	r3, #0
 8101886:	d186      	bne.n	8101796 <_tx_byte_pool_search+0x66>
 8101888:	e000      	b.n	810188c <_tx_byte_pool_search+0x15c>
                    break;
 810188a:	bf00      	nop

        /* Determine if a block was found.  If so, determine if it needs to be
           split.  */
        if (available_bytes != ((ULONG) 0))
 810188c:	6cfb      	ldr	r3, [r7, #76]	; 0x4c
 810188e:	2b00      	cmp	r3, #0
 8101890:	d048      	beq.n	8101924 <_tx_byte_pool_search+0x1f4>
        {

            /* Determine if we need to split this block.  */
            if ((available_bytes - memory_size) >= ((ULONG) TX_BYTE_BLOCK_MIN))
 8101892:	6cfa      	ldr	r2, [r7, #76]	; 0x4c
 8101894:	683b      	ldr	r3, [r7, #0]
 8101896:	1ad3      	subs	r3, r2, r3
 8101898:	2b13      	cmp	r3, #19
 810189a:	d91e      	bls.n	81018da <_tx_byte_pool_search+0x1aa>
            {

                /* Split the block.  */
                next_ptr =  TX_UCHAR_POINTER_ADD(current_ptr, (memory_size + ((sizeof(UCHAR *)) + (sizeof(ALIGN_TYPE)))));
 810189c:	683b      	ldr	r3, [r7, #0]
 810189e:	3308      	adds	r3, #8
 81018a0:	6d3a      	ldr	r2, [r7, #80]	; 0x50
 81018a2:	4413      	add	r3, r2
 81018a4:	62fb      	str	r3, [r7, #44]	; 0x2c

                /* Setup the new free block.  */
                next_block_link_ptr =   TX_UCHAR_TO_INDIRECT_UCHAR_POINTER_CONVERT(next_ptr);
 81018a6:	6afb      	ldr	r3, [r7, #44]	; 0x2c
 81018a8:	62bb      	str	r3, [r7, #40]	; 0x28
                this_block_link_ptr =   TX_UCHAR_TO_INDIRECT_UCHAR_POINTER_CONVERT(current_ptr);
 81018aa:	6d3b      	ldr	r3, [r7, #80]	; 0x50
 81018ac:	633b      	str	r3, [r7, #48]	; 0x30
                *next_block_link_ptr =  *this_block_link_ptr;
 81018ae:	6b3b      	ldr	r3, [r7, #48]	; 0x30
 81018b0:	681a      	ldr	r2, [r3, #0]
 81018b2:	6abb      	ldr	r3, [r7, #40]	; 0x28
 81018b4:	601a      	str	r2, [r3, #0]
                work_ptr =              TX_UCHAR_POINTER_ADD(next_ptr, (sizeof(UCHAR *)));
 81018b6:	6afb      	ldr	r3, [r7, #44]	; 0x2c
 81018b8:	3304      	adds	r3, #4
 81018ba:	63bb      	str	r3, [r7, #56]	; 0x38
                free_ptr =              TX_UCHAR_TO_ALIGN_TYPE_POINTER_CONVERT(work_ptr);
 81018bc:	6bbb      	ldr	r3, [r7, #56]	; 0x38
 81018be:	637b      	str	r3, [r7, #52]	; 0x34
                *free_ptr =             TX_BYTE_BLOCK_FREE;
 81018c0:	6b7b      	ldr	r3, [r7, #52]	; 0x34
 81018c2:	4a21      	ldr	r2, [pc, #132]	; (8101948 <_tx_byte_pool_search+0x218>)
 81018c4:	601a      	str	r2, [r3, #0]

                /* Increase the total fragment counter.  */
                pool_ptr -> tx_byte_pool_fragments++;
 81018c6:	687b      	ldr	r3, [r7, #4]
 81018c8:	68db      	ldr	r3, [r3, #12]
 81018ca:	1c5a      	adds	r2, r3, #1
 81018cc:	687b      	ldr	r3, [r7, #4]
 81018ce:	60da      	str	r2, [r3, #12]

                /* Update the current pointer to point at the newly created block.  */
                *this_block_link_ptr =  next_ptr;
 81018d0:	6b3b      	ldr	r3, [r7, #48]	; 0x30
 81018d2:	6afa      	ldr	r2, [r7, #44]	; 0x2c
 81018d4:	601a      	str	r2, [r3, #0]

                /* Set available equal to memory size for subsequent calculation.  */
                available_bytes =  memory_size;
 81018d6:	683b      	ldr	r3, [r7, #0]
 81018d8:	64fb      	str	r3, [r7, #76]	; 0x4c
                pool_ptr -> tx_byte_pool_performance_split_count++;
#endif
            }

            /* In any case, mark the current block as allocated.  */
            work_ptr =              TX_UCHAR_POINTER_ADD(current_ptr, (sizeof(UCHAR *)));
 81018da:	6d3b      	ldr	r3, [r7, #80]	; 0x50
 81018dc:	3304      	adds	r3, #4
 81018de:	63bb      	str	r3, [r7, #56]	; 0x38
            this_block_link_ptr =   TX_UCHAR_TO_INDIRECT_UCHAR_POINTER_CONVERT(work_ptr);
 81018e0:	6bbb      	ldr	r3, [r7, #56]	; 0x38
 81018e2:	633b      	str	r3, [r7, #48]	; 0x30
            *this_block_link_ptr =  TX_BYTE_POOL_TO_UCHAR_POINTER_CONVERT(pool_ptr);
 81018e4:	6b3b      	ldr	r3, [r7, #48]	; 0x30
 81018e6:	687a      	ldr	r2, [r7, #4]
 81018e8:	601a      	str	r2, [r3, #0]

            /* Reduce the number of available bytes in the pool.  */
            pool_ptr -> tx_byte_pool_available =  (pool_ptr -> tx_byte_pool_available - available_bytes) - ((sizeof(UCHAR *)) + (sizeof(ALIGN_TYPE)));
 81018ea:	687b      	ldr	r3, [r7, #4]
 81018ec:	689a      	ldr	r2, [r3, #8]
 81018ee:	6cfb      	ldr	r3, [r7, #76]	; 0x4c
 81018f0:	1ad3      	subs	r3, r2, r3
 81018f2:	f1a3 0208 	sub.w	r2, r3, #8
 81018f6:	687b      	ldr	r3, [r7, #4]
 81018f8:	609a      	str	r2, [r3, #8]

            /* Determine if the search pointer needs to be updated. This is only done
               if the search pointer matches the block to be returned.  */
            if (current_ptr == pool_ptr -> tx_byte_pool_search)
 81018fa:	687b      	ldr	r3, [r7, #4]
 81018fc:	695b      	ldr	r3, [r3, #20]
 81018fe:	6d3a      	ldr	r2, [r7, #80]	; 0x50
 8101900:	429a      	cmp	r2, r3
 8101902:	d105      	bne.n	8101910 <_tx_byte_pool_search+0x1e0>
            {

                /* Yes, update the search pointer to the next block.  */
                this_block_link_ptr =   TX_UCHAR_TO_INDIRECT_UCHAR_POINTER_CONVERT(current_ptr);
 8101904:	6d3b      	ldr	r3, [r7, #80]	; 0x50
 8101906:	633b      	str	r3, [r7, #48]	; 0x30
                pool_ptr -> tx_byte_pool_search =  *this_block_link_ptr;
 8101908:	6b3b      	ldr	r3, [r7, #48]	; 0x30
 810190a:	681a      	ldr	r2, [r3, #0]
 810190c:	687b      	ldr	r3, [r7, #4]
 810190e:	615a      	str	r2, [r3, #20]
 8101910:	6d7b      	ldr	r3, [r7, #84]	; 0x54
 8101912:	60fb      	str	r3, [r7, #12]
    __asm__ volatile ("MSR  PRIMASK,%0": : "r" (int_posture): "memory");
 8101914:	68fb      	ldr	r3, [r7, #12]
 8101916:	f383 8810 	msr	PRIMASK, r3
}
 810191a:	bf00      	nop

            /* Restore interrupts.  */
            TX_RESTORE

            /* Adjust the pointer for the application.  */
            current_ptr =  TX_UCHAR_POINTER_ADD(current_ptr, (((sizeof(UCHAR *)) + (sizeof(ALIGN_TYPE)))));
 810191c:	6d3b      	ldr	r3, [r7, #80]	; 0x50
 810191e:	3308      	adds	r3, #8
 8101920:	653b      	str	r3, [r7, #80]	; 0x50
 8101922:	e007      	b.n	8101934 <_tx_byte_pool_search+0x204>
 8101924:	6d7b      	ldr	r3, [r7, #84]	; 0x54
 8101926:	60bb      	str	r3, [r7, #8]
    __asm__ volatile ("MSR  PRIMASK,%0": : "r" (int_posture): "memory");
 8101928:	68bb      	ldr	r3, [r7, #8]
 810192a:	f383 8810 	msr	PRIMASK, r3
}
 810192e:	bf00      	nop

            /* Restore interrupts.  */
            TX_RESTORE

            /* Set current pointer to NULL to indicate nothing was found.  */
            current_ptr =  TX_NULL;
 8101930:	2300      	movs	r3, #0
 8101932:	653b      	str	r3, [r7, #80]	; 0x50
        }
    }

    /* Return the search pointer.  */
    return(current_ptr);
 8101934:	6d3b      	ldr	r3, [r7, #80]	; 0x50
}
 8101936:	4618      	mov	r0, r3
 8101938:	375c      	adds	r7, #92	; 0x5c
 810193a:	46bd      	mov	sp, r7
 810193c:	f85d 7b04 	ldr.w	r7, [sp], #4
 8101940:	4770      	bx	lr
 8101942:	bf00      	nop
 8101944:	10005630 	.word	0x10005630
 8101948:	ffffeeee 	.word	0xffffeeee

0810194c <_tx_initialize_high_level>:
/*  09-30-2020     Yuxin Zhou               Modified comment(s),          */
/*                                            resulting in version 6.1    */
/*                                                                        */
/**************************************************************************/
VOID    _tx_initialize_high_level(VOID)
{
 810194c:	b580      	push	{r7, lr}
 810194e:	af00      	add	r7, sp, #0

    /* Initialize the event log, if enabled.  */
    TX_EL_INITIALIZE

    /* Call the thread control initialization function.  */
    _tx_thread_initialize();
 8101950:	f000 f960 	bl	8101c14 <_tx_thread_initialize>

#ifndef TX_NO_TIMER

    /* Call the timer control initialization function.  */
    _tx_timer_initialize();
 8101954:	f000 fd68 	bl	8102428 <_tx_timer_initialize>
#endif

#ifndef TX_DISABLE_REDUNDANT_CLEARING

    /* Call the semaphore initialization function.  */
    _tx_semaphore_initialize();
 8101958:	4b12      	ldr	r3, [pc, #72]	; (81019a4 <_tx_initialize_high_level+0x58>)
 810195a:	2200      	movs	r2, #0
 810195c:	601a      	str	r2, [r3, #0]
 810195e:	4b12      	ldr	r3, [pc, #72]	; (81019a8 <_tx_initialize_high_level+0x5c>)
 8101960:	2200      	movs	r2, #0
 8101962:	601a      	str	r2, [r3, #0]

    /* Call the queue initialization function.  */
    _tx_queue_initialize();
 8101964:	4b11      	ldr	r3, [pc, #68]	; (81019ac <_tx_initialize_high_level+0x60>)
 8101966:	2200      	movs	r2, #0
 8101968:	601a      	str	r2, [r3, #0]
 810196a:	4b11      	ldr	r3, [pc, #68]	; (81019b0 <_tx_initialize_high_level+0x64>)
 810196c:	2200      	movs	r2, #0
 810196e:	601a      	str	r2, [r3, #0]

    /* Call the event flag initialization function.  */
    _tx_event_flags_initialize();
 8101970:	4b10      	ldr	r3, [pc, #64]	; (81019b4 <_tx_initialize_high_level+0x68>)
 8101972:	2200      	movs	r2, #0
 8101974:	601a      	str	r2, [r3, #0]
 8101976:	4b10      	ldr	r3, [pc, #64]	; (81019b8 <_tx_initialize_high_level+0x6c>)
 8101978:	2200      	movs	r2, #0
 810197a:	601a      	str	r2, [r3, #0]

    /* Call the block pool initialization function.  */
    _tx_block_pool_initialize();
 810197c:	4b0f      	ldr	r3, [pc, #60]	; (81019bc <_tx_initialize_high_level+0x70>)
 810197e:	2200      	movs	r2, #0
 8101980:	601a      	str	r2, [r3, #0]
 8101982:	4b0f      	ldr	r3, [pc, #60]	; (81019c0 <_tx_initialize_high_level+0x74>)
 8101984:	2200      	movs	r2, #0
 8101986:	601a      	str	r2, [r3, #0]

    /* Call the byte pool initialization function.  */
    _tx_byte_pool_initialize();
 8101988:	4b0e      	ldr	r3, [pc, #56]	; (81019c4 <_tx_initialize_high_level+0x78>)
 810198a:	2200      	movs	r2, #0
 810198c:	601a      	str	r2, [r3, #0]
 810198e:	4b0e      	ldr	r3, [pc, #56]	; (81019c8 <_tx_initialize_high_level+0x7c>)
 8101990:	2200      	movs	r2, #0
 8101992:	601a      	str	r2, [r3, #0]

    /* Call the mutex initialization function.  */
    _tx_mutex_initialize();
 8101994:	4b0d      	ldr	r3, [pc, #52]	; (81019cc <_tx_initialize_high_level+0x80>)
 8101996:	2200      	movs	r2, #0
 8101998:	601a      	str	r2, [r3, #0]
 810199a:	4b0d      	ldr	r3, [pc, #52]	; (81019d0 <_tx_initialize_high_level+0x84>)
 810199c:	2200      	movs	r2, #0
 810199e:	601a      	str	r2, [r3, #0]
#endif
}
 81019a0:	bf00      	nop
 81019a2:	bd80      	pop	{r7, pc}
 81019a4:	100055f8 	.word	0x100055f8
 81019a8:	100055fc 	.word	0x100055fc
 81019ac:	10005600 	.word	0x10005600
 81019b0:	10005604 	.word	0x10005604
 81019b4:	10005608 	.word	0x10005608
 81019b8:	1000560c 	.word	0x1000560c
 81019bc:	10005618 	.word	0x10005618
 81019c0:	1000561c 	.word	0x1000561c
 81019c4:	10005620 	.word	0x10005620
 81019c8:	10005624 	.word	0x10005624
 81019cc:	10005610 	.word	0x10005610
 81019d0:	10005614 	.word	0x10005614

081019d4 <_tx_initialize_kernel_enter>:
/*  09-30-2020     Yuxin Zhou               Modified comment(s),          */
/*                                            resulting in version 6.1    */
/*                                                                        */
/**************************************************************************/
VOID  _tx_initialize_kernel_enter(VOID)
{
 81019d4:	b580      	push	{r7, lr}
 81019d6:	af00      	add	r7, sp, #0

    /* Determine if the compiler has pre-initialized ThreadX.  */
    if (_tx_thread_system_state != TX_INITIALIZE_ALMOST_DONE)
 81019d8:	4b10      	ldr	r3, [pc, #64]	; (8101a1c <_tx_initialize_kernel_enter+0x48>)
 81019da:	681b      	ldr	r3, [r3, #0]
 81019dc:	f113 3f0f 	cmn.w	r3, #252645135	; 0xf0f0f0f
 81019e0:	d00c      	beq.n	81019fc <_tx_initialize_kernel_enter+0x28>
        /* No, the initialization still needs to take place.  */

        /* Ensure that the system state variable is set to indicate 
           initialization is in progress.  Note that this variable is 
           later used to represent interrupt nesting.  */
        _tx_thread_system_state =  TX_INITIALIZE_IN_PROGRESS;
 81019e2:	4b0e      	ldr	r3, [pc, #56]	; (8101a1c <_tx_initialize_kernel_enter+0x48>)
 81019e4:	f04f 32f0 	mov.w	r2, #4042322160	; 0xf0f0f0f0
 81019e8:	601a      	str	r2, [r3, #0]
        /* Call any port specific preprocessing.  */
        TX_PORT_SPECIFIC_PRE_INITIALIZATION

        /* Invoke the low-level initialization to handle all processor specific
           initialization issues.  */
        _tx_initialize_low_level();
 81019ea:	f7fe fc79 	bl	81002e0 <_tx_initialize_low_level>
    
        /* Invoke the high-level initialization to exercise all of the 
           ThreadX components and the application's initialization 
           function.  */
        _tx_initialize_high_level();
 81019ee:	f7ff ffad 	bl	810194c <_tx_initialize_high_level>

        /* Call any port specific post-processing.  */
        TX_PORT_SPECIFIC_POST_INITIALIZATION
 81019f2:	4b0b      	ldr	r3, [pc, #44]	; (8101a20 <_tx_initialize_kernel_enter+0x4c>)
 81019f4:	681b      	ldr	r3, [r3, #0]
 81019f6:	3301      	adds	r3, #1
 81019f8:	4a09      	ldr	r2, [pc, #36]	; (8101a20 <_tx_initialize_kernel_enter+0x4c>)
 81019fa:	6013      	str	r3, [r2, #0]
    TX_INITIALIZE_KERNEL_ENTER_EXTENSION

    /* Ensure that the system state variable is set to indicate 
       initialization is in progress.  Note that this variable is 
       later used to represent interrupt nesting.  */
    _tx_thread_system_state =  TX_INITIALIZE_IN_PROGRESS;
 81019fc:	4b07      	ldr	r3, [pc, #28]	; (8101a1c <_tx_initialize_kernel_enter+0x48>)
 81019fe:	f04f 32f0 	mov.w	r2, #4042322160	; 0xf0f0f0f0
 8101a02:	601a      	str	r2, [r3, #0]

    /* Call the application provided initialization function.  Pass the
       first available memory address to it.  */
    tx_application_define(_tx_initialize_unused_memory);
 8101a04:	4b07      	ldr	r3, [pc, #28]	; (8101a24 <_tx_initialize_kernel_enter+0x50>)
 8101a06:	681b      	ldr	r3, [r3, #0]
 8101a08:	4618      	mov	r0, r3
 8101a0a:	f7fe fd85 	bl	8100518 <tx_application_define>

    /* Set the system state in preparation for entering the thread 
       scheduler.  */
    _tx_thread_system_state =  TX_INITIALIZE_IS_FINISHED;
 8101a0e:	4b03      	ldr	r3, [pc, #12]	; (8101a1c <_tx_initialize_kernel_enter+0x48>)
 8101a10:	2200      	movs	r2, #0
 8101a12:	601a      	str	r2, [r3, #0]

    /* Call any port specific pre-scheduler processing.  */
    TX_PORT_SPECIFIC_PRE_SCHEDULER_INITIALIZATION

    /* Enter the scheduling loop to start executing threads!  */
    _tx_thread_schedule();
 8101a14:	f7fe fca4 	bl	8100360 <_tx_thread_schedule>
#ifdef TX_SAFETY_CRITICAL

    /* If we ever get here, raise safety critical exception.  */
    TX_SAFETY_CRITICAL_EXCEPTION(__FILE__, __LINE__, 0);
#endif
}
 8101a18:	bf00      	nop
 8101a1a:	bd80      	pop	{r7, pc}
 8101a1c:	10000010 	.word	0x10000010
 8101a20:	100056c8 	.word	0x100056c8
 8101a24:	10005628 	.word	0x10005628

08101a28 <_tx_thread_create>:
/*                                                                        */
/**************************************************************************/
UINT  _tx_thread_create(TX_THREAD *thread_ptr, CHAR *name_ptr, VOID (*entry_function)(ULONG id), ULONG entry_input,
                            VOID *stack_start, ULONG stack_size, UINT priority, UINT preempt_threshold,
                            ULONG time_slice, UINT auto_start)
{
 8101a28:	b580      	push	{r7, lr}
 8101a2a:	b092      	sub	sp, #72	; 0x48
 8101a2c:	af00      	add	r7, sp, #0
 8101a2e:	60f8      	str	r0, [r7, #12]
 8101a30:	60b9      	str	r1, [r7, #8]
 8101a32:	607a      	str	r2, [r7, #4]
 8101a34:	603b      	str	r3, [r7, #0]
TX_INTERRUPT_SAVE_AREA

TX_THREAD               *next_thread;
TX_THREAD               *previous_thread;
TX_THREAD               *saved_thread_ptr;
UINT                    saved_threshold =  ((UINT) 0);
 8101a36:	2300      	movs	r3, #0
 8101a38:	643b      	str	r3, [r7, #64]	; 0x40
#ifndef TX_DISABLE_STACK_FILLING

    /* Set the thread stack to a pattern prior to creating the initial
       stack frame.  This pattern is used by the stack checking routines
       to see how much has been used.  */
    TX_MEMSET(stack_start, ((UCHAR) TX_STACK_FILL), stack_size);
 8101a3a:	6d7a      	ldr	r2, [r7, #84]	; 0x54
 8101a3c:	21ef      	movs	r1, #239	; 0xef
 8101a3e:	6d38      	ldr	r0, [r7, #80]	; 0x50
 8101a40:	f001 f930 	bl	8102ca4 <memset>

    /* Prepare the thread control block prior to placing it on the created
       list.  */

    /* Initialize thread control block to all zeros.  */
    TX_MEMSET(thread_ptr, 0, (sizeof(TX_THREAD)));
 8101a44:	22b0      	movs	r2, #176	; 0xb0
 8101a46:	2100      	movs	r1, #0
 8101a48:	68f8      	ldr	r0, [r7, #12]
 8101a4a:	f001 f92b 	bl	8102ca4 <memset>

    /* Place the supplied parameters into the thread's control block.  */
    thread_ptr -> tx_thread_name =              name_ptr;
 8101a4e:	68fb      	ldr	r3, [r7, #12]
 8101a50:	68ba      	ldr	r2, [r7, #8]
 8101a52:	629a      	str	r2, [r3, #40]	; 0x28
    thread_ptr -> tx_thread_entry =             entry_function;
 8101a54:	68fb      	ldr	r3, [r7, #12]
 8101a56:	687a      	ldr	r2, [r7, #4]
 8101a58:	645a      	str	r2, [r3, #68]	; 0x44
    thread_ptr -> tx_thread_entry_parameter =   entry_input;
 8101a5a:	68fb      	ldr	r3, [r7, #12]
 8101a5c:	683a      	ldr	r2, [r7, #0]
 8101a5e:	649a      	str	r2, [r3, #72]	; 0x48
    thread_ptr -> tx_thread_stack_start =       stack_start;
 8101a60:	68fb      	ldr	r3, [r7, #12]
 8101a62:	6d3a      	ldr	r2, [r7, #80]	; 0x50
 8101a64:	60da      	str	r2, [r3, #12]
    thread_ptr -> tx_thread_stack_size =        stack_size;
 8101a66:	68fb      	ldr	r3, [r7, #12]
 8101a68:	6d7a      	ldr	r2, [r7, #84]	; 0x54
 8101a6a:	615a      	str	r2, [r3, #20]
    thread_ptr -> tx_thread_priority =          priority;
 8101a6c:	68fb      	ldr	r3, [r7, #12]
 8101a6e:	6dba      	ldr	r2, [r7, #88]	; 0x58
 8101a70:	62da      	str	r2, [r3, #44]	; 0x2c
    thread_ptr -> tx_thread_user_priority =     priority;
 8101a72:	68fb      	ldr	r3, [r7, #12]
 8101a74:	6dba      	ldr	r2, [r7, #88]	; 0x58
 8101a76:	f8c3 2094 	str.w	r2, [r3, #148]	; 0x94
    thread_ptr -> tx_thread_time_slice =        time_slice;
 8101a7a:	68fb      	ldr	r3, [r7, #12]
 8101a7c:	6e3a      	ldr	r2, [r7, #96]	; 0x60
 8101a7e:	619a      	str	r2, [r3, #24]
    thread_ptr -> tx_thread_new_time_slice =    time_slice;
 8101a80:	68fb      	ldr	r3, [r7, #12]
 8101a82:	6e3a      	ldr	r2, [r7, #96]	; 0x60
 8101a84:	61da      	str	r2, [r3, #28]
    thread_ptr -> tx_thread_inherit_priority =  ((UINT) TX_MAX_PRIORITIES);
 8101a86:	68fb      	ldr	r3, [r7, #12]
 8101a88:	2220      	movs	r2, #32
 8101a8a:	f8c3 209c 	str.w	r2, [r3, #156]	; 0x9c

    /* Calculate the end of the thread's stack area.  */
    temp_ptr =  TX_VOID_TO_UCHAR_POINTER_CONVERT(stack_start);
 8101a8e:	6d3b      	ldr	r3, [r7, #80]	; 0x50
 8101a90:	63fb      	str	r3, [r7, #60]	; 0x3c
