Archive member included to satisfy reference by file (symbol)

c:/st/stm32cubeide_1.9.0/stm32cubeide/plugins/com.st.stm32cube.ide.mcu.externaltools.gnu-tools-for-stm32.10.3-2021.10.win32_1.0.0.202111181127/tools/bin/../lib/gcc/arm-none-eabi/10.3.1/../../../../arm-none-eabi/lib/thumb/v7e-m+fp/hard\libc_nano.a(lib_a-errno.o)
                              ./Core/Src/syscalls.o (__errno)
c:/st/stm32cubeide_1.9.0/stm32cubeide/plugins/com.st.stm32cube.ide.mcu.externaltools.gnu-tools-for-stm32.10.3-2021.10.win32_1.0.0.202111181127/tools/bin/../lib/gcc/arm-none-eabi/10.3.1/../../../../arm-none-eabi/lib/thumb/v7e-m+fp/hard\libc_nano.a(lib_a-exit.o)
                              c:/st/stm32cubeide_1.9.0/stm32cubeide/plugins/com.st.stm32cube.ide.mcu.externaltools.gnu-tools-for-stm32.10.3-2021.10.win32_1.0.0.202111181127/tools/bin/../lib/gcc/arm-none-eabi/10.3.1/../../../../arm-none-eabi/lib/thumb/v7e-m+fp/hard/crt0.o (exit)
c:/st/stm32cubeide_1.9.0/stm32cubeide/plugins/com.st.stm32cube.ide.mcu.externaltools.gnu-tools-for-stm32.10.3-2021.10.win32_1.0.0.202111181127/tools/bin/../lib/gcc/arm-none-eabi/10.3.1/../../../../arm-none-eabi/lib/thumb/v7e-m+fp/hard\libc_nano.a(lib_a-impure.o)
                              c:/st/stm32cubeide_1.9.0/stm32cubeide/plugins/com.st.stm32cube.ide.mcu.externaltools.gnu-tools-for-stm32.10.3-2021.10.win32_1.0.0.202111181127/tools/bin/../lib/gcc/arm-none-eabi/10.3.1/../../../../arm-none-eabi/lib/thumb/v7e-m+fp/hard\libc_nano.a(lib_a-exit.o) (_global_impure_ptr)
c:/st/stm32cubeide_1.9.0/stm32cubeide/plugins/com.st.stm32cube.ide.mcu.externaltools.gnu-tools-for-stm32.10.3-2021.10.win32_1.0.0.202111181127/tools/bin/../lib/gcc/arm-none-eabi/10.3.1/../../../../arm-none-eabi/lib/thumb/v7e-m+fp/hard\libc_nano.a(lib_a-init.o)
                              c:/st/stm32cubeide_1.9.0/stm32cubeide/plugins/com.st.stm32cube.ide.mcu.externaltools.gnu-tools-for-stm32.10.3-2021.10.win32_1.0.0.202111181127/tools/bin/../lib/gcc/arm-none-eabi/10.3.1/../../../../arm-none-eabi/lib/thumb/v7e-m+fp/hard/crt0.o (__libc_init_array)
c:/st/stm32cubeide_1.9.0/stm32cubeide/plugins/com.st.stm32cube.ide.mcu.externaltools.gnu-tools-for-stm32.10.3-2021.10.win32_1.0.0.202111181127/tools/bin/../lib/gcc/arm-none-eabi/10.3.1/../../../../arm-none-eabi/lib/thumb/v7e-m+fp/hard\libc_nano.a(lib_a-memcpy-stub.o)
                              ./Middlewares/FileX/File System/FileX/Core/fx_directory_create.o (memcpy)
c:/st/stm32cubeide_1.9.0/stm32cubeide/plugins/com.st.stm32cube.ide.mcu.externaltools.gnu-tools-for-stm32.10.3-2021.10.win32_1.0.0.202111181127/tools/bin/../lib/gcc/arm-none-eabi/10.3.1/../../../../arm-none-eabi/lib/thumb/v7e-m+fp/hard\libc_nano.a(lib_a-memset.o)
                              c:/st/stm32cubeide_1.9.0/stm32cubeide/plugins/com.st.stm32cube.ide.mcu.externaltools.gnu-tools-for-stm32.10.3-2021.10.win32_1.0.0.202111181127/tools/bin/../lib/gcc/arm-none-eabi/10.3.1/../../../../arm-none-eabi/lib/thumb/v7e-m+fp/hard/crt0.o (memset)
c:/st/stm32cubeide_1.9.0/stm32cubeide/plugins/com.st.stm32cube.ide.mcu.externaltools.gnu-tools-for-stm32.10.3-2021.10.win32_1.0.0.202111181127/tools/bin/../lib/gcc/arm-none-eabi/10.3.1/thumb/v7e-m+fp/hard\libgcc.a(_aeabi_uldivmod.o)
                              ./Middlewares/FileX/File System/FileX/Core/fx_file_extended_allocate.o (__aeabi_uldivmod)
c:/st/stm32cubeide_1.9.0/stm32cubeide/plugins/com.st.stm32cube.ide.mcu.externaltools.gnu-tools-for-stm32.10.3-2021.10.win32_1.0.0.202111181127/tools/bin/../lib/gcc/arm-none-eabi/10.3.1/thumb/v7e-m+fp/hard\libgcc.a(_udivmoddi4.o)
                              c:/st/stm32cubeide_1.9.0/stm32cubeide/plugins/com.st.stm32cube.ide.mcu.externaltools.gnu-tools-for-stm32.10.3-2021.10.win32_1.0.0.202111181127/tools/bin/../lib/gcc/arm-none-eabi/10.3.1/thumb/v7e-m+fp/hard\libgcc.a(_aeabi_uldivmod.o) (__udivmoddi4)
c:/st/stm32cubeide_1.9.0/stm32cubeide/plugins/com.st.stm32cube.ide.mcu.externaltools.gnu-tools-for-stm32.10.3-2021.10.win32_1.0.0.202111181127/tools/bin/../lib/gcc/arm-none-eabi/10.3.1/thumb/v7e-m+fp/hard\libgcc.a(_dvmd_tls.o)
                              c:/st/stm32cubeide_1.9.0/stm32cubeide/plugins/com.st.stm32cube.ide.mcu.externaltools.gnu-tools-for-stm32.10.3-2021.10.win32_1.0.0.202111181127/tools/bin/../lib/gcc/arm-none-eabi/10.3.1/thumb/v7e-m+fp/hard\libgcc.a(_aeabi_uldivmod.o) (__aeabi_ldiv0)

Discarded input sections

 .text          0x0000000000000000        0x0 c:/st/stm32cubeide_1.9.0/stm32cubeide/plugins/com.st.stm32cube.ide.mcu.externaltools.gnu-tools-for-stm32.10.3-2021.10.win32_1.0.0.202111181127/tools/bin/../lib/gcc/arm-none-eabi/10.3.1/thumb/v7e-m+fp/hard/crti.o
 .data          0x0000000000000000        0x0 c:/st/stm32cubeide_1.9.0/stm32cubeide/plugins/com.st.stm32cube.ide.mcu.externaltools.gnu-tools-for-stm32.10.3-2021.10.win32_1.0.0.202111181127/tools/bin/../lib/gcc/arm-none-eabi/10.3.1/thumb/v7e-m+fp/hard/crti.o
 .bss           0x0000000000000000        0x0 c:/st/stm32cubeide_1.9.0/stm32cubeide/plugins/com.st.stm32cube.ide.mcu.externaltools.gnu-tools-for-stm32.10.3-2021.10.win32_1.0.0.202111181127/tools/bin/../lib/gcc/arm-none-eabi/10.3.1/thumb/v7e-m+fp/hard/crti.o
 .data          0x0000000000000000        0x4 c:/st/stm32cubeide_1.9.0/stm32cubeide/plugins/com.st.stm32cube.ide.mcu.externaltools.gnu-tools-for-stm32.10.3-2021.10.win32_1.0.0.202111181127/tools/bin/../lib/gcc/arm-none-eabi/10.3.1/thumb/v7e-m+fp/hard/crtbegin.o
 .rodata        0x0000000000000000       0x24 c:/st/stm32cubeide_1.9.0/stm32cubeide/plugins/com.st.stm32cube.ide.mcu.externaltools.gnu-tools-for-stm32.10.3-2021.10.win32_1.0.0.202111181127/tools/bin/../lib/gcc/arm-none-eabi/10.3.1/thumb/v7e-m+fp/hard/crtbegin.o
 .text          0x0000000000000000       0x7c c:/st/stm32cubeide_1.9.0/stm32cubeide/plugins/com.st.stm32cube.ide.mcu.externaltools.gnu-tools-for-stm32.10.3-2021.10.win32_1.0.0.202111181127/tools/bin/../lib/gcc/arm-none-eabi/10.3.1/../../../../arm-none-eabi/lib/thumb/v7e-m+fp/hard/crt0.o
 .data          0x0000000000000000        0x0 c:/st/stm32cubeide_1.9.0/stm32cubeide/plugins/com.st.stm32cube.ide.mcu.externaltools.gnu-tools-for-stm32.10.3-2021.10.win32_1.0.0.202111181127/tools/bin/../lib/gcc/arm-none-eabi/10.3.1/../../../../arm-none-eabi/lib/thumb/v7e-m+fp/hard/crt0.o
 .bss           0x0000000000000000        0x0 c:/st/stm32cubeide_1.9.0/stm32cubeide/plugins/com.st.stm32cube.ide.mcu.externaltools.gnu-tools-for-stm32.10.3-2021.10.win32_1.0.0.202111181127/tools/bin/../lib/gcc/arm-none-eabi/10.3.1/../../../../arm-none-eabi/lib/thumb/v7e-m+fp/hard/crt0.o
 .ARM.extab     0x0000000000000000        0x0 c:/st/stm32cubeide_1.9.0/stm32cubeide/plugins/com.st.stm32cube.ide.mcu.externaltools.gnu-tools-for-stm32.10.3-2021.10.win32_1.0.0.202111181127/tools/bin/../lib/gcc/arm-none-eabi/10.3.1/../../../../arm-none-eabi/lib/thumb/v7e-m+fp/hard/crt0.o
 .ARM.exidx     0x0000000000000000       0x10 c:/st/stm32cubeide_1.9.0/stm32cubeide/plugins/com.st.stm32cube.ide.mcu.externaltools.gnu-tools-for-stm32.10.3-2021.10.win32_1.0.0.202111181127/tools/bin/../lib/gcc/arm-none-eabi/10.3.1/../../../../arm-none-eabi/lib/thumb/v7e-m+fp/hard/crt0.o
 .ARM.attributes
                0x0000000000000000       0x1c c:/st/stm32cubeide_1.9.0/stm32cubeide/plugins/com.st.stm32cube.ide.mcu.externaltools.gnu-tools-for-stm32.10.3-2021.10.win32_1.0.0.202111181127/tools/bin/../lib/gcc/arm-none-eabi/10.3.1/../../../../arm-none-eabi/lib/thumb/v7e-m+fp/hard/crt0.o
 .group         0x0000000000000000        0xc ./AZURE_RTOS/App/app_azure_rtos.o
 .group         0x0000000000000000        0xc ./AZURE_RTOS/App/app_azure_rtos.o
 .group         0x0000000000000000        0xc ./AZURE_RTOS/App/app_azure_rtos.o
 .group         0x0000000000000000        0xc ./AZURE_RTOS/App/app_azure_rtos.o
 .group         0x0000000000000000        0xc ./AZURE_RTOS/App/app_azure_rtos.o
 .group         0x0000000000000000        0xc ./AZURE_RTOS/App/app_azure_rtos.o
Memory Configuration

Name             Origin             Length             Attributes
FLASH            0x0000000008100000 0x0000000000100000 xr
RAM              0x0000000010000000 0x0000000000048000 xrw
*default*        0x0000000000000000 0xffffffffffffffff

Linker script and memory map

LOAD c:/st/stm32cubeide_1.9.0/stm32cubeide/plugins/com.st.stm32cube.ide.mcu.externaltools.gnu-tools-for-stm32.10.3-2021.10.win32_1.0.0.202111181127/tools/bin/../lib/gcc/arm-none-eabi/10.3.1/thumb/v7e-m+fp/hard/crti.o
LOAD c:/st/stm32cubeide_1.9.0/stm32cubeide/plugins/com.st.stm32cube.ide.mcu.externaltools.gnu-tools-for-stm32.10.3-2021.10.win32_1.0.0.202111181127/tools/bin/../lib/gcc/arm-none-eabi/10.3.1/thumb/v7e-m+fp/hard/crtbegin.o
LOAD c:/st/stm32cubeide_1.9.0/stm32cubeide/plugins/com.st.stm32cube.ide.mcu.externaltools.gnu-tools-for-stm32.10.3-2021.10.win32_1.0.0.202111181127/tools/bin/../lib/gcc/arm-none-eabi/10.3.1/../../../../arm-none-eabi/lib/thumb/v7e-m+fp/hard/crt0.o
LOAD ./AZURE_RTOS/App/app_azure_rtos.o
LOAD ./Common/Src/system_stm32h7xx_dualcore_boot_cm4_cm7.o
LOAD ./Core/Src/Application/threads_cm4.o
LOAD ./Core/Src/app_threadx.o
LOAD ./Core/Src/main.o
LOAD ./Core/Src/stm32h7xx_hal_msp.o
LOAD ./Core/Src/stm32h7xx_it.o
LOAD ./Core/Src/syscalls.o
LOAD ./Core/Src/sysmem.o
LOAD ./Core/Src/tx_initialize_low_level.o
LOAD ./Core/Startup/startup_stm32h757xihx.o
LOAD ./Drivers/STM32H7xx_HAL_Driver/stm32h7xx_hal.o
LOAD ./Drivers/STM32H7xx_HAL_Driver/stm32h7xx_hal_cortex.o
LOAD ./Drivers/STM32H7xx_HAL_Driver/stm32h7xx_hal_dma.o
LOAD ./Drivers/STM32H7xx_HAL_Driver/stm32h7xx_hal_dma_ex.o
LOAD ./Drivers/STM32H7xx_HAL_Driver/stm32h7xx_hal_exti.o
LOAD ./Drivers/STM32H7xx_HAL_Driver/stm32h7xx_hal_flash.o
LOAD ./Drivers/STM32H7xx_HAL_Driver/stm32h7xx_hal_flash_ex.o
LOAD ./Drivers/STM32H7xx_HAL_Driver/stm32h7xx_hal_gpio.o
LOAD ./Drivers/STM32H7xx_HAL_Driver/stm32h7xx_hal_hsem.o
LOAD ./Drivers/STM32H7xx_HAL_Driver/stm32h7xx_hal_i2c.o
LOAD ./Drivers/STM32H7xx_HAL_Driver/stm32h7xx_hal_i2c_ex.o
LOAD ./Drivers/STM32H7xx_HAL_Driver/stm32h7xx_hal_mdma.o
LOAD ./Drivers/STM32H7xx_HAL_Driver/stm32h7xx_hal_pwr.o
LOAD ./Drivers/STM32H7xx_HAL_Driver/stm32h7xx_hal_pwr_ex.o
LOAD ./Drivers/STM32H7xx_HAL_Driver/stm32h7xx_hal_rcc.o
LOAD ./Drivers/STM32H7xx_HAL_Driver/stm32h7xx_hal_rcc_ex.o
LOAD ./Drivers/STM32H7xx_HAL_Driver/stm32h7xx_hal_tim.o
LOAD ./Drivers/STM32H7xx_HAL_Driver/stm32h7xx_hal_tim_ex.o
LOAD ./FileX/App/app_filex.o
LOAD ./Middlewares/FileX/File System/FileX/Core/fx_directory_attributes_read.o
LOAD ./Middlewares/FileX/File System/FileX/Core/fx_directory_attributes_set.o
LOAD ./Middlewares/FileX/File System/FileX/Core/fx_directory_create.o
LOAD ./Middlewares/FileX/File System/FileX/Core/fx_directory_default_get.o
LOAD ./Middlewares/FileX/File System/FileX/Core/fx_directory_default_get_copy.o
LOAD ./Middlewares/FileX/File System/FileX/Core/fx_directory_default_set.o
LOAD ./Middlewares/FileX/File System/FileX/Core/fx_directory_delete.o
LOAD ./Middlewares/FileX/File System/FileX/Core/fx_directory_entry_read.o
LOAD ./Middlewares/FileX/File System/FileX/Core/fx_directory_entry_write.o
LOAD ./Middlewares/FileX/File System/FileX/Core/fx_directory_exFAT_entry_read.o
LOAD ./Middlewares/FileX/File System/FileX/Core/fx_directory_exFAT_entry_write.o
LOAD ./Middlewares/FileX/File System/FileX/Core/fx_directory_exFAT_free_search.o
LOAD ./Middlewares/FileX/File System/FileX/Core/fx_directory_exFAT_unicode_entry_write.o
LOAD ./Middlewares/FileX/File System/FileX/Core/fx_directory_first_entry_find.o
LOAD ./Middlewares/FileX/File System/FileX/Core/fx_directory_first_full_entry_find.o
LOAD ./Middlewares/FileX/File System/FileX/Core/fx_directory_free_search.o
LOAD ./Middlewares/FileX/File System/FileX/Core/fx_directory_information_get.o
LOAD ./Middlewares/FileX/File System/FileX/Core/fx_directory_local_path_clear.o
LOAD ./Middlewares/FileX/File System/FileX/Core/fx_directory_local_path_get.o
LOAD ./Middlewares/FileX/File System/FileX/Core/fx_directory_local_path_get_copy.o
LOAD ./Middlewares/FileX/File System/FileX/Core/fx_directory_local_path_restore.o
LOAD ./Middlewares/FileX/File System/FileX/Core/fx_directory_local_path_set.o
LOAD ./Middlewares/FileX/File System/FileX/Core/fx_directory_long_name_get.o
LOAD ./Middlewares/FileX/File System/FileX/Core/fx_directory_long_name_get_extended.o
LOAD ./Middlewares/FileX/File System/FileX/Core/fx_directory_name_extract.o
LOAD ./Middlewares/FileX/File System/FileX/Core/fx_directory_name_test.o
LOAD ./Middlewares/FileX/File System/FileX/Core/fx_directory_next_entry_find.o
LOAD ./Middlewares/FileX/File System/FileX/Core/fx_directory_next_full_entry_find.o
LOAD ./Middlewares/FileX/File System/FileX/Core/fx_directory_rename.o
LOAD ./Middlewares/FileX/File System/FileX/Core/fx_directory_search.o
LOAD ./Middlewares/FileX/File System/FileX/Core/fx_directory_short_name_get.o
LOAD ./Middlewares/FileX/File System/FileX/Core/fx_directory_short_name_get_extended.o
LOAD ./Middlewares/FileX/File System/FileX/Core/fx_fault_tolerant_add_FAT_log.o
LOAD ./Middlewares/FileX/File System/FileX/Core/fx_fault_tolerant_add_bitmap_log.o
LOAD ./Middlewares/FileX/File System/FileX/Core/fx_fault_tolerant_add_checksum_log.o
LOAD ./Middlewares/FileX/File System/FileX/Core/fx_fault_tolerant_add_dir_log.o
LOAD ./Middlewares/FileX/File System/FileX/Core/fx_fault_tolerant_apply_logs.o
LOAD ./Middlewares/FileX/File System/FileX/Core/fx_fault_tolerant_calculate_checksum.o
LOAD ./Middlewares/FileX/File System/FileX/Core/fx_fault_tolerant_cleanup_FAT_chain.o
LOAD ./Middlewares/FileX/File System/FileX/Core/fx_fault_tolerant_create_log_file.o
LOAD ./Middlewares/FileX/File System/FileX/Core/fx_fault_tolerant_enable.o
LOAD ./Middlewares/FileX/File System/FileX/Core/fx_fault_tolerant_read_FAT.o
LOAD ./Middlewares/FileX/File System/FileX/Core/fx_fault_tolerant_read_directory_sector.o
LOAD ./Middlewares/FileX/File System/FileX/Core/fx_fault_tolerant_read_log_file.o
LOAD ./Middlewares/FileX/File System/FileX/Core/fx_fault_tolerant_recover.o
LOAD ./Middlewares/FileX/File System/FileX/Core/fx_fault_tolerant_reset_log_file.o
LOAD ./Middlewares/FileX/File System/FileX/Core/fx_fault_tolerant_set_FAT_chain.o
LOAD ./Middlewares/FileX/File System/FileX/Core/fx_fault_tolerant_transaction_end.o
LOAD ./Middlewares/FileX/File System/FileX/Core/fx_fault_tolerant_transaction_fail.o
LOAD ./Middlewares/FileX/File System/FileX/Core/fx_fault_tolerant_transaction_start.o
LOAD ./Middlewares/FileX/File System/FileX/Core/fx_fault_tolerant_write_log_file.o
LOAD ./Middlewares/FileX/File System/FileX/Core/fx_file_allocate.o
LOAD ./Middlewares/FileX/File System/FileX/Core/fx_file_attributes_read.o
LOAD ./Middlewares/FileX/File System/FileX/Core/fx_file_attributes_set.o
LOAD ./Middlewares/FileX/File System/FileX/Core/fx_file_best_effort_allocate.o
LOAD ./Middlewares/FileX/File System/FileX/Core/fx_file_close.o
LOAD ./Middlewares/FileX/File System/FileX/Core/fx_file_create.o
LOAD ./Middlewares/FileX/File System/FileX/Core/fx_file_date_time_set.o
LOAD ./Middlewares/FileX/File System/FileX/Core/fx_file_delete.o
LOAD ./Middlewares/FileX/File System/FileX/Core/fx_file_extended_allocate.o
LOAD ./Middlewares/FileX/File System/FileX/Core/fx_file_extended_best_effort_allocate.o
LOAD ./Middlewares/FileX/File System/FileX/Core/fx_file_extended_relative_seek.o
LOAD ./Middlewares/FileX/File System/FileX/Core/fx_file_extended_seek.o
LOAD ./Middlewares/FileX/File System/FileX/Core/fx_file_extended_truncate.o
LOAD ./Middlewares/FileX/File System/FileX/Core/fx_file_extended_truncate_release.o
LOAD ./Middlewares/FileX/File System/FileX/Core/fx_file_open.o
LOAD ./Middlewares/FileX/File System/FileX/Core/fx_file_read.o
LOAD ./Middlewares/FileX/File System/FileX/Core/fx_file_relative_seek.o
LOAD ./Middlewares/FileX/File System/FileX/Core/fx_file_rename.o
LOAD ./Middlewares/FileX/File System/FileX/Core/fx_file_seek.o
LOAD ./Middlewares/FileX/File System/FileX/Core/fx_file_truncate.o
LOAD ./Middlewares/FileX/File System/FileX/Core/fx_file_truncate_release.o
LOAD ./Middlewares/FileX/File System/FileX/Core/fx_file_write.o
LOAD ./Middlewares/FileX/File System/FileX/Core/fx_file_write_notify_set.o
LOAD ./Middlewares/FileX/File System/FileX/Core/fx_media_abort.o
LOAD ./Middlewares/FileX/File System/FileX/Core/fx_media_boot_info_extract.o
LOAD ./Middlewares/FileX/File System/FileX/Core/fx_media_cache_invalidate.o
LOAD ./Middlewares/FileX/File System/FileX/Core/fx_media_check.o
LOAD ./Middlewares/FileX/File System/FileX/Core/fx_media_check_FAT_chain_check.o
LOAD ./Middlewares/FileX/File System/FileX/Core/fx_media_check_lost_cluster_check.o
LOAD ./Middlewares/FileX/File System/FileX/Core/fx_media_close.o
LOAD ./Middlewares/FileX/File System/FileX/Core/fx_media_close_notify_set.o
LOAD ./Middlewares/FileX/File System/FileX/Core/fx_media_exFAT_format.o
LOAD ./Middlewares/FileX/File System/FileX/Core/fx_media_extended_space_available.o
LOAD ./Middlewares/FileX/File System/FileX/Core/fx_media_flush.o
LOAD ./Middlewares/FileX/File System/FileX/Core/fx_media_format.o
LOAD ./Middlewares/FileX/File System/FileX/Core/fx_media_format_oem_name_set.o
LOAD ./Middlewares/FileX/File System/FileX/Core/fx_media_format_type_set.o
LOAD ./Middlewares/FileX/File System/FileX/Core/fx_media_format_volume_id_set.o
LOAD ./Middlewares/FileX/File System/FileX/Core/fx_media_open.o
LOAD ./Middlewares/FileX/File System/FileX/Core/fx_media_open_notify_set.o
LOAD ./Middlewares/FileX/File System/FileX/Core/fx_media_read.o
LOAD ./Middlewares/FileX/File System/FileX/Core/fx_media_space_available.o
LOAD ./Middlewares/FileX/File System/FileX/Core/fx_media_volume_get.o
LOAD ./Middlewares/FileX/File System/FileX/Core/fx_media_volume_get_extended.o
LOAD ./Middlewares/FileX/File System/FileX/Core/fx_media_volume_set.o
LOAD ./Middlewares/FileX/File System/FileX/Core/fx_media_write.o
LOAD ./Middlewares/FileX/File System/FileX/Core/fx_partition_offset_calculate.o
LOAD ./Middlewares/FileX/File System/FileX/Core/fx_system_date_get.o
LOAD ./Middlewares/FileX/File System/FileX/Core/fx_system_date_set.o
LOAD ./Middlewares/FileX/File System/FileX/Core/fx_system_initialize.o
LOAD ./Middlewares/FileX/File System/FileX/Core/fx_system_time_get.o
LOAD ./Middlewares/FileX/File System/FileX/Core/fx_system_time_set.o
LOAD ./Middlewares/FileX/File System/FileX/Core/fx_system_timer_entry.o
LOAD ./Middlewares/FileX/File System/FileX/Core/fx_unicode_directory_create.o
LOAD ./Middlewares/FileX/File System/FileX/Core/fx_unicode_directory_entry_change.o
LOAD ./Middlewares/FileX/File System/FileX/Core/fx_unicode_directory_entry_read.o
LOAD ./Middlewares/FileX/File System/FileX/Core/fx_unicode_directory_rename.o
LOAD ./Middlewares/FileX/File System/FileX/Core/fx_unicode_directory_search.o
LOAD ./Middlewares/FileX/File System/FileX/Core/fx_unicode_file_create.o
LOAD ./Middlewares/FileX/File System/FileX/Core/fx_unicode_file_rename.o
LOAD ./Middlewares/FileX/File System/FileX/Core/fx_unicode_length_get.o
LOAD ./Middlewares/FileX/File System/FileX/Core/fx_unicode_length_get_extended.o
LOAD ./Middlewares/FileX/File System/FileX/Core/fx_unicode_name_get.o
LOAD ./Middlewares/FileX/File System/FileX/Core/fx_unicode_name_get_extended.o
LOAD ./Middlewares/FileX/File System/FileX/Core/fx_unicode_short_name_get.o
LOAD ./Middlewares/FileX/File System/FileX/Core/fx_unicode_short_name_get_extended.o
LOAD ./Middlewares/FileX/File System/FileX/Core/fx_utility_16_unsigned_read.o
LOAD ./Middlewares/FileX/File System/FileX/Core/fx_utility_16_unsigned_write.o
LOAD ./Middlewares/FileX/File System/FileX/Core/fx_utility_32_unsigned_read.o
LOAD ./Middlewares/FileX/File System/FileX/Core/fx_utility_32_unsigned_write.o
LOAD ./Middlewares/FileX/File System/FileX/Core/fx_utility_64_unsigned_read.o
LOAD ./Middlewares/FileX/File System/FileX/Core/fx_utility_64_unsigned_write.o
LOAD ./Middlewares/FileX/File System/FileX/Core/fx_utility_FAT_entry_read.o
LOAD ./Middlewares/FileX/File System/FileX/Core/fx_utility_FAT_entry_write.o
LOAD ./Middlewares/FileX/File System/FileX/Core/fx_utility_FAT_flush.o
LOAD ./Middlewares/FileX/File System/FileX/Core/fx_utility_FAT_map_flush.o
LOAD ./Middlewares/FileX/File System/FileX/Core/fx_utility_FAT_sector_get.o
LOAD ./Middlewares/FileX/File System/FileX/Core/fx_utility_absolute_path_get.o
LOAD ./Middlewares/FileX/File System/FileX/Core/fx_utility_exFAT_allocate_new_cluster.o
LOAD ./Middlewares/FileX/File System/FileX/Core/fx_utility_exFAT_bitmap_cache_prepare.o
LOAD ./Middlewares/FileX/File System/FileX/Core/fx_utility_exFAT_bitmap_cache_update.o
LOAD ./Middlewares/FileX/File System/FileX/Core/fx_utility_exFAT_bitmap_flush.o
LOAD ./Middlewares/FileX/File System/FileX/Core/fx_utility_exFAT_bitmap_free_cluster_find.o
LOAD ./Middlewares/FileX/File System/FileX/Core/fx_utility_exFAT_bitmap_initialize.o
LOAD ./Middlewares/FileX/File System/FileX/Core/fx_utility_exFAT_bitmap_start_sector_get.o
LOAD ./Middlewares/FileX/File System/FileX/Core/fx_utility_exFAT_cluster_free.o
LOAD ./Middlewares/FileX/File System/FileX/Core/fx_utility_exFAT_cluster_state_get.o
LOAD ./Middlewares/FileX/File System/FileX/Core/fx_utility_exFAT_cluster_state_set.o
LOAD ./Middlewares/FileX/File System/FileX/Core/fx_utility_exFAT_geometry_check.o
LOAD ./Middlewares/FileX/File System/FileX/Core/fx_utility_exFAT_name_hash_get.o
LOAD ./Middlewares/FileX/File System/FileX/Core/fx_utility_exFAT_size_calculate.o
LOAD ./Middlewares/FileX/File System/FileX/Core/fx_utility_exFAT_system_area_checksum_verify.o
LOAD ./Middlewares/FileX/File System/FileX/Core/fx_utility_exFAT_system_area_checksum_write.o
LOAD ./Middlewares/FileX/File System/FileX/Core/fx_utility_exFAT_system_area_format.o
LOAD ./Middlewares/FileX/File System/FileX/Core/fx_utility_exFAT_system_sector_write.o
LOAD ./Middlewares/FileX/File System/FileX/Core/fx_utility_exFAT_unicode_name_hash_get.o
LOAD ./Middlewares/FileX/File System/FileX/Core/fx_utility_exFAT_upcase_table.o
LOAD ./Middlewares/FileX/File System/FileX/Core/fx_utility_logical_sector_cache_entry_read.o
LOAD ./Middlewares/FileX/File System/FileX/Core/fx_utility_logical_sector_flush.o
LOAD ./Middlewares/FileX/File System/FileX/Core/fx_utility_logical_sector_read.o
LOAD ./Middlewares/FileX/File System/FileX/Core/fx_utility_logical_sector_write.o
LOAD ./Middlewares/FileX/File System/FileX/Core/fx_utility_memory_copy.o
LOAD ./Middlewares/FileX/File System/FileX/Core/fx_utility_memory_set.o
LOAD ./Middlewares/FileX/File System/FileX/Core/fx_utility_string_length_get.o
LOAD ./Middlewares/FileX/File System/FileX/Core/fx_utility_token_length_get.o
LOAD ./Middlewares/FileX/File System/FileX/Core/fxe_directory_attributes_read.o
LOAD ./Middlewares/FileX/File System/FileX/Core/fxe_directory_attributes_set.o
LOAD ./Middlewares/FileX/File System/FileX/Core/fxe_directory_create.o
LOAD ./Middlewares/FileX/File System/FileX/Core/fxe_directory_default_get.o
LOAD ./Middlewares/FileX/File System/FileX/Core/fxe_directory_default_get_copy.o
LOAD ./Middlewares/FileX/File System/FileX/Core/fxe_directory_default_set.o
LOAD ./Middlewares/FileX/File System/FileX/Core/fxe_directory_delete.o
LOAD ./Middlewares/FileX/File System/FileX/Core/fxe_directory_first_entry_find.o
LOAD ./Middlewares/FileX/File System/FileX/Core/fxe_directory_first_full_entry_find.o
LOAD ./Middlewares/FileX/File System/FileX/Core/fxe_directory_information_get.o
LOAD ./Middlewares/FileX/File System/FileX/Core/fxe_directory_local_path_clear.o
LOAD ./Middlewares/FileX/File System/FileX/Core/fxe_directory_local_path_get.o
LOAD ./Middlewares/FileX/File System/FileX/Core/fxe_directory_local_path_get_copy.o
LOAD ./Middlewares/FileX/File System/FileX/Core/fxe_directory_local_path_restore.o
LOAD ./Middlewares/FileX/File System/FileX/Core/fxe_directory_local_path_set.o
LOAD ./Middlewares/FileX/File System/FileX/Core/fxe_directory_long_name_get.o
LOAD ./Middlewares/FileX/File System/FileX/Core/fxe_directory_long_name_get_extended.o
LOAD ./Middlewares/FileX/File System/FileX/Core/fxe_directory_name_test.o
LOAD ./Middlewares/FileX/File System/FileX/Core/fxe_directory_next_entry_find.o
LOAD ./Middlewares/FileX/File System/FileX/Core/fxe_directory_next_full_entry_find.o
LOAD ./Middlewares/FileX/File System/FileX/Core/fxe_directory_rename.o
LOAD ./Middlewares/FileX/File System/FileX/Core/fxe_directory_short_name_get.o
LOAD ./Middlewares/FileX/File System/FileX/Core/fxe_directory_short_name_get_extended.o
LOAD ./Middlewares/FileX/File System/FileX/Core/fxe_fault_tolerant_enable.o
LOAD ./Middlewares/FileX/File System/FileX/Core/fxe_file_allocate.o
LOAD ./Middlewares/FileX/File System/FileX/Core/fxe_file_attributes_read.o
LOAD ./Middlewares/FileX/File System/FileX/Core/fxe_file_attributes_set.o
LOAD ./Middlewares/FileX/File System/FileX/Core/fxe_file_best_effort_allocate.o
LOAD ./Middlewares/FileX/File System/FileX/Core/fxe_file_close.o
LOAD ./Middlewares/FileX/File System/FileX/Core/fxe_file_create.o
LOAD ./Middlewares/FileX/File System/FileX/Core/fxe_file_date_time_set.o
LOAD ./Middlewares/FileX/File System/FileX/Core/fxe_file_delete.o
LOAD ./Middlewares/FileX/File System/FileX/Core/fxe_file_extended_allocate.o
LOAD ./Middlewares/FileX/File System/FileX/Core/fxe_file_extended_best_effort_allocate.o
LOAD ./Middlewares/FileX/File System/FileX/Core/fxe_file_extended_relative_seek.o
LOAD ./Middlewares/FileX/File System/FileX/Core/fxe_file_extended_seek.o
LOAD ./Middlewares/FileX/File System/FileX/Core/fxe_file_extended_truncate.o
LOAD ./Middlewares/FileX/File System/FileX/Core/fxe_file_extended_truncate_release.o
LOAD ./Middlewares/FileX/File System/FileX/Core/fxe_file_open.o
LOAD ./Middlewares/FileX/File System/FileX/Core/fxe_file_read.o
LOAD ./Middlewares/FileX/File System/FileX/Core/fxe_file_relative_seek.o
LOAD ./Middlewares/FileX/File System/FileX/Core/fxe_file_rename.o
LOAD ./Middlewares/FileX/File System/FileX/Core/fxe_file_seek.o
LOAD ./Middlewares/FileX/File System/FileX/Core/fxe_file_truncate.o
LOAD ./Middlewares/FileX/File System/FileX/Core/fxe_file_truncate_release.o
LOAD ./Middlewares/FileX/File System/FileX/Core/fxe_file_write.o
LOAD ./Middlewares/FileX/File System/FileX/Core/fxe_file_write_notify_set.o
LOAD ./Middlewares/FileX/File System/FileX/Core/fxe_media_abort.o
LOAD ./Middlewares/FileX/File System/FileX/Core/fxe_media_cache_invalidate.o
LOAD ./Middlewares/FileX/File System/FileX/Core/fxe_media_check.o
LOAD ./Middlewares/FileX/File System/FileX/Core/fxe_media_close.o
LOAD ./Middlewares/FileX/File System/FileX/Core/fxe_media_close_notify_set.o
LOAD ./Middlewares/FileX/File System/FileX/Core/fxe_media_exFAT_format.o
LOAD ./Middlewares/FileX/File System/FileX/Core/fxe_media_extended_space_available.o
LOAD ./Middlewares/FileX/File System/FileX/Core/fxe_media_flush.o
LOAD ./Middlewares/FileX/File System/FileX/Core/fxe_media_format.o
LOAD ./Middlewares/FileX/File System/FileX/Core/fxe_media_open.o
LOAD ./Middlewares/FileX/File System/FileX/Core/fxe_media_open_notify_set.o
LOAD ./Middlewares/FileX/File System/FileX/Core/fxe_media_read.o
LOAD ./Middlewares/FileX/File System/FileX/Core/fxe_media_space_available.o
LOAD ./Middlewares/FileX/File System/FileX/Core/fxe_media_volume_get.o
LOAD ./Middlewares/FileX/File System/FileX/Core/fxe_media_volume_get_extended.o
LOAD ./Middlewares/FileX/File System/FileX/Core/fxe_media_volume_set.o
LOAD ./Middlewares/FileX/File System/FileX/Core/fxe_media_write.o
LOAD ./Middlewares/FileX/File System/FileX/Core/fxe_system_date_get.o
LOAD ./Middlewares/FileX/File System/FileX/Core/fxe_system_date_set.o
LOAD ./Middlewares/FileX/File System/FileX/Core/fxe_system_time_get.o
LOAD ./Middlewares/FileX/File System/FileX/Core/fxe_system_time_set.o
LOAD ./Middlewares/FileX/File System/FileX/Core/fxe_unicode_directory_create.o
LOAD ./Middlewares/FileX/File System/FileX/Core/fxe_unicode_directory_rename.o
LOAD ./Middlewares/FileX/File System/FileX/Core/fxe_unicode_file_create.o
LOAD ./Middlewares/FileX/File System/FileX/Core/fxe_unicode_file_rename.o
LOAD ./Middlewares/FileX/File System/FileX/Core/fxe_unicode_name_get.o
LOAD ./Middlewares/FileX/File System/FileX/Core/fxe_unicode_name_get_extended.o
LOAD ./Middlewares/FileX/File System/FileX/Core/fxe_unicode_short_name_get.o
LOAD ./Middlewares/FileX/File System/FileX/Core/fxe_unicode_short_name_get_extended.o
LOAD ./Middlewares/FileX/File System/FileX/TraceX Support/fx_trace_event_insert.o
LOAD ./Middlewares/FileX/File System/FileX/TraceX Support/fx_trace_event_update.o
LOAD ./Middlewares/FileX/File System/FileX/TraceX Support/fx_trace_object_register.o
LOAD ./Middlewares/FileX/File System/FileX/TraceX Support/fx_trace_object_unregister.o
LOAD ./Middlewares/ThreadX/RTOS/ThreadX/Core/tx_block_allocate.o
LOAD ./Middlewares/ThreadX/RTOS/ThreadX/Core/tx_block_pool_cleanup.o
LOAD ./Middlewares/ThreadX/RTOS/ThreadX/Core/tx_block_pool_create.o
LOAD ./Middlewares/ThreadX/RTOS/ThreadX/Core/tx_block_pool_delete.o
LOAD ./Middlewares/ThreadX/RTOS/ThreadX/Core/tx_block_pool_info_get.o
LOAD ./Middlewares/ThreadX/RTOS/ThreadX/Core/tx_block_pool_initialize.o
LOAD ./Middlewares/ThreadX/RTOS/ThreadX/Core/tx_block_pool_prioritize.o
LOAD ./Middlewares/ThreadX/RTOS/ThreadX/Core/tx_block_release.o
LOAD ./Middlewares/ThreadX/RTOS/ThreadX/Core/tx_byte_allocate.o
LOAD ./Middlewares/ThreadX/RTOS/ThreadX/Core/tx_byte_pool_cleanup.o
LOAD ./Middlewares/ThreadX/RTOS/ThreadX/Core/tx_byte_pool_create.o
LOAD ./Middlewares/ThreadX/RTOS/ThreadX/Core/tx_byte_pool_delete.o
LOAD ./Middlewares/ThreadX/RTOS/ThreadX/Core/tx_byte_pool_info_get.o
LOAD ./Middlewares/ThreadX/RTOS/ThreadX/Core/tx_byte_pool_initialize.o
LOAD ./Middlewares/ThreadX/RTOS/ThreadX/Core/tx_byte_pool_prioritize.o
LOAD ./Middlewares/ThreadX/RTOS/ThreadX/Core/tx_byte_pool_search.o
LOAD ./Middlewares/ThreadX/RTOS/ThreadX/Core/tx_byte_release.o
LOAD ./Middlewares/ThreadX/RTOS/ThreadX/Core/tx_event_flags_cleanup.o
LOAD ./Middlewares/ThreadX/RTOS/ThreadX/Core/tx_event_flags_create.o
LOAD ./Middlewares/ThreadX/RTOS/ThreadX/Core/tx_event_flags_delete.o
LOAD ./Middlewares/ThreadX/RTOS/ThreadX/Core/tx_event_flags_get.o
LOAD ./Middlewares/ThreadX/RTOS/ThreadX/Core/tx_event_flags_info_get.o
LOAD ./Middlewares/ThreadX/RTOS/ThreadX/Core/tx_event_flags_initialize.o
LOAD ./Middlewares/ThreadX/RTOS/ThreadX/Core/tx_event_flags_set.o
LOAD ./Middlewares/ThreadX/RTOS/ThreadX/Core/tx_event_flags_set_notify.o
LOAD ./Middlewares/ThreadX/RTOS/ThreadX/Core/tx_initialize_high_level.o
LOAD ./Middlewares/ThreadX/RTOS/ThreadX/Core/tx_initialize_kernel_enter.o
LOAD ./Middlewares/ThreadX/RTOS/ThreadX/Core/tx_initialize_kernel_setup.o
LOAD ./Middlewares/ThreadX/RTOS/ThreadX/Core/tx_mutex_cleanup.o
LOAD ./Middlewares/ThreadX/RTOS/ThreadX/Core/tx_mutex_create.o
LOAD ./Middlewares/ThreadX/RTOS/ThreadX/Core/tx_mutex_delete.o
LOAD ./Middlewares/ThreadX/RTOS/ThreadX/Core/tx_mutex_get.o
LOAD ./Middlewares/ThreadX/RTOS/ThreadX/Core/tx_mutex_info_get.o
LOAD ./Middlewares/ThreadX/RTOS/ThreadX/Core/tx_mutex_initialize.o
LOAD ./Middlewares/ThreadX/RTOS/ThreadX/Core/tx_mutex_prioritize.o
LOAD ./Middlewares/ThreadX/RTOS/ThreadX/Core/tx_mutex_priority_change.o
LOAD ./Middlewares/ThreadX/RTOS/ThreadX/Core/tx_mutex_put.o
LOAD ./Middlewares/ThreadX/RTOS/ThreadX/Core/tx_queue_cleanup.o
LOAD ./Middlewares/ThreadX/RTOS/ThreadX/Core/tx_queue_create.o
LOAD ./Middlewares/ThreadX/RTOS/ThreadX/Core/tx_queue_delete.o
LOAD ./Middlewares/ThreadX/RTOS/ThreadX/Core/tx_queue_flush.o
LOAD ./Middlewares/ThreadX/RTOS/ThreadX/Core/tx_queue_front_send.o
LOAD ./Middlewares/ThreadX/RTOS/ThreadX/Core/tx_queue_info_get.o
LOAD ./Middlewares/ThreadX/RTOS/ThreadX/Core/tx_queue_initialize.o
LOAD ./Middlewares/ThreadX/RTOS/ThreadX/Core/tx_queue_prioritize.o
LOAD ./Middlewares/ThreadX/RTOS/ThreadX/Core/tx_queue_receive.o
LOAD ./Middlewares/ThreadX/RTOS/ThreadX/Core/tx_queue_send.o
LOAD ./Middlewares/ThreadX/RTOS/ThreadX/Core/tx_queue_send_notify.o
LOAD ./Middlewares/ThreadX/RTOS/ThreadX/Core/tx_semaphore_ceiling_put.o
LOAD ./Middlewares/ThreadX/RTOS/ThreadX/Core/tx_semaphore_cleanup.o
LOAD ./Middlewares/ThreadX/RTOS/ThreadX/Core/tx_semaphore_create.o
LOAD ./Middlewares/ThreadX/RTOS/ThreadX/Core/tx_semaphore_delete.o
LOAD ./Middlewares/ThreadX/RTOS/ThreadX/Core/tx_semaphore_get.o
LOAD ./Middlewares/ThreadX/RTOS/ThreadX/Core/tx_semaphore_info_get.o
LOAD ./Middlewares/ThreadX/RTOS/ThreadX/Core/tx_semaphore_initialize.o
LOAD ./Middlewares/ThreadX/RTOS/ThreadX/Core/tx_semaphore_prioritize.o
LOAD ./Middlewares/ThreadX/RTOS/ThreadX/Core/tx_semaphore_put.o
LOAD ./Middlewares/ThreadX/RTOS/ThreadX/Core/tx_semaphore_put_notify.o
LOAD ./Middlewares/ThreadX/RTOS/ThreadX/Core/tx_thread_context_restore.o
LOAD ./Middlewares/ThreadX/RTOS/ThreadX/Core/tx_thread_context_save.o
LOAD ./Middlewares/ThreadX/RTOS/ThreadX/Core/tx_thread_create.o
LOAD ./Middlewares/ThreadX/RTOS/ThreadX/Core/tx_thread_delete.o
LOAD ./Middlewares/ThreadX/RTOS/ThreadX/Core/tx_thread_entry_exit_notify.o
LOAD ./Middlewares/ThreadX/RTOS/ThreadX/Core/tx_thread_identify.o
LOAD ./Middlewares/ThreadX/RTOS/ThreadX/Core/tx_thread_info_get.o
LOAD ./Middlewares/ThreadX/RTOS/ThreadX/Core/tx_thread_initialize.o
LOAD ./Middlewares/ThreadX/RTOS/ThreadX/Core/tx_thread_interrupt_control.o
LOAD ./Middlewares/ThreadX/RTOS/ThreadX/Core/tx_thread_preemption_change.o
LOAD ./Middlewares/ThreadX/RTOS/ThreadX/Core/tx_thread_priority_change.o
LOAD ./Middlewares/ThreadX/RTOS/ThreadX/Core/tx_thread_relinquish.o
LOAD ./Middlewares/ThreadX/RTOS/ThreadX/Core/tx_thread_reset.o
LOAD ./Middlewares/ThreadX/RTOS/ThreadX/Core/tx_thread_resume.o
LOAD ./Middlewares/ThreadX/RTOS/ThreadX/Core/tx_thread_schedule.o
LOAD ./Middlewares/ThreadX/RTOS/ThreadX/Core/tx_thread_shell_entry.o
LOAD ./Middlewares/ThreadX/RTOS/ThreadX/Core/tx_thread_sleep.o
LOAD ./Middlewares/ThreadX/RTOS/ThreadX/Core/tx_thread_stack_analyze.o
LOAD ./Middlewares/ThreadX/RTOS/ThreadX/Core/tx_thread_stack_build.o
LOAD ./Middlewares/ThreadX/RTOS/ThreadX/Core/tx_thread_stack_error_handler.o
LOAD ./Middlewares/ThreadX/RTOS/ThreadX/Core/tx_thread_stack_error_notify.o
LOAD ./Middlewares/ThreadX/RTOS/ThreadX/Core/tx_thread_suspend.o
LOAD ./Middlewares/ThreadX/RTOS/ThreadX/Core/tx_thread_system_preempt_check.o
LOAD ./Middlewares/ThreadX/RTOS/ThreadX/Core/tx_thread_system_resume.o
LOAD ./Middlewares/ThreadX/RTOS/ThreadX/Core/tx_thread_system_return.o
LOAD ./Middlewares/ThreadX/RTOS/ThreadX/Core/tx_thread_system_suspend.o
LOAD ./Middlewares/ThreadX/RTOS/ThreadX/Core/tx_thread_terminate.o
LOAD ./Middlewares/ThreadX/RTOS/ThreadX/Core/tx_thread_time_slice.o
LOAD ./Middlewares/ThreadX/RTOS/ThreadX/Core/tx_thread_time_slice_change.o
LOAD ./Middlewares/ThreadX/RTOS/ThreadX/Core/tx_thread_timeout.o
LOAD ./Middlewares/ThreadX/RTOS/ThreadX/Core/tx_thread_wait_abort.o
LOAD ./Middlewares/ThreadX/RTOS/ThreadX/Core/tx_time_get.o
LOAD ./Middlewares/ThreadX/RTOS/ThreadX/Core/tx_time_set.o
LOAD ./Middlewares/ThreadX/RTOS/ThreadX/Core/tx_timer_activate.o
LOAD ./Middlewares/ThreadX/RTOS/ThreadX/Core/tx_timer_change.o
LOAD ./Middlewares/ThreadX/RTOS/ThreadX/Core/tx_timer_create.o
LOAD ./Middlewares/ThreadX/RTOS/ThreadX/Core/tx_timer_deactivate.o
LOAD ./Middlewares/ThreadX/RTOS/ThreadX/Core/tx_timer_delete.o
LOAD ./Middlewares/ThreadX/RTOS/ThreadX/Core/tx_timer_expiration_process.o
LOAD ./Middlewares/ThreadX/RTOS/ThreadX/Core/tx_timer_info_get.o
LOAD ./Middlewares/ThreadX/RTOS/ThreadX/Core/tx_timer_initialize.o
LOAD ./Middlewares/ThreadX/RTOS/ThreadX/Core/tx_timer_interrupt.o
LOAD ./Middlewares/ThreadX/RTOS/ThreadX/Core/tx_timer_system_activate.o
LOAD ./Middlewares/ThreadX/RTOS/ThreadX/Core/tx_timer_system_deactivate.o
LOAD ./Middlewares/ThreadX/RTOS/ThreadX/Core/tx_timer_thread_entry.o
LOAD ./Middlewares/ThreadX/RTOS/ThreadX/Core/txe_block_allocate.o
LOAD ./Middlewares/ThreadX/RTOS/ThreadX/Core/txe_block_pool_create.o
LOAD ./Middlewares/ThreadX/RTOS/ThreadX/Core/txe_block_pool_delete.o
LOAD ./Middlewares/ThreadX/RTOS/ThreadX/Core/txe_block_pool_info_get.o
LOAD ./Middlewares/ThreadX/RTOS/ThreadX/Core/txe_block_pool_prioritize.o
LOAD ./Middlewares/ThreadX/RTOS/ThreadX/Core/txe_block_release.o
LOAD ./Middlewares/ThreadX/RTOS/ThreadX/Core/txe_byte_allocate.o
LOAD ./Middlewares/ThreadX/RTOS/ThreadX/Core/txe_byte_pool_create.o
LOAD ./Middlewares/ThreadX/RTOS/ThreadX/Core/txe_byte_pool_delete.o
LOAD ./Middlewares/ThreadX/RTOS/ThreadX/Core/txe_byte_pool_info_get.o
LOAD ./Middlewares/ThreadX/RTOS/ThreadX/Core/txe_byte_pool_prioritize.o
LOAD ./Middlewares/ThreadX/RTOS/ThreadX/Core/txe_byte_release.o
LOAD ./Middlewares/ThreadX/RTOS/ThreadX/Core/txe_event_flags_create.o
LOAD ./Middlewares/ThreadX/RTOS/ThreadX/Core/txe_event_flags_delete.o
LOAD ./Middlewares/ThreadX/RTOS/ThreadX/Core/txe_event_flags_get.o
LOAD ./Middlewares/ThreadX/RTOS/ThreadX/Core/txe_event_flags_info_get.o
LOAD ./Middlewares/ThreadX/RTOS/ThreadX/Core/txe_event_flags_set.o
LOAD ./Middlewares/ThreadX/RTOS/ThreadX/Core/txe_event_flags_set_notify.o
LOAD ./Middlewares/ThreadX/RTOS/ThreadX/Core/txe_mutex_create.o
LOAD ./Middlewares/ThreadX/RTOS/ThreadX/Core/txe_mutex_delete.o
LOAD ./Middlewares/ThreadX/RTOS/ThreadX/Core/txe_mutex_get.o
LOAD ./Middlewares/ThreadX/RTOS/ThreadX/Core/txe_mutex_info_get.o
LOAD ./Middlewares/ThreadX/RTOS/ThreadX/Core/txe_mutex_prioritize.o
LOAD ./Middlewares/ThreadX/RTOS/ThreadX/Core/txe_mutex_put.o
LOAD ./Middlewares/ThreadX/RTOS/ThreadX/Core/txe_queue_create.o
LOAD ./Middlewares/ThreadX/RTOS/ThreadX/Core/txe_queue_delete.o
LOAD ./Middlewares/ThreadX/RTOS/ThreadX/Core/txe_queue_flush.o
LOAD ./Middlewares/ThreadX/RTOS/ThreadX/Core/txe_queue_front_send.o
LOAD ./Middlewares/ThreadX/RTOS/ThreadX/Core/txe_queue_info_get.o
LOAD ./Middlewares/ThreadX/RTOS/ThreadX/Core/txe_queue_prioritize.o
LOAD ./Middlewares/ThreadX/RTOS/ThreadX/Core/txe_queue_receive.o
LOAD ./Middlewares/ThreadX/RTOS/ThreadX/Core/txe_queue_send.o
LOAD ./Middlewares/ThreadX/RTOS/ThreadX/Core/txe_queue_send_notify.o
LOAD ./Middlewares/ThreadX/RTOS/ThreadX/Core/txe_semaphore_ceiling_put.o
LOAD ./Middlewares/ThreadX/RTOS/ThreadX/Core/txe_semaphore_create.o
LOAD ./Middlewares/ThreadX/RTOS/ThreadX/Core/txe_semaphore_delete.o
LOAD ./Middlewares/ThreadX/RTOS/ThreadX/Core/txe_semaphore_get.o
LOAD ./Middlewares/ThreadX/RTOS/ThreadX/Core/txe_semaphore_info_get.o
LOAD ./Middlewares/ThreadX/RTOS/ThreadX/Core/txe_semaphore_prioritize.o
LOAD ./Middlewares/ThreadX/RTOS/ThreadX/Core/txe_semaphore_put.o
LOAD ./Middlewares/ThreadX/RTOS/ThreadX/Core/txe_semaphore_put_notify.o
LOAD ./Middlewares/ThreadX/RTOS/ThreadX/Core/txe_thread_create.o
LOAD ./Middlewares/ThreadX/RTOS/ThreadX/Core/txe_thread_delete.o
LOAD ./Middlewares/ThreadX/RTOS/ThreadX/Core/txe_thread_entry_exit_notify.o
LOAD ./Middlewares/ThreadX/RTOS/ThreadX/Core/txe_thread_info_get.o
LOAD ./Middlewares/ThreadX/RTOS/ThreadX/Core/txe_thread_preemption_change.o
LOAD ./Middlewares/ThreadX/RTOS/ThreadX/Core/txe_thread_priority_change.o
LOAD ./Middlewares/ThreadX/RTOS/ThreadX/Core/txe_thread_relinquish.o
LOAD ./Middlewares/ThreadX/RTOS/ThreadX/Core/txe_thread_reset.o
LOAD ./Middlewares/ThreadX/RTOS/ThreadX/Core/txe_thread_resume.o
LOAD ./Middlewares/ThreadX/RTOS/ThreadX/Core/txe_thread_suspend.o
LOAD ./Middlewares/ThreadX/RTOS/ThreadX/Core/txe_thread_terminate.o
LOAD ./Middlewares/ThreadX/RTOS/ThreadX/Core/txe_thread_time_slice_change.o
LOAD ./Middlewares/ThreadX/RTOS/ThreadX/Core/txe_thread_wait_abort.o
LOAD ./Middlewares/ThreadX/RTOS/ThreadX/Core/txe_timer_activate.o
LOAD ./Middlewares/ThreadX/RTOS/ThreadX/Core/txe_timer_change.o
LOAD ./Middlewares/ThreadX/RTOS/ThreadX/Core/txe_timer_create.o
LOAD ./Middlewares/ThreadX/RTOS/ThreadX/Core/txe_timer_deactivate.o
LOAD ./Middlewares/ThreadX/RTOS/ThreadX/Core/txe_timer_delete.o
LOAD ./Middlewares/ThreadX/RTOS/ThreadX/Core/txe_timer_info_get.o
LOAD ./Middlewares/ThreadX/RTOS/ThreadX/Low Power support/tx_low_power.o
LOAD ./Middlewares/ThreadX/RTOS/ThreadX/PerformanceInfo/tx_block_pool_performance_info_get.o
LOAD ./Middlewares/ThreadX/RTOS/ThreadX/PerformanceInfo/tx_block_pool_performance_system_info_get.o
LOAD ./Middlewares/ThreadX/RTOS/ThreadX/PerformanceInfo/tx_byte_pool_performance_info_get.o
LOAD ./Middlewares/ThreadX/RTOS/ThreadX/PerformanceInfo/tx_byte_pool_performance_system_info_get.o
LOAD ./Middlewares/ThreadX/RTOS/ThreadX/PerformanceInfo/tx_event_flags_performance_info_get.o
LOAD ./Middlewares/ThreadX/RTOS/ThreadX/PerformanceInfo/tx_event_flags_performance_system_info_get.o
LOAD ./Middlewares/ThreadX/RTOS/ThreadX/PerformanceInfo/tx_mutex_performance_info_get.o
LOAD ./Middlewares/ThreadX/RTOS/ThreadX/PerformanceInfo/tx_mutex_performance_system_info_get.o
LOAD ./Middlewares/ThreadX/RTOS/ThreadX/PerformanceInfo/tx_queue_performance_info_get.o
LOAD ./Middlewares/ThreadX/RTOS/ThreadX/PerformanceInfo/tx_queue_performance_system_info_get.o
LOAD ./Middlewares/ThreadX/RTOS/ThreadX/PerformanceInfo/tx_semaphore_performance_info_get.o
LOAD ./Middlewares/ThreadX/RTOS/ThreadX/PerformanceInfo/tx_semaphore_performance_system_info_get.o
LOAD ./Middlewares/ThreadX/RTOS/ThreadX/PerformanceInfo/tx_thread_performance_info_get.o
LOAD ./Middlewares/ThreadX/RTOS/ThreadX/PerformanceInfo/tx_thread_performance_system_info_get.o
LOAD ./Middlewares/ThreadX/RTOS/ThreadX/PerformanceInfo/tx_timer_performance_info_get.o
LOAD ./Middlewares/ThreadX/RTOS/ThreadX/PerformanceInfo/tx_timer_performance_system_info_get.o
LOAD ./Middlewares/ThreadX/RTOS/ThreadX/TraceX support/tx_trace_buffer_full_notify.o
LOAD ./Middlewares/ThreadX/RTOS/ThreadX/TraceX support/tx_trace_disable.o
LOAD ./Middlewares/ThreadX/RTOS/ThreadX/TraceX support/tx_trace_enable.o
LOAD ./Middlewares/ThreadX/RTOS/ThreadX/TraceX support/tx_trace_event_filter.o
LOAD ./Middlewares/ThreadX/RTOS/ThreadX/TraceX support/tx_trace_event_unfilter.o
LOAD ./Middlewares/ThreadX/RTOS/ThreadX/TraceX support/tx_trace_initialize.o
LOAD ./Middlewares/ThreadX/RTOS/ThreadX/TraceX support/tx_trace_interrupt_control.o
LOAD ./Middlewares/ThreadX/RTOS/ThreadX/TraceX support/tx_trace_isr_enter_insert.o
LOAD ./Middlewares/ThreadX/RTOS/ThreadX/TraceX support/tx_trace_isr_exit_insert.o
LOAD ./Middlewares/ThreadX/RTOS/ThreadX/TraceX support/tx_trace_object_register.o
LOAD ./Middlewares/ThreadX/RTOS/ThreadX/TraceX support/tx_trace_object_unregister.o
LOAD ./Middlewares/ThreadX/RTOS/ThreadX/TraceX support/tx_trace_user_event_insert.o
START GROUP
LOAD c:/st/stm32cubeide_1.9.0/stm32cubeide/plugins/com.st.stm32cube.ide.mcu.externaltools.gnu-tools-for-stm32.10.3-2021.10.win32_1.0.0.202111181127/tools/bin/../lib/gcc/arm-none-eabi/10.3.1/../../../../arm-none-eabi/lib/thumb/v7e-m+fp/hard\libc_nano.a
LOAD c:/st/stm32cubeide_1.9.0/stm32cubeide/plugins/com.st.stm32cube.ide.mcu.externaltools.gnu-tools-for-stm32.10.3-2021.10.win32_1.0.0.202111181127/tools/bin/../lib/gcc/arm-none-eabi/10.3.1/../../../../arm-none-eabi/lib/thumb/v7e-m+fp/hard\libm.a
END GROUP
START GROUP
LOAD c:/st/stm32cubeide_1.9.0/stm32cubeide/plugins/com.st.stm32cube.ide.mcu.externaltools.gnu-tools-for-stm32.10.3-2021.10.win32_1.0.0.202111181127/tools/bin/../lib/gcc/arm-none-eabi/10.3.1/thumb/v7e-m+fp/hard\libgcc.a
LOAD c:/st/stm32cubeide_1.9.0/stm32cubeide/plugins/com.st.stm32cube.ide.mcu.externaltools.gnu-tools-for-stm32.10.3-2021.10.win32_1.0.0.202111181127/tools/bin/../lib/gcc/arm-none-eabi/10.3.1/../../../../arm-none-eabi/lib/thumb/v7e-m+fp/hard\libc_nano.a
END GROUP
START GROUP
LOAD c:/st/stm32cubeide_1.9.0/stm32cubeide/plugins/com.st.stm32cube.ide.mcu.externaltools.gnu-tools-for-stm32.10.3-2021.10.win32_1.0.0.202111181127/tools/bin/../lib/gcc/arm-none-eabi/10.3.1/thumb/v7e-m+fp/hard\libgcc.a
LOAD c:/st/stm32cubeide_1.9.0/stm32cubeide/plugins/com.st.stm32cube.ide.mcu.externaltools.gnu-tools-for-stm32.10.3-2021.10.win32_1.0.0.202111181127/tools/bin/../lib/gcc/arm-none-eabi/10.3.1/../../../../arm-none-eabi/lib/thumb/v7e-m+fp/hard\libc_nano.a
LOAD c:/st/stm32cubeide_1.9.0/stm32cubeide/plugins/com.st.stm32cube.ide.mcu.externaltools.gnu-tools-for-stm32.10.3-2021.10.win32_1.0.0.202111181127/tools/bin/../lib/gcc/arm-none-eabi/10.3.1/../../../../arm-none-eabi/lib/thumb/v7e-m+fp/hard\libnosys.a
END GROUP
START GROUP
LOAD c:/st/stm32cubeide_1.9.0/stm32cubeide/plugins/com.st.stm32cube.ide.mcu.externaltools.gnu-tools-for-stm32.10.3-2021.10.win32_1.0.0.202111181127/tools/bin/../lib/gcc/arm-none-eabi/10.3.1/thumb/v7e-m+fp/hard\libgcc.a
LOAD c:/st/stm32cubeide_1.9.0/stm32cubeide/plugins/com.st.stm32cube.ide.mcu.externaltools.gnu-tools-for-stm32.10.3-2021.10.win32_1.0.0.202111181127/tools/bin/../lib/gcc/arm-none-eabi/10.3.1/../../../../arm-none-eabi/lib/thumb/v7e-m+fp/hard\libc_nano.a
LOAD c:/st/stm32cubeide_1.9.0/stm32cubeide/plugins/com.st.stm32cube.ide.mcu.externaltools.gnu-tools-for-stm32.10.3-2021.10.win32_1.0.0.202111181127/tools/bin/../lib/gcc/arm-none-eabi/10.3.1/../../../../arm-none-eabi/lib/thumb/v7e-m+fp/hard\libnosys.a
END GROUP
LOAD c:/st/stm32cubeide_1.9.0/stm32cubeide/plugins/com.st.stm32cube.ide.mcu.externaltools.gnu-tools-for-stm32.10.3-2021.10.win32_1.0.0.202111181127/tools/bin/../lib/gcc/arm-none-eabi/10.3.1/thumb/v7e-m+fp/hard/crtend.o
LOAD c:/st/stm32cubeide_1.9.0/stm32cubeide/plugins/com.st.stm32cube.ide.mcu.externaltools.gnu-tools-for-stm32.10.3-2021.10.win32_1.0.0.202111181127/tools/bin/../lib/gcc/arm-none-eabi/10.3.1/thumb/v7e-m+fp/hard/crtn.o
                0x0000000010048000                _estack = (ORIGIN (RAM) + LENGTH (RAM))
                0x0000000000000200                _Min_Heap_Size = 0x200
                0x0000000000000400                _Min_Stack_Size = 0x400

.isr_vector     0x0000000008100000      0x298
                0x0000000008100000                . = ALIGN (0x4)
 *(.isr_vector)
 .isr_vector    0x0000000008100000      0x298 ./Core/Startup/startup_stm32h757xihx.o
                0x0000000008100000                g_pfnVectors
                0x0000000008100298                . = ALIGN (0x4)

.text           0x00000000081002a0     0x2a2c
                0x00000000081002a0                . = ALIGN (0x4)
 *(.text)
 .text          0x00000000081002a0       0x40 c:/st/stm32cubeide_1.9.0/stm32cubeide/plugins/com.st.stm32cube.ide.mcu.externaltools.gnu-tools-for-stm32.10.3-2021.10.win32_1.0.0.202111181127/tools/bin/../lib/gcc/arm-none-eabi/10.3.1/thumb/v7e-m+fp/hard/crtbegin.o
 .text          0x00000000081002e0       0x80 ./Core/Src/tx_initialize_low_level.o
                0x00000000081002e0                _tx_initialize_low_level
                0x0000000008100324                __tx_BadHandler
                0x0000000008100328                __tx_HardfaultHandler
                0x000000000810032c                __tx_SVCallHandler
                0x0000000008100330                __tx_IntHandler
                0x0000000008100338                __tx_SysTickHandler
                0x0000000008100338                SysTick_Handler
                0x0000000008100344                __tx_NMIHandler
                0x0000000008100348                __tx_DBGHandler
 .text          0x0000000008100360       0xc0 ./Middlewares/ThreadX/RTOS/ThreadX/Core/tx_thread_schedule.o
                0x0000000008100360                _tx_thread_schedule
                0x000000000810038c                PendSV_Handler
                0x000000000810038c                __tx_PendSVHandler
                0x000000000810040e                tx_thread_fpu_disable
                0x000000000810040e                tx_thread_fpu_enable
 .text          0x0000000008100420       0x40 ./Middlewares/ThreadX/RTOS/ThreadX/Core/tx_thread_stack_build.o
                0x0000000008100420                _tx_thread_stack_build
 .text          0x0000000008100460       0xb8 ./Middlewares/ThreadX/RTOS/ThreadX/Core/tx_timer_interrupt.o
                0x0000000008100460                _tx_timer_interrupt
 *(.text*)
 .text.tx_application_define
                0x0000000008100518       0x6c ./AZURE_RTOS/App/app_azure_rtos.o
                0x0000000008100518                tx_application_define
 .text.SystemInit
                0x0000000008100584       0x38 ./Common/Src/system_stm32h7xx_dualcore_boot_cm4_cm7.o
                0x0000000008100584                SystemInit
 .text.Create_App_Threads
                0x00000000081005bc       0xa0 ./Core/Src/Application/threads_cm4.o
                0x00000000081005bc                Create_App_Threads
 .text.LED_thred_entry
                0x000000000810065c       0x18 ./Core/Src/Application/threads_cm4.o
 .text.Ideal_thred_entry
                0x0000000008100674       0x18 ./Core/Src/Application/threads_cm4.o
 .text.App_ThreadX_Init
                0x000000000810068c       0x20 ./Core/Src/app_threadx.o
                0x000000000810068c                App_ThreadX_Init
 .text.MX_ThreadX_Init
                0x00000000081006ac        0xc ./Core/Src/app_threadx.o
                0x00000000081006ac                MX_ThreadX_Init
 .text.main     0x00000000081006b8       0x84 ./Core/Src/main.o
                0x00000000081006b8                main
 .text.MX_GPIO_Init
                0x000000000810073c       0x68 ./Core/Src/main.o
 .text.HAL_MspInit
                0x00000000081007a4       0x34 ./Core/Src/stm32h7xx_hal_msp.o
                0x00000000081007a4                HAL_MspInit
 .text.NMI_Handler
                0x00000000081007d8        0x6 ./Core/Src/stm32h7xx_it.o
                0x00000000081007d8                NMI_Handler
 .text.HardFault_Handler
                0x00000000081007de        0x6 ./Core/Src/stm32h7xx_it.o
                0x00000000081007de                HardFault_Handler
 .text.MemManage_Handler
                0x00000000081007e4        0x6 ./Core/Src/stm32h7xx_it.o
                0x00000000081007e4                MemManage_Handler
 .text.BusFault_Handler
                0x00000000081007ea        0x6 ./Core/Src/stm32h7xx_it.o
                0x00000000081007ea                BusFault_Handler
 .text.UsageFault_Handler
                0x00000000081007f0        0x6 ./Core/Src/stm32h7xx_it.o
                0x00000000081007f0                UsageFault_Handler
 .text.DebugMon_Handler
                0x00000000081007f6        0xe ./Core/Src/stm32h7xx_it.o
                0x00000000081007f6                DebugMon_Handler
 .text.Reset_Handler
                0x0000000008100804       0x50 ./Core/Startup/startup_stm32h757xihx.o
                0x0000000008100804                Reset_Handler
 .text.Default_Handler
                0x0000000008100854        0x2 ./Core/Startup/startup_stm32h757xihx.o
                0x0000000008100854                RTC_Alarm_IRQHandler
                0x0000000008100854                HASH_RNG_IRQHandler
                0x0000000008100854                EXTI2_IRQHandler
                0x0000000008100854                TIM8_CC_IRQHandler
                0x0000000008100854                HRTIM1_Master_IRQHandler
                0x0000000008100854                UART8_IRQHandler
                0x0000000008100854                SPI4_IRQHandler
                0x0000000008100854                TIM1_CC_IRQHandler
                0x0000000008100854                BDMA_Channel6_IRQHandler
                0x0000000008100854                DMA2_Stream5_IRQHandler
                0x0000000008100854                HRTIM1_FLT_IRQHandler
                0x0000000008100854                JPEG_IRQHandler
                0x0000000008100854                DMA1_Stream5_IRQHandler
                0x0000000008100854                BDMA_Channel1_IRQHandler
                0x0000000008100854                HRTIM1_TIMD_IRQHandler
                0x0000000008100854                TAMP_STAMP_IRQHandler
                0x0000000008100854                EXTI3_IRQHandler
                0x0000000008100854                LPTIM4_IRQHandler
                0x0000000008100854                TIM8_TRG_COM_TIM14_IRQHandler
                0x0000000008100854                LPTIM2_IRQHandler
                0x0000000008100854                DFSDM1_FLT1_IRQHandler
                0x0000000008100854                DMAMUX2_OVR_IRQHandler
                0x0000000008100854                TIM8_UP_TIM13_IRQHandler
                0x0000000008100854                I2C3_ER_IRQHandler
                0x0000000008100854                DFSDM1_FLT2_IRQHandler
                0x0000000008100854                MDMA_IRQHandler
                0x0000000008100854                LPTIM3_IRQHandler
                0x0000000008100854                HSEM1_IRQHandler
                0x0000000008100854                EXTI0_IRQHandler
                0x0000000008100854                I2C2_EV_IRQHandler
                0x0000000008100854                DMA1_Stream2_IRQHandler
                0x0000000008100854                FPU_IRQHandler
                0x0000000008100854                OTG_HS_WKUP_IRQHandler
                0x0000000008100854                FDCAN1_IT1_IRQHandler
                0x0000000008100854                LTDC_ER_IRQHandler
                0x0000000008100854                DMA2_Stream2_IRQHandler
                0x0000000008100854                HRTIM1_TIME_IRQHandler
                0x0000000008100854                SPI1_IRQHandler
                0x0000000008100854                TIM6_DAC_IRQHandler
                0x0000000008100854                DCMI_IRQHandler
                0x0000000008100854                HRTIM1_TIMC_IRQHandler
                0x0000000008100854                DMA2_Stream3_IRQHandler
                0x0000000008100854                SAI2_IRQHandler
                0x0000000008100854                DFSDM1_FLT3_IRQHandler
                0x0000000008100854                USART6_IRQHandler
                0x0000000008100854                TIM17_IRQHandler
                0x0000000008100854                USART3_IRQHandler
                0x0000000008100854                BDMA_Channel7_IRQHandler
                0x0000000008100854                CRYP_IRQHandler
                0x0000000008100854                LPTIM5_IRQHandler
                0x0000000008100854                UART5_IRQHandler
                0x0000000008100854                ADC3_IRQHandler
                0x0000000008100854                DMA2_Stream0_IRQHandler
                0x0000000008100854                TIM4_IRQHandler
                0x0000000008100854                BDMA_Channel2_IRQHandler
                0x0000000008100854                QUADSPI_IRQHandler
                0x0000000008100854                I2C1_EV_IRQHandler
                0x0000000008100854                DMA1_Stream6_IRQHandler
                0x0000000008100854                DMAMUX1_OVR_IRQHandler
                0x0000000008100854                DMA1_Stream1_IRQHandler
                0x0000000008100854                TIM16_IRQHandler
                0x0000000008100854                UART4_IRQHandler
                0x0000000008100854                BDMA_Channel5_IRQHandler
                0x0000000008100854                TIM3_IRQHandler
                0x0000000008100854                RCC_IRQHandler
                0x0000000008100854                TIM8_BRK_TIM12_IRQHandler
                0x0000000008100854                TIM1_TRG_COM_IRQHandler
                0x0000000008100854                Default_Handler
                0x0000000008100854                ECC_IRQHandler
                0x0000000008100854                CEC_IRQHandler
                0x0000000008100854                EXTI15_10_IRQHandler
                0x0000000008100854                BDMA_Channel0_IRQHandler
                0x0000000008100854                ADC_IRQHandler
                0x0000000008100854                DMA1_Stream7_IRQHandler
                0x0000000008100854                HRTIM1_TIMA_IRQHandler
                0x0000000008100854                SPI5_IRQHandler
                0x0000000008100854                TIM7_IRQHandler
                0x0000000008100854                SDMMC1_IRQHandler
                0x0000000008100854                TIM5_IRQHandler
                0x0000000008100854                DMA2_Stream7_IRQHandler
                0x0000000008100854                TIM15_IRQHandler
                0x0000000008100854                PVD_AVD_IRQHandler
                0x0000000008100854                I2C3_EV_IRQHandler
                0x0000000008100854                EXTI9_5_IRQHandler
                0x0000000008100854                RTC_WKUP_IRQHandler
                0x0000000008100854                LTDC_IRQHandler
                0x0000000008100854                SAI3_IRQHandler
                0x0000000008100854                ETH_WKUP_IRQHandler
                0x0000000008100854                SPDIF_RX_IRQHandler
                0x0000000008100854                SPI2_IRQHandler
                0x0000000008100854                OTG_HS_EP1_IN_IRQHandler
                0x0000000008100854                DMA1_Stream0_IRQHandler
                0x0000000008100854                SVC_Handler
                0x0000000008100854                CRS_IRQHandler
                0x0000000008100854                CM7_SEV_IRQHandler
                0x0000000008100854                EXTI4_IRQHandler
                0x0000000008100854                CM4_SEV_IRQHandler
                0x0000000008100854                HRTIM1_TIMB_IRQHandler
                0x0000000008100854                FDCAN2_IT1_IRQHandler
                0x0000000008100854                DSI_IRQHandler
                0x0000000008100854                ETH_IRQHandler
                0x0000000008100854                TIM1_UP_IRQHandler
                0x0000000008100854                WWDG_RST_IRQHandler
                0x0000000008100854                BDMA_Channel4_IRQHandler
                0x0000000008100854                OTG_HS_EP1_OUT_IRQHandler
                0x0000000008100854                WWDG_IRQHandler
                0x0000000008100854                SPI6_IRQHandler
                0x0000000008100854                MDIOS_IRQHandler
                0x0000000008100854                I2C4_EV_IRQHandler
                0x0000000008100854                FDCAN2_IT0_IRQHandler
                0x0000000008100854                LPUART1_IRQHandler
                0x0000000008100854                FDCAN1_IT0_IRQHandler
                0x0000000008100854                TIM2_IRQHandler
                0x0000000008100854                OTG_FS_WKUP_IRQHandler
                0x0000000008100854                OTG_HS_IRQHandler
                0x0000000008100854                HSEM2_IRQHandler
                0x0000000008100854                DMA2D_IRQHandler
                0x0000000008100854                TIM1_BRK_IRQHandler
                0x0000000008100854                EXTI1_IRQHandler
                0x0000000008100854                SDMMC2_IRQHandler
                0x0000000008100854                OTG_FS_EP1_OUT_IRQHandler
                0x0000000008100854                BDMA_Channel3_IRQHandler
                0x0000000008100854                HOLD_CORE_IRQHandler
                0x0000000008100854                UART7_IRQHandler
                0x0000000008100854                MDIOS_WKUP_IRQHandler
                0x0000000008100854                USART2_IRQHandler
                0x0000000008100854                DFSDM1_FLT0_IRQHandler
                0x0000000008100854                SAI4_IRQHandler
                0x0000000008100854                I2C2_ER_IRQHandler
                0x0000000008100854                DMA2_Stream1_IRQHandler
                0x0000000008100854                FLASH_IRQHandler
                0x0000000008100854                DMA2_Stream4_IRQHandler
                0x0000000008100854                USART1_IRQHandler
                0x0000000008100854                OTG_FS_IRQHandler
                0x0000000008100854                SPI3_IRQHandler
                0x0000000008100854                WAKEUP_PIN_IRQHandler
                0x0000000008100854                DMA1_Stream4_IRQHandler
                0x0000000008100854                OTG_FS_EP1_IN_IRQHandler
                0x0000000008100854                I2C1_ER_IRQHandler
                0x0000000008100854                FMC_IRQHandler
                0x0000000008100854                FDCAN_CAL_IRQHandler
                0x0000000008100854                SWPMI1_IRQHandler
                0x0000000008100854                COMP1_IRQHandler
                0x0000000008100854                LPTIM1_IRQHandler
                0x0000000008100854                I2C4_ER_IRQHandler
                0x0000000008100854                DMA2_Stream6_IRQHandler
                0x0000000008100854                SAI1_IRQHandler
                0x0000000008100854                DMA1_Stream3_IRQHandler
 *fill*         0x0000000008100856        0x2 
 .text.HAL_Init
                0x0000000008100858       0xbc ./Drivers/STM32H7xx_HAL_Driver/stm32h7xx_hal.o
                0x0000000008100858                HAL_Init
 .text.HAL_InitTick
                0x0000000008100914       0x6c ./Drivers/STM32H7xx_HAL_Driver/stm32h7xx_hal.o
                0x0000000008100914                HAL_InitTick
 .text.__NVIC_SetPriorityGrouping
                0x0000000008100980       0x48 ./Drivers/STM32H7xx_HAL_Driver/stm32h7xx_hal_cortex.o
 .text.__NVIC_GetPriorityGrouping
                0x00000000081009c8       0x1c ./Drivers/STM32H7xx_HAL_Driver/stm32h7xx_hal_cortex.o
 .text.__NVIC_SetPriority
                0x00000000081009e4       0x54 ./Drivers/STM32H7xx_HAL_Driver/stm32h7xx_hal_cortex.o
 .text.NVIC_EncodePriority
                0x0000000008100a38       0x66 ./Drivers/STM32H7xx_HAL_Driver/stm32h7xx_hal_cortex.o
 *fill*         0x0000000008100a9e        0x2 
 .text.SysTick_Config
                0x0000000008100aa0       0x44 ./Drivers/STM32H7xx_HAL_Driver/stm32h7xx_hal_cortex.o
 .text.HAL_NVIC_SetPriorityGrouping
                0x0000000008100ae4       0x16 ./Drivers/STM32H7xx_HAL_Driver/stm32h7xx_hal_cortex.o
                0x0000000008100ae4                HAL_NVIC_SetPriorityGrouping
 .text.HAL_NVIC_SetPriority
                0x0000000008100afa       0x34 ./Drivers/STM32H7xx_HAL_Driver/stm32h7xx_hal_cortex.o
                0x0000000008100afa                HAL_NVIC_SetPriority
 .text.HAL_SYSTICK_Config
                0x0000000008100b2e       0x18 ./Drivers/STM32H7xx_HAL_Driver/stm32h7xx_hal_cortex.o
                0x0000000008100b2e                HAL_SYSTICK_Config
 *fill*         0x0000000008100b46        0x2 
 .text.HAL_GetCurrentCPUID
                0x0000000008100b48       0x28 ./Drivers/STM32H7xx_HAL_Driver/stm32h7xx_hal_cortex.o
                0x0000000008100b48                HAL_GetCurrentCPUID
 .text.HAL_GPIO_Init
                0x0000000008100b70      0x360 ./Drivers/STM32H7xx_HAL_Driver/stm32h7xx_hal_gpio.o
                0x0000000008100b70                HAL_GPIO_Init
 .text.HAL_GPIO_WritePin
                0x0000000008100ed0       0x32 ./Drivers/STM32H7xx_HAL_Driver/stm32h7xx_hal_gpio.o
                0x0000000008100ed0                HAL_GPIO_WritePin
 .text.HAL_GPIO_TogglePin
                0x0000000008100f02       0x34 ./Drivers/STM32H7xx_HAL_Driver/stm32h7xx_hal_gpio.o
                0x0000000008100f02                HAL_GPIO_TogglePin
 *fill*         0x0000000008100f36        0x2 
 .text.HAL_HSEM_ActivateNotification
                0x0000000008100f38       0x24 ./Drivers/STM32H7xx_HAL_Driver/stm32h7xx_hal_hsem.o
                0x0000000008100f38                HAL_HSEM_ActivateNotification
 .text.HAL_PWREx_EnterSTOPMode
                0x0000000008100f5c       0xf4 ./Drivers/STM32H7xx_HAL_Driver/stm32h7xx_hal_pwr_ex.o
                0x0000000008100f5c                HAL_PWREx_EnterSTOPMode
 .text.HAL_PWREx_ClearPendingEvent
                0x0000000008101050       0x1a ./Drivers/STM32H7xx_HAL_Driver/stm32h7xx_hal_pwr_ex.o
                0x0000000008101050                HAL_PWREx_ClearPendingEvent
 *fill*         0x000000000810106a        0x2 
 .text.HAL_RCC_GetSysClockFreq
                0x000000000810106c      0x2f4 ./Drivers/STM32H7xx_HAL_Driver/stm32h7xx_hal_rcc.o
                0x000000000810106c                HAL_RCC_GetSysClockFreq
 .text.MX_FileX_Init
                0x0000000008101360       0x1e ./FileX/App/app_filex.o
                0x0000000008101360                MX_FileX_Init
 *fill*         0x000000000810137e        0x2 
 .text._tx_byte_allocate
                0x0000000008101380      0x18c ./Middlewares/ThreadX/RTOS/ThreadX/Core/tx_byte_allocate.o
                0x0000000008101380                _tx_byte_allocate
 .text._tx_byte_pool_cleanup
                0x000000000810150c       0xf8 ./Middlewares/ThreadX/RTOS/ThreadX/Core/tx_byte_pool_cleanup.o
                0x000000000810150c                _tx_byte_pool_cleanup
 .text._tx_byte_pool_create
                0x0000000008101604      0x12c ./Middlewares/ThreadX/RTOS/ThreadX/Core/tx_byte_pool_create.o
                0x0000000008101604                _tx_byte_pool_create
 .text._tx_byte_pool_search
                0x0000000008101730      0x21c ./Middlewares/ThreadX/RTOS/ThreadX/Core/tx_byte_pool_search.o
                0x0000000008101730                _tx_byte_pool_search
 .text._tx_initialize_high_level
                0x000000000810194c       0x88 ./Middlewares/ThreadX/RTOS/ThreadX/Core/tx_initialize_high_level.o
                0x000000000810194c                _tx_initialize_high_level
 .text._tx_initialize_kernel_enter
                0x00000000081019d4       0x54 ./Middlewares/ThreadX/RTOS/ThreadX/Core/tx_initialize_kernel_enter.o
                0x00000000081019d4                _tx_initialize_kernel_enter
 .text._tx_thread_create
                0x0000000008101a28      0x1ec ./Middlewares/ThreadX/RTOS/ThreadX/Core/tx_thread_create.o
                0x0000000008101a28                _tx_thread_create
 .text._tx_thread_initialize
                0x0000000008101c14       0x78 ./Middlewares/ThreadX/RTOS/ThreadX/Core/tx_thread_initialize.o
                0x0000000008101c14                _tx_thread_initialize
 .text._tx_thread_shell_entry
                0x0000000008101c8c       0x98 ./Middlewares/ThreadX/RTOS/ThreadX/Core/tx_thread_shell_entry.o
                0x0000000008101c8c                _tx_thread_shell_entry
 .text._tx_thread_sleep
                0x0000000008101d24      0x100 ./Middlewares/ThreadX/RTOS/ThreadX/Core/tx_thread_sleep.o
                0x0000000008101d24                _tx_thread_sleep
 .text._tx_thread_system_preempt_check
                0x0000000008101e24       0x74 ./Middlewares/ThreadX/RTOS/ThreadX/Core/tx_thread_system_preempt_check.o
                0x0000000008101e24                _tx_thread_system_preempt_check
 .text._tx_thread_system_resume
                0x0000000008101e98      0x200 ./Middlewares/ThreadX/RTOS/ThreadX/Core/tx_thread_system_resume.o
                0x0000000008101e98                _tx_thread_system_resume
 .text._tx_thread_system_suspend
                0x0000000008102098      0x230 ./Middlewares/ThreadX/RTOS/ThreadX/Core/tx_thread_system_suspend.o
                0x0000000008102098                _tx_thread_system_suspend
 .text._tx_thread_time_slice
                0x00000000081022c8       0xa4 ./Middlewares/ThreadX/RTOS/ThreadX/Core/tx_thread_time_slice.o
                0x00000000081022c8                _tx_thread_time_slice
 .text._tx_thread_timeout
                0x000000000810236c       0x78 ./Middlewares/ThreadX/RTOS/ThreadX/Core/tx_thread_timeout.o
                0x000000000810236c                _tx_thread_timeout
 .text._tx_timer_expiration_process
                0x00000000081023e4       0x44 ./Middlewares/ThreadX/RTOS/ThreadX/Core/tx_timer_expiration_process.o
                0x00000000081023e4                _tx_timer_expiration_process
 .text._tx_timer_initialize
                0x0000000008102428       0xf8 ./Middlewares/ThreadX/RTOS/ThreadX/Core/tx_timer_initialize.o
                0x0000000008102428                _tx_timer_initialize
 .text._tx_timer_system_activate
                0x0000000008102520       0xc4 ./Middlewares/ThreadX/RTOS/ThreadX/Core/tx_timer_system_activate.o
                0x0000000008102520                _tx_timer_system_activate
 .text._tx_timer_system_deactivate
                0x00000000081025e4       0x6e ./Middlewares/ThreadX/RTOS/ThreadX/Core/tx_timer_system_deactivate.o
                0x00000000081025e4                _tx_timer_system_deactivate
 *fill*         0x0000000008102652        0x2 
 .text._tx_timer_thread_entry
                0x0000000008102654      0x1fc ./Middlewares/ThreadX/RTOS/ThreadX/Core/tx_timer_thread_entry.o
                0x0000000008102654                _tx_timer_thread_entry
 .text._txe_byte_allocate
                0x0000000008102850       0xe8 ./Middlewares/ThreadX/RTOS/ThreadX/Core/txe_byte_allocate.o
                0x0000000008102850                _txe_byte_allocate
 .text._txe_byte_pool_create
                0x0000000008102938      0x140 ./Middlewares/ThreadX/RTOS/ThreadX/Core/txe_byte_pool_create.o
                0x0000000008102938                _txe_byte_pool_create
 .text._txe_thread_create
                0x0000000008102a78      0x1e4 ./Middlewares/ThreadX/RTOS/ThreadX/Core/txe_thread_create.o
                0x0000000008102a78                _txe_thread_create
 .text.__libc_init_array
                0x0000000008102c5c       0x48 c:/st/stm32cubeide_1.9.0/stm32cubeide/plugins/com.st.stm32cube.ide.mcu.externaltools.gnu-tools-for-stm32.10.3-2021.10.win32_1.0.0.202111181127/tools/bin/../lib/gcc/arm-none-eabi/10.3.1/../../../../arm-none-eabi/lib/thumb/v7e-m+fp/hard\libc_nano.a(lib_a-init.o)
                0x0000000008102c5c                __libc_init_array
 .text.memset   0x0000000008102ca4       0x10 c:/st/stm32cubeide_1.9.0/stm32cubeide/plugins/com.st.stm32cube.ide.mcu.externaltools.gnu-tools-for-stm32.10.3-2021.10.win32_1.0.0.202111181127/tools/bin/../lib/gcc/arm-none-eabi/10.3.1/../../../../arm-none-eabi/lib/thumb/v7e-m+fp/hard\libc_nano.a(lib_a-memset.o)
                0x0000000008102ca4                memset
 *(.glue_7)
 .glue_7        0x0000000008102cb4        0x0 linker stubs
 *(.glue_7t)
 .glue_7t       0x0000000008102cb4        0x0 linker stubs
 *(.eh_frame)
 .eh_frame      0x0000000008102cb4        0x0 c:/st/stm32cubeide_1.9.0/stm32cubeide/plugins/com.st.stm32cube.ide.mcu.externaltools.gnu-tools-for-stm32.10.3-2021.10.win32_1.0.0.202111181127/tools/bin/../lib/gcc/arm-none-eabi/10.3.1/thumb/v7e-m+fp/hard/crtbegin.o
 *(.init)
 .init          0x0000000008102cb4        0x4 c:/st/stm32cubeide_1.9.0/stm32cubeide/plugins/com.st.stm32cube.ide.mcu.externaltools.gnu-tools-for-stm32.10.3-2021.10.win32_1.0.0.202111181127/tools/bin/../lib/gcc/arm-none-eabi/10.3.1/thumb/v7e-m+fp/hard/crti.o
                0x0000000008102cb4                _init
 .init          0x0000000008102cb8        0x8 c:/st/stm32cubeide_1.9.0/stm32cubeide/plugins/com.st.stm32cube.ide.mcu.externaltools.gnu-tools-for-stm32.10.3-2021.10.win32_1.0.0.202111181127/tools/bin/../lib/gcc/arm-none-eabi/10.3.1/thumb/v7e-m+fp/hard/crtn.o
 *(.fini)
 .fini          0x0000000008102cc0        0x4 c:/st/stm32cubeide_1.9.0/stm32cubeide/plugins/com.st.stm32cube.ide.mcu.externaltools.gnu-tools-for-stm32.10.3-2021.10.win32_1.0.0.202111181127/tools/bin/../lib/gcc/arm-none-eabi/10.3.1/thumb/v7e-m+fp/hard/crti.o
                0x0000000008102cc0                _fini
 .fini          0x0000000008102cc4        0x8 c:/st/stm32cubeide_1.9.0/stm32cubeide/plugins/com.st.stm32cube.ide.mcu.externaltools.gnu-tools-for-stm32.10.3-2021.10.win32_1.0.0.202111181127/tools/bin/../lib/gcc/arm-none-eabi/10.3.1/thumb/v7e-m+fp/hard/crtn.o
                0x0000000008102ccc                . = ALIGN (0x4)
                0x0000000008102ccc                _etext = .

.vfp11_veneer   0x0000000008102ccc        0x0
 .vfp11_veneer  0x0000000008102ccc        0x0 linker stubs

.v4_bx          0x0000000008102ccc        0x0
 .v4_bx         0x0000000008102ccc        0x0 linker stubs

.iplt           0x0000000008102ccc        0x0
 .iplt          0x0000000008102ccc        0x0 c:/st/stm32cubeide_1.9.0/stm32cubeide/plugins/com.st.stm32cube.ide.mcu.externaltools.gnu-tools-for-stm32.10.3-2021.10.win32_1.0.0.202111181127/tools/bin/../lib/gcc/arm-none-eabi/10.3.1/thumb/v7e-m+fp/hard/crtbegin.o

.rodata         0x0000000008102ccc       0x68
                0x0000000008102ccc                . = ALIGN (0x4)
 *(.rodata)
 .rodata        0x0000000008102ccc       0x27 ./AZURE_RTOS/App/app_azure_rtos.o
 *fill*         0x0000000008102cf3        0x1 
 .rodata        0x0000000008102cf4       0x19 ./Core/Src/Application/threads_cm4.o
 *fill*         0x0000000008102d0d        0x3 
 .rodata        0x0000000008102d10       0x14 ./Middlewares/ThreadX/RTOS/ThreadX/Core/tx_timer_initialize.o
 *(.rodata*)
 .rodata.D1CorePrescTable
                0x0000000008102d24       0x10 ./Common/Src/system_stm32h7xx_dualcore_boot_cm4_cm7.o
                0x0000000008102d24                D1CorePrescTable
                0x0000000008102d34                . = ALIGN (0x4)

.rel.dyn        0x0000000008102d34        0x0
 .rel.iplt      0x0000000008102d34        0x0 c:/st/stm32cubeide_1.9.0/stm32cubeide/plugins/com.st.stm32cube.ide.mcu.externaltools.gnu-tools-for-stm32.10.3-2021.10.win32_1.0.0.202111181127/tools/bin/../lib/gcc/arm-none-eabi/10.3.1/thumb/v7e-m+fp/hard/crtbegin.o

.ARM.extab
 *(.ARM.extab* .gnu.linkonce.armextab.*)

.ARM            0x0000000008102d34        0x0
                0x0000000008102d34                __exidx_start = .
 *(.ARM.exidx*)
                0x0000000008102d34                __exidx_end = .

.preinit_array  0x0000000008102d34        0x0
                0x0000000008102d34                PROVIDE (__preinit_array_start = .)
 *(.preinit_array*)
                0x0000000008102d34                PROVIDE (__preinit_array_end = .)

.init_array     0x0000000008102d34        0x4
                0x0000000008102d34                PROVIDE (__init_array_start = .)
 *(SORT_BY_NAME(.init_array.*))
 *(.init_array*)
 .init_array    0x0000000008102d34        0x4 c:/st/stm32cubeide_1.9.0/stm32cubeide/plugins/com.st.stm32cube.ide.mcu.externaltools.gnu-tools-for-stm32.10.3-2021.10.win32_1.0.0.202111181127/tools/bin/../lib/gcc/arm-none-eabi/10.3.1/thumb/v7e-m+fp/hard/crtbegin.o
                0x0000000008102d38                PROVIDE (__init_array_end = .)

.fini_array     0x0000000008102d38        0x4
                [!provide]                        PROVIDE (__fini_array_start = .)
 *(SORT_BY_NAME(.fini_array.*))
 *(.fini_array*)
 .fini_array    0x0000000008102d38        0x4 c:/st/stm32cubeide_1.9.0/stm32cubeide/plugins/com.st.stm32cube.ide.mcu.externaltools.gnu-tools-for-stm32.10.3-2021.10.win32_1.0.0.202111181127/tools/bin/../lib/gcc/arm-none-eabi/10.3.1/thumb/v7e-m+fp/hard/crtbegin.o
                [!provide]                        PROVIDE (__fini_array_end = .)
                0x0000000008102d3c                _sidata = LOADADDR (.data)

.data           0x0000000010000000       0x14 load address 0x0000000008102d3c
                0x0000000010000000                . = ALIGN (0x4)
                0x0000000010000000                _sdata = .
 *(.data)
 *(.data*)
 .data.SystemCoreClock
                0x0000000010000000        0x4 ./Common/Src/system_stm32h7xx_dualcore_boot_cm4_cm7.o
                0x0000000010000000                SystemCoreClock
 .data.SystemD2Clock
                0x0000000010000004        0x4 ./Common/Src/system_stm32h7xx_dualcore_boot_cm4_cm7.o
                0x0000000010000004                SystemD2Clock
 .data.uwTickPrio
                0x0000000010000008        0x4 ./Drivers/STM32H7xx_HAL_Driver/stm32h7xx_hal.o
                0x0000000010000008                uwTickPrio
 .data.uwTickFreq
                0x000000001000000c        0x1 ./Drivers/STM32H7xx_HAL_Driver/stm32h7xx_hal.o
                0x000000001000000c                uwTickFreq
 *fill*         0x000000001000000d        0x3 
 .data._tx_thread_system_state
                0x0000000010000010        0x4 ./Middlewares/ThreadX/RTOS/ThreadX/Core/tx_thread_initialize.o
                0x0000000010000010                _tx_thread_system_state
 *(.RamFunc)
 *(.RamFunc*)
                0x0000000010000014                . = ALIGN (0x4)
                0x0000000010000014                _edata = .

.igot.plt       0x0000000010000014        0x0 load address 0x0000000008102d50
 .igot.plt      0x0000000010000014        0x0 c:/st/stm32cubeide_1.9.0/stm32cubeide/plugins/com.st.stm32cube.ide.mcu.externaltools.gnu-tools-for-stm32.10.3-2021.10.win32_1.0.0.202111181127/tools/bin/../lib/gcc/arm-none-eabi/10.3.1/thumb/v7e-m+fp/hard/crtbegin.o
                0x0000000010000014                . = ALIGN (0x4)

.bss            0x0000000010000014     0x5c24 load address 0x0000000008102d50
                0x0000000010000014                _sbss = .
                0x0000000010000014                __bss_start__ = _sbss
 *(.bss)
 .bss           0x0000000010000014       0x1c c:/st/stm32cubeide_1.9.0/stm32cubeide/plugins/com.st.stm32cube.ide.mcu.externaltools.gnu-tools-for-stm32.10.3-2021.10.win32_1.0.0.202111181127/tools/bin/../lib/gcc/arm-none-eabi/10.3.1/thumb/v7e-m+fp/hard/crtbegin.o
 *(.bss*)
 .bss.tx_byte_pool_buffer
                0x0000000010000030     0x5000 ./AZURE_RTOS/App/app_azure_rtos.o
 .bss.tx_app_byte_pool
                0x0000000010005030       0x34 ./AZURE_RTOS/App/app_azure_rtos.o
 .bss.fx_byte_pool_buffer
                0x0000000010005064      0x400 ./AZURE_RTOS/App/app_azure_rtos.o
 .bss.fx_app_byte_pool
                0x0000000010005464       0x34 ./AZURE_RTOS/App/app_azure_rtos.o
 .bss.LED_thread
                0x0000000010005498       0xb0 ./Core/Src/Application/threads_cm4.o
                0x0000000010005498                LED_thread
 .bss.Ideal_thread
                0x0000000010005548       0xb0 ./Core/Src/Application/threads_cm4.o
                0x0000000010005548                Ideal_thread
 .bss._tx_semaphore_created_ptr
                0x00000000100055f8        0x4 ./Middlewares/ThreadX/RTOS/ThreadX/Core/tx_initialize_high_level.o
                0x00000000100055f8                _tx_semaphore_created_ptr
 .bss._tx_semaphore_created_count
                0x00000000100055fc        0x4 ./Middlewares/ThreadX/RTOS/ThreadX/Core/tx_initialize_high_level.o
                0x00000000100055fc                _tx_semaphore_created_count
 .bss._tx_queue_created_ptr
                0x0000000010005600        0x4 ./Middlewares/ThreadX/RTOS/ThreadX/Core/tx_initialize_high_level.o
                0x0000000010005600                _tx_queue_created_ptr
 .bss._tx_queue_created_count
                0x0000000010005604        0x4 ./Middlewares/ThreadX/RTOS/ThreadX/Core/tx_initialize_high_level.o
                0x0000000010005604                _tx_queue_created_count
 .bss._tx_event_flags_created_ptr
                0x0000000010005608        0x4 ./Middlewares/ThreadX/RTOS/ThreadX/Core/tx_initialize_high_level.o
                0x0000000010005608                _tx_event_flags_created_ptr
 .bss._tx_event_flags_created_count
                0x000000001000560c        0x4 ./Middlewares/ThreadX/RTOS/ThreadX/Core/tx_initialize_high_level.o
                0x000000001000560c                _tx_event_flags_created_count
 .bss._tx_mutex_created_ptr
                0x0000000010005610        0x4 ./Middlewares/ThreadX/RTOS/ThreadX/Core/tx_initialize_high_level.o
                0x0000000010005610                _tx_mutex_created_ptr
 .bss._tx_mutex_created_count
                0x0000000010005614        0x4 ./Middlewares/ThreadX/RTOS/ThreadX/Core/tx_initialize_high_level.o
                0x0000000010005614                _tx_mutex_created_count
 .bss._tx_block_pool_created_ptr
                0x0000000010005618        0x4 ./Middlewares/ThreadX/RTOS/ThreadX/Core/tx_initialize_high_level.o
                0x0000000010005618                _tx_block_pool_created_ptr
 .bss._tx_block_pool_created_count
                0x000000001000561c        0x4 ./Middlewares/ThreadX/RTOS/ThreadX/Core/tx_initialize_high_level.o
                0x000000001000561c                _tx_block_pool_created_count
 .bss._tx_byte_pool_created_ptr
                0x0000000010005620        0x4 ./Middlewares/ThreadX/RTOS/ThreadX/Core/tx_initialize_high_level.o
                0x0000000010005620                _tx_byte_pool_created_ptr
 .bss._tx_byte_pool_created_count
                0x0000000010005624        0x4 ./Middlewares/ThreadX/RTOS/ThreadX/Core/tx_initialize_high_level.o
                0x0000000010005624                _tx_byte_pool_created_count
 .bss._tx_initialize_unused_memory
                0x0000000010005628        0x4 ./Middlewares/ThreadX/RTOS/ThreadX/Core/tx_initialize_high_level.o
                0x0000000010005628                _tx_initialize_unused_memory
 .bss._tx_thread_system_stack_ptr
                0x000000001000562c        0x4 ./Middlewares/ThreadX/RTOS/ThreadX/Core/tx_thread_initialize.o
                0x000000001000562c                _tx_thread_system_stack_ptr
 .bss._tx_thread_current_ptr
                0x0000000010005630        0x4 ./Middlewares/ThreadX/RTOS/ThreadX/Core/tx_thread_initialize.o
                0x0000000010005630                _tx_thread_current_ptr
 .bss._tx_thread_execute_ptr
                0x0000000010005634        0x4 ./Middlewares/ThreadX/RTOS/ThreadX/Core/tx_thread_initialize.o
                0x0000000010005634                _tx_thread_execute_ptr
 .bss._tx_thread_created_ptr
                0x0000000010005638        0x4 ./Middlewares/ThreadX/RTOS/ThreadX/Core/tx_thread_initialize.o
                0x0000000010005638                _tx_thread_created_ptr
 .bss._tx_thread_created_count
                0x000000001000563c        0x4 ./Middlewares/ThreadX/RTOS/ThreadX/Core/tx_thread_initialize.o
                0x000000001000563c                _tx_thread_created_count
 .bss._tx_thread_priority_maps
                0x0000000010005640        0x4 ./Middlewares/ThreadX/RTOS/ThreadX/Core/tx_thread_initialize.o
                0x0000000010005640                _tx_thread_priority_maps
 .bss._tx_thread_highest_priority
                0x0000000010005644        0x4 ./Middlewares/ThreadX/RTOS/ThreadX/Core/tx_thread_initialize.o
                0x0000000010005644                _tx_thread_highest_priority
 .bss._tx_thread_priority_list
                0x0000000010005648       0x80 ./Middlewares/ThreadX/RTOS/ThreadX/Core/tx_thread_initialize.o
                0x0000000010005648                _tx_thread_priority_list
 .bss._tx_thread_preempt_disable
                0x00000000100056c8        0x4 ./Middlewares/ThreadX/RTOS/ThreadX/Core/tx_thread_initialize.o
                0x00000000100056c8                _tx_thread_preempt_disable
 .bss._tx_thread_mutex_release
                0x00000000100056cc        0x4 ./Middlewares/ThreadX/RTOS/ThreadX/Core/tx_thread_initialize.o
                0x00000000100056cc                _tx_thread_mutex_release
 .bss._tx_build_options
                0x00000000100056d0        0x4 ./Middlewares/ThreadX/RTOS/ThreadX/Core/tx_thread_initialize.o
                0x00000000100056d0                _tx_build_options
 .bss._tx_timer_system_clock
                0x00000000100056d4        0x4 ./Middlewares/ThreadX/RTOS/ThreadX/Core/tx_timer_initialize.o
                0x00000000100056d4                _tx_timer_system_clock
 .bss._tx_timer_expired_time_slice
                0x00000000100056d8        0x4 ./Middlewares/ThreadX/RTOS/ThreadX/Core/tx_timer_initialize.o
                0x00000000100056d8                _tx_timer_expired_time_slice
 .bss._tx_timer_list
                0x00000000100056dc       0x80 ./Middlewares/ThreadX/RTOS/ThreadX/Core/tx_timer_initialize.o
                0x00000000100056dc                _tx_timer_list
 .bss._tx_timer_list_start
                0x000000001000575c        0x4 ./Middlewares/ThreadX/RTOS/ThreadX/Core/tx_timer_initialize.o
                0x000000001000575c                _tx_timer_list_start
 .bss._tx_timer_list_end
                0x0000000010005760        0x4 ./Middlewares/ThreadX/RTOS/ThreadX/Core/tx_timer_initialize.o
                0x0000000010005760                _tx_timer_list_end
 .bss._tx_timer_current_ptr
                0x0000000010005764        0x4 ./Middlewares/ThreadX/RTOS/ThreadX/Core/tx_timer_initialize.o
                0x0000000010005764                _tx_timer_current_ptr
 .bss._tx_timer_expired
                0x0000000010005768        0x4 ./Middlewares/ThreadX/RTOS/ThreadX/Core/tx_timer_initialize.o
                0x0000000010005768                _tx_timer_expired
 .bss._tx_timer_created_ptr
                0x000000001000576c        0x4 ./Middlewares/ThreadX/RTOS/ThreadX/Core/tx_timer_initialize.o
                0x000000001000576c                _tx_timer_created_ptr
 .bss._tx_timer_created_count
                0x0000000010005770        0x4 ./Middlewares/ThreadX/RTOS/ThreadX/Core/tx_timer_initialize.o
                0x0000000010005770                _tx_timer_created_count
 .bss._tx_timer_expired_timer_ptr
                0x0000000010005774        0x4 ./Middlewares/ThreadX/RTOS/ThreadX/Core/tx_timer_initialize.o
                0x0000000010005774                _tx_timer_expired_timer_ptr
 .bss._tx_timer_thread
                0x0000000010005778       0xb0 ./Middlewares/ThreadX/RTOS/ThreadX/Core/tx_timer_initialize.o
                0x0000000010005778                _tx_timer_thread
 .bss._tx_timer_stack_start
                0x0000000010005828        0x4 ./Middlewares/ThreadX/RTOS/ThreadX/Core/tx_timer_initialize.o
                0x0000000010005828                _tx_timer_stack_start
 .bss._tx_timer_stack_size
                0x000000001000582c        0x4 ./Middlewares/ThreadX/RTOS/ThreadX/Core/tx_timer_initialize.o
                0x000000001000582c                _tx_timer_stack_size
 .bss._tx_timer_priority
                0x0000000010005830        0x4 ./Middlewares/ThreadX/RTOS/ThreadX/Core/tx_timer_initialize.o
                0x0000000010005830                _tx_timer_priority
 .bss._tx_timer_thread_stack_area
                0x0000000010005834      0x400 ./Middlewares/ThreadX/RTOS/ThreadX/Core/tx_timer_initialize.o
                0x0000000010005834                _tx_timer_thread_stack_area
 .bss._tx_timer_time_slice
                0x0000000010005c34        0x4 ./Middlewares/ThreadX/RTOS/ThreadX/Core/tx_timer_initialize.o
                0x0000000010005c34                _tx_timer_time_slice
 *(COMMON)
                0x0000000010005c38                . = ALIGN (0x4)
                0x0000000010005c38                _ebss = .
                0x0000000010005c38                __bss_end__ = _ebss

._user_heap_stack
                0x0000000010005c38      0x600 load address 0x0000000008102d50
                0x0000000010005c38                . = ALIGN (0x8)
                [!provide]                        PROVIDE (end = .)
                0x0000000010005c38                PROVIDE (_end = .)
                0x0000000010005e38                . = (. + _Min_Heap_Size)
 *fill*         0x0000000010005c38      0x200 
                0x0000000010006238                . = (. + _Min_Stack_Size)
 *fill*         0x0000000010005e38      0x400 
                0x0000000010006238                . = ALIGN (0x8)

/DISCARD/
 libc.a(*)
 libm.a(*)
 libgcc.a(*)

.ARM.attributes
                0x0000000000000000       0x30
 *(.ARM.attributes)
 .ARM.attributes
                0x0000000000000000       0x1e c:/st/stm32cubeide_1.9.0/stm32cubeide/plugins/com.st.stm32cube.ide.mcu.externaltools.gnu-tools-for-stm32.10.3-2021.10.win32_1.0.0.202111181127/tools/bin/../lib/gcc/arm-none-eabi/10.3.1/thumb/v7e-m+fp/hard/crti.o
 .ARM.attributes
                0x000000000000001e       0x34 c:/st/stm32cubeide_1.9.0/stm32cubeide/plugins/com.st.stm32cube.ide.mcu.externaltools.gnu-tools-for-stm32.10.3-2021.10.win32_1.0.0.202111181127/tools/bin/../lib/gcc/arm-none-eabi/10.3.1/thumb/v7e-m+fp/hard/crtbegin.o
 .ARM.attributes
                0x0000000000000052       0x34 ./AZURE_RTOS/App/app_azure_rtos.o
 .ARM.attributes
                0x0000000000000086       0x34 ./Common/Src/system_stm32h7xx_dualcore_boot_cm4_cm7.o
 .ARM.attributes
                0x00000000000000ba       0x34 ./Core/Src/Application/threads_cm4.o
 .ARM.attributes
                0x00000000000000ee       0x34 ./Core/Src/app_threadx.o
 .ARM.attributes
                0x0000000000000122       0x34 ./Core/Src/main.o
 .ARM.attributes
                0x0000000000000156       0x34 ./Core/Src/stm32h7xx_hal_msp.o
 .ARM.attributes
                0x000000000000018a       0x34 ./Core/Src/stm32h7xx_it.o
 .ARM.attributes
                0x00000000000001be       0x20 ./Core/Src/tx_initialize_low_level.o
 .ARM.attributes
                0x00000000000001de       0x21 ./Core/Startup/startup_stm32h757xihx.o
 .ARM.attributes
                0x00000000000001ff       0x34 ./Drivers/STM32H7xx_HAL_Driver/stm32h7xx_hal.o
 .ARM.attributes
                0x0000000000000233       0x34 ./Drivers/STM32H7xx_HAL_Driver/stm32h7xx_hal_cortex.o
 .ARM.attributes
                0x0000000000000267       0x34 ./Drivers/STM32H7xx_HAL_Driver/stm32h7xx_hal_gpio.o
 .ARM.attributes
                0x000000000000029b       0x34 ./Drivers/STM32H7xx_HAL_Driver/stm32h7xx_hal_hsem.o
 .ARM.attributes
                0x00000000000002cf       0x34 ./Drivers/STM32H7xx_HAL_Driver/stm32h7xx_hal_pwr_ex.o
 .ARM.attributes
                0x0000000000000303       0x34 ./Drivers/STM32H7xx_HAL_Driver/stm32h7xx_hal_rcc.o
 .ARM.attributes
                0x0000000000000337       0x34 ./FileX/App/app_filex.o
 .ARM.attributes
                0x000000000000036b       0x34 ./Middlewares/ThreadX/RTOS/ThreadX/Core/tx_byte_allocate.o
 .ARM.attributes
                0x000000000000039f       0x34 ./Middlewares/ThreadX/RTOS/ThreadX/Core/tx_byte_pool_cleanup.o
 .ARM.attributes
                0x00000000000003d3       0x34 ./Middlewares/ThreadX/RTOS/ThreadX/Core/tx_byte_pool_create.o
 .ARM.attributes
                0x0000000000000407       0x34 ./Middlewares/ThreadX/RTOS/ThreadX/Core/tx_byte_pool_search.o
 .ARM.attributes
                0x000000000000043b       0x34 ./Middlewares/ThreadX/RTOS/ThreadX/Core/tx_initialize_high_level.o
 .ARM.attributes
                0x000000000000046f       0x34 ./Middlewares/ThreadX/RTOS/ThreadX/Core/tx_initialize_kernel_enter.o
 .ARM.attributes
                0x00000000000004a3       0x34 ./Middlewares/ThreadX/RTOS/ThreadX/Core/tx_thread_create.o
 .ARM.attributes
                0x00000000000004d7       0x34 ./Middlewares/ThreadX/RTOS/ThreadX/Core/tx_thread_initialize.o
 .ARM.attributes
                0x000000000000050b       0x20 ./Middlewares/ThreadX/RTOS/ThreadX/Core/tx_thread_schedule.o
 .ARM.attributes
                0x000000000000052b       0x34 ./Middlewares/ThreadX/RTOS/ThreadX/Core/tx_thread_shell_entry.o
 .ARM.attributes
                0x000000000000055f       0x34 ./Middlewares/ThreadX/RTOS/ThreadX/Core/tx_thread_sleep.o
 .ARM.attributes
                0x0000000000000593       0x20 ./Middlewares/ThreadX/RTOS/ThreadX/Core/tx_thread_stack_build.o
 .ARM.attributes
                0x00000000000005b3       0x34 ./Middlewares/ThreadX/RTOS/ThreadX/Core/tx_thread_system_preempt_check.o
 .ARM.attributes
                0x00000000000005e7       0x34 ./Middlewares/ThreadX/RTOS/ThreadX/Core/tx_thread_system_resume.o
 .ARM.attributes
                0x000000000000061b       0x34 ./Middlewares/ThreadX/RTOS/ThreadX/Core/tx_thread_system_suspend.o
 .ARM.attributes
                0x000000000000064f       0x34 ./Middlewares/ThreadX/RTOS/ThreadX/Core/tx_thread_time_slice.o
 .ARM.attributes
                0x0000000000000683       0x34 ./Middlewares/ThreadX/RTOS/ThreadX/Core/tx_thread_timeout.o
 .ARM.attributes
                0x00000000000006b7       0x34 ./Middlewares/ThreadX/RTOS/ThreadX/Core/tx_timer_expiration_process.o
 .ARM.attributes
                0x00000000000006eb       0x34 ./Middlewares/ThreadX/RTOS/ThreadX/Core/tx_timer_initialize.o
 .ARM.attributes
                0x000000000000071f       0x20 ./Middlewares/ThreadX/RTOS/ThreadX/Core/tx_timer_interrupt.o
 .ARM.attributes
                0x000000000000073f       0x34 ./Middlewares/ThreadX/RTOS/ThreadX/Core/tx_timer_system_activate.o
 .ARM.attributes
                0x0000000000000773       0x34 ./Middlewares/ThreadX/RTOS/ThreadX/Core/tx_timer_system_deactivate.o
 .ARM.attributes
                0x00000000000007a7       0x34 ./Middlewares/ThreadX/RTOS/ThreadX/Core/tx_timer_thread_entry.o
 .ARM.attributes
                0x00000000000007db       0x34 ./Middlewares/ThreadX/RTOS/ThreadX/Core/txe_byte_allocate.o
 .ARM.attributes
                0x000000000000080f       0x34 ./Middlewares/ThreadX/RTOS/ThreadX/Core/txe_byte_pool_create.o
 .ARM.attributes
                0x0000000000000843       0x34 ./Middlewares/ThreadX/RTOS/ThreadX/Core/txe_thread_create.o
 .ARM.attributes
                0x0000000000000877       0x34 c:/st/stm32cubeide_1.9.0/stm32cubeide/plugins/com.st.stm32cube.ide.mcu.externaltools.gnu-tools-for-stm32.10.3-2021.10.win32_1.0.0.202111181127/tools/bin/../lib/gcc/arm-none-eabi/10.3.1/../../../../arm-none-eabi/lib/thumb/v7e-m+fp/hard\libc_nano.a(lib_a-init.o)
 .ARM.attributes
                0x00000000000008ab       0x34 c:/st/stm32cubeide_1.9.0/stm32cubeide/plugins/com.st.stm32cube.ide.mcu.externaltools.gnu-tools-for-stm32.10.3-2021.10.win32_1.0.0.202111181127/tools/bin/../lib/gcc/arm-none-eabi/10.3.1/../../../../arm-none-eabi/lib/thumb/v7e-m+fp/hard\libc_nano.a(lib_a-memset.o)
 .ARM.attributes
                0x00000000000008df       0x1e c:/st/stm32cubeide_1.9.0/stm32cubeide/plugins/com.st.stm32cube.ide.mcu.externaltools.gnu-tools-for-stm32.10.3-2021.10.win32_1.0.0.202111181127/tools/bin/../lib/gcc/arm-none-eabi/10.3.1/thumb/v7e-m+fp/hard/crtn.o
OUTPUT(STM32H757_Template_CM4.elf elf32-littlearm)
LOAD linker stubs
LOAD c:/st/stm32cubeide_1.9.0/stm32cubeide/plugins/com.st.stm32cube.ide.mcu.externaltools.gnu-tools-for-stm32.10.3-2021.10.win32_1.0.0.202111181127/tools/bin/../lib/gcc/arm-none-eabi/10.3.1/../../../../arm-none-eabi/lib/thumb/v7e-m+fp/hard\libc.a
LOAD c:/st/stm32cubeide_1.9.0/stm32cubeide/plugins/com.st.stm32cube.ide.mcu.externaltools.gnu-tools-for-stm32.10.3-2021.10.win32_1.0.0.202111181127/tools/bin/../lib/gcc/arm-none-eabi/10.3.1/../../../../arm-none-eabi/lib/thumb/v7e-m+fp/hard\libm.a
LOAD c:/st/stm32cubeide_1.9.0/stm32cubeide/plugins/com.st.stm32cube.ide.mcu.externaltools.gnu-tools-for-stm32.10.3-2021.10.win32_1.0.0.202111181127/tools/bin/../lib/gcc/arm-none-eabi/10.3.1/thumb/v7e-m+fp/hard\libgcc.a

.debug_info     0x0000000000000000    0x11c68
 .debug_info    0x0000000000000000      0x644 ./AZURE_RTOS/App/app_azure_rtos.o
 .debug_info    0x0000000000000644      0x779 ./Common/Src/system_stm32h7xx_dualcore_boot_cm4_cm7.o
 .debug_info    0x0000000000000dbd      0x772 ./Core/Src/Application/threads_cm4.o
 .debug_info    0x000000000000152f      0x5d5 ./Core/Src/app_threadx.o
 .debug_info    0x0000000000001b04      0x9eb ./Core/Src/main.o
 .debug_info    0x00000000000024ef      0x4a4 ./Core/Src/stm32h7xx_hal_msp.o
 .debug_info    0x0000000000002993       0xf8 ./Core/Src/stm32h7xx_it.o
 .debug_info    0x0000000000002a8b       0x26 ./Core/Src/tx_initialize_low_level.o
 .debug_info    0x0000000000002ab1       0x22 ./Core/Startup/startup_stm32h757xihx.o
 .debug_info    0x0000000000002ad3     0x1871 ./Drivers/STM32H7xx_HAL_Driver/stm32h7xx_hal.o
 .debug_info    0x0000000000004344      0xfb8 ./Drivers/STM32H7xx_HAL_Driver/stm32h7xx_hal_cortex.o
 .debug_info    0x00000000000052fc      0xde0 ./Drivers/STM32H7xx_HAL_Driver/stm32h7xx_hal_gpio.o
 .debug_info    0x00000000000060dc      0x3fd ./Drivers/STM32H7xx_HAL_Driver/stm32h7xx_hal_hsem.o
 .debug_info    0x00000000000064d9     0x10d3 ./Drivers/STM32H7xx_HAL_Driver/stm32h7xx_hal_pwr_ex.o
 .debug_info    0x00000000000075ac      0xf48 ./Drivers/STM32H7xx_HAL_Driver/stm32h7xx_hal_rcc.o
 .debug_info    0x00000000000084f4      0x59a ./FileX/App/app_filex.o
 .debug_info    0x0000000000008a8e      0x7e8 ./Middlewares/ThreadX/RTOS/ThreadX/Core/tx_byte_allocate.o
 .debug_info    0x0000000000009276      0x6f3 ./Middlewares/ThreadX/RTOS/ThreadX/Core/tx_byte_pool_cleanup.o
 .debug_info    0x0000000000009969      0x70a ./Middlewares/ThreadX/RTOS/ThreadX/Core/tx_byte_pool_create.o
 .debug_info    0x000000000000a073      0x79a ./Middlewares/ThreadX/RTOS/ThreadX/Core/tx_byte_pool_search.o
 .debug_info    0x000000000000a80d      0x96c ./Middlewares/ThreadX/RTOS/ThreadX/Core/tx_initialize_high_level.o
 .debug_info    0x000000000000b179      0x106 ./Middlewares/ThreadX/RTOS/ThreadX/Core/tx_initialize_kernel_enter.o
 .debug_info    0x000000000000b27f      0x7ac ./Middlewares/ThreadX/RTOS/ThreadX/Core/tx_thread_create.o
 .debug_info    0x000000000000ba2b      0x670 ./Middlewares/ThreadX/RTOS/ThreadX/Core/tx_thread_initialize.o
 .debug_info    0x000000000000c09b       0x26 ./Middlewares/ThreadX/RTOS/ThreadX/Core/tx_thread_schedule.o
 .debug_info    0x000000000000c0c1      0x61e ./Middlewares/ThreadX/RTOS/ThreadX/Core/tx_thread_shell_entry.o
 .debug_info    0x000000000000c6df      0x67f ./Middlewares/ThreadX/RTOS/ThreadX/Core/tx_thread_sleep.o
 .debug_info    0x000000000000cd5e       0x26 ./Middlewares/ThreadX/RTOS/ThreadX/Core/tx_thread_stack_build.o
 .debug_info    0x000000000000cd84      0x5d0 ./Middlewares/ThreadX/RTOS/ThreadX/Core/tx_thread_system_preempt_check.o
 .debug_info    0x000000000000d354      0x7af ./Middlewares/ThreadX/RTOS/ThreadX/Core/tx_thread_system_resume.o
 .debug_info    0x000000000000db03      0x87d ./Middlewares/ThreadX/RTOS/ThreadX/Core/tx_thread_system_suspend.o
 .debug_info    0x000000000000e380      0x59b ./Middlewares/ThreadX/RTOS/ThreadX/Core/tx_thread_time_slice.o
 .debug_info    0x000000000000e91b      0x5ae ./Middlewares/ThreadX/RTOS/ThreadX/Core/tx_thread_timeout.o
 .debug_info    0x000000000000eec9      0x561 ./Middlewares/ThreadX/RTOS/ThreadX/Core/tx_timer_expiration_process.o
 .debug_info    0x000000000000f42a      0x745 ./Middlewares/ThreadX/RTOS/ThreadX/Core/tx_timer_initialize.o
 .debug_info    0x000000000000fb6f       0x26 ./Middlewares/ThreadX/RTOS/ThreadX/Core/tx_timer_interrupt.o
 .debug_info    0x000000000000fb95      0x1d1 ./Middlewares/ThreadX/RTOS/ThreadX/Core/tx_timer_system_activate.o
 .debug_info    0x000000000000fd66      0x180 ./Middlewares/ThreadX/RTOS/ThreadX/Core/tx_timer_system_deactivate.o
 .debug_info    0x000000000000fee6      0x76a ./Middlewares/ThreadX/RTOS/ThreadX/Core/tx_timer_thread_entry.o
 .debug_info    0x0000000000010650      0x68d ./Middlewares/ThreadX/RTOS/ThreadX/Core/txe_byte_allocate.o
 .debug_info    0x0000000000010cdd      0x7df ./Middlewares/ThreadX/RTOS/ThreadX/Core/txe_byte_pool_create.o
 .debug_info    0x00000000000114bc      0x7ac ./Middlewares/ThreadX/RTOS/ThreadX/Core/txe_thread_create.o

.debug_abbrev   0x0000000000000000     0x3a6f
 .debug_abbrev  0x0000000000000000      0x109 ./AZURE_RTOS/App/app_azure_rtos.o
 .debug_abbrev  0x0000000000000109      0x136 ./Common/Src/system_stm32h7xx_dualcore_boot_cm4_cm7.o
 .debug_abbrev  0x000000000000023f      0x157 ./Core/Src/Application/threads_cm4.o
 .debug_abbrev  0x0000000000000396      0x138 ./Core/Src/app_threadx.o
 .debug_abbrev  0x00000000000004ce      0x21f ./Core/Src/main.o
 .debug_abbrev  0x00000000000006ed       0xda ./Core/Src/stm32h7xx_hal_msp.o
 .debug_abbrev  0x00000000000007c7       0x47 ./Core/Src/stm32h7xx_it.o
 .debug_abbrev  0x000000000000080e       0x14 ./Core/Src/tx_initialize_low_level.o
 .debug_abbrev  0x0000000000000822       0x12 ./Core/Startup/startup_stm32h757xihx.o
 .debug_abbrev  0x0000000000000834      0x292 ./Drivers/STM32H7xx_HAL_Driver/stm32h7xx_hal.o
 .debug_abbrev  0x0000000000000ac6      0x329 ./Drivers/STM32H7xx_HAL_Driver/stm32h7xx_hal_cortex.o
 .debug_abbrev  0x0000000000000def      0x1ec ./Drivers/STM32H7xx_HAL_Driver/stm32h7xx_hal_gpio.o
 .debug_abbrev  0x0000000000000fdb      0x1d0 ./Drivers/STM32H7xx_HAL_Driver/stm32h7xx_hal_hsem.o
 .debug_abbrev  0x00000000000011ab      0x2bc ./Drivers/STM32H7xx_HAL_Driver/stm32h7xx_hal_pwr_ex.o
 .debug_abbrev  0x0000000000001467      0x2b8 ./Drivers/STM32H7xx_HAL_Driver/stm32h7xx_hal_rcc.o
 .debug_abbrev  0x000000000000171f       0xde ./FileX/App/app_filex.o
 .debug_abbrev  0x00000000000017fd      0x1ca ./Middlewares/ThreadX/RTOS/ThreadX/Core/tx_byte_allocate.o
 .debug_abbrev  0x00000000000019c7      0x19a ./Middlewares/ThreadX/RTOS/ThreadX/Core/tx_byte_pool_cleanup.o
 .debug_abbrev  0x0000000000001b61      0x197 ./Middlewares/ThreadX/RTOS/ThreadX/Core/tx_byte_pool_create.o
 .debug_abbrev  0x0000000000001cf8      0x182 ./Middlewares/ThreadX/RTOS/ThreadX/Core/tx_byte_pool_search.o
 .debug_abbrev  0x0000000000001e7a      0x102 ./Middlewares/ThreadX/RTOS/ThreadX/Core/tx_initialize_high_level.o
 .debug_abbrev  0x0000000000001f7c       0xcc ./Middlewares/ThreadX/RTOS/ThreadX/Core/tx_initialize_kernel_enter.o
 .debug_abbrev  0x0000000000002048      0x1cf ./Middlewares/ThreadX/RTOS/ThreadX/Core/tx_thread_create.o
 .debug_abbrev  0x0000000000002217      0x113 ./Middlewares/ThreadX/RTOS/ThreadX/Core/tx_thread_initialize.o
 .debug_abbrev  0x000000000000232a       0x14 ./Middlewares/ThreadX/RTOS/ThreadX/Core/tx_thread_schedule.o
 .debug_abbrev  0x000000000000233e      0x194 ./Middlewares/ThreadX/RTOS/ThreadX/Core/tx_thread_shell_entry.o
 .debug_abbrev  0x00000000000024d2      0x1af ./Middlewares/ThreadX/RTOS/ThreadX/Core/tx_thread_sleep.o
 .debug_abbrev  0x0000000000002681       0x14 ./Middlewares/ThreadX/RTOS/ThreadX/Core/tx_thread_stack_build.o
 .debug_abbrev  0x0000000000002695      0x196 ./Middlewares/ThreadX/RTOS/ThreadX/Core/tx_thread_system_preempt_check.o
 .debug_abbrev  0x000000000000282b      0x1e8 ./Middlewares/ThreadX/RTOS/ThreadX/Core/tx_thread_system_resume.o
 .debug_abbrev  0x0000000000002a13      0x1e3 ./Middlewares/ThreadX/RTOS/ThreadX/Core/tx_thread_system_suspend.o
 .debug_abbrev  0x0000000000002bf6      0x192 ./Middlewares/ThreadX/RTOS/ThreadX/Core/tx_thread_time_slice.o
 .debug_abbrev  0x0000000000002d88      0x19a ./Middlewares/ThreadX/RTOS/ThreadX/Core/tx_thread_timeout.o
 .debug_abbrev  0x0000000000002f22      0x19c ./Middlewares/ThreadX/RTOS/ThreadX/Core/tx_timer_expiration_process.o
 .debug_abbrev  0x00000000000030be      0x136 ./Middlewares/ThreadX/RTOS/ThreadX/Core/tx_timer_initialize.o
 .debug_abbrev  0x00000000000031f4       0x14 ./Middlewares/ThreadX/RTOS/ThreadX/Core/tx_timer_interrupt.o
 .debug_abbrev  0x0000000000003208       0xd5 ./Middlewares/ThreadX/RTOS/ThreadX/Core/tx_timer_system_activate.o
 .debug_abbrev  0x00000000000032dd       0xc2 ./Middlewares/ThreadX/RTOS/ThreadX/Core/tx_timer_system_deactivate.o
 .debug_abbrev  0x000000000000339f      0x1c4 ./Middlewares/ThreadX/RTOS/ThreadX/Core/tx_timer_thread_entry.o
 .debug_abbrev  0x0000000000003563      0x160 ./Middlewares/ThreadX/RTOS/ThreadX/Core/txe_byte_allocate.o
 .debug_abbrev  0x00000000000036c3      0x1d5 ./Middlewares/ThreadX/RTOS/ThreadX/Core/txe_byte_pool_create.o
 .debug_abbrev  0x0000000000003898      0x1d7 ./Middlewares/ThreadX/RTOS/ThreadX/Core/txe_thread_create.o

.debug_aranges  0x0000000000000000      0xac0
 .debug_aranges
                0x0000000000000000       0x20 ./AZURE_RTOS/App/app_azure_rtos.o
 .debug_aranges
                0x0000000000000020       0x28 ./Common/Src/system_stm32h7xx_dualcore_boot_cm4_cm7.o
 .debug_aranges
                0x0000000000000048       0x30 ./Core/Src/Application/threads_cm4.o
 .debug_aranges
                0x0000000000000078       0x28 ./Core/Src/app_threadx.o
 .debug_aranges
                0x00000000000000a0       0x30 ./Core/Src/main.o
 .debug_aranges
                0x00000000000000d0       0x20 ./Core/Src/stm32h7xx_hal_msp.o
 .debug_aranges
                0x00000000000000f0       0x48 ./Core/Src/stm32h7xx_it.o
 .debug_aranges
                0x0000000000000138       0x20 ./Core/Src/tx_initialize_low_level.o
 .debug_aranges
                0x0000000000000158       0x28 ./Core/Startup/startup_stm32h757xihx.o
 .debug_aranges
                0x0000000000000180      0x200 ./Drivers/STM32H7xx_HAL_Driver/stm32h7xx_hal.o
 .debug_aranges
                0x0000000000000380      0x120 ./Drivers/STM32H7xx_HAL_Driver/stm32h7xx_hal_cortex.o
 .debug_aranges
                0x00000000000004a0       0x58 ./Drivers/STM32H7xx_HAL_Driver/stm32h7xx_hal_gpio.o
 .debug_aranges
                0x00000000000004f8       0x70 ./Drivers/STM32H7xx_HAL_Driver/stm32h7xx_hal_hsem.o
 .debug_aranges
                0x0000000000000568      0x170 ./Drivers/STM32H7xx_HAL_Driver/stm32h7xx_hal_pwr_ex.o
 .debug_aranges
                0x00000000000006d8       0x88 ./Drivers/STM32H7xx_HAL_Driver/stm32h7xx_hal_rcc.o
 .debug_aranges
                0x0000000000000760       0x20 ./FileX/App/app_filex.o
 .debug_aranges
                0x0000000000000780       0x20 ./Middlewares/ThreadX/RTOS/ThreadX/Core/tx_byte_allocate.o
 .debug_aranges
                0x00000000000007a0       0x20 ./Middlewares/ThreadX/RTOS/ThreadX/Core/tx_byte_pool_cleanup.o
 .debug_aranges
                0x00000000000007c0       0x20 ./Middlewares/ThreadX/RTOS/ThreadX/Core/tx_byte_pool_create.o
 .debug_aranges
                0x00000000000007e0       0x20 ./Middlewares/ThreadX/RTOS/ThreadX/Core/tx_byte_pool_search.o
 .debug_aranges
                0x0000000000000800       0x20 ./Middlewares/ThreadX/RTOS/ThreadX/Core/tx_initialize_high_level.o
 .debug_aranges
                0x0000000000000820       0x20 ./Middlewares/ThreadX/RTOS/ThreadX/Core/tx_initialize_kernel_enter.o
 .debug_aranges
                0x0000000000000840       0x20 ./Middlewares/ThreadX/RTOS/ThreadX/Core/tx_thread_create.o
 .debug_aranges
                0x0000000000000860       0x20 ./Middlewares/ThreadX/RTOS/ThreadX/Core/tx_thread_initialize.o
 .debug_aranges
                0x0000000000000880       0x20 ./Middlewares/ThreadX/RTOS/ThreadX/Core/tx_thread_schedule.o
 .debug_aranges
                0x00000000000008a0       0x20 ./Middlewares/ThreadX/RTOS/ThreadX/Core/tx_thread_shell_entry.o
 .debug_aranges
                0x00000000000008c0       0x20 ./Middlewares/ThreadX/RTOS/ThreadX/Core/tx_thread_sleep.o
 .debug_aranges
                0x00000000000008e0       0x20 ./Middlewares/ThreadX/RTOS/ThreadX/Core/tx_thread_stack_build.o
 .debug_aranges
                0x0000000000000900       0x20 ./Middlewares/ThreadX/RTOS/ThreadX/Core/tx_thread_system_preempt_check.o
 .debug_aranges
                0x0000000000000920       0x20 ./Middlewares/ThreadX/RTOS/ThreadX/Core/tx_thread_system_resume.o
 .debug_aranges
                0x0000000000000940       0x20 ./Middlewares/ThreadX/RTOS/ThreadX/Core/tx_thread_system_suspend.o
 .debug_aranges
                0x0000000000000960       0x20 ./Middlewares/ThreadX/RTOS/ThreadX/Core/tx_thread_time_slice.o
 .debug_aranges
                0x0000000000000980       0x20 ./Middlewares/ThreadX/RTOS/ThreadX/Core/tx_thread_timeout.o
 .debug_aranges
                0x00000000000009a0       0x20 ./Middlewares/ThreadX/RTOS/ThreadX/Core/tx_timer_expiration_process.o
 .debug_aranges
                0x00000000000009c0       0x20 ./Middlewares/ThreadX/RTOS/ThreadX/Core/tx_timer_initialize.o
 .debug_aranges
                0x00000000000009e0       0x20 ./Middlewares/ThreadX/RTOS/ThreadX/Core/tx_timer_interrupt.o
 .debug_aranges
                0x0000000000000a00       0x20 ./Middlewares/ThreadX/RTOS/ThreadX/Core/tx_timer_system_activate.o
 .debug_aranges
                0x0000000000000a20       0x20 ./Middlewares/ThreadX/RTOS/ThreadX/Core/tx_timer_system_deactivate.o
 .debug_aranges
                0x0000000000000a40       0x20 ./Middlewares/ThreadX/RTOS/ThreadX/Core/tx_timer_thread_entry.o
 .debug_aranges
                0x0000000000000a60       0x20 ./Middlewares/ThreadX/RTOS/ThreadX/Core/txe_byte_allocate.o
 .debug_aranges
                0x0000000000000a80       0x20 ./Middlewares/ThreadX/RTOS/ThreadX/Core/txe_byte_pool_create.o
 .debug_aranges
                0x0000000000000aa0       0x20 ./Middlewares/ThreadX/RTOS/ThreadX/Core/txe_thread_create.o

.debug_ranges   0x0000000000000000      0x800
 .debug_ranges  0x0000000000000000       0x10 ./AZURE_RTOS/App/app_azure_rtos.o
 .debug_ranges  0x0000000000000010       0x18 ./Common/Src/system_stm32h7xx_dualcore_boot_cm4_cm7.o
 .debug_ranges  0x0000000000000028       0x20 ./Core/Src/Application/threads_cm4.o
 .debug_ranges  0x0000000000000048       0x18 ./Core/Src/app_threadx.o
 .debug_ranges  0x0000000000000060       0x20 ./Core/Src/main.o
 .debug_ranges  0x0000000000000080       0x10 ./Core/Src/stm32h7xx_hal_msp.o
 .debug_ranges  0x0000000000000090       0x38 ./Core/Src/stm32h7xx_it.o
 .debug_ranges  0x00000000000000c8       0x20 ./Core/Startup/startup_stm32h757xihx.o
 .debug_ranges  0x00000000000000e8      0x1f0 ./Drivers/STM32H7xx_HAL_Driver/stm32h7xx_hal.o
 .debug_ranges  0x00000000000002d8      0x110 ./Drivers/STM32H7xx_HAL_Driver/stm32h7xx_hal_cortex.o
 .debug_ranges  0x00000000000003e8       0x48 ./Drivers/STM32H7xx_HAL_Driver/stm32h7xx_hal_gpio.o
 .debug_ranges  0x0000000000000430       0x60 ./Drivers/STM32H7xx_HAL_Driver/stm32h7xx_hal_hsem.o
 .debug_ranges  0x0000000000000490      0x160 ./Drivers/STM32H7xx_HAL_Driver/stm32h7xx_hal_pwr_ex.o
 .debug_ranges  0x00000000000005f0       0x78 ./Drivers/STM32H7xx_HAL_Driver/stm32h7xx_hal_rcc.o
 .debug_ranges  0x0000000000000668       0x10 ./FileX/App/app_filex.o
 .debug_ranges  0x0000000000000678       0x10 ./Middlewares/ThreadX/RTOS/ThreadX/Core/tx_byte_allocate.o
 .debug_ranges  0x0000000000000688       0x10 ./Middlewares/ThreadX/RTOS/ThreadX/Core/tx_byte_pool_cleanup.o
 .debug_ranges  0x0000000000000698       0x10 ./Middlewares/ThreadX/RTOS/ThreadX/Core/tx_byte_pool_create.o
 .debug_ranges  0x00000000000006a8       0x10 ./Middlewares/ThreadX/RTOS/ThreadX/Core/tx_byte_pool_search.o
 .debug_ranges  0x00000000000006b8       0x10 ./Middlewares/ThreadX/RTOS/ThreadX/Core/tx_initialize_high_level.o
 .debug_ranges  0x00000000000006c8       0x10 ./Middlewares/ThreadX/RTOS/ThreadX/Core/tx_initialize_kernel_enter.o
 .debug_ranges  0x00000000000006d8       0x10 ./Middlewares/ThreadX/RTOS/ThreadX/Core/tx_thread_create.o
 .debug_ranges  0x00000000000006e8       0x10 ./Middlewares/ThreadX/RTOS/ThreadX/Core/tx_thread_initialize.o
 .debug_ranges  0x00000000000006f8       0x10 ./Middlewares/ThreadX/RTOS/ThreadX/Core/tx_thread_shell_entry.o
 .debug_ranges  0x0000000000000708       0x10 ./Middlewares/ThreadX/RTOS/ThreadX/Core/tx_thread_sleep.o
 .debug_ranges  0x0000000000000718       0x10 ./Middlewares/ThreadX/RTOS/ThreadX/Core/tx_thread_system_preempt_check.o
 .debug_ranges  0x0000000000000728       0x28 ./Middlewares/ThreadX/RTOS/ThreadX/Core/tx_thread_system_resume.o
 .debug_ranges  0x0000000000000750       0x10 ./Middlewares/ThreadX/RTOS/ThreadX/Core/tx_thread_system_suspend.o
 .debug_ranges  0x0000000000000760       0x10 ./Middlewares/ThreadX/RTOS/ThreadX/Core/tx_thread_time_slice.o
 .debug_ranges  0x0000000000000770       0x10 ./Middlewares/ThreadX/RTOS/ThreadX/Core/tx_thread_timeout.o
 .debug_ranges  0x0000000000000780       0x10 ./Middlewares/ThreadX/RTOS/ThreadX/Core/tx_timer_expiration_process.o
 .debug_ranges  0x0000000000000790       0x10 ./Middlewares/ThreadX/RTOS/ThreadX/Core/tx_timer_initialize.o
 .debug_ranges  0x00000000000007a0       0x10 ./Middlewares/ThreadX/RTOS/ThreadX/Core/tx_timer_system_activate.o
 .debug_ranges  0x00000000000007b0       0x10 ./Middlewares/ThreadX/RTOS/ThreadX/Core/tx_timer_system_deactivate.o
 .debug_ranges  0x00000000000007c0       0x10 ./Middlewares/ThreadX/RTOS/ThreadX/Core/tx_timer_thread_entry.o
 .debug_ranges  0x00000000000007d0       0x10 ./Middlewares/ThreadX/RTOS/ThreadX/Core/txe_byte_allocate.o
 .debug_ranges  0x00000000000007e0       0x10 ./Middlewares/ThreadX/RTOS/ThreadX/Core/txe_byte_pool_create.o
 .debug_ranges  0x00000000000007f0       0x10 ./Middlewares/ThreadX/RTOS/ThreadX/Core/txe_thread_create.o

.debug_macro    0x0000000000000000    0x4146e
 .debug_macro   0x0000000000000000      0x1a8 ./AZURE_RTOS/App/app_azure_rtos.o
 .debug_macro   0x00000000000001a8      0xa8a ./AZURE_RTOS/App/app_azure_rtos.o
 .debug_macro   0x0000000000000c32       0x16 ./AZURE_RTOS/App/app_azure_rtos.o
 .debug_macro   0x0000000000000c48       0x17 ./AZURE_RTOS/App/app_azure_rtos.o
 .debug_macro   0x0000000000000c5f       0x1e ./AZURE_RTOS/App/app_azure_rtos.o
 .debug_macro   0x0000000000000c7d       0x22 ./AZURE_RTOS/App/app_azure_rtos.o
 .debug_macro   0x0000000000000c9f       0x4c ./AZURE_RTOS/App/app_azure_rtos.o
 .debug_macro   0x0000000000000ceb       0x94 ./AZURE_RTOS/App/app_azure_rtos.o
 .debug_macro   0x0000000000000d7f       0x3c ./AZURE_RTOS/App/app_azure_rtos.o
 .debug_macro   0x0000000000000dbb       0x34 ./AZURE_RTOS/App/app_azure_rtos.o
 .debug_macro   0x0000000000000def       0x16 ./AZURE_RTOS/App/app_azure_rtos.o
 .debug_macro   0x0000000000000e05      0x10e ./AZURE_RTOS/App/app_azure_rtos.o
 .debug_macro   0x0000000000000f13       0x8d ./AZURE_RTOS/App/app_azure_rtos.o
 .debug_macro   0x0000000000000fa0       0x16 ./AZURE_RTOS/App/app_azure_rtos.o
 .debug_macro   0x0000000000000fb6       0x43 ./AZURE_RTOS/App/app_azure_rtos.o
 .debug_macro   0x0000000000000ff9       0x57 ./AZURE_RTOS/App/app_azure_rtos.o
 .debug_macro   0x0000000000001050       0x34 ./AZURE_RTOS/App/app_azure_rtos.o
 .debug_macro   0x0000000000001084       0x10 ./AZURE_RTOS/App/app_azure_rtos.o
 .debug_macro   0x0000000000001094       0x58 ./AZURE_RTOS/App/app_azure_rtos.o
 .debug_macro   0x00000000000010ec       0x71 ./AZURE_RTOS/App/app_azure_rtos.o
 .debug_macro   0x000000000000115d       0x1c ./AZURE_RTOS/App/app_azure_rtos.o
 .debug_macro   0x0000000000001179      0x12a ./AZURE_RTOS/App/app_azure_rtos.o
 .debug_macro   0x00000000000012a3      0x341 ./AZURE_RTOS/App/app_azure_rtos.o
 .debug_macro   0x00000000000015e4       0x16 ./AZURE_RTOS/App/app_azure_rtos.o
 .debug_macro   0x00000000000015fa       0x29 ./AZURE_RTOS/App/app_azure_rtos.o
 .debug_macro   0x0000000000001623       0x16 ./AZURE_RTOS/App/app_azure_rtos.o
 .debug_macro   0x0000000000001639       0x35 ./AZURE_RTOS/App/app_azure_rtos.o
 .debug_macro   0x000000000000166e       0x20 ./AZURE_RTOS/App/app_azure_rtos.o
 .debug_macro   0x000000000000168e      0x165 ./AZURE_RTOS/App/app_azure_rtos.o
 .debug_macro   0x00000000000017f3      0x91b ./AZURE_RTOS/App/app_azure_rtos.o
 .debug_macro   0x000000000000210e       0x10 ./AZURE_RTOS/App/app_azure_rtos.o
 .debug_macro   0x000000000000211e       0x41 ./AZURE_RTOS/App/app_azure_rtos.o
 .debug_macro   0x000000000000215f      0x75a ./AZURE_RTOS/App/app_azure_rtos.o
 .debug_macro   0x00000000000028b9      0x288 ./Common/Src/system_stm32h7xx_dualcore_boot_cm4_cm7.o
 .debug_macro   0x0000000000002b41       0x2e ./Common/Src/system_stm32h7xx_dualcore_boot_cm4_cm7.o
 .debug_macro   0x0000000000002b6f       0x3b ./Common/Src/system_stm32h7xx_dualcore_boot_cm4_cm7.o
 .debug_macro   0x0000000000002baa       0x8e ./Common/Src/system_stm32h7xx_dualcore_boot_cm4_cm7.o
 .debug_macro   0x0000000000002c38       0x51 ./Common/Src/system_stm32h7xx_dualcore_boot_cm4_cm7.o
 .debug_macro   0x0000000000002c89      0x103 ./Common/Src/system_stm32h7xx_dualcore_boot_cm4_cm7.o
 .debug_macro   0x0000000000002d8c       0x6a ./Common/Src/system_stm32h7xx_dualcore_boot_cm4_cm7.o
 .debug_macro   0x0000000000002df6      0x1df ./Common/Src/system_stm32h7xx_dualcore_boot_cm4_cm7.o
 .debug_macro   0x0000000000002fd5       0x1c ./Common/Src/system_stm32h7xx_dualcore_boot_cm4_cm7.o
 .debug_macro   0x0000000000002ff1       0x22 ./Common/Src/system_stm32h7xx_dualcore_boot_cm4_cm7.o
 .debug_macro   0x0000000000003013       0xfb ./Common/Src/system_stm32h7xx_dualcore_boot_cm4_cm7.o
 .debug_macro   0x000000000000310e     0x1011 ./Common/Src/system_stm32h7xx_dualcore_boot_cm4_cm7.o
 .debug_macro   0x000000000000411f      0x11f ./Common/Src/system_stm32h7xx_dualcore_boot_cm4_cm7.o
 .debug_macro   0x000000000000423e    0x2cd29 ./Common/Src/system_stm32h7xx_dualcore_boot_cm4_cm7.o
 .debug_macro   0x0000000000030f67       0x6d ./Common/Src/system_stm32h7xx_dualcore_boot_cm4_cm7.o
 .debug_macro   0x0000000000030fd4      0x22c ./Common/Src/system_stm32h7xx_dualcore_boot_cm4_cm7.o
 .debug_macro   0x0000000000031200     0x3d1e ./Common/Src/system_stm32h7xx_dualcore_boot_cm4_cm7.o
 .debug_macro   0x0000000000034f1e      0x174 ./Common/Src/system_stm32h7xx_dualcore_boot_cm4_cm7.o
 .debug_macro   0x0000000000035092       0x52 ./Common/Src/system_stm32h7xx_dualcore_boot_cm4_cm7.o
 .debug_macro   0x00000000000350e4      0x19b ./Common/Src/system_stm32h7xx_dualcore_boot_cm4_cm7.o
 .debug_macro   0x000000000003527f       0x5d ./Common/Src/system_stm32h7xx_dualcore_boot_cm4_cm7.o
 .debug_macro   0x00000000000352dc     0x3bdf ./Common/Src/system_stm32h7xx_dualcore_boot_cm4_cm7.o
 .debug_macro   0x0000000000038ebb     0x106b ./Common/Src/system_stm32h7xx_dualcore_boot_cm4_cm7.o
 .debug_macro   0x0000000000039f26      0x14d ./Common/Src/system_stm32h7xx_dualcore_boot_cm4_cm7.o
 .debug_macro   0x000000000003a073      0x130 ./Common/Src/system_stm32h7xx_dualcore_boot_cm4_cm7.o
 .debug_macro   0x000000000003a1a3      0x3c5 ./Common/Src/system_stm32h7xx_dualcore_boot_cm4_cm7.o
 .debug_macro   0x000000000003a568       0xac ./Common/Src/system_stm32h7xx_dualcore_boot_cm4_cm7.o
 .debug_macro   0x000000000003a614      0x72d ./Common/Src/system_stm32h7xx_dualcore_boot_cm4_cm7.o
 .debug_macro   0x000000000003ad41      0x228 ./Common/Src/system_stm32h7xx_dualcore_boot_cm4_cm7.o
 .debug_macro   0x000000000003af69       0x66 ./Common/Src/system_stm32h7xx_dualcore_boot_cm4_cm7.o
 .debug_macro   0x000000000003afcf      0x3c9 ./Common/Src/system_stm32h7xx_dualcore_boot_cm4_cm7.o
 .debug_macro   0x000000000003b398      0x407 ./Common/Src/system_stm32h7xx_dualcore_boot_cm4_cm7.o
 .debug_macro   0x000000000003b79f      0x244 ./Common/Src/system_stm32h7xx_dualcore_boot_cm4_cm7.o
 .debug_macro   0x000000000003b9e3      0x3ca ./Common/Src/system_stm32h7xx_dualcore_boot_cm4_cm7.o
 .debug_macro   0x000000000003bdad      0x4a2 ./Common/Src/system_stm32h7xx_dualcore_boot_cm4_cm7.o
 .debug_macro   0x000000000003c24f       0x51 ./Common/Src/system_stm32h7xx_dualcore_boot_cm4_cm7.o
 .debug_macro   0x000000000003c2a0       0x4a ./Common/Src/system_stm32h7xx_dualcore_boot_cm4_cm7.o
 .debug_macro   0x000000000003c2ea      0x22c ./Common/Src/system_stm32h7xx_dualcore_boot_cm4_cm7.o
 .debug_macro   0x000000000003c516       0x67 ./Common/Src/system_stm32h7xx_dualcore_boot_cm4_cm7.o
 .debug_macro   0x000000000003c57d       0xa5 ./Common/Src/system_stm32h7xx_dualcore_boot_cm4_cm7.o
 .debug_macro   0x000000000003c622      0x218 ./Common/Src/system_stm32h7xx_dualcore_boot_cm4_cm7.o
 .debug_macro   0x000000000003c83a      0x2ea ./Common/Src/system_stm32h7xx_dualcore_boot_cm4_cm7.o
 .debug_macro   0x000000000003cb24       0x35 ./Common/Src/system_stm32h7xx_dualcore_boot_cm4_cm7.o
 .debug_macro   0x000000000003cb59      0x798 ./Common/Src/system_stm32h7xx_dualcore_boot_cm4_cm7.o
 .debug_macro   0x000000000003d2f1      0x31b ./Core/Src/Application/threads_cm4.o
 .debug_macro   0x000000000003d60c      0x164 ./Core/Src/app_threadx.o
 .debug_macro   0x000000000003d770      0x327 ./Core/Src/main.o
 .debug_macro   0x000000000003da97      0x28c ./Core/Src/stm32h7xx_hal_msp.o
 .debug_macro   0x000000000003dd23      0x296 ./Core/Src/stm32h7xx_it.o
 .debug_macro   0x000000000003dfb9      0x2ac ./Drivers/STM32H7xx_HAL_Driver/stm32h7xx_hal.o
 .debug_macro   0x000000000003e265      0x282 ./Drivers/STM32H7xx_HAL_Driver/stm32h7xx_hal_cortex.o
 .debug_macro   0x000000000003e4e7      0x296 ./Drivers/STM32H7xx_HAL_Driver/stm32h7xx_hal_gpio.o
 .debug_macro   0x000000000003e77d      0x294 ./Drivers/STM32H7xx_HAL_Driver/stm32h7xx_hal_hsem.o
 .debug_macro   0x000000000003ea11      0x2bb ./Drivers/STM32H7xx_HAL_Driver/stm32h7xx_hal_pwr_ex.o
 .debug_macro   0x000000000003eccc      0x2a6 ./Drivers/STM32H7xx_HAL_Driver/stm32h7xx_hal_rcc.o
 .debug_macro   0x000000000003ef72      0x18b ./FileX/App/app_filex.o
 .debug_macro   0x000000000003f0fd      0x172 ./Middlewares/ThreadX/RTOS/ThreadX/Core/tx_byte_allocate.o
 .debug_macro   0x000000000003f26f       0x2f ./Middlewares/ThreadX/RTOS/ThreadX/Core/tx_byte_allocate.o
 .debug_macro   0x000000000003f29e      0x172 ./Middlewares/ThreadX/RTOS/ThreadX/Core/tx_byte_pool_cleanup.o
 .debug_macro   0x000000000003f410      0x172 ./Middlewares/ThreadX/RTOS/ThreadX/Core/tx_byte_pool_create.o
 .debug_macro   0x000000000003f582      0x172 ./Middlewares/ThreadX/RTOS/ThreadX/Core/tx_byte_pool_search.o
 .debug_macro   0x000000000003f6f4      0x1c0 ./Middlewares/ThreadX/RTOS/ThreadX/Core/tx_initialize_high_level.o
 .debug_macro   0x000000000003f8b4       0x34 ./Middlewares/ThreadX/RTOS/ThreadX/Core/tx_initialize_high_level.o
 .debug_macro   0x000000000003f8e8       0x23 ./Middlewares/ThreadX/RTOS/ThreadX/Core/tx_initialize_high_level.o
 .debug_macro   0x000000000003f90b       0x29 ./Middlewares/ThreadX/RTOS/ThreadX/Core/tx_initialize_high_level.o
 .debug_macro   0x000000000003f934       0x2f ./Middlewares/ThreadX/RTOS/ThreadX/Core/tx_initialize_high_level.o
 .debug_macro   0x000000000003f963       0x35 ./Middlewares/ThreadX/RTOS/ThreadX/Core/tx_initialize_high_level.o
 .debug_macro   0x000000000003f998       0x29 ./Middlewares/ThreadX/RTOS/ThreadX/Core/tx_initialize_high_level.o
 .debug_macro   0x000000000003f9c1       0x29 ./Middlewares/ThreadX/RTOS/ThreadX/Core/tx_initialize_high_level.o
 .debug_macro   0x000000000003f9ea       0x3b ./Middlewares/ThreadX/RTOS/ThreadX/Core/tx_initialize_high_level.o
 .debug_macro   0x000000000003fa25      0x17b ./Middlewares/ThreadX/RTOS/ThreadX/Core/tx_initialize_kernel_enter.o
 .debug_macro   0x000000000003fba0      0x17b ./Middlewares/ThreadX/RTOS/ThreadX/Core/tx_thread_create.o
 .debug_macro   0x000000000003fd1b      0x178 ./Middlewares/ThreadX/RTOS/ThreadX/Core/tx_thread_initialize.o
 .debug_macro   0x000000000003fe93      0x169 ./Middlewares/ThreadX/RTOS/ThreadX/Core/tx_thread_shell_entry.o
 .debug_macro   0x000000000003fffc      0x17b ./Middlewares/ThreadX/RTOS/ThreadX/Core/tx_thread_sleep.o
 .debug_macro   0x0000000000040177      0x169 ./Middlewares/ThreadX/RTOS/ThreadX/Core/tx_thread_system_preempt_check.o
 .debug_macro   0x00000000000402e0      0x17b ./Middlewares/ThreadX/RTOS/ThreadX/Core/tx_thread_system_resume.o
 .debug_macro   0x000000000004045b      0x17b ./Middlewares/ThreadX/RTOS/ThreadX/Core/tx_thread_system_suspend.o
 .debug_macro   0x00000000000405d6      0x17b ./Middlewares/ThreadX/RTOS/ThreadX/Core/tx_thread_time_slice.o
 .debug_macro   0x0000000000040751      0x172 ./Middlewares/ThreadX/RTOS/ThreadX/Core/tx_thread_timeout.o
 .debug_macro   0x00000000000408c3      0x172 ./Middlewares/ThreadX/RTOS/ThreadX/Core/tx_timer_expiration_process.o
 .debug_macro   0x0000000000040a35      0x172 ./Middlewares/ThreadX/RTOS/ThreadX/Core/tx_timer_initialize.o
 .debug_macro   0x0000000000040ba7      0x169 ./Middlewares/ThreadX/RTOS/ThreadX/Core/tx_timer_system_activate.o
 .debug_macro   0x0000000000040d10      0x169 ./Middlewares/ThreadX/RTOS/ThreadX/Core/tx_timer_system_deactivate.o
 .debug_macro   0x0000000000040e79      0x172 ./Middlewares/ThreadX/RTOS/ThreadX/Core/tx_timer_thread_entry.o
 .debug_macro   0x0000000000040feb      0x184 ./Middlewares/ThreadX/RTOS/ThreadX/Core/txe_byte_allocate.o
 .debug_macro   0x000000000004116f      0x184 ./Middlewares/ThreadX/RTOS/ThreadX/Core/txe_byte_pool_create.o
 .debug_macro   0x00000000000412f3      0x17b ./Middlewares/ThreadX/RTOS/ThreadX/Core/txe_thread_create.o

.debug_line     0x0000000000000000    0x131c9
 .debug_line    0x0000000000000000      0x666 ./AZURE_RTOS/App/app_azure_rtos.o
 .debug_line    0x0000000000000666      0x982 ./Common/Src/system_stm32h7xx_dualcore_boot_cm4_cm7.o
 .debug_line    0x0000000000000fe8      0x937 ./Core/Src/Application/threads_cm4.o
 .debug_line    0x000000000000191f      0x59c ./Core/Src/app_threadx.o
 .debug_line    0x0000000000001ebb      0x934 ./Core/Src/main.o
 .debug_line    0x00000000000027ef      0x7ed ./Core/Src/stm32h7xx_hal_msp.o
 .debug_line    0x0000000000002fdc      0x873 ./Core/Src/stm32h7xx_it.o
 .debug_line    0x000000000000384f       0x8b ./Core/Src/tx_initialize_low_level.o
 .debug_line    0x00000000000038da       0x88 ./Core/Startup/startup_stm32h757xihx.o
 .debug_line    0x0000000000003962      0xf3b ./Drivers/STM32H7xx_HAL_Driver/stm32h7xx_hal.o
 .debug_line    0x000000000000489d      0xdeb ./Drivers/STM32H7xx_HAL_Driver/stm32h7xx_hal_cortex.o
 .debug_line    0x0000000000005688      0xc9e ./Drivers/STM32H7xx_HAL_Driver/stm32h7xx_hal_gpio.o
 .debug_line    0x0000000000006326      0x99b ./Drivers/STM32H7xx_HAL_Driver/stm32h7xx_hal_hsem.o
 .debug_line    0x0000000000006cc1     0x1006 ./Drivers/STM32H7xx_HAL_Driver/stm32h7xx_hal_pwr_ex.o
 .debug_line    0x0000000000007cc7     0x1347 ./Drivers/STM32H7xx_HAL_Driver/stm32h7xx_hal_rcc.o
 .debug_line    0x000000000000900e      0x5f9 ./FileX/App/app_filex.o
 .debug_line    0x0000000000009607      0x6fe ./Middlewares/ThreadX/RTOS/ThreadX/Core/tx_byte_allocate.o
 .debug_line    0x0000000000009d05      0x69a ./Middlewares/ThreadX/RTOS/ThreadX/Core/tx_byte_pool_cleanup.o
 .debug_line    0x000000000000a39f      0x685 ./Middlewares/ThreadX/RTOS/ThreadX/Core/tx_byte_pool_create.o
 .debug_line    0x000000000000aa24      0x768 ./Middlewares/ThreadX/RTOS/ThreadX/Core/tx_byte_pool_search.o
 .debug_line    0x000000000000b18c      0x67c ./Middlewares/ThreadX/RTOS/ThreadX/Core/tx_initialize_high_level.o
 .debug_line    0x000000000000b808      0x619 ./Middlewares/ThreadX/RTOS/ThreadX/Core/tx_initialize_kernel_enter.o
 .debug_line    0x000000000000be21      0x70b ./Middlewares/ThreadX/RTOS/ThreadX/Core/tx_thread_create.o
 .debug_line    0x000000000000c52c      0x611 ./Middlewares/ThreadX/RTOS/ThreadX/Core/tx_thread_initialize.o
 .debug_line    0x000000000000cb3d      0x104 ./Middlewares/ThreadX/RTOS/ThreadX/Core/tx_thread_schedule.o
 .debug_line    0x000000000000cc41      0x647 ./Middlewares/ThreadX/RTOS/ThreadX/Core/tx_thread_shell_entry.o
 .debug_line    0x000000000000d288      0x6bc ./Middlewares/ThreadX/RTOS/ThreadX/Core/tx_thread_sleep.o
 .debug_line    0x000000000000d944       0xd0 ./Middlewares/ThreadX/RTOS/ThreadX/Core/tx_thread_stack_build.o
 .debug_line    0x000000000000da14      0x62c ./Middlewares/ThreadX/RTOS/ThreadX/Core/tx_thread_system_preempt_check.o
 .debug_line    0x000000000000e040      0x771 ./Middlewares/ThreadX/RTOS/ThreadX/Core/tx_thread_system_resume.o
 .debug_line    0x000000000000e7b1      0x7aa ./Middlewares/ThreadX/RTOS/ThreadX/Core/tx_thread_system_suspend.o
 .debug_line    0x000000000000ef5b      0x655 ./Middlewares/ThreadX/RTOS/ThreadX/Core/tx_thread_time_slice.o
 .debug_line    0x000000000000f5b0      0x645 ./Middlewares/ThreadX/RTOS/ThreadX/Core/tx_thread_timeout.o
 .debug_line    0x000000000000fbf5      0x624 ./Middlewares/ThreadX/RTOS/ThreadX/Core/tx_timer_expiration_process.o
 .debug_line    0x0000000000010219      0x62c ./Middlewares/ThreadX/RTOS/ThreadX/Core/tx_timer_initialize.o
 .debug_line    0x0000000000010845      0x110 ./Middlewares/ThreadX/RTOS/ThreadX/Core/tx_timer_interrupt.o
 .debug_line    0x0000000000010955      0x62b ./Middlewares/ThreadX/RTOS/ThreadX/Core/tx_timer_system_activate.o
 .debug_line    0x0000000000010f80      0x608 ./Middlewares/ThreadX/RTOS/ThreadX/Core/tx_timer_system_deactivate.o
 .debug_line    0x0000000000011588      0x770 ./Middlewares/ThreadX/RTOS/ThreadX/Core/tx_timer_thread_entry.o
 .debug_line    0x0000000000011cf8      0x692 ./Middlewares/ThreadX/RTOS/ThreadX/Core/txe_byte_allocate.o
 .debug_line    0x000000000001238a      0x701 ./Middlewares/ThreadX/RTOS/ThreadX/Core/txe_byte_pool_create.o
 .debug_line    0x0000000000012a8b      0x73e ./Middlewares/ThreadX/RTOS/ThreadX/Core/txe_thread_create.o

.debug_str      0x0000000000000000   0x197104
 .debug_str     0x0000000000000000     0xd0aa ./AZURE_RTOS/App/app_azure_rtos.o
                                       0xd1fc (size before relaxing)
 .debug_str     0x000000000000d0aa   0x184c48 ./Common/Src/system_stm32h7xx_dualcore_boot_cm4_cm7.o
                                     0x18b164 (size before relaxing)
 .debug_str     0x0000000000191cf2       0xfe ./Core/Src/Application/threads_cm4.o
                                     0x18f8de (size before relaxing)
 .debug_str     0x0000000000191df0       0x2a ./Core/Src/app_threadx.o
                                       0xac63 (size before relaxing)
 .debug_str     0x0000000000191e1a      0x1b2 ./Core/Src/main.o
                                     0x18f516 (size before relaxing)
 .debug_str     0x0000000000191fcc       0x2c ./Core/Src/stm32h7xx_hal_msp.o
                                     0x18afff (size before relaxing)
 .debug_str     0x0000000000191ff8       0x92 ./Core/Src/stm32h7xx_it.o
                                     0x18ae27 (size before relaxing)
 .debug_str     0x000000000019208a       0x34 ./Core/Src/tx_initialize_low_level.o
                                         0x7e (size before relaxing)
 .debug_str     0x00000000001920be       0x28 ./Core/Startup/startup_stm32h757xihx.o
                                         0x80 (size before relaxing)
 .debug_str     0x00000000001920e6     0x12e9 ./Drivers/STM32H7xx_HAL_Driver/stm32h7xx_hal.o
                                     0x18c4c6 (size before relaxing)
 .debug_str     0x00000000001933cf      0x39e ./Drivers/STM32H7xx_HAL_Driver/stm32h7xx_hal_cortex.o
                                     0x18bc14 (size before relaxing)
 .debug_str     0x000000000019376d      0x15b ./Drivers/STM32H7xx_HAL_Driver/stm32h7xx_hal_gpio.o
                                     0x18b39c (size before relaxing)
 .debug_str     0x00000000001938c8      0x1e0 ./Drivers/STM32H7xx_HAL_Driver/stm32h7xx_hal_hsem.o
                                     0x18b027 (size before relaxing)
 .debug_str     0x0000000000193aa8      0x6df ./Drivers/STM32H7xx_HAL_Driver/stm32h7xx_hal_pwr_ex.o
                                     0x18b7f2 (size before relaxing)
 .debug_str     0x0000000000194187      0x543 ./Drivers/STM32H7xx_HAL_Driver/stm32h7xx_hal_rcc.o
                                     0x18b71d (size before relaxing)
 .debug_str     0x00000000001946ca       0x19 ./FileX/App/app_filex.o
                                       0xd0ec (size before relaxing)
 .debug_str     0x00000000001946e3      0x8f0 ./Middlewares/ThreadX/RTOS/ThreadX/Core/tx_byte_allocate.o
                                       0xa25c (size before relaxing)
 .debug_str     0x0000000000194fd3       0x92 ./Middlewares/ThreadX/RTOS/ThreadX/Core/tx_byte_pool_cleanup.o
                                       0xa1f9 (size before relaxing)
 .debug_str     0x0000000000195065      0x1a5 ./Middlewares/ThreadX/RTOS/ThreadX/Core/tx_byte_pool_create.o
                                       0x9c53 (size before relaxing)
 .debug_str     0x000000000019520a       0xfb ./Middlewares/ThreadX/RTOS/ThreadX/Core/tx_byte_pool_search.o
                                       0xa247 (size before relaxing)
 .debug_str     0x0000000000195305      0xdf6 ./Middlewares/ThreadX/RTOS/ThreadX/Core/tx_initialize_high_level.o
                                       0xaf1c (size before relaxing)
 .debug_str     0x00000000001960fb       0xc4 ./Middlewares/ThreadX/RTOS/ThreadX/Core/tx_initialize_kernel_enter.o
                                       0x9b69 (size before relaxing)
 .debug_str     0x00000000001961bf      0x187 ./Middlewares/ThreadX/RTOS/ThreadX/Core/tx_thread_create.o
                                       0xa2d9 (size before relaxing)
 .debug_str     0x0000000000196346      0x147 ./Middlewares/ThreadX/RTOS/ThreadX/Core/tx_thread_initialize.o
                                       0xa17e (size before relaxing)
 .debug_str     0x000000000019648d       0x84 ./Middlewares/ThreadX/RTOS/ThreadX/Core/tx_thread_schedule.o
                                         0xdc (size before relaxing)
 .debug_str     0x0000000000196511       0xb0 ./Middlewares/ThreadX/RTOS/ThreadX/Core/tx_thread_shell_entry.o
                                       0xa002 (size before relaxing)
 .debug_str     0x00000000001965c1       0x91 ./Middlewares/ThreadX/RTOS/ThreadX/Core/tx_thread_sleep.o
                                       0xa100 (size before relaxing)
 .debug_str     0x0000000000196652       0x87 ./Middlewares/ThreadX/RTOS/ThreadX/Core/tx_thread_stack_build.o
                                         0xdf (size before relaxing)
 .debug_str     0x00000000001966d9       0xb5 ./Middlewares/ThreadX/RTOS/ThreadX/Core/tx_thread_system_preempt_check.o
                                       0xa00d (size before relaxing)
 .debug_str     0x000000000019678e       0xb7 ./Middlewares/ThreadX/RTOS/ThreadX/Core/tx_thread_system_resume.o
                                       0xa1c1 (size before relaxing)
 .debug_str     0x0000000000196845       0xc7 ./Middlewares/ThreadX/RTOS/ThreadX/Core/tx_thread_system_suspend.o
                                       0xa1f5 (size before relaxing)
 .debug_str     0x000000000019690c       0xac ./Middlewares/ThreadX/RTOS/ThreadX/Core/tx_thread_time_slice.o
                                       0xa0fb (size before relaxing)
 .debug_str     0x00000000001969b8       0x84 ./Middlewares/ThreadX/RTOS/ThreadX/Core/tx_thread_timeout.o
                                       0xa03b (size before relaxing)
 .debug_str     0x0000000000196a3c       0x9d ./Middlewares/ThreadX/RTOS/ThreadX/Core/tx_timer_expiration_process.o
                                       0xa023 (size before relaxing)
 .debug_str     0x0000000000196ad9      0x21e ./Middlewares/ThreadX/RTOS/ThreadX/Core/tx_timer_initialize.o
                                       0xa17a (size before relaxing)
 .debug_str     0x0000000000196cf7       0x84 ./Middlewares/ThreadX/RTOS/ThreadX/Core/tx_timer_interrupt.o
                                         0xdc (size before relaxing)
 .debug_str     0x0000000000196d7b       0xad ./Middlewares/ThreadX/RTOS/ThreadX/Core/tx_timer_system_activate.o
                                       0x94d6 (size before relaxing)
 .debug_str     0x0000000000196e28       0x7f ./Middlewares/ThreadX/RTOS/ThreadX/Core/tx_timer_system_deactivate.o
                                       0x9475 (size before relaxing)
 .debug_str     0x0000000000196ea7       0xbb ./Middlewares/ThreadX/RTOS/ThreadX/Core/tx_timer_thread_entry.o
                                       0xa123 (size before relaxing)
 .debug_str     0x0000000000196f62       0x76 ./Middlewares/ThreadX/RTOS/ThreadX/Core/txe_byte_allocate.o
                                       0xa360 (size before relaxing)
 .debug_str     0x0000000000196fd8       0x91 ./Middlewares/ThreadX/RTOS/ThreadX/Core/txe_byte_pool_create.o
                                       0xa45b (size before relaxing)
 .debug_str     0x0000000000197069       0x9b ./Middlewares/ThreadX/RTOS/ThreadX/Core/txe_thread_create.o
                                       0xa2a3 (size before relaxing)

.comment        0x0000000000000000       0x50
 .comment       0x0000000000000000       0x50 ./AZURE_RTOS/App/app_azure_rtos.o
                                         0x51 (size before relaxing)
 .comment       0x0000000000000050       0x51 ./Common/Src/system_stm32h7xx_dualcore_boot_cm4_cm7.o
 .comment       0x0000000000000050       0x51 ./Core/Src/Application/threads_cm4.o
 .comment       0x0000000000000050       0x51 ./Core/Src/app_threadx.o
 .comment       0x0000000000000050       0x51 ./Core/Src/main.o
 .comment       0x0000000000000050       0x51 ./Core/Src/stm32h7xx_hal_msp.o
 .comment       0x0000000000000050       0x51 ./Core/Src/stm32h7xx_it.o
 .comment       0x0000000000000050       0x51 ./Drivers/STM32H7xx_HAL_Driver/stm32h7xx_hal.o
 .comment       0x0000000000000050       0x51 ./Drivers/STM32H7xx_HAL_Driver/stm32h7xx_hal_cortex.o
 .comment       0x0000000000000050       0x51 ./Drivers/STM32H7xx_HAL_Driver/stm32h7xx_hal_gpio.o
 .comment       0x0000000000000050       0x51 ./Drivers/STM32H7xx_HAL_Driver/stm32h7xx_hal_hsem.o
 .comment       0x0000000000000050       0x51 ./Drivers/STM32H7xx_HAL_Driver/stm32h7xx_hal_pwr_ex.o
 .comment       0x0000000000000050       0x51 ./Drivers/STM32H7xx_HAL_Driver/stm32h7xx_hal_rcc.o
 .comment       0x0000000000000050       0x51 ./FileX/App/app_filex.o
 .comment       0x0000000000000050       0x51 ./Middlewares/ThreadX/RTOS/ThreadX/Core/tx_byte_allocate.o
 .comment       0x0000000000000050       0x51 ./Middlewares/ThreadX/RTOS/ThreadX/Core/tx_byte_pool_cleanup.o
 .comment       0x0000000000000050       0x51 ./Middlewares/ThreadX/RTOS/ThreadX/Core/tx_byte_pool_create.o
 .comment       0x0000000000000050       0x51 ./Middlewares/ThreadX/RTOS/ThreadX/Core/tx_byte_pool_search.o
 .comment       0x0000000000000050       0x51 ./Middlewares/ThreadX/RTOS/ThreadX/Core/tx_initialize_high_level.o
 .comment       0x0000000000000050       0x51 ./Middlewares/ThreadX/RTOS/ThreadX/Core/tx_initialize_kernel_enter.o
 .comment       0x0000000000000050       0x51 ./Middlewares/ThreadX/RTOS/ThreadX/Core/tx_thread_create.o
 .comment       0x0000000000000050       0x51 ./Middlewares/ThreadX/RTOS/ThreadX/Core/tx_thread_initialize.o
 .comment       0x0000000000000050       0x51 ./Middlewares/ThreadX/RTOS/ThreadX/Core/tx_thread_shell_entry.o
 .comment       0x0000000000000050       0x51 ./Middlewares/ThreadX/RTOS/ThreadX/Core/tx_thread_sleep.o
 .comment       0x0000000000000050       0x51 ./Middlewares/ThreadX/RTOS/ThreadX/Core/tx_thread_system_preempt_check.o
 .comment       0x0000000000000050       0x51 ./Middlewares/ThreadX/RTOS/ThreadX/Core/tx_thread_system_resume.o
 .comment       0x0000000000000050       0x51 ./Middlewares/ThreadX/RTOS/ThreadX/Core/tx_thread_system_suspend.o
 .comment       0x0000000000000050       0x51 ./Middlewares/ThreadX/RTOS/ThreadX/Core/tx_thread_time_slice.o
 .comment       0x0000000000000050       0x51 ./Middlewares/ThreadX/RTOS/ThreadX/Core/tx_thread_timeout.o
 .comment       0x0000000000000050       0x51 ./Middlewares/ThreadX/RTOS/ThreadX/Core/tx_timer_expiration_process.o
 .comment       0x0000000000000050       0x51 ./Middlewares/ThreadX/RTOS/ThreadX/Core/tx_timer_initialize.o
 .comment       0x0000000000000050       0x51 ./Middlewares/ThreadX/RTOS/ThreadX/Core/tx_timer_system_activate.o
 .comment       0x0000000000000050       0x51 ./Middlewares/ThreadX/RTOS/ThreadX/Core/tx_timer_system_deactivate.o
 .comment       0x0000000000000050       0x51 ./Middlewares/ThreadX/RTOS/ThreadX/Core/tx_timer_thread_entry.o
 .comment       0x0000000000000050       0x51 ./Middlewares/ThreadX/RTOS/ThreadX/Core/txe_byte_allocate.o
 .comment       0x0000000000000050       0x51 ./Middlewares/ThreadX/RTOS/ThreadX/Core/txe_byte_pool_create.o
 .comment       0x0000000000000050       0x51 ./Middlewares/ThreadX/RTOS/ThreadX/Core/txe_thread_create.o

.debug_frame    0x0000000000000000     0x1fb8
 .debug_frame   0x0000000000000000       0x34 ./AZURE_RTOS/App/app_azure_rtos.o
 .debug_frame   0x0000000000000034       0x58 ./Common/Src/system_stm32h7xx_dualcore_boot_cm4_cm7.o
 .debug_frame   0x000000000000008c       0x6c ./Core/Src/Application/threads_cm4.o
 .debug_frame   0x00000000000000f8       0x50 ./Core/Src/app_threadx.o
 .debug_frame   0x0000000000000148       0x6c ./Core/Src/main.o
 .debug_frame   0x00000000000001b4       0x38 ./Core/Src/stm32h7xx_hal_msp.o
 .debug_frame   0x00000000000001ec       0xa8 ./Core/Src/stm32h7xx_it.o
 .debug_frame   0x0000000000000294      0x848 ./Drivers/STM32H7xx_HAL_Driver/stm32h7xx_hal.o
 .debug_frame   0x0000000000000adc      0x4b8 ./Drivers/STM32H7xx_HAL_Driver/stm32h7xx_hal_cortex.o
 .debug_frame   0x0000000000000f94      0x14c ./Drivers/STM32H7xx_HAL_Driver/stm32h7xx_hal_gpio.o
 .debug_frame   0x00000000000010e0      0x1bc ./Drivers/STM32H7xx_HAL_Driver/stm32h7xx_hal_hsem.o
 .debug_frame   0x000000000000129c      0x5ec ./Drivers/STM32H7xx_HAL_Driver/stm32h7xx_hal_pwr_ex.o
 .debug_frame   0x0000000000001888      0x1f8 ./Drivers/STM32H7xx_HAL_Driver/stm32h7xx_hal_rcc.o
 .debug_frame   0x0000000000001a80       0x38 ./FileX/App/app_filex.o
 .debug_frame   0x0000000000001ab8       0x34 ./Middlewares/ThreadX/RTOS/ThreadX/Core/tx_byte_allocate.o
 .debug_frame   0x0000000000001aec       0x34 ./Middlewares/ThreadX/RTOS/ThreadX/Core/tx_byte_pool_cleanup.o
 .debug_frame   0x0000000000001b20       0x34 ./Middlewares/ThreadX/RTOS/ThreadX/Core/tx_byte_pool_create.o
 .debug_frame   0x0000000000001b54       0x38 ./Middlewares/ThreadX/RTOS/ThreadX/Core/tx_byte_pool_search.o
 .debug_frame   0x0000000000001b8c       0x2c ./Middlewares/ThreadX/RTOS/ThreadX/Core/tx_initialize_high_level.o
 .debug_frame   0x0000000000001bb8       0x2c ./Middlewares/ThreadX/RTOS/ThreadX/Core/tx_initialize_kernel_enter.o
 .debug_frame   0x0000000000001be4       0x34 ./Middlewares/ThreadX/RTOS/ThreadX/Core/tx_thread_create.o
 .debug_frame   0x0000000000001c18       0x2c ./Middlewares/ThreadX/RTOS/ThreadX/Core/tx_thread_initialize.o
 .debug_frame   0x0000000000001c44       0x34 ./Middlewares/ThreadX/RTOS/ThreadX/Core/tx_thread_shell_entry.o
 .debug_frame   0x0000000000001c78       0x34 ./Middlewares/ThreadX/RTOS/ThreadX/Core/tx_thread_sleep.o
 .debug_frame   0x0000000000001cac       0x38 ./Middlewares/ThreadX/RTOS/ThreadX/Core/tx_thread_system_preempt_check.o
 .debug_frame   0x0000000000001ce4       0x34 ./Middlewares/ThreadX/RTOS/ThreadX/Core/tx_thread_system_resume.o
 .debug_frame   0x0000000000001d18       0x38 ./Middlewares/ThreadX/RTOS/ThreadX/Core/tx_thread_system_suspend.o
 .debug_frame   0x0000000000001d50       0x38 ./Middlewares/ThreadX/RTOS/ThreadX/Core/tx_thread_time_slice.o
 .debug_frame   0x0000000000001d88       0x34 ./Middlewares/ThreadX/RTOS/ThreadX/Core/tx_thread_timeout.o
 .debug_frame   0x0000000000001dbc       0x34 ./Middlewares/ThreadX/RTOS/ThreadX/Core/tx_timer_expiration_process.o
 .debug_frame   0x0000000000001df0       0x38 ./Middlewares/ThreadX/RTOS/ThreadX/Core/tx_timer_initialize.o
 .debug_frame   0x0000000000001e28       0x38 ./Middlewares/ThreadX/RTOS/ThreadX/Core/tx_timer_system_activate.o
 .debug_frame   0x0000000000001e60       0x38 ./Middlewares/ThreadX/RTOS/ThreadX/Core/tx_timer_system_deactivate.o
 .debug_frame   0x0000000000001e98       0x34 ./Middlewares/ThreadX/RTOS/ThreadX/Core/tx_timer_thread_entry.o
 .debug_frame   0x0000000000001ecc       0x34 ./Middlewares/ThreadX/RTOS/ThreadX/Core/txe_byte_allocate.o
 .debug_frame   0x0000000000001f00       0x34 ./Middlewares/ThreadX/RTOS/ThreadX/Core/txe_byte_pool_create.o
 .debug_frame   0x0000000000001f34       0x38 ./Middlewares/ThreadX/RTOS/ThreadX/Core/txe_thread_create.o
 .debug_frame   0x0000000000001f6c       0x2c c:/st/stm32cubeide_1.9.0/stm32cubeide/plugins/com.st.stm32cube.ide.mcu.externaltools.gnu-tools-for-stm32.10.3-2021.10.win32_1.0.0.202111181127/tools/bin/../lib/gcc/arm-none-eabi/10.3.1/../../../../arm-none-eabi/lib/thumb/v7e-m+fp/hard\libc_nano.a(lib_a-init.o)
 .debug_frame   0x0000000000001f98       0x20 c:/st/stm32cubeide_1.9.0/stm32cubeide/plugins/com.st.stm32cube.ide.mcu.externaltools.gnu-tools-for-stm32.10.3-2021.10.win32_1.0.0.202111181127/tools/bin/../lib/gcc/arm-none-eabi/10.3.1/../../../../arm-none-eabi/lib/thumb/v7e-m+fp/hard\libc_nano.a(lib_a-memset.o)
