Archive member included to satisfy reference by file (symbol)

c:/st/stm32cubeide_1.8.0/stm32cubeide/plugins/com.st.stm32cube.ide.mcu.externaltools.gnu-tools-for-stm32.10.3-2021.10.win32_1.0.0.202111181127/tools/bin/../lib/gcc/arm-none-eabi/10.3.1/../../../../arm-none-eabi/lib/thumb/v7e-m+dp/hard\libc_nano.a(lib_a-errno.o)
                              ./Core/Src/syscalls.o (__errno)
c:/st/stm32cubeide_1.8.0/stm32cubeide/plugins/com.st.stm32cube.ide.mcu.externaltools.gnu-tools-for-stm32.10.3-2021.10.win32_1.0.0.202111181127/tools/bin/../lib/gcc/arm-none-eabi/10.3.1/../../../../arm-none-eabi/lib/thumb/v7e-m+dp/hard\libc_nano.a(lib_a-exit.o)
                              c:/st/stm32cubeide_1.8.0/stm32cubeide/plugins/com.st.stm32cube.ide.mcu.externaltools.gnu-tools-for-stm32.10.3-2021.10.win32_1.0.0.202111181127/tools/bin/../lib/gcc/arm-none-eabi/10.3.1/../../../../arm-none-eabi/lib/thumb/v7e-m+dp/hard/crt0.o (exit)
c:/st/stm32cubeide_1.8.0/stm32cubeide/plugins/com.st.stm32cube.ide.mcu.externaltools.gnu-tools-for-stm32.10.3-2021.10.win32_1.0.0.202111181127/tools/bin/../lib/gcc/arm-none-eabi/10.3.1/../../../../arm-none-eabi/lib/thumb/v7e-m+dp/hard\libc_nano.a(lib_a-impure.o)
                              c:/st/stm32cubeide_1.8.0/stm32cubeide/plugins/com.st.stm32cube.ide.mcu.externaltools.gnu-tools-for-stm32.10.3-2021.10.win32_1.0.0.202111181127/tools/bin/../lib/gcc/arm-none-eabi/10.3.1/../../../../arm-none-eabi/lib/thumb/v7e-m+dp/hard\libc_nano.a(lib_a-exit.o) (_global_impure_ptr)
c:/st/stm32cubeide_1.8.0/stm32cubeide/plugins/com.st.stm32cube.ide.mcu.externaltools.gnu-tools-for-stm32.10.3-2021.10.win32_1.0.0.202111181127/tools/bin/../lib/gcc/arm-none-eabi/10.3.1/../../../../arm-none-eabi/lib/thumb/v7e-m+dp/hard\libc_nano.a(lib_a-init.o)
                              c:/st/stm32cubeide_1.8.0/stm32cubeide/plugins/com.st.stm32cube.ide.mcu.externaltools.gnu-tools-for-stm32.10.3-2021.10.win32_1.0.0.202111181127/tools/bin/../lib/gcc/arm-none-eabi/10.3.1/../../../../arm-none-eabi/lib/thumb/v7e-m+dp/hard/crt0.o (__libc_init_array)
c:/st/stm32cubeide_1.8.0/stm32cubeide/plugins/com.st.stm32cube.ide.mcu.externaltools.gnu-tools-for-stm32.10.3-2021.10.win32_1.0.0.202111181127/tools/bin/../lib/gcc/arm-none-eabi/10.3.1/../../../../arm-none-eabi/lib/thumb/v7e-m+dp/hard\libc_nano.a(lib_a-memcpy-stub.o)
                              ./Middlewares/FileX/File System/FileX/Core/fx_directory_create.o (memcpy)
c:/st/stm32cubeide_1.8.0/stm32cubeide/plugins/com.st.stm32cube.ide.mcu.externaltools.gnu-tools-for-stm32.10.3-2021.10.win32_1.0.0.202111181127/tools/bin/../lib/gcc/arm-none-eabi/10.3.1/../../../../arm-none-eabi/lib/thumb/v7e-m+dp/hard\libc_nano.a(lib_a-memset.o)
                              c:/st/stm32cubeide_1.8.0/stm32cubeide/plugins/com.st.stm32cube.ide.mcu.externaltools.gnu-tools-for-stm32.10.3-2021.10.win32_1.0.0.202111181127/tools/bin/../lib/gcc/arm-none-eabi/10.3.1/../../../../arm-none-eabi/lib/thumb/v7e-m+dp/hard/crt0.o (memset)
c:/st/stm32cubeide_1.8.0/stm32cubeide/plugins/com.st.stm32cube.ide.mcu.externaltools.gnu-tools-for-stm32.10.3-2021.10.win32_1.0.0.202111181127/tools/bin/../lib/gcc/arm-none-eabi/10.3.1/thumb/v7e-m+dp/hard\libgcc.a(_aeabi_uldivmod.o)
                              ./Middlewares/FileX/File System/FileX/Core/fx_file_extended_allocate.o (__aeabi_uldivmod)
c:/st/stm32cubeide_1.8.0/stm32cubeide/plugins/com.st.stm32cube.ide.mcu.externaltools.gnu-tools-for-stm32.10.3-2021.10.win32_1.0.0.202111181127/tools/bin/../lib/gcc/arm-none-eabi/10.3.1/thumb/v7e-m+dp/hard\libgcc.a(_udivmoddi4.o)
                              c:/st/stm32cubeide_1.8.0/stm32cubeide/plugins/com.st.stm32cube.ide.mcu.externaltools.gnu-tools-for-stm32.10.3-2021.10.win32_1.0.0.202111181127/tools/bin/../lib/gcc/arm-none-eabi/10.3.1/thumb/v7e-m+dp/hard\libgcc.a(_aeabi_uldivmod.o) (__udivmoddi4)
c:/st/stm32cubeide_1.8.0/stm32cubeide/plugins/com.st.stm32cube.ide.mcu.externaltools.gnu-tools-for-stm32.10.3-2021.10.win32_1.0.0.202111181127/tools/bin/../lib/gcc/arm-none-eabi/10.3.1/thumb/v7e-m+dp/hard\libgcc.a(_dvmd_tls.o)
                              c:/st/stm32cubeide_1.8.0/stm32cubeide/plugins/com.st.stm32cube.ide.mcu.externaltools.gnu-tools-for-stm32.10.3-2021.10.win32_1.0.0.202111181127/tools/bin/../lib/gcc/arm-none-eabi/10.3.1/thumb/v7e-m+dp/hard\libgcc.a(_aeabi_uldivmod.o) (__aeabi_ldiv0)

Discarded input sections

 .text          0x0000000000000000        0x0 c:/st/stm32cubeide_1.8.0/stm32cubeide/plugins/com.st.stm32cube.ide.mcu.externaltools.gnu-tools-for-stm32.10.3-2021.10.win32_1.0.0.202111181127/tools/bin/../lib/gcc/arm-none-eabi/10.3.1/thumb/v7e-m+dp/hard/crti.o
 .data          0x0000000000000000        0x0 c:/st/stm32cubeide_1.8.0/stm32cubeide/plugins/com.st.stm32cube.ide.mcu.externaltools.gnu-tools-for-stm32.10.3-2021.10.win32_1.0.0.202111181127/tools/bin/../lib/gcc/arm-none-eabi/10.3.1/thumb/v7e-m+dp/hard/crti.o
 .bss           0x0000000000000000        0x0 c:/st/stm32cubeide_1.8.0/stm32cubeide/plugins/com.st.stm32cube.ide.mcu.externaltools.gnu-tools-for-stm32.10.3-2021.10.win32_1.0.0.202111181127/tools/bin/../lib/gcc/arm-none-eabi/10.3.1/thumb/v7e-m+dp/hard/crti.o
 .data          0x0000000000000000        0x4 c:/st/stm32cubeide_1.8.0/stm32cubeide/plugins/com.st.stm32cube.ide.mcu.externaltools.gnu-tools-for-stm32.10.3-2021.10.win32_1.0.0.202111181127/tools/bin/../lib/gcc/arm-none-eabi/10.3.1/thumb/v7e-m+dp/hard/crtbegin.o
 .rodata        0x0000000000000000       0x24 c:/st/stm32cubeide_1.8.0/stm32cubeide/plugins/com.st.stm32cube.ide.mcu.externaltools.gnu-tools-for-stm32.10.3-2021.10.win32_1.0.0.202111181127/tools/bin/../lib/gcc/arm-none-eabi/10.3.1/thumb/v7e-m+dp/hard/crtbegin.o
 .text          0x0000000000000000       0x7c c:/st/stm32cubeide_1.8.0/stm32cubeide/plugins/com.st.stm32cube.ide.mcu.externaltools.gnu-tools-for-stm32.10.3-2021.10.win32_1.0.0.202111181127/tools/bin/../lib/gcc/arm-none-eabi/10.3.1/../../../../arm-none-eabi/lib/thumb/v7e-m+dp/hard/crt0.o
 .data          0x0000000000000000        0x0 c:/st/stm32cubeide_1.8.0/stm32cubeide/plugins/com.st.stm32cube.ide.mcu.externaltools.gnu-tools-for-stm32.10.3-2021.10.win32_1.0.0.202111181127/tools/bin/../lib/gcc/arm-none-eabi/10.3.1/../../../../arm-none-eabi/lib/thumb/v7e-m+dp/hard/crt0.o
 .bss           0x0000000000000000        0x0 c:/st/stm32cubeide_1.8.0/stm32cubeide/plugins/com.st.stm32cube.ide.mcu.externaltools.gnu-tools-for-stm32.10.3-2021.10.win32_1.0.0.202111181127/tools/bin/../lib/gcc/arm-none-eabi/10.3.1/../../../../arm-none-eabi/lib/thumb/v7e-m+dp/hard/crt0.o
 .ARM.extab     0x0000000000000000        0x0 c:/st/stm32cubeide_1.8.0/stm32cubeide/plugins/com.st.stm32cube.ide.mcu.externaltools.gnu-tools-for-stm32.10.3-2021.10.win32_1.0.0.202111181127/tools/bin/../lib/gcc/arm-none-eabi/10.3.1/../../../../arm-none-eabi/lib/thumb/v7e-m+dp/hard/crt0.o
 .ARM.exidx     0x0000000000000000       0x10 c:/st/stm32cubeide_1.8.0/stm32cubeide/plugins/com.st.stm32cube.ide.mcu.externaltools.gnu-tools-for-stm32.10.3-2021.10.win32_1.0.0.202111181127/tools/bin/../lib/gcc/arm-none-eabi/10.3.1/../../../../arm-none-eabi/lib/thumb/v7e-m+dp/hard/crt0.o
 .ARM.attributes
                0x0000000000000000       0x1c c:/st/stm32cubeide_1.8.0/stm32cubeide/plugins/com.st.stm32cube.ide.mcu.externaltools.gnu-tools-for-stm32.10.3-2021.10.win32_1.0.0.202111181127/tools/bin/../lib/gcc/arm-none-eabi/10.3.1/../../../../arm-none-eabi/lib/thumb/v7e-m+dp/hard/crt0.o
 .group         0x0000000000000000        0xc ./AZURE_RTOS/App/app_azure_rtos.o
 .group         0x0000000000000000        0xc ./AZURE_RTOS/App/app_azure_rtos.o
 .group         0x0000000000000000        0xc ./AZURE_RTOS/App/app_azure_rtos.o
 .group         0x0000000000000000        0xc ./AZURE_RTOS/App/app_azure_rtos.o
 .group         0x0000000000000000        0xc ./AZURE_RTOS/App/app_azure_rtos.o
 .group         0x0000000000000000        0xc ./AZURE_RTOS/App/app_azure_rtos.o
Memory Configuration

Name             Origin             Length             Attributes
RAM_D1           0x0000000024000000 0x0000000000080000 xrw
FLASH            0x0000000008000000 0x0000000000100000 xr
DTCMRAM          0x0000000020000000 0x0000000000020000 xrw
RAM_D2           0x0000000030000000 0x0000000000048000 xrw
RAM_D3           0x0000000038000000 0x0000000000010000 xrw
ITCMRAM          0x0000000000000000 0x0000000000010000 xrw
*default*        0x0000000000000000 0xffffffffffffffff

Linker script and memory map

LOAD c:/st/stm32cubeide_1.8.0/stm32cubeide/plugins/com.st.stm32cube.ide.mcu.externaltools.gnu-tools-for-stm32.10.3-2021.10.win32_1.0.0.202111181127/tools/bin/../lib/gcc/arm-none-eabi/10.3.1/thumb/v7e-m+dp/hard/crti.o
LOAD c:/st/stm32cubeide_1.8.0/stm32cubeide/plugins/com.st.stm32cube.ide.mcu.externaltools.gnu-tools-for-stm32.10.3-2021.10.win32_1.0.0.202111181127/tools/bin/../lib/gcc/arm-none-eabi/10.3.1/thumb/v7e-m+dp/hard/crtbegin.o
LOAD c:/st/stm32cubeide_1.8.0/stm32cubeide/plugins/com.st.stm32cube.ide.mcu.externaltools.gnu-tools-for-stm32.10.3-2021.10.win32_1.0.0.202111181127/tools/bin/../lib/gcc/arm-none-eabi/10.3.1/../../../../arm-none-eabi/lib/thumb/v7e-m+dp/hard/crt0.o
LOAD ./AZURE_RTOS/App/app_azure_rtos.o
LOAD ./Common/Src/system_stm32h7xx_dualcore_boot_cm4_cm7.o
LOAD ./Core/Src/Application/threads_cm7.o
LOAD ./Core/Src/app_threadx.o
LOAD ./Core/Src/main.o
LOAD ./Core/Src/stm32h7xx_hal_msp.o
LOAD ./Core/Src/stm32h7xx_it.o
LOAD ./Core/Src/syscalls.o
LOAD ./Core/Src/sysmem.o
LOAD ./Core/Src/tx_initialize_low_level.o
LOAD ./Core/Startup/startup_stm32h757xihx.o
LOAD ./Drivers/STM32H7xx_HAL_Driver/stm32h7xx_hal.o
LOAD ./Drivers/STM32H7xx_HAL_Driver/stm32h7xx_hal_cortex.o
LOAD ./Drivers/STM32H7xx_HAL_Driver/stm32h7xx_hal_dma.o
LOAD ./Drivers/STM32H7xx_HAL_Driver/stm32h7xx_hal_dma_ex.o
LOAD ./Drivers/STM32H7xx_HAL_Driver/stm32h7xx_hal_exti.o
LOAD ./Drivers/STM32H7xx_HAL_Driver/stm32h7xx_hal_flash.o
LOAD ./Drivers/STM32H7xx_HAL_Driver/stm32h7xx_hal_flash_ex.o
LOAD ./Drivers/STM32H7xx_HAL_Driver/stm32h7xx_hal_gpio.o
LOAD ./Drivers/STM32H7xx_HAL_Driver/stm32h7xx_hal_hsem.o
LOAD ./Drivers/STM32H7xx_HAL_Driver/stm32h7xx_hal_i2c.o
LOAD ./Drivers/STM32H7xx_HAL_Driver/stm32h7xx_hal_i2c_ex.o
LOAD ./Drivers/STM32H7xx_HAL_Driver/stm32h7xx_hal_mdma.o
LOAD ./Drivers/STM32H7xx_HAL_Driver/stm32h7xx_hal_pwr.o
LOAD ./Drivers/STM32H7xx_HAL_Driver/stm32h7xx_hal_pwr_ex.o
LOAD ./Drivers/STM32H7xx_HAL_Driver/stm32h7xx_hal_rcc.o
LOAD ./Drivers/STM32H7xx_HAL_Driver/stm32h7xx_hal_rcc_ex.o
LOAD ./Drivers/STM32H7xx_HAL_Driver/stm32h7xx_hal_tim.o
LOAD ./Drivers/STM32H7xx_HAL_Driver/stm32h7xx_hal_tim_ex.o
LOAD ./Drivers/board/drv_dio.o
LOAD ./Drivers/mcu/drv_gpio.o
LOAD ./FileX/App/app_filex.o
LOAD ./Middlewares/FileX/File System/FileX/Core/fx_directory_attributes_read.o
LOAD ./Middlewares/FileX/File System/FileX/Core/fx_directory_attributes_set.o
LOAD ./Middlewares/FileX/File System/FileX/Core/fx_directory_create.o
LOAD ./Middlewares/FileX/File System/FileX/Core/fx_directory_default_get.o
LOAD ./Middlewares/FileX/File System/FileX/Core/fx_directory_default_get_copy.o
LOAD ./Middlewares/FileX/File System/FileX/Core/fx_directory_default_set.o
LOAD ./Middlewares/FileX/File System/FileX/Core/fx_directory_delete.o
LOAD ./Middlewares/FileX/File System/FileX/Core/fx_directory_entry_read.o
LOAD ./Middlewares/FileX/File System/FileX/Core/fx_directory_entry_write.o
LOAD ./Middlewares/FileX/File System/FileX/Core/fx_directory_exFAT_entry_read.o
LOAD ./Middlewares/FileX/File System/FileX/Core/fx_directory_exFAT_entry_write.o
LOAD ./Middlewares/FileX/File System/FileX/Core/fx_directory_exFAT_free_search.o
LOAD ./Middlewares/FileX/File System/FileX/Core/fx_directory_exFAT_unicode_entry_write.o
LOAD ./Middlewares/FileX/File System/FileX/Core/fx_directory_first_entry_find.o
LOAD ./Middlewares/FileX/File System/FileX/Core/fx_directory_first_full_entry_find.o
LOAD ./Middlewares/FileX/File System/FileX/Core/fx_directory_free_search.o
LOAD ./Middlewares/FileX/File System/FileX/Core/fx_directory_information_get.o
LOAD ./Middlewares/FileX/File System/FileX/Core/fx_directory_local_path_clear.o
LOAD ./Middlewares/FileX/File System/FileX/Core/fx_directory_local_path_get.o
LOAD ./Middlewares/FileX/File System/FileX/Core/fx_directory_local_path_get_copy.o
LOAD ./Middlewares/FileX/File System/FileX/Core/fx_directory_local_path_restore.o
LOAD ./Middlewares/FileX/File System/FileX/Core/fx_directory_local_path_set.o
LOAD ./Middlewares/FileX/File System/FileX/Core/fx_directory_long_name_get.o
LOAD ./Middlewares/FileX/File System/FileX/Core/fx_directory_long_name_get_extended.o
LOAD ./Middlewares/FileX/File System/FileX/Core/fx_directory_name_extract.o
LOAD ./Middlewares/FileX/File System/FileX/Core/fx_directory_name_test.o
LOAD ./Middlewares/FileX/File System/FileX/Core/fx_directory_next_entry_find.o
LOAD ./Middlewares/FileX/File System/FileX/Core/fx_directory_next_full_entry_find.o
LOAD ./Middlewares/FileX/File System/FileX/Core/fx_directory_rename.o
LOAD ./Middlewares/FileX/File System/FileX/Core/fx_directory_search.o
LOAD ./Middlewares/FileX/File System/FileX/Core/fx_directory_short_name_get.o
LOAD ./Middlewares/FileX/File System/FileX/Core/fx_directory_short_name_get_extended.o
LOAD ./Middlewares/FileX/File System/FileX/Core/fx_fault_tolerant_add_FAT_log.o
LOAD ./Middlewares/FileX/File System/FileX/Core/fx_fault_tolerant_add_bitmap_log.o
LOAD ./Middlewares/FileX/File System/FileX/Core/fx_fault_tolerant_add_checksum_log.o
LOAD ./Middlewares/FileX/File System/FileX/Core/fx_fault_tolerant_add_dir_log.o
LOAD ./Middlewares/FileX/File System/FileX/Core/fx_fault_tolerant_apply_logs.o
LOAD ./Middlewares/FileX/File System/FileX/Core/fx_fault_tolerant_calculate_checksum.o
LOAD ./Middlewares/FileX/File System/FileX/Core/fx_fault_tolerant_cleanup_FAT_chain.o
LOAD ./Middlewares/FileX/File System/FileX/Core/fx_fault_tolerant_create_log_file.o
LOAD ./Middlewares/FileX/File System/FileX/Core/fx_fault_tolerant_enable.o
LOAD ./Middlewares/FileX/File System/FileX/Core/fx_fault_tolerant_read_FAT.o
LOAD ./Middlewares/FileX/File System/FileX/Core/fx_fault_tolerant_read_directory_sector.o
LOAD ./Middlewares/FileX/File System/FileX/Core/fx_fault_tolerant_read_log_file.o
LOAD ./Middlewares/FileX/File System/FileX/Core/fx_fault_tolerant_recover.o
LOAD ./Middlewares/FileX/File System/FileX/Core/fx_fault_tolerant_reset_log_file.o
LOAD ./Middlewares/FileX/File System/FileX/Core/fx_fault_tolerant_set_FAT_chain.o
LOAD ./Middlewares/FileX/File System/FileX/Core/fx_fault_tolerant_transaction_end.o
LOAD ./Middlewares/FileX/File System/FileX/Core/fx_fault_tolerant_transaction_fail.o
LOAD ./Middlewares/FileX/File System/FileX/Core/fx_fault_tolerant_transaction_start.o
LOAD ./Middlewares/FileX/File System/FileX/Core/fx_fault_tolerant_write_log_file.o
LOAD ./Middlewares/FileX/File System/FileX/Core/fx_file_allocate.o
LOAD ./Middlewares/FileX/File System/FileX/Core/fx_file_attributes_read.o
LOAD ./Middlewares/FileX/File System/FileX/Core/fx_file_attributes_set.o
LOAD ./Middlewares/FileX/File System/FileX/Core/fx_file_best_effort_allocate.o
LOAD ./Middlewares/FileX/File System/FileX/Core/fx_file_close.o
LOAD ./Middlewares/FileX/File System/FileX/Core/fx_file_create.o
LOAD ./Middlewares/FileX/File System/FileX/Core/fx_file_date_time_set.o
LOAD ./Middlewares/FileX/File System/FileX/Core/fx_file_delete.o
LOAD ./Middlewares/FileX/File System/FileX/Core/fx_file_extended_allocate.o
LOAD ./Middlewares/FileX/File System/FileX/Core/fx_file_extended_best_effort_allocate.o
LOAD ./Middlewares/FileX/File System/FileX/Core/fx_file_extended_relative_seek.o
LOAD ./Middlewares/FileX/File System/FileX/Core/fx_file_extended_seek.o
LOAD ./Middlewares/FileX/File System/FileX/Core/fx_file_extended_truncate.o
LOAD ./Middlewares/FileX/File System/FileX/Core/fx_file_extended_truncate_release.o
LOAD ./Middlewares/FileX/File System/FileX/Core/fx_file_open.o
LOAD ./Middlewares/FileX/File System/FileX/Core/fx_file_read.o
LOAD ./Middlewares/FileX/File System/FileX/Core/fx_file_relative_seek.o
LOAD ./Middlewares/FileX/File System/FileX/Core/fx_file_rename.o
LOAD ./Middlewares/FileX/File System/FileX/Core/fx_file_seek.o
LOAD ./Middlewares/FileX/File System/FileX/Core/fx_file_truncate.o
LOAD ./Middlewares/FileX/File System/FileX/Core/fx_file_truncate_release.o
LOAD ./Middlewares/FileX/File System/FileX/Core/fx_file_write.o
LOAD ./Middlewares/FileX/File System/FileX/Core/fx_file_write_notify_set.o
LOAD ./Middlewares/FileX/File System/FileX/Core/fx_media_abort.o
LOAD ./Middlewares/FileX/File System/FileX/Core/fx_media_boot_info_extract.o
LOAD ./Middlewares/FileX/File System/FileX/Core/fx_media_cache_invalidate.o
LOAD ./Middlewares/FileX/File System/FileX/Core/fx_media_check.o
LOAD ./Middlewares/FileX/File System/FileX/Core/fx_media_check_FAT_chain_check.o
LOAD ./Middlewares/FileX/File System/FileX/Core/fx_media_check_lost_cluster_check.o
LOAD ./Middlewares/FileX/File System/FileX/Core/fx_media_close.o
LOAD ./Middlewares/FileX/File System/FileX/Core/fx_media_close_notify_set.o
LOAD ./Middlewares/FileX/File System/FileX/Core/fx_media_exFAT_format.o
LOAD ./Middlewares/FileX/File System/FileX/Core/fx_media_extended_space_available.o
LOAD ./Middlewares/FileX/File System/FileX/Core/fx_media_flush.o
LOAD ./Middlewares/FileX/File System/FileX/Core/fx_media_format.o
LOAD ./Middlewares/FileX/File System/FileX/Core/fx_media_format_oem_name_set.o
LOAD ./Middlewares/FileX/File System/FileX/Core/fx_media_format_type_set.o
LOAD ./Middlewares/FileX/File System/FileX/Core/fx_media_format_volume_id_set.o
LOAD ./Middlewares/FileX/File System/FileX/Core/fx_media_open.o
LOAD ./Middlewares/FileX/File System/FileX/Core/fx_media_open_notify_set.o
LOAD ./Middlewares/FileX/File System/FileX/Core/fx_media_read.o
LOAD ./Middlewares/FileX/File System/FileX/Core/fx_media_space_available.o
LOAD ./Middlewares/FileX/File System/FileX/Core/fx_media_volume_get.o
LOAD ./Middlewares/FileX/File System/FileX/Core/fx_media_volume_get_extended.o
LOAD ./Middlewares/FileX/File System/FileX/Core/fx_media_volume_set.o
LOAD ./Middlewares/FileX/File System/FileX/Core/fx_media_write.o
LOAD ./Middlewares/FileX/File System/FileX/Core/fx_partition_offset_calculate.o
LOAD ./Middlewares/FileX/File System/FileX/Core/fx_system_date_get.o
LOAD ./Middlewares/FileX/File System/FileX/Core/fx_system_date_set.o
LOAD ./Middlewares/FileX/File System/FileX/Core/fx_system_initialize.o
LOAD ./Middlewares/FileX/File System/FileX/Core/fx_system_time_get.o
LOAD ./Middlewares/FileX/File System/FileX/Core/fx_system_time_set.o
LOAD ./Middlewares/FileX/File System/FileX/Core/fx_system_timer_entry.o
LOAD ./Middlewares/FileX/File System/FileX/Core/fx_unicode_directory_create.o
LOAD ./Middlewares/FileX/File System/FileX/Core/fx_unicode_directory_entry_change.o
LOAD ./Middlewares/FileX/File System/FileX/Core/fx_unicode_directory_entry_read.o
LOAD ./Middlewares/FileX/File System/FileX/Core/fx_unicode_directory_rename.o
LOAD ./Middlewares/FileX/File System/FileX/Core/fx_unicode_directory_search.o
LOAD ./Middlewares/FileX/File System/FileX/Core/fx_unicode_file_create.o
LOAD ./Middlewares/FileX/File System/FileX/Core/fx_unicode_file_rename.o
LOAD ./Middlewares/FileX/File System/FileX/Core/fx_unicode_length_get.o
LOAD ./Middlewares/FileX/File System/FileX/Core/fx_unicode_length_get_extended.o
LOAD ./Middlewares/FileX/File System/FileX/Core/fx_unicode_name_get.o
LOAD ./Middlewares/FileX/File System/FileX/Core/fx_unicode_name_get_extended.o
LOAD ./Middlewares/FileX/File System/FileX/Core/fx_unicode_short_name_get.o
LOAD ./Middlewares/FileX/File System/FileX/Core/fx_unicode_short_name_get_extended.o
LOAD ./Middlewares/FileX/File System/FileX/Core/fx_utility_16_unsigned_read.o
LOAD ./Middlewares/FileX/File System/FileX/Core/fx_utility_16_unsigned_write.o
LOAD ./Middlewares/FileX/File System/FileX/Core/fx_utility_32_unsigned_read.o
LOAD ./Middlewares/FileX/File System/FileX/Core/fx_utility_32_unsigned_write.o
LOAD ./Middlewares/FileX/File System/FileX/Core/fx_utility_64_unsigned_read.o
LOAD ./Middlewares/FileX/File System/FileX/Core/fx_utility_64_unsigned_write.o
LOAD ./Middlewares/FileX/File System/FileX/Core/fx_utility_FAT_entry_read.o
LOAD ./Middlewares/FileX/File System/FileX/Core/fx_utility_FAT_entry_write.o
LOAD ./Middlewares/FileX/File System/FileX/Core/fx_utility_FAT_flush.o
LOAD ./Middlewares/FileX/File System/FileX/Core/fx_utility_FAT_map_flush.o
LOAD ./Middlewares/FileX/File System/FileX/Core/fx_utility_FAT_sector_get.o
LOAD ./Middlewares/FileX/File System/FileX/Core/fx_utility_absolute_path_get.o
LOAD ./Middlewares/FileX/File System/FileX/Core/fx_utility_exFAT_allocate_new_cluster.o
LOAD ./Middlewares/FileX/File System/FileX/Core/fx_utility_exFAT_bitmap_cache_prepare.o
LOAD ./Middlewares/FileX/File System/FileX/Core/fx_utility_exFAT_bitmap_cache_update.o
LOAD ./Middlewares/FileX/File System/FileX/Core/fx_utility_exFAT_bitmap_flush.o
LOAD ./Middlewares/FileX/File System/FileX/Core/fx_utility_exFAT_bitmap_free_cluster_find.o
LOAD ./Middlewares/FileX/File System/FileX/Core/fx_utility_exFAT_bitmap_initialize.o
LOAD ./Middlewares/FileX/File System/FileX/Core/fx_utility_exFAT_bitmap_start_sector_get.o
LOAD ./Middlewares/FileX/File System/FileX/Core/fx_utility_exFAT_cluster_free.o
LOAD ./Middlewares/FileX/File System/FileX/Core/fx_utility_exFAT_cluster_state_get.o
LOAD ./Middlewares/FileX/File System/FileX/Core/fx_utility_exFAT_cluster_state_set.o
LOAD ./Middlewares/FileX/File System/FileX/Core/fx_utility_exFAT_geometry_check.o
LOAD ./Middlewares/FileX/File System/FileX/Core/fx_utility_exFAT_name_hash_get.o
LOAD ./Middlewares/FileX/File System/FileX/Core/fx_utility_exFAT_size_calculate.o
LOAD ./Middlewares/FileX/File System/FileX/Core/fx_utility_exFAT_system_area_checksum_verify.o
LOAD ./Middlewares/FileX/File System/FileX/Core/fx_utility_exFAT_system_area_checksum_write.o
LOAD ./Middlewares/FileX/File System/FileX/Core/fx_utility_exFAT_system_area_format.o
LOAD ./Middlewares/FileX/File System/FileX/Core/fx_utility_exFAT_system_sector_write.o
LOAD ./Middlewares/FileX/File System/FileX/Core/fx_utility_exFAT_unicode_name_hash_get.o
LOAD ./Middlewares/FileX/File System/FileX/Core/fx_utility_exFAT_upcase_table.o
LOAD ./Middlewares/FileX/File System/FileX/Core/fx_utility_logical_sector_cache_entry_read.o
LOAD ./Middlewares/FileX/File System/FileX/Core/fx_utility_logical_sector_flush.o
LOAD ./Middlewares/FileX/File System/FileX/Core/fx_utility_logical_sector_read.o
LOAD ./Middlewares/FileX/File System/FileX/Core/fx_utility_logical_sector_write.o
LOAD ./Middlewares/FileX/File System/FileX/Core/fx_utility_memory_copy.o
LOAD ./Middlewares/FileX/File System/FileX/Core/fx_utility_memory_set.o
LOAD ./Middlewares/FileX/File System/FileX/Core/fx_utility_string_length_get.o
LOAD ./Middlewares/FileX/File System/FileX/Core/fx_utility_token_length_get.o
LOAD ./Middlewares/FileX/File System/FileX/Core/fxe_directory_attributes_read.o
LOAD ./Middlewares/FileX/File System/FileX/Core/fxe_directory_attributes_set.o
LOAD ./Middlewares/FileX/File System/FileX/Core/fxe_directory_create.o
LOAD ./Middlewares/FileX/File System/FileX/Core/fxe_directory_default_get.o
LOAD ./Middlewares/FileX/File System/FileX/Core/fxe_directory_default_get_copy.o
LOAD ./Middlewares/FileX/File System/FileX/Core/fxe_directory_default_set.o
LOAD ./Middlewares/FileX/File System/FileX/Core/fxe_directory_delete.o
LOAD ./Middlewares/FileX/File System/FileX/Core/fxe_directory_first_entry_find.o
LOAD ./Middlewares/FileX/File System/FileX/Core/fxe_directory_first_full_entry_find.o
LOAD ./Middlewares/FileX/File System/FileX/Core/fxe_directory_information_get.o
LOAD ./Middlewares/FileX/File System/FileX/Core/fxe_directory_local_path_clear.o
LOAD ./Middlewares/FileX/File System/FileX/Core/fxe_directory_local_path_get.o
LOAD ./Middlewares/FileX/File System/FileX/Core/fxe_directory_local_path_get_copy.o
LOAD ./Middlewares/FileX/File System/FileX/Core/fxe_directory_local_path_restore.o
LOAD ./Middlewares/FileX/File System/FileX/Core/fxe_directory_local_path_set.o
LOAD ./Middlewares/FileX/File System/FileX/Core/fxe_directory_long_name_get.o
LOAD ./Middlewares/FileX/File System/FileX/Core/fxe_directory_long_name_get_extended.o
LOAD ./Middlewares/FileX/File System/FileX/Core/fxe_directory_name_test.o
LOAD ./Middlewares/FileX/File System/FileX/Core/fxe_directory_next_entry_find.o
LOAD ./Middlewares/FileX/File System/FileX/Core/fxe_directory_next_full_entry_find.o
LOAD ./Middlewares/FileX/File System/FileX/Core/fxe_directory_rename.o
LOAD ./Middlewares/FileX/File System/FileX/Core/fxe_directory_short_name_get.o
LOAD ./Middlewares/FileX/File System/FileX/Core/fxe_directory_short_name_get_extended.o
LOAD ./Middlewares/FileX/File System/FileX/Core/fxe_fault_tolerant_enable.o
LOAD ./Middlewares/FileX/File System/FileX/Core/fxe_file_allocate.o
LOAD ./Middlewares/FileX/File System/FileX/Core/fxe_file_attributes_read.o
LOAD ./Middlewares/FileX/File System/FileX/Core/fxe_file_attributes_set.o
LOAD ./Middlewares/FileX/File System/FileX/Core/fxe_file_best_effort_allocate.o
LOAD ./Middlewares/FileX/File System/FileX/Core/fxe_file_close.o
LOAD ./Middlewares/FileX/File System/FileX/Core/fxe_file_create.o
LOAD ./Middlewares/FileX/File System/FileX/Core/fxe_file_date_time_set.o
LOAD ./Middlewares/FileX/File System/FileX/Core/fxe_file_delete.o
LOAD ./Middlewares/FileX/File System/FileX/Core/fxe_file_extended_allocate.o
LOAD ./Middlewares/FileX/File System/FileX/Core/fxe_file_extended_best_effort_allocate.o
LOAD ./Middlewares/FileX/File System/FileX/Core/fxe_file_extended_relative_seek.o
LOAD ./Middlewares/FileX/File System/FileX/Core/fxe_file_extended_seek.o
LOAD ./Middlewares/FileX/File System/FileX/Core/fxe_file_extended_truncate.o
LOAD ./Middlewares/FileX/File System/FileX/Core/fxe_file_extended_truncate_release.o
LOAD ./Middlewares/FileX/File System/FileX/Core/fxe_file_open.o
LOAD ./Middlewares/FileX/File System/FileX/Core/fxe_file_read.o
LOAD ./Middlewares/FileX/File System/FileX/Core/fxe_file_relative_seek.o
LOAD ./Middlewares/FileX/File System/FileX/Core/fxe_file_rename.o
LOAD ./Middlewares/FileX/File System/FileX/Core/fxe_file_seek.o
LOAD ./Middlewares/FileX/File System/FileX/Core/fxe_file_truncate.o
LOAD ./Middlewares/FileX/File System/FileX/Core/fxe_file_truncate_release.o
LOAD ./Middlewares/FileX/File System/FileX/Core/fxe_file_write.o
LOAD ./Middlewares/FileX/File System/FileX/Core/fxe_file_write_notify_set.o
LOAD ./Middlewares/FileX/File System/FileX/Core/fxe_media_abort.o
LOAD ./Middlewares/FileX/File System/FileX/Core/fxe_media_cache_invalidate.o
LOAD ./Middlewares/FileX/File System/FileX/Core/fxe_media_check.o
LOAD ./Middlewares/FileX/File System/FileX/Core/fxe_media_close.o
LOAD ./Middlewares/FileX/File System/FileX/Core/fxe_media_close_notify_set.o
LOAD ./Middlewares/FileX/File System/FileX/Core/fxe_media_exFAT_format.o
LOAD ./Middlewares/FileX/File System/FileX/Core/fxe_media_extended_space_available.o
LOAD ./Middlewares/FileX/File System/FileX/Core/fxe_media_flush.o
LOAD ./Middlewares/FileX/File System/FileX/Core/fxe_media_format.o
LOAD ./Middlewares/FileX/File System/FileX/Core/fxe_media_open.o
LOAD ./Middlewares/FileX/File System/FileX/Core/fxe_media_open_notify_set.o
LOAD ./Middlewares/FileX/File System/FileX/Core/fxe_media_read.o
LOAD ./Middlewares/FileX/File System/FileX/Core/fxe_media_space_available.o
LOAD ./Middlewares/FileX/File System/FileX/Core/fxe_media_volume_get.o
LOAD ./Middlewares/FileX/File System/FileX/Core/fxe_media_volume_get_extended.o
LOAD ./Middlewares/FileX/File System/FileX/Core/fxe_media_volume_set.o
LOAD ./Middlewares/FileX/File System/FileX/Core/fxe_media_write.o
LOAD ./Middlewares/FileX/File System/FileX/Core/fxe_system_date_get.o
LOAD ./Middlewares/FileX/File System/FileX/Core/fxe_system_date_set.o
LOAD ./Middlewares/FileX/File System/FileX/Core/fxe_system_time_get.o
LOAD ./Middlewares/FileX/File System/FileX/Core/fxe_system_time_set.o
LOAD ./Middlewares/FileX/File System/FileX/Core/fxe_unicode_directory_create.o
LOAD ./Middlewares/FileX/File System/FileX/Core/fxe_unicode_directory_rename.o
LOAD ./Middlewares/FileX/File System/FileX/Core/fxe_unicode_file_create.o
LOAD ./Middlewares/FileX/File System/FileX/Core/fxe_unicode_file_rename.o
LOAD ./Middlewares/FileX/File System/FileX/Core/fxe_unicode_name_get.o
LOAD ./Middlewares/FileX/File System/FileX/Core/fxe_unicode_name_get_extended.o
LOAD ./Middlewares/FileX/File System/FileX/Core/fxe_unicode_short_name_get.o
LOAD ./Middlewares/FileX/File System/FileX/Core/fxe_unicode_short_name_get_extended.o
LOAD ./Middlewares/FileX/File System/FileX/TraceX Support/fx_trace_event_insert.o
LOAD ./Middlewares/FileX/File System/FileX/TraceX Support/fx_trace_event_update.o
LOAD ./Middlewares/FileX/File System/FileX/TraceX Support/fx_trace_object_register.o
LOAD ./Middlewares/FileX/File System/FileX/TraceX Support/fx_trace_object_unregister.o
LOAD ./Middlewares/OSAL/cmsis_os2.o
LOAD ./Middlewares/ThreadX/RTOS/ThreadX/Core/tx_block_allocate.o
LOAD ./Middlewares/ThreadX/RTOS/ThreadX/Core/tx_block_pool_cleanup.o
LOAD ./Middlewares/ThreadX/RTOS/ThreadX/Core/tx_block_pool_create.o
LOAD ./Middlewares/ThreadX/RTOS/ThreadX/Core/tx_block_pool_delete.o
LOAD ./Middlewares/ThreadX/RTOS/ThreadX/Core/tx_block_pool_info_get.o
LOAD ./Middlewares/ThreadX/RTOS/ThreadX/Core/tx_block_pool_initialize.o
LOAD ./Middlewares/ThreadX/RTOS/ThreadX/Core/tx_block_pool_prioritize.o
LOAD ./Middlewares/ThreadX/RTOS/ThreadX/Core/tx_block_release.o
LOAD ./Middlewares/ThreadX/RTOS/ThreadX/Core/tx_byte_allocate.o
LOAD ./Middlewares/ThreadX/RTOS/ThreadX/Core/tx_byte_pool_cleanup.o
LOAD ./Middlewares/ThreadX/RTOS/ThreadX/Core/tx_byte_pool_create.o
LOAD ./Middlewares/ThreadX/RTOS/ThreadX/Core/tx_byte_pool_delete.o
LOAD ./Middlewares/ThreadX/RTOS/ThreadX/Core/tx_byte_pool_info_get.o
LOAD ./Middlewares/ThreadX/RTOS/ThreadX/Core/tx_byte_pool_initialize.o
LOAD ./Middlewares/ThreadX/RTOS/ThreadX/Core/tx_byte_pool_prioritize.o
LOAD ./Middlewares/ThreadX/RTOS/ThreadX/Core/tx_byte_pool_search.o
LOAD ./Middlewares/ThreadX/RTOS/ThreadX/Core/tx_byte_release.o
LOAD ./Middlewares/ThreadX/RTOS/ThreadX/Core/tx_event_flags_cleanup.o
LOAD ./Middlewares/ThreadX/RTOS/ThreadX/Core/tx_event_flags_create.o
LOAD ./Middlewares/ThreadX/RTOS/ThreadX/Core/tx_event_flags_delete.o
LOAD ./Middlewares/ThreadX/RTOS/ThreadX/Core/tx_event_flags_get.o
LOAD ./Middlewares/ThreadX/RTOS/ThreadX/Core/tx_event_flags_info_get.o
LOAD ./Middlewares/ThreadX/RTOS/ThreadX/Core/tx_event_flags_initialize.o
LOAD ./Middlewares/ThreadX/RTOS/ThreadX/Core/tx_event_flags_set.o
LOAD ./Middlewares/ThreadX/RTOS/ThreadX/Core/tx_event_flags_set_notify.o
LOAD ./Middlewares/ThreadX/RTOS/ThreadX/Core/tx_initialize_high_level.o
LOAD ./Middlewares/ThreadX/RTOS/ThreadX/Core/tx_initialize_kernel_enter.o
LOAD ./Middlewares/ThreadX/RTOS/ThreadX/Core/tx_initialize_kernel_setup.o
LOAD ./Middlewares/ThreadX/RTOS/ThreadX/Core/tx_mutex_cleanup.o
LOAD ./Middlewares/ThreadX/RTOS/ThreadX/Core/tx_mutex_create.o
LOAD ./Middlewares/ThreadX/RTOS/ThreadX/Core/tx_mutex_delete.o
LOAD ./Middlewares/ThreadX/RTOS/ThreadX/Core/tx_mutex_get.o
LOAD ./Middlewares/ThreadX/RTOS/ThreadX/Core/tx_mutex_info_get.o
LOAD ./Middlewares/ThreadX/RTOS/ThreadX/Core/tx_mutex_initialize.o
LOAD ./Middlewares/ThreadX/RTOS/ThreadX/Core/tx_mutex_prioritize.o
LOAD ./Middlewares/ThreadX/RTOS/ThreadX/Core/tx_mutex_priority_change.o
LOAD ./Middlewares/ThreadX/RTOS/ThreadX/Core/tx_mutex_put.o
LOAD ./Middlewares/ThreadX/RTOS/ThreadX/Core/tx_queue_cleanup.o
LOAD ./Middlewares/ThreadX/RTOS/ThreadX/Core/tx_queue_create.o
LOAD ./Middlewares/ThreadX/RTOS/ThreadX/Core/tx_queue_delete.o
LOAD ./Middlewares/ThreadX/RTOS/ThreadX/Core/tx_queue_flush.o
LOAD ./Middlewares/ThreadX/RTOS/ThreadX/Core/tx_queue_front_send.o
LOAD ./Middlewares/ThreadX/RTOS/ThreadX/Core/tx_queue_info_get.o
LOAD ./Middlewares/ThreadX/RTOS/ThreadX/Core/tx_queue_initialize.o
LOAD ./Middlewares/ThreadX/RTOS/ThreadX/Core/tx_queue_prioritize.o
LOAD ./Middlewares/ThreadX/RTOS/ThreadX/Core/tx_queue_receive.o
LOAD ./Middlewares/ThreadX/RTOS/ThreadX/Core/tx_queue_send.o
LOAD ./Middlewares/ThreadX/RTOS/ThreadX/Core/tx_queue_send_notify.o
LOAD ./Middlewares/ThreadX/RTOS/ThreadX/Core/tx_semaphore_ceiling_put.o
LOAD ./Middlewares/ThreadX/RTOS/ThreadX/Core/tx_semaphore_cleanup.o
LOAD ./Middlewares/ThreadX/RTOS/ThreadX/Core/tx_semaphore_create.o
LOAD ./Middlewares/ThreadX/RTOS/ThreadX/Core/tx_semaphore_delete.o
LOAD ./Middlewares/ThreadX/RTOS/ThreadX/Core/tx_semaphore_get.o
LOAD ./Middlewares/ThreadX/RTOS/ThreadX/Core/tx_semaphore_info_get.o
LOAD ./Middlewares/ThreadX/RTOS/ThreadX/Core/tx_semaphore_initialize.o
LOAD ./Middlewares/ThreadX/RTOS/ThreadX/Core/tx_semaphore_prioritize.o
LOAD ./Middlewares/ThreadX/RTOS/ThreadX/Core/tx_semaphore_put.o
LOAD ./Middlewares/ThreadX/RTOS/ThreadX/Core/tx_semaphore_put_notify.o
LOAD ./Middlewares/ThreadX/RTOS/ThreadX/Core/tx_thread_context_restore.o
LOAD ./Middlewares/ThreadX/RTOS/ThreadX/Core/tx_thread_context_save.o
LOAD ./Middlewares/ThreadX/RTOS/ThreadX/Core/tx_thread_create.o
LOAD ./Middlewares/ThreadX/RTOS/ThreadX/Core/tx_thread_delete.o
LOAD ./Middlewares/ThreadX/RTOS/ThreadX/Core/tx_thread_entry_exit_notify.o
LOAD ./Middlewares/ThreadX/RTOS/ThreadX/Core/tx_thread_identify.o
LOAD ./Middlewares/ThreadX/RTOS/ThreadX/Core/tx_thread_info_get.o
LOAD ./Middlewares/ThreadX/RTOS/ThreadX/Core/tx_thread_initialize.o
LOAD ./Middlewares/ThreadX/RTOS/ThreadX/Core/tx_thread_interrupt_control.o
LOAD ./Middlewares/ThreadX/RTOS/ThreadX/Core/tx_thread_preemption_change.o
LOAD ./Middlewares/ThreadX/RTOS/ThreadX/Core/tx_thread_priority_change.o
LOAD ./Middlewares/ThreadX/RTOS/ThreadX/Core/tx_thread_relinquish.o
LOAD ./Middlewares/ThreadX/RTOS/ThreadX/Core/tx_thread_reset.o
LOAD ./Middlewares/ThreadX/RTOS/ThreadX/Core/tx_thread_resume.o
LOAD ./Middlewares/ThreadX/RTOS/ThreadX/Core/tx_thread_schedule.o
LOAD ./Middlewares/ThreadX/RTOS/ThreadX/Core/tx_thread_shell_entry.o
LOAD ./Middlewares/ThreadX/RTOS/ThreadX/Core/tx_thread_sleep.o
LOAD ./Middlewares/ThreadX/RTOS/ThreadX/Core/tx_thread_stack_analyze.o
LOAD ./Middlewares/ThreadX/RTOS/ThreadX/Core/tx_thread_stack_build.o
LOAD ./Middlewares/ThreadX/RTOS/ThreadX/Core/tx_thread_stack_error_handler.o
LOAD ./Middlewares/ThreadX/RTOS/ThreadX/Core/tx_thread_stack_error_notify.o
LOAD ./Middlewares/ThreadX/RTOS/ThreadX/Core/tx_thread_suspend.o
LOAD ./Middlewares/ThreadX/RTOS/ThreadX/Core/tx_thread_system_preempt_check.o
LOAD ./Middlewares/ThreadX/RTOS/ThreadX/Core/tx_thread_system_resume.o
LOAD ./Middlewares/ThreadX/RTOS/ThreadX/Core/tx_thread_system_return.o
LOAD ./Middlewares/ThreadX/RTOS/ThreadX/Core/tx_thread_system_suspend.o
LOAD ./Middlewares/ThreadX/RTOS/ThreadX/Core/tx_thread_terminate.o
LOAD ./Middlewares/ThreadX/RTOS/ThreadX/Core/tx_thread_time_slice.o
LOAD ./Middlewares/ThreadX/RTOS/ThreadX/Core/tx_thread_time_slice_change.o
LOAD ./Middlewares/ThreadX/RTOS/ThreadX/Core/tx_thread_timeout.o
LOAD ./Middlewares/ThreadX/RTOS/ThreadX/Core/tx_thread_wait_abort.o
LOAD ./Middlewares/ThreadX/RTOS/ThreadX/Core/tx_time_get.o
LOAD ./Middlewares/ThreadX/RTOS/ThreadX/Core/tx_time_set.o
LOAD ./Middlewares/ThreadX/RTOS/ThreadX/Core/tx_timer_activate.o
LOAD ./Middlewares/ThreadX/RTOS/ThreadX/Core/tx_timer_change.o
LOAD ./Middlewares/ThreadX/RTOS/ThreadX/Core/tx_timer_create.o
LOAD ./Middlewares/ThreadX/RTOS/ThreadX/Core/tx_timer_deactivate.o
LOAD ./Middlewares/ThreadX/RTOS/ThreadX/Core/tx_timer_delete.o
LOAD ./Middlewares/ThreadX/RTOS/ThreadX/Core/tx_timer_expiration_process.o
LOAD ./Middlewares/ThreadX/RTOS/ThreadX/Core/tx_timer_info_get.o
LOAD ./Middlewares/ThreadX/RTOS/ThreadX/Core/tx_timer_initialize.o
LOAD ./Middlewares/ThreadX/RTOS/ThreadX/Core/tx_timer_interrupt.o
LOAD ./Middlewares/ThreadX/RTOS/ThreadX/Core/tx_timer_system_activate.o
LOAD ./Middlewares/ThreadX/RTOS/ThreadX/Core/tx_timer_system_deactivate.o
LOAD ./Middlewares/ThreadX/RTOS/ThreadX/Core/tx_timer_thread_entry.o
LOAD ./Middlewares/ThreadX/RTOS/ThreadX/Core/txe_block_allocate.o
LOAD ./Middlewares/ThreadX/RTOS/ThreadX/Core/txe_block_pool_create.o
LOAD ./Middlewares/ThreadX/RTOS/ThreadX/Core/txe_block_pool_delete.o
LOAD ./Middlewares/ThreadX/RTOS/ThreadX/Core/txe_block_pool_info_get.o
LOAD ./Middlewares/ThreadX/RTOS/ThreadX/Core/txe_block_pool_prioritize.o
LOAD ./Middlewares/ThreadX/RTOS/ThreadX/Core/txe_block_release.o
LOAD ./Middlewares/ThreadX/RTOS/ThreadX/Core/txe_byte_allocate.o
LOAD ./Middlewares/ThreadX/RTOS/ThreadX/Core/txe_byte_pool_create.o
LOAD ./Middlewares/ThreadX/RTOS/ThreadX/Core/txe_byte_pool_delete.o
LOAD ./Middlewares/ThreadX/RTOS/ThreadX/Core/txe_byte_pool_info_get.o
LOAD ./Middlewares/ThreadX/RTOS/ThreadX/Core/txe_byte_pool_prioritize.o
LOAD ./Middlewares/ThreadX/RTOS/ThreadX/Core/txe_byte_release.o
LOAD ./Middlewares/ThreadX/RTOS/ThreadX/Core/txe_event_flags_create.o
LOAD ./Middlewares/ThreadX/RTOS/ThreadX/Core/txe_event_flags_delete.o
LOAD ./Middlewares/ThreadX/RTOS/ThreadX/Core/txe_event_flags_get.o
LOAD ./Middlewares/ThreadX/RTOS/ThreadX/Core/txe_event_flags_info_get.o
LOAD ./Middlewares/ThreadX/RTOS/ThreadX/Core/txe_event_flags_set.o
LOAD ./Middlewares/ThreadX/RTOS/ThreadX/Core/txe_event_flags_set_notify.o
LOAD ./Middlewares/ThreadX/RTOS/ThreadX/Core/txe_mutex_create.o
LOAD ./Middlewares/ThreadX/RTOS/ThreadX/Core/txe_mutex_delete.o
LOAD ./Middlewares/ThreadX/RTOS/ThreadX/Core/txe_mutex_get.o
LOAD ./Middlewares/ThreadX/RTOS/ThreadX/Core/txe_mutex_info_get.o
LOAD ./Middlewares/ThreadX/RTOS/ThreadX/Core/txe_mutex_prioritize.o
LOAD ./Middlewares/ThreadX/RTOS/ThreadX/Core/txe_mutex_put.o
LOAD ./Middlewares/ThreadX/RTOS/ThreadX/Core/txe_queue_create.o
LOAD ./Middlewares/ThreadX/RTOS/ThreadX/Core/txe_queue_delete.o
LOAD ./Middlewares/ThreadX/RTOS/ThreadX/Core/txe_queue_flush.o
LOAD ./Middlewares/ThreadX/RTOS/ThreadX/Core/txe_queue_front_send.o
LOAD ./Middlewares/ThreadX/RTOS/ThreadX/Core/txe_queue_info_get.o
LOAD ./Middlewares/ThreadX/RTOS/ThreadX/Core/txe_queue_prioritize.o
LOAD ./Middlewares/ThreadX/RTOS/ThreadX/Core/txe_queue_receive.o
LOAD ./Middlewares/ThreadX/RTOS/ThreadX/Core/txe_queue_send.o
LOAD ./Middlewares/ThreadX/RTOS/ThreadX/Core/txe_queue_send_notify.o
LOAD ./Middlewares/ThreadX/RTOS/ThreadX/Core/txe_semaphore_ceiling_put.o
LOAD ./Middlewares/ThreadX/RTOS/ThreadX/Core/txe_semaphore_create.o
LOAD ./Middlewares/ThreadX/RTOS/ThreadX/Core/txe_semaphore_delete.o
LOAD ./Middlewares/ThreadX/RTOS/ThreadX/Core/txe_semaphore_get.o
LOAD ./Middlewares/ThreadX/RTOS/ThreadX/Core/txe_semaphore_info_get.o
LOAD ./Middlewares/ThreadX/RTOS/ThreadX/Core/txe_semaphore_prioritize.o
LOAD ./Middlewares/ThreadX/RTOS/ThreadX/Core/txe_semaphore_put.o
LOAD ./Middlewares/ThreadX/RTOS/ThreadX/Core/txe_semaphore_put_notify.o
LOAD ./Middlewares/ThreadX/RTOS/ThreadX/Core/txe_thread_create.o
LOAD ./Middlewares/ThreadX/RTOS/ThreadX/Core/txe_thread_delete.o
LOAD ./Middlewares/ThreadX/RTOS/ThreadX/Core/txe_thread_entry_exit_notify.o
LOAD ./Middlewares/ThreadX/RTOS/ThreadX/Core/txe_thread_info_get.o
LOAD ./Middlewares/ThreadX/RTOS/ThreadX/Core/txe_thread_preemption_change.o
LOAD ./Middlewares/ThreadX/RTOS/ThreadX/Core/txe_thread_priority_change.o
LOAD ./Middlewares/ThreadX/RTOS/ThreadX/Core/txe_thread_relinquish.o
LOAD ./Middlewares/ThreadX/RTOS/ThreadX/Core/txe_thread_reset.o
LOAD ./Middlewares/ThreadX/RTOS/ThreadX/Core/txe_thread_resume.o
LOAD ./Middlewares/ThreadX/RTOS/ThreadX/Core/txe_thread_suspend.o
LOAD ./Middlewares/ThreadX/RTOS/ThreadX/Core/txe_thread_terminate.o
LOAD ./Middlewares/ThreadX/RTOS/ThreadX/Core/txe_thread_time_slice_change.o
LOAD ./Middlewares/ThreadX/RTOS/ThreadX/Core/txe_thread_wait_abort.o
LOAD ./Middlewares/ThreadX/RTOS/ThreadX/Core/txe_timer_activate.o
LOAD ./Middlewares/ThreadX/RTOS/ThreadX/Core/txe_timer_change.o
LOAD ./Middlewares/ThreadX/RTOS/ThreadX/Core/txe_timer_create.o
LOAD ./Middlewares/ThreadX/RTOS/ThreadX/Core/txe_timer_deactivate.o
LOAD ./Middlewares/ThreadX/RTOS/ThreadX/Core/txe_timer_delete.o
LOAD ./Middlewares/ThreadX/RTOS/ThreadX/Core/txe_timer_info_get.o
LOAD ./Middlewares/ThreadX/RTOS/ThreadX/Low Power support/tx_low_power.o
LOAD ./Middlewares/ThreadX/RTOS/ThreadX/PerformanceInfo/tx_block_pool_performance_info_get.o
LOAD ./Middlewares/ThreadX/RTOS/ThreadX/PerformanceInfo/tx_block_pool_performance_system_info_get.o
LOAD ./Middlewares/ThreadX/RTOS/ThreadX/PerformanceInfo/tx_byte_pool_performance_info_get.o
LOAD ./Middlewares/ThreadX/RTOS/ThreadX/PerformanceInfo/tx_byte_pool_performance_system_info_get.o
LOAD ./Middlewares/ThreadX/RTOS/ThreadX/PerformanceInfo/tx_event_flags_performance_info_get.o
LOAD ./Middlewares/ThreadX/RTOS/ThreadX/PerformanceInfo/tx_event_flags_performance_system_info_get.o
LOAD ./Middlewares/ThreadX/RTOS/ThreadX/PerformanceInfo/tx_mutex_performance_info_get.o
LOAD ./Middlewares/ThreadX/RTOS/ThreadX/PerformanceInfo/tx_mutex_performance_system_info_get.o
LOAD ./Middlewares/ThreadX/RTOS/ThreadX/PerformanceInfo/tx_queue_performance_info_get.o
LOAD ./Middlewares/ThreadX/RTOS/ThreadX/PerformanceInfo/tx_queue_performance_system_info_get.o
LOAD ./Middlewares/ThreadX/RTOS/ThreadX/PerformanceInfo/tx_semaphore_performance_info_get.o
LOAD ./Middlewares/ThreadX/RTOS/ThreadX/PerformanceInfo/tx_semaphore_performance_system_info_get.o
LOAD ./Middlewares/ThreadX/RTOS/ThreadX/PerformanceInfo/tx_thread_performance_info_get.o
LOAD ./Middlewares/ThreadX/RTOS/ThreadX/PerformanceInfo/tx_thread_performance_system_info_get.o
LOAD ./Middlewares/ThreadX/RTOS/ThreadX/PerformanceInfo/tx_timer_performance_info_get.o
LOAD ./Middlewares/ThreadX/RTOS/ThreadX/PerformanceInfo/tx_timer_performance_system_info_get.o
LOAD ./Middlewares/ThreadX/RTOS/ThreadX/TraceX support/tx_trace_buffer_full_notify.o
LOAD ./Middlewares/ThreadX/RTOS/ThreadX/TraceX support/tx_trace_disable.o
LOAD ./Middlewares/ThreadX/RTOS/ThreadX/TraceX support/tx_trace_enable.o
LOAD ./Middlewares/ThreadX/RTOS/ThreadX/TraceX support/tx_trace_event_filter.o
LOAD ./Middlewares/ThreadX/RTOS/ThreadX/TraceX support/tx_trace_event_unfilter.o
LOAD ./Middlewares/ThreadX/RTOS/ThreadX/TraceX support/tx_trace_initialize.o
LOAD ./Middlewares/ThreadX/RTOS/ThreadX/TraceX support/tx_trace_interrupt_control.o
LOAD ./Middlewares/ThreadX/RTOS/ThreadX/TraceX support/tx_trace_isr_enter_insert.o
LOAD ./Middlewares/ThreadX/RTOS/ThreadX/TraceX support/tx_trace_isr_exit_insert.o
LOAD ./Middlewares/ThreadX/RTOS/ThreadX/TraceX support/tx_trace_object_register.o
LOAD ./Middlewares/ThreadX/RTOS/ThreadX/TraceX support/tx_trace_object_unregister.o
LOAD ./Middlewares/ThreadX/RTOS/ThreadX/TraceX support/tx_trace_user_event_insert.o
LOAD ./Middlewares/deos_api/mw_board.o
LOAD ./Middlewares/deos_api/mw_dio.o
START GROUP
LOAD c:/st/stm32cubeide_1.8.0/stm32cubeide/plugins/com.st.stm32cube.ide.mcu.externaltools.gnu-tools-for-stm32.10.3-2021.10.win32_1.0.0.202111181127/tools/bin/../lib/gcc/arm-none-eabi/10.3.1/../../../../arm-none-eabi/lib/thumb/v7e-m+dp/hard\libc_nano.a
LOAD c:/st/stm32cubeide_1.8.0/stm32cubeide/plugins/com.st.stm32cube.ide.mcu.externaltools.gnu-tools-for-stm32.10.3-2021.10.win32_1.0.0.202111181127/tools/bin/../lib/gcc/arm-none-eabi/10.3.1/../../../../arm-none-eabi/lib/thumb/v7e-m+dp/hard\libm.a
END GROUP
START GROUP
LOAD c:/st/stm32cubeide_1.8.0/stm32cubeide/plugins/com.st.stm32cube.ide.mcu.externaltools.gnu-tools-for-stm32.10.3-2021.10.win32_1.0.0.202111181127/tools/bin/../lib/gcc/arm-none-eabi/10.3.1/thumb/v7e-m+dp/hard\libgcc.a
LOAD c:/st/stm32cubeide_1.8.0/stm32cubeide/plugins/com.st.stm32cube.ide.mcu.externaltools.gnu-tools-for-stm32.10.3-2021.10.win32_1.0.0.202111181127/tools/bin/../lib/gcc/arm-none-eabi/10.3.1/../../../../arm-none-eabi/lib/thumb/v7e-m+dp/hard\libc_nano.a
END GROUP
START GROUP
LOAD c:/st/stm32cubeide_1.8.0/stm32cubeide/plugins/com.st.stm32cube.ide.mcu.externaltools.gnu-tools-for-stm32.10.3-2021.10.win32_1.0.0.202111181127/tools/bin/../lib/gcc/arm-none-eabi/10.3.1/thumb/v7e-m+dp/hard\libgcc.a
LOAD c:/st/stm32cubeide_1.8.0/stm32cubeide/plugins/com.st.stm32cube.ide.mcu.externaltools.gnu-tools-for-stm32.10.3-2021.10.win32_1.0.0.202111181127/tools/bin/../lib/gcc/arm-none-eabi/10.3.1/../../../../arm-none-eabi/lib/thumb/v7e-m+dp/hard\libc_nano.a
LOAD c:/st/stm32cubeide_1.8.0/stm32cubeide/plugins/com.st.stm32cube.ide.mcu.externaltools.gnu-tools-for-stm32.10.3-2021.10.win32_1.0.0.202111181127/tools/bin/../lib/gcc/arm-none-eabi/10.3.1/../../../../arm-none-eabi/lib/thumb/v7e-m+dp/hard\libnosys.a
END GROUP
START GROUP
LOAD c:/st/stm32cubeide_1.8.0/stm32cubeide/plugins/com.st.stm32cube.ide.mcu.externaltools.gnu-tools-for-stm32.10.3-2021.10.win32_1.0.0.202111181127/tools/bin/../lib/gcc/arm-none-eabi/10.3.1/thumb/v7e-m+dp/hard\libgcc.a
LOAD c:/st/stm32cubeide_1.8.0/stm32cubeide/plugins/com.st.stm32cube.ide.mcu.externaltools.gnu-tools-for-stm32.10.3-2021.10.win32_1.0.0.202111181127/tools/bin/../lib/gcc/arm-none-eabi/10.3.1/../../../../arm-none-eabi/lib/thumb/v7e-m+dp/hard\libc_nano.a
LOAD c:/st/stm32cubeide_1.8.0/stm32cubeide/plugins/com.st.stm32cube.ide.mcu.externaltools.gnu-tools-for-stm32.10.3-2021.10.win32_1.0.0.202111181127/tools/bin/../lib/gcc/arm-none-eabi/10.3.1/../../../../arm-none-eabi/lib/thumb/v7e-m+dp/hard\libnosys.a
END GROUP
LOAD c:/st/stm32cubeide_1.8.0/stm32cubeide/plugins/com.st.stm32cube.ide.mcu.externaltools.gnu-tools-for-stm32.10.3-2021.10.win32_1.0.0.202111181127/tools/bin/../lib/gcc/arm-none-eabi/10.3.1/thumb/v7e-m+dp/hard/crtend.o
LOAD c:/st/stm32cubeide_1.8.0/stm32cubeide/plugins/com.st.stm32cube.ide.mcu.externaltools.gnu-tools-for-stm32.10.3-2021.10.win32_1.0.0.202111181127/tools/bin/../lib/gcc/arm-none-eabi/10.3.1/thumb/v7e-m+dp/hard/crtn.o
                0x0000000024080000                _estack = (ORIGIN (RAM_D1) + LENGTH (RAM_D1))
                0x0000000000000200                _Min_Heap_Size = 0x200
                0x0000000000000400                _Min_Stack_Size = 0x400

.isr_vector     0x0000000008000000      0x298
                0x0000000008000000                . = ALIGN (0x4)
 *(.isr_vector)
 .isr_vector    0x0000000008000000      0x298 ./Core/Startup/startup_stm32h757xihx.o
                0x0000000008000000                g_pfnVectors
                0x0000000008000298                . = ALIGN (0x4)

.text           0x00000000080002a0     0x520c
                0x00000000080002a0                . = ALIGN (0x4)
 *(.text)
 .text          0x00000000080002a0       0x40 c:/st/stm32cubeide_1.8.0/stm32cubeide/plugins/com.st.stm32cube.ide.mcu.externaltools.gnu-tools-for-stm32.10.3-2021.10.win32_1.0.0.202111181127/tools/bin/../lib/gcc/arm-none-eabi/10.3.1/thumb/v7e-m+dp/hard/crtbegin.o
 .text          0x00000000080002e0       0x94 ./Core/Src/tx_initialize_low_level.o
                0x00000000080002e0                _tx_initialize_low_level
                0x000000000800032e                __tx_BadHandler
                0x0000000008000332                __tx_HardfaultHandler
                0x0000000008000336                __tx_SVCallHandler
                0x000000000800033a                __tx_IntHandler
                0x0000000008000342                __tx_SysTickHandler
                0x0000000008000342                SysTick_Handler
                0x000000000800034e                __tx_NMIHandler
                0x0000000008000352                __tx_DBGHandler
 *fill*         0x0000000008000374        0xc 
 .text          0x0000000008000380       0xc0 ./Middlewares/ThreadX/RTOS/ThreadX/Core/tx_thread_schedule.o
                0x0000000008000380                _tx_thread_schedule
                0x00000000080003ac                PendSV_Handler
                0x00000000080003ac                __tx_PendSVHandler
                0x000000000800042e                tx_thread_fpu_disable
                0x000000000800042e                tx_thread_fpu_enable
 .text          0x0000000008000440       0x40 ./Middlewares/ThreadX/RTOS/ThreadX/Core/tx_thread_stack_build.o
                0x0000000008000440                _tx_thread_stack_build
 .text          0x0000000008000480       0xb8 ./Middlewares/ThreadX/RTOS/ThreadX/Core/tx_timer_interrupt.o
                0x0000000008000480                _tx_timer_interrupt
 *(.text*)
 .text.tx_application_define
                0x0000000008000538       0x6c ./AZURE_RTOS/App/app_azure_rtos.o
                0x0000000008000538                tx_application_define
 .text.SystemInit
                0x00000000080005a4      0x134 ./Common/Src/system_stm32h7xx_dualcore_boot_cm4_cm7.o
                0x00000000080005a4                SystemInit
 .text.Create_App_Threads
                0x00000000080006d8       0xb4 ./Core/Src/Application/threads_cm7.o
                0x00000000080006d8                Create_App_Threads
 .text.Create_App_Mutexs
                0x000000000800078c       0x9c ./Core/Src/Application/threads_cm7.o
                0x000000000800078c                Create_App_Mutexs
 .text.LED_thred_entry
                0x0000000008000828       0x3c ./Core/Src/Application/threads_cm7.o
 .text.Ideal_thred_entry
                0x0000000008000864       0x1e ./Core/Src/Application/threads_cm7.o
 .text.App_ThreadX_Init
                0x0000000008000882       0x24 ./Core/Src/app_threadx.o
                0x0000000008000882                App_ThreadX_Init
 .text.MX_ThreadX_Init
                0x00000000080008a6       0x10 ./Core/Src/app_threadx.o
                0x00000000080008a6                MX_ThreadX_Init
 *fill*         0x00000000080008b6        0x2 
 .text.main     0x00000000080008b8       0x98 ./Core/Src/main.o
                0x00000000080008b8                main
 .text.SystemClock_Config
                0x0000000008000950       0xf4 ./Core/Src/main.o
                0x0000000008000950                SystemClock_Config
 .text.MX_GPIO_Init
                0x0000000008000a44        0xe ./Core/Src/main.o
 .text.Error_Handler
                0x0000000008000a52        0xa ./Core/Src/main.o
                0x0000000008000a52                Error_Handler
 .text.HAL_MspInit
                0x0000000008000a5c       0x34 ./Core/Src/stm32h7xx_hal_msp.o
                0x0000000008000a5c                HAL_MspInit
 .text.NMI_Handler
                0x0000000008000a90        0x6 ./Core/Src/stm32h7xx_it.o
                0x0000000008000a90                NMI_Handler
 .text.HardFault_Handler
                0x0000000008000a96        0x6 ./Core/Src/stm32h7xx_it.o
                0x0000000008000a96                HardFault_Handler
 .text.MemManage_Handler
                0x0000000008000a9c        0x6 ./Core/Src/stm32h7xx_it.o
                0x0000000008000a9c                MemManage_Handler
 .text.BusFault_Handler
                0x0000000008000aa2        0x6 ./Core/Src/stm32h7xx_it.o
                0x0000000008000aa2                BusFault_Handler
 .text.UsageFault_Handler
                0x0000000008000aa8        0x6 ./Core/Src/stm32h7xx_it.o
                0x0000000008000aa8                UsageFault_Handler
 .text.DebugMon_Handler
                0x0000000008000aae        0xe ./Core/Src/stm32h7xx_it.o
                0x0000000008000aae                DebugMon_Handler
 .text.Reset_Handler
                0x0000000008000abc       0x50 ./Core/Startup/startup_stm32h757xihx.o
                0x0000000008000abc                Reset_Handler
 .text.Default_Handler
                0x0000000008000b0c        0x2 ./Core/Startup/startup_stm32h757xihx.o
                0x0000000008000b0c                RTC_Alarm_IRQHandler
                0x0000000008000b0c                HASH_RNG_IRQHandler
                0x0000000008000b0c                EXTI2_IRQHandler
                0x0000000008000b0c                TIM8_CC_IRQHandler
                0x0000000008000b0c                HRTIM1_Master_IRQHandler
                0x0000000008000b0c                UART8_IRQHandler
                0x0000000008000b0c                SPI4_IRQHandler
                0x0000000008000b0c                TIM1_CC_IRQHandler
                0x0000000008000b0c                BDMA_Channel6_IRQHandler
                0x0000000008000b0c                DMA2_Stream5_IRQHandler
                0x0000000008000b0c                HRTIM1_FLT_IRQHandler
                0x0000000008000b0c                JPEG_IRQHandler
                0x0000000008000b0c                DMA1_Stream5_IRQHandler
                0x0000000008000b0c                BDMA_Channel1_IRQHandler
                0x0000000008000b0c                HRTIM1_TIMD_IRQHandler
                0x0000000008000b0c                TAMP_STAMP_IRQHandler
                0x0000000008000b0c                EXTI3_IRQHandler
                0x0000000008000b0c                LPTIM4_IRQHandler
                0x0000000008000b0c                TIM8_TRG_COM_TIM14_IRQHandler
                0x0000000008000b0c                LPTIM2_IRQHandler
                0x0000000008000b0c                DFSDM1_FLT1_IRQHandler
                0x0000000008000b0c                DMAMUX2_OVR_IRQHandler
                0x0000000008000b0c                TIM8_UP_TIM13_IRQHandler
                0x0000000008000b0c                I2C3_ER_IRQHandler
                0x0000000008000b0c                DFSDM1_FLT2_IRQHandler
                0x0000000008000b0c                MDMA_IRQHandler
                0x0000000008000b0c                LPTIM3_IRQHandler
                0x0000000008000b0c                HSEM1_IRQHandler
                0x0000000008000b0c                EXTI0_IRQHandler
                0x0000000008000b0c                I2C2_EV_IRQHandler
                0x0000000008000b0c                DMA1_Stream2_IRQHandler
                0x0000000008000b0c                FPU_IRQHandler
                0x0000000008000b0c                OTG_HS_WKUP_IRQHandler
                0x0000000008000b0c                FDCAN1_IT1_IRQHandler
                0x0000000008000b0c                LTDC_ER_IRQHandler
                0x0000000008000b0c                DMA2_Stream2_IRQHandler
                0x0000000008000b0c                HRTIM1_TIME_IRQHandler
                0x0000000008000b0c                SPI1_IRQHandler
                0x0000000008000b0c                TIM6_DAC_IRQHandler
                0x0000000008000b0c                DCMI_IRQHandler
                0x0000000008000b0c                HRTIM1_TIMC_IRQHandler
                0x0000000008000b0c                DMA2_Stream3_IRQHandler
                0x0000000008000b0c                SAI2_IRQHandler
                0x0000000008000b0c                DFSDM1_FLT3_IRQHandler
                0x0000000008000b0c                USART6_IRQHandler
                0x0000000008000b0c                TIM17_IRQHandler
                0x0000000008000b0c                USART3_IRQHandler
                0x0000000008000b0c                BDMA_Channel7_IRQHandler
                0x0000000008000b0c                CRYP_IRQHandler
                0x0000000008000b0c                LPTIM5_IRQHandler
                0x0000000008000b0c                UART5_IRQHandler
                0x0000000008000b0c                ADC3_IRQHandler
                0x0000000008000b0c                DMA2_Stream0_IRQHandler
                0x0000000008000b0c                TIM4_IRQHandler
                0x0000000008000b0c                BDMA_Channel2_IRQHandler
                0x0000000008000b0c                QUADSPI_IRQHandler
                0x0000000008000b0c                I2C1_EV_IRQHandler
                0x0000000008000b0c                DMA1_Stream6_IRQHandler
                0x0000000008000b0c                DMAMUX1_OVR_IRQHandler
                0x0000000008000b0c                DMA1_Stream1_IRQHandler
                0x0000000008000b0c                TIM16_IRQHandler
                0x0000000008000b0c                UART4_IRQHandler
                0x0000000008000b0c                BDMA_Channel5_IRQHandler
                0x0000000008000b0c                TIM3_IRQHandler
                0x0000000008000b0c                RCC_IRQHandler
                0x0000000008000b0c                TIM8_BRK_TIM12_IRQHandler
                0x0000000008000b0c                TIM1_TRG_COM_IRQHandler
                0x0000000008000b0c                Default_Handler
                0x0000000008000b0c                ECC_IRQHandler
                0x0000000008000b0c                CEC_IRQHandler
                0x0000000008000b0c                EXTI15_10_IRQHandler
                0x0000000008000b0c                BDMA_Channel0_IRQHandler
                0x0000000008000b0c                ADC_IRQHandler
                0x0000000008000b0c                DMA1_Stream7_IRQHandler
                0x0000000008000b0c                HRTIM1_TIMA_IRQHandler
                0x0000000008000b0c                SPI5_IRQHandler
                0x0000000008000b0c                TIM7_IRQHandler
                0x0000000008000b0c                SDMMC1_IRQHandler
                0x0000000008000b0c                TIM5_IRQHandler
                0x0000000008000b0c                DMA2_Stream7_IRQHandler
                0x0000000008000b0c                TIM15_IRQHandler
                0x0000000008000b0c                PVD_AVD_IRQHandler
                0x0000000008000b0c                I2C3_EV_IRQHandler
                0x0000000008000b0c                EXTI9_5_IRQHandler
                0x0000000008000b0c                RTC_WKUP_IRQHandler
                0x0000000008000b0c                LTDC_IRQHandler
                0x0000000008000b0c                SAI3_IRQHandler
                0x0000000008000b0c                ETH_WKUP_IRQHandler
                0x0000000008000b0c                SPDIF_RX_IRQHandler
                0x0000000008000b0c                SPI2_IRQHandler
                0x0000000008000b0c                OTG_HS_EP1_IN_IRQHandler
                0x0000000008000b0c                DMA1_Stream0_IRQHandler
                0x0000000008000b0c                SVC_Handler
                0x0000000008000b0c                CRS_IRQHandler
                0x0000000008000b0c                CM7_SEV_IRQHandler
                0x0000000008000b0c                EXTI4_IRQHandler
                0x0000000008000b0c                CM4_SEV_IRQHandler
                0x0000000008000b0c                HRTIM1_TIMB_IRQHandler
                0x0000000008000b0c                FDCAN2_IT1_IRQHandler
                0x0000000008000b0c                DSI_IRQHandler
                0x0000000008000b0c                ETH_IRQHandler
                0x0000000008000b0c                TIM1_UP_IRQHandler
                0x0000000008000b0c                WWDG_RST_IRQHandler
                0x0000000008000b0c                BDMA_Channel4_IRQHandler
                0x0000000008000b0c                OTG_HS_EP1_OUT_IRQHandler
                0x0000000008000b0c                WWDG_IRQHandler
                0x0000000008000b0c                SPI6_IRQHandler
                0x0000000008000b0c                MDIOS_IRQHandler
                0x0000000008000b0c                I2C4_EV_IRQHandler
                0x0000000008000b0c                FDCAN2_IT0_IRQHandler
                0x0000000008000b0c                LPUART1_IRQHandler
                0x0000000008000b0c                FDCAN1_IT0_IRQHandler
                0x0000000008000b0c                TIM2_IRQHandler
                0x0000000008000b0c                OTG_FS_WKUP_IRQHandler
                0x0000000008000b0c                OTG_HS_IRQHandler
                0x0000000008000b0c                HSEM2_IRQHandler
                0x0000000008000b0c                DMA2D_IRQHandler
                0x0000000008000b0c                TIM1_BRK_IRQHandler
                0x0000000008000b0c                EXTI1_IRQHandler
                0x0000000008000b0c                SDMMC2_IRQHandler
                0x0000000008000b0c                OTG_FS_EP1_OUT_IRQHandler
                0x0000000008000b0c                BDMA_Channel3_IRQHandler
                0x0000000008000b0c                HOLD_CORE_IRQHandler
                0x0000000008000b0c                UART7_IRQHandler
                0x0000000008000b0c                MDIOS_WKUP_IRQHandler
                0x0000000008000b0c                USART2_IRQHandler
                0x0000000008000b0c                DFSDM1_FLT0_IRQHandler
                0x0000000008000b0c                SAI4_IRQHandler
                0x0000000008000b0c                I2C2_ER_IRQHandler
                0x0000000008000b0c                DMA2_Stream1_IRQHandler
                0x0000000008000b0c                FLASH_IRQHandler
                0x0000000008000b0c                DMA2_Stream4_IRQHandler
                0x0000000008000b0c                USART1_IRQHandler
                0x0000000008000b0c                OTG_FS_IRQHandler
                0x0000000008000b0c                SPI3_IRQHandler
                0x0000000008000b0c                WAKEUP_PIN_IRQHandler
                0x0000000008000b0c                DMA1_Stream4_IRQHandler
                0x0000000008000b0c                OTG_FS_EP1_IN_IRQHandler
                0x0000000008000b0c                I2C1_ER_IRQHandler
                0x0000000008000b0c                FMC_IRQHandler
                0x0000000008000b0c                FDCAN_CAL_IRQHandler
                0x0000000008000b0c                SWPMI1_IRQHandler
                0x0000000008000b0c                COMP1_IRQHandler
                0x0000000008000b0c                LPTIM1_IRQHandler
                0x0000000008000b0c                I2C4_ER_IRQHandler
                0x0000000008000b0c                DMA2_Stream6_IRQHandler
                0x0000000008000b0c                SAI1_IRQHandler
                0x0000000008000b0c                DMA1_Stream3_IRQHandler
 *fill*         0x0000000008000b0e        0x2 
 .text.HAL_Init
                0x0000000008000b10       0x78 ./Drivers/STM32H7xx_HAL_Driver/stm32h7xx_hal.o
                0x0000000008000b10                HAL_Init
 .text.HAL_InitTick
                0x0000000008000b88       0x6c ./Drivers/STM32H7xx_HAL_Driver/stm32h7xx_hal.o
                0x0000000008000b88                HAL_InitTick
 .text.HAL_GetTick
                0x0000000008000bf4       0x18 ./Drivers/STM32H7xx_HAL_Driver/stm32h7xx_hal.o
                0x0000000008000bf4                HAL_GetTick
 .text.HAL_GetREVID
                0x0000000008000c0c       0x18 ./Drivers/STM32H7xx_HAL_Driver/stm32h7xx_hal.o
                0x0000000008000c0c                HAL_GetREVID
 .text.__NVIC_SetPriorityGrouping
                0x0000000008000c24       0x48 ./Drivers/STM32H7xx_HAL_Driver/stm32h7xx_hal_cortex.o
 .text.__NVIC_GetPriorityGrouping
                0x0000000008000c6c       0x1c ./Drivers/STM32H7xx_HAL_Driver/stm32h7xx_hal_cortex.o
 .text.__NVIC_SetPriority
                0x0000000008000c88       0x54 ./Drivers/STM32H7xx_HAL_Driver/stm32h7xx_hal_cortex.o
 .text.NVIC_EncodePriority
                0x0000000008000cdc       0x66 ./Drivers/STM32H7xx_HAL_Driver/stm32h7xx_hal_cortex.o
 *fill*         0x0000000008000d42        0x2 
 .text.SysTick_Config
                0x0000000008000d44       0x44 ./Drivers/STM32H7xx_HAL_Driver/stm32h7xx_hal_cortex.o
 .text.HAL_NVIC_SetPriorityGrouping
                0x0000000008000d88       0x16 ./Drivers/STM32H7xx_HAL_Driver/stm32h7xx_hal_cortex.o
                0x0000000008000d88                HAL_NVIC_SetPriorityGrouping
 .text.HAL_NVIC_SetPriority
                0x0000000008000d9e       0x34 ./Drivers/STM32H7xx_HAL_Driver/stm32h7xx_hal_cortex.o
                0x0000000008000d9e                HAL_NVIC_SetPriority
 .text.HAL_SYSTICK_Config
                0x0000000008000dd2       0x18 ./Drivers/STM32H7xx_HAL_Driver/stm32h7xx_hal_cortex.o
                0x0000000008000dd2                HAL_SYSTICK_Config
 *fill*         0x0000000008000dea        0x2 
 .text.HAL_GPIO_Init
                0x0000000008000dec      0x360 ./Drivers/STM32H7xx_HAL_Driver/stm32h7xx_hal_gpio.o
                0x0000000008000dec                HAL_GPIO_Init
 .text.HAL_GPIO_WritePin
                0x000000000800114c       0x32 ./Drivers/STM32H7xx_HAL_Driver/stm32h7xx_hal_gpio.o
                0x000000000800114c                HAL_GPIO_WritePin
 .text.HAL_GPIO_TogglePin
                0x000000000800117e       0x34 ./Drivers/STM32H7xx_HAL_Driver/stm32h7xx_hal_gpio.o
                0x000000000800117e                HAL_GPIO_TogglePin
 *fill*         0x00000000080011b2        0x2 
 .text.HAL_HSEM_FastTake
                0x00000000080011b4       0x34 ./Drivers/STM32H7xx_HAL_Driver/stm32h7xx_hal_hsem.o
                0x00000000080011b4                HAL_HSEM_FastTake
 .text.HAL_HSEM_Release
                0x00000000080011e8       0x28 ./Drivers/STM32H7xx_HAL_Driver/stm32h7xx_hal_hsem.o
                0x00000000080011e8                HAL_HSEM_Release
 .text.HAL_PWREx_ConfigSupply
                0x0000000008001210       0xb4 ./Drivers/STM32H7xx_HAL_Driver/stm32h7xx_hal_pwr_ex.o
                0x0000000008001210                HAL_PWREx_ConfigSupply
 .text.HAL_RCC_OscConfig
                0x00000000080012c4      0x85c ./Drivers/STM32H7xx_HAL_Driver/stm32h7xx_hal_rcc.o
                0x00000000080012c4                HAL_RCC_OscConfig
 .text.HAL_RCC_ClockConfig
                0x0000000008001b20      0x36c ./Drivers/STM32H7xx_HAL_Driver/stm32h7xx_hal_rcc.o
                0x0000000008001b20                HAL_RCC_ClockConfig
 .text.HAL_RCC_GetSysClockFreq
                0x0000000008001e8c      0x2f4 ./Drivers/STM32H7xx_HAL_Driver/stm32h7xx_hal_rcc.o
                0x0000000008001e8c                HAL_RCC_GetSysClockFreq
 .text.DRV_DIOInitialize
                0x0000000008002180       0x7c ./Drivers/board/drv_dio.o
                0x0000000008002180                DRV_DIOInitialize
 .text.DRV_DIOOpen
                0x00000000080021fc       0x4c ./Drivers/board/drv_dio.o
                0x00000000080021fc                DRV_DIOOpen
 .text.DRV_DIOToggle
                0x0000000008002248       0x30 ./Drivers/board/drv_dio.o
                0x0000000008002248                DRV_DIOToggle
 .text.DRV_GPIOInitialize
                0x0000000008002278       0x80 ./Drivers/mcu/drv_gpio.o
                0x0000000008002278                DRV_GPIOInitialize
 .text.DRV_GPIOToggle
                0x00000000080022f8       0x34 ./Drivers/mcu/drv_gpio.o
                0x00000000080022f8                DRV_GPIOToggle
 .text.PortConvert
                0x000000000800232c       0xc4 ./Drivers/mcu/drv_gpio.o
                0x000000000800232c                PortConvert
 .text.PinConvert
                0x00000000080023f0       0x20 ./Drivers/mcu/drv_gpio.o
                0x00000000080023f0                PinConvert
 .text.MX_FileX_Init
                0x0000000008002410       0x1e ./FileX/App/app_filex.o
                0x0000000008002410                MX_FileX_Init
 *fill*         0x000000000800242e        0x2 
 .text.MemAlloc
                0x0000000008002430       0x68 ./Middlewares/OSAL/cmsis_os2.o
 .text.MemFree  0x0000000008002498       0x36 ./Middlewares/OSAL/cmsis_os2.o
 *fill*         0x00000000080024ce        0x2 
 .text.MemInit  0x00000000080024d0       0xac ./Middlewares/OSAL/cmsis_os2.o
 .text.osKernelInitialize
                0x000000000800257c       0x58 ./Middlewares/OSAL/cmsis_os2.o
                0x000000000800257c                osKernelInitialize
 .text.osKernelStart
                0x00000000080025d4       0x48 ./Middlewares/OSAL/cmsis_os2.o
                0x00000000080025d4                osKernelStart
 .text.osThreadNew
                0x000000000800261c      0x1e4 ./Middlewares/OSAL/cmsis_os2.o
                0x000000000800261c                osThreadNew
 .text.osMutexNew
                0x0000000008002800       0xd4 ./Middlewares/OSAL/cmsis_os2.o
                0x0000000008002800                osMutexNew
 .text.osMutexAcquire
                0x00000000080028d4       0x78 ./Middlewares/OSAL/cmsis_os2.o
                0x00000000080028d4                osMutexAcquire
 .text.osMutexRelease
                0x000000000800294c       0x60 ./Middlewares/OSAL/cmsis_os2.o
                0x000000000800294c                osMutexRelease
 .text._tx_byte_allocate
                0x00000000080029ac      0x18c ./Middlewares/ThreadX/RTOS/ThreadX/Core/tx_byte_allocate.o
                0x00000000080029ac                _tx_byte_allocate
 .text._tx_byte_pool_cleanup
                0x0000000008002b38       0xf8 ./Middlewares/ThreadX/RTOS/ThreadX/Core/tx_byte_pool_cleanup.o
                0x0000000008002b38                _tx_byte_pool_cleanup
 .text._tx_byte_pool_create
                0x0000000008002c30      0x12c ./Middlewares/ThreadX/RTOS/ThreadX/Core/tx_byte_pool_create.o
                0x0000000008002c30                _tx_byte_pool_create
 .text._tx_byte_pool_search
                0x0000000008002d5c      0x21c ./Middlewares/ThreadX/RTOS/ThreadX/Core/tx_byte_pool_search.o
                0x0000000008002d5c                _tx_byte_pool_search
 .text._tx_byte_release
                0x0000000008002f78      0x248 ./Middlewares/ThreadX/RTOS/ThreadX/Core/tx_byte_release.o
                0x0000000008002f78                _tx_byte_release
 .text._tx_initialize_high_level
                0x00000000080031c0       0x88 ./Middlewares/ThreadX/RTOS/ThreadX/Core/tx_initialize_high_level.o
                0x00000000080031c0                _tx_initialize_high_level
 .text._tx_initialize_kernel_enter
                0x0000000008003248       0x54 ./Middlewares/ThreadX/RTOS/ThreadX/Core/tx_initialize_kernel_enter.o
                0x0000000008003248                _tx_initialize_kernel_enter
 .text._tx_initialize_kernel_setup
                0x000000000800329c       0x34 ./Middlewares/ThreadX/RTOS/ThreadX/Core/tx_initialize_kernel_setup.o
                0x000000000800329c                _tx_initialize_kernel_setup
 .text._tx_mutex_cleanup
                0x00000000080032d0       0xf8 ./Middlewares/ThreadX/RTOS/ThreadX/Core/tx_mutex_cleanup.o
                0x00000000080032d0                _tx_mutex_cleanup
 .text._tx_mutex_thread_release
                0x00000000080033c8       0x88 ./Middlewares/ThreadX/RTOS/ThreadX/Core/tx_mutex_cleanup.o
                0x00000000080033c8                _tx_mutex_thread_release
 .text._tx_mutex_create
                0x0000000008003450       0xb4 ./Middlewares/ThreadX/RTOS/ThreadX/Core/tx_mutex_create.o
                0x0000000008003450                _tx_mutex_create
 .text._tx_mutex_get
                0x0000000008003504      0x210 ./Middlewares/ThreadX/RTOS/ThreadX/Core/tx_mutex_get.o
                0x0000000008003504                _tx_mutex_get
 .text._tx_mutex_prioritize
                0x0000000008003714      0x164 ./Middlewares/ThreadX/RTOS/ThreadX/Core/tx_mutex_prioritize.o
                0x0000000008003714                _tx_mutex_prioritize
 .text._tx_mutex_priority_change
                0x0000000008003878      0x17c ./Middlewares/ThreadX/RTOS/ThreadX/Core/tx_mutex_priority_change.o
                0x0000000008003878                _tx_mutex_priority_change
 .text._tx_mutex_put
                0x00000000080039f4      0x44c ./Middlewares/ThreadX/RTOS/ThreadX/Core/tx_mutex_put.o
                0x00000000080039f4                _tx_mutex_put
 .text._tx_thread_create
                0x0000000008003e40      0x1ec ./Middlewares/ThreadX/RTOS/ThreadX/Core/tx_thread_create.o
                0x0000000008003e40                _tx_thread_create
 .text._tx_thread_initialize
                0x000000000800402c       0x80 ./Middlewares/ThreadX/RTOS/ThreadX/Core/tx_thread_initialize.o
                0x000000000800402c                _tx_thread_initialize
 .text._tx_thread_shell_entry
                0x00000000080040ac       0x98 ./Middlewares/ThreadX/RTOS/ThreadX/Core/tx_thread_shell_entry.o
                0x00000000080040ac                _tx_thread_shell_entry
 .text._tx_thread_sleep
                0x0000000008004144      0x100 ./Middlewares/ThreadX/RTOS/ThreadX/Core/tx_thread_sleep.o
                0x0000000008004144                _tx_thread_sleep
 .text._tx_thread_system_preempt_check
                0x0000000008004244       0x74 ./Middlewares/ThreadX/RTOS/ThreadX/Core/tx_thread_system_preempt_check.o
                0x0000000008004244                _tx_thread_system_preempt_check
 .text._tx_thread_system_resume
                0x00000000080042b8      0x230 ./Middlewares/ThreadX/RTOS/ThreadX/Core/tx_thread_system_resume.o
                0x00000000080042b8                _tx_thread_system_resume
 .text._tx_thread_system_suspend
                0x00000000080044e8      0x290 ./Middlewares/ThreadX/RTOS/ThreadX/Core/tx_thread_system_suspend.o
                0x00000000080044e8                _tx_thread_system_suspend
 .text._tx_thread_time_slice
                0x0000000008004778       0xa4 ./Middlewares/ThreadX/RTOS/ThreadX/Core/tx_thread_time_slice.o
                0x0000000008004778                _tx_thread_time_slice
 .text._tx_thread_timeout
                0x000000000800481c       0x78 ./Middlewares/ThreadX/RTOS/ThreadX/Core/tx_thread_timeout.o
                0x000000000800481c                _tx_thread_timeout
 .text._tx_timer_expiration_process
                0x0000000008004894       0x44 ./Middlewares/ThreadX/RTOS/ThreadX/Core/tx_timer_expiration_process.o
                0x0000000008004894                _tx_timer_expiration_process
 .text._tx_timer_initialize
                0x00000000080048d8       0xf8 ./Middlewares/ThreadX/RTOS/ThreadX/Core/tx_timer_initialize.o
                0x00000000080048d8                _tx_timer_initialize
 .text._tx_timer_system_activate
                0x00000000080049d0       0xc4 ./Middlewares/ThreadX/RTOS/ThreadX/Core/tx_timer_system_activate.o
                0x00000000080049d0                _tx_timer_system_activate
 .text._tx_timer_system_deactivate
                0x0000000008004a94       0x6e ./Middlewares/ThreadX/RTOS/ThreadX/Core/tx_timer_system_deactivate.o
                0x0000000008004a94                _tx_timer_system_deactivate
 *fill*         0x0000000008004b02        0x2 
 .text._tx_timer_thread_entry
                0x0000000008004b04      0x1fc ./Middlewares/ThreadX/RTOS/ThreadX/Core/tx_timer_thread_entry.o
                0x0000000008004b04                _tx_timer_thread_entry
 .text._txe_byte_allocate
                0x0000000008004d00       0xe8 ./Middlewares/ThreadX/RTOS/ThreadX/Core/txe_byte_allocate.o
                0x0000000008004d00                _txe_byte_allocate
 .text._txe_byte_pool_create
                0x0000000008004de8      0x140 ./Middlewares/ThreadX/RTOS/ThreadX/Core/txe_byte_pool_create.o
                0x0000000008004de8                _txe_byte_pool_create
 .text._txe_byte_release
                0x0000000008004f28       0x78 ./Middlewares/ThreadX/RTOS/ThreadX/Core/txe_byte_release.o
                0x0000000008004f28                _txe_byte_release
 .text._txe_mutex_create
                0x0000000008004fa0      0x13c ./Middlewares/ThreadX/RTOS/ThreadX/Core/txe_mutex_create.o
                0x0000000008004fa0                _txe_mutex_create
 .text._txe_mutex_get
                0x00000000080050dc       0xb4 ./Middlewares/ThreadX/RTOS/ThreadX/Core/txe_mutex_get.o
                0x00000000080050dc                _txe_mutex_get
 .text._txe_mutex_put
                0x0000000008005190       0x74 ./Middlewares/ThreadX/RTOS/ThreadX/Core/txe_mutex_put.o
                0x0000000008005190                _txe_mutex_put
 .text._txe_thread_create
                0x0000000008005204      0x1e4 ./Middlewares/ThreadX/RTOS/ThreadX/Core/txe_thread_create.o
                0x0000000008005204                _txe_thread_create
 .text.MW_BoardInitialize
                0x00000000080053e8        0xc ./Middlewares/deos_api/mw_board.o
                0x00000000080053e8                MW_BoardInitialize
 .text.MW_DIOOpen
                0x00000000080053f4       0x22 ./Middlewares/deos_api/mw_dio.o
                0x00000000080053f4                MW_DIOOpen
 .text.MW_DIOOutputToggle
                0x0000000008005416       0x24 ./Middlewares/deos_api/mw_dio.o
                0x0000000008005416                MW_DIOOutputToggle
 *fill*         0x000000000800543a        0x2 
 .text.__libc_init_array
                0x000000000800543c       0x48 c:/st/stm32cubeide_1.8.0/stm32cubeide/plugins/com.st.stm32cube.ide.mcu.externaltools.gnu-tools-for-stm32.10.3-2021.10.win32_1.0.0.202111181127/tools/bin/../lib/gcc/arm-none-eabi/10.3.1/../../../../arm-none-eabi/lib/thumb/v7e-m+dp/hard\libc_nano.a(lib_a-init.o)
                0x000000000800543c                __libc_init_array
 .text.memset   0x0000000008005484       0x10 c:/st/stm32cubeide_1.8.0/stm32cubeide/plugins/com.st.stm32cube.ide.mcu.externaltools.gnu-tools-for-stm32.10.3-2021.10.win32_1.0.0.202111181127/tools/bin/../lib/gcc/arm-none-eabi/10.3.1/../../../../arm-none-eabi/lib/thumb/v7e-m+dp/hard\libc_nano.a(lib_a-memset.o)
                0x0000000008005484                memset
 *(.glue_7)
 .glue_7        0x0000000008005494        0x0 linker stubs
 *(.glue_7t)
 .glue_7t       0x0000000008005494        0x0 linker stubs
 *(.eh_frame)
 .eh_frame      0x0000000008005494        0x0 c:/st/stm32cubeide_1.8.0/stm32cubeide/plugins/com.st.stm32cube.ide.mcu.externaltools.gnu-tools-for-stm32.10.3-2021.10.win32_1.0.0.202111181127/tools/bin/../lib/gcc/arm-none-eabi/10.3.1/thumb/v7e-m+dp/hard/crtbegin.o
 *(.init)
 .init          0x0000000008005494        0x4 c:/st/stm32cubeide_1.8.0/stm32cubeide/plugins/com.st.stm32cube.ide.mcu.externaltools.gnu-tools-for-stm32.10.3-2021.10.win32_1.0.0.202111181127/tools/bin/../lib/gcc/arm-none-eabi/10.3.1/thumb/v7e-m+dp/hard/crti.o
                0x0000000008005494                _init
 .init          0x0000000008005498        0x8 c:/st/stm32cubeide_1.8.0/stm32cubeide/plugins/com.st.stm32cube.ide.mcu.externaltools.gnu-tools-for-stm32.10.3-2021.10.win32_1.0.0.202111181127/tools/bin/../lib/gcc/arm-none-eabi/10.3.1/thumb/v7e-m+dp/hard/crtn.o
 *(.fini)
 .fini          0x00000000080054a0        0x4 c:/st/stm32cubeide_1.8.0/stm32cubeide/plugins/com.st.stm32cube.ide.mcu.externaltools.gnu-tools-for-stm32.10.3-2021.10.win32_1.0.0.202111181127/tools/bin/../lib/gcc/arm-none-eabi/10.3.1/thumb/v7e-m+dp/hard/crti.o
                0x00000000080054a0                _fini
 .fini          0x00000000080054a4        0x8 c:/st/stm32cubeide_1.8.0/stm32cubeide/plugins/com.st.stm32cube.ide.mcu.externaltools.gnu-tools-for-stm32.10.3-2021.10.win32_1.0.0.202111181127/tools/bin/../lib/gcc/arm-none-eabi/10.3.1/thumb/v7e-m+dp/hard/crtn.o
                0x00000000080054ac                . = ALIGN (0x4)
                0x00000000080054ac                _etext = .

.vfp11_veneer   0x00000000080054ac        0x0
 .vfp11_veneer  0x00000000080054ac        0x0 linker stubs

.v4_bx          0x00000000080054ac        0x0
 .v4_bx         0x00000000080054ac        0x0 linker stubs

.iplt           0x00000000080054ac        0x0
 .iplt          0x00000000080054ac        0x0 c:/st/stm32cubeide_1.8.0/stm32cubeide/plugins/com.st.stm32cube.ide.mcu.externaltools.gnu-tools-for-stm32.10.3-2021.10.win32_1.0.0.202111181127/tools/bin/../lib/gcc/arm-none-eabi/10.3.1/thumb/v7e-m+dp/hard/crtbegin.o

.rodata         0x00000000080054ac       0xd0
                0x00000000080054ac                . = ALIGN (0x4)
 *(.rodata)
 .rodata        0x00000000080054ac       0x27 ./AZURE_RTOS/App/app_azure_rtos.o
 *fill*         0x00000000080054d3        0x1 
 .rodata        0x00000000080054d4       0x27 ./Core/Src/Application/threads_cm7.o
 *fill*         0x00000000080054fb        0x1 
 .rodata        0x00000000080054fc       0x32 ./Middlewares/OSAL/cmsis_os2.o
 *fill*         0x000000000800552e        0x2 
 .rodata        0x0000000008005530       0x14 ./Middlewares/ThreadX/RTOS/ThreadX/Core/tx_timer_initialize.o
 *(.rodata*)
 .rodata.D1CorePrescTable
                0x0000000008005544       0x10 ./Common/Src/system_stm32h7xx_dualcore_boot_cm4_cm7.o
                0x0000000008005544                D1CorePrescTable
 .rodata.user_dio
                0x0000000008005554       0x28 ./Drivers/board/drv_dio.o
                0x0000000008005554                user_dio
                0x000000000800557c                . = ALIGN (0x4)

.rel.dyn        0x000000000800557c        0x0
 .rel.iplt      0x000000000800557c        0x0 c:/st/stm32cubeide_1.8.0/stm32cubeide/plugins/com.st.stm32cube.ide.mcu.externaltools.gnu-tools-for-stm32.10.3-2021.10.win32_1.0.0.202111181127/tools/bin/../lib/gcc/arm-none-eabi/10.3.1/thumb/v7e-m+dp/hard/crtbegin.o

.ARM.extab      0x000000000800557c        0x0
                0x000000000800557c                . = ALIGN (0x4)
 *(.ARM.extab* .gnu.linkonce.armextab.*)
                0x000000000800557c                . = ALIGN (0x4)

.ARM            0x000000000800557c        0x0
                0x000000000800557c                . = ALIGN (0x4)
                0x000000000800557c                __exidx_start = .
 *(.ARM.exidx*)
                0x000000000800557c                __exidx_end = .
                0x000000000800557c                . = ALIGN (0x4)

.preinit_array  0x000000000800557c        0x0
                0x000000000800557c                . = ALIGN (0x4)
                0x000000000800557c                PROVIDE (__preinit_array_start = .)
 *(.preinit_array*)
                0x000000000800557c                PROVIDE (__preinit_array_end = .)
                0x000000000800557c                . = ALIGN (0x4)

.init_array     0x000000000800557c        0x4
                0x000000000800557c                . = ALIGN (0x4)
                0x000000000800557c                PROVIDE (__init_array_start = .)
 *(SORT_BY_NAME(.init_array.*))
 *(.init_array*)
 .init_array    0x000000000800557c        0x4 c:/st/stm32cubeide_1.8.0/stm32cubeide/plugins/com.st.stm32cube.ide.mcu.externaltools.gnu-tools-for-stm32.10.3-2021.10.win32_1.0.0.202111181127/tools/bin/../lib/gcc/arm-none-eabi/10.3.1/thumb/v7e-m+dp/hard/crtbegin.o
                0x0000000008005580                PROVIDE (__init_array_end = .)
                0x0000000008005580                . = ALIGN (0x4)

.fini_array     0x0000000008005580        0x4
                0x0000000008005580                . = ALIGN (0x4)
                [!provide]                        PROVIDE (__fini_array_start = .)
 *(SORT_BY_NAME(.fini_array.*))
 *(.fini_array*)
 .fini_array    0x0000000008005580        0x4 c:/st/stm32cubeide_1.8.0/stm32cubeide/plugins/com.st.stm32cube.ide.mcu.externaltools.gnu-tools-for-stm32.10.3-2021.10.win32_1.0.0.202111181127/tools/bin/../lib/gcc/arm-none-eabi/10.3.1/thumb/v7e-m+dp/hard/crtbegin.o
                [!provide]                        PROVIDE (__fini_array_end = .)
                0x0000000008005584                . = ALIGN (0x4)
                0x0000000008005584                _sidata = LOADADDR (.data)

.data           0x0000000024000000       0x38 load address 0x0000000008005584
                0x0000000024000000                . = ALIGN (0x4)
                0x0000000024000000                _sdata = .
 *(.data)
 *(.data*)
 .data.SystemCoreClock
                0x0000000024000000        0x4 ./Common/Src/system_stm32h7xx_dualcore_boot_cm4_cm7.o
                0x0000000024000000                SystemCoreClock
 .data.SystemD2Clock
                0x0000000024000004        0x4 ./Common/Src/system_stm32h7xx_dualcore_boot_cm4_cm7.o
                0x0000000024000004                SystemD2Clock
 .data.attr     0x0000000024000008       0x24 ./Core/Src/Application/threads_cm7.o
 .data.uwTickPrio
                0x000000002400002c        0x4 ./Drivers/STM32H7xx_HAL_Driver/stm32h7xx_hal.o
                0x000000002400002c                uwTickPrio
 .data.uwTickFreq
                0x0000000024000030        0x1 ./Drivers/STM32H7xx_HAL_Driver/stm32h7xx_hal.o
                0x0000000024000030                uwTickFreq
 *fill*         0x0000000024000031        0x3 
 .data._tx_thread_system_state
                0x0000000024000034        0x4 ./Middlewares/ThreadX/RTOS/ThreadX/Core/tx_thread_initialize.o
                0x0000000024000034                _tx_thread_system_state
 *(.RamFunc)
 *(.RamFunc*)
                0x0000000024000038                . = ALIGN (0x4)
                0x0000000024000038                _edata = .

.igot.plt       0x0000000024000038        0x0 load address 0x00000000080055bc
 .igot.plt      0x0000000024000038        0x0 c:/st/stm32cubeide_1.8.0/stm32cubeide/plugins/com.st.stm32cube.ide.mcu.externaltools.gnu-tools-for-stm32.10.3-2021.10.win32_1.0.0.202111181127/tools/bin/../lib/gcc/arm-none-eabi/10.3.1/thumb/v7e-m+dp/hard/crtbegin.o
                0x0000000024000038                . = ALIGN (0x4)

.bss            0x0000000024000038     0x3420 load address 0x00000000080055bc
                0x0000000024000038                _sbss = .
                0x0000000024000038                __bss_start__ = _sbss
 *(.bss)
 .bss           0x0000000024000038       0x1c c:/st/stm32cubeide_1.8.0/stm32cubeide/plugins/com.st.stm32cube.ide.mcu.externaltools.gnu-tools-for-stm32.10.3-2021.10.win32_1.0.0.202111181127/tools/bin/../lib/gcc/arm-none-eabi/10.3.1/thumb/v7e-m+dp/hard/crtbegin.o
 *(.bss*)
 .bss.tx_byte_pool_buffer
                0x0000000024000054     0x2800 ./AZURE_RTOS/App/app_azure_rtos.o
 .bss.tx_app_byte_pool
                0x0000000024002854       0x34 ./AZURE_RTOS/App/app_azure_rtos.o
 .bss.fx_byte_pool_buffer
                0x0000000024002888      0x400 ./AZURE_RTOS/App/app_azure_rtos.o
 .bss.fx_app_byte_pool
                0x0000000024002c88       0x34 ./AZURE_RTOS/App/app_azure_rtos.o
 .bss.Threadone
                0x0000000024002cbc        0x4 ./Core/Src/Application/threads_cm7.o
                0x0000000024002cbc                Threadone
 .bss.Threadtwo
                0x0000000024002cc0        0x4 ./Core/Src/Application/threads_cm7.o
                0x0000000024002cc0                Threadtwo
 .bss.Mutexone  0x0000000024002cc4        0x4 ./Core/Src/Application/threads_cm7.o
                0x0000000024002cc4                Mutexone
 .bss.Mutextwo  0x0000000024002cc8        0x4 ./Core/Src/Application/threads_cm7.o
                0x0000000024002cc8                Mutextwo
 .bss.mut_attr  0x0000000024002ccc       0x10 ./Core/Src/Application/threads_cm7.o
 .bss.uwTick    0x0000000024002cdc        0x4 ./Drivers/STM32H7xx_HAL_Driver/stm32h7xx_hal.o
                0x0000000024002cdc                uwTick
 .bss.gpio_handle
                0x0000000024002ce0       0x40 ./Drivers/board/drv_dio.o
 .bss.KernelState
                0x0000000024002d20        0x4 ./Middlewares/OSAL/cmsis_os2.o
 .bss.HeapBytePool
                0x0000000024002d24       0x34 ./Middlewares/OSAL/cmsis_os2.o
                0x0000000024002d24                HeapBytePool
 .bss.StackBytePool
                0x0000000024002d58       0x34 ./Middlewares/OSAL/cmsis_os2.o
                0x0000000024002d58                StackBytePool
 .bss._tx_semaphore_created_ptr
                0x0000000024002d8c        0x4 ./Middlewares/ThreadX/RTOS/ThreadX/Core/tx_initialize_high_level.o
                0x0000000024002d8c                _tx_semaphore_created_ptr
 .bss._tx_semaphore_created_count
                0x0000000024002d90        0x4 ./Middlewares/ThreadX/RTOS/ThreadX/Core/tx_initialize_high_level.o
                0x0000000024002d90                _tx_semaphore_created_count
 .bss._tx_queue_created_ptr
                0x0000000024002d94        0x4 ./Middlewares/ThreadX/RTOS/ThreadX/Core/tx_initialize_high_level.o
                0x0000000024002d94                _tx_queue_created_ptr
 .bss._tx_queue_created_count
                0x0000000024002d98        0x4 ./Middlewares/ThreadX/RTOS/ThreadX/Core/tx_initialize_high_level.o
                0x0000000024002d98                _tx_queue_created_count
 .bss._tx_event_flags_created_ptr
                0x0000000024002d9c        0x4 ./Middlewares/ThreadX/RTOS/ThreadX/Core/tx_initialize_high_level.o
                0x0000000024002d9c                _tx_event_flags_created_ptr
 .bss._tx_event_flags_created_count
                0x0000000024002da0        0x4 ./Middlewares/ThreadX/RTOS/ThreadX/Core/tx_initialize_high_level.o
                0x0000000024002da0                _tx_event_flags_created_count
 .bss._tx_mutex_created_ptr
                0x0000000024002da4        0x4 ./Middlewares/ThreadX/RTOS/ThreadX/Core/tx_initialize_high_level.o
                0x0000000024002da4                _tx_mutex_created_ptr
 .bss._tx_mutex_created_count
                0x0000000024002da8        0x4 ./Middlewares/ThreadX/RTOS/ThreadX/Core/tx_initialize_high_level.o
                0x0000000024002da8                _tx_mutex_created_count
 .bss._tx_block_pool_created_ptr
                0x0000000024002dac        0x4 ./Middlewares/ThreadX/RTOS/ThreadX/Core/tx_initialize_high_level.o
                0x0000000024002dac                _tx_block_pool_created_ptr
 .bss._tx_block_pool_created_count
                0x0000000024002db0        0x4 ./Middlewares/ThreadX/RTOS/ThreadX/Core/tx_initialize_high_level.o
                0x0000000024002db0                _tx_block_pool_created_count
 .bss._tx_byte_pool_created_ptr
                0x0000000024002db4        0x4 ./Middlewares/ThreadX/RTOS/ThreadX/Core/tx_initialize_high_level.o
                0x0000000024002db4                _tx_byte_pool_created_ptr
 .bss._tx_byte_pool_created_count
                0x0000000024002db8        0x4 ./Middlewares/ThreadX/RTOS/ThreadX/Core/tx_initialize_high_level.o
                0x0000000024002db8                _tx_byte_pool_created_count
 .bss._tx_initialize_unused_memory
                0x0000000024002dbc        0x4 ./Middlewares/ThreadX/RTOS/ThreadX/Core/tx_initialize_high_level.o
                0x0000000024002dbc                _tx_initialize_unused_memory
 .bss._tx_thread_system_stack_ptr
                0x0000000024002dc0        0x4 ./Middlewares/ThreadX/RTOS/ThreadX/Core/tx_thread_initialize.o
                0x0000000024002dc0                _tx_thread_system_stack_ptr
 .bss._tx_thread_current_ptr
                0x0000000024002dc4        0x4 ./Middlewares/ThreadX/RTOS/ThreadX/Core/tx_thread_initialize.o
                0x0000000024002dc4                _tx_thread_current_ptr
 .bss._tx_thread_execute_ptr
                0x0000000024002dc8        0x4 ./Middlewares/ThreadX/RTOS/ThreadX/Core/tx_thread_initialize.o
                0x0000000024002dc8                _tx_thread_execute_ptr
 .bss._tx_thread_created_ptr
                0x0000000024002dcc        0x4 ./Middlewares/ThreadX/RTOS/ThreadX/Core/tx_thread_initialize.o
                0x0000000024002dcc                _tx_thread_created_ptr
 .bss._tx_thread_created_count
                0x0000000024002dd0        0x4 ./Middlewares/ThreadX/RTOS/ThreadX/Core/tx_thread_initialize.o
                0x0000000024002dd0                _tx_thread_created_count
 .bss._tx_thread_priority_maps
                0x0000000024002dd4        0x8 ./Middlewares/ThreadX/RTOS/ThreadX/Core/tx_thread_initialize.o
                0x0000000024002dd4                _tx_thread_priority_maps
 .bss._tx_thread_priority_map_active
                0x0000000024002ddc        0x4 ./Middlewares/ThreadX/RTOS/ThreadX/Core/tx_thread_initialize.o
                0x0000000024002ddc                _tx_thread_priority_map_active
 .bss._tx_thread_highest_priority
                0x0000000024002de0        0x4 ./Middlewares/ThreadX/RTOS/ThreadX/Core/tx_thread_initialize.o
                0x0000000024002de0                _tx_thread_highest_priority
 .bss._tx_thread_priority_list
                0x0000000024002de4      0x100 ./Middlewares/ThreadX/RTOS/ThreadX/Core/tx_thread_initialize.o
                0x0000000024002de4                _tx_thread_priority_list
 .bss._tx_thread_preempt_disable
                0x0000000024002ee4        0x4 ./Middlewares/ThreadX/RTOS/ThreadX/Core/tx_thread_initialize.o
                0x0000000024002ee4                _tx_thread_preempt_disable
 .bss._tx_thread_mutex_release
                0x0000000024002ee8        0x4 ./Middlewares/ThreadX/RTOS/ThreadX/Core/tx_thread_initialize.o
                0x0000000024002ee8                _tx_thread_mutex_release
 .bss._tx_build_options
                0x0000000024002eec        0x4 ./Middlewares/ThreadX/RTOS/ThreadX/Core/tx_thread_initialize.o
                0x0000000024002eec                _tx_build_options
 .bss._tx_timer_system_clock
                0x0000000024002ef0        0x4 ./Middlewares/ThreadX/RTOS/ThreadX/Core/tx_timer_initialize.o
                0x0000000024002ef0                _tx_timer_system_clock
 .bss._tx_timer_expired_time_slice
                0x0000000024002ef4        0x4 ./Middlewares/ThreadX/RTOS/ThreadX/Core/tx_timer_initialize.o
                0x0000000024002ef4                _tx_timer_expired_time_slice
 .bss._tx_timer_list
                0x0000000024002ef8       0x80 ./Middlewares/ThreadX/RTOS/ThreadX/Core/tx_timer_initialize.o
                0x0000000024002ef8                _tx_timer_list
 .bss._tx_timer_list_start
                0x0000000024002f78        0x4 ./Middlewares/ThreadX/RTOS/ThreadX/Core/tx_timer_initialize.o
                0x0000000024002f78                _tx_timer_list_start
 .bss._tx_timer_list_end
                0x0000000024002f7c        0x4 ./Middlewares/ThreadX/RTOS/ThreadX/Core/tx_timer_initialize.o
                0x0000000024002f7c                _tx_timer_list_end
 .bss._tx_timer_current_ptr
                0x0000000024002f80        0x4 ./Middlewares/ThreadX/RTOS/ThreadX/Core/tx_timer_initialize.o
                0x0000000024002f80                _tx_timer_current_ptr
 .bss._tx_timer_expired
                0x0000000024002f84        0x4 ./Middlewares/ThreadX/RTOS/ThreadX/Core/tx_timer_initialize.o
                0x0000000024002f84                _tx_timer_expired
 .bss._tx_timer_created_ptr
                0x0000000024002f88        0x4 ./Middlewares/ThreadX/RTOS/ThreadX/Core/tx_timer_initialize.o
                0x0000000024002f88                _tx_timer_created_ptr
 .bss._tx_timer_created_count
                0x0000000024002f8c        0x4 ./Middlewares/ThreadX/RTOS/ThreadX/Core/tx_timer_initialize.o
                0x0000000024002f8c                _tx_timer_created_count
 .bss._tx_timer_expired_timer_ptr
                0x0000000024002f90        0x4 ./Middlewares/ThreadX/RTOS/ThreadX/Core/tx_timer_initialize.o
                0x0000000024002f90                _tx_timer_expired_timer_ptr
 .bss._tx_timer_thread
                0x0000000024002f94       0xb4 ./Middlewares/ThreadX/RTOS/ThreadX/Core/tx_timer_initialize.o
                0x0000000024002f94                _tx_timer_thread
 .bss._tx_timer_stack_start
                0x0000000024003048        0x4 ./Middlewares/ThreadX/RTOS/ThreadX/Core/tx_timer_initialize.o
                0x0000000024003048                _tx_timer_stack_start
 .bss._tx_timer_stack_size
                0x000000002400304c        0x4 ./Middlewares/ThreadX/RTOS/ThreadX/Core/tx_timer_initialize.o
                0x000000002400304c                _tx_timer_stack_size
 .bss._tx_timer_priority
                0x0000000024003050        0x4 ./Middlewares/ThreadX/RTOS/ThreadX/Core/tx_timer_initialize.o
                0x0000000024003050                _tx_timer_priority
 .bss._tx_timer_thread_stack_area
                0x0000000024003054      0x400 ./Middlewares/ThreadX/RTOS/ThreadX/Core/tx_timer_initialize.o
                0x0000000024003054                _tx_timer_thread_stack_area
 .bss._tx_timer_time_slice
                0x0000000024003454        0x4 ./Middlewares/ThreadX/RTOS/ThreadX/Core/tx_timer_initialize.o
                0x0000000024003454                _tx_timer_time_slice
 *(COMMON)
                0x0000000024003458                . = ALIGN (0x4)
                0x0000000024003458                _ebss = .
                0x0000000024003458                __bss_end__ = _ebss

._user_heap_stack
                0x0000000024003458      0x600 load address 0x00000000080055bc
                0x0000000024003458                . = ALIGN (0x8)
                [!provide]                        PROVIDE (end = .)
                0x0000000024003458                PROVIDE (_end = .)
                0x0000000024003658                . = (. + _Min_Heap_Size)
 *fill*         0x0000000024003458      0x200 
                0x0000000024003a58                . = (. + _Min_Stack_Size)
 *fill*         0x0000000024003658      0x400 
                0x0000000024003a58                . = ALIGN (0x8)
                0x0000000024003a58                __RAM_segment_used_end__ = .

/DISCARD/
 libc.a(*)
 libm.a(*)
 libgcc.a(*)

.ARM.attributes
                0x0000000000000000       0x2e
 *(.ARM.attributes)
 .ARM.attributes
                0x0000000000000000       0x1e c:/st/stm32cubeide_1.8.0/stm32cubeide/plugins/com.st.stm32cube.ide.mcu.externaltools.gnu-tools-for-stm32.10.3-2021.10.win32_1.0.0.202111181127/tools/bin/../lib/gcc/arm-none-eabi/10.3.1/thumb/v7e-m+dp/hard/crti.o
 .ARM.attributes
                0x000000000000001e       0x32 c:/st/stm32cubeide_1.8.0/stm32cubeide/plugins/com.st.stm32cube.ide.mcu.externaltools.gnu-tools-for-stm32.10.3-2021.10.win32_1.0.0.202111181127/tools/bin/../lib/gcc/arm-none-eabi/10.3.1/thumb/v7e-m+dp/hard/crtbegin.o
 .ARM.attributes
                0x0000000000000050       0x32 ./AZURE_RTOS/App/app_azure_rtos.o
 .ARM.attributes
                0x0000000000000082       0x32 ./Common/Src/system_stm32h7xx_dualcore_boot_cm4_cm7.o
 .ARM.attributes
                0x00000000000000b4       0x32 ./Core/Src/Application/threads_cm7.o
 .ARM.attributes
                0x00000000000000e6       0x32 ./Core/Src/app_threadx.o
 .ARM.attributes
                0x0000000000000118       0x32 ./Core/Src/main.o
 .ARM.attributes
                0x000000000000014a       0x32 ./Core/Src/stm32h7xx_hal_msp.o
 .ARM.attributes
                0x000000000000017c       0x32 ./Core/Src/stm32h7xx_it.o
 .ARM.attributes
                0x00000000000001ae       0x1e ./Core/Src/tx_initialize_low_level.o
 .ARM.attributes
                0x00000000000001cc       0x21 ./Core/Startup/startup_stm32h757xihx.o
 .ARM.attributes
                0x00000000000001ed       0x32 ./Drivers/STM32H7xx_HAL_Driver/stm32h7xx_hal.o
 .ARM.attributes
                0x000000000000021f       0x32 ./Drivers/STM32H7xx_HAL_Driver/stm32h7xx_hal_cortex.o
 .ARM.attributes
                0x0000000000000251       0x32 ./Drivers/STM32H7xx_HAL_Driver/stm32h7xx_hal_gpio.o
 .ARM.attributes
                0x0000000000000283       0x32 ./Drivers/STM32H7xx_HAL_Driver/stm32h7xx_hal_hsem.o
 .ARM.attributes
                0x00000000000002b5       0x32 ./Drivers/STM32H7xx_HAL_Driver/stm32h7xx_hal_pwr_ex.o
 .ARM.attributes
                0x00000000000002e7       0x32 ./Drivers/STM32H7xx_HAL_Driver/stm32h7xx_hal_rcc.o
 .ARM.attributes
                0x0000000000000319       0x32 ./Drivers/board/drv_dio.o
 .ARM.attributes
                0x000000000000034b       0x32 ./Drivers/mcu/drv_gpio.o
 .ARM.attributes
                0x000000000000037d       0x32 ./FileX/App/app_filex.o
 .ARM.attributes
                0x00000000000003af       0x32 ./Middlewares/OSAL/cmsis_os2.o
 .ARM.attributes
                0x00000000000003e1       0x32 ./Middlewares/ThreadX/RTOS/ThreadX/Core/tx_byte_allocate.o
 .ARM.attributes
                0x0000000000000413       0x32 ./Middlewares/ThreadX/RTOS/ThreadX/Core/tx_byte_pool_cleanup.o
 .ARM.attributes
                0x0000000000000445       0x32 ./Middlewares/ThreadX/RTOS/ThreadX/Core/tx_byte_pool_create.o
 .ARM.attributes
                0x0000000000000477       0x32 ./Middlewares/ThreadX/RTOS/ThreadX/Core/tx_byte_pool_search.o
 .ARM.attributes
                0x00000000000004a9       0x32 ./Middlewares/ThreadX/RTOS/ThreadX/Core/tx_byte_release.o
 .ARM.attributes
                0x00000000000004db       0x32 ./Middlewares/ThreadX/RTOS/ThreadX/Core/tx_initialize_high_level.o
 .ARM.attributes
                0x000000000000050d       0x32 ./Middlewares/ThreadX/RTOS/ThreadX/Core/tx_initialize_kernel_enter.o
 .ARM.attributes
                0x000000000000053f       0x32 ./Middlewares/ThreadX/RTOS/ThreadX/Core/tx_initialize_kernel_setup.o
 .ARM.attributes
                0x0000000000000571       0x32 ./Middlewares/ThreadX/RTOS/ThreadX/Core/tx_mutex_cleanup.o
 .ARM.attributes
                0x00000000000005a3       0x32 ./Middlewares/ThreadX/RTOS/ThreadX/Core/tx_mutex_create.o
 .ARM.attributes
                0x00000000000005d5       0x32 ./Middlewares/ThreadX/RTOS/ThreadX/Core/tx_mutex_get.o
 .ARM.attributes
                0x0000000000000607       0x32 ./Middlewares/ThreadX/RTOS/ThreadX/Core/tx_mutex_prioritize.o
 .ARM.attributes
                0x0000000000000639       0x32 ./Middlewares/ThreadX/RTOS/ThreadX/Core/tx_mutex_priority_change.o
 .ARM.attributes
                0x000000000000066b       0x32 ./Middlewares/ThreadX/RTOS/ThreadX/Core/tx_mutex_put.o
 .ARM.attributes
                0x000000000000069d       0x32 ./Middlewares/ThreadX/RTOS/ThreadX/Core/tx_thread_create.o
 .ARM.attributes
                0x00000000000006cf       0x32 ./Middlewares/ThreadX/RTOS/ThreadX/Core/tx_thread_initialize.o
 .ARM.attributes
                0x0000000000000701       0x1e ./Middlewares/ThreadX/RTOS/ThreadX/Core/tx_thread_schedule.o
 .ARM.attributes
                0x000000000000071f       0x32 ./Middlewares/ThreadX/RTOS/ThreadX/Core/tx_thread_shell_entry.o
 .ARM.attributes
                0x0000000000000751       0x32 ./Middlewares/ThreadX/RTOS/ThreadX/Core/tx_thread_sleep.o
 .ARM.attributes
                0x0000000000000783       0x1e ./Middlewares/ThreadX/RTOS/ThreadX/Core/tx_thread_stack_build.o
 .ARM.attributes
                0x00000000000007a1       0x32 ./Middlewares/ThreadX/RTOS/ThreadX/Core/tx_thread_system_preempt_check.o
 .ARM.attributes
                0x00000000000007d3       0x32 ./Middlewares/ThreadX/RTOS/ThreadX/Core/tx_thread_system_resume.o
 .ARM.attributes
                0x0000000000000805       0x32 ./Middlewares/ThreadX/RTOS/ThreadX/Core/tx_thread_system_suspend.o
 .ARM.attributes
                0x0000000000000837       0x32 ./Middlewares/ThreadX/RTOS/ThreadX/Core/tx_thread_time_slice.o
 .ARM.attributes
                0x0000000000000869       0x32 ./Middlewares/ThreadX/RTOS/ThreadX/Core/tx_thread_timeout.o
 .ARM.attributes
                0x000000000000089b       0x32 ./Middlewares/ThreadX/RTOS/ThreadX/Core/tx_timer_expiration_process.o
 .ARM.attributes
                0x00000000000008cd       0x32 ./Middlewares/ThreadX/RTOS/ThreadX/Core/tx_timer_initialize.o
 .ARM.attributes
                0x00000000000008ff       0x1e ./Middlewares/ThreadX/RTOS/ThreadX/Core/tx_timer_interrupt.o
 .ARM.attributes
                0x000000000000091d       0x32 ./Middlewares/ThreadX/RTOS/ThreadX/Core/tx_timer_system_activate.o
 .ARM.attributes
                0x000000000000094f       0x32 ./Middlewares/ThreadX/RTOS/ThreadX/Core/tx_timer_system_deactivate.o
 .ARM.attributes
                0x0000000000000981       0x32 ./Middlewares/ThreadX/RTOS/ThreadX/Core/tx_timer_thread_entry.o
 .ARM.attributes
                0x00000000000009b3       0x32 ./Middlewares/ThreadX/RTOS/ThreadX/Core/txe_byte_allocate.o
 .ARM.attributes
                0x00000000000009e5       0x32 ./Middlewares/ThreadX/RTOS/ThreadX/Core/txe_byte_pool_create.o
 .ARM.attributes
                0x0000000000000a17       0x32 ./Middlewares/ThreadX/RTOS/ThreadX/Core/txe_byte_release.o
 .ARM.attributes
                0x0000000000000a49       0x32 ./Middlewares/ThreadX/RTOS/ThreadX/Core/txe_mutex_create.o
 .ARM.attributes
                0x0000000000000a7b       0x32 ./Middlewares/ThreadX/RTOS/ThreadX/Core/txe_mutex_get.o
 .ARM.attributes
                0x0000000000000aad       0x32 ./Middlewares/ThreadX/RTOS/ThreadX/Core/txe_mutex_put.o
 .ARM.attributes
                0x0000000000000adf       0x32 ./Middlewares/ThreadX/RTOS/ThreadX/Core/txe_thread_create.o
 .ARM.attributes
                0x0000000000000b11       0x32 ./Middlewares/deos_api/mw_board.o
 .ARM.attributes
                0x0000000000000b43       0x32 ./Middlewares/deos_api/mw_dio.o
 .ARM.attributes
                0x0000000000000b75       0x32 c:/st/stm32cubeide_1.8.0/stm32cubeide/plugins/com.st.stm32cube.ide.mcu.externaltools.gnu-tools-for-stm32.10.3-2021.10.win32_1.0.0.202111181127/tools/bin/../lib/gcc/arm-none-eabi/10.3.1/../../../../arm-none-eabi/lib/thumb/v7e-m+dp/hard\libc_nano.a(lib_a-init.o)
 .ARM.attributes
                0x0000000000000ba7       0x32 c:/st/stm32cubeide_1.8.0/stm32cubeide/plugins/com.st.stm32cube.ide.mcu.externaltools.gnu-tools-for-stm32.10.3-2021.10.win32_1.0.0.202111181127/tools/bin/../lib/gcc/arm-none-eabi/10.3.1/../../../../arm-none-eabi/lib/thumb/v7e-m+dp/hard\libc_nano.a(lib_a-memset.o)
 .ARM.attributes
                0x0000000000000bd9       0x1e c:/st/stm32cubeide_1.8.0/stm32cubeide/plugins/com.st.stm32cube.ide.mcu.externaltools.gnu-tools-for-stm32.10.3-2021.10.win32_1.0.0.202111181127/tools/bin/../lib/gcc/arm-none-eabi/10.3.1/thumb/v7e-m+dp/hard/crtn.o
OUTPUT(STM32H757_Template_CM7.elf elf32-littlearm)
LOAD linker stubs
LOAD c:/st/stm32cubeide_1.8.0/stm32cubeide/plugins/com.st.stm32cube.ide.mcu.externaltools.gnu-tools-for-stm32.10.3-2021.10.win32_1.0.0.202111181127/tools/bin/../lib/gcc/arm-none-eabi/10.3.1/../../../../arm-none-eabi/lib/thumb/v7e-m+dp/hard\libc.a
LOAD c:/st/stm32cubeide_1.8.0/stm32cubeide/plugins/com.st.stm32cube.ide.mcu.externaltools.gnu-tools-for-stm32.10.3-2021.10.win32_1.0.0.202111181127/tools/bin/../lib/gcc/arm-none-eabi/10.3.1/../../../../arm-none-eabi/lib/thumb/v7e-m+dp/hard\libm.a
LOAD c:/st/stm32cubeide_1.8.0/stm32cubeide/plugins/com.st.stm32cube.ide.mcu.externaltools.gnu-tools-for-stm32.10.3-2021.10.win32_1.0.0.202111181127/tools/bin/../lib/gcc/arm-none-eabi/10.3.1/thumb/v7e-m+dp/hard\libgcc.a

.debug_info     0x0000000000000000    0x1b8ce
 .debug_info    0x0000000000000000      0x652 ./AZURE_RTOS/App/app_azure_rtos.o
 .debug_info    0x0000000000000652      0xdca ./Common/Src/system_stm32h7xx_dualcore_boot_cm4_cm7.o
 .debug_info    0x000000000000141c      0xb29 ./Core/Src/Application/threads_cm7.o
 .debug_info    0x0000000000001f45      0x666 ./Core/Src/app_threadx.o
 .debug_info    0x00000000000025ab      0xd94 ./Core/Src/main.o
 .debug_info    0x000000000000333f      0x4a4 ./Core/Src/stm32h7xx_hal_msp.o
 .debug_info    0x00000000000037e3       0xf8 ./Core/Src/stm32h7xx_it.o
 .debug_info    0x00000000000038db       0x26 ./Core/Src/tx_initialize_low_level.o
 .debug_info    0x0000000000003901       0x22 ./Core/Startup/startup_stm32h757xihx.o
 .debug_info    0x0000000000003923     0x1832 ./Drivers/STM32H7xx_HAL_Driver/stm32h7xx_hal.o
 .debug_info    0x0000000000005155     0x1197 ./Drivers/STM32H7xx_HAL_Driver/stm32h7xx_hal_cortex.o
 .debug_info    0x00000000000062ec      0xde0 ./Drivers/STM32H7xx_HAL_Driver/stm32h7xx_hal_gpio.o
 .debug_info    0x00000000000070cc      0x3fd ./Drivers/STM32H7xx_HAL_Driver/stm32h7xx_hal_hsem.o
 .debug_info    0x00000000000074c9     0x12c2 ./Drivers/STM32H7xx_HAL_Driver/stm32h7xx_hal_pwr_ex.o
 .debug_info    0x000000000000878b      0xf48 ./Drivers/STM32H7xx_HAL_Driver/stm32h7xx_hal_rcc.o
 .debug_info    0x00000000000096d3      0x478 ./Drivers/board/drv_dio.o
 .debug_info    0x0000000000009b4b      0x8cd ./Drivers/mcu/drv_gpio.o
 .debug_info    0x000000000000a418      0x5a8 ./FileX/App/app_filex.o
 .debug_info    0x000000000000a9c0     0x2e32 ./Middlewares/OSAL/cmsis_os2.o
 .debug_info    0x000000000000d7f2      0x7f6 ./Middlewares/ThreadX/RTOS/ThreadX/Core/tx_byte_allocate.o
 .debug_info    0x000000000000dfe8      0x701 ./Middlewares/ThreadX/RTOS/ThreadX/Core/tx_byte_pool_cleanup.o
 .debug_info    0x000000000000e6e9      0x718 ./Middlewares/ThreadX/RTOS/ThreadX/Core/tx_byte_pool_create.o
 .debug_info    0x000000000000ee01      0x7a8 ./Middlewares/ThreadX/RTOS/ThreadX/Core/tx_byte_pool_search.o
 .debug_info    0x000000000000f5a9      0x87e ./Middlewares/ThreadX/RTOS/ThreadX/Core/tx_byte_release.o
 .debug_info    0x000000000000fe27      0x97a ./Middlewares/ThreadX/RTOS/ThreadX/Core/tx_initialize_high_level.o
 .debug_info    0x00000000000107a1      0x106 ./Middlewares/ThreadX/RTOS/ThreadX/Core/tx_initialize_kernel_enter.o
 .debug_info    0x00000000000108a7       0xdc ./Middlewares/ThreadX/RTOS/ThreadX/Core/tx_initialize_kernel_setup.o
 .debug_info    0x0000000000010983      0x72b ./Middlewares/ThreadX/RTOS/ThreadX/Core/tx_mutex_cleanup.o
 .debug_info    0x00000000000110ae      0x614 ./Middlewares/ThreadX/RTOS/ThreadX/Core/tx_mutex_create.o
 .debug_info    0x00000000000116c2      0x6b5 ./Middlewares/ThreadX/RTOS/ThreadX/Core/tx_mutex_get.o
 .debug_info    0x0000000000011d77      0x679 ./Middlewares/ThreadX/RTOS/ThreadX/Core/tx_mutex_prioritize.o
 .debug_info    0x00000000000123f0      0x6b3 ./Middlewares/ThreadX/RTOS/ThreadX/Core/tx_mutex_priority_change.o
 .debug_info    0x0000000000012aa3      0x8ae ./Middlewares/ThreadX/RTOS/ThreadX/Core/tx_mutex_put.o
 .debug_info    0x0000000000013351      0x7ba ./Middlewares/ThreadX/RTOS/ThreadX/Core/tx_thread_create.o
 .debug_info    0x0000000000013b0b      0x699 ./Middlewares/ThreadX/RTOS/ThreadX/Core/tx_thread_initialize.o
 .debug_info    0x00000000000141a4       0x26 ./Middlewares/ThreadX/RTOS/ThreadX/Core/tx_thread_schedule.o
 .debug_info    0x00000000000141ca      0x62c ./Middlewares/ThreadX/RTOS/ThreadX/Core/tx_thread_shell_entry.o
 .debug_info    0x00000000000147f6      0x68d ./Middlewares/ThreadX/RTOS/ThreadX/Core/tx_thread_sleep.o
 .debug_info    0x0000000000014e83       0x26 ./Middlewares/ThreadX/RTOS/ThreadX/Core/tx_thread_stack_build.o
 .debug_info    0x0000000000014ea9      0x5de ./Middlewares/ThreadX/RTOS/ThreadX/Core/tx_thread_system_preempt_check.o
 .debug_info    0x0000000000015487      0x7da ./Middlewares/ThreadX/RTOS/ThreadX/Core/tx_thread_system_resume.o
 .debug_info    0x0000000000015c61      0x8a8 ./Middlewares/ThreadX/RTOS/ThreadX/Core/tx_thread_system_suspend.o
 .debug_info    0x0000000000016509      0x5a9 ./Middlewares/ThreadX/RTOS/ThreadX/Core/tx_thread_time_slice.o
 .debug_info    0x0000000000016ab2      0x5bc ./Middlewares/ThreadX/RTOS/ThreadX/Core/tx_thread_timeout.o
 .debug_info    0x000000000001706e      0x56f ./Middlewares/ThreadX/RTOS/ThreadX/Core/tx_timer_expiration_process.o
 .debug_info    0x00000000000175dd      0x753 ./Middlewares/ThreadX/RTOS/ThreadX/Core/tx_timer_initialize.o
 .debug_info    0x0000000000017d30       0x26 ./Middlewares/ThreadX/RTOS/ThreadX/Core/tx_timer_interrupt.o
 .debug_info    0x0000000000017d56      0x1d1 ./Middlewares/ThreadX/RTOS/ThreadX/Core/tx_timer_system_activate.o
 .debug_info    0x0000000000017f27      0x180 ./Middlewares/ThreadX/RTOS/ThreadX/Core/tx_timer_system_deactivate.o
 .debug_info    0x00000000000180a7      0x778 ./Middlewares/ThreadX/RTOS/ThreadX/Core/tx_timer_thread_entry.o
 .debug_info    0x000000000001881f      0x69b ./Middlewares/ThreadX/RTOS/ThreadX/Core/txe_byte_allocate.o
 .debug_info    0x0000000000018eba      0x7ed ./Middlewares/ThreadX/RTOS/ThreadX/Core/txe_byte_pool_create.o
 .debug_info    0x00000000000196a7      0x54c ./Middlewares/ThreadX/RTOS/ThreadX/Core/txe_byte_release.o
 .debug_info    0x0000000000019bf3      0x6fc ./Middlewares/ThreadX/RTOS/ThreadX/Core/txe_mutex_create.o
 .debug_info    0x000000000001a2ef      0x590 ./Middlewares/ThreadX/RTOS/ThreadX/Core/txe_mutex_get.o
 .debug_info    0x000000000001a87f      0x537 ./Middlewares/ThreadX/RTOS/ThreadX/Core/txe_mutex_put.o
 .debug_info    0x000000000001adb6      0x7ba ./Middlewares/ThreadX/RTOS/ThreadX/Core/txe_thread_create.o
 .debug_info    0x000000000001b570       0x90 ./Middlewares/deos_api/mw_board.o
 .debug_info    0x000000000001b600      0x2ce ./Middlewares/deos_api/mw_dio.o

.debug_abbrev   0x0000000000000000     0x5658
 .debug_abbrev  0x0000000000000000      0x109 ./AZURE_RTOS/App/app_azure_rtos.o
 .debug_abbrev  0x0000000000000109      0x147 ./Common/Src/system_stm32h7xx_dualcore_boot_cm4_cm7.o
 .debug_abbrev  0x0000000000000250      0x1d1 ./Core/Src/Application/threads_cm7.o
 .debug_abbrev  0x0000000000000421      0x168 ./Core/Src/app_threadx.o
 .debug_abbrev  0x0000000000000589      0x2be ./Core/Src/main.o
 .debug_abbrev  0x0000000000000847       0xda ./Core/Src/stm32h7xx_hal_msp.o
 .debug_abbrev  0x0000000000000921       0x47 ./Core/Src/stm32h7xx_it.o
 .debug_abbrev  0x0000000000000968       0x14 ./Core/Src/tx_initialize_low_level.o
 .debug_abbrev  0x000000000000097c       0x12 ./Core/Startup/startup_stm32h757xihx.o
 .debug_abbrev  0x000000000000098e      0x289 ./Drivers/STM32H7xx_HAL_Driver/stm32h7xx_hal.o
 .debug_abbrev  0x0000000000000c17      0x329 ./Drivers/STM32H7xx_HAL_Driver/stm32h7xx_hal_cortex.o
 .debug_abbrev  0x0000000000000f40      0x1ec ./Drivers/STM32H7xx_HAL_Driver/stm32h7xx_hal_gpio.o
 .debug_abbrev  0x000000000000112c      0x1d0 ./Drivers/STM32H7xx_HAL_Driver/stm32h7xx_hal_hsem.o
 .debug_abbrev  0x00000000000012fc      0x2bc ./Drivers/STM32H7xx_HAL_Driver/stm32h7xx_hal_pwr_ex.o
 .debug_abbrev  0x00000000000015b8      0x2b8 ./Drivers/STM32H7xx_HAL_Driver/stm32h7xx_hal_rcc.o
 .debug_abbrev  0x0000000000001870      0x1aa ./Drivers/board/drv_dio.o
 .debug_abbrev  0x0000000000001a1a      0x207 ./Drivers/mcu/drv_gpio.o
 .debug_abbrev  0x0000000000001c21       0xde ./FileX/App/app_filex.o
 .debug_abbrev  0x0000000000001cff      0x2e9 ./Middlewares/OSAL/cmsis_os2.o
 .debug_abbrev  0x0000000000001fe8      0x1ca ./Middlewares/ThreadX/RTOS/ThreadX/Core/tx_byte_allocate.o
 .debug_abbrev  0x00000000000021b2      0x19a ./Middlewares/ThreadX/RTOS/ThreadX/Core/tx_byte_pool_cleanup.o
 .debug_abbrev  0x000000000000234c      0x197 ./Middlewares/ThreadX/RTOS/ThreadX/Core/tx_byte_pool_create.o
 .debug_abbrev  0x00000000000024e3      0x182 ./Middlewares/ThreadX/RTOS/ThreadX/Core/tx_byte_pool_search.o
 .debug_abbrev  0x0000000000002665      0x1c8 ./Middlewares/ThreadX/RTOS/ThreadX/Core/tx_byte_release.o
 .debug_abbrev  0x000000000000282d      0x102 ./Middlewares/ThreadX/RTOS/ThreadX/Core/tx_initialize_high_level.o
 .debug_abbrev  0x000000000000292f       0xcc ./Middlewares/ThreadX/RTOS/ThreadX/Core/tx_initialize_kernel_enter.o
 .debug_abbrev  0x00000000000029fb       0x83 ./Middlewares/ThreadX/RTOS/ThreadX/Core/tx_initialize_kernel_setup.o
 .debug_abbrev  0x0000000000002a7e      0x202 ./Middlewares/ThreadX/RTOS/ThreadX/Core/tx_mutex_cleanup.o
 .debug_abbrev  0x0000000000002c80      0x1bf ./Middlewares/ThreadX/RTOS/ThreadX/Core/tx_mutex_create.o
 .debug_abbrev  0x0000000000002e3f      0x1b3 ./Middlewares/ThreadX/RTOS/ThreadX/Core/tx_mutex_get.o
 .debug_abbrev  0x0000000000002ff2      0x19a ./Middlewares/ThreadX/RTOS/ThreadX/Core/tx_mutex_prioritize.o
 .debug_abbrev  0x000000000000318c      0x19b ./Middlewares/ThreadX/RTOS/ThreadX/Core/tx_mutex_priority_change.o
 .debug_abbrev  0x0000000000003327      0x1dd ./Middlewares/ThreadX/RTOS/ThreadX/Core/tx_mutex_put.o
 .debug_abbrev  0x0000000000003504      0x1cf ./Middlewares/ThreadX/RTOS/ThreadX/Core/tx_thread_create.o
 .debug_abbrev  0x00000000000036d3      0x113 ./Middlewares/ThreadX/RTOS/ThreadX/Core/tx_thread_initialize.o
 .debug_abbrev  0x00000000000037e6       0x14 ./Middlewares/ThreadX/RTOS/ThreadX/Core/tx_thread_schedule.o
 .debug_abbrev  0x00000000000037fa      0x194 ./Middlewares/ThreadX/RTOS/ThreadX/Core/tx_thread_shell_entry.o
 .debug_abbrev  0x000000000000398e      0x1af ./Middlewares/ThreadX/RTOS/ThreadX/Core/tx_thread_sleep.o
 .debug_abbrev  0x0000000000003b3d       0x14 ./Middlewares/ThreadX/RTOS/ThreadX/Core/tx_thread_stack_build.o
 .debug_abbrev  0x0000000000003b51      0x196 ./Middlewares/ThreadX/RTOS/ThreadX/Core/tx_thread_system_preempt_check.o
 .debug_abbrev  0x0000000000003ce7      0x1e8 ./Middlewares/ThreadX/RTOS/ThreadX/Core/tx_thread_system_resume.o
 .debug_abbrev  0x0000000000003ecf      0x1e3 ./Middlewares/ThreadX/RTOS/ThreadX/Core/tx_thread_system_suspend.o
 .debug_abbrev  0x00000000000040b2      0x192 ./Middlewares/ThreadX/RTOS/ThreadX/Core/tx_thread_time_slice.o
 .debug_abbrev  0x0000000000004244      0x19a ./Middlewares/ThreadX/RTOS/ThreadX/Core/tx_thread_timeout.o
 .debug_abbrev  0x00000000000043de      0x19c ./Middlewares/ThreadX/RTOS/ThreadX/Core/tx_timer_expiration_process.o
 .debug_abbrev  0x000000000000457a      0x136 ./Middlewares/ThreadX/RTOS/ThreadX/Core/tx_timer_initialize.o
 .debug_abbrev  0x00000000000046b0       0x14 ./Middlewares/ThreadX/RTOS/ThreadX/Core/tx_timer_interrupt.o
 .debug_abbrev  0x00000000000046c4       0xd5 ./Middlewares/ThreadX/RTOS/ThreadX/Core/tx_timer_system_activate.o
 .debug_abbrev  0x0000000000004799       0xc2 ./Middlewares/ThreadX/RTOS/ThreadX/Core/tx_timer_system_deactivate.o
 .debug_abbrev  0x000000000000485b      0x1c4 ./Middlewares/ThreadX/RTOS/ThreadX/Core/tx_timer_thread_entry.o
 .debug_abbrev  0x0000000000004a1f      0x160 ./Middlewares/ThreadX/RTOS/ThreadX/Core/txe_byte_allocate.o
 .debug_abbrev  0x0000000000004b7f      0x1d5 ./Middlewares/ThreadX/RTOS/ThreadX/Core/txe_byte_pool_create.o
 .debug_abbrev  0x0000000000004d54      0x160 ./Middlewares/ThreadX/RTOS/ThreadX/Core/txe_byte_release.o
 .debug_abbrev  0x0000000000004eb4      0x1d5 ./Middlewares/ThreadX/RTOS/ThreadX/Core/txe_mutex_create.o
 .debug_abbrev  0x0000000000005089      0x160 ./Middlewares/ThreadX/RTOS/ThreadX/Core/txe_mutex_get.o
 .debug_abbrev  0x00000000000051e9      0x14d ./Middlewares/ThreadX/RTOS/ThreadX/Core/txe_mutex_put.o
 .debug_abbrev  0x0000000000005336      0x1d7 ./Middlewares/ThreadX/RTOS/ThreadX/Core/txe_thread_create.o
 .debug_abbrev  0x000000000000550d       0x5d ./Middlewares/deos_api/mw_board.o
 .debug_abbrev  0x000000000000556a       0xee ./Middlewares/deos_api/mw_dio.o

.debug_aranges  0x0000000000000000      0xf90
 .debug_aranges
                0x0000000000000000       0x20 ./AZURE_RTOS/App/app_azure_rtos.o
 .debug_aranges
                0x0000000000000020       0x28 ./Common/Src/system_stm32h7xx_dualcore_boot_cm4_cm7.o
 .debug_aranges
                0x0000000000000048       0x38 ./Core/Src/Application/threads_cm7.o
 .debug_aranges
                0x0000000000000080       0x28 ./Core/Src/app_threadx.o
 .debug_aranges
                0x00000000000000a8       0x48 ./Core/Src/main.o
 .debug_aranges
                0x00000000000000f0       0x20 ./Core/Src/stm32h7xx_hal_msp.o
 .debug_aranges
                0x0000000000000110       0x48 ./Core/Src/stm32h7xx_it.o
 .debug_aranges
                0x0000000000000158       0x20 ./Core/Src/tx_initialize_low_level.o
 .debug_aranges
                0x0000000000000178       0x28 ./Core/Startup/startup_stm32h757xihx.o
 .debug_aranges
                0x00000000000001a0      0x200 ./Drivers/STM32H7xx_HAL_Driver/stm32h7xx_hal.o
 .debug_aranges
                0x00000000000003a0      0x120 ./Drivers/STM32H7xx_HAL_Driver/stm32h7xx_hal_cortex.o
 .debug_aranges
                0x00000000000004c0       0x58 ./Drivers/STM32H7xx_HAL_Driver/stm32h7xx_hal_gpio.o
 .debug_aranges
                0x0000000000000518       0x70 ./Drivers/STM32H7xx_HAL_Driver/stm32h7xx_hal_hsem.o
 .debug_aranges
                0x0000000000000588      0x170 ./Drivers/STM32H7xx_HAL_Driver/stm32h7xx_hal_pwr_ex.o
 .debug_aranges
                0x00000000000006f8       0x88 ./Drivers/STM32H7xx_HAL_Driver/stm32h7xx_hal_rcc.o
 .debug_aranges
                0x0000000000000780       0x50 ./Drivers/board/drv_dio.o
 .debug_aranges
                0x00000000000007d0       0x50 ./Drivers/mcu/drv_gpio.o
 .debug_aranges
                0x0000000000000820       0x20 ./FileX/App/app_filex.o
 .debug_aranges
                0x0000000000000840      0x220 ./Middlewares/OSAL/cmsis_os2.o
 .debug_aranges
                0x0000000000000a60       0x20 ./Middlewares/ThreadX/RTOS/ThreadX/Core/tx_byte_allocate.o
 .debug_aranges
                0x0000000000000a80       0x20 ./Middlewares/ThreadX/RTOS/ThreadX/Core/tx_byte_pool_cleanup.o
 .debug_aranges
                0x0000000000000aa0       0x20 ./Middlewares/ThreadX/RTOS/ThreadX/Core/tx_byte_pool_create.o
 .debug_aranges
                0x0000000000000ac0       0x20 ./Middlewares/ThreadX/RTOS/ThreadX/Core/tx_byte_pool_search.o
 .debug_aranges
                0x0000000000000ae0       0x20 ./Middlewares/ThreadX/RTOS/ThreadX/Core/tx_byte_release.o
 .debug_aranges
                0x0000000000000b00       0x20 ./Middlewares/ThreadX/RTOS/ThreadX/Core/tx_initialize_high_level.o
 .debug_aranges
                0x0000000000000b20       0x20 ./Middlewares/ThreadX/RTOS/ThreadX/Core/tx_initialize_kernel_enter.o
 .debug_aranges
                0x0000000000000b40       0x20 ./Middlewares/ThreadX/RTOS/ThreadX/Core/tx_initialize_kernel_setup.o
 .debug_aranges
                0x0000000000000b60       0x28 ./Middlewares/ThreadX/RTOS/ThreadX/Core/tx_mutex_cleanup.o
 .debug_aranges
                0x0000000000000b88       0x20 ./Middlewares/ThreadX/RTOS/ThreadX/Core/tx_mutex_create.o
 .debug_aranges
                0x0000000000000ba8       0x20 ./Middlewares/ThreadX/RTOS/ThreadX/Core/tx_mutex_get.o
 .debug_aranges
                0x0000000000000bc8       0x20 ./Middlewares/ThreadX/RTOS/ThreadX/Core/tx_mutex_prioritize.o
 .debug_aranges
                0x0000000000000be8       0x20 ./Middlewares/ThreadX/RTOS/ThreadX/Core/tx_mutex_priority_change.o
 .debug_aranges
                0x0000000000000c08       0x20 ./Middlewares/ThreadX/RTOS/ThreadX/Core/tx_mutex_put.o
 .debug_aranges
                0x0000000000000c28       0x20 ./Middlewares/ThreadX/RTOS/ThreadX/Core/tx_thread_create.o
 .debug_aranges
                0x0000000000000c48       0x20 ./Middlewares/ThreadX/RTOS/ThreadX/Core/tx_thread_initialize.o
 .debug_aranges
                0x0000000000000c68       0x20 ./Middlewares/ThreadX/RTOS/ThreadX/Core/tx_thread_schedule.o
 .debug_aranges
                0x0000000000000c88       0x20 ./Middlewares/ThreadX/RTOS/ThreadX/Core/tx_thread_shell_entry.o
 .debug_aranges
                0x0000000000000ca8       0x20 ./Middlewares/ThreadX/RTOS/ThreadX/Core/tx_thread_sleep.o
 .debug_aranges
                0x0000000000000cc8       0x20 ./Middlewares/ThreadX/RTOS/ThreadX/Core/tx_thread_stack_build.o
 .debug_aranges
                0x0000000000000ce8       0x20 ./Middlewares/ThreadX/RTOS/ThreadX/Core/tx_thread_system_preempt_check.o
 .debug_aranges
                0x0000000000000d08       0x20 ./Middlewares/ThreadX/RTOS/ThreadX/Core/tx_thread_system_resume.o
 .debug_aranges
                0x0000000000000d28       0x20 ./Middlewares/ThreadX/RTOS/ThreadX/Core/tx_thread_system_suspend.o
 .debug_aranges
                0x0000000000000d48       0x20 ./Middlewares/ThreadX/RTOS/ThreadX/Core/tx_thread_time_slice.o
 .debug_aranges
                0x0000000000000d68       0x20 ./Middlewares/ThreadX/RTOS/ThreadX/Core/tx_thread_timeout.o
 .debug_aranges
                0x0000000000000d88       0x20 ./Middlewares/ThreadX/RTOS/ThreadX/Core/tx_timer_expiration_process.o
 .debug_aranges
                0x0000000000000da8       0x20 ./Middlewares/ThreadX/RTOS/ThreadX/Core/tx_timer_initialize.o
 .debug_aranges
                0x0000000000000dc8       0x20 ./Middlewares/ThreadX/RTOS/ThreadX/Core/tx_timer_interrupt.o
 .debug_aranges
                0x0000000000000de8       0x20 ./Middlewares/ThreadX/RTOS/ThreadX/Core/tx_timer_system_activate.o
 .debug_aranges
                0x0000000000000e08       0x20 ./Middlewares/ThreadX/RTOS/ThreadX/Core/tx_timer_system_deactivate.o
 .debug_aranges
                0x0000000000000e28       0x20 ./Middlewares/ThreadX/RTOS/ThreadX/Core/tx_timer_thread_entry.o
 .debug_aranges
                0x0000000000000e48       0x20 ./Middlewares/ThreadX/RTOS/ThreadX/Core/txe_byte_allocate.o
 .debug_aranges
                0x0000000000000e68       0x20 ./Middlewares/ThreadX/RTOS/ThreadX/Core/txe_byte_pool_create.o
 .debug_aranges
                0x0000000000000e88       0x20 ./Middlewares/ThreadX/RTOS/ThreadX/Core/txe_byte_release.o
 .debug_aranges
                0x0000000000000ea8       0x20 ./Middlewares/ThreadX/RTOS/ThreadX/Core/txe_mutex_create.o
 .debug_aranges
                0x0000000000000ec8       0x20 ./Middlewares/ThreadX/RTOS/ThreadX/Core/txe_mutex_get.o
 .debug_aranges
                0x0000000000000ee8       0x20 ./Middlewares/ThreadX/RTOS/ThreadX/Core/txe_mutex_put.o
 .debug_aranges
                0x0000000000000f08       0x20 ./Middlewares/ThreadX/RTOS/ThreadX/Core/txe_thread_create.o
 .debug_aranges
                0x0000000000000f28       0x20 ./Middlewares/deos_api/mw_board.o
 .debug_aranges
                0x0000000000000f48       0x48 ./Middlewares/deos_api/mw_dio.o

.debug_ranges   0x0000000000000000      0xbc0
 .debug_ranges  0x0000000000000000       0x10 ./AZURE_RTOS/App/app_azure_rtos.o
 .debug_ranges  0x0000000000000010       0x18 ./Common/Src/system_stm32h7xx_dualcore_boot_cm4_cm7.o
 .debug_ranges  0x0000000000000028       0x28 ./Core/Src/Application/threads_cm7.o
 .debug_ranges  0x0000000000000050       0x18 ./Core/Src/app_threadx.o
 .debug_ranges  0x0000000000000068       0x38 ./Core/Src/main.o
 .debug_ranges  0x00000000000000a0       0x10 ./Core/Src/stm32h7xx_hal_msp.o
 .debug_ranges  0x00000000000000b0       0x38 ./Core/Src/stm32h7xx_it.o
 .debug_ranges  0x00000000000000e8       0x20 ./Core/Startup/startup_stm32h757xihx.o
 .debug_ranges  0x0000000000000108      0x1f0 ./Drivers/STM32H7xx_HAL_Driver/stm32h7xx_hal.o
 .debug_ranges  0x00000000000002f8      0x110 ./Drivers/STM32H7xx_HAL_Driver/stm32h7xx_hal_cortex.o
 .debug_ranges  0x0000000000000408       0x48 ./Drivers/STM32H7xx_HAL_Driver/stm32h7xx_hal_gpio.o
 .debug_ranges  0x0000000000000450       0x60 ./Drivers/STM32H7xx_HAL_Driver/stm32h7xx_hal_hsem.o
 .debug_ranges  0x00000000000004b0      0x160 ./Drivers/STM32H7xx_HAL_Driver/stm32h7xx_hal_pwr_ex.o
 .debug_ranges  0x0000000000000610       0x78 ./Drivers/STM32H7xx_HAL_Driver/stm32h7xx_hal_rcc.o
 .debug_ranges  0x0000000000000688       0x40 ./Drivers/board/drv_dio.o
 .debug_ranges  0x00000000000006c8       0x40 ./Drivers/mcu/drv_gpio.o
 .debug_ranges  0x0000000000000708       0x10 ./FileX/App/app_filex.o
 .debug_ranges  0x0000000000000718      0x210 ./Middlewares/OSAL/cmsis_os2.o
 .debug_ranges  0x0000000000000928       0x10 ./Middlewares/ThreadX/RTOS/ThreadX/Core/tx_byte_allocate.o
 .debug_ranges  0x0000000000000938       0x10 ./Middlewares/ThreadX/RTOS/ThreadX/Core/tx_byte_pool_cleanup.o
 .debug_ranges  0x0000000000000948       0x10 ./Middlewares/ThreadX/RTOS/ThreadX/Core/tx_byte_pool_create.o
 .debug_ranges  0x0000000000000958       0x10 ./Middlewares/ThreadX/RTOS/ThreadX/Core/tx_byte_pool_search.o
 .debug_ranges  0x0000000000000968       0x10 ./Middlewares/ThreadX/RTOS/ThreadX/Core/tx_byte_release.o
 .debug_ranges  0x0000000000000978       0x10 ./Middlewares/ThreadX/RTOS/ThreadX/Core/tx_initialize_high_level.o
 .debug_ranges  0x0000000000000988       0x10 ./Middlewares/ThreadX/RTOS/ThreadX/Core/tx_initialize_kernel_enter.o
 .debug_ranges  0x0000000000000998       0x10 ./Middlewares/ThreadX/RTOS/ThreadX/Core/tx_initialize_kernel_setup.o
 .debug_ranges  0x00000000000009a8       0x18 ./Middlewares/ThreadX/RTOS/ThreadX/Core/tx_mutex_cleanup.o
 .debug_ranges  0x00000000000009c0       0x10 ./Middlewares/ThreadX/RTOS/ThreadX/Core/tx_mutex_create.o
 .debug_ranges  0x00000000000009d0       0x10 ./Middlewares/ThreadX/RTOS/ThreadX/Core/tx_mutex_get.o
 .debug_ranges  0x00000000000009e0       0x10 ./Middlewares/ThreadX/RTOS/ThreadX/Core/tx_mutex_prioritize.o
 .debug_ranges  0x00000000000009f0       0x10 ./Middlewares/ThreadX/RTOS/ThreadX/Core/tx_mutex_priority_change.o
 .debug_ranges  0x0000000000000a00       0x10 ./Middlewares/ThreadX/RTOS/ThreadX/Core/tx_mutex_put.o
 .debug_ranges  0x0000000000000a10       0x10 ./Middlewares/ThreadX/RTOS/ThreadX/Core/tx_thread_create.o
 .debug_ranges  0x0000000000000a20       0x10 ./Middlewares/ThreadX/RTOS/ThreadX/Core/tx_thread_initialize.o
 .debug_ranges  0x0000000000000a30       0x10 ./Middlewares/ThreadX/RTOS/ThreadX/Core/tx_thread_shell_entry.o
 .debug_ranges  0x0000000000000a40       0x10 ./Middlewares/ThreadX/RTOS/ThreadX/Core/tx_thread_sleep.o
 .debug_ranges  0x0000000000000a50       0x10 ./Middlewares/ThreadX/RTOS/ThreadX/Core/tx_thread_system_preempt_check.o
 .debug_ranges  0x0000000000000a60       0x28 ./Middlewares/ThreadX/RTOS/ThreadX/Core/tx_thread_system_resume.o
 .debug_ranges  0x0000000000000a88       0x10 ./Middlewares/ThreadX/RTOS/ThreadX/Core/tx_thread_system_suspend.o
 .debug_ranges  0x0000000000000a98       0x10 ./Middlewares/ThreadX/RTOS/ThreadX/Core/tx_thread_time_slice.o
 .debug_ranges  0x0000000000000aa8       0x10 ./Middlewares/ThreadX/RTOS/ThreadX/Core/tx_thread_timeout.o
 .debug_ranges  0x0000000000000ab8       0x10 ./Middlewares/ThreadX/RTOS/ThreadX/Core/tx_timer_expiration_process.o
 .debug_ranges  0x0000000000000ac8       0x10 ./Middlewares/ThreadX/RTOS/ThreadX/Core/tx_timer_initialize.o
 .debug_ranges  0x0000000000000ad8       0x10 ./Middlewares/ThreadX/RTOS/ThreadX/Core/tx_timer_system_activate.o
 .debug_ranges  0x0000000000000ae8       0x10 ./Middlewares/ThreadX/RTOS/ThreadX/Core/tx_timer_system_deactivate.o
 .debug_ranges  0x0000000000000af8       0x10 ./Middlewares/ThreadX/RTOS/ThreadX/Core/tx_timer_thread_entry.o
 .debug_ranges  0x0000000000000b08       0x10 ./Middlewares/ThreadX/RTOS/ThreadX/Core/txe_byte_allocate.o
 .debug_ranges  0x0000000000000b18       0x10 ./Middlewares/ThreadX/RTOS/ThreadX/Core/txe_byte_pool_create.o
 .debug_ranges  0x0000000000000b28       0x10 ./Middlewares/ThreadX/RTOS/ThreadX/Core/txe_byte_release.o
 .debug_ranges  0x0000000000000b38       0x10 ./Middlewares/ThreadX/RTOS/ThreadX/Core/txe_mutex_create.o
 .debug_ranges  0x0000000000000b48       0x10 ./Middlewares/ThreadX/RTOS/ThreadX/Core/txe_mutex_get.o
 .debug_ranges  0x0000000000000b58       0x10 ./Middlewares/ThreadX/RTOS/ThreadX/Core/txe_mutex_put.o
 .debug_ranges  0x0000000000000b68       0x10 ./Middlewares/ThreadX/RTOS/ThreadX/Core/txe_thread_create.o
 .debug_ranges  0x0000000000000b78       0x10 ./Middlewares/deos_api/mw_board.o
 .debug_ranges  0x0000000000000b88       0x38 ./Middlewares/deos_api/mw_dio.o

.debug_macro    0x0000000000000000    0x43753
 .debug_macro   0x0000000000000000      0x1a8 ./AZURE_RTOS/App/app_azure_rtos.o
 .debug_macro   0x00000000000001a8      0xaa2 ./AZURE_RTOS/App/app_azure_rtos.o
 .debug_macro   0x0000000000000c4a       0x16 ./AZURE_RTOS/App/app_azure_rtos.o
 .debug_macro   0x0000000000000c60       0x23 ./AZURE_RTOS/App/app_azure_rtos.o
 .debug_macro   0x0000000000000c83       0x1d ./AZURE_RTOS/App/app_azure_rtos.o
 .debug_macro   0x0000000000000ca0       0x22 ./AZURE_RTOS/App/app_azure_rtos.o
 .debug_macro   0x0000000000000cc2       0x4c ./AZURE_RTOS/App/app_azure_rtos.o
 .debug_macro   0x0000000000000d0e       0x94 ./AZURE_RTOS/App/app_azure_rtos.o
 .debug_macro   0x0000000000000da2       0x3c ./AZURE_RTOS/App/app_azure_rtos.o
 .debug_macro   0x0000000000000dde       0x34 ./AZURE_RTOS/App/app_azure_rtos.o
 .debug_macro   0x0000000000000e12       0x16 ./AZURE_RTOS/App/app_azure_rtos.o
 .debug_macro   0x0000000000000e28      0x10e ./AZURE_RTOS/App/app_azure_rtos.o
 .debug_macro   0x0000000000000f36       0x8d ./AZURE_RTOS/App/app_azure_rtos.o
 .debug_macro   0x0000000000000fc3       0x16 ./AZURE_RTOS/App/app_azure_rtos.o
 .debug_macro   0x0000000000000fd9       0x43 ./AZURE_RTOS/App/app_azure_rtos.o
 .debug_macro   0x000000000000101c       0x57 ./AZURE_RTOS/App/app_azure_rtos.o
 .debug_macro   0x0000000000001073       0x34 ./AZURE_RTOS/App/app_azure_rtos.o
 .debug_macro   0x00000000000010a7       0x10 ./AZURE_RTOS/App/app_azure_rtos.o
 .debug_macro   0x00000000000010b7       0x58 ./AZURE_RTOS/App/app_azure_rtos.o
 .debug_macro   0x000000000000110f       0x71 ./AZURE_RTOS/App/app_azure_rtos.o
 .debug_macro   0x0000000000001180       0x1c ./AZURE_RTOS/App/app_azure_rtos.o
 .debug_macro   0x000000000000119c      0x12a ./AZURE_RTOS/App/app_azure_rtos.o
 .debug_macro   0x00000000000012c6      0x341 ./AZURE_RTOS/App/app_azure_rtos.o
 .debug_macro   0x0000000000001607       0x16 ./AZURE_RTOS/App/app_azure_rtos.o
 .debug_macro   0x000000000000161d       0x29 ./AZURE_RTOS/App/app_azure_rtos.o
 .debug_macro   0x0000000000001646       0x16 ./AZURE_RTOS/App/app_azure_rtos.o
 .debug_macro   0x000000000000165c       0x35 ./AZURE_RTOS/App/app_azure_rtos.o
 .debug_macro   0x0000000000001691       0x20 ./AZURE_RTOS/App/app_azure_rtos.o
 .debug_macro   0x00000000000016b1      0x158 ./AZURE_RTOS/App/app_azure_rtos.o
 .debug_macro   0x0000000000001809      0x91b ./AZURE_RTOS/App/app_azure_rtos.o
 .debug_macro   0x0000000000002124       0x10 ./AZURE_RTOS/App/app_azure_rtos.o
 .debug_macro   0x0000000000002134       0x41 ./AZURE_RTOS/App/app_azure_rtos.o
 .debug_macro   0x0000000000002175      0x75a ./AZURE_RTOS/App/app_azure_rtos.o
 .debug_macro   0x00000000000028cf      0x286 ./Common/Src/system_stm32h7xx_dualcore_boot_cm4_cm7.o
 .debug_macro   0x0000000000002b55       0x2e ./Common/Src/system_stm32h7xx_dualcore_boot_cm4_cm7.o
 .debug_macro   0x0000000000002b83       0x49 ./Common/Src/system_stm32h7xx_dualcore_boot_cm4_cm7.o
 .debug_macro   0x0000000000002bcc       0x8e ./Common/Src/system_stm32h7xx_dualcore_boot_cm4_cm7.o
 .debug_macro   0x0000000000002c5a       0x51 ./Common/Src/system_stm32h7xx_dualcore_boot_cm4_cm7.o
 .debug_macro   0x0000000000002cab      0x103 ./Common/Src/system_stm32h7xx_dualcore_boot_cm4_cm7.o
 .debug_macro   0x0000000000002dae       0x6a ./Common/Src/system_stm32h7xx_dualcore_boot_cm4_cm7.o
 .debug_macro   0x0000000000002e18      0x1df ./Common/Src/system_stm32h7xx_dualcore_boot_cm4_cm7.o
 .debug_macro   0x0000000000002ff7       0x1c ./Common/Src/system_stm32h7xx_dualcore_boot_cm4_cm7.o
 .debug_macro   0x0000000000003013       0x22 ./Common/Src/system_stm32h7xx_dualcore_boot_cm4_cm7.o
 .debug_macro   0x0000000000003035       0xfb ./Common/Src/system_stm32h7xx_dualcore_boot_cm4_cm7.o
 .debug_macro   0x0000000000003130     0x1305 ./Common/Src/system_stm32h7xx_dualcore_boot_cm4_cm7.o
 .debug_macro   0x0000000000004435      0x11f ./Common/Src/system_stm32h7xx_dualcore_boot_cm4_cm7.o
 .debug_macro   0x0000000000004554       0x27 ./Common/Src/system_stm32h7xx_dualcore_boot_cm4_cm7.o
 .debug_macro   0x000000000000457b    0x2cd30 ./Common/Src/system_stm32h7xx_dualcore_boot_cm4_cm7.o
 .debug_macro   0x00000000000312ab       0x6d ./Common/Src/system_stm32h7xx_dualcore_boot_cm4_cm7.o
 .debug_macro   0x0000000000031318      0x22c ./Common/Src/system_stm32h7xx_dualcore_boot_cm4_cm7.o
 .debug_macro   0x0000000000031544     0x3d1e ./Common/Src/system_stm32h7xx_dualcore_boot_cm4_cm7.o
 .debug_macro   0x0000000000035262      0x174 ./Common/Src/system_stm32h7xx_dualcore_boot_cm4_cm7.o
 .debug_macro   0x00000000000353d6       0x52 ./Common/Src/system_stm32h7xx_dualcore_boot_cm4_cm7.o
 .debug_macro   0x0000000000035428      0x19b ./Common/Src/system_stm32h7xx_dualcore_boot_cm4_cm7.o
 .debug_macro   0x00000000000355c3       0x5d ./Common/Src/system_stm32h7xx_dualcore_boot_cm4_cm7.o
 .debug_macro   0x0000000000035620     0x3bdf ./Common/Src/system_stm32h7xx_dualcore_boot_cm4_cm7.o
 .debug_macro   0x00000000000391ff     0x106b ./Common/Src/system_stm32h7xx_dualcore_boot_cm4_cm7.o
 .debug_macro   0x000000000003a26a      0x14d ./Common/Src/system_stm32h7xx_dualcore_boot_cm4_cm7.o
 .debug_macro   0x000000000003a3b7      0x130 ./Common/Src/system_stm32h7xx_dualcore_boot_cm4_cm7.o
 .debug_macro   0x000000000003a4e7      0x3c5 ./Common/Src/system_stm32h7xx_dualcore_boot_cm4_cm7.o
 .debug_macro   0x000000000003a8ac       0xac ./Common/Src/system_stm32h7xx_dualcore_boot_cm4_cm7.o
 .debug_macro   0x000000000003a958      0x72d ./Common/Src/system_stm32h7xx_dualcore_boot_cm4_cm7.o
 .debug_macro   0x000000000003b085      0x228 ./Common/Src/system_stm32h7xx_dualcore_boot_cm4_cm7.o
 .debug_macro   0x000000000003b2ad       0x66 ./Common/Src/system_stm32h7xx_dualcore_boot_cm4_cm7.o
 .debug_macro   0x000000000003b313      0x3c9 ./Common/Src/system_stm32h7xx_dualcore_boot_cm4_cm7.o
 .debug_macro   0x000000000003b6dc      0x407 ./Common/Src/system_stm32h7xx_dualcore_boot_cm4_cm7.o
 .debug_macro   0x000000000003bae3      0x27c ./Common/Src/system_stm32h7xx_dualcore_boot_cm4_cm7.o
 .debug_macro   0x000000000003bd5f      0x3ca ./Common/Src/system_stm32h7xx_dualcore_boot_cm4_cm7.o
 .debug_macro   0x000000000003c129      0x4a2 ./Common/Src/system_stm32h7xx_dualcore_boot_cm4_cm7.o
 .debug_macro   0x000000000003c5cb       0x51 ./Common/Src/system_stm32h7xx_dualcore_boot_cm4_cm7.o
 .debug_macro   0x000000000003c61c       0x4a ./Common/Src/system_stm32h7xx_dualcore_boot_cm4_cm7.o
 .debug_macro   0x000000000003c666      0x22c ./Common/Src/system_stm32h7xx_dualcore_boot_cm4_cm7.o
 .debug_macro   0x000000000003c892       0x67 ./Common/Src/system_stm32h7xx_dualcore_boot_cm4_cm7.o
 .debug_macro   0x000000000003c8f9       0xa5 ./Common/Src/system_stm32h7xx_dualcore_boot_cm4_cm7.o
 .debug_macro   0x000000000003c99e      0x218 ./Common/Src/system_stm32h7xx_dualcore_boot_cm4_cm7.o
 .debug_macro   0x000000000003cbb6      0x2ea ./Common/Src/system_stm32h7xx_dualcore_boot_cm4_cm7.o
 .debug_macro   0x000000000003cea0       0x35 ./Common/Src/system_stm32h7xx_dualcore_boot_cm4_cm7.o
 .debug_macro   0x000000000003ced5      0x798 ./Common/Src/system_stm32h7xx_dualcore_boot_cm4_cm7.o
 .debug_macro   0x000000000003d66d      0x1d2 ./Core/Src/Application/threads_cm7.o
 .debug_macro   0x000000000003d83f       0x22 ./Core/Src/Application/threads_cm7.o
 .debug_macro   0x000000000003d861       0x10 ./Core/Src/Application/threads_cm7.o
 .debug_macro   0x000000000003d871       0x74 ./Core/Src/Application/threads_cm7.o
 .debug_macro   0x000000000003d8e5      0x1a1 ./Core/Src/app_threadx.o
 .debug_macro   0x000000000003da86      0x3e6 ./Core/Src/main.o
 .debug_macro   0x000000000003de6c       0x1c ./Core/Src/main.o
 .debug_macro   0x000000000003de88       0x10 ./Core/Src/main.o
 .debug_macro   0x000000000003de98       0x10 ./Core/Src/main.o
 .debug_macro   0x000000000003dea8       0x1c ./Core/Src/main.o
 .debug_macro   0x000000000003dec4       0x52 ./Core/Src/main.o
 .debug_macro   0x000000000003df16       0x22 ./Core/Src/main.o
 .debug_macro   0x000000000003df38       0x10 ./Core/Src/main.o
 .debug_macro   0x000000000003df48       0x52 ./Core/Src/main.o
 .debug_macro   0x000000000003df9a       0xd5 ./Core/Src/main.o
 .debug_macro   0x000000000003e06f       0x1c ./Core/Src/main.o
 .debug_macro   0x000000000003e08b       0x3d ./Core/Src/main.o
 .debug_macro   0x000000000003e0c8       0x16 ./Core/Src/main.o
 .debug_macro   0x000000000003e0de      0x145 ./Core/Src/main.o
 .debug_macro   0x000000000003e223      0x28a ./Core/Src/stm32h7xx_hal_msp.o
 .debug_macro   0x000000000003e4ad      0x294 ./Core/Src/stm32h7xx_it.o
 .debug_macro   0x000000000003e741      0x2aa ./Drivers/STM32H7xx_HAL_Driver/stm32h7xx_hal.o
 .debug_macro   0x000000000003e9eb      0x280 ./Drivers/STM32H7xx_HAL_Driver/stm32h7xx_hal_cortex.o
 .debug_macro   0x000000000003ec6b      0x294 ./Drivers/STM32H7xx_HAL_Driver/stm32h7xx_hal_gpio.o
 .debug_macro   0x000000000003eeff      0x292 ./Drivers/STM32H7xx_HAL_Driver/stm32h7xx_hal_hsem.o
 .debug_macro   0x000000000003f191      0x2b9 ./Drivers/STM32H7xx_HAL_Driver/stm32h7xx_hal_pwr_ex.o
 .debug_macro   0x000000000003f44a      0x2a4 ./Drivers/STM32H7xx_HAL_Driver/stm32h7xx_hal_rcc.o
 .debug_macro   0x000000000003f6ee       0xaa ./Drivers/board/drv_dio.o
 .debug_macro   0x000000000003f798      0x100 ./Drivers/board/drv_dio.o
 .debug_macro   0x000000000003f898      0x29c ./Drivers/mcu/drv_gpio.o
 .debug_macro   0x000000000003fb34      0x18b ./FileX/App/app_filex.o
 .debug_macro   0x000000000003fcbf      0x234 ./Middlewares/OSAL/cmsis_os2.o
 .debug_macro   0x000000000003fef3       0x10 ./Middlewares/OSAL/cmsis_os2.o
 .debug_macro   0x000000000003ff03       0xf5 ./Middlewares/OSAL/cmsis_os2.o
 .debug_macro   0x000000000003fff8       0x34 ./Middlewares/OSAL/cmsis_os2.o
 .debug_macro   0x000000000004002c       0x71 ./Middlewares/OSAL/cmsis_os2.o
 .debug_macro   0x000000000004009d       0x23 ./Middlewares/OSAL/cmsis_os2.o
 .debug_macro   0x00000000000400c0       0x2f ./Middlewares/OSAL/cmsis_os2.o
 .debug_macro   0x00000000000400ef       0x29 ./Middlewares/OSAL/cmsis_os2.o
 .debug_macro   0x0000000000040118       0x1d ./Middlewares/OSAL/cmsis_os2.o
 .debug_macro   0x0000000000040135       0x1d ./Middlewares/OSAL/cmsis_os2.o
 .debug_macro   0x0000000000040152       0x23 ./Middlewares/OSAL/cmsis_os2.o
 .debug_macro   0x0000000000040175      0x172 ./Middlewares/ThreadX/RTOS/ThreadX/Core/tx_byte_allocate.o
 .debug_macro   0x00000000000402e7      0x172 ./Middlewares/ThreadX/RTOS/ThreadX/Core/tx_byte_pool_cleanup.o
 .debug_macro   0x0000000000040459      0x172 ./Middlewares/ThreadX/RTOS/ThreadX/Core/tx_byte_pool_create.o
 .debug_macro   0x00000000000405cb      0x172 ./Middlewares/ThreadX/RTOS/ThreadX/Core/tx_byte_pool_search.o
 .debug_macro   0x000000000004073d      0x17b ./Middlewares/ThreadX/RTOS/ThreadX/Core/tx_byte_release.o
 .debug_macro   0x00000000000408b8      0x1c0 ./Middlewares/ThreadX/RTOS/ThreadX/Core/tx_initialize_high_level.o
 .debug_macro   0x0000000000040a78       0x29 ./Middlewares/ThreadX/RTOS/ThreadX/Core/tx_initialize_high_level.o
 .debug_macro   0x0000000000040aa1       0x2f ./Middlewares/ThreadX/RTOS/ThreadX/Core/tx_initialize_high_level.o
 .debug_macro   0x0000000000040ad0       0x35 ./Middlewares/ThreadX/RTOS/ThreadX/Core/tx_initialize_high_level.o
 .debug_macro   0x0000000000040b05       0x29 ./Middlewares/ThreadX/RTOS/ThreadX/Core/tx_initialize_high_level.o
 .debug_macro   0x0000000000040b2e       0x29 ./Middlewares/ThreadX/RTOS/ThreadX/Core/tx_initialize_high_level.o
 .debug_macro   0x0000000000040b57       0x3b ./Middlewares/ThreadX/RTOS/ThreadX/Core/tx_initialize_high_level.o
 .debug_macro   0x0000000000040b92      0x17b ./Middlewares/ThreadX/RTOS/ThreadX/Core/tx_initialize_kernel_enter.o
 .debug_macro   0x0000000000040d0d      0x172 ./Middlewares/ThreadX/RTOS/ThreadX/Core/tx_initialize_kernel_setup.o
 .debug_macro   0x0000000000040e7f      0x172 ./Middlewares/ThreadX/RTOS/ThreadX/Core/tx_mutex_cleanup.o
 .debug_macro   0x0000000000040ff1      0x17b ./Middlewares/ThreadX/RTOS/ThreadX/Core/tx_mutex_create.o
 .debug_macro   0x000000000004116c      0x17b ./Middlewares/ThreadX/RTOS/ThreadX/Core/tx_mutex_get.o
 .debug_macro   0x00000000000412e7      0x17b ./Middlewares/ThreadX/RTOS/ThreadX/Core/tx_mutex_prioritize.o
 .debug_macro   0x0000000000041462      0x172 ./Middlewares/ThreadX/RTOS/ThreadX/Core/tx_mutex_priority_change.o
 .debug_macro   0x00000000000415d4      0x17b ./Middlewares/ThreadX/RTOS/ThreadX/Core/tx_mutex_put.o
 .debug_macro   0x000000000004174f      0x17b ./Middlewares/ThreadX/RTOS/ThreadX/Core/tx_thread_create.o
 .debug_macro   0x00000000000418ca      0x178 ./Middlewares/ThreadX/RTOS/ThreadX/Core/tx_thread_initialize.o
 .debug_macro   0x0000000000041a42      0x169 ./Middlewares/ThreadX/RTOS/ThreadX/Core/tx_thread_shell_entry.o
 .debug_macro   0x0000000000041bab      0x17b ./Middlewares/ThreadX/RTOS/ThreadX/Core/tx_thread_sleep.o
 .debug_macro   0x0000000000041d26      0x169 ./Middlewares/ThreadX/RTOS/ThreadX/Core/tx_thread_system_preempt_check.o
 .debug_macro   0x0000000000041e8f      0x17b ./Middlewares/ThreadX/RTOS/ThreadX/Core/tx_thread_system_resume.o
 .debug_macro   0x000000000004200a      0x17b ./Middlewares/ThreadX/RTOS/ThreadX/Core/tx_thread_system_suspend.o
 .debug_macro   0x0000000000042185      0x17b ./Middlewares/ThreadX/RTOS/ThreadX/Core/tx_thread_time_slice.o
 .debug_macro   0x0000000000042300      0x172 ./Middlewares/ThreadX/RTOS/ThreadX/Core/tx_thread_timeout.o
 .debug_macro   0x0000000000042472      0x172 ./Middlewares/ThreadX/RTOS/ThreadX/Core/tx_timer_expiration_process.o
 .debug_macro   0x00000000000425e4      0x172 ./Middlewares/ThreadX/RTOS/ThreadX/Core/tx_timer_initialize.o
 .debug_macro   0x0000000000042756      0x169 ./Middlewares/ThreadX/RTOS/ThreadX/Core/tx_timer_system_activate.o
 .debug_macro   0x00000000000428bf      0x169 ./Middlewares/ThreadX/RTOS/ThreadX/Core/tx_timer_system_deactivate.o
 .debug_macro   0x0000000000042a28      0x172 ./Middlewares/ThreadX/RTOS/ThreadX/Core/tx_timer_thread_entry.o
 .debug_macro   0x0000000000042b9a      0x184 ./Middlewares/ThreadX/RTOS/ThreadX/Core/txe_byte_allocate.o
 .debug_macro   0x0000000000042d1e      0x184 ./Middlewares/ThreadX/RTOS/ThreadX/Core/txe_byte_pool_create.o
 .debug_macro   0x0000000000042ea2      0x184 ./Middlewares/ThreadX/RTOS/ThreadX/Core/txe_byte_release.o
 .debug_macro   0x0000000000043026      0x184 ./Middlewares/ThreadX/RTOS/ThreadX/Core/txe_mutex_create.o
 .debug_macro   0x00000000000431aa      0x184 ./Middlewares/ThreadX/RTOS/ThreadX/Core/txe_mutex_get.o
 .debug_macro   0x000000000004332e      0x17b ./Middlewares/ThreadX/RTOS/ThreadX/Core/txe_mutex_put.o
 .debug_macro   0x00000000000434a9      0x17b ./Middlewares/ThreadX/RTOS/ThreadX/Core/txe_thread_create.o
 .debug_macro   0x0000000000043624       0x98 ./Middlewares/deos_api/mw_board.o
 .debug_macro   0x00000000000436bc       0x97 ./Middlewares/deos_api/mw_dio.o

.debug_line     0x0000000000000000    0x1ba3b
 .debug_line    0x0000000000000000      0x666 ./AZURE_RTOS/App/app_azure_rtos.o
 .debug_line    0x0000000000000666      0xa01 ./Common/Src/system_stm32h7xx_dualcore_boot_cm4_cm7.o
 .debug_line    0x0000000000001067      0x78b ./Core/Src/Application/threads_cm7.o
 .debug_line    0x00000000000017f2      0x634 ./Core/Src/app_threadx.o
 .debug_line    0x0000000000001e26      0xb20 ./Core/Src/main.o
 .debug_line    0x0000000000002946      0x7ed ./Core/Src/stm32h7xx_hal_msp.o
 .debug_line    0x0000000000003133      0x873 ./Core/Src/stm32h7xx_it.o
 .debug_line    0x00000000000039a6       0x8f ./Core/Src/tx_initialize_low_level.o
 .debug_line    0x0000000000003a35       0x88 ./Core/Startup/startup_stm32h757xihx.o
 .debug_line    0x0000000000003abd      0xf38 ./Drivers/STM32H7xx_HAL_Driver/stm32h7xx_hal.o
 .debug_line    0x00000000000049f5      0xdeb ./Drivers/STM32H7xx_HAL_Driver/stm32h7xx_hal_cortex.o
 .debug_line    0x00000000000057e0      0xc9c ./Drivers/STM32H7xx_HAL_Driver/stm32h7xx_hal_gpio.o
 .debug_line    0x000000000000647c      0x99b ./Drivers/STM32H7xx_HAL_Driver/stm32h7xx_hal_hsem.o
 .debug_line    0x0000000000006e17     0x1006 ./Drivers/STM32H7xx_HAL_Driver/stm32h7xx_hal_pwr_ex.o
 .debug_line    0x0000000000007e1d     0x1347 ./Drivers/STM32H7xx_HAL_Driver/stm32h7xx_hal_rcc.o
 .debug_line    0x0000000000009164      0x5e5 ./Drivers/board/drv_dio.o
 .debug_line    0x0000000000009749      0x939 ./Drivers/mcu/drv_gpio.o
 .debug_line    0x000000000000a082      0x5f9 ./FileX/App/app_filex.o
 .debug_line    0x000000000000a67b     0x1ba7 ./Middlewares/OSAL/cmsis_os2.o
 .debug_line    0x000000000000c222      0x6fe ./Middlewares/ThreadX/RTOS/ThreadX/Core/tx_byte_allocate.o
 .debug_line    0x000000000000c920      0x69a ./Middlewares/ThreadX/RTOS/ThreadX/Core/tx_byte_pool_cleanup.o
 .debug_line    0x000000000000cfba      0x685 ./Middlewares/ThreadX/RTOS/ThreadX/Core/tx_byte_pool_create.o
 .debug_line    0x000000000000d63f      0x768 ./Middlewares/ThreadX/RTOS/ThreadX/Core/tx_byte_pool_search.o
 .debug_line    0x000000000000dda7      0x78f ./Middlewares/ThreadX/RTOS/ThreadX/Core/tx_byte_release.o
 .debug_line    0x000000000000e536      0x67c ./Middlewares/ThreadX/RTOS/ThreadX/Core/tx_initialize_high_level.o
 .debug_line    0x000000000000ebb2      0x619 ./Middlewares/ThreadX/RTOS/ThreadX/Core/tx_initialize_kernel_enter.o
 .debug_line    0x000000000000f1cb      0x5fa ./Middlewares/ThreadX/RTOS/ThreadX/Core/tx_initialize_kernel_setup.o
 .debug_line    0x000000000000f7c5      0x719 ./Middlewares/ThreadX/RTOS/ThreadX/Core/tx_mutex_cleanup.o
 .debug_line    0x000000000000fede      0x64f ./Middlewares/ThreadX/RTOS/ThreadX/Core/tx_mutex_create.o
 .debug_line    0x000000000001052d      0x73b ./Middlewares/ThreadX/RTOS/ThreadX/Core/tx_mutex_get.o
 .debug_line    0x0000000000010c68      0x6f1 ./Middlewares/ThreadX/RTOS/ThreadX/Core/tx_mutex_prioritize.o
 .debug_line    0x0000000000011359      0x705 ./Middlewares/ThreadX/RTOS/ThreadX/Core/tx_mutex_priority_change.o
 .debug_line    0x0000000000011a5e      0x8b6 ./Middlewares/ThreadX/RTOS/ThreadX/Core/tx_mutex_put.o
 .debug_line    0x0000000000012314      0x70b ./Middlewares/ThreadX/RTOS/ThreadX/Core/tx_thread_create.o
 .debug_line    0x0000000000012a1f      0x614 ./Middlewares/ThreadX/RTOS/ThreadX/Core/tx_thread_initialize.o
 .debug_line    0x0000000000013033      0x104 ./Middlewares/ThreadX/RTOS/ThreadX/Core/tx_thread_schedule.o
 .debug_line    0x0000000000013137      0x647 ./Middlewares/ThreadX/RTOS/ThreadX/Core/tx_thread_shell_entry.o
 .debug_line    0x000000000001377e      0x6bc ./Middlewares/ThreadX/RTOS/ThreadX/Core/tx_thread_sleep.o
 .debug_line    0x0000000000013e3a       0xd0 ./Middlewares/ThreadX/RTOS/ThreadX/Core/tx_thread_stack_build.o
 .debug_line    0x0000000000013f0a      0x62c ./Middlewares/ThreadX/RTOS/ThreadX/Core/tx_thread_system_preempt_check.o
 .debug_line    0x0000000000014536      0x77b ./Middlewares/ThreadX/RTOS/ThreadX/Core/tx_thread_system_resume.o
 .debug_line    0x0000000000014cb1      0x7c6 ./Middlewares/ThreadX/RTOS/ThreadX/Core/tx_thread_system_suspend.o
 .debug_line    0x0000000000015477      0x655 ./Middlewares/ThreadX/RTOS/ThreadX/Core/tx_thread_time_slice.o
 .debug_line    0x0000000000015acc      0x645 ./Middlewares/ThreadX/RTOS/ThreadX/Core/tx_thread_timeout.o
 .debug_line    0x0000000000016111      0x624 ./Middlewares/ThreadX/RTOS/ThreadX/Core/tx_timer_expiration_process.o
 .debug_line    0x0000000000016735      0x62c ./Middlewares/ThreadX/RTOS/ThreadX/Core/tx_timer_initialize.o
 .debug_line    0x0000000000016d61      0x110 ./Middlewares/ThreadX/RTOS/ThreadX/Core/tx_timer_interrupt.o
 .debug_line    0x0000000000016e71      0x62b ./Middlewares/ThreadX/RTOS/ThreadX/Core/tx_timer_system_activate.o
 .debug_line    0x000000000001749c      0x608 ./Middlewares/ThreadX/RTOS/ThreadX/Core/tx_timer_system_deactivate.o
 .debug_line    0x0000000000017aa4      0x770 ./Middlewares/ThreadX/RTOS/ThreadX/Core/tx_timer_thread_entry.o
 .debug_line    0x0000000000018214      0x692 ./Middlewares/ThreadX/RTOS/ThreadX/Core/txe_byte_allocate.o
 .debug_line    0x00000000000188a6      0x701 ./Middlewares/ThreadX/RTOS/ThreadX/Core/txe_byte_pool_create.o
 .debug_line    0x0000000000018fa7      0x651 ./Middlewares/ThreadX/RTOS/ThreadX/Core/txe_byte_release.o
 .debug_line    0x00000000000195f8      0x6f9 ./Middlewares/ThreadX/RTOS/ThreadX/Core/txe_mutex_create.o
 .debug_line    0x0000000000019cf1      0x672 ./Middlewares/ThreadX/RTOS/ThreadX/Core/txe_mutex_get.o
 .debug_line    0x000000000001a363      0x63a ./Middlewares/ThreadX/RTOS/ThreadX/Core/txe_mutex_put.o
 .debug_line    0x000000000001a99d      0x73e ./Middlewares/ThreadX/RTOS/ThreadX/Core/txe_thread_create.o
 .debug_line    0x000000000001b0db      0x471 ./Middlewares/deos_api/mw_board.o
 .debug_line    0x000000000001b54c      0x4ef ./Middlewares/deos_api/mw_dio.o

.debug_str      0x0000000000000000   0x19b5dd
 .debug_str     0x0000000000000000     0xd131 ./AZURE_RTOS/App/app_azure_rtos.o
                                       0xd283 (size before relaxing)
 .debug_str     0x000000000000d131   0x1861e1 ./Common/Src/system_stm32h7xx_dualcore_boot_cm4_cm7.o
                                     0x18c76e (size before relaxing)
 .debug_str     0x0000000000193312      0x938 ./Core/Src/Application/threads_cm7.o
                                       0xc17a (size before relaxing)
 .debug_str     0x0000000000193c4a       0x4b ./Core/Src/app_threadx.o
                                       0xbaa0 (size before relaxing)
 .debug_str     0x0000000000193c95     0x1341 ./Core/Src/main.o
                                     0x1919a3 (size before relaxing)
 .debug_str     0x0000000000194fd6       0x2c ./Core/Src/stm32h7xx_hal_msp.o
                                     0x18c359 (size before relaxing)
 .debug_str     0x0000000000195002       0x92 ./Core/Src/stm32h7xx_it.o
                                     0x18c181 (size before relaxing)
 .debug_str     0x0000000000195094       0x34 ./Core/Src/tx_initialize_low_level.o
                                         0x7e (size before relaxing)
 .debug_str     0x00000000001950c8       0x28 ./Core/Startup/startup_stm32h757xihx.o
                                         0x80 (size before relaxing)
 .debug_str     0x00000000001950f0     0x11e2 ./Drivers/STM32H7xx_HAL_Driver/stm32h7xx_hal.o
                                     0x18d80d (size before relaxing)
 .debug_str     0x00000000001962d2      0x38a ./Drivers/STM32H7xx_HAL_Driver/stm32h7xx_hal_cortex.o
                                     0x18d03c (size before relaxing)
 .debug_str     0x000000000019665c      0x20b ./Drivers/STM32H7xx_HAL_Driver/stm32h7xx_hal_gpio.o
                                     0x18c6f6 (size before relaxing)
 .debug_str     0x0000000000196867      0x21a ./Drivers/STM32H7xx_HAL_Driver/stm32h7xx_hal_hsem.o
                                     0x18c381 (size before relaxing)
 .debug_str     0x0000000000196a81      0x6c3 ./Drivers/STM32H7xx_HAL_Driver/stm32h7xx_hal_pwr_ex.o
                                     0x18cc01 (size before relaxing)
 .debug_str     0x0000000000197144      0x27b ./Drivers/STM32H7xx_HAL_Driver/stm32h7xx_hal_rcc.o
                                     0x18ca77 (size before relaxing)
 .debug_str     0x00000000001973bf      0x4aa ./Drivers/board/drv_dio.o
                                       0x45b6 (size before relaxing)
 .debug_str     0x0000000000197869       0x42 ./Drivers/mcu/drv_gpio.o
                                     0x18c839 (size before relaxing)
 .debug_str     0x00000000001978ab       0x19 ./FileX/App/app_filex.o
                                       0xd173 (size before relaxing)
 .debug_str     0x00000000001978c4     0x1a79 ./Middlewares/OSAL/cmsis_os2.o
                                       0xe5ca (size before relaxing)
 .debug_str     0x000000000019933d      0x18d ./Middlewares/ThreadX/RTOS/ThreadX/Core/tx_byte_allocate.o
                                       0xa336 (size before relaxing)
 .debug_str     0x00000000001994ca       0x92 ./Middlewares/ThreadX/RTOS/ThreadX/Core/tx_byte_pool_cleanup.o
                                       0xa2d3 (size before relaxing)
 .debug_str     0x000000000019955c      0x192 ./Middlewares/ThreadX/RTOS/ThreadX/Core/tx_byte_pool_create.o
                                       0x9cda (size before relaxing)
 .debug_str     0x00000000001996ee       0xfb ./Middlewares/ThreadX/RTOS/ThreadX/Core/tx_byte_pool_search.o
                                       0xa321 (size before relaxing)
 .debug_str     0x00000000001997e9       0xe3 ./Middlewares/ThreadX/RTOS/ThreadX/Core/tx_byte_release.o
                                       0xa412 (size before relaxing)
 .debug_str     0x00000000001998cc      0x6c2 ./Middlewares/ThreadX/RTOS/ThreadX/Core/tx_initialize_high_level.o
                                       0xaff6 (size before relaxing)
 .debug_str     0x0000000000199f8e       0xc4 ./Middlewares/ThreadX/RTOS/ThreadX/Core/tx_initialize_kernel_enter.o
                                       0x9c27 (size before relaxing)
 .debug_str     0x000000000019a052       0x7f ./Middlewares/ThreadX/RTOS/ThreadX/Core/tx_initialize_kernel_setup.o
                                       0x9b5c (size before relaxing)
 .debug_str     0x000000000019a0d1       0xae ./Middlewares/ThreadX/RTOS/ThreadX/Core/tx_mutex_cleanup.o
                                       0xa13d (size before relaxing)
 .debug_str     0x000000000019a17f       0xb8 ./Middlewares/ThreadX/RTOS/ThreadX/Core/tx_mutex_create.o
                                       0xa1b9 (size before relaxing)
 .debug_str     0x000000000019a237       0x99 ./Middlewares/ThreadX/RTOS/ThreadX/Core/tx_mutex_get.o
                                       0xa1f2 (size before relaxing)
 .debug_str     0x000000000019a2d0       0xb7 ./Middlewares/ThreadX/RTOS/ThreadX/Core/tx_mutex_prioritize.o
                                       0xa1c4 (size before relaxing)
 .debug_str     0x000000000019a387       0xcb ./Middlewares/ThreadX/RTOS/ThreadX/Core/tx_mutex_priority_change.o
                                       0xa159 (size before relaxing)
 .debug_str     0x000000000019a452       0xad ./Middlewares/ThreadX/RTOS/ThreadX/Core/tx_mutex_put.o
                                       0xa264 (size before relaxing)
 .debug_str     0x000000000019a4ff      0x12d ./Middlewares/ThreadX/RTOS/ThreadX/Core/tx_thread_create.o
                                       0xa3b3 (size before relaxing)
 .debug_str     0x000000000019a62c      0x134 ./Middlewares/ThreadX/RTOS/ThreadX/Core/tx_thread_initialize.o
                                       0xa277 (size before relaxing)
 .debug_str     0x000000000019a760       0x84 ./Middlewares/ThreadX/RTOS/ThreadX/Core/tx_thread_schedule.o
                                         0xdc (size before relaxing)
 .debug_str     0x000000000019a7e4       0xb0 ./Middlewares/ThreadX/RTOS/ThreadX/Core/tx_thread_shell_entry.o
                                       0xa0dc (size before relaxing)
 .debug_str     0x000000000019a894       0x91 ./Middlewares/ThreadX/RTOS/ThreadX/Core/tx_thread_sleep.o
                                       0xa1da (size before relaxing)
 .debug_str     0x000000000019a925       0x87 ./Middlewares/ThreadX/RTOS/ThreadX/Core/tx_thread_stack_build.o
                                         0xdf (size before relaxing)
 .debug_str     0x000000000019a9ac       0xa6 ./Middlewares/ThreadX/RTOS/ThreadX/Core/tx_thread_system_preempt_check.o
                                       0xa0e7 (size before relaxing)
 .debug_str     0x000000000019aa52       0xb8 ./Middlewares/ThreadX/RTOS/ThreadX/Core/tx_thread_system_resume.o
                                       0xa2c4 (size before relaxing)
 .debug_str     0x000000000019ab0a       0xc7 ./Middlewares/ThreadX/RTOS/ThreadX/Core/tx_thread_system_suspend.o
                                       0xa2f8 (size before relaxing)
 .debug_str     0x000000000019abd1       0xac ./Middlewares/ThreadX/RTOS/ThreadX/Core/tx_thread_time_slice.o
                                       0xa1d5 (size before relaxing)
 .debug_str     0x000000000019ac7d       0x84 ./Middlewares/ThreadX/RTOS/ThreadX/Core/tx_thread_timeout.o
                                       0xa115 (size before relaxing)
 .debug_str     0x000000000019ad01       0x9d ./Middlewares/ThreadX/RTOS/ThreadX/Core/tx_timer_expiration_process.o
                                       0xa0fd (size before relaxing)
 .debug_str     0x000000000019ad9e      0x1a9 ./Middlewares/ThreadX/RTOS/ThreadX/Core/tx_timer_initialize.o
                                       0xa254 (size before relaxing)
 .debug_str     0x000000000019af47       0x84 ./Middlewares/ThreadX/RTOS/ThreadX/Core/tx_timer_interrupt.o
                                         0xdc (size before relaxing)
 .debug_str     0x000000000019afcb       0xad ./Middlewares/ThreadX/RTOS/ThreadX/Core/tx_timer_system_activate.o
                                       0x9541 (size before relaxing)
 .debug_str     0x000000000019b078       0x7f ./Middlewares/ThreadX/RTOS/ThreadX/Core/tx_timer_system_deactivate.o
                                       0x94e0 (size before relaxing)
 .debug_str     0x000000000019b0f7       0xbb ./Middlewares/ThreadX/RTOS/ThreadX/Core/tx_timer_thread_entry.o
                                       0xa1fd (size before relaxing)
 .debug_str     0x000000000019b1b2       0x76 ./Middlewares/ThreadX/RTOS/ThreadX/Core/txe_byte_allocate.o
                                       0xa43a (size before relaxing)
 .debug_str     0x000000000019b228       0x91 ./Middlewares/ThreadX/RTOS/ThreadX/Core/txe_byte_pool_create.o
                                       0xa535 (size before relaxing)
 .debug_str     0x000000000019b2b9       0x75 ./Middlewares/ThreadX/RTOS/ThreadX/Core/txe_byte_release.o
                                       0xa2cf (size before relaxing)
 .debug_str     0x000000000019b32e       0x8e ./Middlewares/ThreadX/RTOS/ThreadX/Core/txe_mutex_create.o
                                       0xa361 (size before relaxing)
 .debug_str     0x000000000019b3bc       0x72 ./Middlewares/ThreadX/RTOS/ThreadX/Core/txe_mutex_get.o
                                       0xa266 (size before relaxing)
 .debug_str     0x000000000019b42e       0x72 ./Middlewares/ThreadX/RTOS/ThreadX/Core/txe_mutex_put.o
                                       0xa19f (size before relaxing)
 .debug_str     0x000000000019b4a0       0x9b ./Middlewares/ThreadX/RTOS/ThreadX/Core/txe_thread_create.o
                                       0xa37d (size before relaxing)
 .debug_str     0x000000000019b53b       0x37 ./Middlewares/deos_api/mw_board.o
                                       0x3d59 (size before relaxing)
 .debug_str     0x000000000019b572       0x6b ./Middlewares/deos_api/mw_dio.o
                                       0x41c0 (size before relaxing)

.comment        0x0000000000000000       0x50
 .comment       0x0000000000000000       0x50 ./AZURE_RTOS/App/app_azure_rtos.o
                                         0x51 (size before relaxing)
 .comment       0x0000000000000050       0x51 ./Common/Src/system_stm32h7xx_dualcore_boot_cm4_cm7.o
 .comment       0x0000000000000050       0x51 ./Core/Src/Application/threads_cm7.o
 .comment       0x0000000000000050       0x51 ./Core/Src/app_threadx.o
 .comment       0x0000000000000050       0x51 ./Core/Src/main.o
 .comment       0x0000000000000050       0x51 ./Core/Src/stm32h7xx_hal_msp.o
 .comment       0x0000000000000050       0x51 ./Core/Src/stm32h7xx_it.o
 .comment       0x0000000000000050       0x51 ./Drivers/STM32H7xx_HAL_Driver/stm32h7xx_hal.o
 .comment       0x0000000000000050       0x51 ./Drivers/STM32H7xx_HAL_Driver/stm32h7xx_hal_cortex.o
 .comment       0x0000000000000050       0x51 ./Drivers/STM32H7xx_HAL_Driver/stm32h7xx_hal_gpio.o
 .comment       0x0000000000000050       0x51 ./Drivers/STM32H7xx_HAL_Driver/stm32h7xx_hal_hsem.o
 .comment       0x0000000000000050       0x51 ./Drivers/STM32H7xx_HAL_Driver/stm32h7xx_hal_pwr_ex.o
 .comment       0x0000000000000050       0x51 ./Drivers/STM32H7xx_HAL_Driver/stm32h7xx_hal_rcc.o
 .comment       0x0000000000000050       0x51 ./Drivers/board/drv_dio.o
 .comment       0x0000000000000050       0x51 ./Drivers/mcu/drv_gpio.o
 .comment       0x0000000000000050       0x51 ./FileX/App/app_filex.o
 .comment       0x0000000000000050       0x51 ./Middlewares/OSAL/cmsis_os2.o
 .comment       0x0000000000000050       0x51 ./Middlewares/ThreadX/RTOS/ThreadX/Core/tx_byte_allocate.o
 .comment       0x0000000000000050       0x51 ./Middlewares/ThreadX/RTOS/ThreadX/Core/tx_byte_pool_cleanup.o
 .comment       0x0000000000000050       0x51 ./Middlewares/ThreadX/RTOS/ThreadX/Core/tx_byte_pool_create.o
 .comment       0x0000000000000050       0x51 ./Middlewares/ThreadX/RTOS/ThreadX/Core/tx_byte_pool_search.o
 .comment       0x0000000000000050       0x51 ./Middlewares/ThreadX/RTOS/ThreadX/Core/tx_byte_release.o
 .comment       0x0000000000000050       0x51 ./Middlewares/ThreadX/RTOS/ThreadX/Core/tx_initialize_high_level.o
 .comment       0x0000000000000050       0x51 ./Middlewares/ThreadX/RTOS/ThreadX/Core/tx_initialize_kernel_enter.o
 .comment       0x0000000000000050       0x51 ./Middlewares/ThreadX/RTOS/ThreadX/Core/tx_initialize_kernel_setup.o
 .comment       0x0000000000000050       0x51 ./Middlewares/ThreadX/RTOS/ThreadX/Core/tx_mutex_cleanup.o
 .comment       0x0000000000000050       0x51 ./Middlewares/ThreadX/RTOS/ThreadX/Core/tx_mutex_create.o
 .comment       0x0000000000000050       0x51 ./Middlewares/ThreadX/RTOS/ThreadX/Core/tx_mutex_get.o
 .comment       0x0000000000000050       0x51 ./Middlewares/ThreadX/RTOS/ThreadX/Core/tx_mutex_prioritize.o
 .comment       0x0000000000000050       0x51 ./Middlewares/ThreadX/RTOS/ThreadX/Core/tx_mutex_priority_change.o
 .comment       0x0000000000000050       0x51 ./Middlewares/ThreadX/RTOS/ThreadX/Core/tx_mutex_put.o
 .comment       0x0000000000000050       0x51 ./Middlewares/ThreadX/RTOS/ThreadX/Core/tx_thread_create.o
 .comment       0x0000000000000050       0x51 ./Middlewares/ThreadX/RTOS/ThreadX/Core/tx_thread_initialize.o
 .comment       0x0000000000000050       0x51 ./Middlewares/ThreadX/RTOS/ThreadX/Core/tx_thread_shell_entry.o
 .comment       0x0000000000000050       0x51 ./Middlewares/ThreadX/RTOS/ThreadX/Core/tx_thread_sleep.o
 .comment       0x0000000000000050       0x51 ./Middlewares/ThreadX/RTOS/ThreadX/Core/tx_thread_system_preempt_check.o
 .comment       0x0000000000000050       0x51 ./Middlewares/ThreadX/RTOS/ThreadX/Core/tx_thread_system_resume.o
 .comment       0x0000000000000050       0x51 ./Middlewares/ThreadX/RTOS/ThreadX/Core/tx_thread_system_suspend.o
 .comment       0x0000000000000050       0x51 ./Middlewares/ThreadX/RTOS/ThreadX/Core/tx_thread_time_slice.o
 .comment       0x0000000000000050       0x51 ./Middlewares/ThreadX/RTOS/ThreadX/Core/tx_thread_timeout.o
 .comment       0x0000000000000050       0x51 ./Middlewares/ThreadX/RTOS/ThreadX/Core/tx_timer_expiration_process.o
 .comment       0x0000000000000050       0x51 ./Middlewares/ThreadX/RTOS/ThreadX/Core/tx_timer_initialize.o
 .comment       0x0000000000000050       0x51 ./Middlewares/ThreadX/RTOS/ThreadX/Core/tx_timer_system_activate.o
 .comment       0x0000000000000050       0x51 ./Middlewares/ThreadX/RTOS/ThreadX/Core/tx_timer_system_deactivate.o
 .comment       0x0000000000000050       0x51 ./Middlewares/ThreadX/RTOS/ThreadX/Core/tx_timer_thread_entry.o
 .comment       0x0000000000000050       0x51 ./Middlewares/ThreadX/RTOS/ThreadX/Core/txe_byte_allocate.o
 .comment       0x0000000000000050       0x51 ./Middlewares/ThreadX/RTOS/ThreadX/Core/txe_byte_pool_create.o
 .comment       0x0000000000000050       0x51 ./Middlewares/ThreadX/RTOS/ThreadX/Core/txe_byte_release.o
 .comment       0x0000000000000050       0x51 ./Middlewares/ThreadX/RTOS/ThreadX/Core/txe_mutex_create.o
 .comment       0x0000000000000050       0x51 ./Middlewares/ThreadX/RTOS/ThreadX/Core/txe_mutex_get.o
 .comment       0x0000000000000050       0x51 ./Middlewares/ThreadX/RTOS/ThreadX/Core/txe_mutex_put.o
 .comment       0x0000000000000050       0x51 ./Middlewares/ThreadX/RTOS/ThreadX/Core/txe_thread_create.o
 .comment       0x0000000000000050       0x51 ./Middlewares/deos_api/mw_board.o
 .comment       0x0000000000000050       0x51 ./Middlewares/deos_api/mw_dio.o

.debug_frame    0x0000000000000000     0x2f8c
 .debug_frame   0x0000000000000000       0x34 ./AZURE_RTOS/App/app_azure_rtos.o
 .debug_frame   0x0000000000000034       0x58 ./Common/Src/system_stm32h7xx_dualcore_boot_cm4_cm7.o
 .debug_frame   0x000000000000008c       0x98 ./Core/Src/Application/threads_cm7.o
 .debug_frame   0x0000000000000124       0x50 ./Core/Src/app_threadx.o
 .debug_frame   0x0000000000000174       0xd8 ./Core/Src/main.o
 .debug_frame   0x000000000000024c       0x38 ./Core/Src/stm32h7xx_hal_msp.o
 .debug_frame   0x0000000000000284       0xa8 ./Core/Src/stm32h7xx_it.o
 .debug_frame   0x000000000000032c      0x848 ./Drivers/STM32H7xx_HAL_Driver/stm32h7xx_hal.o
 .debug_frame   0x0000000000000b74      0x4b8 ./Drivers/STM32H7xx_HAL_Driver/stm32h7xx_hal_cortex.o
 .debug_frame   0x000000000000102c      0x14c ./Drivers/STM32H7xx_HAL_Driver/stm32h7xx_hal_gpio.o
 .debug_frame   0x0000000000001178      0x1bc ./Drivers/STM32H7xx_HAL_Driver/stm32h7xx_hal_hsem.o
 .debug_frame   0x0000000000001334      0x5ec ./Drivers/STM32H7xx_HAL_Driver/stm32h7xx_hal_pwr_ex.o
 .debug_frame   0x0000000000001920      0x1f8 ./Drivers/STM32H7xx_HAL_Driver/stm32h7xx_hal_rcc.o
 .debug_frame   0x0000000000001b18      0x114 ./Drivers/board/drv_dio.o
 .debug_frame   0x0000000000001c2c      0x114 ./Drivers/mcu/drv_gpio.o
 .debug_frame   0x0000000000001d40       0x38 ./FileX/App/app_filex.o
 .debug_frame   0x0000000000001d78      0x968 ./Middlewares/OSAL/cmsis_os2.o
 .debug_frame   0x00000000000026e0       0x34 ./Middlewares/ThreadX/RTOS/ThreadX/Core/tx_byte_allocate.o
 .debug_frame   0x0000000000002714       0x34 ./Middlewares/ThreadX/RTOS/ThreadX/Core/tx_byte_pool_cleanup.o
 .debug_frame   0x0000000000002748       0x34 ./Middlewares/ThreadX/RTOS/ThreadX/Core/tx_byte_pool_create.o
 .debug_frame   0x000000000000277c       0x38 ./Middlewares/ThreadX/RTOS/ThreadX/Core/tx_byte_pool_search.o
 .debug_frame   0x00000000000027b4       0x38 ./Middlewares/ThreadX/RTOS/ThreadX/Core/tx_byte_release.o
 .debug_frame   0x00000000000027ec       0x2c ./Middlewares/ThreadX/RTOS/ThreadX/Core/tx_initialize_high_level.o
 .debug_frame   0x0000000000002818       0x2c ./Middlewares/ThreadX/RTOS/ThreadX/Core/tx_initialize_kernel_enter.o
 .debug_frame   0x0000000000002844       0x2c ./Middlewares/ThreadX/RTOS/ThreadX/Core/tx_initialize_kernel_setup.o
 .debug_frame   0x0000000000002870       0x58 ./Middlewares/ThreadX/RTOS/ThreadX/Core/tx_mutex_cleanup.o
 .debug_frame   0x00000000000028c8       0x34 ./Middlewares/ThreadX/RTOS/ThreadX/Core/tx_mutex_create.o
 .debug_frame   0x00000000000028fc       0x34 ./Middlewares/ThreadX/RTOS/ThreadX/Core/tx_mutex_get.o
 .debug_frame   0x0000000000002930       0x34 ./Middlewares/ThreadX/RTOS/ThreadX/Core/tx_mutex_prioritize.o
 .debug_frame   0x0000000000002964       0x34 ./Middlewares/ThreadX/RTOS/ThreadX/Core/tx_mutex_priority_change.o
 .debug_frame   0x0000000000002998       0x38 ./Middlewares/ThreadX/RTOS/ThreadX/Core/tx_mutex_put.o
 .debug_frame   0x00000000000029d0       0x34 ./Middlewares/ThreadX/RTOS/ThreadX/Core/tx_thread_create.o
 .debug_frame   0x0000000000002a04       0x2c ./Middlewares/ThreadX/RTOS/ThreadX/Core/tx_thread_initialize.o
 .debug_frame   0x0000000000002a30       0x34 ./Middlewares/ThreadX/RTOS/ThreadX/Core/tx_thread_shell_entry.o
 .debug_frame   0x0000000000002a64       0x34 ./Middlewares/ThreadX/RTOS/ThreadX/Core/tx_thread_sleep.o
 .debug_frame   0x0000000000002a98       0x38 ./Middlewares/ThreadX/RTOS/ThreadX/Core/tx_thread_system_preempt_check.o
 .debug_frame   0x0000000000002ad0       0x38 ./Middlewares/ThreadX/RTOS/ThreadX/Core/tx_thread_system_resume.o
 .debug_frame   0x0000000000002b08       0x38 ./Middlewares/ThreadX/RTOS/ThreadX/Core/tx_thread_system_suspend.o
 .debug_frame   0x0000000000002b40       0x38 ./Middlewares/ThreadX/RTOS/ThreadX/Core/tx_thread_time_slice.o
 .debug_frame   0x0000000000002b78       0x34 ./Middlewares/ThreadX/RTOS/ThreadX/Core/tx_thread_timeout.o
 .debug_frame   0x0000000000002bac       0x34 ./Middlewares/ThreadX/RTOS/ThreadX/Core/tx_timer_expiration_process.o
 .debug_frame   0x0000000000002be0       0x38 ./Middlewares/ThreadX/RTOS/ThreadX/Core/tx_timer_initialize.o
 .debug_frame   0x0000000000002c18       0x38 ./Middlewares/ThreadX/RTOS/ThreadX/Core/tx_timer_system_activate.o
 .debug_frame   0x0000000000002c50       0x38 ./Middlewares/ThreadX/RTOS/ThreadX/Core/tx_timer_system_deactivate.o
 .debug_frame   0x0000000000002c88       0x34 ./Middlewares/ThreadX/RTOS/ThreadX/Core/tx_timer_thread_entry.o
 .debug_frame   0x0000000000002cbc       0x34 ./Middlewares/ThreadX/RTOS/ThreadX/Core/txe_byte_allocate.o
 .debug_frame   0x0000000000002cf0       0x34 ./Middlewares/ThreadX/RTOS/ThreadX/Core/txe_byte_pool_create.o
 .debug_frame   0x0000000000002d24       0x34 ./Middlewares/ThreadX/RTOS/ThreadX/Core/txe_byte_release.o
 .debug_frame   0x0000000000002d58       0x34 ./Middlewares/ThreadX/RTOS/ThreadX/Core/txe_mutex_create.o
 .debug_frame   0x0000000000002d8c       0x34 ./Middlewares/ThreadX/RTOS/ThreadX/Core/txe_mutex_get.o
 .debug_frame   0x0000000000002dc0       0x34 ./Middlewares/ThreadX/RTOS/ThreadX/Core/txe_mutex_put.o
 .debug_frame   0x0000000000002df4       0x38 ./Middlewares/ThreadX/RTOS/ThreadX/Core/txe_thread_create.o
 .debug_frame   0x0000000000002e2c       0x2c ./Middlewares/deos_api/mw_board.o
 .debug_frame   0x0000000000002e58       0xe8 ./Middlewares/deos_api/mw_dio.o
 .debug_frame   0x0000000000002f40       0x2c c:/st/stm32cubeide_1.8.0/stm32cubeide/plugins/com.st.stm32cube.ide.mcu.externaltools.gnu-tools-for-stm32.10.3-2021.10.win32_1.0.0.202111181127/tools/bin/../lib/gcc/arm-none-eabi/10.3.1/../../../../arm-none-eabi/lib/thumb/v7e-m+dp/hard\libc_nano.a(lib_a-init.o)
 .debug_frame   0x0000000000002f6c       0x20 c:/st/stm32cubeide_1.8.0/stm32cubeide/plugins/com.st.stm32cube.ide.mcu.externaltools.gnu-tools-for-stm32.10.3-2021.10.win32_1.0.0.202111181127/tools/bin/../lib/gcc/arm-none-eabi/10.3.1/../../../../arm-none-eabi/lib/thumb/v7e-m+dp/hard\libc_nano.a(lib_a-memset.o)
