
STM32H757_Template_CM7.elf:     file format elf32-littlearm

Sections:
Idx Name          Size      VMA       LMA       File off  Algn
  0 .isr_vector   00000298  08000000  08000000  00010000  2**0
                  CONTENTS, ALLOC, LOAD, READONLY, DATA
  1 .text         0000520c  080002a0  080002a0  000102a0  2**4
                  CONTENTS, ALLOC, LOAD, READONLY, CODE
  2 .rodata       000000d0  080054ac  080054ac  000154ac  2**2
                  CONTENTS, ALLOC, LOAD, READONLY, DATA
  3 .ARM.extab    00000000  0800557c  0800557c  00020038  2**0
                  CONTENTS
  4 .ARM          00000000  0800557c  0800557c  00020038  2**0
                  CONTENTS
  5 .preinit_array 00000000  0800557c  0800557c  00020038  2**0
                  CONTENTS, ALLOC, LOAD, DATA
  6 .init_array   00000004  0800557c  0800557c  0001557c  2**2
                  CONTENTS, ALLOC, LOAD, DATA
  7 .fini_array   00000004  08005580  08005580  00015580  2**2
                  CONTENTS, ALLOC, LOAD, DATA
  8 .data         00000038  24000000  08005584  00020000  2**2
                  CONTENTS, ALLOC, LOAD, DATA
  9 .bss          00003420  24000038  080055bc  00020038  2**2
                  ALLOC
 10 ._user_heap_stack 00000600  24003458  080055bc  00023458  2**0
                  ALLOC
 11 .ARM.attributes 0000002e  00000000  00000000  00020038  2**0
                  CONTENTS, READONLY
 12 .debug_info   0001b8ce  00000000  00000000  00020066  2**0
                  CONTENTS, READONLY, DEBUGGING, OCTETS
 13 .debug_abbrev 00005658  00000000  00000000  0003b934  2**0
                  CONTENTS, READONLY, DEBUGGING, OCTETS
 14 .debug_aranges 00000f90  00000000  00000000  00040f90  2**3
                  CONTENTS, READONLY, DEBUGGING, OCTETS
 15 .debug_ranges 00000bc0  00000000  00000000  00041f20  2**3
                  CONTENTS, READONLY, DEBUGGING, OCTETS
 16 .debug_macro  00043753  00000000  00000000  00042ae0  2**0
                  CONTENTS, READONLY, DEBUGGING, OCTETS
 17 .debug_line   0001ba3b  00000000  00000000  00086233  2**0
                  CONTENTS, READONLY, DEBUGGING, OCTETS
 18 .debug_str    0019b5dd  00000000  00000000  000a1c6e  2**0
                  CONTENTS, READONLY, DEBUGGING, OCTETS
 19 .comment      00000050  00000000  00000000  0023d24b  2**0
                  CONTENTS, READONLY
 20 .debug_frame  00002f8c  00000000  00000000  0023d29c  2**2
                  CONTENTS, READONLY, DEBUGGING, OCTETS

Disassembly of section .text:

080002a0 <__do_global_dtors_aux>:
 80002a0:	b510      	push	{r4, lr}
 80002a2:	4c05      	ldr	r4, [pc, #20]	; (80002b8 <__do_global_dtors_aux+0x18>)
 80002a4:	7823      	ldrb	r3, [r4, #0]
 80002a6:	b933      	cbnz	r3, 80002b6 <__do_global_dtors_aux+0x16>
 80002a8:	4b04      	ldr	r3, [pc, #16]	; (80002bc <__do_global_dtors_aux+0x1c>)
 80002aa:	b113      	cbz	r3, 80002b2 <__do_global_dtors_aux+0x12>
 80002ac:	4804      	ldr	r0, [pc, #16]	; (80002c0 <__do_global_dtors_aux+0x20>)
 80002ae:	f3af 8000 	nop.w
 80002b2:	2301      	movs	r3, #1
 80002b4:	7023      	strb	r3, [r4, #0]
 80002b6:	bd10      	pop	{r4, pc}
 80002b8:	24000038 	.word	0x24000038
 80002bc:	00000000 	.word	0x00000000
 80002c0:	08005494 	.word	0x08005494

080002c4 <frame_dummy>:
 80002c4:	b508      	push	{r3, lr}
 80002c6:	4b03      	ldr	r3, [pc, #12]	; (80002d4 <frame_dummy+0x10>)
 80002c8:	b11b      	cbz	r3, 80002d2 <frame_dummy+0xe>
 80002ca:	4903      	ldr	r1, [pc, #12]	; (80002d8 <frame_dummy+0x14>)
 80002cc:	4803      	ldr	r0, [pc, #12]	; (80002dc <frame_dummy+0x18>)
 80002ce:	f3af 8000 	nop.w
 80002d2:	bd08      	pop	{r3, pc}
 80002d4:	00000000 	.word	0x00000000
 80002d8:	2400003c 	.word	0x2400003c
 80002dc:	08005494 	.word	0x08005494

080002e0 <_tx_initialize_low_level>:
    .thumb_func
_tx_initialize_low_level:
@
@    /* Disable interrupts during ThreadX initialization.  */
@
    CPSID   i
 80002e0:	b672      	cpsid	i
@
@    /* Set base of available memory to end of non-initialised RAM area.  */
@
#ifdef USE_DYNAMIC_MEMORY_ALLOCATION
    LDR     r0, =_tx_initialize_unused_memory       @ Build address of unused memory pointer
 80002e2:	481d      	ldr	r0, [pc, #116]	; (8000358 <__tx_DBGHandler+0x6>)
    LDR     r1, =__RAM_segment_used_end__           @ Build first free address
 80002e4:	491d      	ldr	r1, [pc, #116]	; (800035c <__tx_DBGHandler+0xa>)
    ADD     r1, r1, #4                              @
 80002e6:	f101 0104 	add.w	r1, r1, #4
    STR     r1, [r0]                                @ Setup first unused memory pointer
 80002ea:	6001      	str	r1, [r0, #0]
#endif
@
@    /* Setup Vector Table Offset Register.  */
@
    MOV     r0, #0xE000E000                         @ Build address of NVIC registers
 80002ec:	f04f 20e0 	mov.w	r0, #3758153728	; 0xe000e000
    LDR     r1, =g_pfnVectors                           @ Pickup address of vector table
 80002f0:	491b      	ldr	r1, [pc, #108]	; (8000360 <__tx_DBGHandler+0xe>)
    STR     r1, [r0, #0xD08]                        @ Set vector table address
 80002f2:	f8c0 1d08 	str.w	r1, [r0, #3336]	; 0xd08
@
@    /* Set system stack pointer from vector value.  */
@
    LDR     r0, =_tx_thread_system_stack_ptr        @ Build address of system stack pointer
 80002f6:	481b      	ldr	r0, [pc, #108]	; (8000364 <__tx_DBGHandler+0x12>)
    LDR     r1, =g_pfnVectors                           @ Pickup address of vector table
 80002f8:	4919      	ldr	r1, [pc, #100]	; (8000360 <__tx_DBGHandler+0xe>)
    LDR     r1, [r1]                                @ Pickup reset stack pointer
 80002fa:	6809      	ldr	r1, [r1, #0]
    STR     r1, [r0]                                @ Save system stack pointer
 80002fc:	6001      	str	r1, [r0, #0]
@
@    /* Enable the cycle count register.  */
@
    LDR     r0, =0xE0001000                         @ Build address of DWT register
 80002fe:	481a      	ldr	r0, [pc, #104]	; (8000368 <__tx_DBGHandler+0x16>)
    LDR     r1, [r0]                                @ Pickup the current value
 8000300:	6801      	ldr	r1, [r0, #0]
    ORR     r1, r1, #1                              @ Set the CYCCNTENA bit
 8000302:	f041 0101 	orr.w	r1, r1, #1
    STR     r1, [r0]                                @ Enable the cycle count register
 8000306:	6001      	str	r1, [r0, #0]
@
@    /* Configure SysTick for 100Hz clock, or 16384 cycles if no reference.  */
@
    MOV     r0, #0xE000E000                         @ Build address of NVIC registers
 8000308:	f04f 20e0 	mov.w	r0, #3758153728	; 0xe000e000
    LDR     r1, =SYSTICK_CYCLES
 800030c:	4917      	ldr	r1, [pc, #92]	; (800036c <__tx_DBGHandler+0x1a>)
    STR     r1, [r0, #0x14]                         @ Setup SysTick Reload Value
 800030e:	6141      	str	r1, [r0, #20]
    MOV     r1, #0x7                                @ Build SysTick Control Enable Value
 8000310:	f04f 0107 	mov.w	r1, #7
    STR     r1, [r0, #0x10]                         @ Setup SysTick Control
 8000314:	6101      	str	r1, [r0, #16]
@
@    /* Configure handler priorities.  */
@
    LDR     r1, =0x00000000                         @ Rsrv, UsgF, BusF, MemM
 8000316:	f04f 0100 	mov.w	r1, #0
    STR     r1, [r0, #0xD18]                        @ Setup System Handlers 4-7 Priority Registers
 800031a:	f8c0 1d18 	str.w	r1, [r0, #3352]	; 0xd18

    LDR     r1, =0xFF000000                         @ SVCl, Rsrv, Rsrv, Rsrv
 800031e:	f04f 417f 	mov.w	r1, #4278190080	; 0xff000000
    STR     r1, [r0, #0xD1C]                        @ Setup System Handlers 8-11 Priority Registers
 8000322:	f8c0 1d1c 	str.w	r1, [r0, #3356]	; 0xd1c
                                                    @ Note: SVC must be lowest priority, which is 0xFF

    LDR     r1, =0x40FF0000                         @ SysT, PnSV, Rsrv, DbgM
 8000326:	4912      	ldr	r1, [pc, #72]	; (8000370 <__tx_DBGHandler+0x1e>)
    STR     r1, [r0, #0xD20]                        @ Setup System Handlers 12-15 Priority Registers
 8000328:	f8c0 1d20 	str.w	r1, [r0, #3360]	; 0xd20
                                                    @ Note: PnSV must be lowest priority, which is 0xFF
@
@    /* Return to caller.  */
@
    BX      lr
 800032c:	4770      	bx	lr

0800032e <__tx_BadHandler>:
@/* Define shells for each of the unused vectors.  */
@
    .global  __tx_BadHandler
    .thumb_func
__tx_BadHandler:
    B       __tx_BadHandler
 800032e:	f7ff bffe 	b.w	800032e <__tx_BadHandler>

08000332 <__tx_HardfaultHandler>:
@ /* added to catch the hardfault */

    .global  __tx_HardfaultHandler
    .thumb_func
__tx_HardfaultHandler:
    B       __tx_HardfaultHandler
 8000332:	f7ff bffe 	b.w	8000332 <__tx_HardfaultHandler>

08000336 <__tx_SVCallHandler>:
@ /* added to catch the SVC */

    .global  __tx_SVCallHandler
    .thumb_func
__tx_SVCallHandler:
    B       __tx_SVCallHandler
 8000336:	f7ff bffe 	b.w	8000336 <__tx_SVCallHandler>

0800033a <__tx_IntHandler>:
    .global  __tx_IntHandler
    .thumb_func
__tx_IntHandler:
@ VOID InterruptHandler (VOID)
@ {
    PUSH    {r0, lr}
 800033a:	b501      	push	{r0, lr}
@    /* BL <your C Function>.... */

#ifdef TX_ENABLE_EXECUTION_CHANGE_NOTIFY
    BL      _tx_execution_isr_exit              @ Call the ISR exit function
#endif
    POP     {r0, lr}
 800033c:	e8bd 4001 	ldmia.w	sp!, {r0, lr}
    BX      LR
 8000340:	4770      	bx	lr

08000342 <SysTick_Handler>:
    .thumb_func
SysTick_Handler:
@ VOID TimerInterruptHandler (VOID)
@ {
@
    PUSH    {r0, lr}
 8000342:	b501      	push	{r0, lr}
#ifdef TX_ENABLE_EXECUTION_CHANGE_NOTIFY
    BL      _tx_execution_isr_enter             @ Call the ISR enter function
#endif
    BL      _tx_timer_interrupt
 8000344:	f000 f89c 	bl	8000480 <_tx_timer_interrupt>
#ifdef TX_ENABLE_EXECUTION_CHANGE_NOTIFY
    BL      _tx_execution_isr_exit              @ Call the ISR exit function
#endif
    POP     {r0, lr}
 8000348:	e8bd 4001 	ldmia.w	sp!, {r0, lr}
    BX      LR
 800034c:	4770      	bx	lr

0800034e <__tx_NMIHandler>:

@ /* NMI, DBG handlers */
    .global  __tx_NMIHandler
    .thumb_func
__tx_NMIHandler:
    B       __tx_NMIHandler
 800034e:	f7ff bffe 	b.w	800034e <__tx_NMIHandler>

08000352 <__tx_DBGHandler>:

    .global  __tx_DBGHandler
    .thumb_func
__tx_DBGHandler:
    B       __tx_DBGHandler
 8000352:	f7ff bffe 	b.w	8000352 <__tx_DBGHandler>
 8000356:	0000      	.short	0x0000
    LDR     r0, =_tx_initialize_unused_memory       @ Build address of unused memory pointer
 8000358:	24002dbc 	.word	0x24002dbc
    LDR     r1, =__RAM_segment_used_end__           @ Build first free address
 800035c:	24003a58 	.word	0x24003a58
    LDR     r1, =g_pfnVectors                           @ Pickup address of vector table
 8000360:	08000000 	.word	0x08000000
    LDR     r0, =_tx_thread_system_stack_ptr        @ Build address of system stack pointer
 8000364:	24002dc0 	.word	0x24002dc0
    LDR     r0, =0xE0001000                         @ Build address of DWT register
 8000368:	e0001000 	.word	0xe0001000
    LDR     r1, =SYSTICK_CYCLES
 800036c:	003d08ff 	.word	0x003d08ff
    LDR     r1, =0x40FF0000                         @ SysT, PnSV, Rsrv, DbgM
 8000370:	40ff0000 	.word	0x40ff0000
	...

08000380 <_tx_thread_schedule>:
       from the first schedule request. Subsequent scheduling occurs
       from the PendSV handling routine below. */

    /* Clear the preempt-disable flag to enable rescheduling after initialization on Cortex-M targets.  */

    MOV     r0, #0                                  // Build value for TX_FALSE
 8000380:	f04f 0000 	mov.w	r0, #0
    LDR     r2, =_tx_thread_preempt_disable         // Build address of preempt disable flag
 8000384:	4a2a      	ldr	r2, [pc, #168]	; (8000430 <tx_thread_fpu_disable+0x2>)
    STR     r0, [r2, #0]                            // Clear preempt disable flag
 8000386:	6010      	str	r0, [r2, #0]

    /* Clear CONTROL.FPCA bit so VFP registers aren't unnecessarily stacked.  */

#ifdef __ARM_PCS_VFP
    MRS     r0, CONTROL                             // Pickup current CONTROL register
 8000388:	f3ef 8014 	mrs	r0, CONTROL
    BIC     r0, r0, #4                              // Clear the FPCA bit
 800038c:	f020 0004 	bic.w	r0, r0, #4
    MSR     CONTROL, r0                             // Setup new CONTROL register
 8000390:	f380 8814 	msr	CONTROL, r0
#endif

    /* Enable interrupts */
    CPSIE   i
 8000394:	b662      	cpsie	i

    /* Enter the scheduler for the first time.  */

    MOV     r0, #0x10000000                         // Load PENDSVSET bit
 8000396:	f04f 5080 	mov.w	r0, #268435456	; 0x10000000
    MOV     r1, #0xE000E000                         // Load NVIC base
 800039a:	f04f 21e0 	mov.w	r1, #3758153728	; 0xe000e000
    STR     r0, [r1, #0xD04]                        // Set PENDSVBIT in ICSR
 800039e:	f8c1 0d04 	str.w	r0, [r1, #3332]	; 0xd04
    DSB                                             // Complete all memory accesses
 80003a2:	f3bf 8f4f 	dsb	sy
    ISB                                             // Flush pipeline
 80003a6:	f3bf 8f6f 	isb	sy

080003aa <__tx_wait_here>:

    /* Wait here for the PendSV to take place.  */

__tx_wait_here:
    B       __tx_wait_here                          // Wait for the PendSV to happen
 80003aa:	e7fe      	b.n	80003aa <__tx_wait_here>

080003ac <PendSV_Handler>:
    BL      _tx_execution_thread_exit               // Call the thread exit function
    POP     {r0, lr}                                // Recover LR
    CPSIE   i                                       // Enable interrupts
#endif

    LDR     r0, =_tx_thread_current_ptr             // Build current thread pointer address
 80003ac:	4821      	ldr	r0, [pc, #132]	; (8000434 <tx_thread_fpu_disable+0x6>)
    LDR     r2, =_tx_thread_execute_ptr             // Build execute thread pointer address
 80003ae:	4a22      	ldr	r2, [pc, #136]	; (8000438 <tx_thread_fpu_disable+0xa>)
    MOV     r3, #0                                  // Build NULL value
 80003b0:	f04f 0300 	mov.w	r3, #0
    LDR     r1, [r0]                                // Pickup current thread pointer
 80003b4:	6801      	ldr	r1, [r0, #0]

    /* Determine if there is a current thread to finish preserving.  */

    CBZ     r1, __tx_ts_new                         // If NULL, skip preservation
 80003b6:	b191      	cbz	r1, 80003de <__tx_ts_new>

    /* Recover PSP and preserve current thread context.  */

    STR     r3, [r0]                                // Set _tx_thread_current_ptr to NULL
 80003b8:	6003      	str	r3, [r0, #0]
    MRS     r12, PSP                                // Pickup PSP pointer (thread's stack pointer)
 80003ba:	f3ef 8c09 	mrs	ip, PSP
    STMDB   r12!, {r4-r11}                          // Save its remaining registers
 80003be:	e92c 0ff0 	stmdb	ip!, {r4, r5, r6, r7, r8, r9, sl, fp}
#ifdef __ARM_PCS_VFP
    TST     LR, #0x10                               // Determine if the VFP extended frame is present
 80003c2:	f01e 0f10 	tst.w	lr, #16
    BNE     _skip_vfp_save
 80003c6:	d101      	bne.n	80003cc <_skip_vfp_save>
    VSTMDB  r12!,{s16-s31}                          // Yes, save additional VFP registers
 80003c8:	ed2c 8a10 	vstmdb	ip!, {s16-s31}

080003cc <_skip_vfp_save>:
_skip_vfp_save:
#endif
    LDR     r4, =_tx_timer_time_slice               // Build address of time-slice variable
 80003cc:	4c1b      	ldr	r4, [pc, #108]	; (800043c <tx_thread_fpu_disable+0xe>)
    STMDB   r12!, {LR}                              // Save LR on the stack
 80003ce:	f84c ed04 	str.w	lr, [ip, #-4]!

    /* Determine if time-slice is active. If it isn't, skip time handling processing.  */

    LDR     r5, [r4]                                // Pickup current time-slice
 80003d2:	6825      	ldr	r5, [r4, #0]
    STR     r12, [r1, #8]                           // Save the thread stack pointer
 80003d4:	f8c1 c008 	str.w	ip, [r1, #8]
    CBZ     r5, __tx_ts_new                         // If not active, skip processing
 80003d8:	b10d      	cbz	r5, 80003de <__tx_ts_new>

    /* Time-slice is active, save the current thread's time-slice and clear the global time-slice variable.  */

    STR     r5, [r1, #24]                           // Save current time-slice
 80003da:	618d      	str	r5, [r1, #24]

    /* Clear the global time-slice.  */

    STR     r3, [r4]                                // Clear time-slice
 80003dc:	6023      	str	r3, [r4, #0]

080003de <__tx_ts_new>:

__tx_ts_new:

    /* Now we are looking for a new thread to execute!  */

    CPSID   i                                       // Disable interrupts
 80003de:	b672      	cpsid	i
    LDR     r1, [r2]                                // Is there another thread ready to execute?
 80003e0:	6811      	ldr	r1, [r2, #0]
    CBZ     r1, __tx_ts_wait                        // No, skip to the wait processing
 80003e2:	b1b1      	cbz	r1, 8000412 <__tx_ts_wait>

    /* Yes, another thread is ready for else, make the current thread the new thread.  */

    STR     r1, [r0]                                // Setup the current thread pointer to the new thread
 80003e4:	6001      	str	r1, [r0, #0]
    CPSIE   i                                       // Enable interrupts
 80003e6:	b662      	cpsie	i

080003e8 <__tx_ts_restore>:

    /* Increment the thread run count.  */

__tx_ts_restore:
    LDR     r7, [r1, #4]                            // Pickup the current thread run count
 80003e8:	684f      	ldr	r7, [r1, #4]
    LDR     r4, =_tx_timer_time_slice               // Build address of time-slice variable
 80003ea:	4c14      	ldr	r4, [pc, #80]	; (800043c <tx_thread_fpu_disable+0xe>)
    LDR     r5, [r1, #24]                           // Pickup thread's current time-slice
 80003ec:	698d      	ldr	r5, [r1, #24]
    ADD     r7, r7, #1                              // Increment the thread run count
 80003ee:	f107 0701 	add.w	r7, r7, #1
    STR     r7, [r1, #4]                            // Store the new run count
 80003f2:	604f      	str	r7, [r1, #4]

    /* Setup global time-slice with thread's current time-slice.  */

    STR     r5, [r4]                                // Setup global time-slice
 80003f4:	6025      	str	r5, [r4, #0]
    POP     {r0, r1}                                // Recover r0 and r1
#endif

    /* Restore the thread context and PSP.  */

    LDR     r12, [r1, #8]                           // Pickup thread's stack pointer
 80003f6:	f8d1 c008 	ldr.w	ip, [r1, #8]
    LDMIA   r12!, {LR}                              // Pickup LR
 80003fa:	f85c eb04 	ldr.w	lr, [ip], #4
#ifdef __ARM_PCS_VFP
    TST     LR, #0x10                               // Determine if the VFP extended frame is present
 80003fe:	f01e 0f10 	tst.w	lr, #16
    BNE     _skip_vfp_restore                       // If not, skip VFP restore
 8000402:	d101      	bne.n	8000408 <_skip_vfp_restore>
    VLDMIA  r12!, {s16-s31}                         // Yes, restore additional VFP registers
 8000404:	ecbc 8a10 	vldmia	ip!, {s16-s31}

08000408 <_skip_vfp_restore>:
_skip_vfp_restore:
#endif
    LDMIA   r12!, {r4-r11}                          // Recover thread's registers
 8000408:	e8bc 0ff0 	ldmia.w	ip!, {r4, r5, r6, r7, r8, r9, sl, fp}
    MSR     PSP, r12                                // Setup the thread's stack pointer
 800040c:	f38c 8809 	msr	PSP, ip

    /* Return to thread.  */

    BX      lr                                      // Return to thread!
 8000410:	4770      	bx	lr

08000412 <__tx_ts_wait>:
    /* The following is the idle wait processing... in this case, no threads are ready for execution and the
       system will simply be idle until an interrupt occurs that makes a thread ready. Note that interrupts
       are disabled to allow use of WFI for waiting for a thread to arrive.  */

__tx_ts_wait:
    CPSID   i                                       // Disable interrupts
 8000412:	b672      	cpsid	i
    LDR     r1, [r2]                                // Pickup the next thread to execute pointer
 8000414:	6811      	ldr	r1, [r2, #0]
    STR     r1, [r0]                                // Store it in the current pointer
 8000416:	6001      	str	r1, [r0, #0]
    CBNZ    r1, __tx_ts_ready                       // If non-NULL, a new thread is ready!
 8000418:	b909      	cbnz	r1, 800041e <__tx_ts_ready>
    PUSH    {r0-r3}
    BL      tx_low_power_exit                       // Exit low power mode
    POP     {r0-r3}
#endif

    CPSIE   i                                       // Enable interrupts
 800041a:	b662      	cpsie	i
    B       __tx_ts_wait                            // Loop to continue waiting
 800041c:	e7f9      	b.n	8000412 <__tx_ts_wait>

0800041e <__tx_ts_ready>:

    /* At this point, we have a new thread ready to go. Clear any newly pended PendSV - since we are
       already in the handler!  */

__tx_ts_ready:
    MOV     r7, #0x08000000                         // Build clear PendSV value
 800041e:	f04f 6700 	mov.w	r7, #134217728	; 0x8000000
    MOV     r8, #0xE000E000                         // Build base NVIC address
 8000422:	f04f 28e0 	mov.w	r8, #3758153728	; 0xe000e000
    STR     r7, [r8, #0xD04]                        // Clear any PendSV
 8000426:	f8c8 7d04 	str.w	r7, [r8, #3332]	; 0xd04

    /* Re-enable interrupts and restore new thread.  */

    CPSIE   i                                       // Enable interrupts
 800042a:	b662      	cpsie	i
    B       __tx_ts_restore                         // Restore the thread
 800042c:	e7dc      	b.n	80003e8 <__tx_ts_restore>

0800042e <tx_thread_fpu_disable>:
tx_thread_fpu_disable:

    /* Automatic VPF logic is supported, this function is present only for
       backward compatibility purposes and therefore simply returns.  */

    BX      LR                                      // Return to caller
 800042e:	4770      	bx	lr
    LDR     r2, =_tx_thread_preempt_disable         // Build address of preempt disable flag
 8000430:	24002ee4 	.word	0x24002ee4
    LDR     r0, =_tx_thread_current_ptr             // Build current thread pointer address
 8000434:	24002dc4 	.word	0x24002dc4
    LDR     r2, =_tx_thread_execute_ptr             // Build execute thread pointer address
 8000438:	24002dc8 	.word	0x24002dc8
    LDR     r4, =_tx_timer_time_slice               // Build address of time-slice variable
 800043c:	24003454 	.word	0x24003454

08000440 <_tx_thread_stack_build>:
                       pc          Initial value for pc
                       xPSR        Initial value for xPSR

    Stack Bottom: (higher memory address)  */

    LDR     r2, [r0, #16]                           // Pickup end of stack area
 8000440:	6902      	ldr	r2, [r0, #16]
    BIC     r2, r2, #0x7                            // Align frame for 8-byte alignment
 8000442:	f022 0207 	bic.w	r2, r2, #7
    SUB     r2, r2, #68                             // Subtract frame size
 8000446:	f1a2 0244 	sub.w	r2, r2, #68	; 0x44
    LDR     r3, =0xFFFFFFFD                         // Build initial LR value
 800044a:	f06f 0302 	mvn.w	r3, #2
    STR     r3, [r2, #0]                            // Save on the stack
 800044e:	6013      	str	r3, [r2, #0]

    /* Actually build the stack frame.  */

    MOV     r3, #0                                  // Build initial register value
 8000450:	f04f 0300 	mov.w	r3, #0
    STR     r3, [r2, #4]                            // Store initial r4
 8000454:	6053      	str	r3, [r2, #4]
    STR     r3, [r2, #8]                            // Store initial r5
 8000456:	6093      	str	r3, [r2, #8]
    STR     r3, [r2, #12]                           // Store initial r6
 8000458:	60d3      	str	r3, [r2, #12]
    STR     r3, [r2, #16]                           // Store initial r7
 800045a:	6113      	str	r3, [r2, #16]
    STR     r3, [r2, #20]                           // Store initial r8
 800045c:	6153      	str	r3, [r2, #20]
    STR     r3, [r2, #24]                           // Store initial r9
 800045e:	6193      	str	r3, [r2, #24]
    STR     r3, [r2, #28]                           // Store initial r10
 8000460:	61d3      	str	r3, [r2, #28]
    STR     r3, [r2, #32]                           // Store initial r11
 8000462:	6213      	str	r3, [r2, #32]

    /* Hardware stack follows.  */

    STR     r3, [r2, #36]                           // Store initial r0
 8000464:	6253      	str	r3, [r2, #36]	; 0x24
    STR     r3, [r2, #40]                           // Store initial r1
 8000466:	6293      	str	r3, [r2, #40]	; 0x28
    STR     r3, [r2, #44]                           // Store initial r2
 8000468:	62d3      	str	r3, [r2, #44]	; 0x2c
    STR     r3, [r2, #48]                           // Store initial r3
 800046a:	6313      	str	r3, [r2, #48]	; 0x30
    STR     r3, [r2, #52]                           // Store initial r12
 800046c:	6353      	str	r3, [r2, #52]	; 0x34
    MOV     r3, #0xFFFFFFFF                         // Poison EXC_RETURN value
 800046e:	f04f 33ff 	mov.w	r3, #4294967295
    STR     r3, [r2, #56]                           // Store initial lr
 8000472:	6393      	str	r3, [r2, #56]	; 0x38
    STR     r1, [r2, #60]                           // Store initial pc
 8000474:	63d1      	str	r1, [r2, #60]	; 0x3c
    MOV     r3, #0x01000000                         // Only T-bit need be set
 8000476:	f04f 7380 	mov.w	r3, #16777216	; 0x1000000
    STR     r3, [r2, #64]                           // Store initial xPSR
 800047a:	6413      	str	r3, [r2, #64]	; 0x40

    /* Setup stack pointer.  */
    // thread_ptr -> tx_thread_stack_ptr =  r2;

    STR     r2, [r0, #8]                            // Save stack pointer in thread's
 800047c:	6082      	str	r2, [r0, #8]
                                                    //   control block
    BX      lr                                      // Return to caller
 800047e:	4770      	bx	lr

08000480 <_tx_timer_interrupt>:
       for use.  */

    /* Increment the system clock.  */
    // _tx_timer_system_clock++;

    LDR     r1, =_tx_timer_system_clock             // Pickup address of system clock
 8000480:	4922      	ldr	r1, [pc, #136]	; (800050c <__tx_timer_nothing_expired+0x6>)
    LDR     r0, [r1, #0]                            // Pickup system clock
 8000482:	6808      	ldr	r0, [r1, #0]
    ADD     r0, r0, #1                              // Increment system clock
 8000484:	f100 0001 	add.w	r0, r0, #1
    STR     r0, [r1, #0]                            // Store new system clock
 8000488:	6008      	str	r0, [r1, #0]

    /* Test for time-slice expiration.  */
    // if (_tx_timer_time_slice)
    // {

    LDR     r3, =_tx_timer_time_slice               // Pickup address of time-slice
 800048a:	4b21      	ldr	r3, [pc, #132]	; (8000510 <__tx_timer_nothing_expired+0xa>)
    LDR     r2, [r3, #0]                            // Pickup time-slice
 800048c:	681a      	ldr	r2, [r3, #0]
    CBZ     r2, __tx_timer_no_time_slice            // Is it non-active?
 800048e:	b13a      	cbz	r2, 80004a0 <__tx_timer_no_time_slice>
                                                    // Yes, skip time-slice processing

       /* Decrement the time_slice.  */
       // _tx_timer_time_slice--;

    SUB     r2, r2, #1                              // Decrement the time-slice
 8000490:	f1a2 0201 	sub.w	r2, r2, #1
    STR     r2, [r3, #0]                            // Store new time-slice value
 8000494:	601a      	str	r2, [r3, #0]

       /* Check for expiration.  */
       // if (__tx_timer_time_slice == 0)

    CBNZ    r2, __tx_timer_no_time_slice            // Has it expired?
 8000496:	b91a      	cbnz	r2, 80004a0 <__tx_timer_no_time_slice>
                                                    // No, skip expiration processing

       /* Set the time-slice expired flag.  */
       // _tx_timer_expired_time_slice =  TX_TRUE;

    LDR     r3, =_tx_timer_expired_time_slice       // Pickup address of expired flag
 8000498:	4b1e      	ldr	r3, [pc, #120]	; (8000514 <__tx_timer_nothing_expired+0xe>)
    MOV     r0, #1                                  // Build expired value
 800049a:	f04f 0001 	mov.w	r0, #1
    STR     r0, [r3, #0]                            // Set time-slice expiration flag
 800049e:	6018      	str	r0, [r3, #0]

080004a0 <__tx_timer_no_time_slice>:

    /* Test for timer expiration.  */
    // if (*_tx_timer_current_ptr)
    // {

    LDR     r1, =_tx_timer_current_ptr              // Pickup current timer pointer address
 80004a0:	491d      	ldr	r1, [pc, #116]	; (8000518 <__tx_timer_nothing_expired+0x12>)
    LDR     r0, [r1, #0]                            // Pickup current timer
 80004a2:	6808      	ldr	r0, [r1, #0]
    LDR     r2, [r0, #0]                            // Pickup timer list entry
 80004a4:	6802      	ldr	r2, [r0, #0]
    CBZ     r2, __tx_timer_no_timer                 // Is there anything in the list?
 80004a6:	b122      	cbz	r2, 80004b2 <__tx_timer_no_timer>
                                                    // No, just increment the timer

        /* Set expiration flag.  */
        // _tx_timer_expired =  TX_TRUE;

    LDR     r3, =_tx_timer_expired                  // Pickup expiration flag address
 80004a8:	4b1c      	ldr	r3, [pc, #112]	; (800051c <__tx_timer_nothing_expired+0x16>)
    MOV     r2, #1                                  // Build expired value
 80004aa:	f04f 0201 	mov.w	r2, #1
    STR     r2, [r3, #0]                            // Set expired flag
 80004ae:	601a      	str	r2, [r3, #0]
    B       __tx_timer_done                         // Finished timer processing
 80004b0:	e008      	b.n	80004c4 <__tx_timer_done>

080004b2 <__tx_timer_no_timer>:
__tx_timer_no_timer:

        /* No timer expired, increment the timer pointer.  */
        // _tx_timer_current_ptr++;

    ADD     r0, r0, #4                              // Move to next timer
 80004b2:	f100 0004 	add.w	r0, r0, #4

        /* Check for wrap-around.  */
        // if (_tx_timer_current_ptr == _tx_timer_list_end)

    LDR     r3, =_tx_timer_list_end                 // Pickup addr of timer list end
 80004b6:	4b1a      	ldr	r3, [pc, #104]	; (8000520 <__tx_timer_nothing_expired+0x1a>)
    LDR     r2, [r3, #0]                            // Pickup list end
 80004b8:	681a      	ldr	r2, [r3, #0]
    CMP     r0, r2                                  // Are we at list end?
 80004ba:	4290      	cmp	r0, r2
    BNE     __tx_timer_skip_wrap                    // No, skip wrap-around logic
 80004bc:	d101      	bne.n	80004c2 <__tx_timer_skip_wrap>

            /* Wrap to beginning of list.  */
            // _tx_timer_current_ptr =  _tx_timer_list_start;

    LDR     r3, =_tx_timer_list_start               // Pickup addr of timer list start
 80004be:	4b19      	ldr	r3, [pc, #100]	; (8000524 <__tx_timer_nothing_expired+0x1e>)
    LDR     r0, [r3, #0]                            // Set current pointer to list start
 80004c0:	6818      	ldr	r0, [r3, #0]

080004c2 <__tx_timer_skip_wrap>:

__tx_timer_skip_wrap:

    STR     r0, [r1, #0]                            // Store new current timer pointer
 80004c2:	6008      	str	r0, [r1, #0]

080004c4 <__tx_timer_done>:

    /* See if anything has expired.  */
    // if ((_tx_timer_expired_time_slice) || (_tx_timer_expired))
    // {

    LDR     r3, =_tx_timer_expired_time_slice       // Pickup addr of expired flag
 80004c4:	4b13      	ldr	r3, [pc, #76]	; (8000514 <__tx_timer_nothing_expired+0xe>)
    LDR     r2, [r3, #0]                            // Pickup time-slice expired flag
 80004c6:	681a      	ldr	r2, [r3, #0]
    CBNZ    r2, __tx_something_expired              // Did a time-slice expire?
 80004c8:	b912      	cbnz	r2, 80004d0 <__tx_something_expired>
                                                    // If non-zero, time-slice expired
    LDR     r1, =_tx_timer_expired                  // Pickup addr of other expired flag
 80004ca:	4914      	ldr	r1, [pc, #80]	; (800051c <__tx_timer_nothing_expired+0x16>)
    LDR     r0, [r1, #0]                            // Pickup timer expired flag
 80004cc:	6808      	ldr	r0, [r1, #0]
    CBZ     r0, __tx_timer_nothing_expired          // Did a timer expire?
 80004ce:	b1d0      	cbz	r0, 8000506 <__tx_timer_nothing_expired>

080004d0 <__tx_something_expired>:
                                                    // No, nothing expired

__tx_something_expired:

    STMDB   sp!, {r0, lr}                           // Save the lr register on the stack
 80004d0:	e92d 4001 	stmdb	sp!, {r0, lr}

    /* Did a timer expire?  */
    // if (_tx_timer_expired)
    // {

    LDR     r1, =_tx_timer_expired                  // Pickup addr of expired flag
 80004d4:	4911      	ldr	r1, [pc, #68]	; (800051c <__tx_timer_nothing_expired+0x16>)
    LDR     r0, [r1, #0]                            // Pickup timer expired flag
 80004d6:	6808      	ldr	r0, [r1, #0]
    CBZ     r0, __tx_timer_dont_activate            // Check for timer expiration
 80004d8:	b108      	cbz	r0, 80004de <__tx_timer_dont_activate>
                                                    // If not set, skip timer activation

        /* Process timer expiration.  */
        // _tx_timer_expiration_process();

    BL      _tx_timer_expiration_process            // Call the timer expiration handling routine
 80004da:	f004 f9db 	bl	8004894 <_tx_timer_expiration_process>

080004de <__tx_timer_dont_activate>:

    /* Did time slice expire?  */
    // if (_tx_timer_expired_time_slice)
    // {

    LDR     r3, =_tx_timer_expired_time_slice       // Pickup addr of time-slice expired
 80004de:	4b0d      	ldr	r3, [pc, #52]	; (8000514 <__tx_timer_nothing_expired+0xe>)
    LDR     r2, [r3, #0]                            // Pickup the actual flag
 80004e0:	681a      	ldr	r2, [r3, #0]
    CBZ     r2, __tx_timer_not_ts_expiration        // See if the flag is set
 80004e2:	b172      	cbz	r2, 8000502 <__tx_timer_not_ts_expiration>
                                                    // No, skip time-slice processing

        /* Time slice interrupted thread.  */
        // _tx_thread_time_slice();

    BL      _tx_thread_time_slice                   // Call time-slice processing
 80004e4:	f004 f948 	bl	8004778 <_tx_thread_time_slice>
    LDR     r0, =_tx_thread_preempt_disable         // Build address of preempt disable flag
 80004e8:	480f      	ldr	r0, [pc, #60]	; (8000528 <__tx_timer_nothing_expired+0x22>)
    LDR     r1, [r0]                                // Is the preempt disable flag set?
 80004ea:	6801      	ldr	r1, [r0, #0]
    CBNZ    r1, __tx_timer_skip_time_slice          // Yes, skip the PendSV logic
 80004ec:	b949      	cbnz	r1, 8000502 <__tx_timer_not_ts_expiration>
    LDR     r0, =_tx_thread_current_ptr             // Build current thread pointer address
 80004ee:	480f      	ldr	r0, [pc, #60]	; (800052c <__tx_timer_nothing_expired+0x26>)
    LDR     r1, [r0]                                // Pickup the current thread pointer
 80004f0:	6801      	ldr	r1, [r0, #0]
    LDR     r2, =_tx_thread_execute_ptr             // Build execute thread pointer address
 80004f2:	4a0f      	ldr	r2, [pc, #60]	; (8000530 <__tx_timer_nothing_expired+0x2a>)
    LDR     r3, [r2]                                // Pickup the execute thread pointer
 80004f4:	6813      	ldr	r3, [r2, #0]
    LDR     r0, =0xE000ED04                         // Build address of control register
 80004f6:	480f      	ldr	r0, [pc, #60]	; (8000534 <__tx_timer_nothing_expired+0x2e>)
    LDR     r2, =0x10000000                         // Build value for PendSV bit
 80004f8:	f04f 5280 	mov.w	r2, #268435456	; 0x10000000
    CMP     r1, r3                                  // Are they the same?
 80004fc:	4299      	cmp	r1, r3
    BEQ     __tx_timer_skip_time_slice              // If the same, there was no time-slice performed
 80004fe:	d000      	beq.n	8000502 <__tx_timer_not_ts_expiration>
    STR     r2, [r0]                                // Not the same, issue the PendSV for preemption
 8000500:	6002      	str	r2, [r0, #0]

08000502 <__tx_timer_not_ts_expiration>:

    // }

__tx_timer_not_ts_expiration:

    LDMIA   sp!, {r0, lr}                           // Recover lr register (r0 is just there for
 8000502:	e8bd 4001 	ldmia.w	sp!, {r0, lr}

08000506 <__tx_timer_nothing_expired>:

    // }

__tx_timer_nothing_expired:

    DSB                                             // Complete all memory access
 8000506:	f3bf 8f4f 	dsb	sy
    BX      lr                                      // Return to caller
 800050a:	4770      	bx	lr
    LDR     r1, =_tx_timer_system_clock             // Pickup address of system clock
 800050c:	24002ef0 	.word	0x24002ef0
    LDR     r3, =_tx_timer_time_slice               // Pickup address of time-slice
 8000510:	24003454 	.word	0x24003454
    LDR     r3, =_tx_timer_expired_time_slice       // Pickup address of expired flag
 8000514:	24002ef4 	.word	0x24002ef4
    LDR     r1, =_tx_timer_current_ptr              // Pickup current timer pointer address
 8000518:	24002f80 	.word	0x24002f80
    LDR     r3, =_tx_timer_expired                  // Pickup expiration flag address
 800051c:	24002f84 	.word	0x24002f84
    LDR     r3, =_tx_timer_list_end                 // Pickup addr of timer list end
 8000520:	24002f7c 	.word	0x24002f7c
    LDR     r3, =_tx_timer_list_start               // Pickup addr of timer list start
 8000524:	24002f78 	.word	0x24002f78
    LDR     r0, =_tx_thread_preempt_disable         // Build address of preempt disable flag
 8000528:	24002ee4 	.word	0x24002ee4
    LDR     r0, =_tx_thread_current_ptr             // Build current thread pointer address
 800052c:	24002dc4 	.word	0x24002dc4
    LDR     r2, =_tx_thread_execute_ptr             // Build execute thread pointer address
 8000530:	24002dc8 	.word	0x24002dc8
    LDR     r0, =0xE000ED04                         // Build address of control register
 8000534:	e000ed04 	.word	0xe000ed04

08000538 <tx_application_define>:
  * @brief  Define the initial system.
  * @param  first_unused_memory : Pointer to the first unused memory
  * @retval None
  */
VOID tx_application_define(VOID *first_unused_memory)
{
 8000538:	b580      	push	{r7, lr}
 800053a:	b086      	sub	sp, #24
 800053c:	af02      	add	r7, sp, #8
 800053e:	6078      	str	r0, [r7, #4]

  /* USER CODE END  tx_application_define */

  VOID *memory_ptr;

  if (tx_byte_pool_create(&tx_app_byte_pool, "Tx App memory pool", tx_byte_pool_buffer, TX_APP_MEM_POOL_SIZE) != TX_SUCCESS)
 8000540:	2334      	movs	r3, #52	; 0x34
 8000542:	9300      	str	r3, [sp, #0]
 8000544:	f44f 5320 	mov.w	r3, #10240	; 0x2800
 8000548:	4a10      	ldr	r2, [pc, #64]	; (800058c <tx_application_define+0x54>)
 800054a:	4911      	ldr	r1, [pc, #68]	; (8000590 <tx_application_define+0x58>)
 800054c:	4811      	ldr	r0, [pc, #68]	; (8000594 <tx_application_define+0x5c>)
 800054e:	f004 fc4b 	bl	8004de8 <_txe_byte_pool_create>
 8000552:	4603      	mov	r3, r0
 8000554:	2b00      	cmp	r3, #0
 8000556:	d104      	bne.n	8000562 <tx_application_define+0x2a>
  {
    /* USER CODE BEGIN TX_Byte_Pool_Success */

    /* USER CODE END TX_Byte_Pool_Success */

    memory_ptr = (VOID *)&tx_app_byte_pool;
 8000558:	4b0e      	ldr	r3, [pc, #56]	; (8000594 <tx_application_define+0x5c>)
 800055a:	60fb      	str	r3, [r7, #12]

    if (App_ThreadX_Init(memory_ptr) != TX_SUCCESS)
 800055c:	68f8      	ldr	r0, [r7, #12]
 800055e:	f000 f990 	bl	8000882 <App_ThreadX_Init>

    /* USER CODE END  App_ThreadX_Init_Success */

  }

  if (tx_byte_pool_create(&fx_app_byte_pool, "Fx App memory pool", fx_byte_pool_buffer, FX_APP_MEM_POOL_SIZE) != TX_SUCCESS)
 8000562:	2334      	movs	r3, #52	; 0x34
 8000564:	9300      	str	r3, [sp, #0]
 8000566:	f44f 6380 	mov.w	r3, #1024	; 0x400
 800056a:	4a0b      	ldr	r2, [pc, #44]	; (8000598 <tx_application_define+0x60>)
 800056c:	490b      	ldr	r1, [pc, #44]	; (800059c <tx_application_define+0x64>)
 800056e:	480c      	ldr	r0, [pc, #48]	; (80005a0 <tx_application_define+0x68>)
 8000570:	f004 fc3a 	bl	8004de8 <_txe_byte_pool_create>
 8000574:	4603      	mov	r3, r0
 8000576:	2b00      	cmp	r3, #0
 8000578:	d104      	bne.n	8000584 <tx_application_define+0x4c>
  {
    /* USER CODE BEGIN FX_Byte_Pool_Success */

    /* USER CODE END FX_Byte_Pool_Success */

    memory_ptr = (VOID *)&fx_app_byte_pool;
 800057a:	4b09      	ldr	r3, [pc, #36]	; (80005a0 <tx_application_define+0x68>)
 800057c:	60fb      	str	r3, [r7, #12]

    if (MX_FileX_Init(memory_ptr) != FX_SUCCESS)
 800057e:	68f8      	ldr	r0, [r7, #12]
 8000580:	f001 ff46 	bl	8002410 <MX_FileX_Init>
    /* USER CODE BEGIN MX_FileX_Init_Success */

    /* USER CODE END MX_FileX_Init_Success */
  }

}
 8000584:	bf00      	nop
 8000586:	3710      	adds	r7, #16
 8000588:	46bd      	mov	sp, r7
 800058a:	bd80      	pop	{r7, pc}
 800058c:	24000054 	.word	0x24000054
 8000590:	080054ac 	.word	0x080054ac
 8000594:	24002854 	.word	0x24002854
 8000598:	24002888 	.word	0x24002888
 800059c:	080054c0 	.word	0x080054c0
 80005a0:	24002c88 	.word	0x24002c88

080005a4 <SystemInit>:
  *         configuration.
  * @param  None
  * @retval None
  */
void SystemInit (void)
{
 80005a4:	b480      	push	{r7}
 80005a6:	af00      	add	r7, sp, #0
  /* FPU settings ------------------------------------------------------------*/
  #if (__FPU_PRESENT == 1) && (__FPU_USED == 1)
    SCB->CPACR |= ((3UL << (10*2))|(3UL << (11*2)));  /* set CP10 and CP11 Full Access */
 80005a8:	4b3f      	ldr	r3, [pc, #252]	; (80006a8 <SystemInit+0x104>)
 80005aa:	f8d3 3088 	ldr.w	r3, [r3, #136]	; 0x88
 80005ae:	4a3e      	ldr	r2, [pc, #248]	; (80006a8 <SystemInit+0x104>)
 80005b0:	f443 0370 	orr.w	r3, r3, #15728640	; 0xf00000
 80005b4:	f8c2 3088 	str.w	r3, [r2, #136]	; 0x88
  #endif

    /*SEVONPEND enabled so that an interrupt coming from the CPU(n) interrupt signal is
     detectable by the CPU after a WFI/WFE instruction.*/
 SCB->SCR |= SCB_SCR_SEVONPEND_Msk;
 80005b8:	4b3b      	ldr	r3, [pc, #236]	; (80006a8 <SystemInit+0x104>)
 80005ba:	691b      	ldr	r3, [r3, #16]
 80005bc:	4a3a      	ldr	r2, [pc, #232]	; (80006a8 <SystemInit+0x104>)
 80005be:	f043 0310 	orr.w	r3, r3, #16
 80005c2:	6113      	str	r3, [r2, #16]

#ifdef CORE_CM7
  /* Reset the RCC clock configuration to the default reset state ------------*/
   /* Increasing the CPU frequency */
  if(FLASH_LATENCY_DEFAULT  > (READ_BIT((FLASH->ACR), FLASH_ACR_LATENCY)))
 80005c4:	4b39      	ldr	r3, [pc, #228]	; (80006ac <SystemInit+0x108>)
 80005c6:	681b      	ldr	r3, [r3, #0]
 80005c8:	f003 030f 	and.w	r3, r3, #15
 80005cc:	2b06      	cmp	r3, #6
 80005ce:	d807      	bhi.n	80005e0 <SystemInit+0x3c>
  {
    /* Program the new number of wait states to the LATENCY bits in the FLASH_ACR register */
	MODIFY_REG(FLASH->ACR, FLASH_ACR_LATENCY, (uint32_t)(FLASH_LATENCY_DEFAULT));
 80005d0:	4b36      	ldr	r3, [pc, #216]	; (80006ac <SystemInit+0x108>)
 80005d2:	681b      	ldr	r3, [r3, #0]
 80005d4:	f023 030f 	bic.w	r3, r3, #15
 80005d8:	4a34      	ldr	r2, [pc, #208]	; (80006ac <SystemInit+0x108>)
 80005da:	f043 0307 	orr.w	r3, r3, #7
 80005de:	6013      	str	r3, [r2, #0]
  }

  /* Set HSION bit */
  RCC->CR |= RCC_CR_HSION;
 80005e0:	4b33      	ldr	r3, [pc, #204]	; (80006b0 <SystemInit+0x10c>)
 80005e2:	681b      	ldr	r3, [r3, #0]
 80005e4:	4a32      	ldr	r2, [pc, #200]	; (80006b0 <SystemInit+0x10c>)
 80005e6:	f043 0301 	orr.w	r3, r3, #1
 80005ea:	6013      	str	r3, [r2, #0]

  /* Reset CFGR register */
  RCC->CFGR = 0x00000000;
 80005ec:	4b30      	ldr	r3, [pc, #192]	; (80006b0 <SystemInit+0x10c>)
 80005ee:	2200      	movs	r2, #0
 80005f0:	611a      	str	r2, [r3, #16]

  /* Reset HSEON, HSECSSON, CSION, RC48ON, CSIKERON, PLL1ON, PLL2ON and PLL3ON bits */
  RCC->CR &= 0xEAF6ED7FU;
 80005f2:	4b2f      	ldr	r3, [pc, #188]	; (80006b0 <SystemInit+0x10c>)
 80005f4:	681a      	ldr	r2, [r3, #0]
 80005f6:	492e      	ldr	r1, [pc, #184]	; (80006b0 <SystemInit+0x10c>)
 80005f8:	4b2e      	ldr	r3, [pc, #184]	; (80006b4 <SystemInit+0x110>)
 80005fa:	4013      	ands	r3, r2
 80005fc:	600b      	str	r3, [r1, #0]

   /* Decreasing the number of wait states because of lower CPU frequency */
  if(FLASH_LATENCY_DEFAULT  < (READ_BIT((FLASH->ACR), FLASH_ACR_LATENCY)))
 80005fe:	4b2b      	ldr	r3, [pc, #172]	; (80006ac <SystemInit+0x108>)
 8000600:	681b      	ldr	r3, [r3, #0]
 8000602:	f003 0308 	and.w	r3, r3, #8
 8000606:	2b00      	cmp	r3, #0
 8000608:	d007      	beq.n	800061a <SystemInit+0x76>
  {
    /* Program the new number of wait states to the LATENCY bits in the FLASH_ACR register */
	MODIFY_REG(FLASH->ACR, FLASH_ACR_LATENCY, (uint32_t)(FLASH_LATENCY_DEFAULT));
 800060a:	4b28      	ldr	r3, [pc, #160]	; (80006ac <SystemInit+0x108>)
 800060c:	681b      	ldr	r3, [r3, #0]
 800060e:	f023 030f 	bic.w	r3, r3, #15
 8000612:	4a26      	ldr	r2, [pc, #152]	; (80006ac <SystemInit+0x108>)
 8000614:	f043 0307 	orr.w	r3, r3, #7
 8000618:	6013      	str	r3, [r2, #0]
  }

  /* Reset D1CFGR register */
  RCC->D1CFGR = 0x00000000;
 800061a:	4b25      	ldr	r3, [pc, #148]	; (80006b0 <SystemInit+0x10c>)
 800061c:	2200      	movs	r2, #0
 800061e:	619a      	str	r2, [r3, #24]

  /* Reset D2CFGR register */
  RCC->D2CFGR = 0x00000000;
 8000620:	4b23      	ldr	r3, [pc, #140]	; (80006b0 <SystemInit+0x10c>)
 8000622:	2200      	movs	r2, #0
 8000624:	61da      	str	r2, [r3, #28]

  /* Reset D3CFGR register */
  RCC->D3CFGR = 0x00000000;
 8000626:	4b22      	ldr	r3, [pc, #136]	; (80006b0 <SystemInit+0x10c>)
 8000628:	2200      	movs	r2, #0
 800062a:	621a      	str	r2, [r3, #32]

  /* Reset PLLCKSELR register */
  RCC->PLLCKSELR = 0x02020200;
 800062c:	4b20      	ldr	r3, [pc, #128]	; (80006b0 <SystemInit+0x10c>)
 800062e:	4a22      	ldr	r2, [pc, #136]	; (80006b8 <SystemInit+0x114>)
 8000630:	629a      	str	r2, [r3, #40]	; 0x28

  /* Reset PLLCFGR register */
  RCC->PLLCFGR = 0x01FF0000;
 8000632:	4b1f      	ldr	r3, [pc, #124]	; (80006b0 <SystemInit+0x10c>)
 8000634:	4a21      	ldr	r2, [pc, #132]	; (80006bc <SystemInit+0x118>)
 8000636:	62da      	str	r2, [r3, #44]	; 0x2c
  /* Reset PLL1DIVR register */
  RCC->PLL1DIVR = 0x01010280;
 8000638:	4b1d      	ldr	r3, [pc, #116]	; (80006b0 <SystemInit+0x10c>)
 800063a:	4a21      	ldr	r2, [pc, #132]	; (80006c0 <SystemInit+0x11c>)
 800063c:	631a      	str	r2, [r3, #48]	; 0x30
  /* Reset PLL1FRACR register */
  RCC->PLL1FRACR = 0x00000000;
 800063e:	4b1c      	ldr	r3, [pc, #112]	; (80006b0 <SystemInit+0x10c>)
 8000640:	2200      	movs	r2, #0
 8000642:	635a      	str	r2, [r3, #52]	; 0x34

  /* Reset PLL2DIVR register */
  RCC->PLL2DIVR = 0x01010280;
 8000644:	4b1a      	ldr	r3, [pc, #104]	; (80006b0 <SystemInit+0x10c>)
 8000646:	4a1e      	ldr	r2, [pc, #120]	; (80006c0 <SystemInit+0x11c>)
 8000648:	639a      	str	r2, [r3, #56]	; 0x38

  /* Reset PLL2FRACR register */

  RCC->PLL2FRACR = 0x00000000;
 800064a:	4b19      	ldr	r3, [pc, #100]	; (80006b0 <SystemInit+0x10c>)
 800064c:	2200      	movs	r2, #0
 800064e:	63da      	str	r2, [r3, #60]	; 0x3c
  /* Reset PLL3DIVR register */
  RCC->PLL3DIVR = 0x01010280;
 8000650:	4b17      	ldr	r3, [pc, #92]	; (80006b0 <SystemInit+0x10c>)
 8000652:	4a1b      	ldr	r2, [pc, #108]	; (80006c0 <SystemInit+0x11c>)
 8000654:	641a      	str	r2, [r3, #64]	; 0x40

  /* Reset PLL3FRACR register */
  RCC->PLL3FRACR = 0x00000000;
 8000656:	4b16      	ldr	r3, [pc, #88]	; (80006b0 <SystemInit+0x10c>)
 8000658:	2200      	movs	r2, #0
 800065a:	645a      	str	r2, [r3, #68]	; 0x44

  /* Reset HSEBYP bit */
  RCC->CR &= 0xFFFBFFFFU;
 800065c:	4b14      	ldr	r3, [pc, #80]	; (80006b0 <SystemInit+0x10c>)
 800065e:	681b      	ldr	r3, [r3, #0]
 8000660:	4a13      	ldr	r2, [pc, #76]	; (80006b0 <SystemInit+0x10c>)
 8000662:	f423 2380 	bic.w	r3, r3, #262144	; 0x40000
 8000666:	6013      	str	r3, [r2, #0]

  /* Disable all interrupts */
  RCC->CIER = 0x00000000;
 8000668:	4b11      	ldr	r3, [pc, #68]	; (80006b0 <SystemInit+0x10c>)
 800066a:	2200      	movs	r2, #0
 800066c:	661a      	str	r2, [r3, #96]	; 0x60

  /* Enable CortexM7 HSEM EXTI line (line 78)*/
  EXTI_D2->EMR3 |= 0x4000UL;
 800066e:	4b15      	ldr	r3, [pc, #84]	; (80006c4 <SystemInit+0x120>)
 8000670:	6a5b      	ldr	r3, [r3, #36]	; 0x24
 8000672:	4a14      	ldr	r2, [pc, #80]	; (80006c4 <SystemInit+0x120>)
 8000674:	f443 4380 	orr.w	r3, r3, #16384	; 0x4000
 8000678:	6253      	str	r3, [r2, #36]	; 0x24


  if((DBGMCU->IDCODE & 0xFFFF0000U) < 0x20000000U)
 800067a:	4b13      	ldr	r3, [pc, #76]	; (80006c8 <SystemInit+0x124>)
 800067c:	681a      	ldr	r2, [r3, #0]
 800067e:	4b13      	ldr	r3, [pc, #76]	; (80006cc <SystemInit+0x128>)
 8000680:	4013      	ands	r3, r2
 8000682:	f1b3 5f00 	cmp.w	r3, #536870912	; 0x20000000
 8000686:	d202      	bcs.n	800068e <SystemInit+0xea>
  {
    /* if stm32h7 revY*/
    /* Change  the switch matrix read issuing capability to 1 for the AXI SRAM target (Target 7) */
    *((__IO uint32_t*)0x51008108) = 0x000000001U;
 8000688:	4b11      	ldr	r3, [pc, #68]	; (80006d0 <SystemInit+0x12c>)
 800068a:	2201      	movs	r2, #1
 800068c:	601a      	str	r2, [r3, #0]
  /*
   * Disable the FMC bank1 (enabled after reset).
   * This, prevents CPU speculation access on this bank which blocks the use of FMC during
   * 24us. During this time the others FMC master (such as LTDC) cannot use it!
   */
  FMC_Bank1_R->BTCR[0] = 0x000030D2;
 800068e:	4b11      	ldr	r3, [pc, #68]	; (80006d4 <SystemInit+0x130>)
 8000690:	f243 02d2 	movw	r2, #12498	; 0x30d2
 8000694:	601a      	str	r2, [r3, #0]

  /* Configure the Vector Table location add offset address ------------------*/
#ifdef VECT_TAB_SRAM
  SCB->VTOR = D1_AXISRAM_BASE  | VECT_TAB_OFFSET; /* Vector Table Relocation in Internal D1 AXI-RAM */
#else
  SCB->VTOR = FLASH_BANK1_BASE | VECT_TAB_OFFSET;       /* Vector Table Relocation in Internal FLASH */
 8000696:	4b04      	ldr	r3, [pc, #16]	; (80006a8 <SystemInit+0x104>)
 8000698:	f04f 6200 	mov.w	r2, #134217728	; 0x8000000
 800069c:	609a      	str	r2, [r3, #8]
#else
#error Please #define CORE_CM4 or CORE_CM7
#endif
#endif

}
 800069e:	bf00      	nop
 80006a0:	46bd      	mov	sp, r7
 80006a2:	f85d 7b04 	ldr.w	r7, [sp], #4
 80006a6:	4770      	bx	lr
 80006a8:	e000ed00 	.word	0xe000ed00
 80006ac:	52002000 	.word	0x52002000
 80006b0:	58024400 	.word	0x58024400
 80006b4:	eaf6ed7f 	.word	0xeaf6ed7f
 80006b8:	02020200 	.word	0x02020200
 80006bc:	01ff0000 	.word	0x01ff0000
 80006c0:	01010280 	.word	0x01010280
 80006c4:	580000c0 	.word	0x580000c0
 80006c8:	5c001000 	.word	0x5c001000
 80006cc:	ffff0000 	.word	0xffff0000
 80006d0:	51008108 	.word	0x51008108
 80006d4:	52004000 	.word	0x52004000

080006d8 <Create_App_Threads>:

//uint32_t array[10000];
static VOID LED_thred_entry();
static VOID Ideal_thred_entry();

void Create_App_Threads(VOID *memory_ptr){
 80006d8:	b580      	push	{r7, lr}
 80006da:	b086      	sub	sp, #24
 80006dc:	af00      	add	r7, sp, #0
 80006de:	6078      	str	r0, [r7, #4]
	UINT ret = TX_SUCCESS;
 80006e0:	2300      	movs	r3, #0
 80006e2:	617b      	str	r3, [r7, #20]

	TX_BYTE_POOL *byte_pool = (TX_BYTE_POOL*)memory_ptr;
 80006e4:	687b      	ldr	r3, [r7, #4]
 80006e6:	613b      	str	r3, [r7, #16]
	CHAR *pointer;

	(void)byte_pool;

	//allocate the stack for thread
	ret = tx_byte_allocate(byte_pool, (VOID **) &pointer, 3072, TX_NO_WAIT);
 80006e8:	f107 010c 	add.w	r1, r7, #12
 80006ec:	2300      	movs	r3, #0
 80006ee:	f44f 6240 	mov.w	r2, #3072	; 0xc00
 80006f2:	6938      	ldr	r0, [r7, #16]
 80006f4:	f004 fb04 	bl	8004d00 <_txe_byte_allocate>
 80006f8:	6178      	str	r0, [r7, #20]
	if(ret == TX_SUCCESS){
 80006fa:	697b      	ldr	r3, [r7, #20]
 80006fc:	2b00      	cmp	r3, #0
 80006fe:	d111      	bne.n	8000724 <Create_App_Threads+0x4c>
		attr.name = "Thread_one";
 8000700:	4b1b      	ldr	r3, [pc, #108]	; (8000770 <Create_App_Threads+0x98>)
 8000702:	4a1c      	ldr	r2, [pc, #112]	; (8000774 <Create_App_Threads+0x9c>)
 8000704:	601a      	str	r2, [r3, #0]
		attr.stack_mem = pointer;
 8000706:	68fb      	ldr	r3, [r7, #12]
 8000708:	4a19      	ldr	r2, [pc, #100]	; (8000770 <Create_App_Threads+0x98>)
 800070a:	6113      	str	r3, [r2, #16]
		attr.stack_size = 3072;
 800070c:	4b18      	ldr	r3, [pc, #96]	; (8000770 <Create_App_Threads+0x98>)
 800070e:	f44f 6240 	mov.w	r2, #3072	; 0xc00
 8000712:	615a      	str	r2, [r3, #20]
		Threadone = osThreadNew(LED_thred_entry,NULL, (const osThreadAttr_t *)&attr);
 8000714:	4a16      	ldr	r2, [pc, #88]	; (8000770 <Create_App_Threads+0x98>)
 8000716:	2100      	movs	r1, #0
 8000718:	4817      	ldr	r0, [pc, #92]	; (8000778 <Create_App_Threads+0xa0>)
 800071a:	f001 ff7f 	bl	800261c <osThreadNew>
 800071e:	4603      	mov	r3, r0
 8000720:	4a16      	ldr	r2, [pc, #88]	; (800077c <Create_App_Threads+0xa4>)
 8000722:	6013      	str	r3, [r2, #0]
	}
	if(ret == TX_SUCCESS){
 8000724:	697b      	ldr	r3, [r7, #20]
 8000726:	2b00      	cmp	r3, #0
 8000728:	d108      	bne.n	800073c <Create_App_Threads+0x64>
	//allocate the stack for thread
		ret = tx_byte_allocate(byte_pool, (VOID **) &pointer, 1024, TX_NO_WAIT);
 800072a:	f107 010c 	add.w	r1, r7, #12
 800072e:	2300      	movs	r3, #0
 8000730:	f44f 6280 	mov.w	r2, #1024	; 0x400
 8000734:	6938      	ldr	r0, [r7, #16]
 8000736:	f004 fae3 	bl	8004d00 <_txe_byte_allocate>
 800073a:	6178      	str	r0, [r7, #20]
	}
	if(ret == TX_SUCCESS){
 800073c:	697b      	ldr	r3, [r7, #20]
 800073e:	2b00      	cmp	r3, #0
 8000740:	d111      	bne.n	8000766 <Create_App_Threads+0x8e>
		attr.name = "Thread_two";
 8000742:	4b0b      	ldr	r3, [pc, #44]	; (8000770 <Create_App_Threads+0x98>)
 8000744:	4a0e      	ldr	r2, [pc, #56]	; (8000780 <Create_App_Threads+0xa8>)
 8000746:	601a      	str	r2, [r3, #0]
		attr.stack_mem = pointer;
 8000748:	68fb      	ldr	r3, [r7, #12]
 800074a:	4a09      	ldr	r2, [pc, #36]	; (8000770 <Create_App_Threads+0x98>)
 800074c:	6113      	str	r3, [r2, #16]
		attr.stack_size = 1024;
 800074e:	4b08      	ldr	r3, [pc, #32]	; (8000770 <Create_App_Threads+0x98>)
 8000750:	f44f 6280 	mov.w	r2, #1024	; 0x400
 8000754:	615a      	str	r2, [r3, #20]
		Threadtwo = osThreadNew(Ideal_thred_entry, NULL, (const osThreadAttr_t *)&attr);
 8000756:	4a06      	ldr	r2, [pc, #24]	; (8000770 <Create_App_Threads+0x98>)
 8000758:	2100      	movs	r1, #0
 800075a:	480a      	ldr	r0, [pc, #40]	; (8000784 <Create_App_Threads+0xac>)
 800075c:	f001 ff5e 	bl	800261c <osThreadNew>
 8000760:	4603      	mov	r3, r0
 8000762:	4a09      	ldr	r2, [pc, #36]	; (8000788 <Create_App_Threads+0xb0>)
 8000764:	6013      	str	r3, [r2, #0]
	}
}
 8000766:	bf00      	nop
 8000768:	3718      	adds	r7, #24
 800076a:	46bd      	mov	sp, r7
 800076c:	bd80      	pop	{r7, pc}
 800076e:	bf00      	nop
 8000770:	24000008 	.word	0x24000008
 8000774:	080054d4 	.word	0x080054d4
 8000778:	08000829 	.word	0x08000829
 800077c:	24002cbc 	.word	0x24002cbc
 8000780:	080054e0 	.word	0x080054e0
 8000784:	08000865 	.word	0x08000865
 8000788:	24002cc0 	.word	0x24002cc0

0800078c <Create_App_Mutexs>:

void Create_App_Mutexs(VOID *memory_ptr){
 800078c:	b580      	push	{r7, lr}
 800078e:	b086      	sub	sp, #24
 8000790:	af00      	add	r7, sp, #0
 8000792:	6078      	str	r0, [r7, #4]
	UINT ret = TX_SUCCESS;
 8000794:	2300      	movs	r3, #0
 8000796:	617b      	str	r3, [r7, #20]

	TX_BYTE_POOL *byte_pool = (TX_BYTE_POOL*)memory_ptr;
 8000798:	687b      	ldr	r3, [r7, #4]
 800079a:	613b      	str	r3, [r7, #16]
	CHAR *pointer;

	(void)byte_pool;

	ret = tx_byte_allocate(byte_pool, (VOID **) &pointer, 256, TX_NO_WAIT);
 800079c:	f107 010c 	add.w	r1, r7, #12
 80007a0:	2300      	movs	r3, #0
 80007a2:	f44f 7280 	mov.w	r2, #256	; 0x100
 80007a6:	6938      	ldr	r0, [r7, #16]
 80007a8:	f004 faaa 	bl	8004d00 <_txe_byte_allocate>
 80007ac:	6178      	str	r0, [r7, #20]
	if(ret == TX_SUCCESS){
 80007ae:	697b      	ldr	r3, [r7, #20]
 80007b0:	2b00      	cmp	r3, #0
 80007b2:	d10f      	bne.n	80007d4 <Create_App_Mutexs+0x48>
		mut_attr.name = "Mutex1";
 80007b4:	4b17      	ldr	r3, [pc, #92]	; (8000814 <Create_App_Mutexs+0x88>)
 80007b6:	4a18      	ldr	r2, [pc, #96]	; (8000818 <Create_App_Mutexs+0x8c>)
 80007b8:	601a      	str	r2, [r3, #0]
		mut_attr.cb_mem = pointer;
 80007ba:	68fb      	ldr	r3, [r7, #12]
 80007bc:	4a15      	ldr	r2, [pc, #84]	; (8000814 <Create_App_Mutexs+0x88>)
 80007be:	6093      	str	r3, [r2, #8]
		mut_attr.cb_size = 256;
 80007c0:	4b14      	ldr	r3, [pc, #80]	; (8000814 <Create_App_Mutexs+0x88>)
 80007c2:	f44f 7280 	mov.w	r2, #256	; 0x100
 80007c6:	60da      	str	r2, [r3, #12]
		Mutexone = osMutexNew((const osMutexAttr_t *)&mut_attr);
 80007c8:	4812      	ldr	r0, [pc, #72]	; (8000814 <Create_App_Mutexs+0x88>)
 80007ca:	f002 f819 	bl	8002800 <osMutexNew>
 80007ce:	4603      	mov	r3, r0
 80007d0:	4a12      	ldr	r2, [pc, #72]	; (800081c <Create_App_Mutexs+0x90>)
 80007d2:	6013      	str	r3, [r2, #0]
	}
	ret = tx_byte_allocate(byte_pool, (VOID **) &pointer, 256, TX_NO_WAIT);
 80007d4:	f107 010c 	add.w	r1, r7, #12
 80007d8:	2300      	movs	r3, #0
 80007da:	f44f 7280 	mov.w	r2, #256	; 0x100
 80007de:	6938      	ldr	r0, [r7, #16]
 80007e0:	f004 fa8e 	bl	8004d00 <_txe_byte_allocate>
 80007e4:	6178      	str	r0, [r7, #20]
	if(ret == TX_SUCCESS){
 80007e6:	697b      	ldr	r3, [r7, #20]
 80007e8:	2b00      	cmp	r3, #0
 80007ea:	d10f      	bne.n	800080c <Create_App_Mutexs+0x80>
		mut_attr.name = "Mutex2";
 80007ec:	4b09      	ldr	r3, [pc, #36]	; (8000814 <Create_App_Mutexs+0x88>)
 80007ee:	4a0c      	ldr	r2, [pc, #48]	; (8000820 <Create_App_Mutexs+0x94>)
 80007f0:	601a      	str	r2, [r3, #0]
		mut_attr.cb_mem = pointer;
 80007f2:	68fb      	ldr	r3, [r7, #12]
 80007f4:	4a07      	ldr	r2, [pc, #28]	; (8000814 <Create_App_Mutexs+0x88>)
 80007f6:	6093      	str	r3, [r2, #8]
		mut_attr.cb_size = 256;
 80007f8:	4b06      	ldr	r3, [pc, #24]	; (8000814 <Create_App_Mutexs+0x88>)
 80007fa:	f44f 7280 	mov.w	r2, #256	; 0x100
 80007fe:	60da      	str	r2, [r3, #12]
		Mutextwo = osMutexNew((const osMutexAttr_t *)&mut_attr);
 8000800:	4804      	ldr	r0, [pc, #16]	; (8000814 <Create_App_Mutexs+0x88>)
 8000802:	f001 fffd 	bl	8002800 <osMutexNew>
 8000806:	4603      	mov	r3, r0
 8000808:	4a06      	ldr	r2, [pc, #24]	; (8000824 <Create_App_Mutexs+0x98>)
 800080a:	6013      	str	r3, [r2, #0]
	}

}
 800080c:	bf00      	nop
 800080e:	3718      	adds	r7, #24
 8000810:	46bd      	mov	sp, r7
 8000812:	bd80      	pop	{r7, pc}
 8000814:	24002ccc 	.word	0x24002ccc
 8000818:	080054ec 	.word	0x080054ec
 800081c:	24002cc4 	.word	0x24002cc4
 8000820:	080054f4 	.word	0x080054f4
 8000824:	24002cc8 	.word	0x24002cc8

08000828 <LED_thred_entry>:

VOID LED_thred_entry(){
 8000828:	b580      	push	{r7, lr}
 800082a:	b082      	sub	sp, #8
 800082c:	af00      	add	r7, sp, #0
	uintptr_t handle;

	MW_BoardInitialize();
 800082e:	f004 fddb 	bl	80053e8 <MW_BoardInitialize>
	handle = MW_DIOOpen(BSP_DIO_OUTPUT_01);
 8000832:	2000      	movs	r0, #0
 8000834:	f004 fdde 	bl	80053f4 <MW_DIOOpen>
 8000838:	6078      	str	r0, [r7, #4]

	while(1){
		osMutexAcquire(Mutexone, 0);
 800083a:	4b09      	ldr	r3, [pc, #36]	; (8000860 <LED_thred_entry+0x38>)
 800083c:	681b      	ldr	r3, [r3, #0]
 800083e:	2100      	movs	r1, #0
 8000840:	4618      	mov	r0, r3
 8000842:	f002 f847 	bl	80028d4 <osMutexAcquire>
		MW_DIOOutputToggle(handle, BSP_DIO_OUTPUT_01);
 8000846:	2100      	movs	r1, #0
 8000848:	6878      	ldr	r0, [r7, #4]
 800084a:	f004 fde4 	bl	8005416 <MW_DIOOutputToggle>
		osMutexRelease(Mutexone);
 800084e:	4b04      	ldr	r3, [pc, #16]	; (8000860 <LED_thred_entry+0x38>)
 8000850:	681b      	ldr	r3, [r3, #0]
 8000852:	4618      	mov	r0, r3
 8000854:	f002 f87a 	bl	800294c <osMutexRelease>
		//MW_ToggleLED(MW_USER_LED_3);
		//MW_LEDTurnOn(MW_USER_LED_3);
		tx_thread_sleep(100);
 8000858:	2064      	movs	r0, #100	; 0x64
 800085a:	f003 fc73 	bl	8004144 <_tx_thread_sleep>
		osMutexAcquire(Mutexone, 0);
 800085e:	e7ec      	b.n	800083a <LED_thred_entry+0x12>
 8000860:	24002cc4 	.word	0x24002cc4

08000864 <Ideal_thred_entry>:
//		MW_GPIOTogglePin(MW_GPIO_PIN_3, MW_GPIOK);
//		tx_thread_sleep(100);
//	}
}

VOID Ideal_thred_entry(){
 8000864:	b580      	push	{r7, lr}
 8000866:	b082      	sub	sp, #8
 8000868:	af00      	add	r7, sp, #0
	uintptr_t handle;

	//MW_LEDInit(MW_USER_LED_4);
	handle = MW_DIOOpen(BSP_DIO_OUTPUT_02);
 800086a:	2001      	movs	r0, #1
 800086c:	f004 fdc2 	bl	80053f4 <MW_DIOOpen>
 8000870:	6078      	str	r0, [r7, #4]

	while(1){
		MW_DIOOutputToggle(handle, BSP_DIO_OUTPUT_02);
 8000872:	2101      	movs	r1, #1
 8000874:	6878      	ldr	r0, [r7, #4]
 8000876:	f004 fdce 	bl	8005416 <MW_DIOOutputToggle>
		//MW_ToggleLED(MW_USER_LED_4);
//		MW_LEDTurnOn(MW_USER_LED_4);
		tx_thread_sleep(50);
 800087a:	2032      	movs	r0, #50	; 0x32
 800087c:	f003 fc62 	bl	8004144 <_tx_thread_sleep>
		MW_DIOOutputToggle(handle, BSP_DIO_OUTPUT_02);
 8000880:	e7f7      	b.n	8000872 <Ideal_thred_entry+0xe>

08000882 <App_ThreadX_Init>:
  * @brief  Application ThreadX Initialization.
  * @param memory_ptr: memory pointer
  * @retval int
  */
UINT App_ThreadX_Init(VOID *memory_ptr)
{
 8000882:	b580      	push	{r7, lr}
 8000884:	b084      	sub	sp, #16
 8000886:	af00      	add	r7, sp, #0
 8000888:	6078      	str	r0, [r7, #4]
  UINT ret = TX_SUCCESS;
 800088a:	2300      	movs	r3, #0
 800088c:	60fb      	str	r3, [r7, #12]
  TX_BYTE_POOL *byte_pool = (TX_BYTE_POOL*)memory_ptr;
 800088e:	687b      	ldr	r3, [r7, #4]
 8000890:	60bb      	str	r3, [r7, #8]
  /* USER CODE BEGIN App_ThreadX_MEM_POOL */
    (void)byte_pool;
    /* USER CODE END App_ThreadX_MEM_POOL */

    /* USER CODE BEGIN App_ThreadX_Init */
    Create_App_Threads(byte_pool);
 8000892:	68b8      	ldr	r0, [r7, #8]
 8000894:	f7ff ff20 	bl	80006d8 <Create_App_Threads>
    Create_App_Mutexs();
 8000898:	f7ff ff78 	bl	800078c <Create_App_Mutexs>

    /* USER CODE END App_ThreadX_Init */

  return ret;
 800089c:	68fb      	ldr	r3, [r7, #12]
}
 800089e:	4618      	mov	r0, r3
 80008a0:	3710      	adds	r7, #16
 80008a2:	46bd      	mov	sp, r7
 80008a4:	bd80      	pop	{r7, pc}

080008a6 <MX_ThreadX_Init>:
  * @brief  MX_ThreadX_Init
  * @param  None
  * @retval None
  */
void MX_ThreadX_Init(void)
{
 80008a6:	b580      	push	{r7, lr}
 80008a8:	af00      	add	r7, sp, #0
  /* USER CODE BEGIN  Before_Kernel_Start */
	osKernelInitialize();
 80008aa:	f001 fe67 	bl	800257c <osKernelInitialize>
  /* USER CODE END  Before_Kernel_Start */

	osKernelStart();
 80008ae:	f001 fe91 	bl	80025d4 <osKernelStart>
//	tx_kernel_enter();

  /* USER CODE BEGIN  Kernel_Start_Error */

  /* USER CODE END  Kernel_Start_Error */
}
 80008b2:	bf00      	nop
 80008b4:	bd80      	pop	{r7, pc}
	...

080008b8 <main>:
/**
  * @brief  The application entry point.
  * @retval int
  */
int main(void)
{
 80008b8:	b580      	push	{r7, lr}
 80008ba:	b082      	sub	sp, #8
 80008bc:	af00      	add	r7, sp, #0
  int32_t timeout;
/* USER CODE END Boot_Mode_Sequence_0 */

/* USER CODE BEGIN Boot_Mode_Sequence_1 */
  /* Wait until CPU2 boots and enters in stop mode or timeout*/
  timeout = 0xFFFF;
 80008be:	f64f 73ff 	movw	r3, #65535	; 0xffff
 80008c2:	607b      	str	r3, [r7, #4]
  while((__HAL_RCC_GET_FLAG(RCC_FLAG_D2CKRDY) != RESET) && (timeout-- > 0));
 80008c4:	bf00      	nop
 80008c6:	4b21      	ldr	r3, [pc, #132]	; (800094c <main+0x94>)
 80008c8:	681b      	ldr	r3, [r3, #0]
 80008ca:	f403 4300 	and.w	r3, r3, #32768	; 0x8000
 80008ce:	2b00      	cmp	r3, #0
 80008d0:	d004      	beq.n	80008dc <main+0x24>
 80008d2:	687b      	ldr	r3, [r7, #4]
 80008d4:	1e5a      	subs	r2, r3, #1
 80008d6:	607a      	str	r2, [r7, #4]
 80008d8:	2b00      	cmp	r3, #0
 80008da:	dcf4      	bgt.n	80008c6 <main+0xe>
  if ( timeout < 0 )
 80008dc:	687b      	ldr	r3, [r7, #4]
 80008de:	2b00      	cmp	r3, #0
 80008e0:	da01      	bge.n	80008e6 <main+0x2e>
  {
  Error_Handler();
 80008e2:	f000 f8b6 	bl	8000a52 <Error_Handler>
  }
/* USER CODE END Boot_Mode_Sequence_1 */
  /* MCU Configuration--------------------------------------------------------*/

  /* Reset of all peripherals, Initializes the Flash interface and the Systick. */
  HAL_Init();
 80008e6:	f000 f913 	bl	8000b10 <HAL_Init>
  /* USER CODE BEGIN Init */

  /* USER CODE END Init */

  /* Configure the system clock */
  SystemClock_Config();
 80008ea:	f000 f831 	bl	8000950 <SystemClock_Config>
/* USER CODE BEGIN Boot_Mode_Sequence_2 */
/* When system initialization is finished, Cortex-M7 will release Cortex-M4 by means of
HSEM notification */
/*HW semaphore Clock enable*/
__HAL_RCC_HSEM_CLK_ENABLE();
 80008ee:	4b17      	ldr	r3, [pc, #92]	; (800094c <main+0x94>)
 80008f0:	f8d3 30e0 	ldr.w	r3, [r3, #224]	; 0xe0
 80008f4:	4a15      	ldr	r2, [pc, #84]	; (800094c <main+0x94>)
 80008f6:	f043 7300 	orr.w	r3, r3, #33554432	; 0x2000000
 80008fa:	f8c2 30e0 	str.w	r3, [r2, #224]	; 0xe0
 80008fe:	4b13      	ldr	r3, [pc, #76]	; (800094c <main+0x94>)
 8000900:	f8d3 30e0 	ldr.w	r3, [r3, #224]	; 0xe0
 8000904:	f003 7300 	and.w	r3, r3, #33554432	; 0x2000000
 8000908:	603b      	str	r3, [r7, #0]
 800090a:	683b      	ldr	r3, [r7, #0]
/*Take HSEM */
HAL_HSEM_FastTake(HSEM_ID_0);
 800090c:	2000      	movs	r0, #0
 800090e:	f000 fc51 	bl	80011b4 <HAL_HSEM_FastTake>
/*Release HSEM in order to notify the CPU2(CM4)*/
HAL_HSEM_Release(HSEM_ID_0,0);
 8000912:	2100      	movs	r1, #0
 8000914:	2000      	movs	r0, #0
 8000916:	f000 fc67 	bl	80011e8 <HAL_HSEM_Release>
/* wait until CPU2 wakes up from stop mode */
timeout = 0xFFFF;
 800091a:	f64f 73ff 	movw	r3, #65535	; 0xffff
 800091e:	607b      	str	r3, [r7, #4]
while((__HAL_RCC_GET_FLAG(RCC_FLAG_D2CKRDY) == RESET) && (timeout-- > 0));
 8000920:	bf00      	nop
 8000922:	4b0a      	ldr	r3, [pc, #40]	; (800094c <main+0x94>)
 8000924:	681b      	ldr	r3, [r3, #0]
 8000926:	f403 4300 	and.w	r3, r3, #32768	; 0x8000
 800092a:	2b00      	cmp	r3, #0
 800092c:	d104      	bne.n	8000938 <main+0x80>
 800092e:	687b      	ldr	r3, [r7, #4]
 8000930:	1e5a      	subs	r2, r3, #1
 8000932:	607a      	str	r2, [r7, #4]
 8000934:	2b00      	cmp	r3, #0
 8000936:	dcf4      	bgt.n	8000922 <main+0x6a>
if ( timeout < 0 )
 8000938:	687b      	ldr	r3, [r7, #4]
 800093a:	2b00      	cmp	r3, #0
 800093c:	da01      	bge.n	8000942 <main+0x8a>
{
Error_Handler();
 800093e:	f000 f888 	bl	8000a52 <Error_Handler>
  /* USER CODE BEGIN SysInit */

  /* USER CODE END SysInit */

  /* Initialize all configured peripherals */
  MX_GPIO_Init();
 8000942:	f000 f87f 	bl	8000a44 <MX_GPIO_Init>
  /* USER CODE BEGIN 2 */
  //printf("Hello From Cortexm7 \r\n");
//  HAL_Delay(1000);
  /* USER CODE END 2 */

  MX_ThreadX_Init();
 8000946:	f7ff ffae 	bl	80008a6 <MX_ThreadX_Init>
  /* Infinite loop */
  /* USER CODE BEGIN WHILE */
  while (1)
 800094a:	e7fe      	b.n	800094a <main+0x92>
 800094c:	58024400 	.word	0x58024400

08000950 <SystemClock_Config>:
/**
  * @brief System Clock Configuration
  * @retval None
  */
void SystemClock_Config(void)
{
 8000950:	b580      	push	{r7, lr}
 8000952:	b09c      	sub	sp, #112	; 0x70
 8000954:	af00      	add	r7, sp, #0
  RCC_OscInitTypeDef RCC_OscInitStruct = {0};
 8000956:	f107 0324 	add.w	r3, r7, #36	; 0x24
 800095a:	224c      	movs	r2, #76	; 0x4c
 800095c:	2100      	movs	r1, #0
 800095e:	4618      	mov	r0, r3
 8000960:	f004 fd90 	bl	8005484 <memset>
  RCC_ClkInitTypeDef RCC_ClkInitStruct = {0};
 8000964:	1d3b      	adds	r3, r7, #4
 8000966:	2220      	movs	r2, #32
 8000968:	2100      	movs	r1, #0
 800096a:	4618      	mov	r0, r3
 800096c:	f004 fd8a 	bl	8005484 <memset>

  /** Supply configuration update enable
  */
  HAL_PWREx_ConfigSupply(PWR_DIRECT_SMPS_SUPPLY);
 8000970:	2004      	movs	r0, #4
 8000972:	f000 fc4d 	bl	8001210 <HAL_PWREx_ConfigSupply>
  /** Configure the main internal regulator output voltage
  */
  __HAL_PWR_VOLTAGESCALING_CONFIG(PWR_REGULATOR_VOLTAGE_SCALE1);
 8000976:	2300      	movs	r3, #0
 8000978:	603b      	str	r3, [r7, #0]
 800097a:	4b30      	ldr	r3, [pc, #192]	; (8000a3c <SystemClock_Config+0xec>)
 800097c:	6adb      	ldr	r3, [r3, #44]	; 0x2c
 800097e:	4a2f      	ldr	r2, [pc, #188]	; (8000a3c <SystemClock_Config+0xec>)
 8000980:	f023 0301 	bic.w	r3, r3, #1
 8000984:	62d3      	str	r3, [r2, #44]	; 0x2c
 8000986:	4b2d      	ldr	r3, [pc, #180]	; (8000a3c <SystemClock_Config+0xec>)
 8000988:	6adb      	ldr	r3, [r3, #44]	; 0x2c
 800098a:	f003 0301 	and.w	r3, r3, #1
 800098e:	603b      	str	r3, [r7, #0]
 8000990:	4b2b      	ldr	r3, [pc, #172]	; (8000a40 <SystemClock_Config+0xf0>)
 8000992:	699b      	ldr	r3, [r3, #24]
 8000994:	4a2a      	ldr	r2, [pc, #168]	; (8000a40 <SystemClock_Config+0xf0>)
 8000996:	f443 4340 	orr.w	r3, r3, #49152	; 0xc000
 800099a:	6193      	str	r3, [r2, #24]
 800099c:	4b28      	ldr	r3, [pc, #160]	; (8000a40 <SystemClock_Config+0xf0>)
 800099e:	699b      	ldr	r3, [r3, #24]
 80009a0:	f403 4340 	and.w	r3, r3, #49152	; 0xc000
 80009a4:	603b      	str	r3, [r7, #0]
 80009a6:	683b      	ldr	r3, [r7, #0]

  while(!__HAL_PWR_GET_FLAG(PWR_FLAG_VOSRDY)) {}
 80009a8:	bf00      	nop
 80009aa:	4b25      	ldr	r3, [pc, #148]	; (8000a40 <SystemClock_Config+0xf0>)
 80009ac:	699b      	ldr	r3, [r3, #24]
 80009ae:	f403 5300 	and.w	r3, r3, #8192	; 0x2000
 80009b2:	f5b3 5f00 	cmp.w	r3, #8192	; 0x2000
 80009b6:	d1f8      	bne.n	80009aa <SystemClock_Config+0x5a>
  /** Initializes the RCC Oscillators according to the specified parameters
  * in the RCC_OscInitTypeDef structure.
  */
  RCC_OscInitStruct.OscillatorType = RCC_OSCILLATORTYPE_HSE;
 80009b8:	2301      	movs	r3, #1
 80009ba:	627b      	str	r3, [r7, #36]	; 0x24
  RCC_OscInitStruct.HSEState = RCC_HSE_ON;
 80009bc:	f44f 3380 	mov.w	r3, #65536	; 0x10000
 80009c0:	62bb      	str	r3, [r7, #40]	; 0x28
  RCC_OscInitStruct.PLL.PLLState = RCC_PLL_ON;
 80009c2:	2302      	movs	r3, #2
 80009c4:	64bb      	str	r3, [r7, #72]	; 0x48
  RCC_OscInitStruct.PLL.PLLSource = RCC_PLLSOURCE_HSE;
 80009c6:	2302      	movs	r3, #2
 80009c8:	64fb      	str	r3, [r7, #76]	; 0x4c
  RCC_OscInitStruct.PLL.PLLM = 2;
 80009ca:	2302      	movs	r3, #2
 80009cc:	653b      	str	r3, [r7, #80]	; 0x50
  RCC_OscInitStruct.PLL.PLLN = 64;
 80009ce:	2340      	movs	r3, #64	; 0x40
 80009d0:	657b      	str	r3, [r7, #84]	; 0x54
  RCC_OscInitStruct.PLL.PLLP = 2;
 80009d2:	2302      	movs	r3, #2
 80009d4:	65bb      	str	r3, [r7, #88]	; 0x58
  RCC_OscInitStruct.PLL.PLLQ = 1;
 80009d6:	2301      	movs	r3, #1
 80009d8:	65fb      	str	r3, [r7, #92]	; 0x5c
  RCC_OscInitStruct.PLL.PLLR = 2;
 80009da:	2302      	movs	r3, #2
 80009dc:	663b      	str	r3, [r7, #96]	; 0x60
  RCC_OscInitStruct.PLL.PLLRGE = RCC_PLL1VCIRANGE_3;
 80009de:	230c      	movs	r3, #12
 80009e0:	667b      	str	r3, [r7, #100]	; 0x64
  RCC_OscInitStruct.PLL.PLLVCOSEL = RCC_PLL1VCOWIDE;
 80009e2:	2300      	movs	r3, #0
 80009e4:	66bb      	str	r3, [r7, #104]	; 0x68
  RCC_OscInitStruct.PLL.PLLFRACN = 0;
 80009e6:	2300      	movs	r3, #0
 80009e8:	66fb      	str	r3, [r7, #108]	; 0x6c
  if (HAL_RCC_OscConfig(&RCC_OscInitStruct) != HAL_OK)
 80009ea:	f107 0324 	add.w	r3, r7, #36	; 0x24
 80009ee:	4618      	mov	r0, r3
 80009f0:	f000 fc68 	bl	80012c4 <HAL_RCC_OscConfig>
 80009f4:	4603      	mov	r3, r0
 80009f6:	2b00      	cmp	r3, #0
 80009f8:	d001      	beq.n	80009fe <SystemClock_Config+0xae>
  {
    Error_Handler();
 80009fa:	f000 f82a 	bl	8000a52 <Error_Handler>
  }
  /** Initializes the CPU, AHB and APB buses clocks
  */
  RCC_ClkInitStruct.ClockType = RCC_CLOCKTYPE_HCLK|RCC_CLOCKTYPE_SYSCLK
 80009fe:	233f      	movs	r3, #63	; 0x3f
 8000a00:	607b      	str	r3, [r7, #4]
                              |RCC_CLOCKTYPE_PCLK1|RCC_CLOCKTYPE_PCLK2
                              |RCC_CLOCKTYPE_D3PCLK1|RCC_CLOCKTYPE_D1PCLK1;
  RCC_ClkInitStruct.SYSCLKSource = RCC_SYSCLKSOURCE_PLLCLK;
 8000a02:	2303      	movs	r3, #3
 8000a04:	60bb      	str	r3, [r7, #8]
  RCC_ClkInitStruct.SYSCLKDivider = RCC_SYSCLK_DIV1;
 8000a06:	2300      	movs	r3, #0
 8000a08:	60fb      	str	r3, [r7, #12]
  RCC_ClkInitStruct.AHBCLKDivider = RCC_HCLK_DIV2;
 8000a0a:	2308      	movs	r3, #8
 8000a0c:	613b      	str	r3, [r7, #16]
  RCC_ClkInitStruct.APB3CLKDivider = RCC_APB3_DIV2;
 8000a0e:	2340      	movs	r3, #64	; 0x40
 8000a10:	617b      	str	r3, [r7, #20]
  RCC_ClkInitStruct.APB1CLKDivider = RCC_APB1_DIV2;
 8000a12:	2340      	movs	r3, #64	; 0x40
 8000a14:	61bb      	str	r3, [r7, #24]
  RCC_ClkInitStruct.APB2CLKDivider = RCC_APB2_DIV2;
 8000a16:	f44f 6380 	mov.w	r3, #1024	; 0x400
 8000a1a:	61fb      	str	r3, [r7, #28]
  RCC_ClkInitStruct.APB4CLKDivider = RCC_APB4_DIV2;
 8000a1c:	2340      	movs	r3, #64	; 0x40
 8000a1e:	623b      	str	r3, [r7, #32]

  if (HAL_RCC_ClockConfig(&RCC_ClkInitStruct, FLASH_LATENCY_2) != HAL_OK)
 8000a20:	1d3b      	adds	r3, r7, #4
 8000a22:	2102      	movs	r1, #2
 8000a24:	4618      	mov	r0, r3
 8000a26:	f001 f87b 	bl	8001b20 <HAL_RCC_ClockConfig>
 8000a2a:	4603      	mov	r3, r0
 8000a2c:	2b00      	cmp	r3, #0
 8000a2e:	d001      	beq.n	8000a34 <SystemClock_Config+0xe4>
  {
    Error_Handler();
 8000a30:	f000 f80f 	bl	8000a52 <Error_Handler>
  }
}
 8000a34:	bf00      	nop
 8000a36:	3770      	adds	r7, #112	; 0x70
 8000a38:	46bd      	mov	sp, r7
 8000a3a:	bd80      	pop	{r7, pc}
 8000a3c:	58000400 	.word	0x58000400
 8000a40:	58024800 	.word	0x58024800

08000a44 <MX_GPIO_Init>:
  * @brief GPIO Initialization Function
  * @param None
  * @retval None
  */
static void MX_GPIO_Init(void)
{
 8000a44:	b480      	push	{r7}
 8000a46:	af00      	add	r7, sp, #0
//  GPIO_InitStruct.Mode = GPIO_MODE_OUTPUT_PP;
//  GPIO_InitStruct.Pull = GPIO_NOPULL;
//  GPIO_InitStruct.Speed = GPIO_SPEED_FREQ_LOW;
//  HAL_GPIO_Init(GPIOK, &GPIO_InitStruct);

}
 8000a48:	bf00      	nop
 8000a4a:	46bd      	mov	sp, r7
 8000a4c:	f85d 7b04 	ldr.w	r7, [sp], #4
 8000a50:	4770      	bx	lr

08000a52 <Error_Handler>:
/**
  * @brief  This function is executed in case of error occurrence.
  * @retval None
  */
void Error_Handler(void)
{
 8000a52:	b480      	push	{r7}
 8000a54:	af00      	add	r7, sp, #0
  \details Disables IRQ interrupts by setting the I-bit in the CPSR.
           Can only be executed in Privileged modes.
 */
__STATIC_FORCEINLINE void __disable_irq(void)
{
  __ASM volatile ("cpsid i" : : : "memory");
 8000a56:	b672      	cpsid	i
}
 8000a58:	bf00      	nop
  /* USER CODE BEGIN Error_Handler_Debug */
  /* User can add his own implementation to report the HAL error return state */
  __disable_irq();
  while (1)
 8000a5a:	e7fe      	b.n	8000a5a <Error_Handler+0x8>

08000a5c <HAL_MspInit>:
/* USER CODE END 0 */
/**
  * Initializes the Global MSP.
  */
void HAL_MspInit(void)
{
 8000a5c:	b480      	push	{r7}
 8000a5e:	b083      	sub	sp, #12
 8000a60:	af00      	add	r7, sp, #0
  /* USER CODE BEGIN MspInit 0 */

  /* USER CODE END MspInit 0 */

  __HAL_RCC_SYSCFG_CLK_ENABLE();
 8000a62:	4b0a      	ldr	r3, [pc, #40]	; (8000a8c <HAL_MspInit+0x30>)
 8000a64:	f8d3 30f4 	ldr.w	r3, [r3, #244]	; 0xf4
 8000a68:	4a08      	ldr	r2, [pc, #32]	; (8000a8c <HAL_MspInit+0x30>)
 8000a6a:	f043 0302 	orr.w	r3, r3, #2
 8000a6e:	f8c2 30f4 	str.w	r3, [r2, #244]	; 0xf4
 8000a72:	4b06      	ldr	r3, [pc, #24]	; (8000a8c <HAL_MspInit+0x30>)
 8000a74:	f8d3 30f4 	ldr.w	r3, [r3, #244]	; 0xf4
 8000a78:	f003 0302 	and.w	r3, r3, #2
 8000a7c:	607b      	str	r3, [r7, #4]
 8000a7e:	687b      	ldr	r3, [r7, #4]
  /* System interrupt init*/

  /* USER CODE BEGIN MspInit 1 */

  /* USER CODE END MspInit 1 */
}
 8000a80:	bf00      	nop
 8000a82:	370c      	adds	r7, #12
 8000a84:	46bd      	mov	sp, r7
 8000a86:	f85d 7b04 	ldr.w	r7, [sp], #4
 8000a8a:	4770      	bx	lr
 8000a8c:	58024400 	.word	0x58024400

08000a90 <NMI_Handler>:
/******************************************************************************/
/**
  * @brief This function handles Non maskable interrupt.
  */
void NMI_Handler(void)
{
 8000a90:	b480      	push	{r7}
 8000a92:	af00      	add	r7, sp, #0
  /* USER CODE BEGIN NonMaskableInt_IRQn 0 */

  /* USER CODE END NonMaskableInt_IRQn 0 */
  /* USER CODE BEGIN NonMaskableInt_IRQn 1 */
  while (1)
 8000a94:	e7fe      	b.n	8000a94 <NMI_Handler+0x4>

08000a96 <HardFault_Handler>:

/**
  * @brief This function handles Hard fault interrupt.
  */
void HardFault_Handler(void)
{
 8000a96:	b480      	push	{r7}
 8000a98:	af00      	add	r7, sp, #0
  /* USER CODE BEGIN HardFault_IRQn 0 */

  /* USER CODE END HardFault_IRQn 0 */
  while (1)
 8000a9a:	e7fe      	b.n	8000a9a <HardFault_Handler+0x4>

08000a9c <MemManage_Handler>:

/**
  * @brief This function handles Memory management fault.
  */
void MemManage_Handler(void)
{
 8000a9c:	b480      	push	{r7}
 8000a9e:	af00      	add	r7, sp, #0
  /* USER CODE BEGIN MemoryManagement_IRQn 0 */

  /* USER CODE END MemoryManagement_IRQn 0 */
  while (1)
 8000aa0:	e7fe      	b.n	8000aa0 <MemManage_Handler+0x4>

08000aa2 <BusFault_Handler>:

/**
  * @brief This function handles Pre-fetch fault, memory access fault.
  */
void BusFault_Handler(void)
{
 8000aa2:	b480      	push	{r7}
 8000aa4:	af00      	add	r7, sp, #0
  /* USER CODE BEGIN BusFault_IRQn 0 */

  /* USER CODE END BusFault_IRQn 0 */
  while (1)
 8000aa6:	e7fe      	b.n	8000aa6 <BusFault_Handler+0x4>

08000aa8 <UsageFault_Handler>:

/**
  * @brief This function handles Undefined instruction or illegal state.
  */
void UsageFault_Handler(void)
{
 8000aa8:	b480      	push	{r7}
 8000aaa:	af00      	add	r7, sp, #0
  /* USER CODE BEGIN UsageFault_IRQn 0 */

  /* USER CODE END UsageFault_IRQn 0 */
  while (1)
 8000aac:	e7fe      	b.n	8000aac <UsageFault_Handler+0x4>

08000aae <DebugMon_Handler>:

/**
  * @brief This function handles Debug monitor.
  */
void DebugMon_Handler(void)
{
 8000aae:	b480      	push	{r7}
 8000ab0:	af00      	add	r7, sp, #0

  /* USER CODE END DebugMonitor_IRQn 0 */
  /* USER CODE BEGIN DebugMonitor_IRQn 1 */

  /* USER CODE END DebugMonitor_IRQn 1 */
}
 8000ab2:	bf00      	nop
 8000ab4:	46bd      	mov	sp, r7
 8000ab6:	f85d 7b04 	ldr.w	r7, [sp], #4
 8000aba:	4770      	bx	lr

08000abc <Reset_Handler>:

    .section  .text.Reset_Handler
  .weak  Reset_Handler
  .type  Reset_Handler, %function
Reset_Handler:
  ldr   sp, =_estack      /* set stack pointer */
 8000abc:	f8df d034 	ldr.w	sp, [pc, #52]	; 8000af4 <LoopFillZerobss+0xe>

/* Call the clock system initialization function.*/
  bl  SystemInit
 8000ac0:	f7ff fd70 	bl	80005a4 <SystemInit>

/* Copy the data segment initializers from flash to SRAM */
  ldr r0, =_sdata
 8000ac4:	480c      	ldr	r0, [pc, #48]	; (8000af8 <LoopFillZerobss+0x12>)
  ldr r1, =_edata
 8000ac6:	490d      	ldr	r1, [pc, #52]	; (8000afc <LoopFillZerobss+0x16>)
  ldr r2, =_sidata
 8000ac8:	4a0d      	ldr	r2, [pc, #52]	; (8000b00 <LoopFillZerobss+0x1a>)
  movs r3, #0
 8000aca:	2300      	movs	r3, #0
  b LoopCopyDataInit
 8000acc:	e002      	b.n	8000ad4 <LoopCopyDataInit>

08000ace <CopyDataInit>:

CopyDataInit:
  ldr r4, [r2, r3]
 8000ace:	58d4      	ldr	r4, [r2, r3]
  str r4, [r0, r3]
 8000ad0:	50c4      	str	r4, [r0, r3]
  adds r3, r3, #4
 8000ad2:	3304      	adds	r3, #4

08000ad4 <LoopCopyDataInit>:

LoopCopyDataInit:
  adds r4, r0, r3
 8000ad4:	18c4      	adds	r4, r0, r3
  cmp r4, r1
 8000ad6:	428c      	cmp	r4, r1
  bcc CopyDataInit
 8000ad8:	d3f9      	bcc.n	8000ace <CopyDataInit>
/* Zero fill the bss segment. */
  ldr r2, =_sbss
 8000ada:	4a0a      	ldr	r2, [pc, #40]	; (8000b04 <LoopFillZerobss+0x1e>)
  ldr r4, =_ebss
 8000adc:	4c0a      	ldr	r4, [pc, #40]	; (8000b08 <LoopFillZerobss+0x22>)
  movs r3, #0
 8000ade:	2300      	movs	r3, #0
  b LoopFillZerobss
 8000ae0:	e001      	b.n	8000ae6 <LoopFillZerobss>

08000ae2 <FillZerobss>:

FillZerobss:
  str  r3, [r2]
 8000ae2:	6013      	str	r3, [r2, #0]
  adds r2, r2, #4
 8000ae4:	3204      	adds	r2, #4

08000ae6 <LoopFillZerobss>:

LoopFillZerobss:
  cmp r2, r4
 8000ae6:	42a2      	cmp	r2, r4
  bcc FillZerobss
 8000ae8:	d3fb      	bcc.n	8000ae2 <FillZerobss>

/* Call static constructors */
    bl __libc_init_array
 8000aea:	f004 fca7 	bl	800543c <__libc_init_array>
/* Call the application's entry point.*/
  bl  main
 8000aee:	f7ff fee3 	bl	80008b8 <main>
  bx  lr
 8000af2:	4770      	bx	lr
  ldr   sp, =_estack      /* set stack pointer */
 8000af4:	24080000 	.word	0x24080000
  ldr r0, =_sdata
 8000af8:	24000000 	.word	0x24000000
  ldr r1, =_edata
 8000afc:	24000038 	.word	0x24000038
  ldr r2, =_sidata
 8000b00:	08005584 	.word	0x08005584
  ldr r2, =_sbss
 8000b04:	24000038 	.word	0x24000038
  ldr r4, =_ebss
 8000b08:	24003458 	.word	0x24003458

08000b0c <ADC3_IRQHandler>:
 * @retval None
*/
    .section  .text.Default_Handler,"ax",%progbits
Default_Handler:
Infinite_Loop:
  b  Infinite_Loop
 8000b0c:	e7fe      	b.n	8000b0c <ADC3_IRQHandler>
	...

08000b10 <HAL_Init>:
  *         need to ensure that the SysTick time base is always set to 1 millisecond
  *         to have correct HAL operation.
  * @retval HAL status
  */
HAL_StatusTypeDef HAL_Init(void)
{
 8000b10:	b580      	push	{r7, lr}
 8000b12:	b082      	sub	sp, #8
 8000b14:	af00      	add	r7, sp, #0
   __HAL_ART_CONFIG_BASE_ADDRESS(0x08100000UL);  /* Configure the Cortex-M4 ART Base address to the Flash Bank 2 : */
   __HAL_ART_ENABLE();                           /* Enable the Cortex-M4 ART */
#endif /* DUAL_CORE &&  CORE_CM4 */

  /* Set Interrupt Group Priority */
  HAL_NVIC_SetPriorityGrouping(NVIC_PRIORITYGROUP_4);
 8000b16:	2003      	movs	r0, #3
 8000b18:	f000 f936 	bl	8000d88 <HAL_NVIC_SetPriorityGrouping>

  /* Update the SystemCoreClock global variable */
#if defined(RCC_D1CFGR_D1CPRE)
  common_system_clock = HAL_RCC_GetSysClockFreq() >> ((D1CorePrescTable[(RCC->D1CFGR & RCC_D1CFGR_D1CPRE)>> RCC_D1CFGR_D1CPRE_Pos]) & 0x1FU);
 8000b1c:	f001 f9b6 	bl	8001e8c <HAL_RCC_GetSysClockFreq>
 8000b20:	4602      	mov	r2, r0
 8000b22:	4b15      	ldr	r3, [pc, #84]	; (8000b78 <HAL_Init+0x68>)
 8000b24:	699b      	ldr	r3, [r3, #24]
 8000b26:	0a1b      	lsrs	r3, r3, #8
 8000b28:	f003 030f 	and.w	r3, r3, #15
 8000b2c:	4913      	ldr	r1, [pc, #76]	; (8000b7c <HAL_Init+0x6c>)
 8000b2e:	5ccb      	ldrb	r3, [r1, r3]
 8000b30:	f003 031f 	and.w	r3, r3, #31
 8000b34:	fa22 f303 	lsr.w	r3, r2, r3
 8000b38:	607b      	str	r3, [r7, #4]
  common_system_clock = HAL_RCC_GetSysClockFreq() >> ((D1CorePrescTable[(RCC->CDCFGR1 & RCC_CDCFGR1_CDCPRE)>> RCC_CDCFGR1_CDCPRE_Pos]) & 0x1FU);
#endif

  /* Update the SystemD2Clock global variable */
#if defined(RCC_D1CFGR_HPRE)
  SystemD2Clock = (common_system_clock >> ((D1CorePrescTable[(RCC->D1CFGR & RCC_D1CFGR_HPRE)>> RCC_D1CFGR_HPRE_Pos]) & 0x1FU));
 8000b3a:	4b0f      	ldr	r3, [pc, #60]	; (8000b78 <HAL_Init+0x68>)
 8000b3c:	699b      	ldr	r3, [r3, #24]
 8000b3e:	f003 030f 	and.w	r3, r3, #15
 8000b42:	4a0e      	ldr	r2, [pc, #56]	; (8000b7c <HAL_Init+0x6c>)
 8000b44:	5cd3      	ldrb	r3, [r2, r3]
 8000b46:	f003 031f 	and.w	r3, r3, #31
 8000b4a:	687a      	ldr	r2, [r7, #4]
 8000b4c:	fa22 f303 	lsr.w	r3, r2, r3
 8000b50:	4a0b      	ldr	r2, [pc, #44]	; (8000b80 <HAL_Init+0x70>)
 8000b52:	6013      	str	r3, [r2, #0]
#endif

#if defined(DUAL_CORE) && defined(CORE_CM4)
  SystemCoreClock = SystemD2Clock;
#else
  SystemCoreClock = common_system_clock;
 8000b54:	4a0b      	ldr	r2, [pc, #44]	; (8000b84 <HAL_Init+0x74>)
 8000b56:	687b      	ldr	r3, [r7, #4]
 8000b58:	6013      	str	r3, [r2, #0]
#endif /* DUAL_CORE && CORE_CM4 */

  /* Use systick as time base source and configure 1ms tick (default clock after Reset is HSI) */
  if(HAL_InitTick(TICK_INT_PRIORITY) != HAL_OK)
 8000b5a:	2000      	movs	r0, #0
 8000b5c:	f000 f814 	bl	8000b88 <HAL_InitTick>
 8000b60:	4603      	mov	r3, r0
 8000b62:	2b00      	cmp	r3, #0
 8000b64:	d001      	beq.n	8000b6a <HAL_Init+0x5a>
  {
    return HAL_ERROR;
 8000b66:	2301      	movs	r3, #1
 8000b68:	e002      	b.n	8000b70 <HAL_Init+0x60>
  }

  /* Init the low level hardware */
  HAL_MspInit();
 8000b6a:	f7ff ff77 	bl	8000a5c <HAL_MspInit>

  /* Return function status */
  return HAL_OK;
 8000b6e:	2300      	movs	r3, #0
}
 8000b70:	4618      	mov	r0, r3
 8000b72:	3708      	adds	r7, #8
 8000b74:	46bd      	mov	sp, r7
 8000b76:	bd80      	pop	{r7, pc}
 8000b78:	58024400 	.word	0x58024400
 8000b7c:	08005544 	.word	0x08005544
 8000b80:	24000004 	.word	0x24000004
 8000b84:	24000000 	.word	0x24000000

08000b88 <HAL_InitTick>:
  *       implementation  in user file.
  * @param TickPriority: Tick interrupt priority.
  * @retval HAL status
  */
__weak HAL_StatusTypeDef HAL_InitTick(uint32_t TickPriority)
{
 8000b88:	b580      	push	{r7, lr}
 8000b8a:	b082      	sub	sp, #8
 8000b8c:	af00      	add	r7, sp, #0
 8000b8e:	6078      	str	r0, [r7, #4]
  /* Check uwTickFreq for MisraC 2012 (even if uwTickFreq is a enum type that don't take the value zero)*/
  if((uint32_t)uwTickFreq == 0UL)
 8000b90:	4b15      	ldr	r3, [pc, #84]	; (8000be8 <HAL_InitTick+0x60>)
 8000b92:	781b      	ldrb	r3, [r3, #0]
 8000b94:	2b00      	cmp	r3, #0
 8000b96:	d101      	bne.n	8000b9c <HAL_InitTick+0x14>
  {
    return HAL_ERROR;
 8000b98:	2301      	movs	r3, #1
 8000b9a:	e021      	b.n	8000be0 <HAL_InitTick+0x58>
  }

    /* Configure the SysTick to have interrupt in 1ms time basis*/
    if (HAL_SYSTICK_Config(SystemCoreClock / (1000UL / (uint32_t)uwTickFreq)) > 0U)
 8000b9c:	4b13      	ldr	r3, [pc, #76]	; (8000bec <HAL_InitTick+0x64>)
 8000b9e:	681a      	ldr	r2, [r3, #0]
 8000ba0:	4b11      	ldr	r3, [pc, #68]	; (8000be8 <HAL_InitTick+0x60>)
 8000ba2:	781b      	ldrb	r3, [r3, #0]
 8000ba4:	4619      	mov	r1, r3
 8000ba6:	f44f 737a 	mov.w	r3, #1000	; 0x3e8
 8000baa:	fbb3 f3f1 	udiv	r3, r3, r1
 8000bae:	fbb2 f3f3 	udiv	r3, r2, r3
 8000bb2:	4618      	mov	r0, r3
 8000bb4:	f000 f90d 	bl	8000dd2 <HAL_SYSTICK_Config>
 8000bb8:	4603      	mov	r3, r0
 8000bba:	2b00      	cmp	r3, #0
 8000bbc:	d001      	beq.n	8000bc2 <HAL_InitTick+0x3a>
    {
      return HAL_ERROR;
 8000bbe:	2301      	movs	r3, #1
 8000bc0:	e00e      	b.n	8000be0 <HAL_InitTick+0x58>
    }

  /* Configure the SysTick IRQ priority */
  if (TickPriority < (1UL << __NVIC_PRIO_BITS))
 8000bc2:	687b      	ldr	r3, [r7, #4]
 8000bc4:	2b0f      	cmp	r3, #15
 8000bc6:	d80a      	bhi.n	8000bde <HAL_InitTick+0x56>
  {
    HAL_NVIC_SetPriority(SysTick_IRQn, TickPriority, 0U);
 8000bc8:	2200      	movs	r2, #0
 8000bca:	6879      	ldr	r1, [r7, #4]
 8000bcc:	f04f 30ff 	mov.w	r0, #4294967295
 8000bd0:	f000 f8e5 	bl	8000d9e <HAL_NVIC_SetPriority>
    uwTickPrio = TickPriority;
 8000bd4:	4a06      	ldr	r2, [pc, #24]	; (8000bf0 <HAL_InitTick+0x68>)
 8000bd6:	687b      	ldr	r3, [r7, #4]
 8000bd8:	6013      	str	r3, [r2, #0]
  {
    return HAL_ERROR;
  }

  /* Return function status */
  return HAL_OK;
 8000bda:	2300      	movs	r3, #0
 8000bdc:	e000      	b.n	8000be0 <HAL_InitTick+0x58>
    return HAL_ERROR;
 8000bde:	2301      	movs	r3, #1
}
 8000be0:	4618      	mov	r0, r3
 8000be2:	3708      	adds	r7, #8
 8000be4:	46bd      	mov	sp, r7
 8000be6:	bd80      	pop	{r7, pc}
 8000be8:	24000030 	.word	0x24000030
 8000bec:	24000000 	.word	0x24000000
 8000bf0:	2400002c 	.word	0x2400002c

08000bf4 <HAL_GetTick>:
  * @note This function is declared as __weak to be overwritten in case of other
  *       implementations in user file.
  * @retval tick value
  */
__weak uint32_t HAL_GetTick(void)
{
 8000bf4:	b480      	push	{r7}
 8000bf6:	af00      	add	r7, sp, #0
  return uwTick;
 8000bf8:	4b03      	ldr	r3, [pc, #12]	; (8000c08 <HAL_GetTick+0x14>)
 8000bfa:	681b      	ldr	r3, [r3, #0]
}
 8000bfc:	4618      	mov	r0, r3
 8000bfe:	46bd      	mov	sp, r7
 8000c00:	f85d 7b04 	ldr.w	r7, [sp], #4
 8000c04:	4770      	bx	lr
 8000c06:	bf00      	nop
 8000c08:	24002cdc 	.word	0x24002cdc

08000c0c <HAL_GetREVID>:
/**
  * @brief  Returns the device revision identifier.
  * @retval Device revision identifier
  */
uint32_t HAL_GetREVID(void)
{
 8000c0c:	b480      	push	{r7}
 8000c0e:	af00      	add	r7, sp, #0
   return((DBGMCU->IDCODE) >> 16);
 8000c10:	4b03      	ldr	r3, [pc, #12]	; (8000c20 <HAL_GetREVID+0x14>)
 8000c12:	681b      	ldr	r3, [r3, #0]
 8000c14:	0c1b      	lsrs	r3, r3, #16
}
 8000c16:	4618      	mov	r0, r3
 8000c18:	46bd      	mov	sp, r7
 8000c1a:	f85d 7b04 	ldr.w	r7, [sp], #4
 8000c1e:	4770      	bx	lr
 8000c20:	5c001000 	.word	0x5c001000

08000c24 <__NVIC_SetPriorityGrouping>:
           In case of a conflict between priority grouping and available
           priority bits (__NVIC_PRIO_BITS), the smallest possible priority group is set.
  \param [in]      PriorityGroup  Priority grouping field.
 */
__STATIC_INLINE void __NVIC_SetPriorityGrouping(uint32_t PriorityGroup)
{
 8000c24:	b480      	push	{r7}
 8000c26:	b085      	sub	sp, #20
 8000c28:	af00      	add	r7, sp, #0
 8000c2a:	6078      	str	r0, [r7, #4]
  uint32_t reg_value;
  uint32_t PriorityGroupTmp = (PriorityGroup & (uint32_t)0x07UL);             /* only values 0..7 are used          */
 8000c2c:	687b      	ldr	r3, [r7, #4]
 8000c2e:	f003 0307 	and.w	r3, r3, #7
 8000c32:	60fb      	str	r3, [r7, #12]

  reg_value  =  SCB->AIRCR;                                                   /* read old register configuration    */
 8000c34:	4b0b      	ldr	r3, [pc, #44]	; (8000c64 <__NVIC_SetPriorityGrouping+0x40>)
 8000c36:	68db      	ldr	r3, [r3, #12]
 8000c38:	60bb      	str	r3, [r7, #8]
  reg_value &= ~((uint32_t)(SCB_AIRCR_VECTKEY_Msk | SCB_AIRCR_PRIGROUP_Msk)); /* clear bits to change               */
 8000c3a:	68ba      	ldr	r2, [r7, #8]
 8000c3c:	f64f 03ff 	movw	r3, #63743	; 0xf8ff
 8000c40:	4013      	ands	r3, r2
 8000c42:	60bb      	str	r3, [r7, #8]
  reg_value  =  (reg_value                                   |
                ((uint32_t)0x5FAUL << SCB_AIRCR_VECTKEY_Pos) |
                (PriorityGroupTmp << SCB_AIRCR_PRIGROUP_Pos)  );              /* Insert write key and priority group */
 8000c44:	68fb      	ldr	r3, [r7, #12]
 8000c46:	021a      	lsls	r2, r3, #8
                ((uint32_t)0x5FAUL << SCB_AIRCR_VECTKEY_Pos) |
 8000c48:	68bb      	ldr	r3, [r7, #8]
 8000c4a:	431a      	orrs	r2, r3
  reg_value  =  (reg_value                                   |
 8000c4c:	4b06      	ldr	r3, [pc, #24]	; (8000c68 <__NVIC_SetPriorityGrouping+0x44>)
 8000c4e:	4313      	orrs	r3, r2
 8000c50:	60bb      	str	r3, [r7, #8]
  SCB->AIRCR =  reg_value;
 8000c52:	4a04      	ldr	r2, [pc, #16]	; (8000c64 <__NVIC_SetPriorityGrouping+0x40>)
 8000c54:	68bb      	ldr	r3, [r7, #8]
 8000c56:	60d3      	str	r3, [r2, #12]
}
 8000c58:	bf00      	nop
 8000c5a:	3714      	adds	r7, #20
 8000c5c:	46bd      	mov	sp, r7
 8000c5e:	f85d 7b04 	ldr.w	r7, [sp], #4
 8000c62:	4770      	bx	lr
 8000c64:	e000ed00 	.word	0xe000ed00
 8000c68:	05fa0000 	.word	0x05fa0000

08000c6c <__NVIC_GetPriorityGrouping>:
  \brief   Get Priority Grouping
  \details Reads the priority grouping field from the NVIC Interrupt Controller.
  \return                Priority grouping field (SCB->AIRCR [10:8] PRIGROUP field).
 */
__STATIC_INLINE uint32_t __NVIC_GetPriorityGrouping(void)
{
 8000c6c:	b480      	push	{r7}
 8000c6e:	af00      	add	r7, sp, #0
  return ((uint32_t)((SCB->AIRCR & SCB_AIRCR_PRIGROUP_Msk) >> SCB_AIRCR_PRIGROUP_Pos));
 8000c70:	4b04      	ldr	r3, [pc, #16]	; (8000c84 <__NVIC_GetPriorityGrouping+0x18>)
 8000c72:	68db      	ldr	r3, [r3, #12]
 8000c74:	0a1b      	lsrs	r3, r3, #8
 8000c76:	f003 0307 	and.w	r3, r3, #7
}
 8000c7a:	4618      	mov	r0, r3
 8000c7c:	46bd      	mov	sp, r7
 8000c7e:	f85d 7b04 	ldr.w	r7, [sp], #4
 8000c82:	4770      	bx	lr
 8000c84:	e000ed00 	.word	0xe000ed00

08000c88 <__NVIC_SetPriority>:
  \param [in]      IRQn  Interrupt number.
  \param [in]  priority  Priority to set.
  \note    The priority cannot be set for every processor exception.
 */
__STATIC_INLINE void __NVIC_SetPriority(IRQn_Type IRQn, uint32_t priority)
{
 8000c88:	b480      	push	{r7}
 8000c8a:	b083      	sub	sp, #12
 8000c8c:	af00      	add	r7, sp, #0
 8000c8e:	4603      	mov	r3, r0
 8000c90:	6039      	str	r1, [r7, #0]
 8000c92:	80fb      	strh	r3, [r7, #6]
  if ((int32_t)(IRQn) >= 0)
 8000c94:	f9b7 3006 	ldrsh.w	r3, [r7, #6]
 8000c98:	2b00      	cmp	r3, #0
 8000c9a:	db0a      	blt.n	8000cb2 <__NVIC_SetPriority+0x2a>
  {
    NVIC->IP[((uint32_t)IRQn)]                = (uint8_t)((priority << (8U - __NVIC_PRIO_BITS)) & (uint32_t)0xFFUL);
 8000c9c:	683b      	ldr	r3, [r7, #0]
 8000c9e:	b2da      	uxtb	r2, r3
 8000ca0:	490c      	ldr	r1, [pc, #48]	; (8000cd4 <__NVIC_SetPriority+0x4c>)
 8000ca2:	f9b7 3006 	ldrsh.w	r3, [r7, #6]
 8000ca6:	0112      	lsls	r2, r2, #4
 8000ca8:	b2d2      	uxtb	r2, r2
 8000caa:	440b      	add	r3, r1
 8000cac:	f883 2300 	strb.w	r2, [r3, #768]	; 0x300
  }
  else
  {
    SCB->SHPR[(((uint32_t)IRQn) & 0xFUL)-4UL] = (uint8_t)((priority << (8U - __NVIC_PRIO_BITS)) & (uint32_t)0xFFUL);
  }
}
 8000cb0:	e00a      	b.n	8000cc8 <__NVIC_SetPriority+0x40>
    SCB->SHPR[(((uint32_t)IRQn) & 0xFUL)-4UL] = (uint8_t)((priority << (8U - __NVIC_PRIO_BITS)) & (uint32_t)0xFFUL);
 8000cb2:	683b      	ldr	r3, [r7, #0]
 8000cb4:	b2da      	uxtb	r2, r3
 8000cb6:	4908      	ldr	r1, [pc, #32]	; (8000cd8 <__NVIC_SetPriority+0x50>)
 8000cb8:	88fb      	ldrh	r3, [r7, #6]
 8000cba:	f003 030f 	and.w	r3, r3, #15
 8000cbe:	3b04      	subs	r3, #4
 8000cc0:	0112      	lsls	r2, r2, #4
 8000cc2:	b2d2      	uxtb	r2, r2
 8000cc4:	440b      	add	r3, r1
 8000cc6:	761a      	strb	r2, [r3, #24]
}
 8000cc8:	bf00      	nop
 8000cca:	370c      	adds	r7, #12
 8000ccc:	46bd      	mov	sp, r7
 8000cce:	f85d 7b04 	ldr.w	r7, [sp], #4
 8000cd2:	4770      	bx	lr
 8000cd4:	e000e100 	.word	0xe000e100
 8000cd8:	e000ed00 	.word	0xe000ed00

08000cdc <NVIC_EncodePriority>:
  \param [in]   PreemptPriority  Preemptive priority value (starting from 0).
  \param [in]       SubPriority  Subpriority value (starting from 0).
  \return                        Encoded priority. Value can be used in the function \ref NVIC_SetPriority().
 */
__STATIC_INLINE uint32_t NVIC_EncodePriority (uint32_t PriorityGroup, uint32_t PreemptPriority, uint32_t SubPriority)
{
 8000cdc:	b480      	push	{r7}
 8000cde:	b089      	sub	sp, #36	; 0x24
 8000ce0:	af00      	add	r7, sp, #0
 8000ce2:	60f8      	str	r0, [r7, #12]
 8000ce4:	60b9      	str	r1, [r7, #8]
 8000ce6:	607a      	str	r2, [r7, #4]
  uint32_t PriorityGroupTmp = (PriorityGroup & (uint32_t)0x07UL);   /* only values 0..7 are used          */
 8000ce8:	68fb      	ldr	r3, [r7, #12]
 8000cea:	f003 0307 	and.w	r3, r3, #7
 8000cee:	61fb      	str	r3, [r7, #28]
  uint32_t PreemptPriorityBits;
  uint32_t SubPriorityBits;

  PreemptPriorityBits = ((7UL - PriorityGroupTmp) > (uint32_t)(__NVIC_PRIO_BITS)) ? (uint32_t)(__NVIC_PRIO_BITS) : (uint32_t)(7UL - PriorityGroupTmp);
 8000cf0:	69fb      	ldr	r3, [r7, #28]
 8000cf2:	f1c3 0307 	rsb	r3, r3, #7
 8000cf6:	2b04      	cmp	r3, #4
 8000cf8:	bf28      	it	cs
 8000cfa:	2304      	movcs	r3, #4
 8000cfc:	61bb      	str	r3, [r7, #24]
  SubPriorityBits     = ((PriorityGroupTmp + (uint32_t)(__NVIC_PRIO_BITS)) < (uint32_t)7UL) ? (uint32_t)0UL : (uint32_t)((PriorityGroupTmp - 7UL) + (uint32_t)(__NVIC_PRIO_BITS));
 8000cfe:	69fb      	ldr	r3, [r7, #28]
 8000d00:	3304      	adds	r3, #4
 8000d02:	2b06      	cmp	r3, #6
 8000d04:	d902      	bls.n	8000d0c <NVIC_EncodePriority+0x30>
 8000d06:	69fb      	ldr	r3, [r7, #28]
 8000d08:	3b03      	subs	r3, #3
 8000d0a:	e000      	b.n	8000d0e <NVIC_EncodePriority+0x32>
 8000d0c:	2300      	movs	r3, #0
 8000d0e:	617b      	str	r3, [r7, #20]

  return (
           ((PreemptPriority & (uint32_t)((1UL << (PreemptPriorityBits)) - 1UL)) << SubPriorityBits) |
 8000d10:	f04f 32ff 	mov.w	r2, #4294967295
 8000d14:	69bb      	ldr	r3, [r7, #24]
 8000d16:	fa02 f303 	lsl.w	r3, r2, r3
 8000d1a:	43da      	mvns	r2, r3
 8000d1c:	68bb      	ldr	r3, [r7, #8]
 8000d1e:	401a      	ands	r2, r3
 8000d20:	697b      	ldr	r3, [r7, #20]
 8000d22:	409a      	lsls	r2, r3
           ((SubPriority     & (uint32_t)((1UL << (SubPriorityBits    )) - 1UL)))
 8000d24:	f04f 31ff 	mov.w	r1, #4294967295
 8000d28:	697b      	ldr	r3, [r7, #20]
 8000d2a:	fa01 f303 	lsl.w	r3, r1, r3
 8000d2e:	43d9      	mvns	r1, r3
 8000d30:	687b      	ldr	r3, [r7, #4]
 8000d32:	400b      	ands	r3, r1
           ((PreemptPriority & (uint32_t)((1UL << (PreemptPriorityBits)) - 1UL)) << SubPriorityBits) |
 8000d34:	4313      	orrs	r3, r2
         );
}
 8000d36:	4618      	mov	r0, r3
 8000d38:	3724      	adds	r7, #36	; 0x24
 8000d3a:	46bd      	mov	sp, r7
 8000d3c:	f85d 7b04 	ldr.w	r7, [sp], #4
 8000d40:	4770      	bx	lr
	...

08000d44 <SysTick_Config>:
  \note    When the variable <b>__Vendor_SysTickConfig</b> is set to 1, then the
           function <b>SysTick_Config</b> is not included. In this case, the file <b><i>device</i>.h</b>
           must contain a vendor-specific implementation of this function.
 */
__STATIC_INLINE uint32_t SysTick_Config(uint32_t ticks)
{
 8000d44:	b580      	push	{r7, lr}
 8000d46:	b082      	sub	sp, #8
 8000d48:	af00      	add	r7, sp, #0
 8000d4a:	6078      	str	r0, [r7, #4]
  if ((ticks - 1UL) > SysTick_LOAD_RELOAD_Msk)
 8000d4c:	687b      	ldr	r3, [r7, #4]
 8000d4e:	3b01      	subs	r3, #1
 8000d50:	f1b3 7f80 	cmp.w	r3, #16777216	; 0x1000000
 8000d54:	d301      	bcc.n	8000d5a <SysTick_Config+0x16>
  {
    return (1UL);                                                   /* Reload value impossible */
 8000d56:	2301      	movs	r3, #1
 8000d58:	e00f      	b.n	8000d7a <SysTick_Config+0x36>
  }

  SysTick->LOAD  = (uint32_t)(ticks - 1UL);                         /* set reload register */
 8000d5a:	4a0a      	ldr	r2, [pc, #40]	; (8000d84 <SysTick_Config+0x40>)
 8000d5c:	687b      	ldr	r3, [r7, #4]
 8000d5e:	3b01      	subs	r3, #1
 8000d60:	6053      	str	r3, [r2, #4]
  NVIC_SetPriority (SysTick_IRQn, (1UL << __NVIC_PRIO_BITS) - 1UL); /* set Priority for Systick Interrupt */
 8000d62:	210f      	movs	r1, #15
 8000d64:	f04f 30ff 	mov.w	r0, #4294967295
 8000d68:	f7ff ff8e 	bl	8000c88 <__NVIC_SetPriority>
  SysTick->VAL   = 0UL;                                             /* Load the SysTick Counter Value */
 8000d6c:	4b05      	ldr	r3, [pc, #20]	; (8000d84 <SysTick_Config+0x40>)
 8000d6e:	2200      	movs	r2, #0
 8000d70:	609a      	str	r2, [r3, #8]
  SysTick->CTRL  = SysTick_CTRL_CLKSOURCE_Msk |
 8000d72:	4b04      	ldr	r3, [pc, #16]	; (8000d84 <SysTick_Config+0x40>)
 8000d74:	2207      	movs	r2, #7
 8000d76:	601a      	str	r2, [r3, #0]
                   SysTick_CTRL_TICKINT_Msk   |
                   SysTick_CTRL_ENABLE_Msk;                         /* Enable SysTick IRQ and SysTick Timer */
  return (0UL);                                                     /* Function successful */
 8000d78:	2300      	movs	r3, #0
}
 8000d7a:	4618      	mov	r0, r3
 8000d7c:	3708      	adds	r7, #8
 8000d7e:	46bd      	mov	sp, r7
 8000d80:	bd80      	pop	{r7, pc}
 8000d82:	bf00      	nop
 8000d84:	e000e010 	.word	0xe000e010

08000d88 <HAL_NVIC_SetPriorityGrouping>:
  * @note   When the NVIC_PriorityGroup_0 is selected, IRQ preemption is no more possible.
  *         The pending IRQ priority will be managed only by the subpriority.
  * @retval None
  */
void HAL_NVIC_SetPriorityGrouping(uint32_t PriorityGroup)
{
 8000d88:	b580      	push	{r7, lr}
 8000d8a:	b082      	sub	sp, #8
 8000d8c:	af00      	add	r7, sp, #0
 8000d8e:	6078      	str	r0, [r7, #4]
  /* Check the parameters */
  assert_param(IS_NVIC_PRIORITY_GROUP(PriorityGroup));

  /* Set the PRIGROUP[10:8] bits according to the PriorityGroup parameter value */
  NVIC_SetPriorityGrouping(PriorityGroup);
 8000d90:	6878      	ldr	r0, [r7, #4]
 8000d92:	f7ff ff47 	bl	8000c24 <__NVIC_SetPriorityGrouping>
}
 8000d96:	bf00      	nop
 8000d98:	3708      	adds	r7, #8
 8000d9a:	46bd      	mov	sp, r7
 8000d9c:	bd80      	pop	{r7, pc}

08000d9e <HAL_NVIC_SetPriority>:
  *         This parameter can be a value between 0 and 15
  *         A lower priority value indicates a higher priority.
  * @retval None
  */
void HAL_NVIC_SetPriority(IRQn_Type IRQn, uint32_t PreemptPriority, uint32_t SubPriority)
{
 8000d9e:	b580      	push	{r7, lr}
 8000da0:	b086      	sub	sp, #24
 8000da2:	af00      	add	r7, sp, #0
 8000da4:	4603      	mov	r3, r0
 8000da6:	60b9      	str	r1, [r7, #8]
 8000da8:	607a      	str	r2, [r7, #4]
 8000daa:	81fb      	strh	r3, [r7, #14]

  /* Check the parameters */
  assert_param(IS_NVIC_SUB_PRIORITY(SubPriority));
  assert_param(IS_NVIC_PREEMPTION_PRIORITY(PreemptPriority));

  prioritygroup = NVIC_GetPriorityGrouping();
 8000dac:	f7ff ff5e 	bl	8000c6c <__NVIC_GetPriorityGrouping>
 8000db0:	6178      	str	r0, [r7, #20]

  NVIC_SetPriority(IRQn, NVIC_EncodePriority(prioritygroup, PreemptPriority, SubPriority));
 8000db2:	687a      	ldr	r2, [r7, #4]
 8000db4:	68b9      	ldr	r1, [r7, #8]
 8000db6:	6978      	ldr	r0, [r7, #20]
 8000db8:	f7ff ff90 	bl	8000cdc <NVIC_EncodePriority>
 8000dbc:	4602      	mov	r2, r0
 8000dbe:	f9b7 300e 	ldrsh.w	r3, [r7, #14]
 8000dc2:	4611      	mov	r1, r2
 8000dc4:	4618      	mov	r0, r3
 8000dc6:	f7ff ff5f 	bl	8000c88 <__NVIC_SetPriority>
}
 8000dca:	bf00      	nop
 8000dcc:	3718      	adds	r7, #24
 8000dce:	46bd      	mov	sp, r7
 8000dd0:	bd80      	pop	{r7, pc}

08000dd2 <HAL_SYSTICK_Config>:
  * @param  TicksNumb Specifies the ticks Number of ticks between two interrupts.
  * @retval status   - 0  Function succeeded.
  *                  - 1  Function failed.
  */
uint32_t HAL_SYSTICK_Config(uint32_t TicksNumb)
{
 8000dd2:	b580      	push	{r7, lr}
 8000dd4:	b082      	sub	sp, #8
 8000dd6:	af00      	add	r7, sp, #0
 8000dd8:	6078      	str	r0, [r7, #4]
   return SysTick_Config(TicksNumb);
 8000dda:	6878      	ldr	r0, [r7, #4]
 8000ddc:	f7ff ffb2 	bl	8000d44 <SysTick_Config>
 8000de0:	4603      	mov	r3, r0
}
 8000de2:	4618      	mov	r0, r3
 8000de4:	3708      	adds	r7, #8
 8000de6:	46bd      	mov	sp, r7
 8000de8:	bd80      	pop	{r7, pc}
	...

08000dec <HAL_GPIO_Init>:
  * @param  GPIO_Init: pointer to a GPIO_InitTypeDef structure that contains
  *         the configuration information for the specified GPIO peripheral.
  * @retval None
  */
void HAL_GPIO_Init(GPIO_TypeDef  *GPIOx, GPIO_InitTypeDef *GPIO_Init)
{
 8000dec:	b480      	push	{r7}
 8000dee:	b089      	sub	sp, #36	; 0x24
 8000df0:	af00      	add	r7, sp, #0
 8000df2:	6078      	str	r0, [r7, #4]
 8000df4:	6039      	str	r1, [r7, #0]
  uint32_t position = 0x00U;
 8000df6:	2300      	movs	r3, #0
 8000df8:	61fb      	str	r3, [r7, #28]
  EXTI_Core_TypeDef *EXTI_CurrentCPU;

#if defined(DUAL_CORE) && defined(CORE_CM4)
  EXTI_CurrentCPU = EXTI_D2; /* EXTI for CM4 CPU */
#else
  EXTI_CurrentCPU = EXTI_D1; /* EXTI for CM7 CPU */
 8000dfa:	4b89      	ldr	r3, [pc, #548]	; (8001020 <HAL_GPIO_Init+0x234>)
 8000dfc:	617b      	str	r3, [r7, #20]
  assert_param(IS_GPIO_ALL_INSTANCE(GPIOx));
  assert_param(IS_GPIO_PIN(GPIO_Init->Pin));
  assert_param(IS_GPIO_MODE(GPIO_Init->Mode));

  /* Configure the port pins */
  while (((GPIO_Init->Pin) >> position) != 0x00U)
 8000dfe:	e194      	b.n	800112a <HAL_GPIO_Init+0x33e>
  {
    /* Get current io position */
    iocurrent = (GPIO_Init->Pin) & (1UL << position);
 8000e00:	683b      	ldr	r3, [r7, #0]
 8000e02:	681a      	ldr	r2, [r3, #0]
 8000e04:	2101      	movs	r1, #1
 8000e06:	69fb      	ldr	r3, [r7, #28]
 8000e08:	fa01 f303 	lsl.w	r3, r1, r3
 8000e0c:	4013      	ands	r3, r2
 8000e0e:	613b      	str	r3, [r7, #16]

    if (iocurrent != 0x00U)
 8000e10:	693b      	ldr	r3, [r7, #16]
 8000e12:	2b00      	cmp	r3, #0
 8000e14:	f000 8186 	beq.w	8001124 <HAL_GPIO_Init+0x338>
    {
      /*--------------------- GPIO Mode Configuration ------------------------*/
      /* In case of Output or Alternate function mode selection */
      if (((GPIO_Init->Mode & GPIO_MODE) == MODE_OUTPUT) || ((GPIO_Init->Mode & GPIO_MODE) == MODE_AF))
 8000e18:	683b      	ldr	r3, [r7, #0]
 8000e1a:	685b      	ldr	r3, [r3, #4]
 8000e1c:	f003 0303 	and.w	r3, r3, #3
 8000e20:	2b01      	cmp	r3, #1
 8000e22:	d005      	beq.n	8000e30 <HAL_GPIO_Init+0x44>
 8000e24:	683b      	ldr	r3, [r7, #0]
 8000e26:	685b      	ldr	r3, [r3, #4]
 8000e28:	f003 0303 	and.w	r3, r3, #3
 8000e2c:	2b02      	cmp	r3, #2
 8000e2e:	d130      	bne.n	8000e92 <HAL_GPIO_Init+0xa6>
      {
        /* Check the Speed parameter */
        assert_param(IS_GPIO_SPEED(GPIO_Init->Speed));

        /* Configure the IO Speed */
        temp = GPIOx->OSPEEDR;
 8000e30:	687b      	ldr	r3, [r7, #4]
 8000e32:	689b      	ldr	r3, [r3, #8]
 8000e34:	61bb      	str	r3, [r7, #24]
        temp &= ~(GPIO_OSPEEDR_OSPEED0 << (position * 2U));
 8000e36:	69fb      	ldr	r3, [r7, #28]
 8000e38:	005b      	lsls	r3, r3, #1
 8000e3a:	2203      	movs	r2, #3
 8000e3c:	fa02 f303 	lsl.w	r3, r2, r3
 8000e40:	43db      	mvns	r3, r3
 8000e42:	69ba      	ldr	r2, [r7, #24]
 8000e44:	4013      	ands	r3, r2
 8000e46:	61bb      	str	r3, [r7, #24]
        temp |= (GPIO_Init->Speed << (position * 2U));
 8000e48:	683b      	ldr	r3, [r7, #0]
 8000e4a:	68da      	ldr	r2, [r3, #12]
 8000e4c:	69fb      	ldr	r3, [r7, #28]
 8000e4e:	005b      	lsls	r3, r3, #1
 8000e50:	fa02 f303 	lsl.w	r3, r2, r3
 8000e54:	69ba      	ldr	r2, [r7, #24]
 8000e56:	4313      	orrs	r3, r2
 8000e58:	61bb      	str	r3, [r7, #24]
        GPIOx->OSPEEDR = temp;
 8000e5a:	687b      	ldr	r3, [r7, #4]
 8000e5c:	69ba      	ldr	r2, [r7, #24]
 8000e5e:	609a      	str	r2, [r3, #8]

        /* Configure the IO Output Type */
        temp = GPIOx->OTYPER;
 8000e60:	687b      	ldr	r3, [r7, #4]
 8000e62:	685b      	ldr	r3, [r3, #4]
 8000e64:	61bb      	str	r3, [r7, #24]
        temp &= ~(GPIO_OTYPER_OT0 << position) ;
 8000e66:	2201      	movs	r2, #1
 8000e68:	69fb      	ldr	r3, [r7, #28]
 8000e6a:	fa02 f303 	lsl.w	r3, r2, r3
 8000e6e:	43db      	mvns	r3, r3
 8000e70:	69ba      	ldr	r2, [r7, #24]
 8000e72:	4013      	ands	r3, r2
 8000e74:	61bb      	str	r3, [r7, #24]
        temp |= (((GPIO_Init->Mode & OUTPUT_TYPE) >> OUTPUT_TYPE_Pos) << position);
 8000e76:	683b      	ldr	r3, [r7, #0]
 8000e78:	685b      	ldr	r3, [r3, #4]
 8000e7a:	091b      	lsrs	r3, r3, #4
 8000e7c:	f003 0201 	and.w	r2, r3, #1
 8000e80:	69fb      	ldr	r3, [r7, #28]
 8000e82:	fa02 f303 	lsl.w	r3, r2, r3
 8000e86:	69ba      	ldr	r2, [r7, #24]
 8000e88:	4313      	orrs	r3, r2
 8000e8a:	61bb      	str	r3, [r7, #24]
        GPIOx->OTYPER = temp;
 8000e8c:	687b      	ldr	r3, [r7, #4]
 8000e8e:	69ba      	ldr	r2, [r7, #24]
 8000e90:	605a      	str	r2, [r3, #4]
      }

      if ((GPIO_Init->Mode & GPIO_MODE) != MODE_ANALOG)
 8000e92:	683b      	ldr	r3, [r7, #0]
 8000e94:	685b      	ldr	r3, [r3, #4]
 8000e96:	f003 0303 	and.w	r3, r3, #3
 8000e9a:	2b03      	cmp	r3, #3
 8000e9c:	d017      	beq.n	8000ece <HAL_GPIO_Init+0xe2>
      {
       /* Check the Pull parameter */
       assert_param(IS_GPIO_PULL(GPIO_Init->Pull));

      /* Activate the Pull-up or Pull down resistor for the current IO */
      temp = GPIOx->PUPDR;
 8000e9e:	687b      	ldr	r3, [r7, #4]
 8000ea0:	68db      	ldr	r3, [r3, #12]
 8000ea2:	61bb      	str	r3, [r7, #24]
      temp &= ~(GPIO_PUPDR_PUPD0 << (position * 2U));
 8000ea4:	69fb      	ldr	r3, [r7, #28]
 8000ea6:	005b      	lsls	r3, r3, #1
 8000ea8:	2203      	movs	r2, #3
 8000eaa:	fa02 f303 	lsl.w	r3, r2, r3
 8000eae:	43db      	mvns	r3, r3
 8000eb0:	69ba      	ldr	r2, [r7, #24]
 8000eb2:	4013      	ands	r3, r2
 8000eb4:	61bb      	str	r3, [r7, #24]
      temp |= ((GPIO_Init->Pull) << (position * 2U));
 8000eb6:	683b      	ldr	r3, [r7, #0]
 8000eb8:	689a      	ldr	r2, [r3, #8]
 8000eba:	69fb      	ldr	r3, [r7, #28]
 8000ebc:	005b      	lsls	r3, r3, #1
 8000ebe:	fa02 f303 	lsl.w	r3, r2, r3
 8000ec2:	69ba      	ldr	r2, [r7, #24]
 8000ec4:	4313      	orrs	r3, r2
 8000ec6:	61bb      	str	r3, [r7, #24]
      GPIOx->PUPDR = temp;
 8000ec8:	687b      	ldr	r3, [r7, #4]
 8000eca:	69ba      	ldr	r2, [r7, #24]
 8000ecc:	60da      	str	r2, [r3, #12]
      }

      /* In case of Alternate function mode selection */
      if ((GPIO_Init->Mode & GPIO_MODE) == MODE_AF)
 8000ece:	683b      	ldr	r3, [r7, #0]
 8000ed0:	685b      	ldr	r3, [r3, #4]
 8000ed2:	f003 0303 	and.w	r3, r3, #3
 8000ed6:	2b02      	cmp	r3, #2
 8000ed8:	d123      	bne.n	8000f22 <HAL_GPIO_Init+0x136>
        /* Check the Alternate function parameters */
        assert_param(IS_GPIO_AF_INSTANCE(GPIOx));
        assert_param(IS_GPIO_AF(GPIO_Init->Alternate));

        /* Configure Alternate function mapped with the current IO */
        temp = GPIOx->AFR[position >> 3U];
 8000eda:	69fb      	ldr	r3, [r7, #28]
 8000edc:	08da      	lsrs	r2, r3, #3
 8000ede:	687b      	ldr	r3, [r7, #4]
 8000ee0:	3208      	adds	r2, #8
 8000ee2:	f853 3022 	ldr.w	r3, [r3, r2, lsl #2]
 8000ee6:	61bb      	str	r3, [r7, #24]
        temp &= ~(0xFU << ((position & 0x07U) * 4U));
 8000ee8:	69fb      	ldr	r3, [r7, #28]
 8000eea:	f003 0307 	and.w	r3, r3, #7
 8000eee:	009b      	lsls	r3, r3, #2
 8000ef0:	220f      	movs	r2, #15
 8000ef2:	fa02 f303 	lsl.w	r3, r2, r3
 8000ef6:	43db      	mvns	r3, r3
 8000ef8:	69ba      	ldr	r2, [r7, #24]
 8000efa:	4013      	ands	r3, r2
 8000efc:	61bb      	str	r3, [r7, #24]
        temp |= ((GPIO_Init->Alternate) << ((position & 0x07U) * 4U));
 8000efe:	683b      	ldr	r3, [r7, #0]
 8000f00:	691a      	ldr	r2, [r3, #16]
 8000f02:	69fb      	ldr	r3, [r7, #28]
 8000f04:	f003 0307 	and.w	r3, r3, #7
 8000f08:	009b      	lsls	r3, r3, #2
 8000f0a:	fa02 f303 	lsl.w	r3, r2, r3
 8000f0e:	69ba      	ldr	r2, [r7, #24]
 8000f10:	4313      	orrs	r3, r2
 8000f12:	61bb      	str	r3, [r7, #24]
        GPIOx->AFR[position >> 3U] = temp;
 8000f14:	69fb      	ldr	r3, [r7, #28]
 8000f16:	08da      	lsrs	r2, r3, #3
 8000f18:	687b      	ldr	r3, [r7, #4]
 8000f1a:	3208      	adds	r2, #8
 8000f1c:	69b9      	ldr	r1, [r7, #24]
 8000f1e:	f843 1022 	str.w	r1, [r3, r2, lsl #2]
      }

      /* Configure IO Direction mode (Input, Output, Alternate or Analog) */
      temp = GPIOx->MODER;
 8000f22:	687b      	ldr	r3, [r7, #4]
 8000f24:	681b      	ldr	r3, [r3, #0]
 8000f26:	61bb      	str	r3, [r7, #24]
      temp &= ~(GPIO_MODER_MODE0 << (position * 2U));
 8000f28:	69fb      	ldr	r3, [r7, #28]
 8000f2a:	005b      	lsls	r3, r3, #1
 8000f2c:	2203      	movs	r2, #3
 8000f2e:	fa02 f303 	lsl.w	r3, r2, r3
 8000f32:	43db      	mvns	r3, r3
 8000f34:	69ba      	ldr	r2, [r7, #24]
 8000f36:	4013      	ands	r3, r2
 8000f38:	61bb      	str	r3, [r7, #24]
      temp |= ((GPIO_Init->Mode & GPIO_MODE) << (position * 2U));
 8000f3a:	683b      	ldr	r3, [r7, #0]
 8000f3c:	685b      	ldr	r3, [r3, #4]
 8000f3e:	f003 0203 	and.w	r2, r3, #3
 8000f42:	69fb      	ldr	r3, [r7, #28]
 8000f44:	005b      	lsls	r3, r3, #1
 8000f46:	fa02 f303 	lsl.w	r3, r2, r3
 8000f4a:	69ba      	ldr	r2, [r7, #24]
 8000f4c:	4313      	orrs	r3, r2
 8000f4e:	61bb      	str	r3, [r7, #24]
      GPIOx->MODER = temp;
 8000f50:	687b      	ldr	r3, [r7, #4]
 8000f52:	69ba      	ldr	r2, [r7, #24]
 8000f54:	601a      	str	r2, [r3, #0]

      /*--------------------- EXTI Mode Configuration ------------------------*/
      /* Configure the External Interrupt or event for the current IO */
      if ((GPIO_Init->Mode & EXTI_MODE) != 0x00U)
 8000f56:	683b      	ldr	r3, [r7, #0]
 8000f58:	685b      	ldr	r3, [r3, #4]
 8000f5a:	f403 3340 	and.w	r3, r3, #196608	; 0x30000
 8000f5e:	2b00      	cmp	r3, #0
 8000f60:	f000 80e0 	beq.w	8001124 <HAL_GPIO_Init+0x338>
      {
        /* Enable SYSCFG Clock */
        __HAL_RCC_SYSCFG_CLK_ENABLE();
 8000f64:	4b2f      	ldr	r3, [pc, #188]	; (8001024 <HAL_GPIO_Init+0x238>)
 8000f66:	f8d3 30f4 	ldr.w	r3, [r3, #244]	; 0xf4
 8000f6a:	4a2e      	ldr	r2, [pc, #184]	; (8001024 <HAL_GPIO_Init+0x238>)
 8000f6c:	f043 0302 	orr.w	r3, r3, #2
 8000f70:	f8c2 30f4 	str.w	r3, [r2, #244]	; 0xf4
 8000f74:	4b2b      	ldr	r3, [pc, #172]	; (8001024 <HAL_GPIO_Init+0x238>)
 8000f76:	f8d3 30f4 	ldr.w	r3, [r3, #244]	; 0xf4
 8000f7a:	f003 0302 	and.w	r3, r3, #2
 8000f7e:	60fb      	str	r3, [r7, #12]
 8000f80:	68fb      	ldr	r3, [r7, #12]

        temp = SYSCFG->EXTICR[position >> 2U];
 8000f82:	4a29      	ldr	r2, [pc, #164]	; (8001028 <HAL_GPIO_Init+0x23c>)
 8000f84:	69fb      	ldr	r3, [r7, #28]
 8000f86:	089b      	lsrs	r3, r3, #2
 8000f88:	3302      	adds	r3, #2
 8000f8a:	f852 3023 	ldr.w	r3, [r2, r3, lsl #2]
 8000f8e:	61bb      	str	r3, [r7, #24]
        temp &= ~(0x0FUL << (4U * (position & 0x03U)));
 8000f90:	69fb      	ldr	r3, [r7, #28]
 8000f92:	f003 0303 	and.w	r3, r3, #3
 8000f96:	009b      	lsls	r3, r3, #2
 8000f98:	220f      	movs	r2, #15
 8000f9a:	fa02 f303 	lsl.w	r3, r2, r3
 8000f9e:	43db      	mvns	r3, r3
 8000fa0:	69ba      	ldr	r2, [r7, #24]
 8000fa2:	4013      	ands	r3, r2
 8000fa4:	61bb      	str	r3, [r7, #24]
        temp |= (GPIO_GET_INDEX(GPIOx) << (4U * (position & 0x03U)));
 8000fa6:	687b      	ldr	r3, [r7, #4]
 8000fa8:	4a20      	ldr	r2, [pc, #128]	; (800102c <HAL_GPIO_Init+0x240>)
 8000faa:	4293      	cmp	r3, r2
 8000fac:	d052      	beq.n	8001054 <HAL_GPIO_Init+0x268>
 8000fae:	687b      	ldr	r3, [r7, #4]
 8000fb0:	4a1f      	ldr	r2, [pc, #124]	; (8001030 <HAL_GPIO_Init+0x244>)
 8000fb2:	4293      	cmp	r3, r2
 8000fb4:	d031      	beq.n	800101a <HAL_GPIO_Init+0x22e>
 8000fb6:	687b      	ldr	r3, [r7, #4]
 8000fb8:	4a1e      	ldr	r2, [pc, #120]	; (8001034 <HAL_GPIO_Init+0x248>)
 8000fba:	4293      	cmp	r3, r2
 8000fbc:	d02b      	beq.n	8001016 <HAL_GPIO_Init+0x22a>
 8000fbe:	687b      	ldr	r3, [r7, #4]
 8000fc0:	4a1d      	ldr	r2, [pc, #116]	; (8001038 <HAL_GPIO_Init+0x24c>)
 8000fc2:	4293      	cmp	r3, r2
 8000fc4:	d025      	beq.n	8001012 <HAL_GPIO_Init+0x226>
 8000fc6:	687b      	ldr	r3, [r7, #4]
 8000fc8:	4a1c      	ldr	r2, [pc, #112]	; (800103c <HAL_GPIO_Init+0x250>)
 8000fca:	4293      	cmp	r3, r2
 8000fcc:	d01f      	beq.n	800100e <HAL_GPIO_Init+0x222>
 8000fce:	687b      	ldr	r3, [r7, #4]
 8000fd0:	4a1b      	ldr	r2, [pc, #108]	; (8001040 <HAL_GPIO_Init+0x254>)
 8000fd2:	4293      	cmp	r3, r2
 8000fd4:	d019      	beq.n	800100a <HAL_GPIO_Init+0x21e>
 8000fd6:	687b      	ldr	r3, [r7, #4]
 8000fd8:	4a1a      	ldr	r2, [pc, #104]	; (8001044 <HAL_GPIO_Init+0x258>)
 8000fda:	4293      	cmp	r3, r2
 8000fdc:	d013      	beq.n	8001006 <HAL_GPIO_Init+0x21a>
 8000fde:	687b      	ldr	r3, [r7, #4]
 8000fe0:	4a19      	ldr	r2, [pc, #100]	; (8001048 <HAL_GPIO_Init+0x25c>)
 8000fe2:	4293      	cmp	r3, r2
 8000fe4:	d00d      	beq.n	8001002 <HAL_GPIO_Init+0x216>
 8000fe6:	687b      	ldr	r3, [r7, #4]
 8000fe8:	4a18      	ldr	r2, [pc, #96]	; (800104c <HAL_GPIO_Init+0x260>)
 8000fea:	4293      	cmp	r3, r2
 8000fec:	d007      	beq.n	8000ffe <HAL_GPIO_Init+0x212>
 8000fee:	687b      	ldr	r3, [r7, #4]
 8000ff0:	4a17      	ldr	r2, [pc, #92]	; (8001050 <HAL_GPIO_Init+0x264>)
 8000ff2:	4293      	cmp	r3, r2
 8000ff4:	d101      	bne.n	8000ffa <HAL_GPIO_Init+0x20e>
 8000ff6:	2309      	movs	r3, #9
 8000ff8:	e02d      	b.n	8001056 <HAL_GPIO_Init+0x26a>
 8000ffa:	230a      	movs	r3, #10
 8000ffc:	e02b      	b.n	8001056 <HAL_GPIO_Init+0x26a>
 8000ffe:	2308      	movs	r3, #8
 8001000:	e029      	b.n	8001056 <HAL_GPIO_Init+0x26a>
 8001002:	2307      	movs	r3, #7
 8001004:	e027      	b.n	8001056 <HAL_GPIO_Init+0x26a>
 8001006:	2306      	movs	r3, #6
 8001008:	e025      	b.n	8001056 <HAL_GPIO_Init+0x26a>
 800100a:	2305      	movs	r3, #5
 800100c:	e023      	b.n	8001056 <HAL_GPIO_Init+0x26a>
 800100e:	2304      	movs	r3, #4
 8001010:	e021      	b.n	8001056 <HAL_GPIO_Init+0x26a>
 8001012:	2303      	movs	r3, #3
 8001014:	e01f      	b.n	8001056 <HAL_GPIO_Init+0x26a>
 8001016:	2302      	movs	r3, #2
 8001018:	e01d      	b.n	8001056 <HAL_GPIO_Init+0x26a>
 800101a:	2301      	movs	r3, #1
 800101c:	e01b      	b.n	8001056 <HAL_GPIO_Init+0x26a>
 800101e:	bf00      	nop
 8001020:	58000080 	.word	0x58000080
 8001024:	58024400 	.word	0x58024400
 8001028:	58000400 	.word	0x58000400
 800102c:	58020000 	.word	0x58020000
 8001030:	58020400 	.word	0x58020400
 8001034:	58020800 	.word	0x58020800
 8001038:	58020c00 	.word	0x58020c00
 800103c:	58021000 	.word	0x58021000
 8001040:	58021400 	.word	0x58021400
 8001044:	58021800 	.word	0x58021800
 8001048:	58021c00 	.word	0x58021c00
 800104c:	58022000 	.word	0x58022000
 8001050:	58022400 	.word	0x58022400
 8001054:	2300      	movs	r3, #0
 8001056:	69fa      	ldr	r2, [r7, #28]
 8001058:	f002 0203 	and.w	r2, r2, #3
 800105c:	0092      	lsls	r2, r2, #2
 800105e:	4093      	lsls	r3, r2
 8001060:	69ba      	ldr	r2, [r7, #24]
 8001062:	4313      	orrs	r3, r2
 8001064:	61bb      	str	r3, [r7, #24]
        SYSCFG->EXTICR[position >> 2U] = temp;
 8001066:	4938      	ldr	r1, [pc, #224]	; (8001148 <HAL_GPIO_Init+0x35c>)
 8001068:	69fb      	ldr	r3, [r7, #28]
 800106a:	089b      	lsrs	r3, r3, #2
 800106c:	3302      	adds	r3, #2
 800106e:	69ba      	ldr	r2, [r7, #24]
 8001070:	f841 2023 	str.w	r2, [r1, r3, lsl #2]

        /* Clear Rising Falling edge configuration */
        temp = EXTI->RTSR1;
 8001074:	f04f 43b0 	mov.w	r3, #1476395008	; 0x58000000
 8001078:	681b      	ldr	r3, [r3, #0]
 800107a:	61bb      	str	r3, [r7, #24]
        temp &= ~(iocurrent);
 800107c:	693b      	ldr	r3, [r7, #16]
 800107e:	43db      	mvns	r3, r3
 8001080:	69ba      	ldr	r2, [r7, #24]
 8001082:	4013      	ands	r3, r2
 8001084:	61bb      	str	r3, [r7, #24]
        if ((GPIO_Init->Mode & TRIGGER_RISING) != 0x00U)
 8001086:	683b      	ldr	r3, [r7, #0]
 8001088:	685b      	ldr	r3, [r3, #4]
 800108a:	f403 1380 	and.w	r3, r3, #1048576	; 0x100000
 800108e:	2b00      	cmp	r3, #0
 8001090:	d003      	beq.n	800109a <HAL_GPIO_Init+0x2ae>
        {
          temp |= iocurrent;
 8001092:	69ba      	ldr	r2, [r7, #24]
 8001094:	693b      	ldr	r3, [r7, #16]
 8001096:	4313      	orrs	r3, r2
 8001098:	61bb      	str	r3, [r7, #24]
        }
        EXTI->RTSR1 = temp;
 800109a:	f04f 42b0 	mov.w	r2, #1476395008	; 0x58000000
 800109e:	69bb      	ldr	r3, [r7, #24]
 80010a0:	6013      	str	r3, [r2, #0]

        temp = EXTI->FTSR1;
 80010a2:	f04f 43b0 	mov.w	r3, #1476395008	; 0x58000000
 80010a6:	685b      	ldr	r3, [r3, #4]
 80010a8:	61bb      	str	r3, [r7, #24]
        temp &= ~(iocurrent);
 80010aa:	693b      	ldr	r3, [r7, #16]
 80010ac:	43db      	mvns	r3, r3
 80010ae:	69ba      	ldr	r2, [r7, #24]
 80010b0:	4013      	ands	r3, r2
 80010b2:	61bb      	str	r3, [r7, #24]
        if ((GPIO_Init->Mode & TRIGGER_FALLING) != 0x00U)
 80010b4:	683b      	ldr	r3, [r7, #0]
 80010b6:	685b      	ldr	r3, [r3, #4]
 80010b8:	f403 1300 	and.w	r3, r3, #2097152	; 0x200000
 80010bc:	2b00      	cmp	r3, #0
 80010be:	d003      	beq.n	80010c8 <HAL_GPIO_Init+0x2dc>
        {
          temp |= iocurrent;
 80010c0:	69ba      	ldr	r2, [r7, #24]
 80010c2:	693b      	ldr	r3, [r7, #16]
 80010c4:	4313      	orrs	r3, r2
 80010c6:	61bb      	str	r3, [r7, #24]
        }
        EXTI->FTSR1 = temp;
 80010c8:	f04f 42b0 	mov.w	r2, #1476395008	; 0x58000000
 80010cc:	69bb      	ldr	r3, [r7, #24]
 80010ce:	6053      	str	r3, [r2, #4]

        temp = EXTI_CurrentCPU->EMR1;
 80010d0:	697b      	ldr	r3, [r7, #20]
 80010d2:	685b      	ldr	r3, [r3, #4]
 80010d4:	61bb      	str	r3, [r7, #24]
        temp &= ~(iocurrent);
 80010d6:	693b      	ldr	r3, [r7, #16]
 80010d8:	43db      	mvns	r3, r3
 80010da:	69ba      	ldr	r2, [r7, #24]
 80010dc:	4013      	ands	r3, r2
 80010de:	61bb      	str	r3, [r7, #24]
        if ((GPIO_Init->Mode & EXTI_EVT) != 0x00U)
 80010e0:	683b      	ldr	r3, [r7, #0]
 80010e2:	685b      	ldr	r3, [r3, #4]
 80010e4:	f403 3300 	and.w	r3, r3, #131072	; 0x20000
 80010e8:	2b00      	cmp	r3, #0
 80010ea:	d003      	beq.n	80010f4 <HAL_GPIO_Init+0x308>
        {
          temp |= iocurrent;
 80010ec:	69ba      	ldr	r2, [r7, #24]
 80010ee:	693b      	ldr	r3, [r7, #16]
 80010f0:	4313      	orrs	r3, r2
 80010f2:	61bb      	str	r3, [r7, #24]
        }
        EXTI_CurrentCPU->EMR1 = temp;
 80010f4:	697b      	ldr	r3, [r7, #20]
 80010f6:	69ba      	ldr	r2, [r7, #24]
 80010f8:	605a      	str	r2, [r3, #4]

        /* Clear EXTI line configuration */
        temp = EXTI_CurrentCPU->IMR1;
 80010fa:	697b      	ldr	r3, [r7, #20]
 80010fc:	681b      	ldr	r3, [r3, #0]
 80010fe:	61bb      	str	r3, [r7, #24]
        temp &= ~(iocurrent);
 8001100:	693b      	ldr	r3, [r7, #16]
 8001102:	43db      	mvns	r3, r3
 8001104:	69ba      	ldr	r2, [r7, #24]
 8001106:	4013      	ands	r3, r2
 8001108:	61bb      	str	r3, [r7, #24]
        if ((GPIO_Init->Mode & EXTI_IT) != 0x00U)
 800110a:	683b      	ldr	r3, [r7, #0]
 800110c:	685b      	ldr	r3, [r3, #4]
 800110e:	f403 3380 	and.w	r3, r3, #65536	; 0x10000
 8001112:	2b00      	cmp	r3, #0
 8001114:	d003      	beq.n	800111e <HAL_GPIO_Init+0x332>
        {
          temp |= iocurrent;
 8001116:	69ba      	ldr	r2, [r7, #24]
 8001118:	693b      	ldr	r3, [r7, #16]
 800111a:	4313      	orrs	r3, r2
 800111c:	61bb      	str	r3, [r7, #24]
        }
        EXTI_CurrentCPU->IMR1 = temp;
 800111e:	697b      	ldr	r3, [r7, #20]
 8001120:	69ba      	ldr	r2, [r7, #24]
 8001122:	601a      	str	r2, [r3, #0]
      }
    }

    position++;
 8001124:	69fb      	ldr	r3, [r7, #28]
 8001126:	3301      	adds	r3, #1
 8001128:	61fb      	str	r3, [r7, #28]
  while (((GPIO_Init->Pin) >> position) != 0x00U)
 800112a:	683b      	ldr	r3, [r7, #0]
 800112c:	681a      	ldr	r2, [r3, #0]
 800112e:	69fb      	ldr	r3, [r7, #28]
 8001130:	fa22 f303 	lsr.w	r3, r2, r3
 8001134:	2b00      	cmp	r3, #0
 8001136:	f47f ae63 	bne.w	8000e00 <HAL_GPIO_Init+0x14>
  }
}
 800113a:	bf00      	nop
 800113c:	bf00      	nop
 800113e:	3724      	adds	r7, #36	; 0x24
 8001140:	46bd      	mov	sp, r7
 8001142:	f85d 7b04 	ldr.w	r7, [sp], #4
 8001146:	4770      	bx	lr
 8001148:	58000400 	.word	0x58000400

0800114c <HAL_GPIO_WritePin>:
  *            @arg GPIO_PIN_RESET: to clear the port pin
  *            @arg GPIO_PIN_SET: to set the port pin
  * @retval None
  */
void HAL_GPIO_WritePin(GPIO_TypeDef *GPIOx, uint16_t GPIO_Pin, GPIO_PinState PinState)
{
 800114c:	b480      	push	{r7}
 800114e:	b083      	sub	sp, #12
 8001150:	af00      	add	r7, sp, #0
 8001152:	6078      	str	r0, [r7, #4]
 8001154:	460b      	mov	r3, r1
 8001156:	807b      	strh	r3, [r7, #2]
 8001158:	4613      	mov	r3, r2
 800115a:	707b      	strb	r3, [r7, #1]
  /* Check the parameters */
  assert_param(IS_GPIO_PIN(GPIO_Pin));
  assert_param(IS_GPIO_PIN_ACTION(PinState));

  if (PinState != GPIO_PIN_RESET)
 800115c:	787b      	ldrb	r3, [r7, #1]
 800115e:	2b00      	cmp	r3, #0
 8001160:	d003      	beq.n	800116a <HAL_GPIO_WritePin+0x1e>
  {
    GPIOx->BSRR = GPIO_Pin;
 8001162:	887a      	ldrh	r2, [r7, #2]
 8001164:	687b      	ldr	r3, [r7, #4]
 8001166:	619a      	str	r2, [r3, #24]
  }
  else
  {
    GPIOx->BSRR = (uint32_t)GPIO_Pin << GPIO_NUMBER;
  }
}
 8001168:	e003      	b.n	8001172 <HAL_GPIO_WritePin+0x26>
    GPIOx->BSRR = (uint32_t)GPIO_Pin << GPIO_NUMBER;
 800116a:	887b      	ldrh	r3, [r7, #2]
 800116c:	041a      	lsls	r2, r3, #16
 800116e:	687b      	ldr	r3, [r7, #4]
 8001170:	619a      	str	r2, [r3, #24]
}
 8001172:	bf00      	nop
 8001174:	370c      	adds	r7, #12
 8001176:	46bd      	mov	sp, r7
 8001178:	f85d 7b04 	ldr.w	r7, [sp], #4
 800117c:	4770      	bx	lr

0800117e <HAL_GPIO_TogglePin>:
  * @param  GPIOx: Where x can be (A..K) to select the GPIO peripheral.
  * @param  GPIO_Pin: Specifies the pins to be toggled.
  * @retval None
  */
void HAL_GPIO_TogglePin(GPIO_TypeDef *GPIOx, uint16_t GPIO_Pin)
{
 800117e:	b480      	push	{r7}
 8001180:	b085      	sub	sp, #20
 8001182:	af00      	add	r7, sp, #0
 8001184:	6078      	str	r0, [r7, #4]
 8001186:	460b      	mov	r3, r1
 8001188:	807b      	strh	r3, [r7, #2]

  /* Check the parameters */
  assert_param(IS_GPIO_PIN(GPIO_Pin));

  /* get current Output Data Register value */
  odr = GPIOx->ODR;
 800118a:	687b      	ldr	r3, [r7, #4]
 800118c:	695b      	ldr	r3, [r3, #20]
 800118e:	60fb      	str	r3, [r7, #12]

  /* Set selected pins that were at low level, and reset ones that were high */
  GPIOx->BSRR = ((odr & GPIO_Pin) << GPIO_NUMBER) | (~odr & GPIO_Pin);
 8001190:	887a      	ldrh	r2, [r7, #2]
 8001192:	68fb      	ldr	r3, [r7, #12]
 8001194:	4013      	ands	r3, r2
 8001196:	041a      	lsls	r2, r3, #16
 8001198:	68fb      	ldr	r3, [r7, #12]
 800119a:	43d9      	mvns	r1, r3
 800119c:	887b      	ldrh	r3, [r7, #2]
 800119e:	400b      	ands	r3, r1
 80011a0:	431a      	orrs	r2, r3
 80011a2:	687b      	ldr	r3, [r7, #4]
 80011a4:	619a      	str	r2, [r3, #24]
}
 80011a6:	bf00      	nop
 80011a8:	3714      	adds	r7, #20
 80011aa:	46bd      	mov	sp, r7
 80011ac:	f85d 7b04 	ldr.w	r7, [sp], #4
 80011b0:	4770      	bx	lr
	...

080011b4 <HAL_HSEM_FastTake>:
  * @brief  Fast Take a semaphore with 1 Step mode.
  * @param  SemID: semaphore ID from 0 to 31
  * @retval HAL status
  */
HAL_StatusTypeDef HAL_HSEM_FastTake(uint32_t SemID)
{
 80011b4:	b480      	push	{r7}
 80011b6:	b083      	sub	sp, #12
 80011b8:	af00      	add	r7, sp, #0
 80011ba:	6078      	str	r0, [r7, #4]
    /*take success when MasterID match and take bit set*/
    return HAL_OK;
  }
#else  
  /* Read the RLR register to take the semaphore */
  if (HSEM->RLR[SemID] == (HSEM_CR_COREID_CURRENT | HSEM_RLR_LOCK))
 80011bc:	4a08      	ldr	r2, [pc, #32]	; (80011e0 <HAL_HSEM_FastTake+0x2c>)
 80011be:	687b      	ldr	r3, [r7, #4]
 80011c0:	3320      	adds	r3, #32
 80011c2:	f852 3023 	ldr.w	r3, [r2, r3, lsl #2]
 80011c6:	4a07      	ldr	r2, [pc, #28]	; (80011e4 <HAL_HSEM_FastTake+0x30>)
 80011c8:	4293      	cmp	r3, r2
 80011ca:	d101      	bne.n	80011d0 <HAL_HSEM_FastTake+0x1c>
  {
    /*take success when MasterID match and take bit set*/
    return HAL_OK;
 80011cc:	2300      	movs	r3, #0
 80011ce:	e000      	b.n	80011d2 <HAL_HSEM_FastTake+0x1e>
  }
#endif

  /* Semaphore take fails */
  return HAL_ERROR;
 80011d0:	2301      	movs	r3, #1
}
 80011d2:	4618      	mov	r0, r3
 80011d4:	370c      	adds	r7, #12
 80011d6:	46bd      	mov	sp, r7
 80011d8:	f85d 7b04 	ldr.w	r7, [sp], #4
 80011dc:	4770      	bx	lr
 80011de:	bf00      	nop
 80011e0:	58026400 	.word	0x58026400
 80011e4:	80000300 	.word	0x80000300

080011e8 <HAL_HSEM_Release>:
  * @param  SemID: semaphore ID from 0 to 31
  * @param  ProcessID: Process ID from 0 to 255
  * @retval None
  */
void  HAL_HSEM_Release(uint32_t SemID, uint32_t ProcessID)
{
 80011e8:	b480      	push	{r7}
 80011ea:	b083      	sub	sp, #12
 80011ec:	af00      	add	r7, sp, #0
 80011ee:	6078      	str	r0, [r7, #4]
 80011f0:	6039      	str	r1, [r7, #0]

  /* Clear the semaphore by writing to the R register : the MasterID , the processID and take bit = 0  */
#if  USE_MULTI_CORE_SHARED_CODE != 0U
  HSEM->R[SemID] = (ProcessID | ((HAL_GetCurrentCPUID() << POSITION_VAL(HSEM_R_MASTERID)) & HSEM_R_MASTERID));
#else
  HSEM->R[SemID] = (ProcessID | HSEM_CR_COREID_CURRENT);
 80011f2:	4906      	ldr	r1, [pc, #24]	; (800120c <HAL_HSEM_Release+0x24>)
 80011f4:	683b      	ldr	r3, [r7, #0]
 80011f6:	f443 7240 	orr.w	r2, r3, #768	; 0x300
 80011fa:	687b      	ldr	r3, [r7, #4]
 80011fc:	f841 2023 	str.w	r2, [r1, r3, lsl #2]
#endif

}
 8001200:	bf00      	nop
 8001202:	370c      	adds	r7, #12
 8001204:	46bd      	mov	sp, r7
 8001206:	f85d 7b04 	ldr.w	r7, [sp], #4
 800120a:	4770      	bx	lr
 800120c:	58026400 	.word	0x58026400

08001210 <HAL_PWREx_ConfigSupply>:
  *         PWR_SMPS_2V5_SUPPLIES_EXT are used only for lines that supports SMPS
  *         regulator.
  * @retval HAL status.
  */
HAL_StatusTypeDef HAL_PWREx_ConfigSupply (uint32_t SupplySource)
{
 8001210:	b580      	push	{r7, lr}
 8001212:	b084      	sub	sp, #16
 8001214:	af00      	add	r7, sp, #0
 8001216:	6078      	str	r0, [r7, #4]

  /* Check if supply source was configured */
#if defined (PWR_FLAG_SCUEN)
  if (__HAL_PWR_GET_FLAG (PWR_FLAG_SCUEN) == 0U)
#else
  if ((PWR->CR3 & (PWR_CR3_SMPSEN | PWR_CR3_LDOEN | PWR_CR3_BYPASS)) != (PWR_CR3_SMPSEN | PWR_CR3_LDOEN))
 8001218:	4b29      	ldr	r3, [pc, #164]	; (80012c0 <HAL_PWREx_ConfigSupply+0xb0>)
 800121a:	68db      	ldr	r3, [r3, #12]
 800121c:	f003 0307 	and.w	r3, r3, #7
 8001220:	2b06      	cmp	r3, #6
 8001222:	d00a      	beq.n	800123a <HAL_PWREx_ConfigSupply+0x2a>
#endif /* defined (PWR_FLAG_SCUEN) */
  {
    /* Check supply configuration */
    if ((PWR->CR3 & PWR_SUPPLY_CONFIG_MASK) != SupplySource)
 8001224:	4b26      	ldr	r3, [pc, #152]	; (80012c0 <HAL_PWREx_ConfigSupply+0xb0>)
 8001226:	68db      	ldr	r3, [r3, #12]
 8001228:	f003 033f 	and.w	r3, r3, #63	; 0x3f
 800122c:	687a      	ldr	r2, [r7, #4]
 800122e:	429a      	cmp	r2, r3
 8001230:	d001      	beq.n	8001236 <HAL_PWREx_ConfigSupply+0x26>
    {
      /* Supply configuration update locked, can't apply a new supply config */
      return HAL_ERROR;
 8001232:	2301      	movs	r3, #1
 8001234:	e040      	b.n	80012b8 <HAL_PWREx_ConfigSupply+0xa8>
    else
    {
      /* Supply configuration update locked, but new supply configuration
         matches with old supply configuration : nothing to do
      */
      return HAL_OK;
 8001236:	2300      	movs	r3, #0
 8001238:	e03e      	b.n	80012b8 <HAL_PWREx_ConfigSupply+0xa8>
    }
  }

  /* Set the power supply configuration */
  MODIFY_REG (PWR->CR3, PWR_SUPPLY_CONFIG_MASK, SupplySource);
 800123a:	4b21      	ldr	r3, [pc, #132]	; (80012c0 <HAL_PWREx_ConfigSupply+0xb0>)
 800123c:	68db      	ldr	r3, [r3, #12]
 800123e:	f023 023f 	bic.w	r2, r3, #63	; 0x3f
 8001242:	491f      	ldr	r1, [pc, #124]	; (80012c0 <HAL_PWREx_ConfigSupply+0xb0>)
 8001244:	687b      	ldr	r3, [r7, #4]
 8001246:	4313      	orrs	r3, r2
 8001248:	60cb      	str	r3, [r1, #12]

  /* Get tick */
  tickstart = HAL_GetTick ();
 800124a:	f7ff fcd3 	bl	8000bf4 <HAL_GetTick>
 800124e:	60f8      	str	r0, [r7, #12]

  /* Wait till voltage level flag is set */
  while (__HAL_PWR_GET_FLAG (PWR_FLAG_ACTVOSRDY) == 0U)
 8001250:	e009      	b.n	8001266 <HAL_PWREx_ConfigSupply+0x56>
  {
    if ((HAL_GetTick () - tickstart) > PWR_FLAG_SETTING_DELAY)
 8001252:	f7ff fccf 	bl	8000bf4 <HAL_GetTick>
 8001256:	4602      	mov	r2, r0
 8001258:	68fb      	ldr	r3, [r7, #12]
 800125a:	1ad3      	subs	r3, r2, r3
 800125c:	f5b3 7f7a 	cmp.w	r3, #1000	; 0x3e8
 8001260:	d901      	bls.n	8001266 <HAL_PWREx_ConfigSupply+0x56>
    {
      return HAL_ERROR;
 8001262:	2301      	movs	r3, #1
 8001264:	e028      	b.n	80012b8 <HAL_PWREx_ConfigSupply+0xa8>
  while (__HAL_PWR_GET_FLAG (PWR_FLAG_ACTVOSRDY) == 0U)
 8001266:	4b16      	ldr	r3, [pc, #88]	; (80012c0 <HAL_PWREx_ConfigSupply+0xb0>)
 8001268:	685b      	ldr	r3, [r3, #4]
 800126a:	f403 5300 	and.w	r3, r3, #8192	; 0x2000
 800126e:	f5b3 5f00 	cmp.w	r3, #8192	; 0x2000
 8001272:	d1ee      	bne.n	8001252 <HAL_PWREx_ConfigSupply+0x42>
    }
  }

#if defined (SMPS)
  /* When the SMPS supplies external circuits verify that SDEXTRDY flag is set */
  if ((SupplySource == PWR_SMPS_1V8_SUPPLIES_EXT_AND_LDO) ||
 8001274:	687b      	ldr	r3, [r7, #4]
 8001276:	2b1e      	cmp	r3, #30
 8001278:	d008      	beq.n	800128c <HAL_PWREx_ConfigSupply+0x7c>
 800127a:	687b      	ldr	r3, [r7, #4]
 800127c:	2b2e      	cmp	r3, #46	; 0x2e
 800127e:	d005      	beq.n	800128c <HAL_PWREx_ConfigSupply+0x7c>
      (SupplySource == PWR_SMPS_2V5_SUPPLIES_EXT_AND_LDO) ||
 8001280:	687b      	ldr	r3, [r7, #4]
 8001282:	2b1d      	cmp	r3, #29
 8001284:	d002      	beq.n	800128c <HAL_PWREx_ConfigSupply+0x7c>
      (SupplySource == PWR_SMPS_1V8_SUPPLIES_EXT)         ||
 8001286:	687b      	ldr	r3, [r7, #4]
 8001288:	2b2d      	cmp	r3, #45	; 0x2d
 800128a:	d114      	bne.n	80012b6 <HAL_PWREx_ConfigSupply+0xa6>
      (SupplySource == PWR_SMPS_2V5_SUPPLIES_EXT))
  {
    /* Get the current tick number */
    tickstart = HAL_GetTick ();
 800128c:	f7ff fcb2 	bl	8000bf4 <HAL_GetTick>
 8001290:	60f8      	str	r0, [r7, #12]

    /* Wait till SMPS external supply ready flag is set */
    while (__HAL_PWR_GET_FLAG (PWR_FLAG_SMPSEXTRDY) == 0U)
 8001292:	e009      	b.n	80012a8 <HAL_PWREx_ConfigSupply+0x98>
    {
      if ((HAL_GetTick () - tickstart) > PWR_FLAG_SETTING_DELAY)
 8001294:	f7ff fcae 	bl	8000bf4 <HAL_GetTick>
 8001298:	4602      	mov	r2, r0
 800129a:	68fb      	ldr	r3, [r7, #12]
 800129c:	1ad3      	subs	r3, r2, r3
 800129e:	f5b3 7f7a 	cmp.w	r3, #1000	; 0x3e8
 80012a2:	d901      	bls.n	80012a8 <HAL_PWREx_ConfigSupply+0x98>
      {
        return HAL_ERROR;
 80012a4:	2301      	movs	r3, #1
 80012a6:	e007      	b.n	80012b8 <HAL_PWREx_ConfigSupply+0xa8>
    while (__HAL_PWR_GET_FLAG (PWR_FLAG_SMPSEXTRDY) == 0U)
 80012a8:	4b05      	ldr	r3, [pc, #20]	; (80012c0 <HAL_PWREx_ConfigSupply+0xb0>)
 80012aa:	68db      	ldr	r3, [r3, #12]
 80012ac:	f403 3380 	and.w	r3, r3, #65536	; 0x10000
 80012b0:	f5b3 3f80 	cmp.w	r3, #65536	; 0x10000
 80012b4:	d1ee      	bne.n	8001294 <HAL_PWREx_ConfigSupply+0x84>
      }
    }
  }
#endif /* defined (SMPS) */

  return HAL_OK;
 80012b6:	2300      	movs	r3, #0
}
 80012b8:	4618      	mov	r0, r3
 80012ba:	3710      	adds	r7, #16
 80012bc:	46bd      	mov	sp, r7
 80012be:	bd80      	pop	{r7, pc}
 80012c0:	58024800 	.word	0x58024800

080012c4 <HAL_RCC_OscConfig>:
  *         supported by this function. User should request a transition to HSE Off
  *         first and then HSE On or HSE Bypass.
  * @retval HAL status
  */
__weak HAL_StatusTypeDef HAL_RCC_OscConfig(RCC_OscInitTypeDef  *RCC_OscInitStruct)
{
 80012c4:	b580      	push	{r7, lr}
 80012c6:	b08c      	sub	sp, #48	; 0x30
 80012c8:	af00      	add	r7, sp, #0
 80012ca:	6078      	str	r0, [r7, #4]
  uint32_t tickstart;
  uint32_t temp1_pllckcfg, temp2_pllckcfg;

    /* Check Null pointer */
  if(RCC_OscInitStruct == NULL)
 80012cc:	687b      	ldr	r3, [r7, #4]
 80012ce:	2b00      	cmp	r3, #0
 80012d0:	d102      	bne.n	80012d8 <HAL_RCC_OscConfig+0x14>
  {
    return HAL_ERROR;
 80012d2:	2301      	movs	r3, #1
 80012d4:	f000 bc1d 	b.w	8001b12 <HAL_RCC_OscConfig+0x84e>
  }

  /* Check the parameters */
  assert_param(IS_RCC_OSCILLATORTYPE(RCC_OscInitStruct->OscillatorType));
  /*------------------------------- HSE Configuration ------------------------*/
  if(((RCC_OscInitStruct->OscillatorType) & RCC_OSCILLATORTYPE_HSE) == RCC_OSCILLATORTYPE_HSE)
 80012d8:	687b      	ldr	r3, [r7, #4]
 80012da:	681b      	ldr	r3, [r3, #0]
 80012dc:	f003 0301 	and.w	r3, r3, #1
 80012e0:	2b00      	cmp	r3, #0
 80012e2:	f000 8087 	beq.w	80013f4 <HAL_RCC_OscConfig+0x130>
  {
    /* Check the parameters */
    assert_param(IS_RCC_HSE(RCC_OscInitStruct->HSEState));

    const uint32_t temp_sysclksrc = __HAL_RCC_GET_SYSCLK_SOURCE();
 80012e6:	4b99      	ldr	r3, [pc, #612]	; (800154c <HAL_RCC_OscConfig+0x288>)
 80012e8:	691b      	ldr	r3, [r3, #16]
 80012ea:	f003 0338 	and.w	r3, r3, #56	; 0x38
 80012ee:	62fb      	str	r3, [r7, #44]	; 0x2c
    const uint32_t temp_pllckselr = RCC->PLLCKSELR;
 80012f0:	4b96      	ldr	r3, [pc, #600]	; (800154c <HAL_RCC_OscConfig+0x288>)
 80012f2:	6a9b      	ldr	r3, [r3, #40]	; 0x28
 80012f4:	62bb      	str	r3, [r7, #40]	; 0x28
    /* When the HSE is used as system clock or clock source for PLL in these cases HSE will not disabled */
    if((temp_sysclksrc == RCC_CFGR_SWS_HSE) || ((temp_sysclksrc == RCC_CFGR_SWS_PLL1) && ((temp_pllckselr & RCC_PLLCKSELR_PLLSRC) == RCC_PLLCKSELR_PLLSRC_HSE)))
 80012f6:	6afb      	ldr	r3, [r7, #44]	; 0x2c
 80012f8:	2b10      	cmp	r3, #16
 80012fa:	d007      	beq.n	800130c <HAL_RCC_OscConfig+0x48>
 80012fc:	6afb      	ldr	r3, [r7, #44]	; 0x2c
 80012fe:	2b18      	cmp	r3, #24
 8001300:	d110      	bne.n	8001324 <HAL_RCC_OscConfig+0x60>
 8001302:	6abb      	ldr	r3, [r7, #40]	; 0x28
 8001304:	f003 0303 	and.w	r3, r3, #3
 8001308:	2b02      	cmp	r3, #2
 800130a:	d10b      	bne.n	8001324 <HAL_RCC_OscConfig+0x60>
    {
      if((__HAL_RCC_GET_FLAG(RCC_FLAG_HSERDY) != 0U) && (RCC_OscInitStruct->HSEState == RCC_HSE_OFF))
 800130c:	4b8f      	ldr	r3, [pc, #572]	; (800154c <HAL_RCC_OscConfig+0x288>)
 800130e:	681b      	ldr	r3, [r3, #0]
 8001310:	f403 3300 	and.w	r3, r3, #131072	; 0x20000
 8001314:	2b00      	cmp	r3, #0
 8001316:	d06c      	beq.n	80013f2 <HAL_RCC_OscConfig+0x12e>
 8001318:	687b      	ldr	r3, [r7, #4]
 800131a:	685b      	ldr	r3, [r3, #4]
 800131c:	2b00      	cmp	r3, #0
 800131e:	d168      	bne.n	80013f2 <HAL_RCC_OscConfig+0x12e>
      {
        return HAL_ERROR;
 8001320:	2301      	movs	r3, #1
 8001322:	e3f6      	b.n	8001b12 <HAL_RCC_OscConfig+0x84e>
      }
    }
    else
    {
      /* Set the new HSE configuration ---------------------------------------*/
      __HAL_RCC_HSE_CONFIG(RCC_OscInitStruct->HSEState);
 8001324:	687b      	ldr	r3, [r7, #4]
 8001326:	685b      	ldr	r3, [r3, #4]
 8001328:	f5b3 3f80 	cmp.w	r3, #65536	; 0x10000
 800132c:	d106      	bne.n	800133c <HAL_RCC_OscConfig+0x78>
 800132e:	4b87      	ldr	r3, [pc, #540]	; (800154c <HAL_RCC_OscConfig+0x288>)
 8001330:	681b      	ldr	r3, [r3, #0]
 8001332:	4a86      	ldr	r2, [pc, #536]	; (800154c <HAL_RCC_OscConfig+0x288>)
 8001334:	f443 3380 	orr.w	r3, r3, #65536	; 0x10000
 8001338:	6013      	str	r3, [r2, #0]
 800133a:	e02e      	b.n	800139a <HAL_RCC_OscConfig+0xd6>
 800133c:	687b      	ldr	r3, [r7, #4]
 800133e:	685b      	ldr	r3, [r3, #4]
 8001340:	2b00      	cmp	r3, #0
 8001342:	d10c      	bne.n	800135e <HAL_RCC_OscConfig+0x9a>
 8001344:	4b81      	ldr	r3, [pc, #516]	; (800154c <HAL_RCC_OscConfig+0x288>)
 8001346:	681b      	ldr	r3, [r3, #0]
 8001348:	4a80      	ldr	r2, [pc, #512]	; (800154c <HAL_RCC_OscConfig+0x288>)
 800134a:	f423 3380 	bic.w	r3, r3, #65536	; 0x10000
 800134e:	6013      	str	r3, [r2, #0]
 8001350:	4b7e      	ldr	r3, [pc, #504]	; (800154c <HAL_RCC_OscConfig+0x288>)
 8001352:	681b      	ldr	r3, [r3, #0]
 8001354:	4a7d      	ldr	r2, [pc, #500]	; (800154c <HAL_RCC_OscConfig+0x288>)
 8001356:	f423 2380 	bic.w	r3, r3, #262144	; 0x40000
 800135a:	6013      	str	r3, [r2, #0]
 800135c:	e01d      	b.n	800139a <HAL_RCC_OscConfig+0xd6>
 800135e:	687b      	ldr	r3, [r7, #4]
 8001360:	685b      	ldr	r3, [r3, #4]
 8001362:	f5b3 2fa0 	cmp.w	r3, #327680	; 0x50000
 8001366:	d10c      	bne.n	8001382 <HAL_RCC_OscConfig+0xbe>
 8001368:	4b78      	ldr	r3, [pc, #480]	; (800154c <HAL_RCC_OscConfig+0x288>)
 800136a:	681b      	ldr	r3, [r3, #0]
 800136c:	4a77      	ldr	r2, [pc, #476]	; (800154c <HAL_RCC_OscConfig+0x288>)
 800136e:	f443 2380 	orr.w	r3, r3, #262144	; 0x40000
 8001372:	6013      	str	r3, [r2, #0]
 8001374:	4b75      	ldr	r3, [pc, #468]	; (800154c <HAL_RCC_OscConfig+0x288>)
 8001376:	681b      	ldr	r3, [r3, #0]
 8001378:	4a74      	ldr	r2, [pc, #464]	; (800154c <HAL_RCC_OscConfig+0x288>)
 800137a:	f443 3380 	orr.w	r3, r3, #65536	; 0x10000
 800137e:	6013      	str	r3, [r2, #0]
 8001380:	e00b      	b.n	800139a <HAL_RCC_OscConfig+0xd6>
 8001382:	4b72      	ldr	r3, [pc, #456]	; (800154c <HAL_RCC_OscConfig+0x288>)
 8001384:	681b      	ldr	r3, [r3, #0]
 8001386:	4a71      	ldr	r2, [pc, #452]	; (800154c <HAL_RCC_OscConfig+0x288>)
 8001388:	f423 3380 	bic.w	r3, r3, #65536	; 0x10000
 800138c:	6013      	str	r3, [r2, #0]
 800138e:	4b6f      	ldr	r3, [pc, #444]	; (800154c <HAL_RCC_OscConfig+0x288>)
 8001390:	681b      	ldr	r3, [r3, #0]
 8001392:	4a6e      	ldr	r2, [pc, #440]	; (800154c <HAL_RCC_OscConfig+0x288>)
 8001394:	f423 2380 	bic.w	r3, r3, #262144	; 0x40000
 8001398:	6013      	str	r3, [r2, #0]

      /* Check the HSE State */
      if(RCC_OscInitStruct->HSEState != RCC_HSE_OFF)
 800139a:	687b      	ldr	r3, [r7, #4]
 800139c:	685b      	ldr	r3, [r3, #4]
 800139e:	2b00      	cmp	r3, #0
 80013a0:	d013      	beq.n	80013ca <HAL_RCC_OscConfig+0x106>
      {
        /* Get Start Tick*/
        tickstart = HAL_GetTick();
 80013a2:	f7ff fc27 	bl	8000bf4 <HAL_GetTick>
 80013a6:	6278      	str	r0, [r7, #36]	; 0x24

        /* Wait till HSE is ready */
        while(__HAL_RCC_GET_FLAG(RCC_FLAG_HSERDY) == 0U)
 80013a8:	e008      	b.n	80013bc <HAL_RCC_OscConfig+0xf8>
        {
          if((uint32_t) (HAL_GetTick() - tickstart ) > HSE_TIMEOUT_VALUE)
 80013aa:	f7ff fc23 	bl	8000bf4 <HAL_GetTick>
 80013ae:	4602      	mov	r2, r0
 80013b0:	6a7b      	ldr	r3, [r7, #36]	; 0x24
 80013b2:	1ad3      	subs	r3, r2, r3
 80013b4:	2b64      	cmp	r3, #100	; 0x64
 80013b6:	d901      	bls.n	80013bc <HAL_RCC_OscConfig+0xf8>
          {
            return HAL_TIMEOUT;
 80013b8:	2303      	movs	r3, #3
 80013ba:	e3aa      	b.n	8001b12 <HAL_RCC_OscConfig+0x84e>
        while(__HAL_RCC_GET_FLAG(RCC_FLAG_HSERDY) == 0U)
 80013bc:	4b63      	ldr	r3, [pc, #396]	; (800154c <HAL_RCC_OscConfig+0x288>)
 80013be:	681b      	ldr	r3, [r3, #0]
 80013c0:	f403 3300 	and.w	r3, r3, #131072	; 0x20000
 80013c4:	2b00      	cmp	r3, #0
 80013c6:	d0f0      	beq.n	80013aa <HAL_RCC_OscConfig+0xe6>
 80013c8:	e014      	b.n	80013f4 <HAL_RCC_OscConfig+0x130>
        }
      }
      else
      {
        /* Get Start Tick*/
        tickstart = HAL_GetTick();
 80013ca:	f7ff fc13 	bl	8000bf4 <HAL_GetTick>
 80013ce:	6278      	str	r0, [r7, #36]	; 0x24

        /* Wait till HSE is disabled */
        while(__HAL_RCC_GET_FLAG(RCC_FLAG_HSERDY) != 0U)
 80013d0:	e008      	b.n	80013e4 <HAL_RCC_OscConfig+0x120>
        {
          if((uint32_t) (HAL_GetTick() - tickstart ) > HSE_TIMEOUT_VALUE)
 80013d2:	f7ff fc0f 	bl	8000bf4 <HAL_GetTick>
 80013d6:	4602      	mov	r2, r0
 80013d8:	6a7b      	ldr	r3, [r7, #36]	; 0x24
 80013da:	1ad3      	subs	r3, r2, r3
 80013dc:	2b64      	cmp	r3, #100	; 0x64
 80013de:	d901      	bls.n	80013e4 <HAL_RCC_OscConfig+0x120>
          {
            return HAL_TIMEOUT;
 80013e0:	2303      	movs	r3, #3
 80013e2:	e396      	b.n	8001b12 <HAL_RCC_OscConfig+0x84e>
        while(__HAL_RCC_GET_FLAG(RCC_FLAG_HSERDY) != 0U)
 80013e4:	4b59      	ldr	r3, [pc, #356]	; (800154c <HAL_RCC_OscConfig+0x288>)
 80013e6:	681b      	ldr	r3, [r3, #0]
 80013e8:	f403 3300 	and.w	r3, r3, #131072	; 0x20000
 80013ec:	2b00      	cmp	r3, #0
 80013ee:	d1f0      	bne.n	80013d2 <HAL_RCC_OscConfig+0x10e>
 80013f0:	e000      	b.n	80013f4 <HAL_RCC_OscConfig+0x130>
      if((__HAL_RCC_GET_FLAG(RCC_FLAG_HSERDY) != 0U) && (RCC_OscInitStruct->HSEState == RCC_HSE_OFF))
 80013f2:	bf00      	nop
        }
      }
    }
  }
  /*----------------------------- HSI Configuration --------------------------*/
  if(((RCC_OscInitStruct->OscillatorType) & RCC_OSCILLATORTYPE_HSI) == RCC_OSCILLATORTYPE_HSI)
 80013f4:	687b      	ldr	r3, [r7, #4]
 80013f6:	681b      	ldr	r3, [r3, #0]
 80013f8:	f003 0302 	and.w	r3, r3, #2
 80013fc:	2b00      	cmp	r3, #0
 80013fe:	f000 80cb 	beq.w	8001598 <HAL_RCC_OscConfig+0x2d4>
    /* Check the parameters */
    assert_param(IS_RCC_HSI(RCC_OscInitStruct->HSIState));
    assert_param(IS_RCC_HSICALIBRATION_VALUE(RCC_OscInitStruct->HSICalibrationValue));

    /* When the HSI is used as system clock it will not be disabled */
    const uint32_t temp_sysclksrc = __HAL_RCC_GET_SYSCLK_SOURCE();
 8001402:	4b52      	ldr	r3, [pc, #328]	; (800154c <HAL_RCC_OscConfig+0x288>)
 8001404:	691b      	ldr	r3, [r3, #16]
 8001406:	f003 0338 	and.w	r3, r3, #56	; 0x38
 800140a:	623b      	str	r3, [r7, #32]
    const uint32_t temp_pllckselr = RCC->PLLCKSELR;
 800140c:	4b4f      	ldr	r3, [pc, #316]	; (800154c <HAL_RCC_OscConfig+0x288>)
 800140e:	6a9b      	ldr	r3, [r3, #40]	; 0x28
 8001410:	61fb      	str	r3, [r7, #28]
    if((temp_sysclksrc == RCC_CFGR_SWS_HSI) || ((temp_sysclksrc == RCC_CFGR_SWS_PLL1) && ((temp_pllckselr & RCC_PLLCKSELR_PLLSRC) == RCC_PLLCKSELR_PLLSRC_HSI)))
 8001412:	6a3b      	ldr	r3, [r7, #32]
 8001414:	2b00      	cmp	r3, #0
 8001416:	d007      	beq.n	8001428 <HAL_RCC_OscConfig+0x164>
 8001418:	6a3b      	ldr	r3, [r7, #32]
 800141a:	2b18      	cmp	r3, #24
 800141c:	d156      	bne.n	80014cc <HAL_RCC_OscConfig+0x208>
 800141e:	69fb      	ldr	r3, [r7, #28]
 8001420:	f003 0303 	and.w	r3, r3, #3
 8001424:	2b00      	cmp	r3, #0
 8001426:	d151      	bne.n	80014cc <HAL_RCC_OscConfig+0x208>
    {
      /* When HSI is used as system clock it will not be disabled */
      if((__HAL_RCC_GET_FLAG(RCC_FLAG_HSIRDY) != 0U) && (RCC_OscInitStruct->HSIState == RCC_HSI_OFF))
 8001428:	4b48      	ldr	r3, [pc, #288]	; (800154c <HAL_RCC_OscConfig+0x288>)
 800142a:	681b      	ldr	r3, [r3, #0]
 800142c:	f003 0304 	and.w	r3, r3, #4
 8001430:	2b00      	cmp	r3, #0
 8001432:	d005      	beq.n	8001440 <HAL_RCC_OscConfig+0x17c>
 8001434:	687b      	ldr	r3, [r7, #4]
 8001436:	68db      	ldr	r3, [r3, #12]
 8001438:	2b00      	cmp	r3, #0
 800143a:	d101      	bne.n	8001440 <HAL_RCC_OscConfig+0x17c>
      {
        return HAL_ERROR;
 800143c:	2301      	movs	r3, #1
 800143e:	e368      	b.n	8001b12 <HAL_RCC_OscConfig+0x84e>
      }
      /* Otherwise, only HSI division and calibration are allowed */
      else
      {
          /* Enable the Internal High Speed oscillator (HSI, HSIDIV2, HSIDIV4, or HSIDIV8) */
          __HAL_RCC_HSI_CONFIG(RCC_OscInitStruct->HSIState);
 8001440:	4b42      	ldr	r3, [pc, #264]	; (800154c <HAL_RCC_OscConfig+0x288>)
 8001442:	681b      	ldr	r3, [r3, #0]
 8001444:	f023 0219 	bic.w	r2, r3, #25
 8001448:	687b      	ldr	r3, [r7, #4]
 800144a:	68db      	ldr	r3, [r3, #12]
 800144c:	493f      	ldr	r1, [pc, #252]	; (800154c <HAL_RCC_OscConfig+0x288>)
 800144e:	4313      	orrs	r3, r2
 8001450:	600b      	str	r3, [r1, #0]

          /* Get Start Tick*/
          tickstart = HAL_GetTick();
 8001452:	f7ff fbcf 	bl	8000bf4 <HAL_GetTick>
 8001456:	6278      	str	r0, [r7, #36]	; 0x24

          /* Wait till HSI is ready */
          while(__HAL_RCC_GET_FLAG(RCC_FLAG_HSIRDY) == 0U)
 8001458:	e008      	b.n	800146c <HAL_RCC_OscConfig+0x1a8>
          {
            if((uint32_t) (HAL_GetTick() - tickstart ) > HSI_TIMEOUT_VALUE)
 800145a:	f7ff fbcb 	bl	8000bf4 <HAL_GetTick>
 800145e:	4602      	mov	r2, r0
 8001460:	6a7b      	ldr	r3, [r7, #36]	; 0x24
 8001462:	1ad3      	subs	r3, r2, r3
 8001464:	2b02      	cmp	r3, #2
 8001466:	d901      	bls.n	800146c <HAL_RCC_OscConfig+0x1a8>
            {
              return HAL_TIMEOUT;
 8001468:	2303      	movs	r3, #3
 800146a:	e352      	b.n	8001b12 <HAL_RCC_OscConfig+0x84e>
          while(__HAL_RCC_GET_FLAG(RCC_FLAG_HSIRDY) == 0U)
 800146c:	4b37      	ldr	r3, [pc, #220]	; (800154c <HAL_RCC_OscConfig+0x288>)
 800146e:	681b      	ldr	r3, [r3, #0]
 8001470:	f003 0304 	and.w	r3, r3, #4
 8001474:	2b00      	cmp	r3, #0
 8001476:	d0f0      	beq.n	800145a <HAL_RCC_OscConfig+0x196>
            }
          }
        /* Adjusts the Internal High Speed oscillator (HSI) calibration value.*/
        __HAL_RCC_HSI_CALIBRATIONVALUE_ADJUST(RCC_OscInitStruct->HSICalibrationValue);
 8001478:	f7ff fbc8 	bl	8000c0c <HAL_GetREVID>
 800147c:	4603      	mov	r3, r0
 800147e:	f241 0203 	movw	r2, #4099	; 0x1003
 8001482:	4293      	cmp	r3, r2
 8001484:	d817      	bhi.n	80014b6 <HAL_RCC_OscConfig+0x1f2>
 8001486:	687b      	ldr	r3, [r7, #4]
 8001488:	691b      	ldr	r3, [r3, #16]
 800148a:	2b40      	cmp	r3, #64	; 0x40
 800148c:	d108      	bne.n	80014a0 <HAL_RCC_OscConfig+0x1dc>
 800148e:	4b2f      	ldr	r3, [pc, #188]	; (800154c <HAL_RCC_OscConfig+0x288>)
 8001490:	685b      	ldr	r3, [r3, #4]
 8001492:	f423 337c 	bic.w	r3, r3, #258048	; 0x3f000
 8001496:	4a2d      	ldr	r2, [pc, #180]	; (800154c <HAL_RCC_OscConfig+0x288>)
 8001498:	f443 3300 	orr.w	r3, r3, #131072	; 0x20000
 800149c:	6053      	str	r3, [r2, #4]
      if((__HAL_RCC_GET_FLAG(RCC_FLAG_HSIRDY) != 0U) && (RCC_OscInitStruct->HSIState == RCC_HSI_OFF))
 800149e:	e07b      	b.n	8001598 <HAL_RCC_OscConfig+0x2d4>
        __HAL_RCC_HSI_CALIBRATIONVALUE_ADJUST(RCC_OscInitStruct->HSICalibrationValue);
 80014a0:	4b2a      	ldr	r3, [pc, #168]	; (800154c <HAL_RCC_OscConfig+0x288>)
 80014a2:	685b      	ldr	r3, [r3, #4]
 80014a4:	f423 327c 	bic.w	r2, r3, #258048	; 0x3f000
 80014a8:	687b      	ldr	r3, [r7, #4]
 80014aa:	691b      	ldr	r3, [r3, #16]
 80014ac:	031b      	lsls	r3, r3, #12
 80014ae:	4927      	ldr	r1, [pc, #156]	; (800154c <HAL_RCC_OscConfig+0x288>)
 80014b0:	4313      	orrs	r3, r2
 80014b2:	604b      	str	r3, [r1, #4]
      if((__HAL_RCC_GET_FLAG(RCC_FLAG_HSIRDY) != 0U) && (RCC_OscInitStruct->HSIState == RCC_HSI_OFF))
 80014b4:	e070      	b.n	8001598 <HAL_RCC_OscConfig+0x2d4>
        __HAL_RCC_HSI_CALIBRATIONVALUE_ADJUST(RCC_OscInitStruct->HSICalibrationValue);
 80014b6:	4b25      	ldr	r3, [pc, #148]	; (800154c <HAL_RCC_OscConfig+0x288>)
 80014b8:	685b      	ldr	r3, [r3, #4]
 80014ba:	f023 42fe 	bic.w	r2, r3, #2130706432	; 0x7f000000
 80014be:	687b      	ldr	r3, [r7, #4]
 80014c0:	691b      	ldr	r3, [r3, #16]
 80014c2:	061b      	lsls	r3, r3, #24
 80014c4:	4921      	ldr	r1, [pc, #132]	; (800154c <HAL_RCC_OscConfig+0x288>)
 80014c6:	4313      	orrs	r3, r2
 80014c8:	604b      	str	r3, [r1, #4]
      if((__HAL_RCC_GET_FLAG(RCC_FLAG_HSIRDY) != 0U) && (RCC_OscInitStruct->HSIState == RCC_HSI_OFF))
 80014ca:	e065      	b.n	8001598 <HAL_RCC_OscConfig+0x2d4>
    }

    else
    {
      /* Check the HSI State */
      if((RCC_OscInitStruct->HSIState)!= RCC_HSI_OFF)
 80014cc:	687b      	ldr	r3, [r7, #4]
 80014ce:	68db      	ldr	r3, [r3, #12]
 80014d0:	2b00      	cmp	r3, #0
 80014d2:	d048      	beq.n	8001566 <HAL_RCC_OscConfig+0x2a2>
      {
     /* Enable the Internal High Speed oscillator (HSI, HSIDIV2,HSIDIV4, or HSIDIV8) */
        __HAL_RCC_HSI_CONFIG(RCC_OscInitStruct->HSIState);
 80014d4:	4b1d      	ldr	r3, [pc, #116]	; (800154c <HAL_RCC_OscConfig+0x288>)
 80014d6:	681b      	ldr	r3, [r3, #0]
 80014d8:	f023 0219 	bic.w	r2, r3, #25
 80014dc:	687b      	ldr	r3, [r7, #4]
 80014de:	68db      	ldr	r3, [r3, #12]
 80014e0:	491a      	ldr	r1, [pc, #104]	; (800154c <HAL_RCC_OscConfig+0x288>)
 80014e2:	4313      	orrs	r3, r2
 80014e4:	600b      	str	r3, [r1, #0]

        /* Get Start Tick*/
        tickstart = HAL_GetTick();
 80014e6:	f7ff fb85 	bl	8000bf4 <HAL_GetTick>
 80014ea:	6278      	str	r0, [r7, #36]	; 0x24

        /* Wait till HSI is ready */
        while(__HAL_RCC_GET_FLAG(RCC_FLAG_HSIRDY) == 0U)
 80014ec:	e008      	b.n	8001500 <HAL_RCC_OscConfig+0x23c>
        {
          if((HAL_GetTick() - tickstart ) > HSI_TIMEOUT_VALUE)
 80014ee:	f7ff fb81 	bl	8000bf4 <HAL_GetTick>
 80014f2:	4602      	mov	r2, r0
 80014f4:	6a7b      	ldr	r3, [r7, #36]	; 0x24
 80014f6:	1ad3      	subs	r3, r2, r3
 80014f8:	2b02      	cmp	r3, #2
 80014fa:	d901      	bls.n	8001500 <HAL_RCC_OscConfig+0x23c>
          {
            return HAL_TIMEOUT;
 80014fc:	2303      	movs	r3, #3
 80014fe:	e308      	b.n	8001b12 <HAL_RCC_OscConfig+0x84e>
        while(__HAL_RCC_GET_FLAG(RCC_FLAG_HSIRDY) == 0U)
 8001500:	4b12      	ldr	r3, [pc, #72]	; (800154c <HAL_RCC_OscConfig+0x288>)
 8001502:	681b      	ldr	r3, [r3, #0]
 8001504:	f003 0304 	and.w	r3, r3, #4
 8001508:	2b00      	cmp	r3, #0
 800150a:	d0f0      	beq.n	80014ee <HAL_RCC_OscConfig+0x22a>
          }
        }

        /* Adjusts the Internal High Speed oscillator (HSI) calibration value.*/
        __HAL_RCC_HSI_CALIBRATIONVALUE_ADJUST(RCC_OscInitStruct->HSICalibrationValue);
 800150c:	f7ff fb7e 	bl	8000c0c <HAL_GetREVID>
 8001510:	4603      	mov	r3, r0
 8001512:	f241 0203 	movw	r2, #4099	; 0x1003
 8001516:	4293      	cmp	r3, r2
 8001518:	d81a      	bhi.n	8001550 <HAL_RCC_OscConfig+0x28c>
 800151a:	687b      	ldr	r3, [r7, #4]
 800151c:	691b      	ldr	r3, [r3, #16]
 800151e:	2b40      	cmp	r3, #64	; 0x40
 8001520:	d108      	bne.n	8001534 <HAL_RCC_OscConfig+0x270>
 8001522:	4b0a      	ldr	r3, [pc, #40]	; (800154c <HAL_RCC_OscConfig+0x288>)
 8001524:	685b      	ldr	r3, [r3, #4]
 8001526:	f423 337c 	bic.w	r3, r3, #258048	; 0x3f000
 800152a:	4a08      	ldr	r2, [pc, #32]	; (800154c <HAL_RCC_OscConfig+0x288>)
 800152c:	f443 3300 	orr.w	r3, r3, #131072	; 0x20000
 8001530:	6053      	str	r3, [r2, #4]
 8001532:	e031      	b.n	8001598 <HAL_RCC_OscConfig+0x2d4>
 8001534:	4b05      	ldr	r3, [pc, #20]	; (800154c <HAL_RCC_OscConfig+0x288>)
 8001536:	685b      	ldr	r3, [r3, #4]
 8001538:	f423 327c 	bic.w	r2, r3, #258048	; 0x3f000
 800153c:	687b      	ldr	r3, [r7, #4]
 800153e:	691b      	ldr	r3, [r3, #16]
 8001540:	031b      	lsls	r3, r3, #12
 8001542:	4902      	ldr	r1, [pc, #8]	; (800154c <HAL_RCC_OscConfig+0x288>)
 8001544:	4313      	orrs	r3, r2
 8001546:	604b      	str	r3, [r1, #4]
 8001548:	e026      	b.n	8001598 <HAL_RCC_OscConfig+0x2d4>
 800154a:	bf00      	nop
 800154c:	58024400 	.word	0x58024400
 8001550:	4b9a      	ldr	r3, [pc, #616]	; (80017bc <HAL_RCC_OscConfig+0x4f8>)
 8001552:	685b      	ldr	r3, [r3, #4]
 8001554:	f023 42fe 	bic.w	r2, r3, #2130706432	; 0x7f000000
 8001558:	687b      	ldr	r3, [r7, #4]
 800155a:	691b      	ldr	r3, [r3, #16]
 800155c:	061b      	lsls	r3, r3, #24
 800155e:	4997      	ldr	r1, [pc, #604]	; (80017bc <HAL_RCC_OscConfig+0x4f8>)
 8001560:	4313      	orrs	r3, r2
 8001562:	604b      	str	r3, [r1, #4]
 8001564:	e018      	b.n	8001598 <HAL_RCC_OscConfig+0x2d4>
      }
      else
      {
        /* Disable the Internal High Speed oscillator (HSI). */
        __HAL_RCC_HSI_DISABLE();
 8001566:	4b95      	ldr	r3, [pc, #596]	; (80017bc <HAL_RCC_OscConfig+0x4f8>)
 8001568:	681b      	ldr	r3, [r3, #0]
 800156a:	4a94      	ldr	r2, [pc, #592]	; (80017bc <HAL_RCC_OscConfig+0x4f8>)
 800156c:	f023 0301 	bic.w	r3, r3, #1
 8001570:	6013      	str	r3, [r2, #0]

        /* Get Start Tick*/
        tickstart = HAL_GetTick();
 8001572:	f7ff fb3f 	bl	8000bf4 <HAL_GetTick>
 8001576:	6278      	str	r0, [r7, #36]	; 0x24

        /* Wait till HSI is disabled */
        while(__HAL_RCC_GET_FLAG(RCC_FLAG_HSIRDY) != 0U)
 8001578:	e008      	b.n	800158c <HAL_RCC_OscConfig+0x2c8>
        {
          if((HAL_GetTick() - tickstart ) > HSI_TIMEOUT_VALUE)
 800157a:	f7ff fb3b 	bl	8000bf4 <HAL_GetTick>
 800157e:	4602      	mov	r2, r0
 8001580:	6a7b      	ldr	r3, [r7, #36]	; 0x24
 8001582:	1ad3      	subs	r3, r2, r3
 8001584:	2b02      	cmp	r3, #2
 8001586:	d901      	bls.n	800158c <HAL_RCC_OscConfig+0x2c8>
          {
            return HAL_TIMEOUT;
 8001588:	2303      	movs	r3, #3
 800158a:	e2c2      	b.n	8001b12 <HAL_RCC_OscConfig+0x84e>
        while(__HAL_RCC_GET_FLAG(RCC_FLAG_HSIRDY) != 0U)
 800158c:	4b8b      	ldr	r3, [pc, #556]	; (80017bc <HAL_RCC_OscConfig+0x4f8>)
 800158e:	681b      	ldr	r3, [r3, #0]
 8001590:	f003 0304 	and.w	r3, r3, #4
 8001594:	2b00      	cmp	r3, #0
 8001596:	d1f0      	bne.n	800157a <HAL_RCC_OscConfig+0x2b6>
        }
      }
    }
  }
  /*----------------------------- CSI Configuration --------------------------*/
  if(((RCC_OscInitStruct->OscillatorType) & RCC_OSCILLATORTYPE_CSI) == RCC_OSCILLATORTYPE_CSI)
 8001598:	687b      	ldr	r3, [r7, #4]
 800159a:	681b      	ldr	r3, [r3, #0]
 800159c:	f003 0310 	and.w	r3, r3, #16
 80015a0:	2b00      	cmp	r3, #0
 80015a2:	f000 80a9 	beq.w	80016f8 <HAL_RCC_OscConfig+0x434>
    /* Check the parameters */
    assert_param(IS_RCC_CSI(RCC_OscInitStruct->CSIState));
    assert_param(IS_RCC_CSICALIBRATION_VALUE(RCC_OscInitStruct->CSICalibrationValue));

    /* When the CSI is used as system clock it will not disabled */
    const uint32_t temp_sysclksrc = __HAL_RCC_GET_SYSCLK_SOURCE();
 80015a6:	4b85      	ldr	r3, [pc, #532]	; (80017bc <HAL_RCC_OscConfig+0x4f8>)
 80015a8:	691b      	ldr	r3, [r3, #16]
 80015aa:	f003 0338 	and.w	r3, r3, #56	; 0x38
 80015ae:	61bb      	str	r3, [r7, #24]
    const uint32_t temp_pllckselr = RCC->PLLCKSELR;
 80015b0:	4b82      	ldr	r3, [pc, #520]	; (80017bc <HAL_RCC_OscConfig+0x4f8>)
 80015b2:	6a9b      	ldr	r3, [r3, #40]	; 0x28
 80015b4:	617b      	str	r3, [r7, #20]
    if((temp_sysclksrc == RCC_CFGR_SWS_CSI) || ((temp_sysclksrc == RCC_CFGR_SWS_PLL1) && ((temp_pllckselr & RCC_PLLCKSELR_PLLSRC) == RCC_PLLCKSELR_PLLSRC_CSI)))
 80015b6:	69bb      	ldr	r3, [r7, #24]
 80015b8:	2b08      	cmp	r3, #8
 80015ba:	d007      	beq.n	80015cc <HAL_RCC_OscConfig+0x308>
 80015bc:	69bb      	ldr	r3, [r7, #24]
 80015be:	2b18      	cmp	r3, #24
 80015c0:	d13a      	bne.n	8001638 <HAL_RCC_OscConfig+0x374>
 80015c2:	697b      	ldr	r3, [r7, #20]
 80015c4:	f003 0303 	and.w	r3, r3, #3
 80015c8:	2b01      	cmp	r3, #1
 80015ca:	d135      	bne.n	8001638 <HAL_RCC_OscConfig+0x374>
    {
      /* When CSI is used as system clock it will not disabled */
      if((__HAL_RCC_GET_FLAG(RCC_FLAG_CSIRDY) != 0U) && (RCC_OscInitStruct->CSIState != RCC_CSI_ON))
 80015cc:	4b7b      	ldr	r3, [pc, #492]	; (80017bc <HAL_RCC_OscConfig+0x4f8>)
 80015ce:	681b      	ldr	r3, [r3, #0]
 80015d0:	f403 7380 	and.w	r3, r3, #256	; 0x100
 80015d4:	2b00      	cmp	r3, #0
 80015d6:	d005      	beq.n	80015e4 <HAL_RCC_OscConfig+0x320>
 80015d8:	687b      	ldr	r3, [r7, #4]
 80015da:	69db      	ldr	r3, [r3, #28]
 80015dc:	2b80      	cmp	r3, #128	; 0x80
 80015de:	d001      	beq.n	80015e4 <HAL_RCC_OscConfig+0x320>
      {
        return HAL_ERROR;
 80015e0:	2301      	movs	r3, #1
 80015e2:	e296      	b.n	8001b12 <HAL_RCC_OscConfig+0x84e>
      }
      /* Otherwise, just the calibration is allowed */
      else
      {
        /* Adjusts the Internal High Speed oscillator (CSI) calibration value.*/
        __HAL_RCC_CSI_CALIBRATIONVALUE_ADJUST(RCC_OscInitStruct->CSICalibrationValue);
 80015e4:	f7ff fb12 	bl	8000c0c <HAL_GetREVID>
 80015e8:	4603      	mov	r3, r0
 80015ea:	f241 0203 	movw	r2, #4099	; 0x1003
 80015ee:	4293      	cmp	r3, r2
 80015f0:	d817      	bhi.n	8001622 <HAL_RCC_OscConfig+0x35e>
 80015f2:	687b      	ldr	r3, [r7, #4]
 80015f4:	6a1b      	ldr	r3, [r3, #32]
 80015f6:	2b20      	cmp	r3, #32
 80015f8:	d108      	bne.n	800160c <HAL_RCC_OscConfig+0x348>
 80015fa:	4b70      	ldr	r3, [pc, #448]	; (80017bc <HAL_RCC_OscConfig+0x4f8>)
 80015fc:	685b      	ldr	r3, [r3, #4]
 80015fe:	f023 43f8 	bic.w	r3, r3, #2080374784	; 0x7c000000
 8001602:	4a6e      	ldr	r2, [pc, #440]	; (80017bc <HAL_RCC_OscConfig+0x4f8>)
 8001604:	f043 4380 	orr.w	r3, r3, #1073741824	; 0x40000000
 8001608:	6053      	str	r3, [r2, #4]
      if((__HAL_RCC_GET_FLAG(RCC_FLAG_CSIRDY) != 0U) && (RCC_OscInitStruct->CSIState != RCC_CSI_ON))
 800160a:	e075      	b.n	80016f8 <HAL_RCC_OscConfig+0x434>
        __HAL_RCC_CSI_CALIBRATIONVALUE_ADJUST(RCC_OscInitStruct->CSICalibrationValue);
 800160c:	4b6b      	ldr	r3, [pc, #428]	; (80017bc <HAL_RCC_OscConfig+0x4f8>)
 800160e:	685b      	ldr	r3, [r3, #4]
 8001610:	f023 42f8 	bic.w	r2, r3, #2080374784	; 0x7c000000
 8001614:	687b      	ldr	r3, [r7, #4]
 8001616:	6a1b      	ldr	r3, [r3, #32]
 8001618:	069b      	lsls	r3, r3, #26
 800161a:	4968      	ldr	r1, [pc, #416]	; (80017bc <HAL_RCC_OscConfig+0x4f8>)
 800161c:	4313      	orrs	r3, r2
 800161e:	604b      	str	r3, [r1, #4]
      if((__HAL_RCC_GET_FLAG(RCC_FLAG_CSIRDY) != 0U) && (RCC_OscInitStruct->CSIState != RCC_CSI_ON))
 8001620:	e06a      	b.n	80016f8 <HAL_RCC_OscConfig+0x434>
        __HAL_RCC_CSI_CALIBRATIONVALUE_ADJUST(RCC_OscInitStruct->CSICalibrationValue);
 8001622:	4b66      	ldr	r3, [pc, #408]	; (80017bc <HAL_RCC_OscConfig+0x4f8>)
 8001624:	68db      	ldr	r3, [r3, #12]
 8001626:	f023 527c 	bic.w	r2, r3, #1056964608	; 0x3f000000
 800162a:	687b      	ldr	r3, [r7, #4]
 800162c:	6a1b      	ldr	r3, [r3, #32]
 800162e:	061b      	lsls	r3, r3, #24
 8001630:	4962      	ldr	r1, [pc, #392]	; (80017bc <HAL_RCC_OscConfig+0x4f8>)
 8001632:	4313      	orrs	r3, r2
 8001634:	60cb      	str	r3, [r1, #12]
      if((__HAL_RCC_GET_FLAG(RCC_FLAG_CSIRDY) != 0U) && (RCC_OscInitStruct->CSIState != RCC_CSI_ON))
 8001636:	e05f      	b.n	80016f8 <HAL_RCC_OscConfig+0x434>
      }
    }
    else
    {
      /* Check the CSI State */
      if((RCC_OscInitStruct->CSIState)!= RCC_CSI_OFF)
 8001638:	687b      	ldr	r3, [r7, #4]
 800163a:	69db      	ldr	r3, [r3, #28]
 800163c:	2b00      	cmp	r3, #0
 800163e:	d042      	beq.n	80016c6 <HAL_RCC_OscConfig+0x402>
      {
        /* Enable the Internal High Speed oscillator (CSI). */
        __HAL_RCC_CSI_ENABLE();
 8001640:	4b5e      	ldr	r3, [pc, #376]	; (80017bc <HAL_RCC_OscConfig+0x4f8>)
 8001642:	681b      	ldr	r3, [r3, #0]
 8001644:	4a5d      	ldr	r2, [pc, #372]	; (80017bc <HAL_RCC_OscConfig+0x4f8>)
 8001646:	f043 0380 	orr.w	r3, r3, #128	; 0x80
 800164a:	6013      	str	r3, [r2, #0]

        /* Get Start Tick*/
        tickstart = HAL_GetTick();
 800164c:	f7ff fad2 	bl	8000bf4 <HAL_GetTick>
 8001650:	6278      	str	r0, [r7, #36]	; 0x24

        /* Wait till CSI is ready */
        while(__HAL_RCC_GET_FLAG(RCC_FLAG_CSIRDY) == 0U)
 8001652:	e008      	b.n	8001666 <HAL_RCC_OscConfig+0x3a2>
        {
          if((HAL_GetTick() - tickstart ) > CSI_TIMEOUT_VALUE)
 8001654:	f7ff face 	bl	8000bf4 <HAL_GetTick>
 8001658:	4602      	mov	r2, r0
 800165a:	6a7b      	ldr	r3, [r7, #36]	; 0x24
 800165c:	1ad3      	subs	r3, r2, r3
 800165e:	2b02      	cmp	r3, #2
 8001660:	d901      	bls.n	8001666 <HAL_RCC_OscConfig+0x3a2>
          {
            return HAL_TIMEOUT;
 8001662:	2303      	movs	r3, #3
 8001664:	e255      	b.n	8001b12 <HAL_RCC_OscConfig+0x84e>
        while(__HAL_RCC_GET_FLAG(RCC_FLAG_CSIRDY) == 0U)
 8001666:	4b55      	ldr	r3, [pc, #340]	; (80017bc <HAL_RCC_OscConfig+0x4f8>)
 8001668:	681b      	ldr	r3, [r3, #0]
 800166a:	f403 7380 	and.w	r3, r3, #256	; 0x100
 800166e:	2b00      	cmp	r3, #0
 8001670:	d0f0      	beq.n	8001654 <HAL_RCC_OscConfig+0x390>
          }
        }

        /* Adjusts the Internal High Speed oscillator (CSI) calibration value.*/
        __HAL_RCC_CSI_CALIBRATIONVALUE_ADJUST(RCC_OscInitStruct->CSICalibrationValue);
 8001672:	f7ff facb 	bl	8000c0c <HAL_GetREVID>
 8001676:	4603      	mov	r3, r0
 8001678:	f241 0203 	movw	r2, #4099	; 0x1003
 800167c:	4293      	cmp	r3, r2
 800167e:	d817      	bhi.n	80016b0 <HAL_RCC_OscConfig+0x3ec>
 8001680:	687b      	ldr	r3, [r7, #4]
 8001682:	6a1b      	ldr	r3, [r3, #32]
 8001684:	2b20      	cmp	r3, #32
 8001686:	d108      	bne.n	800169a <HAL_RCC_OscConfig+0x3d6>
 8001688:	4b4c      	ldr	r3, [pc, #304]	; (80017bc <HAL_RCC_OscConfig+0x4f8>)
 800168a:	685b      	ldr	r3, [r3, #4]
 800168c:	f023 43f8 	bic.w	r3, r3, #2080374784	; 0x7c000000
 8001690:	4a4a      	ldr	r2, [pc, #296]	; (80017bc <HAL_RCC_OscConfig+0x4f8>)
 8001692:	f043 4380 	orr.w	r3, r3, #1073741824	; 0x40000000
 8001696:	6053      	str	r3, [r2, #4]
 8001698:	e02e      	b.n	80016f8 <HAL_RCC_OscConfig+0x434>
 800169a:	4b48      	ldr	r3, [pc, #288]	; (80017bc <HAL_RCC_OscConfig+0x4f8>)
 800169c:	685b      	ldr	r3, [r3, #4]
 800169e:	f023 42f8 	bic.w	r2, r3, #2080374784	; 0x7c000000
 80016a2:	687b      	ldr	r3, [r7, #4]
 80016a4:	6a1b      	ldr	r3, [r3, #32]
 80016a6:	069b      	lsls	r3, r3, #26
 80016a8:	4944      	ldr	r1, [pc, #272]	; (80017bc <HAL_RCC_OscConfig+0x4f8>)
 80016aa:	4313      	orrs	r3, r2
 80016ac:	604b      	str	r3, [r1, #4]
 80016ae:	e023      	b.n	80016f8 <HAL_RCC_OscConfig+0x434>
 80016b0:	4b42      	ldr	r3, [pc, #264]	; (80017bc <HAL_RCC_OscConfig+0x4f8>)
 80016b2:	68db      	ldr	r3, [r3, #12]
 80016b4:	f023 527c 	bic.w	r2, r3, #1056964608	; 0x3f000000
 80016b8:	687b      	ldr	r3, [r7, #4]
 80016ba:	6a1b      	ldr	r3, [r3, #32]
 80016bc:	061b      	lsls	r3, r3, #24
 80016be:	493f      	ldr	r1, [pc, #252]	; (80017bc <HAL_RCC_OscConfig+0x4f8>)
 80016c0:	4313      	orrs	r3, r2
 80016c2:	60cb      	str	r3, [r1, #12]
 80016c4:	e018      	b.n	80016f8 <HAL_RCC_OscConfig+0x434>
      }
      else
      {
        /* Disable the Internal High Speed oscillator (CSI). */
        __HAL_RCC_CSI_DISABLE();
 80016c6:	4b3d      	ldr	r3, [pc, #244]	; (80017bc <HAL_RCC_OscConfig+0x4f8>)
 80016c8:	681b      	ldr	r3, [r3, #0]
 80016ca:	4a3c      	ldr	r2, [pc, #240]	; (80017bc <HAL_RCC_OscConfig+0x4f8>)
 80016cc:	f023 0380 	bic.w	r3, r3, #128	; 0x80
 80016d0:	6013      	str	r3, [r2, #0]

        /* Get Start Tick*/
        tickstart = HAL_GetTick();
 80016d2:	f7ff fa8f 	bl	8000bf4 <HAL_GetTick>
 80016d6:	6278      	str	r0, [r7, #36]	; 0x24

        /* Wait till CSI is disabled */
        while(__HAL_RCC_GET_FLAG(RCC_FLAG_CSIRDY) != 0U)
 80016d8:	e008      	b.n	80016ec <HAL_RCC_OscConfig+0x428>
        {
          if((HAL_GetTick() - tickstart ) > CSI_TIMEOUT_VALUE)
 80016da:	f7ff fa8b 	bl	8000bf4 <HAL_GetTick>
 80016de:	4602      	mov	r2, r0
 80016e0:	6a7b      	ldr	r3, [r7, #36]	; 0x24
 80016e2:	1ad3      	subs	r3, r2, r3
 80016e4:	2b02      	cmp	r3, #2
 80016e6:	d901      	bls.n	80016ec <HAL_RCC_OscConfig+0x428>
          {
            return HAL_TIMEOUT;
 80016e8:	2303      	movs	r3, #3
 80016ea:	e212      	b.n	8001b12 <HAL_RCC_OscConfig+0x84e>
        while(__HAL_RCC_GET_FLAG(RCC_FLAG_CSIRDY) != 0U)
 80016ec:	4b33      	ldr	r3, [pc, #204]	; (80017bc <HAL_RCC_OscConfig+0x4f8>)
 80016ee:	681b      	ldr	r3, [r3, #0]
 80016f0:	f403 7380 	and.w	r3, r3, #256	; 0x100
 80016f4:	2b00      	cmp	r3, #0
 80016f6:	d1f0      	bne.n	80016da <HAL_RCC_OscConfig+0x416>
        }
      }
    }
  }
  /*------------------------------ LSI Configuration -------------------------*/
  if(((RCC_OscInitStruct->OscillatorType) & RCC_OSCILLATORTYPE_LSI) == RCC_OSCILLATORTYPE_LSI)
 80016f8:	687b      	ldr	r3, [r7, #4]
 80016fa:	681b      	ldr	r3, [r3, #0]
 80016fc:	f003 0308 	and.w	r3, r3, #8
 8001700:	2b00      	cmp	r3, #0
 8001702:	d036      	beq.n	8001772 <HAL_RCC_OscConfig+0x4ae>
  {
    /* Check the parameters */
    assert_param(IS_RCC_LSI(RCC_OscInitStruct->LSIState));

    /* Check the LSI State */
    if((RCC_OscInitStruct->LSIState)!= RCC_LSI_OFF)
 8001704:	687b      	ldr	r3, [r7, #4]
 8001706:	695b      	ldr	r3, [r3, #20]
 8001708:	2b00      	cmp	r3, #0
 800170a:	d019      	beq.n	8001740 <HAL_RCC_OscConfig+0x47c>
    {
      /* Enable the Internal Low Speed oscillator (LSI). */
      __HAL_RCC_LSI_ENABLE();
 800170c:	4b2b      	ldr	r3, [pc, #172]	; (80017bc <HAL_RCC_OscConfig+0x4f8>)
 800170e:	6f5b      	ldr	r3, [r3, #116]	; 0x74
 8001710:	4a2a      	ldr	r2, [pc, #168]	; (80017bc <HAL_RCC_OscConfig+0x4f8>)
 8001712:	f043 0301 	orr.w	r3, r3, #1
 8001716:	6753      	str	r3, [r2, #116]	; 0x74

      /* Get Start Tick*/
      tickstart = HAL_GetTick();
 8001718:	f7ff fa6c 	bl	8000bf4 <HAL_GetTick>
 800171c:	6278      	str	r0, [r7, #36]	; 0x24

      /* Wait till LSI is ready */
      while(__HAL_RCC_GET_FLAG(RCC_FLAG_LSIRDY) == 0U)
 800171e:	e008      	b.n	8001732 <HAL_RCC_OscConfig+0x46e>
      {
        if((HAL_GetTick() - tickstart ) > LSI_TIMEOUT_VALUE)
 8001720:	f7ff fa68 	bl	8000bf4 <HAL_GetTick>
 8001724:	4602      	mov	r2, r0
 8001726:	6a7b      	ldr	r3, [r7, #36]	; 0x24
 8001728:	1ad3      	subs	r3, r2, r3
 800172a:	2b02      	cmp	r3, #2
 800172c:	d901      	bls.n	8001732 <HAL_RCC_OscConfig+0x46e>
        {
          return HAL_TIMEOUT;
 800172e:	2303      	movs	r3, #3
 8001730:	e1ef      	b.n	8001b12 <HAL_RCC_OscConfig+0x84e>
      while(__HAL_RCC_GET_FLAG(RCC_FLAG_LSIRDY) == 0U)
 8001732:	4b22      	ldr	r3, [pc, #136]	; (80017bc <HAL_RCC_OscConfig+0x4f8>)
 8001734:	6f5b      	ldr	r3, [r3, #116]	; 0x74
 8001736:	f003 0302 	and.w	r3, r3, #2
 800173a:	2b00      	cmp	r3, #0
 800173c:	d0f0      	beq.n	8001720 <HAL_RCC_OscConfig+0x45c>
 800173e:	e018      	b.n	8001772 <HAL_RCC_OscConfig+0x4ae>
      }
    }
    else
    {
      /* Disable the Internal Low Speed oscillator (LSI). */
      __HAL_RCC_LSI_DISABLE();
 8001740:	4b1e      	ldr	r3, [pc, #120]	; (80017bc <HAL_RCC_OscConfig+0x4f8>)
 8001742:	6f5b      	ldr	r3, [r3, #116]	; 0x74
 8001744:	4a1d      	ldr	r2, [pc, #116]	; (80017bc <HAL_RCC_OscConfig+0x4f8>)
 8001746:	f023 0301 	bic.w	r3, r3, #1
 800174a:	6753      	str	r3, [r2, #116]	; 0x74

      /* Get Start Tick*/
      tickstart = HAL_GetTick();
 800174c:	f7ff fa52 	bl	8000bf4 <HAL_GetTick>
 8001750:	6278      	str	r0, [r7, #36]	; 0x24

      /* Wait till LSI is ready */
      while(__HAL_RCC_GET_FLAG(RCC_FLAG_LSIRDY) != 0U)
 8001752:	e008      	b.n	8001766 <HAL_RCC_OscConfig+0x4a2>
      {
        if((HAL_GetTick() - tickstart ) > LSI_TIMEOUT_VALUE)
 8001754:	f7ff fa4e 	bl	8000bf4 <HAL_GetTick>
 8001758:	4602      	mov	r2, r0
 800175a:	6a7b      	ldr	r3, [r7, #36]	; 0x24
 800175c:	1ad3      	subs	r3, r2, r3
 800175e:	2b02      	cmp	r3, #2
 8001760:	d901      	bls.n	8001766 <HAL_RCC_OscConfig+0x4a2>
        {
          return HAL_TIMEOUT;
 8001762:	2303      	movs	r3, #3
 8001764:	e1d5      	b.n	8001b12 <HAL_RCC_OscConfig+0x84e>
      while(__HAL_RCC_GET_FLAG(RCC_FLAG_LSIRDY) != 0U)
 8001766:	4b15      	ldr	r3, [pc, #84]	; (80017bc <HAL_RCC_OscConfig+0x4f8>)
 8001768:	6f5b      	ldr	r3, [r3, #116]	; 0x74
 800176a:	f003 0302 	and.w	r3, r3, #2
 800176e:	2b00      	cmp	r3, #0
 8001770:	d1f0      	bne.n	8001754 <HAL_RCC_OscConfig+0x490>
      }
    }
  }

  /*------------------------------ HSI48 Configuration -------------------------*/
  if(((RCC_OscInitStruct->OscillatorType) & RCC_OSCILLATORTYPE_HSI48) == RCC_OSCILLATORTYPE_HSI48)
 8001772:	687b      	ldr	r3, [r7, #4]
 8001774:	681b      	ldr	r3, [r3, #0]
 8001776:	f003 0320 	and.w	r3, r3, #32
 800177a:	2b00      	cmp	r3, #0
 800177c:	d039      	beq.n	80017f2 <HAL_RCC_OscConfig+0x52e>
  {
    /* Check the parameters */
    assert_param(IS_RCC_HSI48(RCC_OscInitStruct->HSI48State));

    /* Check the HSI48 State */
    if((RCC_OscInitStruct->HSI48State)!= RCC_HSI48_OFF)
 800177e:	687b      	ldr	r3, [r7, #4]
 8001780:	699b      	ldr	r3, [r3, #24]
 8001782:	2b00      	cmp	r3, #0
 8001784:	d01c      	beq.n	80017c0 <HAL_RCC_OscConfig+0x4fc>
    {
      /* Enable the Internal Low Speed oscillator (HSI48). */
      __HAL_RCC_HSI48_ENABLE();
 8001786:	4b0d      	ldr	r3, [pc, #52]	; (80017bc <HAL_RCC_OscConfig+0x4f8>)
 8001788:	681b      	ldr	r3, [r3, #0]
 800178a:	4a0c      	ldr	r2, [pc, #48]	; (80017bc <HAL_RCC_OscConfig+0x4f8>)
 800178c:	f443 5380 	orr.w	r3, r3, #4096	; 0x1000
 8001790:	6013      	str	r3, [r2, #0]

      /* Get time-out */
      tickstart = HAL_GetTick();
 8001792:	f7ff fa2f 	bl	8000bf4 <HAL_GetTick>
 8001796:	6278      	str	r0, [r7, #36]	; 0x24

      /* Wait till HSI48 is ready */
      while(__HAL_RCC_GET_FLAG(RCC_FLAG_HSI48RDY) == 0U)
 8001798:	e008      	b.n	80017ac <HAL_RCC_OscConfig+0x4e8>
      {
        if((HAL_GetTick() - tickstart ) > HSI48_TIMEOUT_VALUE)
 800179a:	f7ff fa2b 	bl	8000bf4 <HAL_GetTick>
 800179e:	4602      	mov	r2, r0
 80017a0:	6a7b      	ldr	r3, [r7, #36]	; 0x24
 80017a2:	1ad3      	subs	r3, r2, r3
 80017a4:	2b02      	cmp	r3, #2
 80017a6:	d901      	bls.n	80017ac <HAL_RCC_OscConfig+0x4e8>
        {
          return HAL_TIMEOUT;
 80017a8:	2303      	movs	r3, #3
 80017aa:	e1b2      	b.n	8001b12 <HAL_RCC_OscConfig+0x84e>
      while(__HAL_RCC_GET_FLAG(RCC_FLAG_HSI48RDY) == 0U)
 80017ac:	4b03      	ldr	r3, [pc, #12]	; (80017bc <HAL_RCC_OscConfig+0x4f8>)
 80017ae:	681b      	ldr	r3, [r3, #0]
 80017b0:	f403 5300 	and.w	r3, r3, #8192	; 0x2000
 80017b4:	2b00      	cmp	r3, #0
 80017b6:	d0f0      	beq.n	800179a <HAL_RCC_OscConfig+0x4d6>
 80017b8:	e01b      	b.n	80017f2 <HAL_RCC_OscConfig+0x52e>
 80017ba:	bf00      	nop
 80017bc:	58024400 	.word	0x58024400
      }
    }
    else
    {
      /* Disable the Internal Low Speed oscillator (HSI48). */
      __HAL_RCC_HSI48_DISABLE();
 80017c0:	4b9b      	ldr	r3, [pc, #620]	; (8001a30 <HAL_RCC_OscConfig+0x76c>)
 80017c2:	681b      	ldr	r3, [r3, #0]
 80017c4:	4a9a      	ldr	r2, [pc, #616]	; (8001a30 <HAL_RCC_OscConfig+0x76c>)
 80017c6:	f423 5380 	bic.w	r3, r3, #4096	; 0x1000
 80017ca:	6013      	str	r3, [r2, #0]

      /* Get time-out */
      tickstart = HAL_GetTick();
 80017cc:	f7ff fa12 	bl	8000bf4 <HAL_GetTick>
 80017d0:	6278      	str	r0, [r7, #36]	; 0x24

      /* Wait till HSI48 is ready */
      while(__HAL_RCC_GET_FLAG(RCC_FLAG_HSI48RDY) != 0U)
 80017d2:	e008      	b.n	80017e6 <HAL_RCC_OscConfig+0x522>
      {
        if((HAL_GetTick() - tickstart ) > HSI48_TIMEOUT_VALUE)
 80017d4:	f7ff fa0e 	bl	8000bf4 <HAL_GetTick>
 80017d8:	4602      	mov	r2, r0
 80017da:	6a7b      	ldr	r3, [r7, #36]	; 0x24
 80017dc:	1ad3      	subs	r3, r2, r3
 80017de:	2b02      	cmp	r3, #2
 80017e0:	d901      	bls.n	80017e6 <HAL_RCC_OscConfig+0x522>
        {
          return HAL_TIMEOUT;
 80017e2:	2303      	movs	r3, #3
 80017e4:	e195      	b.n	8001b12 <HAL_RCC_OscConfig+0x84e>
      while(__HAL_RCC_GET_FLAG(RCC_FLAG_HSI48RDY) != 0U)
 80017e6:	4b92      	ldr	r3, [pc, #584]	; (8001a30 <HAL_RCC_OscConfig+0x76c>)
 80017e8:	681b      	ldr	r3, [r3, #0]
 80017ea:	f403 5300 	and.w	r3, r3, #8192	; 0x2000
 80017ee:	2b00      	cmp	r3, #0
 80017f0:	d1f0      	bne.n	80017d4 <HAL_RCC_OscConfig+0x510>
        }
      }
    }
  }
  /*------------------------------ LSE Configuration -------------------------*/
  if(((RCC_OscInitStruct->OscillatorType) & RCC_OSCILLATORTYPE_LSE) == RCC_OSCILLATORTYPE_LSE)
 80017f2:	687b      	ldr	r3, [r7, #4]
 80017f4:	681b      	ldr	r3, [r3, #0]
 80017f6:	f003 0304 	and.w	r3, r3, #4
 80017fa:	2b00      	cmp	r3, #0
 80017fc:	f000 8081 	beq.w	8001902 <HAL_RCC_OscConfig+0x63e>
  {
    /* Check the parameters */
    assert_param(IS_RCC_LSE(RCC_OscInitStruct->LSEState));

    /* Enable write access to Backup domain */
    PWR->CR1 |= PWR_CR1_DBP;
 8001800:	4b8c      	ldr	r3, [pc, #560]	; (8001a34 <HAL_RCC_OscConfig+0x770>)
 8001802:	681b      	ldr	r3, [r3, #0]
 8001804:	4a8b      	ldr	r2, [pc, #556]	; (8001a34 <HAL_RCC_OscConfig+0x770>)
 8001806:	f443 7380 	orr.w	r3, r3, #256	; 0x100
 800180a:	6013      	str	r3, [r2, #0]

    /* Wait for Backup domain Write protection disable */
    tickstart = HAL_GetTick();
 800180c:	f7ff f9f2 	bl	8000bf4 <HAL_GetTick>
 8001810:	6278      	str	r0, [r7, #36]	; 0x24

    while((PWR->CR1 & PWR_CR1_DBP) == 0U)
 8001812:	e008      	b.n	8001826 <HAL_RCC_OscConfig+0x562>
    {
      if((HAL_GetTick() - tickstart ) > RCC_DBP_TIMEOUT_VALUE)
 8001814:	f7ff f9ee 	bl	8000bf4 <HAL_GetTick>
 8001818:	4602      	mov	r2, r0
 800181a:	6a7b      	ldr	r3, [r7, #36]	; 0x24
 800181c:	1ad3      	subs	r3, r2, r3
 800181e:	2b64      	cmp	r3, #100	; 0x64
 8001820:	d901      	bls.n	8001826 <HAL_RCC_OscConfig+0x562>
      {
        return HAL_TIMEOUT;
 8001822:	2303      	movs	r3, #3
 8001824:	e175      	b.n	8001b12 <HAL_RCC_OscConfig+0x84e>
    while((PWR->CR1 & PWR_CR1_DBP) == 0U)
 8001826:	4b83      	ldr	r3, [pc, #524]	; (8001a34 <HAL_RCC_OscConfig+0x770>)
 8001828:	681b      	ldr	r3, [r3, #0]
 800182a:	f403 7380 	and.w	r3, r3, #256	; 0x100
 800182e:	2b00      	cmp	r3, #0
 8001830:	d0f0      	beq.n	8001814 <HAL_RCC_OscConfig+0x550>
      }
    }

    /* Set the new LSE configuration -----------------------------------------*/
    __HAL_RCC_LSE_CONFIG(RCC_OscInitStruct->LSEState);
 8001832:	687b      	ldr	r3, [r7, #4]
 8001834:	689b      	ldr	r3, [r3, #8]
 8001836:	2b01      	cmp	r3, #1
 8001838:	d106      	bne.n	8001848 <HAL_RCC_OscConfig+0x584>
 800183a:	4b7d      	ldr	r3, [pc, #500]	; (8001a30 <HAL_RCC_OscConfig+0x76c>)
 800183c:	6f1b      	ldr	r3, [r3, #112]	; 0x70
 800183e:	4a7c      	ldr	r2, [pc, #496]	; (8001a30 <HAL_RCC_OscConfig+0x76c>)
 8001840:	f043 0301 	orr.w	r3, r3, #1
 8001844:	6713      	str	r3, [r2, #112]	; 0x70
 8001846:	e02d      	b.n	80018a4 <HAL_RCC_OscConfig+0x5e0>
 8001848:	687b      	ldr	r3, [r7, #4]
 800184a:	689b      	ldr	r3, [r3, #8]
 800184c:	2b00      	cmp	r3, #0
 800184e:	d10c      	bne.n	800186a <HAL_RCC_OscConfig+0x5a6>
 8001850:	4b77      	ldr	r3, [pc, #476]	; (8001a30 <HAL_RCC_OscConfig+0x76c>)
 8001852:	6f1b      	ldr	r3, [r3, #112]	; 0x70
 8001854:	4a76      	ldr	r2, [pc, #472]	; (8001a30 <HAL_RCC_OscConfig+0x76c>)
 8001856:	f023 0301 	bic.w	r3, r3, #1
 800185a:	6713      	str	r3, [r2, #112]	; 0x70
 800185c:	4b74      	ldr	r3, [pc, #464]	; (8001a30 <HAL_RCC_OscConfig+0x76c>)
 800185e:	6f1b      	ldr	r3, [r3, #112]	; 0x70
 8001860:	4a73      	ldr	r2, [pc, #460]	; (8001a30 <HAL_RCC_OscConfig+0x76c>)
 8001862:	f023 0304 	bic.w	r3, r3, #4
 8001866:	6713      	str	r3, [r2, #112]	; 0x70
 8001868:	e01c      	b.n	80018a4 <HAL_RCC_OscConfig+0x5e0>
 800186a:	687b      	ldr	r3, [r7, #4]
 800186c:	689b      	ldr	r3, [r3, #8]
 800186e:	2b05      	cmp	r3, #5
 8001870:	d10c      	bne.n	800188c <HAL_RCC_OscConfig+0x5c8>
 8001872:	4b6f      	ldr	r3, [pc, #444]	; (8001a30 <HAL_RCC_OscConfig+0x76c>)
 8001874:	6f1b      	ldr	r3, [r3, #112]	; 0x70
 8001876:	4a6e      	ldr	r2, [pc, #440]	; (8001a30 <HAL_RCC_OscConfig+0x76c>)
 8001878:	f043 0304 	orr.w	r3, r3, #4
 800187c:	6713      	str	r3, [r2, #112]	; 0x70
 800187e:	4b6c      	ldr	r3, [pc, #432]	; (8001a30 <HAL_RCC_OscConfig+0x76c>)
 8001880:	6f1b      	ldr	r3, [r3, #112]	; 0x70
 8001882:	4a6b      	ldr	r2, [pc, #428]	; (8001a30 <HAL_RCC_OscConfig+0x76c>)
 8001884:	f043 0301 	orr.w	r3, r3, #1
 8001888:	6713      	str	r3, [r2, #112]	; 0x70
 800188a:	e00b      	b.n	80018a4 <HAL_RCC_OscConfig+0x5e0>
 800188c:	4b68      	ldr	r3, [pc, #416]	; (8001a30 <HAL_RCC_OscConfig+0x76c>)
 800188e:	6f1b      	ldr	r3, [r3, #112]	; 0x70
 8001890:	4a67      	ldr	r2, [pc, #412]	; (8001a30 <HAL_RCC_OscConfig+0x76c>)
 8001892:	f023 0301 	bic.w	r3, r3, #1
 8001896:	6713      	str	r3, [r2, #112]	; 0x70
 8001898:	4b65      	ldr	r3, [pc, #404]	; (8001a30 <HAL_RCC_OscConfig+0x76c>)
 800189a:	6f1b      	ldr	r3, [r3, #112]	; 0x70
 800189c:	4a64      	ldr	r2, [pc, #400]	; (8001a30 <HAL_RCC_OscConfig+0x76c>)
 800189e:	f023 0304 	bic.w	r3, r3, #4
 80018a2:	6713      	str	r3, [r2, #112]	; 0x70
    /* Check the LSE State */
    if((RCC_OscInitStruct->LSEState) != RCC_LSE_OFF)
 80018a4:	687b      	ldr	r3, [r7, #4]
 80018a6:	689b      	ldr	r3, [r3, #8]
 80018a8:	2b00      	cmp	r3, #0
 80018aa:	d015      	beq.n	80018d8 <HAL_RCC_OscConfig+0x614>
    {
      /* Get Start Tick*/
      tickstart = HAL_GetTick();
 80018ac:	f7ff f9a2 	bl	8000bf4 <HAL_GetTick>
 80018b0:	6278      	str	r0, [r7, #36]	; 0x24

      /* Wait till LSE is ready */
      while(__HAL_RCC_GET_FLAG(RCC_FLAG_LSERDY) == 0U)
 80018b2:	e00a      	b.n	80018ca <HAL_RCC_OscConfig+0x606>
      {
        if((HAL_GetTick() - tickstart ) > RCC_LSE_TIMEOUT_VALUE)
 80018b4:	f7ff f99e 	bl	8000bf4 <HAL_GetTick>
 80018b8:	4602      	mov	r2, r0
 80018ba:	6a7b      	ldr	r3, [r7, #36]	; 0x24
 80018bc:	1ad3      	subs	r3, r2, r3
 80018be:	f241 3288 	movw	r2, #5000	; 0x1388
 80018c2:	4293      	cmp	r3, r2
 80018c4:	d901      	bls.n	80018ca <HAL_RCC_OscConfig+0x606>
        {
          return HAL_TIMEOUT;
 80018c6:	2303      	movs	r3, #3
 80018c8:	e123      	b.n	8001b12 <HAL_RCC_OscConfig+0x84e>
      while(__HAL_RCC_GET_FLAG(RCC_FLAG_LSERDY) == 0U)
 80018ca:	4b59      	ldr	r3, [pc, #356]	; (8001a30 <HAL_RCC_OscConfig+0x76c>)
 80018cc:	6f1b      	ldr	r3, [r3, #112]	; 0x70
 80018ce:	f003 0302 	and.w	r3, r3, #2
 80018d2:	2b00      	cmp	r3, #0
 80018d4:	d0ee      	beq.n	80018b4 <HAL_RCC_OscConfig+0x5f0>
 80018d6:	e014      	b.n	8001902 <HAL_RCC_OscConfig+0x63e>
      }
    }
    else
    {
      /* Get Start Tick*/
      tickstart = HAL_GetTick();
 80018d8:	f7ff f98c 	bl	8000bf4 <HAL_GetTick>
 80018dc:	6278      	str	r0, [r7, #36]	; 0x24

      /* Wait till LSE is disabled */
      while(__HAL_RCC_GET_FLAG(RCC_FLAG_LSERDY) != 0U)
 80018de:	e00a      	b.n	80018f6 <HAL_RCC_OscConfig+0x632>
      {
        if((HAL_GetTick() - tickstart ) > RCC_LSE_TIMEOUT_VALUE)
 80018e0:	f7ff f988 	bl	8000bf4 <HAL_GetTick>
 80018e4:	4602      	mov	r2, r0
 80018e6:	6a7b      	ldr	r3, [r7, #36]	; 0x24
 80018e8:	1ad3      	subs	r3, r2, r3
 80018ea:	f241 3288 	movw	r2, #5000	; 0x1388
 80018ee:	4293      	cmp	r3, r2
 80018f0:	d901      	bls.n	80018f6 <HAL_RCC_OscConfig+0x632>
        {
          return HAL_TIMEOUT;
 80018f2:	2303      	movs	r3, #3
 80018f4:	e10d      	b.n	8001b12 <HAL_RCC_OscConfig+0x84e>
      while(__HAL_RCC_GET_FLAG(RCC_FLAG_LSERDY) != 0U)
 80018f6:	4b4e      	ldr	r3, [pc, #312]	; (8001a30 <HAL_RCC_OscConfig+0x76c>)
 80018f8:	6f1b      	ldr	r3, [r3, #112]	; 0x70
 80018fa:	f003 0302 	and.w	r3, r3, #2
 80018fe:	2b00      	cmp	r3, #0
 8001900:	d1ee      	bne.n	80018e0 <HAL_RCC_OscConfig+0x61c>
    }
  }
  /*-------------------------------- PLL Configuration -----------------------*/
  /* Check the parameters */
  assert_param(IS_RCC_PLL(RCC_OscInitStruct->PLL.PLLState));
  if ((RCC_OscInitStruct->PLL.PLLState) != RCC_PLL_NONE)
 8001902:	687b      	ldr	r3, [r7, #4]
 8001904:	6a5b      	ldr	r3, [r3, #36]	; 0x24
 8001906:	2b00      	cmp	r3, #0
 8001908:	f000 8102 	beq.w	8001b10 <HAL_RCC_OscConfig+0x84c>
  {
    /* Check if the PLL is used as system clock or not */
    if(__HAL_RCC_GET_SYSCLK_SOURCE() != RCC_CFGR_SWS_PLL1)
 800190c:	4b48      	ldr	r3, [pc, #288]	; (8001a30 <HAL_RCC_OscConfig+0x76c>)
 800190e:	691b      	ldr	r3, [r3, #16]
 8001910:	f003 0338 	and.w	r3, r3, #56	; 0x38
 8001914:	2b18      	cmp	r3, #24
 8001916:	f000 80bd 	beq.w	8001a94 <HAL_RCC_OscConfig+0x7d0>
    {
      if((RCC_OscInitStruct->PLL.PLLState) == RCC_PLL_ON)
 800191a:	687b      	ldr	r3, [r7, #4]
 800191c:	6a5b      	ldr	r3, [r3, #36]	; 0x24
 800191e:	2b02      	cmp	r3, #2
 8001920:	f040 809e 	bne.w	8001a60 <HAL_RCC_OscConfig+0x79c>
        assert_param(IS_RCC_PLLQ_VALUE(RCC_OscInitStruct->PLL.PLLQ));
        assert_param(IS_RCC_PLLR_VALUE(RCC_OscInitStruct->PLL.PLLR));
        assert_param(IS_RCC_PLLFRACN_VALUE(RCC_OscInitStruct->PLL.PLLFRACN));

        /* Disable the main PLL. */
        __HAL_RCC_PLL_DISABLE();
 8001924:	4b42      	ldr	r3, [pc, #264]	; (8001a30 <HAL_RCC_OscConfig+0x76c>)
 8001926:	681b      	ldr	r3, [r3, #0]
 8001928:	4a41      	ldr	r2, [pc, #260]	; (8001a30 <HAL_RCC_OscConfig+0x76c>)
 800192a:	f023 7380 	bic.w	r3, r3, #16777216	; 0x1000000
 800192e:	6013      	str	r3, [r2, #0]

        /* Get Start Tick*/
        tickstart = HAL_GetTick();
 8001930:	f7ff f960 	bl	8000bf4 <HAL_GetTick>
 8001934:	6278      	str	r0, [r7, #36]	; 0x24

        /* Wait till PLL is disabled */
        while(__HAL_RCC_GET_FLAG(RCC_FLAG_PLLRDY) != 0U)
 8001936:	e008      	b.n	800194a <HAL_RCC_OscConfig+0x686>
        {
          if((HAL_GetTick() - tickstart ) > PLL_TIMEOUT_VALUE)
 8001938:	f7ff f95c 	bl	8000bf4 <HAL_GetTick>
 800193c:	4602      	mov	r2, r0
 800193e:	6a7b      	ldr	r3, [r7, #36]	; 0x24
 8001940:	1ad3      	subs	r3, r2, r3
 8001942:	2b02      	cmp	r3, #2
 8001944:	d901      	bls.n	800194a <HAL_RCC_OscConfig+0x686>
          {
            return HAL_TIMEOUT;
 8001946:	2303      	movs	r3, #3
 8001948:	e0e3      	b.n	8001b12 <HAL_RCC_OscConfig+0x84e>
        while(__HAL_RCC_GET_FLAG(RCC_FLAG_PLLRDY) != 0U)
 800194a:	4b39      	ldr	r3, [pc, #228]	; (8001a30 <HAL_RCC_OscConfig+0x76c>)
 800194c:	681b      	ldr	r3, [r3, #0]
 800194e:	f003 7300 	and.w	r3, r3, #33554432	; 0x2000000
 8001952:	2b00      	cmp	r3, #0
 8001954:	d1f0      	bne.n	8001938 <HAL_RCC_OscConfig+0x674>
          }
        }

        /* Configure the main PLL clock source, multiplication and division factors. */
        __HAL_RCC_PLL_CONFIG(RCC_OscInitStruct->PLL.PLLSource,
 8001956:	4b36      	ldr	r3, [pc, #216]	; (8001a30 <HAL_RCC_OscConfig+0x76c>)
 8001958:	6a9a      	ldr	r2, [r3, #40]	; 0x28
 800195a:	4b37      	ldr	r3, [pc, #220]	; (8001a38 <HAL_RCC_OscConfig+0x774>)
 800195c:	4013      	ands	r3, r2
 800195e:	687a      	ldr	r2, [r7, #4]
 8001960:	6a91      	ldr	r1, [r2, #40]	; 0x28
 8001962:	687a      	ldr	r2, [r7, #4]
 8001964:	6ad2      	ldr	r2, [r2, #44]	; 0x2c
 8001966:	0112      	lsls	r2, r2, #4
 8001968:	430a      	orrs	r2, r1
 800196a:	4931      	ldr	r1, [pc, #196]	; (8001a30 <HAL_RCC_OscConfig+0x76c>)
 800196c:	4313      	orrs	r3, r2
 800196e:	628b      	str	r3, [r1, #40]	; 0x28
 8001970:	687b      	ldr	r3, [r7, #4]
 8001972:	6b1b      	ldr	r3, [r3, #48]	; 0x30
 8001974:	3b01      	subs	r3, #1
 8001976:	f3c3 0208 	ubfx	r2, r3, #0, #9
 800197a:	687b      	ldr	r3, [r7, #4]
 800197c:	6b5b      	ldr	r3, [r3, #52]	; 0x34
 800197e:	3b01      	subs	r3, #1
 8001980:	025b      	lsls	r3, r3, #9
 8001982:	b29b      	uxth	r3, r3
 8001984:	431a      	orrs	r2, r3
 8001986:	687b      	ldr	r3, [r7, #4]
 8001988:	6b9b      	ldr	r3, [r3, #56]	; 0x38
 800198a:	3b01      	subs	r3, #1
 800198c:	041b      	lsls	r3, r3, #16
 800198e:	f403 03fe 	and.w	r3, r3, #8323072	; 0x7f0000
 8001992:	431a      	orrs	r2, r3
 8001994:	687b      	ldr	r3, [r7, #4]
 8001996:	6bdb      	ldr	r3, [r3, #60]	; 0x3c
 8001998:	3b01      	subs	r3, #1
 800199a:	061b      	lsls	r3, r3, #24
 800199c:	f003 43fe 	and.w	r3, r3, #2130706432	; 0x7f000000
 80019a0:	4923      	ldr	r1, [pc, #140]	; (8001a30 <HAL_RCC_OscConfig+0x76c>)
 80019a2:	4313      	orrs	r3, r2
 80019a4:	630b      	str	r3, [r1, #48]	; 0x30
                             RCC_OscInitStruct->PLL.PLLP,
                             RCC_OscInitStruct->PLL.PLLQ,
                             RCC_OscInitStruct->PLL.PLLR);

         /* Disable PLLFRACN . */
         __HAL_RCC_PLLFRACN_DISABLE();
 80019a6:	4b22      	ldr	r3, [pc, #136]	; (8001a30 <HAL_RCC_OscConfig+0x76c>)
 80019a8:	6adb      	ldr	r3, [r3, #44]	; 0x2c
 80019aa:	4a21      	ldr	r2, [pc, #132]	; (8001a30 <HAL_RCC_OscConfig+0x76c>)
 80019ac:	f023 0301 	bic.w	r3, r3, #1
 80019b0:	62d3      	str	r3, [r2, #44]	; 0x2c

         /* Configure PLL PLL1FRACN */
         __HAL_RCC_PLLFRACN_CONFIG(RCC_OscInitStruct->PLL.PLLFRACN);
 80019b2:	4b1f      	ldr	r3, [pc, #124]	; (8001a30 <HAL_RCC_OscConfig+0x76c>)
 80019b4:	6b5a      	ldr	r2, [r3, #52]	; 0x34
 80019b6:	4b21      	ldr	r3, [pc, #132]	; (8001a3c <HAL_RCC_OscConfig+0x778>)
 80019b8:	4013      	ands	r3, r2
 80019ba:	687a      	ldr	r2, [r7, #4]
 80019bc:	6c92      	ldr	r2, [r2, #72]	; 0x48
 80019be:	00d2      	lsls	r2, r2, #3
 80019c0:	491b      	ldr	r1, [pc, #108]	; (8001a30 <HAL_RCC_OscConfig+0x76c>)
 80019c2:	4313      	orrs	r3, r2
 80019c4:	634b      	str	r3, [r1, #52]	; 0x34

        /* Select PLL1 input reference frequency range: VCI */
        __HAL_RCC_PLL_VCIRANGE(RCC_OscInitStruct->PLL.PLLRGE) ;
 80019c6:	4b1a      	ldr	r3, [pc, #104]	; (8001a30 <HAL_RCC_OscConfig+0x76c>)
 80019c8:	6adb      	ldr	r3, [r3, #44]	; 0x2c
 80019ca:	f023 020c 	bic.w	r2, r3, #12
 80019ce:	687b      	ldr	r3, [r7, #4]
 80019d0:	6c1b      	ldr	r3, [r3, #64]	; 0x40
 80019d2:	4917      	ldr	r1, [pc, #92]	; (8001a30 <HAL_RCC_OscConfig+0x76c>)
 80019d4:	4313      	orrs	r3, r2
 80019d6:	62cb      	str	r3, [r1, #44]	; 0x2c

        /* Select PLL1 output frequency range : VCO */
        __HAL_RCC_PLL_VCORANGE(RCC_OscInitStruct->PLL.PLLVCOSEL) ;
 80019d8:	4b15      	ldr	r3, [pc, #84]	; (8001a30 <HAL_RCC_OscConfig+0x76c>)
 80019da:	6adb      	ldr	r3, [r3, #44]	; 0x2c
 80019dc:	f023 0202 	bic.w	r2, r3, #2
 80019e0:	687b      	ldr	r3, [r7, #4]
 80019e2:	6c5b      	ldr	r3, [r3, #68]	; 0x44
 80019e4:	4912      	ldr	r1, [pc, #72]	; (8001a30 <HAL_RCC_OscConfig+0x76c>)
 80019e6:	4313      	orrs	r3, r2
 80019e8:	62cb      	str	r3, [r1, #44]	; 0x2c

        /* Enable PLL System Clock output. */
         __HAL_RCC_PLLCLKOUT_ENABLE(RCC_PLL1_DIVP);
 80019ea:	4b11      	ldr	r3, [pc, #68]	; (8001a30 <HAL_RCC_OscConfig+0x76c>)
 80019ec:	6adb      	ldr	r3, [r3, #44]	; 0x2c
 80019ee:	4a10      	ldr	r2, [pc, #64]	; (8001a30 <HAL_RCC_OscConfig+0x76c>)
 80019f0:	f443 3380 	orr.w	r3, r3, #65536	; 0x10000
 80019f4:	62d3      	str	r3, [r2, #44]	; 0x2c

        /* Enable PLL1Q Clock output. */
         __HAL_RCC_PLLCLKOUT_ENABLE(RCC_PLL1_DIVQ);
 80019f6:	4b0e      	ldr	r3, [pc, #56]	; (8001a30 <HAL_RCC_OscConfig+0x76c>)
 80019f8:	6adb      	ldr	r3, [r3, #44]	; 0x2c
 80019fa:	4a0d      	ldr	r2, [pc, #52]	; (8001a30 <HAL_RCC_OscConfig+0x76c>)
 80019fc:	f443 3300 	orr.w	r3, r3, #131072	; 0x20000
 8001a00:	62d3      	str	r3, [r2, #44]	; 0x2c

        /* Enable PLL1R  Clock output. */
         __HAL_RCC_PLLCLKOUT_ENABLE(RCC_PLL1_DIVR);
 8001a02:	4b0b      	ldr	r3, [pc, #44]	; (8001a30 <HAL_RCC_OscConfig+0x76c>)
 8001a04:	6adb      	ldr	r3, [r3, #44]	; 0x2c
 8001a06:	4a0a      	ldr	r2, [pc, #40]	; (8001a30 <HAL_RCC_OscConfig+0x76c>)
 8001a08:	f443 2380 	orr.w	r3, r3, #262144	; 0x40000
 8001a0c:	62d3      	str	r3, [r2, #44]	; 0x2c

        /* Enable PLL1FRACN . */
         __HAL_RCC_PLLFRACN_ENABLE();
 8001a0e:	4b08      	ldr	r3, [pc, #32]	; (8001a30 <HAL_RCC_OscConfig+0x76c>)
 8001a10:	6adb      	ldr	r3, [r3, #44]	; 0x2c
 8001a12:	4a07      	ldr	r2, [pc, #28]	; (8001a30 <HAL_RCC_OscConfig+0x76c>)
 8001a14:	f043 0301 	orr.w	r3, r3, #1
 8001a18:	62d3      	str	r3, [r2, #44]	; 0x2c

        /* Enable the main PLL. */
        __HAL_RCC_PLL_ENABLE();
 8001a1a:	4b05      	ldr	r3, [pc, #20]	; (8001a30 <HAL_RCC_OscConfig+0x76c>)
 8001a1c:	681b      	ldr	r3, [r3, #0]
 8001a1e:	4a04      	ldr	r2, [pc, #16]	; (8001a30 <HAL_RCC_OscConfig+0x76c>)
 8001a20:	f043 7380 	orr.w	r3, r3, #16777216	; 0x1000000
 8001a24:	6013      	str	r3, [r2, #0]

        /* Get Start Tick*/
        tickstart = HAL_GetTick();
 8001a26:	f7ff f8e5 	bl	8000bf4 <HAL_GetTick>
 8001a2a:	6278      	str	r0, [r7, #36]	; 0x24

        /* Wait till PLL is ready */
        while(__HAL_RCC_GET_FLAG(RCC_FLAG_PLLRDY) == 0U)
 8001a2c:	e011      	b.n	8001a52 <HAL_RCC_OscConfig+0x78e>
 8001a2e:	bf00      	nop
 8001a30:	58024400 	.word	0x58024400
 8001a34:	58024800 	.word	0x58024800
 8001a38:	fffffc0c 	.word	0xfffffc0c
 8001a3c:	ffff0007 	.word	0xffff0007
        {
          if((HAL_GetTick() - tickstart ) > PLL_TIMEOUT_VALUE)
 8001a40:	f7ff f8d8 	bl	8000bf4 <HAL_GetTick>
 8001a44:	4602      	mov	r2, r0
 8001a46:	6a7b      	ldr	r3, [r7, #36]	; 0x24
 8001a48:	1ad3      	subs	r3, r2, r3
 8001a4a:	2b02      	cmp	r3, #2
 8001a4c:	d901      	bls.n	8001a52 <HAL_RCC_OscConfig+0x78e>
          {
            return HAL_TIMEOUT;
 8001a4e:	2303      	movs	r3, #3
 8001a50:	e05f      	b.n	8001b12 <HAL_RCC_OscConfig+0x84e>
        while(__HAL_RCC_GET_FLAG(RCC_FLAG_PLLRDY) == 0U)
 8001a52:	4b32      	ldr	r3, [pc, #200]	; (8001b1c <HAL_RCC_OscConfig+0x858>)
 8001a54:	681b      	ldr	r3, [r3, #0]
 8001a56:	f003 7300 	and.w	r3, r3, #33554432	; 0x2000000
 8001a5a:	2b00      	cmp	r3, #0
 8001a5c:	d0f0      	beq.n	8001a40 <HAL_RCC_OscConfig+0x77c>
 8001a5e:	e057      	b.n	8001b10 <HAL_RCC_OscConfig+0x84c>
        }
      }
      else
      {
        /* Disable the main PLL. */
        __HAL_RCC_PLL_DISABLE();
 8001a60:	4b2e      	ldr	r3, [pc, #184]	; (8001b1c <HAL_RCC_OscConfig+0x858>)
 8001a62:	681b      	ldr	r3, [r3, #0]
 8001a64:	4a2d      	ldr	r2, [pc, #180]	; (8001b1c <HAL_RCC_OscConfig+0x858>)
 8001a66:	f023 7380 	bic.w	r3, r3, #16777216	; 0x1000000
 8001a6a:	6013      	str	r3, [r2, #0]

        /* Get Start Tick*/
        tickstart = HAL_GetTick();
 8001a6c:	f7ff f8c2 	bl	8000bf4 <HAL_GetTick>
 8001a70:	6278      	str	r0, [r7, #36]	; 0x24

        /* Wait till PLL is disabled */
        while(__HAL_RCC_GET_FLAG(RCC_FLAG_PLLRDY) != 0U)
 8001a72:	e008      	b.n	8001a86 <HAL_RCC_OscConfig+0x7c2>
        {
          if((HAL_GetTick() - tickstart ) > PLL_TIMEOUT_VALUE)
 8001a74:	f7ff f8be 	bl	8000bf4 <HAL_GetTick>
 8001a78:	4602      	mov	r2, r0
 8001a7a:	6a7b      	ldr	r3, [r7, #36]	; 0x24
 8001a7c:	1ad3      	subs	r3, r2, r3
 8001a7e:	2b02      	cmp	r3, #2
 8001a80:	d901      	bls.n	8001a86 <HAL_RCC_OscConfig+0x7c2>
          {
            return HAL_TIMEOUT;
 8001a82:	2303      	movs	r3, #3
 8001a84:	e045      	b.n	8001b12 <HAL_RCC_OscConfig+0x84e>
        while(__HAL_RCC_GET_FLAG(RCC_FLAG_PLLRDY) != 0U)
 8001a86:	4b25      	ldr	r3, [pc, #148]	; (8001b1c <HAL_RCC_OscConfig+0x858>)
 8001a88:	681b      	ldr	r3, [r3, #0]
 8001a8a:	f003 7300 	and.w	r3, r3, #33554432	; 0x2000000
 8001a8e:	2b00      	cmp	r3, #0
 8001a90:	d1f0      	bne.n	8001a74 <HAL_RCC_OscConfig+0x7b0>
 8001a92:	e03d      	b.n	8001b10 <HAL_RCC_OscConfig+0x84c>
      }
    }
    else
    {
      /* Do not return HAL_ERROR if request repeats the current configuration */
      temp1_pllckcfg = RCC->PLLCKSELR;
 8001a94:	4b21      	ldr	r3, [pc, #132]	; (8001b1c <HAL_RCC_OscConfig+0x858>)
 8001a96:	6a9b      	ldr	r3, [r3, #40]	; 0x28
 8001a98:	613b      	str	r3, [r7, #16]
      temp2_pllckcfg = RCC->PLL1DIVR;
 8001a9a:	4b20      	ldr	r3, [pc, #128]	; (8001b1c <HAL_RCC_OscConfig+0x858>)
 8001a9c:	6b1b      	ldr	r3, [r3, #48]	; 0x30
 8001a9e:	60fb      	str	r3, [r7, #12]
      if(((RCC_OscInitStruct->PLL.PLLState) == RCC_PLL_OFF) ||
 8001aa0:	687b      	ldr	r3, [r7, #4]
 8001aa2:	6a5b      	ldr	r3, [r3, #36]	; 0x24
 8001aa4:	2b01      	cmp	r3, #1
 8001aa6:	d031      	beq.n	8001b0c <HAL_RCC_OscConfig+0x848>
	 (READ_BIT(temp1_pllckcfg, RCC_PLLCKSELR_PLLSRC) != RCC_OscInitStruct->PLL.PLLSource) ||
 8001aa8:	693b      	ldr	r3, [r7, #16]
 8001aaa:	f003 0203 	and.w	r2, r3, #3
 8001aae:	687b      	ldr	r3, [r7, #4]
 8001ab0:	6a9b      	ldr	r3, [r3, #40]	; 0x28
      if(((RCC_OscInitStruct->PLL.PLLState) == RCC_PLL_OFF) ||
 8001ab2:	429a      	cmp	r2, r3
 8001ab4:	d12a      	bne.n	8001b0c <HAL_RCC_OscConfig+0x848>
         ((READ_BIT(temp1_pllckcfg, RCC_PLLCKSELR_DIVM1) >> RCC_PLLCKSELR_DIVM1_Pos) != RCC_OscInitStruct->PLL.PLLM) ||
 8001ab6:	693b      	ldr	r3, [r7, #16]
 8001ab8:	091b      	lsrs	r3, r3, #4
 8001aba:	f003 023f 	and.w	r2, r3, #63	; 0x3f
 8001abe:	687b      	ldr	r3, [r7, #4]
 8001ac0:	6adb      	ldr	r3, [r3, #44]	; 0x2c
	 (READ_BIT(temp1_pllckcfg, RCC_PLLCKSELR_PLLSRC) != RCC_OscInitStruct->PLL.PLLSource) ||
 8001ac2:	429a      	cmp	r2, r3
 8001ac4:	d122      	bne.n	8001b0c <HAL_RCC_OscConfig+0x848>
         (READ_BIT(temp2_pllckcfg, RCC_PLL1DIVR_N1) != (RCC_OscInitStruct->PLL.PLLN - 1U)) ||
 8001ac6:	68fb      	ldr	r3, [r7, #12]
 8001ac8:	f3c3 0208 	ubfx	r2, r3, #0, #9
 8001acc:	687b      	ldr	r3, [r7, #4]
 8001ace:	6b1b      	ldr	r3, [r3, #48]	; 0x30
 8001ad0:	3b01      	subs	r3, #1
         ((READ_BIT(temp1_pllckcfg, RCC_PLLCKSELR_DIVM1) >> RCC_PLLCKSELR_DIVM1_Pos) != RCC_OscInitStruct->PLL.PLLM) ||
 8001ad2:	429a      	cmp	r2, r3
 8001ad4:	d11a      	bne.n	8001b0c <HAL_RCC_OscConfig+0x848>
         ((READ_BIT(temp2_pllckcfg, RCC_PLL1DIVR_P1) >> RCC_PLL1DIVR_P1_Pos) != (RCC_OscInitStruct->PLL.PLLP - 1U)) ||
 8001ad6:	68fb      	ldr	r3, [r7, #12]
 8001ad8:	0a5b      	lsrs	r3, r3, #9
 8001ada:	f003 027f 	and.w	r2, r3, #127	; 0x7f
 8001ade:	687b      	ldr	r3, [r7, #4]
 8001ae0:	6b5b      	ldr	r3, [r3, #52]	; 0x34
 8001ae2:	3b01      	subs	r3, #1
         (READ_BIT(temp2_pllckcfg, RCC_PLL1DIVR_N1) != (RCC_OscInitStruct->PLL.PLLN - 1U)) ||
 8001ae4:	429a      	cmp	r2, r3
 8001ae6:	d111      	bne.n	8001b0c <HAL_RCC_OscConfig+0x848>
         ((READ_BIT(temp2_pllckcfg, RCC_PLL1DIVR_Q1) >> RCC_PLL1DIVR_Q1_Pos) != (RCC_OscInitStruct->PLL.PLLQ - 1U)) ||
 8001ae8:	68fb      	ldr	r3, [r7, #12]
 8001aea:	0c1b      	lsrs	r3, r3, #16
 8001aec:	f003 027f 	and.w	r2, r3, #127	; 0x7f
 8001af0:	687b      	ldr	r3, [r7, #4]
 8001af2:	6b9b      	ldr	r3, [r3, #56]	; 0x38
 8001af4:	3b01      	subs	r3, #1
         ((READ_BIT(temp2_pllckcfg, RCC_PLL1DIVR_P1) >> RCC_PLL1DIVR_P1_Pos) != (RCC_OscInitStruct->PLL.PLLP - 1U)) ||
 8001af6:	429a      	cmp	r2, r3
 8001af8:	d108      	bne.n	8001b0c <HAL_RCC_OscConfig+0x848>
         ((READ_BIT(temp2_pllckcfg, RCC_PLL1DIVR_R1) >> RCC_PLL1DIVR_R1_Pos) != (RCC_OscInitStruct->PLL.PLLR - 1U)))
 8001afa:	68fb      	ldr	r3, [r7, #12]
 8001afc:	0e1b      	lsrs	r3, r3, #24
 8001afe:	f003 027f 	and.w	r2, r3, #127	; 0x7f
 8001b02:	687b      	ldr	r3, [r7, #4]
 8001b04:	6bdb      	ldr	r3, [r3, #60]	; 0x3c
 8001b06:	3b01      	subs	r3, #1
         ((READ_BIT(temp2_pllckcfg, RCC_PLL1DIVR_Q1) >> RCC_PLL1DIVR_Q1_Pos) != (RCC_OscInitStruct->PLL.PLLQ - 1U)) ||
 8001b08:	429a      	cmp	r2, r3
 8001b0a:	d001      	beq.n	8001b10 <HAL_RCC_OscConfig+0x84c>
      {
        return HAL_ERROR;
 8001b0c:	2301      	movs	r3, #1
 8001b0e:	e000      	b.n	8001b12 <HAL_RCC_OscConfig+0x84e>
      }
    }
  }
  return HAL_OK;
 8001b10:	2300      	movs	r3, #0
}
 8001b12:	4618      	mov	r0, r3
 8001b14:	3730      	adds	r7, #48	; 0x30
 8001b16:	46bd      	mov	sp, r7
 8001b18:	bd80      	pop	{r7, pc}
 8001b1a:	bf00      	nop
 8001b1c:	58024400 	.word	0x58024400

08001b20 <HAL_RCC_ClockConfig>:
  *         D1CPRE[3:0] bits to ensure that  Domain1 core clock not exceed the maximum allowed frequency
  *         (for more details refer to section above "Initialization/de-initialization functions")
  * @retval None
  */
HAL_StatusTypeDef HAL_RCC_ClockConfig(RCC_ClkInitTypeDef  *RCC_ClkInitStruct, uint32_t FLatency)
{
 8001b20:	b580      	push	{r7, lr}
 8001b22:	b086      	sub	sp, #24
 8001b24:	af00      	add	r7, sp, #0
 8001b26:	6078      	str	r0, [r7, #4]
 8001b28:	6039      	str	r1, [r7, #0]
  HAL_StatusTypeDef halstatus;
  uint32_t tickstart;
  uint32_t common_system_clock;

   /* Check Null pointer */
  if(RCC_ClkInitStruct == NULL)
 8001b2a:	687b      	ldr	r3, [r7, #4]
 8001b2c:	2b00      	cmp	r3, #0
 8001b2e:	d101      	bne.n	8001b34 <HAL_RCC_ClockConfig+0x14>
  {
    return HAL_ERROR;
 8001b30:	2301      	movs	r3, #1
 8001b32:	e19c      	b.n	8001e6e <HAL_RCC_ClockConfig+0x34e>
  /* To correctly read data from FLASH memory, the number of wait states (LATENCY)
    must be correctly programmed according to the frequency of the CPU clock
    (HCLK) and the supply voltage of the device. */

  /* Increasing the CPU frequency */
  if(FLatency > __HAL_FLASH_GET_LATENCY())
 8001b34:	4b8a      	ldr	r3, [pc, #552]	; (8001d60 <HAL_RCC_ClockConfig+0x240>)
 8001b36:	681b      	ldr	r3, [r3, #0]
 8001b38:	f003 030f 	and.w	r3, r3, #15
 8001b3c:	683a      	ldr	r2, [r7, #0]
 8001b3e:	429a      	cmp	r2, r3
 8001b40:	d910      	bls.n	8001b64 <HAL_RCC_ClockConfig+0x44>
  {
    /* Program the new number of wait states to the LATENCY bits in the FLASH_ACR register */
    __HAL_FLASH_SET_LATENCY(FLatency);
 8001b42:	4b87      	ldr	r3, [pc, #540]	; (8001d60 <HAL_RCC_ClockConfig+0x240>)
 8001b44:	681b      	ldr	r3, [r3, #0]
 8001b46:	f023 020f 	bic.w	r2, r3, #15
 8001b4a:	4985      	ldr	r1, [pc, #532]	; (8001d60 <HAL_RCC_ClockConfig+0x240>)
 8001b4c:	683b      	ldr	r3, [r7, #0]
 8001b4e:	4313      	orrs	r3, r2
 8001b50:	600b      	str	r3, [r1, #0]

    /* Check that the new number of wait states is taken into account to access the Flash
    memory by reading the FLASH_ACR register */
    if(__HAL_FLASH_GET_LATENCY() != FLatency)
 8001b52:	4b83      	ldr	r3, [pc, #524]	; (8001d60 <HAL_RCC_ClockConfig+0x240>)
 8001b54:	681b      	ldr	r3, [r3, #0]
 8001b56:	f003 030f 	and.w	r3, r3, #15
 8001b5a:	683a      	ldr	r2, [r7, #0]
 8001b5c:	429a      	cmp	r2, r3
 8001b5e:	d001      	beq.n	8001b64 <HAL_RCC_ClockConfig+0x44>
    {
      return HAL_ERROR;
 8001b60:	2301      	movs	r3, #1
 8001b62:	e184      	b.n	8001e6e <HAL_RCC_ClockConfig+0x34e>

  }

  /* Increasing the BUS frequency divider */
  /*-------------------------- D1PCLK1/CDPCLK1 Configuration ---------------------------*/
  if(((RCC_ClkInitStruct->ClockType) & RCC_CLOCKTYPE_D1PCLK1) == RCC_CLOCKTYPE_D1PCLK1)
 8001b64:	687b      	ldr	r3, [r7, #4]
 8001b66:	681b      	ldr	r3, [r3, #0]
 8001b68:	f003 0304 	and.w	r3, r3, #4
 8001b6c:	2b00      	cmp	r3, #0
 8001b6e:	d010      	beq.n	8001b92 <HAL_RCC_ClockConfig+0x72>
  {
#if defined (RCC_D1CFGR_D1PPRE)
    if((RCC_ClkInitStruct->APB3CLKDivider) > (RCC->D1CFGR & RCC_D1CFGR_D1PPRE))
 8001b70:	687b      	ldr	r3, [r7, #4]
 8001b72:	691a      	ldr	r2, [r3, #16]
 8001b74:	4b7b      	ldr	r3, [pc, #492]	; (8001d64 <HAL_RCC_ClockConfig+0x244>)
 8001b76:	699b      	ldr	r3, [r3, #24]
 8001b78:	f003 0370 	and.w	r3, r3, #112	; 0x70
 8001b7c:	429a      	cmp	r2, r3
 8001b7e:	d908      	bls.n	8001b92 <HAL_RCC_ClockConfig+0x72>
    {
      assert_param(IS_RCC_D1PCLK1(RCC_ClkInitStruct->APB3CLKDivider));
      MODIFY_REG(RCC->D1CFGR, RCC_D1CFGR_D1PPRE, RCC_ClkInitStruct->APB3CLKDivider);
 8001b80:	4b78      	ldr	r3, [pc, #480]	; (8001d64 <HAL_RCC_ClockConfig+0x244>)
 8001b82:	699b      	ldr	r3, [r3, #24]
 8001b84:	f023 0270 	bic.w	r2, r3, #112	; 0x70
 8001b88:	687b      	ldr	r3, [r7, #4]
 8001b8a:	691b      	ldr	r3, [r3, #16]
 8001b8c:	4975      	ldr	r1, [pc, #468]	; (8001d64 <HAL_RCC_ClockConfig+0x244>)
 8001b8e:	4313      	orrs	r3, r2
 8001b90:	618b      	str	r3, [r1, #24]
    }
#endif
  }

  /*-------------------------- PCLK1 Configuration ---------------------------*/
  if(((RCC_ClkInitStruct->ClockType) & RCC_CLOCKTYPE_PCLK1) == RCC_CLOCKTYPE_PCLK1)
 8001b92:	687b      	ldr	r3, [r7, #4]
 8001b94:	681b      	ldr	r3, [r3, #0]
 8001b96:	f003 0308 	and.w	r3, r3, #8
 8001b9a:	2b00      	cmp	r3, #0
 8001b9c:	d010      	beq.n	8001bc0 <HAL_RCC_ClockConfig+0xa0>
  {
#if defined (RCC_D2CFGR_D2PPRE1)
    if((RCC_ClkInitStruct->APB1CLKDivider) > (RCC->D2CFGR & RCC_D2CFGR_D2PPRE1))
 8001b9e:	687b      	ldr	r3, [r7, #4]
 8001ba0:	695a      	ldr	r2, [r3, #20]
 8001ba2:	4b70      	ldr	r3, [pc, #448]	; (8001d64 <HAL_RCC_ClockConfig+0x244>)
 8001ba4:	69db      	ldr	r3, [r3, #28]
 8001ba6:	f003 0370 	and.w	r3, r3, #112	; 0x70
 8001baa:	429a      	cmp	r2, r3
 8001bac:	d908      	bls.n	8001bc0 <HAL_RCC_ClockConfig+0xa0>
    {
      assert_param(IS_RCC_PCLK1(RCC_ClkInitStruct->APB1CLKDivider));
      MODIFY_REG(RCC->D2CFGR, RCC_D2CFGR_D2PPRE1, (RCC_ClkInitStruct->APB1CLKDivider));
 8001bae:	4b6d      	ldr	r3, [pc, #436]	; (8001d64 <HAL_RCC_ClockConfig+0x244>)
 8001bb0:	69db      	ldr	r3, [r3, #28]
 8001bb2:	f023 0270 	bic.w	r2, r3, #112	; 0x70
 8001bb6:	687b      	ldr	r3, [r7, #4]
 8001bb8:	695b      	ldr	r3, [r3, #20]
 8001bba:	496a      	ldr	r1, [pc, #424]	; (8001d64 <HAL_RCC_ClockConfig+0x244>)
 8001bbc:	4313      	orrs	r3, r2
 8001bbe:	61cb      	str	r3, [r1, #28]
      MODIFY_REG(RCC->CDCFGR2, RCC_CDCFGR2_CDPPRE1, (RCC_ClkInitStruct->APB1CLKDivider));
  }
#endif
    }
  /*-------------------------- PCLK2 Configuration ---------------------------*/
  if(((RCC_ClkInitStruct->ClockType) & RCC_CLOCKTYPE_PCLK2) == RCC_CLOCKTYPE_PCLK2)
 8001bc0:	687b      	ldr	r3, [r7, #4]
 8001bc2:	681b      	ldr	r3, [r3, #0]
 8001bc4:	f003 0310 	and.w	r3, r3, #16
 8001bc8:	2b00      	cmp	r3, #0
 8001bca:	d010      	beq.n	8001bee <HAL_RCC_ClockConfig+0xce>
  {
#if defined(RCC_D2CFGR_D2PPRE2)
    if((RCC_ClkInitStruct->APB2CLKDivider) > (RCC->D2CFGR & RCC_D2CFGR_D2PPRE2))
 8001bcc:	687b      	ldr	r3, [r7, #4]
 8001bce:	699a      	ldr	r2, [r3, #24]
 8001bd0:	4b64      	ldr	r3, [pc, #400]	; (8001d64 <HAL_RCC_ClockConfig+0x244>)
 8001bd2:	69db      	ldr	r3, [r3, #28]
 8001bd4:	f403 63e0 	and.w	r3, r3, #1792	; 0x700
 8001bd8:	429a      	cmp	r2, r3
 8001bda:	d908      	bls.n	8001bee <HAL_RCC_ClockConfig+0xce>
    {
      assert_param(IS_RCC_PCLK2(RCC_ClkInitStruct->APB2CLKDivider));
      MODIFY_REG(RCC->D2CFGR, RCC_D2CFGR_D2PPRE2, (RCC_ClkInitStruct->APB2CLKDivider));
 8001bdc:	4b61      	ldr	r3, [pc, #388]	; (8001d64 <HAL_RCC_ClockConfig+0x244>)
 8001bde:	69db      	ldr	r3, [r3, #28]
 8001be0:	f423 62e0 	bic.w	r2, r3, #1792	; 0x700
 8001be4:	687b      	ldr	r3, [r7, #4]
